:1095F400410FA5004111A6004111A700420FA3008D
:019604000065
:080003009013B4E004F0C322E5
:10836F00E49013B2F0A374FFF0E4A3F012B49212EE
:10837F00B7E912B9DDD2AF12B87F12BBEF125E4070
:10838F007B017A1379AA129A3C9013AEA3A3E0FE55
:10839F00A3E0FBAA069013AAA3A3E0FEA3E02BFF82
:1083AF00EE3AFE12AD4612BB1C12A15F127C2A9050
:1083BF000FA5E06010E4F012BB48EF600812BBFDA0
:1083CF009013B2EFF09013B2E06053120CC9841BFC
:1083DF0004841F05842306840F0C84130E83FF115E
:1083EF00840714841715840B16840319000084283E
:1083FF007F7780227F73801E7F61801A7F64801653
:10840F007F7180127F72800E7F63800AE4FF800687
:10841F007F0180027F02128C96E49013B2F09011CC
:10842F00A7E0608BE4F0901612E014601A14602736
:10843F00240260030283BE120003940A74809480A6
:10844F0050030283BE801E12000394067480948032
:10845F0050030283BE800E12000394037480948035
:0D846F0050030283BEE4F01200A00283BEA1
:03000B0002A2331B
:10A23300C0E0C0F0C083C082C0D075D000C000C0F1
:0DA2430001C002C003C004C005C006C00772
:10A25000900FA4E02401FF900FA3E03400FE7C00E7
:10A260007D32120852ECF0A3EDF064314C7008908E
:0DA2700011A704F012000E9011A67401F069
:10A27D00D007D006D005D004D003D002D001D00035
:0BA28D00D0D0D082D083D0F0D0E032DF
:0300A30002AF4762
:10AF4700C0E0C0F0C083C082C0D075D000C000C0D0
:10AF570001C002C003C004C005C006C007128EFCB2
:10AF6700900FA57401F0D007D006D005D004D00308
:10AF7700D002D001D000D0D0D082D083D0F0D0E0A2
:01AF87003297
:1038F00000000000000000000000000000000000C8
:10390000000000000000000000000FF00000387808
:10391000000070380000F0380000F0780000F07807
:10392000000000F0000000E0000001C00000038083
:103930000000070000000E000000380000007000CA
:103940000000E0000001800000030180000E030081
:10395000001C0600003FFE00003FFC0000000000CD
:103960000000000000000000000000000000000057
:103970000000000000000000000000000000000047
:10398000000000000000000000000FE000001C70BC
:103990000000387000007070000060700000E0707F
:1039A0000000E0700001C0E00001C0E0000380E022
:1039B000000381C0000381C0000703C0000703802B
:1039C0000007038000070700000F0700000E0E002D
:1039D00000061C00000738000003F0000000000093
:1039E00000000000000000000000000000000000D7
:1039F00000000000000000000000000000000000C7
:103A0000000000000000000000000070000000E066
:103A1000000001E0000003E0000007C000000FC04C
:103A200000001BC000003380000067800000C7005A
:103A30000001870000030F0000060E00000C0E00BE
:103A4000001FFFC0003FFFC000001C0000003C0042
:103A50000000380000007C000003FF0000000000B0
:103A60000000000000000000000000000000000056
:103A70000000000000000000000000000000000046
:103A8000000000000000000000000FF000001C38E3
:103A900000003838000070380000F0380000F07086
:103AA0000000F0600000F1C000007F8000003E00D8
:103AB00000007F000001CF80000387C0000703C023
:103AC000000E03C0000C03C0000C0380000C0700B4
:103AD000000E0E000007BC000001E0000000000026
:103AE00000000000000000000000000000000000D6
:103AF000000000000002000000038000000700003A
:103B0000000E8000000C4000001A30000033180046
:103B100000618E00018183F0030104FC0DFFFE189B
:103B200030001C0000003800000030000100600080
:103B300001FFFF8001800300018003000181030079
:103B400001818300018303000183030001830300DB
:103B50000182020000066000000C1F00001803E054
:103B6000007000F003C000701C0000100000000096
:103B70000000000000000000000060000000700075
:103B8000000060000000E0000020C0001FF0801076
:103B90001861FFF818610000186200001866000044
:103BA00018640000186801801867FFC0186003805F
:103BB000186007001860060018600C0018601800F4
:103BC0001FE03000186060001860E0001840C0106E
:103BD0001001801000030018000300180003001CEF
:103BE0000003FFFC0001FFF80000000000000000DF
:103BF00000000000000000000100000001800C0037
:103C00000180060001800700018003000180020896
:103C10000181FFFC2181001C1FFD0010119B001081
:103C2000119A40001198700011986000119860205E
:103C300011986070119860E0119861801FF862001F
:103C400011986C002180700001A06008019060084C
:103C50000198600801BC600807CC60087C0460081B
:103C60002000301C00003FFC0000000000000000AD
:10B66200E03400F07A16790F7B01EB900000F0A332
:10B67200EAF0A3E9F0229013B8E0FEA3E0FF9013F2
:02B68200BF22E5
:0BBB1C007E007F037DA07C0F02B17B48
:10A15F00E49013B5F0A3F07B017A1479550412B68D
:10A16F006D9013BC7427F0E4FFFE12AE369013B659
:10A17F00E02427F09013B512B6629013B5E0FEA35A
:10A18F00E0FF740212A1BF2402F09013B5E0340077
:10A19F00F07A16791212B66A9013B5E0FEA3E0FFBB
:0FA1AF00740112A1BF04F070069013B5E004F024
:0DA1BE00229013BCF012AE369013B6E022D2
:10A42800E49013B8F0A3F0FFFE12B7CF7B017A14C3
:10A43800795512B66C12B678742712A4812427F0C5
:10A448009013B812B66212B678740212A48124026C
:10A45800F09013B8E03400F07B017A16791212B646
:10A468006C12B6787401F01291EF9013B9E004F011
:08A4780070069013B8E004F037
:0AA4800022F01291EF9013B9E022D0
:10A0F20025313964002020202020202020202059D2
:10A102006F752057696E20212020202020202020DA
:10A11200200020202020202020202047616D652063
:10A122004F76657220212020202020202020004A06
:10A132006F696E207468652074696C65732C206782
:10A14200657420746F203230343821002564004257
:0DA15200657374203A0053636F72653A0024
:10691E00245CF58274143EF583E5822BF582E583C3
:10692E003AF58322901587E075F032A4FFAEF0247D
:10693E0060FDE43EFCEB2442FBE43AFAEF248A903D
:10694E0013C3FFE43EF0A3EFF02290147EE0FCA30D
:10695E00E0FD90147DE0FF3395E0FEEF25E0FBEEC9
:10696E0033FAE9FF3395E0FEEF780322245CF582DB
:10697E0074143EF583E5822DF582E5833CF5832282
:10698E00901588E075F032A4FB2418AAF0FFE43AC3
:10699E00FE22E9FF3395E0FEC3EF9404EE6480948B
:1069AE008022E0FAA3E0FBED25E0FDEC33FC229023
:1069BE001587E075F008A4245CF582E43414F583A1
:1069CE0022E9FD3395E0FCED25E0FBEC22E9FF33F7
:1069DE0095E0FEEF25E0FBEE33FAE02225E0FFE046
:1069EE0033FE901456E02FF0901455E03EF0E42262
:1069FE0090147CE0FFFD3395E0FCC3ED9404EC6451
:106A0E0080948022E0FCA3E0FDE9FF3395E0FEEFE9
:106A1E0025E022E0FFC394047480948022E0FEA35C
:106A2E00E0FF90145AE0FCA3E0FDEF227BFFE49020
:106A3E0013D8F0A3F0A374C6F07418A3F0A37410C7
:106A4E00F0A37401F022EF75F002120C14E0229004
:106A5E001459E06401229013D474FFF0A374A0F0D3
:106A6E00A374F2F0229014A2E0FCA3E0FD22E0FE5B
:106A7E00A3E0FF4E2225E0FDE033FC229014597472
:106A8E0004F0227403F0E4A3F0A3F022A3F0A374A5
:106A9E0054F0A37458F022E0FCA3E0FD4C2233FA2C
:106AAE009014E8E02290145A7408F0A3E4F0227BCC
:0D6ABE00017A15796E227C007F147E002283
:10991200E4901657F0FFEF126A235036E4FEEE127F
:109922006A23502BEF1269C1EE126A55FCA3E04C78
:10993200701AEF25E025E02EFD901657E0FC04F0AA
:1099420074472CF582E43416F583EDF00E80CF0FC8
:1099520080C4901657E07002FF2212AD089016578D
:10996200E0FD7C0012085274472DF58274163CF516
:1099720083E0901646F012AD087C007D0A12085270
:10998200ED64014C7005FE7F0480047E007F02902E
:109992001646E0FD1313543F1269C1ED540375F0EE
:0B99A20002120C14EEF0A3EFF07F01A6
:0199AD002297
:10677000E4F91269A040030268C8E490147DF0A314
:10678000F0A3F090147CF01269FE40030268C4EF9D
:106790001269D112696EC333CE33CED8F912691E95
:1067A0001269B0126970C333CE33CED8F92480F5A4
:1067B000827414126980EAF0A3EBF0126970C3339B
:1067C000CE33CED8F912697A126A7C70030268BBA4
:1067D00090147E126AA5700B90147EEEF0A3EFF079
:1067E00002688390147C126963C333CE33CED8F928
:1067F00012691EE0FEA3E06D7002EC6E7049901409
:106800007FE090147E126A83126960C333CE33CE68
:10681000D8F912691EECF0A3EDF090147FE090140B
:106820007E1269EA90147EF0A3F0126970C333CE31
:1068300033CED8F912691E126A2B6D7002EE6C709D
:106840003C126A8A02687D126958C333CE33CED8AF
:10685000F912691EECF0A3EDF090147CE0126A18B6
:10686000FDEE33FC126970C333CE33CED8F9126912
:106870007AE0FFA3E090147ECFF0A3EFF090147DB8
:10688000E004F090147CE0126A18FDEE33FC12690B
:1068900070C333CE33CED8F912697AE4F0A3F09006
:1068A000147EE07002A3E06012126958C333CE3345
:1068B000CED8F912691EECF0A3EDF090147CE00440
:1068C000F002678709026772E4F91269A0504CE48C
:1068D00090147CF01269FE503EEF1269D112696E7D
:1068E000C333CE33CED8F92480F5827414126924D0
:1068F0001269B0126970C333CE33CED8F912697AF7
:10690000E0FEA3E06B7002EE6A60037F0122901448
:0D6910007CE004F00268D4090268CA7F0030
:01691D002257
:1063E500E4F91269A040030265539014A1126A9161
:1063F5009014A07403F09014A0E0FF3395E0C364FB
:10640500809480500302654FEF1269D012696EC304
:1064150033CE33CED8F912691E1269B0126970C332
:1064250033CE33CED8F924A4F5827414126980EAE8
:10643500F0A3EBF0126970C333CE33CED8F91269ED
:106445007A126A7C7003026546126A734C700B906F
:1064550014A2EEF0A3EFF00265089014A012696390
:10646500C333CE33CED8F912691EE0FEA3E06D70BA
:1064750002EC6E704C9014A3E09014A2126A839003
:1064850014A1126963C333CE33CED8F912691EEC59
:10649500F0A3EDF09014A3E09014A21269EA901411
:1064A500A2F0A3F0126970C333CE33CED8F91269C6
:1064B5001E126A2B6D7002EE6C7042126A8A0265BA
:1064C50002126A739014A1126963C333CE33CED816
:1064D500F912691EECF0A3EDF09014A0E0126A1811
:1064E500FDEE33FC126970C333CE33CED8F9126991
:1064F5007AE0FFA3E09014A2CFF0A3EFF09014A1EF
:10650500E014F09014A0E0126A18FDEE33FC126955
:1065150070C333CE33CED8F912697AE4F0A3F09084
:1065250014A2E07002A3E06018126A739014A1121D
:106535006963C333CE33CED8F912691EECF0A3EDEF
:10654500F09014A0E014F00263FB090263E7E4F99C
:106555001269A0504FE49014A0F09014A0126A01A3
:10656500503EEF1269D112696EC333CE33CED8F9DE
:1065750024A4F58274141269241269B0126970C3D7
:1065850033CE33CED8F912697AE0FEA3E06B700200
:10659500EE6A60037F01229014A0E004F002655FBB
:0665A500090265557F00AC
:0165AB0022CD
:10602500E4F91269A040030261A2E49014C5F0A34B
:10603500F0A3F09014C4F09014C4E01269A14003D9
:1060450002619E1269CF33FAE0126972C333CE330F
:10605500CED8F912691E1269B09014C4E0126971A4
:10606500C333CE33CED8F9FF24C8F5827414126930
:1060750080EAF0A3EBF0745C2F12697C126A7C70E5
:10608500030261959014C6126AA5700B9014C6EEB2
:10609500F0A3EFF00261559014C41269DB12697127
:1060A500C333CE33CED8F912691EE0FEA3E06D707E
:1060B50002EC6E70589014C7E025E0FD9014C6E020
:1060C50033FC9014C51269DB126971C333CE33CE2C
:1060D500D8F912691EECF0A3EDF09014C7E025E0A5
:1060E500FF9014C61269ED9014C6F0A3F09014C584
:1060F500E0126971C333CE33CED8F912691E126A24
:106105002B6D7002EE6C7042126A8A803D9014C647
:10611500126A12FBEE33FA9014C5E0126971C333AB
:10612500CE33CED8F912691EECF0A3EDF09014C46D
:10613500E0126971C333CE33CED8F912691EE0FF80
:10614500A3E09014C6CFF0A3EFF09014C5E004F0DF
:106155001269CF33FA9014C4E0126971C333CE3398
:10616500CED8F912691EE4F0A3F09014C6E07002CF
:10617500A3E0601C9014C61269B09014C5E01269C2
:1061850071C333CE33CED8F912697AEAF0A3EBF0B6
:106195009014C4E004F002603C09026027E4901406
:1061A500C4F09014C4E01269A15052E4F91269A038
:1061B50050421269CF33FA9014C4E0126971C333A7
:1061C500CE33CED8F924C8F5827414126924126925
:1061D500B09014C4E0126971C333CE33CED8F9122E
:1061E500697AE0FEA3E06B7002EE6A60037F01222C
:0F61F500090261B29014C4E004F00261A77F00B8
:016204002277
:105C5B00E4F91269A04003025DE09014E9126A9125
:105C6B009014E87403F09014E8E03395E0C364807B
:105C7B0094805003025DDC1269CF33FAE012697134
:105C8B00C333CE33CED8F912691E1269B09014E823
:105C9B00E0126971C333CE33CED8F9FF24ECF58211
:105CAB007414126980EAF0A3EBF0745C2F12697C18
:105CBB00126A7C7003025DD39014EA126AA5700B12
:105CCB009014EAEEF0A3EFF0025D96126A17FBEE6A
:105CDB00126AAC126971C333CE33CED8F912691E76
:105CEB00E0FEA3E06D7002EC6E705D9014EBE025AE
:105CFB00E0FD9014EAE033FC126A17FBEE33FA90E6
:105D0B0014E9E0126971C333CE33CED8F912691E90
:105D1B00ECF0A3EDF09014EBE025E0FF9014EA1209
:105D2B0069ED9014EAF0A3F09014E9E0126971C3E5
:105D3B0033CE33CED8F912691E126A2B6D7002EE78
:105D4B006C7042126A8A803D9014EA126A12FBEE62
:105D5B0033FA9014E9E0126971C333CE33CED8F91C
:105D6B0012691EECF0A3EDF09014E8E0126971C318
:105D7B0033CE33CED8F912691EE0FFA3E09014EABC
:105D8B00CFF0A3EFF09014E9E014F01269CF126A90
:105D9B00AC126971C333CE33CED8F912691EE4F05D
:105DAB00A3F09014EAE07002A3E0601C9014EA12D6
:105DBB0069B09014E9E0126971C333CE33CED8F9D0
:105DCB0012697AEAF0A3EBF09014E8E014F0025CAD
:105DDB007109025C5DE49014E8F09014E8E012693C
:105DEB00A1504FE4F91269A0503F1269CF126AAC6F
:105DFB00126971C333CE33CED8F924ECF582741407
:105E0B001269241269B09014E8E0126971C333CEA1
:105E1B0033CED8F912697AE0FEA3E06B7002EE6A1A
:105E2B0060037F012209025DF09014E8E004F002A8
:045E3B005DE57F00A2
:015E3F002240
:10B5AC007E007F207D007B017A14795C120D1C12C9
:10B5BC009912129912E4901455F0A3F0126AB390F8
:05B5CC00145904F022F7
:108D6500E4901873F0901873E0126A234003028EA2
:108D75002EE4A3F0901874126A214003028E259008
:108D850018731269C0126A54FEA3E04E7002FF22E6
:108D9500901874E0FF2401FDE433126A07502D900A
:108DA5001873E0FE75F008A4245EF582E43414F52A
:108DB50083126A54FCA3E0FDEE1269C1126A54FEE7
:108DC500A3E0B50507EEB504037F0022901873E014
:108DD500FF2401FDE433126A07503CEF75F008A447
:108DE5002464F582E43414F583C083C0829018743A
:108DF500E0FED082D08375F002120C14126A331291
:108E050069C175F002EE120C14E0FEA3E0B505078A
:108E1500EEB504037F0022901874E004F0028D790A
:0B8E2500901873E004F0028D6A7F01DA
:018E3000221F
:1094AB00E4901876F0126A5D7003029551E49018FF
:1094BB0075F0901875E0126A235045E4FDED126AC1
:1094CB00235035901875E0FC7E007410A8040880BA
:1094DB0005C333CE33CED8F9A805088005C333CEE8
:1094EB0033CED8F9FFEC1269C175F002ED120C14F2
:1094FB00EEF0A3EFF00D80C5901875E004F080B28C
:10950B00E4901455F0A3F09014597402F0C3901426
:10951B0057E0648094805009E4F0A3F0901876042F
:10952B00F090145AE0FEA3E0FFEE5407FCEF4C70F2
:10953B0004EF4E7008126AB390187604F090187608
:06954B00E0600312A428F9
:0195510022F7
:10A71700126A6490145712A73B7D32FC7F44FE12E5
:10A727009BD9126A6490145512A73B7D44FC7F4461
:04A73700FE029BD9AA
:10A73B00E0FFA3E09013D7CFF0A3EFF07B017A15E6
:10A74B0079891230EA7B017A1579899013D8742BA9
:10A75B00F0A37412F0A374C6F0A37418F0A37410D2
:05A76B00F0E4A3F02260
:10AC6E00901459E024FD600B1470187BFF7AA079C4
:10AC7E00F780067BFF7AA179149013D874F8F0A3AD
:10AC8E00E4800F7BFF7AA179319013D874BCF0A3C6
:10AC9E007440F0A374C6F0A37418F0A3740CF0E41F
:0DACAE00A3F07D2C7C017F24FE129BD92297
:105A6900E4901587F0901587E0126A234003025CE1
:105A79005AE4A3F0901588126A214003025C51127E
:105A890069BD126A54FEA3E0FF4E7003025C2FEF5A
:105A99008EF0120CEF5AD200025AE200045AF600B4
:105AA900085B0A00105B1E00205B3100405B44006C
:105AB900805B5801005B6C02005B8004005B93080B
:105AC900005B93100000005BA912698EC006C00735
:105AD900126932A37484025B2A12698EC006C00758
:105AE900126932A374FCF0A37407025BA112698ED8
:105AF900C006C007126932A37407F0A374E0025B01
:105B0900A112698EC006C007126932A37401F0A3FD
:105B190074CF025BA112698EC006C007126932A355
:105B2900E4F0A3741F025BA112698EC006C00712BC
:105B39006932A374F8F0A3E4025BA112698EC0066E
:105B4900C007126932A374F8F0A3741F025BA11293
:105B5900698EC006C007126932A374BCF0A37440F1
:105B6900025BA112698EC006C007126932A3742BA9
:105B7900F0A37412025BA112698EC006C0071269F4
:105B890032A37484F0A37430800E12698EC006C0EB
:105B990007126932E4A3F0A3F0D007D00612B5D1F9
:105BA9009013D474FFF0A374A1F0A3744EF012699A
:105BB900BDC083C082901588E0D082D083126A5517
:105BC900FFA3E09013D7CFF0A3EFF0126ABD123014
:105BD900EA126ABD12B9B5AD07901588E075F032C1
:105BE900A4242DFBE435F0FAED75F004A4FFC3EB12
:105BF9009FFFEA95F0FEC006C007901587E075F093
:105C090032A4246DFDE435F0FC126ABD74FF9013D3
:105C1900D8F0A3F0A374A6F07451126A49D007D042
:105C290006129BD9801912698EC006C00712693203
:105C3900A374A6F0A37451F0D007D00612B5D19081
:105C49001588E004F0025A7D901587E004F0025AA5
:015C59006EDC
:015C5A002227
:1076FA007F187EC612AA2C7BFF7A3879F09013BACB
:10770A00E4F0A37438F0A3E4F0A37408F0A374FCC3
:10771A00F0A37407F074FFA3F0A3F0A37401F07F41
:10772A00041242FC9013BC7401F0A37425126A93EC
:10773A007BDDFA7D5BFC7F13FE12A2FD9013C374FE
:10774A0001F0A37424F0A374A6F0A37451F07BDCB7
:10775A007A007D5C126AC412B5D17AA17951126A93
:10776A003A7D32126AC4129BD97AA17958126A3ABE
:10777A007D44126AC4129BD9E4901877F090187766
:10778A00E0FFC3940574809480504BEF75F032A4E7
:10779A00245CFDE435F0FC9013C6F0ED126A9A7B86
:1077AA00DC7A007F147E00127297901877E075F0E9
:1077BA0032A42414FFE435F0FEAB07FA9013C67422
:1077CA0001F07424126A9A7D5C7C001272979018F8
:1077DA0077E004F080A7E4901877F0901877E01229
:1077EA006A235059E4A3F0901878126A215046EFA0
:1077FA0075F032A4FB2417126999C006C0079018C5
:10780A0077E075F032A4FFAEF0245FFDE43EFCEBB6
:10781A002443FBE43AFAEF248B9013BC126950A379
:10782A00747DF0A314F0D007D00612A2FD90187848
:10783A00E004F080B2901877E004F0809E1294ABD6
:09784A0012A717125A6902AC6E74
:10894700E4901893F0EF249F605424FE601E146097
:108957005724F2601214606424FC60562406706980
:10896700E4901459F08062128A14802D901459E013
:108977006404701404F090145BE025E0F090145A3E
:10898700E033F012A4288011901459E0FF640360CB
:1089970005EF64027003128A1412AC6E802B126A00
:1089A7005D7026126770801C126A5D701C1263E589
:1089B7008012126A5D70121260258008126A5D705B
:1089C70008125C5B901893EFF0901893E0603D12EB
:1089D7009912128D65EF60069014597403F0901484
:1089E70057E0FEA3E0FF901455E0FCA3E0FDD39F02
:1089F700EE6480F8EC6480984006A3ECF0A3EDF0F9
:0C8A070012A42812A717125A6912AC6EB4
:0B8A13002212B5AC12A717125A6922FC
:109695006D656469756D0020736C6F7720002066B9
:1096A50061737420002538640020202020202020AC
:1096B500202020596F752057696E202120202020F9
:1096C500202020202000202020202020202020478E
:1096D500616D65204F766572202120202020202095
:1096E5002020002020202020202020202020506124
:1096F5007573652020202020202020202020200098
:1097050020202020202020202020204E6F726D61F7
:109715006C2020202020202020202020004265735E
:1097250074203A0053636F72653A0053706565643F
:019735000033
:10811B00F090161AE0FBA3E0FAA3E0F91208B49072
:10812B0013B7FFE0FBA3E0FAA3E0F9E5F08FF01241
:10813B00094F90161AE0FBA3E0FAA3E0F922AA0676
:10814B00A9077401F0A3EAF0A3E9F022E0FBA3E096
:10815B00FA9000020208DF1208B4FFAEF07C007D3B
:10816B000A1207EBEF22FFAEF01207EBEF2465FFCD
:10817B00E43E9013C3F0A3EFF0221208B4FFAEF06D
:10818B00C3EE648094802224FFFFE5F034FFF9E016
:10819B00FBA3E0FAA3E0C922FFAEF01207EBEF243A
:1081AB005DFDE43EFC227BFFE49013D8F0A3F0A32B
:1081BB0074C6F0A37418F07410A3F0A37401F0222A
:1081CB00A3E0F9A3E0FAA3E022A3F0A374A6F0A323
:1081DB007451F022900007020C40EF9414EE64806F
:1081EB00948022901611E06401227BFF9013D874C7
:1081FB00BCF0A3227C007BDC7A007E00221208B448
:10820B002401FFE435F0229013D474FFF0A374968D
:10821B00F0A374AAF0227B007A007900227B017A0A
:10822B0016791622D3EF9413EE64809480222415D2
:10823B00FFE43EFE22241DFBE43EFA22A3F0A374CE
:06824B007DF0A314F022F7
:07A298009013B8EB12814F97
:10A29F001281CBA3C9804F9013BE128140EA494B64
:10A2AF0060491208B4FFAEF09013B8128140120843
:10A2BF00B4B50725E5F0B506209013BE1281401204
:10A2CF00815CFFAEF09013B812814012815CB5072C
:10A2DF0008E5F0B506037F01229013BE12814012EC
:0DA2EF0081DF9013BEEB12814F80AC7F0029
:01A2FC00223F
:10785300901614E4F0A37402F07F0A7E00128BC525
:1078630090161A128149128221C003C002C001126C
:10787300813D900004120C70127994F990161A123B
:10788300819A8FF012094F127994FE12813D900074
:1078930002EE8FF012096E7F0A7E00128BC59013E1
:1078A300B712814912813DC003C002C0019013B7D2
:1078B300128140900004120C70128221C003C00296
:1078C300C0019013B7128140900007120C7012ADE3
:1078D300087C007D04120852EC6003027971ED14F8
:1078E300601C14603914605D24036003027971E441
:1078F30090161312811B12815C12820B8012901658
:1079030013740112811B12815C24FFFFE5F034FF25
:10791300FE9013B7128140900002EE02796C90162C
:10792300137402F012813D128208F99013B7128189
:107933009A12813812815CFF9013B7128140900034
:1079430002E5F080249016137403F012813D1208AF
:10795300B49013B712819212813812815CFF901395
:10796300B7128140900002E5F08FF012096E901378
:10797300B7128140C003C002C00112813D900007CD
:10798300120C709013B71281CC90161DC912814F3F
:107993002212AD087C007D0A120852ED2405FFE493
:0279A3003C2284
:10B30B0012B335901616ECF0A3EDF012B335901680
:10B31B0018ECF0A3EDF01281CB9013BBC912814F47
:10B32B0012822812A298EF70D72212AD087C007DF2
:05B33B0014120852226B
:10B0C70012813D1281DF9013BBEB12814F12813D3C
:10B0D70012A298EF60037F012212813D1281854001
:10B0E7000512822F40037F012212815C1281884062
:0CB0F7000512822F40037F01227F0022FF
:10A87A00E49013B6F090160DF0A3F090161174023E
:10A88A00F012785312B30BC390160FE064809480D1
:10A89A005009E4F0A3F09013B604F0901612E0FF0A
:10A8AA007E00C374809480400AD3EF94037480942A
:10A8BA0080400A9016127401F09013B6F09013B605
:06A8CA00E0600312A42867
:01A8D0002265
:10AD5500901612E0601224FE601F04703E7A967908
:10AD6500951281F5744080207BFF7A96799C90132B
:10AD7500D874FFF0A374E0800F7BFF7A9679A390D7
:10AD850013D874FCF0A374071281D5A37410F0E4F2
:0CAD9500A3F07D43FC7FA5FE129BD92299
:10A7700012821290160F12A7947D32FC7F44FE12B3
:10A780009BD912821290160D12A7947D44FC7F442F
:04A79000FE029BD951
:10A79400E0FFA3E09013D7CFF0A3EFF07B017A138F
:10A7A40079B81230EA7B017A1379B89013D8742BF4
:10A7B400F0A37412F0A374C6F0A37418F0A3741079
:05A7C400F0E4A3F02207
:10AA8100901611E014602914601614600B147043C1
:10AA91007BFF7A9679AE800E7BFF7A9679CB800622
:10AAA1007BFF7A9679E89013D874F8F0A3E48009D3
:10AAB1007A9779051281F57440F0A374C6F0A374F6
:10AAC10018F0A3740CF0E4A3F07D2C7C017F24FE2C
:04AAD100129BD922D9
:10A8D1009013BBECF0A3EDF09013B8EB12814F1283
:10A8E1008162128239C006C00712815C1281A3C045
:10A8F10004C005128162128240C002C0039013B8E5
:10A9010012814012815C1281719013BBE0FFA3E0C0
:10A911009013C5CFF0A3EFF0D003D002D005D0043F
:07A92100D007D00602B5D1FA
:10847C0012813D1281DF9013B6EB12814F901616CC
:10848C00E0FEA3E0FF7C007D0A1207EBAA06AB0717
:10849C00EB2415FFE43AFEC006C007A3E0FEA3E000
:1084AC00FF1281A6EB241DFBE43AFA128177A37428
:1084BC0007F0A374E0F0D007D00612B5D112813DBD
:1084CC0012818540501281E5504B12815C128188DB
:1084DC0040431281E5503E128162128239C006C0BF
:1084EC000712815C1281A3C004C005128162128242
:1084FC0040C002C00390161A128157128171A374E6
:10850C0001F0A374CFF0D003D002D005D004D00773
:10851C00D00612B5D19013B6128140EA494B605186
:10852C00128162128239C006C00712815C1281A3CB
:10853C00C004C005128162128240C002C0039013B5
:10854C00B6128157128171A37454F0A37458F0D0F1
:10855C0003D002D005D004D007D00612B5D19013A9
:10856C00B61281401281DF9013B6EB12814F028557
:01857C0021DD
:01857D0022DB
:10586A001281EE6003025A687F0AFE128BC5AA06ED
:10587A00A9079013B512814D128221C003C002C03C
:10588A00019013B5128140900004120C7090161307
:10589A00E014602514604314606024036003025915
:1058AA002812813D1208B49013B512812D12815C21
:1058BA0024FFFFE5F034FF801312813D1208B4FF84
:1058CA009013B512812E12815C12820BFE9013B5D1
:1058DA00128140900002EE02592312813D1208B44F
:1058EA009013B512819212813812815CFF9013B520
:1058FA00128140900002E5F0801F12813D12820859
:10590A00F99013B512819A12813812815CFF9013B3
:10591A00B5128140900002E5F08FF012096E9013E3
:10592A00B5128140C003C002C00112813D9000043B
:10593A00120C7012813DC003C002C0019013B5124F
:10594A008140900007120C709013B51281CC90160A
:10595A001AC912814F9013B5E0FBA3A3E0F912080C
:10596A00B4FF901616E065F07003A3E06F7073122F
:10597A00815CFF901618E065F07003A3E06F706217
:10598A0090161475F001120888AFF0FEBE010EBF22
:10599A00900B9016117404F012AA81800D12B30BA9
:1059AA001282287DE07C0712A8D190160EE0240A04
:1059BA00F090160DE03400F090160FE0FEA3E0FF21
:1059CA0090160DE0FCA3E0FDD39FEE6480F8EC6432
:1059DA0080984009A3ECF0A3EDF012A42812A77056
:1059EA00805690161D1281407D517CA612A8D19036
:1059FA00161D1281CC9013B5C912814F128221C093
:105A0A0003C002C00190161D128140900004120CBE
:105A1A0040900007120C7090161D128140900004ED
:105A2A00120C4090161DEB12814F9013B5A3E0FAA9
:105A3A00A3E0AE02FF127AEB12813D1281DF7D589C
:105A4A007C5412A8D112B0C7EF60099016117403E2
:0E5A5A00F002AA8112813D7DCF7C0112A8D1FD
:015A6800221B
:10A48A0080449013B5128140EA494B604912818594
:10A49A0040191281E5501412815C128188400C1215
:10A4AA0081E550077D517CA612A8D112813D128107
:10A4BA00DF90161AEB12814F9013B5A3E0FAA3E0CE
:10A4CA00AE02FF127AEB90161A1281CC9013B5C91C
:0FA4DA0012814F02A48C90161DE4F0A3F0A3F0A2
:01A4E9002250
:0ABB53001282287D517CA602A8D1C1
:10B68400E490160DF0A3F012A48A12785312BB535F
:10B6940012B30B9016117401F012A77012847C027D
:02B6A400AA8179
:107C2A007F187EC612AA2C7BFF7A3A79F09013BA93
:107C3A00E4F0A37448F0A3E4F0A37408F0A3E4F01A
:107C4A00A3741FF074FFA3F01281C47F031242FCD5
:107C5A009013BC7401F0A37425F0E4A3F0A3F07BA5
:107C6A00DDFA7D5BFC7F13FE12A2FD9013C3740143
:107C7A00F074241281D47D5C7F141281FF12B5D175
:107C8A007A9779221281B17D32127D5E7A977929AB
:107C9A001281B17D44127D5E9013C3E4F0745412D4
:107CAA0081D47D327F9E1281FF12B5D19013C6E432
:107CBA00F0A37441F0A37484F0A37430F07BD87AF3
:107CCA00007D417C007FA27E001272977BFF7A972B
:107CDA007930E49013D8F01281D4740C1281C47DE7
:107CEA00347C007FAE7E00129BD9E49013B5F090ED
:107CFA0013B5E0FFC39415748094805048EF75F073
:107D0A000AA4245CFDE435F0FC9013C6F0ED12825F
:107D1A00477F141282011272979013B5E075F00A28
:107D2A00A42414FFE435F0FEAB07FA9013C67401DD
:107D3A00F074241282477D5C7C001272979013B50E
:107D4A00E004F080AA12A87A12AD5512A770128424
:047D5A007C02AA817C
:0A7D5E007C007F147E00129BD922E6
:108C9600EF120CC98D4B008D51018D58028CBC61B1
:108CA6008D24638CD8648CB9728D0A738CF177002D
:108CB600008D64028D481281EE6003028D64901669
:108CC60013E0600764016003028D6490161374025A
:108CD600F0221281EE6003028D64901613E06004A8
:108CE6006401707A9016137403F0221281EE706E8E
:108CF600901613E0FF64026005EF64037060E49071
:108D06001613F0221281EE7055901613E0FF6402DE
:108D16006005EF640370479016137401F022128108
:108D2600EE700474028009901611E0640270050466
:108D3600F002AA81901611E0FF64046005EF640357
:108D4600701C02B684E4901612800C901612740100
:0F8D560080059016127402F012AD5512A4282257
:0300A00002586A99
:04BC03007F03DFFEDE
:01BC0700221A
:04BC08007F12DFFECA
:01BC0C002215
:04BC0D007F26DFFEB1
:01BC11002210
:04BC12007FC6DFFE0C
:01BC1600220B
:09BB5D00007F027E5ADEFEDFFCCF
:01BB660022BC
:09BB6700007F207E28DEFEDFFCD9
:01BB700022B2
:10BA3900AD07AC0612BB67ED1D70011C144C70F408
:01BA490022DA
:0796050044183E016E36001F
:10B49200E4F593F594F591F592F595F596F5B1F5F8
:10B4A200B2F5B3F5B4F5C9F5CAF5CBF5CCF5E1F5CE
:0DB4B200E212BBAC12B81B12B937C2C122A6
:10B7E900C28CD2A95389FC5389FB538FFE438E80A7
:09B7F900758CA2758A40D28C22E5
:10B80200C28ED2AB5389CF5389BF538FFD438E4033
:09B81200758DD1758B20D28E22B8
:10B8DF00538EE343AF04538FFB438E0475D6E87545
:06B8EF00D790438E1022E9
:10B9CA0053D1F043AF2043D10275D4ED75D540432E
:03B9DA00D108226F
:10B9DD0053D10F43AF4043D12075D2F675D3A04359
:03B9ED00D18022E4
:10BA03000102040810204080000000FFFF00000036
:02BA1300000031
:10B84D007D017BFF7E007F0202074B7B017D027C29
:09B85D0000227B017D027C002227
:10B81B0053B3EF43B41053B3F743B40853B3FB43E1
:09B82B00B404C2C4C2C3C2C222AB
:0DBADD00C2C312BC0DD2C312BC0DC2C322E5
:05B00A009013BEEFF001
:10B00F00E4A3F09013BFE0C3940874809480502A97
:10B01F009013BEE0548064807004D2C48002C2C416
:10B02F0012BC0DC2C212BC0DD2C212BC0D9013BE07
:0AB03F00E025E0F0A3E004F080C972
:01B0490022E4
:10AB29009013B7EBF0A3EAF0A3E9F0A3ECF0A3EDDF
:01AB3900F02B
:10AB3A00E4A3F0A3F09013BAE0FEA3E0FFA3E0FCC5
:10AB4A00A3E0FDC39FEC9E50269013B7E0FBA3E061
:10AB5A00FAA3E0F98D828C8312078AFF12B00A9059
:10AB6A0013BDE004F070CE9013BCE004F080C6027E
:02AB7A00BADD42
:10B9370078B57C137ABA790B12B84D7A1379B512A8
:05B94700B85802AB2915
:10B94C0078797C187ABA790D12B84D7A18797912FF
:05B95C00B85802AB2900
:10B83400787B7C187D017BFF7ABA790F12B8517A34
:09B8440018797B12B85F02AB29F0
:05AF040090186AEFF057
:10AF0900786B7C187D017BFF7ABA791112B8519060
:10AF1900186AE0FFD3940774809480400BEF90B9CE
:10AF2900FB9390186BF0800C90186AE090BA039329
:0EAF390090186CF07A18796B12B85F02AB2991
:10B76000787D7C187D017BFF7ABA791312B8517B02
:0CB77000017A18797D7D027C0002AB2973
:08960C0041187FFE41188000A7
:09BBA30053B3FE43B401C2C022F9
:09BBAC0053B3FE43B401D2C022E0
:10A9280090187FE0FF7E00647F7011A3E070047DC3
:10A938000180027D00901880EDF08019EF64FE4ED2
:10A948007013901880E0600D70047F0180027F0012
:10A95800901880EFF090187FE0FFF5E8A3E070080A
:10A96800EF25E04401FF800990187FE0C31344807D
:06A97800FF90187FEFF0D4
:01A97E0022B6
:09BBB500E0FBA3E0FAA3E0F92291
:03BC1C0002B83437
:0E99AE009017BCEFF0A3EBF0A3EAF0A3E9F0F2
:1099BC00C3740F9F9017C3F0AE029017C0A3E0FAC8
:1099CC00A3E0C399FFEA9EFE9017BCE0FDC37408A8
:1099DC009DFDE49400FCD3EF9DEC6480F8EE648074
:1099EC0098504C9017C012BBB5C003C002C0019078
:1099FC0017BD12BBB7C3D082D083D0E0E99582EA01
:109A0C009583502B9017C3E0FF12AF049017BD1233
:109A1C00BBB5120771F5E812BB6712B7609017C39C
:0F9A2C00E014F09017BEE475F00112088880B4C2
:019A3B002208
:0EA016009017E4EBF0A3EAF0A3E9F0A3EDF05D
:10A024009017E9740FF09017E9E0FFC39408748067
:10A034009480404B12AF049017E9E0FFC3740F9F64
:10A04400FFE49400FE9017E8E07C002FFFEC3EFE56
:10A054009017E7E0FD1207FD9017EAEDF09017E482
:10A0640012BBB59017EAE0F58275830012078AF5F2
:0FA07400E812BB6712B7609017E9E014F080A7FD
:01A0830022BA
:10961400521658C0F9A4B0999282F880908883C6F3
:05962400A1868EBFFFCE
:10AB7C00E4FAF9F890172BE0FCA3E0FDA3E0FEA3A8
:10AB8C00E0FF12AEC0E47B0AFAF9F802AEC09017EF
:10AB9C002FE0FF3395E0FE74302FF58274173EF5ED
:10ABAC00832290172BE0FCA3E0FDA3E0FEA3E0FFC3
:10ABBC00222458F582E43416F583E0F5E87F027E12
:02ABCC00002265
:10B7260012B94CE4F5CB75CCFF75E8FF53937F4314
:0DB736009480D2875395FD439602D2A12244
:06886C0090172B120BD740
:1088720090172F7406F090172BE0FCEC339017370B
:1088820040057411F0800F7410F012ABAE120AB8EA
:1088920090172B120BD7E47B0AFAF9F812ABAE123F
:1088A200AEC0901730EBF07B0A12AB7C901731EB25
:1088B200F07B6412AB7C901732EBF0E47BE87A0336
:1088C20012AB7E901733EBF0E47B107A2712AB7E6B
:1088D200901734EBF07BA07A867901780012AB8096
:1088E200901735EBF07B407A42790F780012AB801B
:1088F200901736EBF012AB9AE0700F90172FE0143E
:10890200F0EF12AB9F7411F080EB12ABAEEC4D4E58
:108912004F7004901730F090172F7407F090172FB4
:10892200E0FF3395E0C364809480401812AF0412D4
:10893200AB9AE012ABBD12BA3912B76090172FE0B2
:0489420014F080D9D4
:01894600220E
:0BA4EA00901801EBF0A3EAF0A3E9F0EA
:10A4F500EFC3940874809480504AC374089FFEA3E8
:10A50500E0FDD39E503EC374089FC39DA3F09018F1
:10A5150004E0FF14F0EF602CA3E0FF12AF049018E5
:10A5250001E0FBA3E0FAA3E0F9A3E0F5827583005F
:10A5350012078A12ABBD12BA3912B760901805E03E
:04A5450004F080CAD4
:01A5490022EF
:10BA4A0000010200030000000400000000000000E2
:109629004115D1FF5115D2002B0908072D06050454
:08963900780302012F23002A2F
:10000E009015E4E0FC75F8F07E3CDEFEE5F854F069
:10001E009015E4F075F80F7E3CDEFE9015E4E0FEE0
:10002E00E5F8540FFDEE4DF0E0F4F06C70609015B5
:10003E00D0E0FC9015E4E09015D0F0604CC2D5EC09
:10004E007004D2D5801B9015D0E0B504149015E342
:10005E00E004F0C394147480948040057412F0D2BE
:10006E00D530D52A9015D0E0FFC4540F90BA4A93DC
:10007E00FC601BEF540F93FF6014EC1425E025E099
:10008E00FEEF2E9015D1F08005E49015E3F075F893
:01009E00FF62
:01009F00223E
:03BC1F0025640099
:0ABB7100FDE0FBA3E0FAA3E0F922D7
:10B9610075E8FFC293D290C291C291D291E5E820CD
:05B97100E7FBAFE82236
:10B40800901894EFF0C291D293C29012B421901880
:10B4180094E0C454F012B42122F5E87F017E0012B2
:0EB42800BA39D2917F057E0012BA39C2912244
:10B43600901895EFF0C291C293C29012B44F901833
:10B4460095E0C454F012B44F22F5E87F017E001255
:0EB45600BA39D2917F057E0012BA39C2912216
:0DBAEA00D293D290C291C291D291AFE822C6
:10A97F00E4F5E85391F74392085391FE4392015344
:10A98F0091FD439202F5CB75CCFF12A9C912A9C94B
:10A99F007F3812B4367F057E0012BA397F3212B477
:10A9AF00367F2812B4367F0C12B4367F0612B436B7
:10A9BF007F0112B4367F8002B4367F3812B4367FEF
:07A9CF00057E0012BA3922D7
:0CBB04007F0112B4367F027E0002BA39C5
:10B63F00901896EBF0ED5401FDEF540FFFED600401
:10B64F00EF4440FFEF4480FF12B436901896E0FFAE
:03B65F0002B4082A
:10A5AA009017EBEFF0A3EDF0A3EBF0A3EAF0A3E929
:01A5BA00F0B0
:10A5BB0012B9B59017F0EFF09017ECE05401F09052
:10A5CB0017EBE0540FF0E49017F1F09017F0E0FF69
:10A5DB00A3E0FEC39F50259017EBE0FFA3E0A3126F
:10A5EB00BB718E8275830012078AFB12B63F9017E0
:0CA5FB00EBE004F09017F1E004F080CFDA
:01A607002230
:0CAE7C009015E5EFF0A3EDF0AF03AE027F
:10AE88007B017A1579E79015F6EBF0A3EAF0A3E9D0
:10AE9800F09013D474FFF0A374BCF0A3741FF0A354
:10AEA800EEF0A3EFF01230EA9015E5E0FFA3E09092
:08AEB80015F612BB7102A5AAF8
:0BBB270090FE82F090FE817405F02279
:0CBB100090FE82E030E6F9E054BFF02225
:10B7B40043912043922043911043921043BA8090C6
:0BB7C400FE8074E0F090FE82E4F022B2
:09BBBE0090FE817401F002BB103D
:09BBC70090FE817406F002BB102F
:0EB61B0012BBBE12BAA512B629AF0512BAA50F
:10B6290090FE817403F012BB1090FE82E030E103BA
:06B639007F01227F0022C8
:07BBE100E412BB2702BB10B8
:08BBD900740112BB2702BB102E
:0EBAA50090FE86EFF090FE817402F002BB105E
:0FBA5A0090FE817404F012BB1090FE87E0FF2273
:10B22C00AE0712B61B12BBBEEE4401FF12BAA5123A
:10B23C00B62912BA5AEF1207B7740129F9E43AFA8F
:10B24C0090180BE06401600312BBE190180BE01442
:09B25C00F070DF12BBD902BBC780
:10B3400090180EEBF0A3EAF0A3E9F012B61B9018E8
:10B350000EE0FBA3E475F00112089EA9F0FA1207B3
:10B3600071FF12BAA512B629901811E014F070DE20
:03B3700002BBC756
:102B870025640000000000003E5B4F5B3E3E6B4F3C
:102B97006B3E1C3E7C3E1C183C7E3C181C577D57E8
:102BA7001C1C5E7F5E1C00183C1800FFE7C3E7FF94
:102BB7000018241800FFE7DBE7FF30483A060E2627
:102BC70029792926407F050507407F05253F5A3C7F
:102BD700E73C5A7F3E1C1C08081C1C3E7F14227FC2
:102BE70022145F5F005F5F06097F017F006689959A
:102BF7006A606060606094A2FFA29408047E040883
:102C070010207E201008082A1C08081C2A08081E05
:102C1700101010100C1E0C1E0C30383E3830060EEB
:102C27003E0E06000000000000005F0000000700E5
:102C37000700147F147F14242A7F2A1223130864A1
:102C47006236495620500008070300001C22410045
:102C57000041221C002A1C7F1C2A08083E08080085
:102C67008070300008080808080000606000201025
:102C77000804023E5149453E00427F4000724949DF
:102C870049462141494D331814127F1027454545C0
:102C9700393C4A49493141211109073649494936E1
:102CA700464949291E000014000000403400000076
:102CB70008142241141414141400412214080201A8
:102CC7005909063E415D594E7C1211127C7F4949D4
:102CD70049363E414141227F4141413E7F49494971
:102CE700417F090909013E414151737F0808087F67
:102CF70000417F41002040413F017F081422417F6E
:102D0700404040407F021C027F7F0408107F3E4105
:102D170041413E7F090909063E4151215E7F09195C
:102D27002946264949493203017F01033F40404074
:102D37003F1F2040201F3F4038403F631408146363
:102D470003047804036159494D43007F414141021F
:102D570004081020004141417F0402010204404061
:102D6700404040000307080020545478407F28441F
:102D770044383844444428384444287F3854545409
:102D87001800087E090218A4A49C787F0804047818
:102D970000447D40002040403D007F102844000053
:102DA700417F40007C047804787C08040478384428
:102DB700444438FC1824241818242418FC7C0804DC
:102DC7000408485454542404043F44243C404020FD
:102DD7007C1C2040201C3C4030403C4428102844A8
:102DE7004C9090907C4464544C4400083641000059
:102DF70000770000004136080002010204023C2669
:102E070023263C1EA1A161123A4040207A3854542F
:102E170055592155557941215454784121555478B4
:102E27004020545579400C1E527212395555555948
:102E3700395454545939555454580000457C41006D
:102E470002457D420001457C40F0292429F0F02805
:102E57002528F07C545545002054547C547C0A099D
:102E67007F4932494949323248484832324A48480C
:102E7700303A4141217A3A42402078009DA0A07D16
:102E870039444444393D4040403D3C24FF242448D4
:102E97007E4943662B2FFC2F2BFF0929F620C0887C
:102EA7007E090320545479410000447D413048484D
:102EB7004A32384040227A007A0A0A727D0D193167
:102EC7007D2629292F28262929292630484D4020C3
:102ED700380808080808080808382F10C8ACBA2F9F
:102EE700102834FA00007B000008142A1422221448
:102EF7002A1408AA005500AAAA55AA55AA00000034
:102F0700FF00101010FF00141414FF001010FF0032
:102F1700FF1010F010F0141414FC001414F700FF45
:102F27000000FF00FF1414F404FC141417101F1002
:102F3700101F101F1414141F00101010F0000000B1
:102F4700001F101010101F10101010F010000000BC
:102F5700FF101010101010101010FF10000000FFCD
:102F6700140000FF00FF00001F10170000FC04F40E
:102F770014141710171414F404F40000FF00F714C6
:102F8700141414141414F700F7141414171410104D
:102F97001F101F141414F4141010F010F000001F69
:102FA700101F0000001F14000000FC140000F010A8
:102FB700F01010FF10FF141414FF141010101F004E
:102FC700000000F010FFFFFFFFFFF0F0F0F0F0FF50
:102FD700FFFF0000000000FFFF0F0F0F0F0F384427
:102FE7004438447C2A2A3E147E02020606027E02E8
:102FF7007E0263554941633844443C04407E201EA9
:103007002006027E020299A5E7A5991C2A492A1CD7
:103017004C7201724C304A4D4D303048784830BCC4
:10302700625A463D3E494949007E0101017E2A2AEE
:103037002A2A2A44445F444440514A444040444A6F
:1030470051400000FF0103E080FF000008086B6BA0
:10305700083612362436060F090F06000018180026
:1030670000001010003040FF0101001F01011E0089
:0E307700191D1712003C3C3C3C0000000000FC
:10544A00A42BFFE5F03AFEED131313541F7C002F33
:10545A00FFEC3EFEE0FBA3E0FAA3E0F98F828E8325
:10546A0012078AFD22ED131313541FFEEF75F00481
:10547A00A424A8F582E5F03411F583E5822EF5829D
:10548A00E43583F583223ECF24F4CF34FFFED3EFF5
:10549A00947FEE648094802290174EE0FB5407FFBD
:1054AA007E007480A8070822EFF0A3EBF0A3EAF0CD
:1054BA00A3E9F0A3E0FEA3E0FFC3EE648094802298
:1054CA00A42DFFE5F03CFEE0131313541F7C002FBC
:1054DA00FFEC3EFE22FF90176CE02FFF90176BE067
:1054EA003400CF24E0CF34FFFED3EF943FEE648044
:1054FA00948022A4FFED2FFFEC35F0FEE0FD7A0048
:10550A002FEA3EC3648094802290174C75F00CE019
:10551A00A42DFFEC35F0FE22901769A3E0FF901747
:10552A006DE0C43354E02FFF90176FE02FFF901700
:10553A006BA3E02BFD7B0102A682FFEE5CFEEF5D12
:10554A004E22C3E49FFFE49EFE7C0002085290179D
:10555A005EA3E0FF901762E075F018A49017602F21
:10556A002BFFA3E0FE2290176FE0FD7C00C394207E
:10557A007480948022CEA2E713CE1322CD34FFFC8E
:10558A00D3ED943FEC648094802290174EE0FD7C2A
:10559A0000C3940C7480948022901759E0FD7C001B
:1055AA00C394107480948022901764E0FD7C00C339
:1055BA0094187480948022901844E075F005A4240D
:1055CA008AF582E5F0342BF583E5822C22E0FCA3F0
:1055DA00E0FD2FFFEC22901753A3E0FF901757E04E
:1055EA0022C39480748094802275F002E0A4FBAAFE
:1055FA00F0E922C3E49FFFE49EFE7C00020852C346
:10560A0094047480948022901744E0FF90174CE031
:10561A00C39F2290175AE0FF901762E0C39F22E0CF
:10562A00F9A4FFED2FFFEC35F0FE22901765E0FF9D
:10563A0090176DE0C39F22E0FFED5407FEF8740156
:10564A000822E0FBA3E0FAA3E0F9A3222FFFE0344B
:0D565A0000CF22EF75F002A4FDACF0E022BD
:10B58600901897EFF012BBBE7F7812BAA512B629B3
:10B59600E412B5A4901897E012B5A402BBC7FF1237
:06B5A600BAA512B629222D
:10B53800901898EFF012BBBE7F7812B5587F401272
:10B54800B558901898E0FF12BAA512B62902BBC7E1
:07B5580012BAA512B6292268
:10B8F500901899EFF0ED6005E0FF02B538901899C2
:06B90500E0FF12B58622EE
:10B4E80090189AEFF0ED24B012B50554F0C4540F3B
:10B4F800441012B505540FFFE4FD02B8F5FFE4FD52
:08B5080012B8F590189AE02238
:10B97600E4FD7F8D12B8F5E4FD7F1412B8F5E4FD01
:05B986007FAF02B8F5DF
:10B98B00E4FD7F8D12B8F5E4FD7F1012B8F5E4FDF0
:05B99B007FAE02B8F5CB
:10B46400E4FFEF1256095025E4FEEE1255EB501A94
:10B4740075F004EEA424A8F582E5F03411F583E513
:0DB48400822F125488E4F00E80E00F80D576
:01B491002298
:10ABCE00E4901882F0901882E0FF1256095041EF7F
:10ABDE0024B0FFE4FD12B8F5E4FDFF12B8F5E4FD74
:10ABEE007F1012B8F5E4901881F0901881E0FF12F2
:10ABFE0055EB5014A3E0125475E0FF7D0112B8F529
:10AC0E00901881E004F080E2901882E004F080B5A4
:01AC1E002213
:10B74300E4FEEE1256095014E4FDED1255EB5009D8
:0CB75300ED125477EFF00D80F10E80E64F
:01B75F0022C7
:10A66300901748A3E0FF90174CE075F00CA42F2B34
:0FA67300FF90174AA3E090174DFEE02EFD7B01EC
:10A68200EFD31255EC5033ED125578502DEB601389
:10A6920012546FC083C0821256418002C333D8FC69
:10A6A2004F801212546FC083C0821256418002C37F
:0BA6B20033D8FCF45FD082D083F0228C
:0D907F00901843EDF0A3EBF0901842EFF0D5
:10908C003395E0C364809480505EE4FCECC394059B
:10909C007480948040030291381255C1125488E4B4
:1090AC0093901845F0E4F9E9FF7E00C394087480AE
:1090BC0094805031901842E0FDFB3395E0FAEB2F91
:1090CC00EE3AC3648094804012901845E030E00B77
:1090DC00ED2CFF901843E02912553E901845E0C343
:1090EC0013F00980C20C80A4E4FCECC394057480DA
:1090FC00948050381255C1125488E493901845F05E
:10910C00E4F9E9C3940874809480501D901845E0EC
:10911C0030E00C901842E02CFFA3E02912553E9051
:0C912C001845E0C313F00980D90C80BE88
:019138002214
:10A7C900901812EFF0A3EDF0A3EBF0A3EAF0A3E9E0
:01A7D900F08F
:10A7DA00E4A3F090181412564CE0F5827583001227
:10A7EA00078AFB6032901812E0FFA3E0FD12907F07
:10A7FA00901812E02408F0E0FF3395E0FED3EF94BE
:10A80A0078EE648094804007E4F0A3E02402F0909C
:07A81A001817E004F080BCF8
:01A821002214
:0CB1F2009016A0EFF0A3EDF0AF03AE024A
:10B1FE009013D474FFF0A3742BF0A37487F0A3EE16
:10B20E00F0A3EFF07B017A1679A21230EA9016A025
:0EB21E00E0FFA3E0FD7B017A1679A202A7C92A
:037FE000901744B3
:107FE3001254B2400302808C7D0C12554C90174CF6
:107FF300EFF0125611400302811AE4A3F090174DDB
:10800300E012559B507AE4A3F0125594506912552F
:10801300139017481255D7125490400302811A90B7
:10802300174DE0FF90174BE090174A12565624F471
:108033001254EF400302811A90174CE0F975F00CCB
:1080430090174E1254FD50028001C3402190174DEA
:108053001255F375F01890174512544A1254A28022
:108063000312557FD8FB125544600312A663901781
:108073004EE004F002800C90174DE004F002800003
:1080830090174CE004F0027FF5E490174CF0125681
:1080930011400302811AE4A3F090174DE012559B9F
:1080A300506CE4A3F0125594505B1255139017498A
:1080B300E02FFF901748E0125490505B90174DE06B
:1080C300FFFD90174BE02DFD90174AE03CCD24F4C3
:1080D300125586504290174C12565D75F018901742
:1080E3004E1254CA90174512545E1254A2800312C2
:1080F300557FD8FB125544600312A66390174EE0D8
:1081030004F00280A890174DE004F002809C9017C1
:078113004CE004F002809132
:01811A002242
:036F860090174F12
:106F89001254B2400302705B7D1012554C90175792
:106F9900EFF090174F1255E4C39F400302710EE4BE
:106FA900A3F0901758E01255AA4003027052E4A3C7
:106FB900F01255A3400302704990175775F010124B
:106FC90055199017531255D73ECF24F012549440B7
:106FD9000302710E901758E0FF901756E09017556D
:106FE90012565624F01254EF400302710E901757AF
:106FF900E0F975F0109017591254FD50028001C341
:1070090040359017581255F375F0209017501254C7
:107019004A9017591254A5800312557FD8FB12556F
:107029004460141255E0C454F02F2BFF901755A358
:10703900E090175812A67C901759E004F0026FBA35
:10704900901758E004F0026FAB901757E004F00274
:107059006F9BE4901757F090174F1255E4C39F4068
:107069000302710EE4A3F0901758E01255AA4003E9
:10707900027105E4A3F01255A35078901757E075F3
:10708900F01012551A901754E02FFF901753E03E55
:10709900CF24F0125494506D901758E0FFFD9017CB
:1070A90056E02DFD901755E03CCD24F01255865041
:1070B9005490175712565D75F0209017591254CAFB
:1070C90090175012545E9017591254A58003125507
:1070D9007FD8FB12554460121255E0C454F0901742
:1070E9005512556990175812A67D901759E004F06A
:1070F90002707F901758E004F0027070901757E003
:0571090004F0027060BB
:01710E00225E
:036DFB0090175A94
:106DFE001254B24003026ED37D181255FD901762E5
:106E0E00EFF012561D4003026F85E4A3F090176356
:106E1E00E01255B94003026ECAE4A3F01255B24017
:106E2E0003026EC1901762E075F01812551A901792
:106E3E005E1255D73ECF24E81254944003026F855C
:106E4E00901763E0FF901761E02FFF901760E0341A
:106E5E0000CF24E81254EF4003026F85901762753D
:106E6E00F01812562990176412550650028001C36D
:106E7E00403890176375F0031255F675F048A42B41
:106E8E00FFE5F03AFEED1254D290175B12545E906D
:106E9E0017641254A5800312557FD8FB1255446017
:106EAE000912555890176312A67D901764E004F0EE
:106EBE00026E2A901763E004F0026E1B901762E0D8
:106ECE0004F0026E10E4901762F012561D40030299
:106EDE006F85E4A3F0901763E01255B94003026F7B
:106EEE007CE4A3F01255B2507C901762E075F01856
:106EFE0012551A90175FE02FFF90175EE03ECF24D9
:106F0E00E81254945071901763E0FFFD901761E002
:106F1E002DFD901760E03CCD24E81255865058EFB9
:106F2E0075F003A4FDACF0901762E075F048A42D47
:106F3E00FFE5F03CFE9017641254D190175B12548B
:106F4E005E9017641254A5800312557FD8FB12551C
:106F5E0044600912555890176312A67D901764E08D
:106F6E0004F0026EF2901763E004F0026EE39017E5
:076F7E0062E004F0026ED88E
:016F850022E9
:03759300901765E9
:107596001254B240030276547D201255FD90176DA9
:1075A600EFF012563540030276F9E4A3F090176E19
:1075B600E0125577400302764BE4A3F01255705063
:1075C6007B90176DE075F02012551A9017691255C9
:1075D600D73ECF24E012549440030276F990176EFA
:1075E600E01254DF40030276F990176D75F0201211
:1075F600562990176F12550650028001C34034ED8C
:1076060075F004A4FDACF0E975F080A42DFFE5F05B
:107616003CFE90176E1254D190176612545E901766
:107626006E1254A5800312557FD8FB125544600391
:1076360012552290176FE004F00275C290176EE0A3
:1076460004F00275B390176DE004F00275A8E4909B
:10765600176DF012563540030276F9E4A3F0901741
:107666006EE012557740030276F0E4A3F0125570EF
:10767600506F90176DE075F02012551A90176AE05A
:107686002FFF901769E03ECF24E012549450649087
:10769600176EE0FD1254DF505A90176FE075F00434
:1076A600A4FBAAF090176DE075F080A42BFFE5F01F
:1076B6003AFEED131313541F2FFFEC3EFE90176690
:1076C60012545E90176E1254A5800312557FD8FB94
:1076D600125544600312552290176FE004F00276AB
:1076E6007390176EE004F002766490176DE004F074
:0376F600027659C0
:0176F900226E
:0AA54A0090178FEFF0901791EBF0DF
:10A55400E4901796F0A3F0901792E0131313541F8E
:10A56400F0540770028000AF05AE07901792E0FF29
:10A57400EEC39F503090178FE0FF901791E0FDEFEE
:10A58400C39D501E90179312564CE475F0011208A7
:10A594009E85F082F58312078AFD125476EDF00F42
:05A5A40080D80E80C606
:01A5A900228F
:1093520012B7B47F647E0012BA397FAE1293D77F00
:109362004012B8F57FB01293D77FC812B8F57F814B
:109372001293DF7FFF12B8F57FA11293DF7FA6124F
:10938200B8F57FA81293E77F1F12B8F57FD3129327
:10939200E7FF12B8F57FD51293EF7FF012B8F57F91
:1093A200D91293EF7F2212B8F57FDA1293F77F0278
:1093B20012B8F57FDB1293F77F4912B8F5E4FD7F0F
:1093C2008D12B8F5E4FD7F1412B8F5E4FD7FAF12FB
:1093D200B8F502B464E4FD12B8F5E4FD22E4FD122E
:1093E200B8F5E4FD22E4FD12B8F5E4FD22E4FD1235
:0D93F200B8F5E4FD22E4FD12B8F5E4FD221B
:10B1B7009017C8120BD79017C8E0FCA3E0FDA3E0D7
:10B1C700FEA3E0FF2290189BE0C3946474809480F0
:10B1D70022E4FBFA12019E9017C8020BD7E0FF90FA
:0BB1E7001798E0FBA3E0FAA3E0F922B8
:09BB7B00007F027E3CDEFEDFFCCF
:01BB8400229E
:0EBAB300C2C67F147E0012BA39D2C602BB7B17
:10B08A00E490189BF030C60D12B1CC5008E004F0E1
:10B09A0012BC0380F012B1CC40037F0122E4901865
:10B0AA009BF020C60D12B1CC5008E004F012BC038C
:0CB0BA0080F012B1CC40037F01227F0027
:01B0C6002267
:10B10300E490189CF030C61090189C12B1CF5008F0
:10B11300E004F012BC0380EDE490189CF020C6100C
:10B1230090189C12B1CF5008E004F012BC0380EDDC
:0BB1330012BB7B30C6037F01227F00AF
:01B13E0022EE
:10B26500E4901884F0901883F0901883E0C3940854
:10B2750074809480501CA3E0FF25E0F0E0FEC0063A
:10B2850012B103D0E04F901884F0901883E004F0D9
:07B2950080D7901884E0FF50
:01B29C00228F
:0B987500901798EBF0A3EAF0A3E9F0D5
:1098800012BAB312B08AEF600302990C9017A0F0DD
:109890009017A0E0C3940574809480501A12B265AA
:1098A0009017A0E0249BF582E43417F583EFF09045
:1098B00017A0E004F080D990179CE0FF90179BE080
:1098C0002FFFE433FE90179DE07C002FFFEC3EFE5F
:1098D000A3E02FFFEC3EFEA3E06F7001EE7030902E
:1098E000179B12B1E4EF1207B790179C12B1E490E6
:1098F0000001EF1207C990179DE09000021207C9FE
:1099000090179EE09000031207C980037F01227F19
:019910000056
:019911002233
:0EBAC10053B3BF53B4BFD2C612BAB302B08A99
:10BA15007B017A187946129875EF70F4901846E014
:01BA2500FF21
:01BA260022FD
:109EC8007B017A1779C4129875EF70F49017C6E081
:109ED800547FFCE41203C712B1B77920784112B15C
:109EE800D89017C8E0F8A3E0F9A3E0FAA3E0FBC014
:109EF80000C001C002C0039017C7E0FCE41203C70A
:109F0800D003D002D001D0001200AD12B1B7E4FBEB
:109F1800FA792078411202A712B1DE9017C6E03014
:0F9F2800E70A12B1BD798078BF12B1D812B1BD6E
:019F37002207
:100DB10025640000000000000000000000000000A9
:100DC100000404040404040004000000140A0A00DE
:100DD10000000000000000000014143F140A3F0A44
:100DE1000A000000041E1505060C14150F0400006E
:100DF1000012150D0A142C2A1200000000040A0A20
:100E01001E15150936000000020201000000000055
:100E11000000000020100808080808081020000041
:100E2100020408080808080804020000000004156C
:100E31000E0E150400000000000404041F04040445
:100E4100000000000000000000000000020201009C
:100E5100000000001F000000000000000000000072
:100E6100000000000200000010080808040402024B
:100E710002010000000E1111111111110E000000EC
:100E810000040604040404040E000000000E111105
:100E9100080402011F000000000E11100C101011B7
:100EA1000E00000000080C0A0A091E0818000000C4
:100EB100001F01010F1010110E000000000E0901AA
:100EC1000F1111110E000000001F09080404040491
:100ED10004000000000E11110E1111110E0000008E
:100EE100000E1111111E10120E000000000000046E
:100EF10000000000040000000000000004000000E9
:100F0100040400002010080402040810200000005E
:100F11000000001F00001F00000000000204081074
:100F21002010080402000000000E11110804040042
:100F310004000000000E111915151D011E0000000E
:100F41000004040C0A0A1E1233000000000F1212E2
:100F51000E1212120F000000001E110101010111F9
:100F61000E000000000F1212121212120F000000E8
:100F7100001F120A0E0A02121F000000001F120AAF
:100F81000E0A020207000000001C120101391112B1
:100F91000C000000003312121E1212123300000066
:100FA100001F0404040404041F000000003E08089C
:100FB10008080808090700000037120A060A0A1281
:100FC1003700000000070202020202223F00000077
:100FD100001B1B1B1B15151515000000003B1216ED
:100FE100161A1A1217000000000E11111111111119
:100FF1000E000000000F12120E0202020700000094
:10100100000E1111111117190E180000000F121204
:101011000E0A121237000000001E110106081011FD
:101021000F000000001F1504040404040E0000005A
:1010310000331212121212120C00000000331212AD
:101041000A0A0C0404000000001515150E0A0A0A0C
:101051000A000000001B0A0A04040A0A1B0000001F
:10106100001B0A0A040404040E000000001F090802
:10107100040402121F0000001C04040404040404FC
:10108100041C000002020204040808081000000009
:101091000E08080808080808080E0000040A0000E5
:1010A100000000000000000000000000000000003F
:1010B10000003F00040000000000000000000000EC
:1010C100000000000C121C123C0000000003020290
:1010D1000E1212120E000000000000001C1202028B
:1010E1001C000000001810101C1212123C0000001D
:1010F100000000000C121E021C0000000038040455
:101101001E0404041E000000000000003C120C023A
:101111001E221C00000302020E12121237000000F0
:1011210000040000060404040E0000000008000092
:101131000C08080808080700000302023A0A0E1208
:101141003700000000070404040404041F00000029
:10115100000000000F15151515000000000000002B
:101161000F12121237000000000000000C121212C0
:101171000C000000000000000F1212120E02070006
:10118100000000001C1212121C10380000000000A8
:101191001B06020207000000000000001E020C10E6
:1011A1001E000000000004040E04040418000000E6
:1011B100000000001B1212123C00000000000000A1
:1011C10037120A0C040000000000000015150E0A79
:1011D1000A000000000000001B0A040A1B000000B6
:1011E1000000000037120A0C040403000000000094
:1011F1001E0804041E000000180808080408080856
:10120100081800080808080808080808080808005D
:10121100060404040804040404060002251800005E
:1012210000000000000000000000000000000000BD
:10123100000000000000000000000808080808087D
:101241000800001818000000486C2412000000007B
:10125100000000000000000000002424247F12127E
:10126100127F12121200000000081C2A2A0A0C1810
:1012710028282A2A1C080800000022251515152AED
:10128100585454542200000000000C1212120A7625
:10129100252911916E0000000606040300000000DC
:1012A100000000000000000040201010080808089D
:1012B1000808101020400000020408081010101047
:1012C100101008080402000000000008086B1C1C34
:1012D1006B08080000000000000000080808087FF3
:1012E10008080808000000000000000000000000DD
:1012F100000000060604030000000000000000FEDC
:1013010000000000000000000000000000000000DC
:101311000000000606000000008040402020101060
:10132100080804040202000000001824424242425C
:1013310042424224180000000000080E0808080874
:10134100080808083E00000000003C4242422020FC
:10135100100804427E00000000003C424220182098
:10136100404042221C00000000002030282424229A
:10137100227E20207800000000007E0202021A2650
:10138100404042221C0000000000382402021A26BC
:10139100424242241800000000007E222210100860
:1013A100080808080800000000003C4242422418D6
:1013B100244242423C0000000000182442424264A0
:1013C100584040241C0000000000000000181800D4
:1013D10000000018180000000000000000000800D4
:1013E100000000000808040000004020100804026A
:1013F100040810204000000000000000007F0000F1
:10140100007F0000000000000000020408102040DE
:10141100201008040200000000003C424246402027
:10142100101000181800000000001C225A555555D4
:10143100552D42221C000000000008081814142435
:101441003C224242E700000000001F2222221E220D
:10145100424242221F00000000007C424201010181
:10146100010142221C00000000001F2242424242B0
:10147100424242221F00000000003F4212121E128F
:10148100120242423F00000000003F4212121E12AF
:10149100120202020700000000003C2222010101A9
:1014A100712122221C0000000000E7424242427EDC
:1014B10042424242E700000000003E0808080808D6
:1014C100080808083E00000000007C1010101010F1
:1014D1001010101010110F0000007722120A0E0ACE
:1014E100121222227700000000000702020202020B
:1014F100020202427F000000000077363636362AAB
:101501002A2A2A2A6B0000000000E346464A4A5272
:10151100525262624700000000001C2241414141D9
:10152100414141221C00000000003F424242423E34
:10153100020202020700000000001C224141414159
:10154100414D53321C60000000003F4242423E12B6
:1015510012222242C700000000007C42420204180D
:10156100204042423E00000000007F490808080870
:10157100080808081C0000000000E74242424242FD
:10158100424242423C0000000000E7424222242441
:10159100141418080800000000006B494949495516
:1015A10055362222220000000000E74224241818A8
:1015B10018242442E70000000000772222141408B6
:1015C100080808081C00000000007E2120101008F7
:1015D100040442423F00000078080808080808088F
:1015E1000808080808780000000202040408080836
:1015F10010102020204040001E101010101010105C
:1016010010101010101E00003844000000000000EF
:1016110000000000000000000000000000000000C9
:10162100000000000000FF000608000000000000AC
:1016310000000000000000000000000000003C422B
:1016410078444242FC0000000000030202021A2614
:10165100424242261A000000000000000000384407
:10166100020202443800000000006040404078441B
:1016710042424264D80000000000000000003C42E9
:101681007E0202423C0000000000F08808087E084B
:10169100080808083E0000000000000000007C224D
:1016A100221C023C42423C000000030202023A4674
:1016B10042424242E700000000000C0C00000E080C
:1016C100080808083E000000000030300000382003
:1016D1002020202020221E0000000302020272129C
:1016E1000A1612227700000000000E0808080808F8
:1016F100080808083E0000000000000000007F927A
:1017010092929292B70000000000000000003B4658
:1017110042424242E70000000000000000003C425B
:10172100424242423C0000000000000000001B2633
:10173100424242221E0207000000000000007844DD
:10174100424242447840E000000000000000774C33
:10175100040404041F0000000000000000007C429B
:10176100023C40423E0000000000000008083E0824
:101771000808080830000000000000000000634273
:1017810042424262DC000000000000000000E7422B
:101791002424140808000000000000000000EB49A8
:1017A1004955552222000000000000000000762467
:1017B100181818246E000000000000000000E74225
:1017C10024241418080807000000000000007E22ED
:1017D100100808447E000000C02020202020102096
:1017E1002020202020C00010101010101010101008
:1017F1001010101010101000060808080808100832
:10180100080808080806000C32C2000000000000A9
:0B1811000000000000000000000000CC
:0A9641004216220000421620FFFF2F
:10257C009016D0E075F002A49016CFFDACF0E0758B
:10258C00F018A42DFFE5F03CFE9016D1E09016C398
:10259C00131313541F7C002FFFEC3EFEE0FBA3E053
:1025AC00FAA3E0F98F828E8312078AFD229016CF50
:1025BC00E075F00CA4FF9016C7E09016C62FFFE054
:1025CC0035F0FEEB7C002FFFEC3EFE22901625E052
:1025DC0024FFFB901624E034FFFA901627E024FF2A
:1025EC00FE901626E034FF9013F1F0A3CEF0E4FD3C
:1025FC00FCFFFE229016D1E0FB5407FF7E00748096
:10260C00A8070822FBE0FEA3E0FFEE3395E0FDFCFB
:10261C00EB2FFFEA3EFEE93DFDE83CFC9014231253
:10262C000BD7901427E0F8A3E0F9A3E0FAA3E0FBA2
:10263C0090141BE0FEA3E0FFEE3395E0FDFCEB2FC6
:10264C00FFEA3EFEE93DFDE83CFC901427120BD757
:10265C00901411E0FEA3E090140FFFE0FCA3E0D374
:10266C009FEC9E229016E0E075F002A49016DFFD20
:10267C00ACF0E075F0209016E1A42DFFE5F03CFEE7
:10268C00E0131313541F22E0FCA3E0FD9013BCE0F5
:10269C00FFA3E09013C6CFF0A3EFF09013BEE0FFC2
:1026AC00A3E09013C8CFF0A3EFF022901413E0FC3A
:1026BC00A3E0FD901411E0FAA3E0A3FBE0FFA3E07C
:1026CC009013CDCFF0A3EFF090140DE0FFA3E090AA
:1026DC0013CFCFF0A3EFF090140FE0FEA3E0FF2296
:1026EC00E0FCA3E02FFFEC3E90140FF0A3EFF09072
:1026FC00141DE0FEA3E0901427FBAA06EA3395E034
:10270C00F9F8E0FCA3E0FDA3E0FEA3E0FF229017A4
:10271C0081FEE0FCA3E0FDC390177EE09DFD9017C9
:10272C007DE09CFC901783E0FAA3E0FB22FFE0FC29
:10273C00A3E0FDD39FEE6480F8EC648098223ECF3A
:10274C0024F4CF34FFFED3EF94EFEE648094802218
:10275C00EEF0A3EFF0A3ECF0A3EDF0229016EFE077
:10276C0075F018A4FF9016E7E02FFF9016E6229064
:10277C0013C3E075F020A4FF9013BBE02FFF901360
:10278C00BA22FFEE5CFEEF5D4E229016DFE075F094
:10279C0010A4FF9016D7E02FFF9016D622A4FFEDC1
:1027AC002FFFEC35F0FEE0FD7A002FEA3EC364808B
:1027BC00948022CEA2E713CE13229013C4E075F0BE
:1027CC0004A49013C3FDACF075F080E0A42DFFE5DC
:1027DC00F03CFE229016CF75F00CE0A42DFFEC35EA
:1027EC00F0FE22EFF0A3EBF0A3EAF0A3E9F02274E1
:1027FC00FFF0A3F0C3E49FFFE49E22901781E0FE5C
:10280C00A3E0FFC322ED9FFFEC9EF0A3EFF022FFAD
:10281C009016C1E02FFF9016C0E03ECF240ACF34B3
:10282C0000F0A3EFF09016BDE024FFF09016BCE092
:10283C0034FFF022FDE0FAA3E0FBA3E0FFA3E0905D
:10284C0013C6CFF0A3EFF090170D2212AEC0901468
:10285C0001E0FCA3E02FFFEC3E901411F0A3EFF08D
:10286C00901423E0F8A3E0F9A3E0FAA3E022E0FE41
:10287C00A3E0FFD39400EE6480948022CF34FFFE5B
:10288C00D3EF9453EE6480948122CD34FFFCD3EDCE
:10289C009453EC6480948122901781E0FEA3E0FFB6
:1028AC0090177CE02FFF90177BE03E22E0FFA3E027
:1028BC00901622CFF0A3EFF02290181BE0FBA3E0C0
:1028CC00FAA3E0F922901624E4F0A374F0F0A374B8
:1028DC0001F0A37440F0222DFFEC3ECF240690169D
:1028EC00C0CF3400F0A3EFF022C39FFFEC9EF0A307
:1028FC00EFF0229016D0E0FD9016C9E02DFD901659
:10290C00C8E03C229016E0E0FD9016D9E02DFD9039
:10291C0016D8E03C229016F0E0FD9016E9E02DFD73
:10292C009016E8E03C229013C4E0FD9013BDE02D1E
:10293C00FD9013BCE03C22E075F00CA4FF9016C790
:10294C00E02FFF9016C6E0229016D1E0FD7C00C36C
:10295C00940C74809480229016E1E0FD7C00C3946A
:10296C001074809480229016F1E0FD7C00C39418C2
:10297C0074809480229013C5E0FD7C00C394207475
:10298C0080948022CFF0A3EFF0A3EAF0A3EBF02227
:10299C00A3E0FCA3E0FD22E9A42BFFE5F03AFEED59
:1029AC0022F583E58229F582E43583F583E493905F
:1029BC0013E9F022E0FCA3E0FD2FFFEC229016F0CF
:1029CC00E075F003A4FDACF09016EFE075F0482232
:1029DC00C39BFFEE9AF0A3EFF0901403E0FEA3E08C
:1029EC00FF22AE83AF82EE9013F1F0A3EFF022E062
:1029FC00FFA3E0CF901411F0A3EFF0229FFFEA9E0B
:102A0C00FEE0FCA3E0FD1207EBE4FCFD22E4F0A3E6
:102A1C00F0A3F0A3F0901622E0FFA3E022E0FAA3CB
:102A2C00E0FBC3229FEE6480F8E06480982290164D
:102A3C00BBE09FFF9016BAE09EFEEF780222901446
:102A4C0007E0FEA3E022C3EE6480948022EEFF90A8
:102A5C0013DFE02FFF9013DEE03400FE22ED9FFF2A
:102A6C00EC9EF0A3EFF0229016C0E0FCA3E0FDC3B7
:102A7C00EC64809480229013E7E0C313FF9013EA78
:102A8C00E0FEC39F22EB9FFFEA9EF0A3EFF02290A3
:102A9C0016BCE0FEA3E0FF2290140BE0FEA3E0FFC7
:102AAC0022901411E0FEA3E0FFD3EB9FEA9E22E0FC
:102ABC0075F00CA424B4F582E5F0340D22E075F029
:102ACC0010A42428F582E5F0341222FE7C000208C2
:102ADC00522FFFE03400CF222401FFE03400FE220D
:102AEC009013BAE0FAA3E0FB2290177EE02DFD9044
:102AFC00177DE03C2290177CE09FFF90177BE09EB7
:102B0C00229013E9E0C313F0A3E004F0229016C264
:102B1C00E0FF9016CFE0C39F229016D2E0FF9016F4
:102B2C00DFE0C39F229016E2E0FF9016EFE0C39F18
:102B3C0022E0F9A4FFED2FFFEC35F0FE2275E8FF43
:102B4C0075CBFFE4F5CC22E4F5CB75CCFF2212BBA0
:102B5C008A02BB8A12BB8AA3E0FF02BB8AE0FEA3F7
:102B6C00E0FF90154DE0229016BAE0FEA3E078024B
:0B2B7C00229013B6E0FF9013C3E0228C
:0FBA6900C293C2918FE800000000D291D29322C5
:10BA2700C293C29012BC03AFE8EF7F00FED290D260
:01BA3700937B
:01BA380022EB
:05BC1700C28302BA69BE
:05BB850012BC17E4FFF3
:05BB8A00D28302BA693C
:0ABB8F00D28312BA27EEFF7E0022D7
:05B9A000E0FEA3E0FF42
:10B9A500AD07AC06D283ECFF12BA69AF0502BA69DE
:10B6E900AA07ED54FC75F008A4FDEA54F845F0FEEC
:0FB6F900EDFFEB54F8131313541FFDEF4DFF2219
:109F3800D283C293C29012BC03AFE8129F8C129FC7
:109F48008C90184CE4F0A3EFF0E0F8E4F0E89018F7
:109F58004CF0D290C29012BC03AFE8AB07EBFAD238
:109F68009090184AE0FF7E00EEF0A3EFF0A3E0F82F
:109F7800E4F0E8A3F0EAFB7A00D29390184CA3E04F
:049F8800FD02B6E937
:109F8C0090184AE4F0A3EFF0E0F8E4F0E890184AF7
:0B9F9C00F0D290C29012BC03AFE8228C
:0ABB990012BC17AE04AF0502BB8A10
:10B13F009013BA1227F27E0012BC17122B499013EC
:10B14F00BD74FFF5F012089E45F0601912BB8F9089
:10B15F0013BAE0FBA3E475F00112089EA9F0FAEF11
:0CB16F001207B780D9122B5375E8FF229D
:0BBB320090162BE0FEA3E0FF02BC1702
:0BBB3D0090162DE0FEA3E0FF02BC17F5
:08AA2C009013B6EEF0A3EFF069
:10AA34001225D812ACBBE49013B8F0A3F0901624FE
:10AA440012280A9013B9E09F9013B8E09E502DE4A9
:10AA5400FBFAD3901627E09B901626E09A400D90BF
:10AA640013B612B9A00BBB00010A80E69013B9E03B
:0CAA740004F070C99013B8E004F080C139
:01AA800022B3
:10B6C800AB07AA068D828C83C006C0071229EED06C
:10B6D80007D00612ACBB901622E0FEA3E0FF02B929
:01B6E800A5BC
:08AF8800901885EEF0A3EFF034
:10AF9000D3901625E09F901624E09E400DD3901686
:10AFA00027E09D901626E09C5004E4FEFF229018B6
:10AFB00085E0FEA3E0FF12B90B12BB3D122B491234
:08AFC0009F38122B5375E8FFC6
:01AFC8002266
:10B6A6005391FE4392015391FD4392025393F74304
:10B6B60094085391F74392085391DF439220122B3B
:02B6C60053220D
:10B866007F327E0012BA39C2957F327E0012BA3913
:09B87600D2957F327E0002BA393E
:105E400012B6A612B8667F017E0012BC177F32120E
:105E5000BA397F287E0012BC177FF612BC177F016B
:105E6000122B5A1F12BB8A7FCF12BB857F8112BBB8
:105E70008A7F3012BB8A7FED12BC177F6412BB8A07
:105E80007F0312BB8A7F1212BB8A7F8112BB8A7F7B
:105E9000E812BC177F8512BB8A7F1012BB8A7F78FD
:105EA00012BB8A7FCB12BC177F3912BB8A7F2C12A0
:105EB000BB8AE4FF12BB8A7F3412BB8A7F0212BB0B
:105EC0008A7FF712BC177F2012BB8A7FEA12BB853C
:105ED00012BB8A7FB012BB857FB412BB857FC01214
:105EE000BC177F2112BB8A7FC112BC177F1112BB66
:105EF0008A7FC512BC177F3F12BB8A7F3C12BB8AC8
:105F00007FC712BC177FB512BB8A7F3612BC177FC2
:105F10004812BB8A7F3A12BC177F5512BB8A7FB1E9
:105F200012BB857F1B12BB8A7FB612BC177F0A1279
:105F3000BB8A7FA212BB8A7FF212BB857F2612BC6E
:105F4000177F0112BB8A7FE012BC177F0F12BB8A3A
:105F50007F2612BB8A7F2412BB8A7F0B12BB8A7FEB
:105F60000E12BB8A7F0912BB8A7F5412BB8A7FA89C
:105F700012BB8A7F4612BB8A7F0C12BB8A7F171224
:105F8000BB8A7F0912BB8A7F0F12BB8A7F0712BBB5
:105F90008AE4FF12BB8A7FE112BB857F1912BB8A9C
:105FA0007F1B12BB8A7F0412BB8A7F1012BB8A7FC1
:105FB0000712BB8A7F2A12BB8A7F4712BB8A7F39AE
:105FC00012BB8A7F0312BB8A7F06122B5A7F3012C4
:105FD000BB8A7F3812BB8A7F0F12BB8A7F2B12BB12
:105FE0008512BB8A0F12BB8A7F3F12BB8A7F2A129F
:105FF000BB85122B5A7FEF12BB8A7FB712BC177F6B
:106000000712BB8A7F1112BC177F9612BA397F29FB
:106010007E0012BC1712B373901628EEF0A3EFF0B7
:05602000E4FF02867997
:10ACBB009013EBEEF0A3EFF090162FE0FEA3E0FF66
:10ACCB0012BC179013EBE0FF7E00122B60EAFF1211
:10ACDB00BB8AAF037E0012BB8A901631E0FEA3E065
:10ACEB00FF12BC17ECFF7E0012BB8AAF057E001271
:0DACFB00BB8A9013F1E0FF122B6002BB3208
:10B90B00AB07AA068D828C83C006C0071229EED026
:06B91B0007D00602ACBBE0
:1086790090162FE4F0A3742AF0A3E4F0A3742BF06E
:1086890090162BE4F0A3742CF0A3E4F0A3742EF05D
:10869900EF14603C14606D14700302873724036083
:1086A900030287721228D1122713BE9307BF400411
:1086B9007D0180027D00BE9307BF41047F018002D6
:1086C9007F00EF4D60057D080287697D400287695B
:1086D9009016241228DBA3E4F0A374F0F0122713F8
:1086E900BE9307BF40047D0180027D00BE9307BF92
:1086F90041047F0180027F00EF4D60047DF8800214
:108709007DF0805C1228D1122713BE9307BF400465
:108719007D0180027D00BE9307BF41047F01800275
:108729007F00EF4D60047D9880027DC080329016F5
:10873900241228DBA3E4F0A374F0F0122713BE93EC
:1087490007BF40047D0180027D00BE9307BF41043D
:108759007F0180027F00EF4D60047D2880027D202B
:0A8769007C007F367E0012BB9922CF
:10B3730078B57C137D017BFF7A1879187E007F04F2
:10B3830012074B7B017A1379B59013BDE4F0A374D4
:10B3930004F07FD312B13F9013B7E0FEA3E0FDEDBD
:01B3A300FFAA
:01B3A4002286
:069552009013C712275C14
:109558009013C712280AEB9FFFEA9ECF24019013AD
:10956800D31228ED9013C912280A9013CEE09FFF5A
:109578009013CDE09ECF2401CF34009013D5F0A3F3
:10958800EFF09013C9E0FCA3E0FD9013CDE0FFA33A
:10959800E0CF1229F39013C7E0FEA3E0FF12ACBBA3
:1095A800E49013D1F0A3F09013D512280A9013D2A7
:1095B800E09F9013D1E09E502DE4FBFAD39013D492
:1095C800E09B9013D3E09A400D9013CF12B9A00BF3
:1095D800BB00010A80E69013D2E004F070C9901332
:0C95E800D1E004F080C11225D802ACBB19
:067297009013C012275CF9
:10729D009013CC122A199013DECFF0A3EFF09013B8
:1072AD00C81228B89013C012280A9013D0122A9130
:1072BD009013C2122A299013C7E09BFE9013C6E0CB
:1072CD009A9013D2F0A3CEF09013C0E0FFA3E090FC
:1072DD0013DA1229909013D012287A400A9013D6FF
:1072ED00E4F0A304F08019EF4E70089013D6F0A3CC
:1072FD00F0800D9013D61227FB9013D0F0A3EFF072
:10730D009013D212287A400A9013D8E4F0A304F017
:10731D008019EF4E70089013D8F0A3F0800D9013E4
:10732D00D81227FB9013D2F0A3EFF09013D2E0FE0A
:10733D00A3E09013D01227399013D44007ECF0A39B
:10734D00EDF08005EEF0A3EFF0E49013CAF0A3F09A
:10735D009013D5E09013D4122AE4D39013CBE09080
:10736D0013CA122A3040030274119013DAE0FEA3FF
:10737D00E0FF12299C12B6C89013D0E0FEA3E0FFE7
:10738D009013CDE02FF09013CCE03EF09013D2E0AF
:10739D00FEA3E0FF9013CFE02FF09013CEE03EF070
:1073AD009013D4E0FEA3E09013CC122739401A902D
:1073BD0013CC1228119013D6E0FEA3E0FF9013DB3F
:1073CD00E02FF09013DAE03EF09013D4E0FEA3E04E
:1073DD00FF9013CE12273A401A9013CE1228119017
:1073ED0013D8E0FEA3E0FF9013DDE02FF09013DC47
:1073FD00E03EF09013CBE004F070069013CAE00469
:0A740D00F002735D9013DE1228B840
:017417002252
:064D530090152F12275CF1
:104D590090153C122A1990154ECFF0A3EFF090153B
:104D6900381228B890152F12280A901540122A9146
:104D7900901531122A29901536E09BFE901535E0E1
:104D89009A901542F0A3CEF090152FE0FFA3E09082
:104D9900154A12299090154012287A400A90154612
:104DA900E4F0A304F0801BEF4E7008901546F0A3C1
:104DB900F0800F74FF9015461227FD901540F0A35F
:104DC900EFF090154212287A400A901548E4F0A3B2
:104DD90004F0801BEF4E7008901548F0A3F0800F87
:104DE90074FF9015481227FD901542F0A3EFF0903B
:104DF9001542E0FEA3E0FF90154012273A901544B2
:104E09004007ECF0A3EDF08005EEF0A3EFF0E4909D
:104E1900153AF0A3F0901545E0901544122AE4D311
:104E290090153BE090153A122A304003024F40900A
:104E39001537E0700E90154AE0FEA3E0FF12299C99
:104E490012B6C8901537E064017006124F47124F29
:104E5900B9901537E064027057124F47124FB99055
:104E6900154BE024FFFF90154AE034FFFE90154DE5
:104E7900E02401FD90154CE03400FC12B6C89015F1
:104E89004BE02401FF90154AE03400FE124F9912BD
:104E99004F9990154CE0FCA3E0FD12B6C890154A55
:104EA900122B6924FFFD90154CE034FFFC12B6C8A3
:104EB900901540E0FEA3E0FF90153DE02FF090151E
:104EC9003CE03EF0901542E0FEA3E0FF90153FE084
:104ED9002FF090153EE03EF0901544E0FEA3E0FF70
:104EE90090153C12273A401A90153C122A699015E0
:104EF90046E0FEA3E0FF90154BE02FF090154AE045
:104F09003EF0901544E0FEA3E0FF90153E12273ACB
:104F1900401490153E122A69901548122B692FF0FA
:104F290090154CE03EF090153BE004F070069015AA
:0D4F39003AE004F0024E1E90154E1228B80A
:104F46002290154AE0FEA3E0FFA3E0FCA3E0FD12D9
:104F5600B6C890154BE02401FF90154AE03400FED8
:104F660090154CE0FCA3E0FD12B6C890154AE0FE91
:104F7600A3E0FF90154DE02401FD90154CE03400B0
