:1091CA00410FA5004111A6004211A700324111A981
:0691DA0001420FA300009A
:10A74400E49013B4F0A374FFF012AFC112B2F61286
:10A75400B4EAD2AF12B38C12B6EA125CE67B017A89
:10A764001379AC12975F9013B0A3A3E0FEA3E0FBB0
:10A77400AA069013ACA3A3E0FEA3E02BFFEE3AFEDF
:10A7840012A8C012B629129EFB127F1E125ECB8045
:01A79400FEC6
:03000B00029B0055
:109B0000C0E0C0F0C083C082C0D075D000C000C02B
:0D9B100001C002C003C004C005C006C007AC
:109B1D00900FA4E02401FF900FA3E03400FE9011FC
:109B2D00A7E0FAA3E0FBFDAC021207FD900FA3EC3A
:109B3D00F0A3EDF0EB24FFFFEA34FFFE900FA3E05E
:109B4D00B50608A3E0B5070312000E9011A6740127
:019B5D00F017
:109B5E00D007D006D005D004D003D002D001D0005B
:0B9B6E00D0D0D082D083D0F0D0E03205
:0300A30002AA7539
:10AA7500C0E0C0F0C083C082C0D075D000C000C0A7
:10AA850001C002C003C004C005C006C007128B6226
:10AA9500900FA57401F0D007D006D005D004D003DF
:10AAA500D002D001D000D0D0D082D083D0F0D0E079
:01AAB500326E
:1038F00000000000000000000000000000000000C8
:10390000000000000000000000000FF00000387808
:10391000000070380000F0380000F0780000F07807
:10392000000000F0000000E0000001C00000038083
:103930000000070000000E000000380000007000CA
:103940000000E0000001800000030180000E030081
:10395000001C0600003FFE00003FFC0000000000CD
:103960000000000000000000000000000000000057
:103970000000000000000000000000000000000047
:10398000000000000000000000000FE000001C70BC
:103990000000387000007070000060700000E0707F
:1039A0000000E0700001C0E00001C0E0000380E022
:1039B000000381C0000381C0000703C0000703802B
:1039C0000007038000070700000F0700000E0E002D
:1039D00000061C00000738000003F0000000000093
:1039E00000000000000000000000000000000000D7
:1039F00000000000000000000000000000000000C7
:103A0000000000000000000000000070000000E066
:103A1000000001E0000003E0000007C000000FC04C
:103A200000001BC000003380000067800000C7005A
:103A30000001870000030F0000060E00000C0E00BE
:103A4000001FFFC0003FFFC000001C0000003C0042
:103A50000000380000007C000003FF0000000000B0
:103A60000000000000000000000000000000000056
:103A70000000000000000000000000000000000046
:103A8000000000000000000000000FF000001C38E3
:103A900000003838000070380000F0380000F07086
:103AA0000000F0600000F1C000007F8000003E00D8
:103AB00000007F000001CF80000387C0000703C023
:103AC000000E03C0000C03C0000C0380000C0700B4
:103AD000000E0E000007BC000001E0000000000026
:103AE00000000000000000000000000000000000D6
:103AF000000000000002000000038000000700003A
:103B0000000E8000000C4000001A30000033180046
:103B100000618E00018183F0030104FC0DFFFE189B
:103B200030001C0000003800000030000100600080
:103B300001FFFF8001800300018003000181030079
:103B400001818300018303000183030001830300DB
:103B50000182020000066000000C1F00001803E054
:103B6000007000F003C000701C0000100000000096
:103B70000000000000000000000060000000700075
:103B8000000060000000E0000020C0001FF0801076
:103B90001861FFF818610000186200001866000044
:103BA00018640000186801801867FFC0186003805F
:103BB000186007001860060018600C0018601800F4
:103BC0001FE03000186060001860E0001840C0106E
:103BD0001001801000030018000300180003001CEF
:103BE0000003FFFC0001FFF80000000000000000DF
:103BF00000000000000000000100000001800C0037
:103C00000180060001800700018003000180020896
:103C10000181FFFC2181001C1FFD0010119B001081
:103C2000119A40001198700011986000119860205E
:103C300011986070119860E0119861801FF862001F
:103C400011986C002180700001A06008019060084C
:103C50000198600801BC600807CC60087C0460081B
:103C60002000301C00003FFC0000000000000000AD
:10B19100E03400F07A1679997B01EB900000F0A37E
:10B1A100EAF0A3E9F0229013B8E0FEA3E0FF9013C8
:02B1B100BF22BB
:0BB629007E007F037DA07C0F02AC6D53
:109EFB00E49013B6F0A3F07B017A1479560412B1F7
:109F0B009C9013BD7427F0E4FFFE12A9649013B765
:109F1B00E02427F09013B612B1919013B6E0FEA394
:109F2B00E0FF7402129F5B2402F09013B6E0340042
:109F3B00F07A16799C12B1999013B6E0FEA3E0FF6C
:0F9F4B007401129F5B04F070069013B6E004F0EF
:0D9F5A00229013BDF012A9649013B7E0220D
:10A27F00E49013B8F0A3F0FFFE12B2DC7B017A1466
:10A28F00795612B19B12B1A7742712A2CC12B191B9
:10A29F0012B1A7740212A2CCE03400F07B017A163F
:10A2AF00799C12B19B12B1A77401F0128F0E90130B
:0CA2BF00B9E004F070069013B8E004F061
:10A2CB0022F0128F0E9013B9E02427F09013B822CE
:109E8E0042657374203A0053636F72653A00253150
:109E9E00396400256400202020202020202020204E
:109EAE00596F752057696E202120202020202020F8
:109EBE0020200020202020202020202047616D65BA
:109ECE00204F766572202120202020202020200087
:109EDE004A6F696E207468652074696C65732C20F6
:0D9EEE0067657420746F2032303438210015
:1069A500245DF58274143EF583E5822BF582E5833B
:1069B5003AF58322901588E075F032A4FFAEF024F5
:1069C50060FDE43EFCEB2442FBE43AFAEF248A90B6
:1069D50013D8FFE43EF0A3EFF02290147FE0FCA370
:1069E500E0FD90147EE0FF3395E0FEEF25E0FBEE41
:1069F50033FAE9FF3395E0FEEF780322245DF58253
:106A050074143EF583E5822DF582E5833CF58322FA
:106A1500901589E075F032A4FB2418AAF0FFE43A3A
:106A2500FE22E9FF3395E0FEC3EF9404EE64809403
:106A35008022E0FAA3E0FBED25E0FDEC33FC22909B
:106A45001588E075F008A4245DF582E43414F58317
:106A550022E9FD3395E0FCED25E0FBEC22E9FF336F
:106A650095E0FEEF25E0FBEE33FAE02225E0FFE0BE
:106A750033FE901457E02FF0901456E03EF0E422D8
:106A850090147DE0FFFD3395E0FCC3ED9404EC64C8
:106A950080948022E0FCA3E0FDE9FF3395E0FEEF62
:106AA50025E0229013D9742BF0A37412F0A374C6B9
:106AB500F07418A3F0A37410F022E0FFC3940474DB
:106AC50080948022E0FEA3E0FF90145BE0FCA3E04D
:106AD500FDEF22EF75F002120C14E02290145AE03B
:106AE5006401229013D574FFF0A3749EF0A3749CE7
:106AF500F0229014A3E0FCA3E0FD22E0FEA3E0FF5A
:106B05004E2225E0FDE033FC2290145A7404F02255
:106B15007403F0E4A3F0A3F022A3F0A37454F0A34C
:106B25007458F022E0FCA3E0FD4C2233FA9014E9FE
:106B3500E02290145B7408F0A3E4F0227C007F143B
:0A6B45007E00227B017A15796F2291
:10963500E490162CF0FFEF126AC15036E4FEEE12EC
:109645006AC1502BEF126A48EE126AD9FCA3E04CAE
:10965500701AEF25E025E02EFD90162CE0FC04F0B5
:10966500741C2CF582E43416F583EDF00E80CF0FD3
:1096750080C490162CE07002FF2212A88290162C4E
:10968500E0FD7C00120852741C2DF58274163CF521
:1096950083E090161BF012A8827C007D0A12085206
:1096A500ED64014C7005FE7F0480047E007F02900E
:1096B500161BE0FD1313543F126A48ED540375F071
:0B96C50002120C14EEF0A3EFF07F0186
:0196D0002277
:1067F700E4F9126A27400302694FE490147EF0A37C
:10680700F0A3F090147DF0126A85400302694BEF04
:10681700126A581269F5C333CE33CED8F91269A577
:10682700126A371269F7C333CE33CED8F92481F50C
:10683700827414126A07EAF0A3EBF01269F7C33304
:10684700CE33CED8F9126A01126B00700302694287
:1068570090147F126B29700B90147FEEF0A3EFF06A
:1068670002690A90147D1269EAC333CE33CED8F990
:106877001269A5E0FEA3E06D7002EC6E70499014FA
:1068870080E090147F126B071269E7C333CE33CED3
:10689700D8F91269A5ECF0A3EDF0901480E09014FC
:1068A7007F126A7190147FF0A3F01269F7C333CE99
:1068B70033CED8F91269A5126AC96D7002EE6C70F1
:1068C7003C126B0E0269041269DFC333CE33CED894
:1068D700F91269A5ECF0A3EDF090147DE0126A9F20
:1068E700FDEE33FC1269F7C333CE33CED8F9126A03
:1068F70001E0FFA3E090147FCFF0A3EFF090147EA8
:10690700E004F090147DE0126A9FFDEE33FC1269FB
:10691700F7C333CE33CED8F9126A01E4F0A3F0906F
:10692700147FE07002A3E060121269DFC333CE3335
:10693700CED8F91269A5ECF0A3EDF090147DE00430
:10694700F002680E090267F9E4F9126A27504CE46D
:1069570090147DF0126A85503EEF126A581269F55D
:10696700C333CE33CED8F92481F58274141269ABC0
:10697700126A371269F7C333CE33CED8F9126A01D8
:10698700E0FEA3E06B7002EE6A60037F01229014C1
:0D6997007DE004F002695B090269517F0098
:0169A40022D0
:10646C00E4F9126A2740030265DA9014A2126B1544
:10647C009014A17403F09014A1E0FF3395E0C36471
:10648C0080948050030265D6EF126A571269F5C3E7
:10649C0033CE33CED8F91269A5126A371269F7C315
:1064AC0033CE33CED8F924A5F5827414126A07EAD8
:1064BC00F0A3EBF01269F7C333CE33CED8F9126ADE
:1064CC0001126B0070030265CD126AF74C700B90D1
:1064DC0014A3EEF0A3EFF002658F9014A11269EAF9
:1064EC00C333CE33CED8F91269A5E0FEA3E06D70AC
:1064FC0002EC6E704C9014A4E09014A3126B0790F5
:10650C0014A21269EAC333CE33CED8F91269A5ECC2
:10651C00F0A3EDF09014A4E09014A3126A719014FF
:10652C00A3F0A3F01269F7C333CE33CED8F91269B6
:10653C00A5126AC96D7002EE6C7042126B0E026588
:10654C0089126AF79014A21269EAC333CE33CED8FB
:10655C00F91269A5ECF0A3EDF09014A1E0126A9F7A
:10656C00FDEE33FC1269F7C333CE33CED8F9126A81
:10657C0001E0FFA3E09014A3CFF0A3EFF09014A2DE
:10658C00E014F09014A1E0126A9FFDEE33FC126946
:10659C00F7C333CE33CED8F9126A01E4F0A3F090EE
:1065AC0014A3E07002A3E06018126AF79014A21210
:1065BC0069EAC333CE33CED8F91269A5ECF0A3ED5A
:1065CC00F09014A1E014F00264820902646EE4F904
:1065DC00126A27504FE49014A1F09014A1126A880B
:1065EC00503EEF126A581269F5C333CE33CED8F948
:1065FC0024A5F58274141269AB126A371269F7C3B9
:10660C0033CE33CED8F9126A01E0FEA3E06B7002F0
:10661C00EE6A60037F01229014A1E004F00265E6AB
:06662C00090265DC7F009D
:016632002245
:1060AC00E4F9126A274003026229E49014C6F0A3B3
:1060BC00F0A3F09014C5F09014C5E0126A284003C8
:1060CC00026225126A5633FAE01269F9C333CE33F1
:1060DC00CED8F91269A5126A379014C5E01269F886
:1060EC00C333CE33CED8F9FF24C9F5827414126AA7
:1060FC0007EAF0A3EBF0745D2F126A03126B0070C9
:10610C000302621C9014C7126B29700B9014C7EE1B
:10611C00F0A3EFF00261DC9014C5126A621269F808
:10612C00C333CE33CED8F91269A5E0FEA3E06D706F
:10613C0002EC6E70589014C8E025E0FD9014C7E096
:10614C0033FC9014C6126A621269F8C333CE33CE94
:10615C00D8F91269A5ECF0A3EDF09014C8E025E095
:10616C00FF9014C7126A749014C7F0A3F09014C671
:10617C00E01269F8C333CE33CED8F91269A5126A8E
:10618C00C96D7002EE6C7042126B0E803D9014C79C
:10619C00126A99FBEE33FA9014C6E01269F8C33315
:1061AC00CE33CED8F91269A5ECF0A3EDF09014C55E
:1061BC00E01269F8C333CE33CED8F91269A5E0FFEB
:1061CC00A3E09014C7CFF0A3EFF09014C6E004F056
:1061DC00126A5633FA9014C5E01269F8C333CE3301
:1061EC00CED8F91269A5E4F0A3F09014C7E07002C0
:1061FC00A3E0601C9014C7126A379014C6E01269B1
:10620C00F8C333CE33CED8F9126A01EAF0A3EBF01F
:10621C009014C5E004F00260C3090260AEE490146F
:10622C00C5F09014C5E0126A285052E4F9126A279E
:10623C005042126A5633FA9014C5E01269F8C3330F
:10624C00CE33CED8F924C9F58274141269AB126A14
:10625C00379014C5E01269F8C333CE33CED8F91297
:10626C006A01E0FEA3E06B7002EE6A60037F01221C
:0F627C00090262399014C5E004F002622E7F001F
:01628B0022F0
:105B0100E4F9126A274003025C869014EA126B15CD
:105B11009014E97403F09014E9E03395E0C36480D4
:105B210094805003025C82126A5633FAE01269F8DB
:105B3100C333CE33CED8F91269A5126A379014E96E
:105B4100E01269F8C333CE33CED8F9FF24EDF582E4
:105B51007414126A07EAF0A3EBF0745D2F126A0362
:105B6100126B007003025C799014EB126B29700BBD
:105B71009014EBEEF0A3EFF0025C3C126A9EFBEE98
:105B8100126B301269F8C333CE33CED8F91269A53E
:105B9100E0FEA3E06D7002EC6E705D9014ECE02508
:105BA100E0FD9014EBE033FC126A9EFBEE33FA90B9
:105BB10014EAE01269F8C333CE33CED8F91269A5DD
:105BC100ECF0A3EDF09014ECE025E0FF9014EB1263
:105BD1006A749014EBF0A3F09014EAE01269F8C330
:105BE10033CE33CED8F91269A5126AC96D7002EEAF
:105BF1006C7042126B0E803D9014EB126A99FBEEB1
:105C010033FA9014EAE01269F8C333CE33CED8F9EF
:105C11001269A5ECF0A3EDF09014E9E01269F8C364
:105C210033CE33CED8F91269A5E0FFA3E09014EB8F
:105C3100CFF0A3EFF09014EAE014F0126A56126B61
:105C4100301269F8C333CE33CED8F91269A5E4F026
:105C5100A3F09014EBE07002A3E0601C9014EB122F
:105C61006A379014EAE01269F8C333CE33CED8F91B
:105C7100126A01EAF0A3EBF09014E9E014F0025B80
:105C81001709025B03E49014E9F09014E9E0126A49
:105C910028504FE4F9126A27503F126A56126B30AE
:105CA1001269F8C333CE33CED8F924EDF5827414DA
:105CB1001269AB126A379014E9E01269F8C333CE66
:105CC10033CED8F9126A01E0FEA3E06B7002EE6AEE
:105CD10060037F012209025C969014E9E004F0025E
:045CE1005C8B7F0059
:015CE500229C
:10B0DB007E007F207D007B017A14795D120D1C129E
:10B0EB009635129635E4901456F0A3F0126B379008
:05B0FB00145A04F022CC
:1089CB00E4901861F0901861E0126AC14003028ACA
:1089DB0094E4A3F0901862126ABF4003028A8B9052
:1089EB001861126A47126AD8FEA3E04E7002FF228A
:1089FB00901862E0FF2401FDE433126A8E502D9033
:108A0B001861E0FE75F008A4245FF582E43414F5D8
:108A1B0083126AD8FCA3E0FDEE126A48126AD8FEF4
:108A2B00A3E0B50507EEB504037F0022901861E0C3
:108A3B00FF2401FDE433126A8E503CEF75F008A45D
:108A4B002465F582E43414F583C083C082901862E8
:108A5B00E0FED082D08375F002120C14126AD11290
:108A6B006A4875F002EE120C14E0FEA3E0B50507A0
:108A7B00EEB504037F0022901862E004F00289DF58
:0B8A8B00901861E004F00289D07F0128
:018A960022BD
:10927000E4901864F0126AE17003029315E4901808
:1092800063F0901863E0126AC15045E4FDED126A84
:10929000C15035901863E0FC7E007410A80408806B
:1092A00005C333CE33CED8F9A805088005C333CE25
:1092B00033CED8F9FFEC126A4875F002ED120C14A7
:1092C000EEF0A3EFF00D80C5901863E004F080B2DB
:1092D000E4901456F0A3F090145A04F0C39014587C
:1092E000E0648094805009E4F0A3F090186404F0E6
:1092F00090145BE0FEA3E0FFEE5407FCEF4C70041B
:10930000EF4E7008126B3790186404F0901864E008
:05931000600312A27FC2
:019315002235
:107617007F187EC612A5F67BFF7A3879F09013BBE8
:10762700E4F0A37438F0A3E4F0A37408F0A374FCA7
:10763700F0A37407F074FFA3F0A3F0A37401F07F25
:10764700041242FC9013BD7401F0A37425126B174A
:107657007BDDFA7D5BFC7F13FE12A0369013D87496
:1076670001F0A37424F0A374A6F0A37451F07BDC9B
:107677007A007D5C126B4112B1007BFF7A9E798E96
:10768700E49013D9F0A3126AB1A37401F07D32120A
:107697006B411298FC7BFF7A9E7995E49013D9F0A1
:1076A700A3126AB1A37401F07D44126B411298FCD6
:1076B700E4901865F0901865E0FFC3940574809412
:1076C70080504BEF75F032A4245CFDE435F0FC905C
:1076D70013C7F0ED126B1E7BDC7A007F147E00125D
:1076E700731B901865E075F032A42414FFE435F09D
:1076F700FEAB07FA9013C77401F07424126B1E7D5A
:107707005C7C0012731B901865E004F080A7E4907E
:107717001865F0901865E0126AC15059E4A3F0901B
:107727001866126ABF5046EF75F032A4FB24171291
:107737006A20C006C007901865E075F032A4FFAE56
:10774700F0245FFDE43EFCEB2443FBE43AFAEF242C
:107757008B9013BD1269D7A3747DF0A314F0D007E3
:10776700D00612A036901866E004F080B290186533
:08777700E004F0809E02927014
:108D9F00E4901881F0EF249F604924FE601E146058
:108DAF004C24F2601514605924FC604B2406705E4D
:108DBF00E490145AF012A27F8054802290145AE04B
:108DCF00FD7C006404701104F090145CE025E0F069
:108DDF0090145BE033F08036ED64034C703012B0CA
:108DEF00DB802B126AE170261267F7801C126AE192
:108DFF00701C12646C8012126AE170121260AC80E7
:108E0F0008126AE17008125B01901881EFF0901858
:108E1F0081E060341296351289CBEF600690145AB8
:108E2F007403F0901458E0FEA3E0FF901456E0FC9A
:108E3F00A3E0FDD39FEE6480F8EC6480984006A316
:088E4F00ECF0A3EDF012A27F8C
:018E570022F8
:1048540090145AE07003024ACE126AE89014581277
:104864004ACF126AA8E4A3F07D32FC7F44FE12987A
:10487400FC126AE8901456124ACF126AA8E4A3F014
:104884007D44FC7F44FE1298FCE4901588F090155A
:1048940088E0126AC14003024A82E4A3F0901589B9
:1048A400126ABF4003024A79126A44126AD8FEA30C
:1048B400E0FF4E7003024A57EF8EF0120CEF48F6F9
:1048C400000249060004491A0008492E0010494212
:1048D40000204955004049680080497C0100499006
:1048E400020049A4040049B7080049B710000000B9
:1048F40049CD126A15C006C0071269B9A3748402AF
:10490400494E126A15C006C0071269B9A374FCF0B7
:10491400A374070249C5126A15C006C0071269B913
:10492400A37407F0A374E00249C5126A15C006C057
:10493400071269B9A37401F0A374CF0249C5126ABE
:1049440015C006C0071269B9A3E4F0A3741F024995
:10495400C5126A15C006C0071269B9A374F8F0A39A
:10496400E40249C5126A15C006C0071269B9A374E6
:10497400F8F0A3741F0249C5126A15C006C00712D5
:1049840069B9A374BCF0A374400249C5126A15C086
:1049940006C0071269B9A3742BF0A374120249C5A7
:1049A400126A15C006C0071269B9A37484F0A3740F
:1049B40030800E126A15C006C0071269B9E4A3F06C
:1049C400A3F0D007D00612B1009013D574FFF0A362
:1049D400749EF0A374A1F0126A44C083C08290153F
:1049E40089E0D082D083126AD9FFA3E09013D8CF94
:1049F400F0A3EFF0126B481230EA126B4812B4C203
:104A0400AD07901589E075F032A4242DFBE435F050
:104A1400FAED75F004A4FFC3EB9FFFEA95F0FEC026
:104A240006C007901588E075F032A4246DFDE435C6
:104A3400F0FC126B4874FF9013D9F0A3F0A374A692
:104A4400F07451126AB8A37401F0D007D00612981A
:104A5400FC8019126A15C006C0071269B9A374A6AE
:104A6400F0A37451F0D007D00612B100901589E07C
:104A740004F00248A1901588E004F00248929014D2
:104A84005AE024FD600B1470187BFF7A9E79A48091
:104A9400067BFF7A9E79C19013D974F8F0A3E48061
:104AA4000F7BFF7A9E79DE9013D974BCF0A3744017
:104AB400F0A374C6F0A37418F0A3740CF0E4A3F08C
:0A4AC4007D2C7C017F24FE1298FC7B
:104ACE0022E0FFA3E09013D8CFF0A3EFF07B017AA2
:0D4ADE0015796F1230EA7B017A15796F228D
:1093B80042657374203A0053636F72653A005370C4
:1093C800656564006D656469756D0020736C6F7701
:1093D8002000206661737420002538640020202056
:1093E80020202020202020596F752057696E2021C9
:1093F8002020202020202020200020202020202085
:1094080020202047616D65204F766572202120203D
:109418002020202020200020202020202020202064
:1094280020205061757365202020202020202020D6
:109438002020200020202020202020202020204E16
:109448006F726D616C202020202020202020202099
:019458000013
:10858D00F09016A4E0FBA3E0FAA3E0F91208B4FF03
:10859D009013B8E0FBA3E0FAA3E0F9E5F08FF01239
:1085AD00094F9016A4E0FBA3E0FAA3E0F922900096
:1085BD0004120C409013CFEBF0A3EAF0A3E9F022E4
:1085CD00E0FBA3E0FA9000021208DFFFAEF0120705
:1085DD00EBEF2465FFE43E9013D8F0A3EFF0A32258
:1085ED001208B4FFAEF07C007D0A0207EB7BFFE4BE
:1085FD009013D9F0A3F0A374C6F0A37418F07410FF
:10860D00A3F0A37401F0229000020208DFA3F0A3EF
:10861D0074A6F0A37451F022FFAEF01207EBEF2415
:10862D005DFDE43EFC229013B8F9E0FBA3E0FAA354
:10863D00E0C9227C007BDC7A007E00227BFF901358
:10864D00D974BCF0A3229013D574FFF0A37493F0EA
:10865D00A374E1F09013CF22A3E0F9A3E0FAA3E015
:0B866D0022A3F0A3747DF0A314F02200
:069FCF009013B81285C4D6
:109FD500128665A3C980529013BE1285B2EA494B19
:109FE500604C1208B4FFAEF09013B81285B2120897
:109FF500B4B50725E5F0B506209013BE1285B2125B
:10A005008614FFAEF09013B81285B2128614B50708
:10A0150008E5F0B506037F01229013BE1285B290C4
:10A025000004120C409013BEEB1285C580A97F0079
:01A035002208
:10ACE40080289018551285B2EA494B602C1285AF22
:10ACF400900004120C409016A41285C4901855A319
:10AD0400E0FAA3E0AE02FF127A2C9016A412866633
:09AD1400901855C91285C580C9CB
:01AD1D002213
:1080500090169EE4F0A37402F01281759016A47439
:10806000011285C51281649016A41286368FF01213
:10807000094F128164FE1285AF900002EE8FF0125C
:10808000096E1281759013B874011285C57B007A50
:10809000007900C003C002C0019013B81285B290ED
:1080A0000004120C7012A8827C007D04120852ECAD
:1080B000600302814EED14601F14603C1460622462
:1080C00003600302814EE490169D12858D12861482
:1080D0002401FFE435F0801290169D740112858D05
:1080E00012861424FFFFE5F034FFFE9013B81285CA
:1080F000B2900002EE02814990169D7402F0128542
:10810000AF1208B42401FFE435F01286331285AAB9
:10811000128614FF9013B81285B2900002E5F08029
:108120002890169D7403F01285AF1208B424FFFF47
:10813000E5F034FF1286331285AA128614FF9013DD
:10814000B81285B2900002E5F08FF012096E90131C
:10815000B81285B2C003C002C0011285AF900004FE
:03816000120C708E
:108163002212A8827C007D0A120852ED2405FFE446
:0E8173003C227F077E001288FAAA06A9072286
:10AD910012ADBE9016A0ECF0A3EDF012ADBE901670
:10ADA100A2ECF0A3EDF01286659013BBC91285C524
:10ADB1007B017A1679A0129FCFEF70D42212A8825C
:08ADC1007C007D1412085222EF
:10A49B00E49013B7F0901697F0A3F090169B74020C
:10A4AB00F012805012AD91C3901699E064809480A5
:10A4BB005009E4F0A3F09013B704F090169CE0FF62
:10A4CB007E00C374809480400AD3EF94037480940D
:10A4DB0080400A90169C7401F09013B7F09013B75C
:06A4EB00E0600312A27FF5
:01A4F1002248
:107F1E007F187EC612A5F67BFF7A3A79F09013BBD6
:107F2E00E4F0A37448F0A3E4F0A37408F0A3E4F023
:107F3E00A3741FF074FFA3F012860D7F031242FC90
:107F4E009013BD7401F0A37425F0E4A3F0A3F07BAD
:107F5E00DDFA7D5BFC7F13FE12A0369013D8740100
:107F6E00F0742412861A7D5C7F1412864012B100C2
:107F7E007A9379B81285FA7D321280467A9379BF58
:107F8E001285FA7D441280469013D8E4F074541290
:107F9E00861A7D327F9E12864012B1009013C7E47E
:107FAE00F0A37441F0A37484F0A37430F07BD87AFC
:107FBE00007D417C007FA27E0012731B7BFF7A93B3
:107FCE0079C6E49013D9F012861A740C12860D7DC0
:107FDE00347C007FAE7E001298FCE49013B6F090D5
:107FEE0013B6E0FFC39415748094805048EF75F07B
:107FFE000AA4245CFDE435F0FC9013C7F0ED128664
:10800E006E7F1412864212731B9013B6E075F00A3F
:10801E00A42414FFE435F0FEAB07FA9013C77401E5
:10802E00F0742412866E7D5C7C0012731B9013B666
:08803E00E004F080AA02A49BFB
:0A8046007C007F147E001298FC22DB
:105ECB001285AF1285BB90169BE07003026078A31E
:105EDB00E0601224FE601F04703E7A9379CC128628
:105EEB0049744080207BFF7A9379D39013D974FF48
:105EFB00F0A374E0800F7BFF7A9379DA9013D97457
:105F0B00FCF0A3740712861BA37410F0E4A3F07DBE
:105F1B0043FC7FA5FE1298FC1286531285B2120821
:105F2B00B41260797D32FC7F44FE1298FC128653CA
:105F3B001285B21286141260797D44FC7F44FE12E6
:105F4B0098FC9016A0E0FEA3E0FF1285F3AA06AB27
:105F5B0007EB2415FFE43AFEC006C007A3E0FEA33F
:105F6B00E0FF128628EB241DFBE43AFA1285DE745F
:105F7B0007F0A374E0F0D007D00612B1001285AF82
:105F8B001285EDEF2415FFE43EFEC006C007128616
:105F9B0014128625C004C0051285EDEF241DFBE409
:105FAB003EFAC002C0039016A41285CDE4F0A37490
:105FBB001FF0D003D002D005D004D007D00612B109
:105FCB00009013CF1285B2EA494B604E1285EDEF6C
:105FDB002415FFE43EFEC006C00712861412862568
:105FEB00C004C0051285EDEF241DFBE43EFAC00290
:105FFB00C0039013CF1285CD7401F0A374CFF0D0F2
:10600B0003D002D005D004D007D00612B1009013F4
:10601B00CF1285B21285BB025FCC90169BE0146049
:10602B002914601614600B1470437BFF7A9379E587
:10603B00800E7BFF7A94790280067BFF7A94791F1E
:10604B009013D974F8F0A3E480097A94793C128602
:10605B00497440F0A374C6F0A37418F0A3740CF049
:0D606B00E4A3F07D2C7C017F24FE1298FC44
:1060780022FF9013D8E5F0F0A3EFF07B017A1379B3
:10608800B61230EA7B017A1379B69013D9742BF0E3
:10609800A37412F0A374C6F0A37418F0A37410F0DC
:0460A800E4A3F0225B
:04B6FE007F03DFFEE9
:01B702002224
:04B703007F12DFFED4
:01B70700221F
:04B708007F26DFFEBB
:01B70C00221A
:04B70D007FC6DFFE16
:01B711002215
:09B66000007F027E5ADEFEDFFCD1
:01B6690022BE
:09B66A00007F207E28DEFEDFFCDB
:01B6730022B4
:10B54600AD07AC0612B66AED1D70011C144C70F402
:01B5560022D2
:0791E000441829016E36005E
:10AFC100E4F593F594F591F592F595F596F5B1F5CE
:10AFD100B2F5B3F5B4F5C9F5CAF5CBF5CCF5E1F5A4
:0DAFE100E212B6AF12B32812B444C2C1226E
:10B2F600C28CD2A95389FC5389FB538FFE438E809F
:09B30600758CA2758A40D28C22DC
:10B30F00C28ED2AB5389CF5389BF538FFD438E402B
:09B31F00758DD1758B20D28E22B0
:10B3EC00538EE343AF04538FFB438E0475D6E8753D
:06B3FC00D790438E1022E1
:10B4D70053D1F043AF2043D10275D4ED75D5404326
:03B4E700D1082267
:10B4EA0053D10F43AF4043D12075D2F675D3A04351
:03B4FA00D18022DC
:10B510000102040810204080000000FFFF0000002E
:02B52000000029
:10B35A007D017BFF7E007F0202074B7B017D027C21
:09B36A0000227B017D027C00221F
:10B3280053B3EF43B41053B3F743B40853B3FB43D9
:09B33800B404C2C4C2C3C2C222A3
:0DB5EA00C2C312B708D2C312B708C2C322F1
:05AB38009013BFEFF0D7
:10AB3D00E4A3F09013C0E0C3940874809480502A6D
:10AB4D009013BFE0548064807004D2C48002C2C4EC
:10AB5D0012B708C2C212B708D2C212B7089013BFFB
:0AAB6D00E025E0F0A3E004F080C949
:01AB770022BB
:10A69F009013B8EBF0A3EAF0A3E9F0A3ECF0A3ED6D
:01A6AF00F0BA
:10A6B000E4A3F0A3F09013BBE0FEA3E0FFA3E0FC53
:10A6C000A3E0FDC39FEC9E50269013B8E0FBA3E0EF
:10A6D000FAA3E0F98D828C8312078AFF12AB3890BF
:10A6E00013BEE004F070CE9013BDE004F080C6020B
:02A6F000B5EAC9
:10B4440078B67C137AB5791812B35A7A1379B6128E
:05B45400B36502A69F94
:10B4590078677C187AB5791A12B35A7A187967120B
:05B46900B36502A69F7F
:10B3410078697C187D017BFF7AB5791C12B35E7A2E
:09B3510018796912B36C02A69F81
:05AA3200901858EFF040
:10AA370078597C187D017BFF7AB5791E12B35E9039
:10AA47001858E0FFD3940774809480400BEF90B5BB
:10AA57000893901859F0800C901858E090B510930F
:0EAA670090185AF07A18795912B36C02A69F13
:10B26D00786B7C187D017BFF7AB5792012B35E7BFC
:0CB27D00017A18796B7D027C0002A69F0C
:0891E70041186DFE41186E00F5
:09B6A60053B3FE43B401C2C022FB
:09B6AF0053B3FE43B401D2C022E2
:10A4F20090186DE0FF7E00647F7011A3E070047D10
:10A502000180027D0090186EEDF08019EF64FE4E1E
:10A51200701390186EE0600D70047F0180027F005E
:10A5220090186EEFF090186DE0FFF5E8A3E0700868
:10A53200EF25E04401FF800990186DE0C3134480C9
:06A54200FF90186DEFF020
:01A5480022F0
:09B6B800E0FBA3E0FAA3E0F92293
:0300A00002B34167
:0E96D1009017A1EFF0A3EBF0A3EAF0A3E9F0ED
:1096DF00C3740F9F9017A8F0AE029017A5A3E0FADE
:1096EF00A3E0C399FFEA9EFE9017A1E0FDC37408A3
:1096FF009DFDE49400FCD3EF9DEC6480F8EE648054
:10970F0098504C9017A512B6B8C003C002C0019074
:10971F0017A212B6BAC3D082D083D0E0E99582EAFD
:10972F009583502B9017A8E0FF12AA329017A21220
:10973F00B6B8120771F5E812B66A12B26D9017A893
:0F974F00E014F09017A3E475F00112088880B4BD
:01975E0022E8
:0E9DB2009017C9EBF0A3EAF0A3E9F0A3EDF0DF
:109DC0009017CE740FF09017CEE0FFC39408748004
:109DD0009480404B12AA329017CEE0FFC3740F9FBD
:109DE000FFE49400FE9017CDE07C002FFFEC3EFED8
:109DF0009017CCE0FD1207FD9017CFEDF09017C93A
:109E000012B6B89017CFE0F58275830012078AF575
:0F9E1000E812B66A12B26D9017CEE014F080A778
:019E1F002220
:1091EF0052162DC0F9A4B0999282F880908883C648
:0591FF00A1868EBFFFF8
:10A6F200E4FAF9F8901710E0FCA3E0FDA3E0FEA352
:10A70200E0FF12A9EEE47B0AFAF9F802A9EE90172B
:10A7120014E0FF3395E0FE74152FF58274173EF5B1
:10A722008322901710E0FCA3E0FDA3E0FEA3E0FF6C
:10A7320022242DF582E43416F583E0F5E87F027ECB
:02A742000022F3
:10B2330012B459E4F5CB75CCFF75E8FF53937F4304
:0DB243009480D2875395FD439602D2A1223C
:06867800901710120BD751
:10867E009017147406F0901710E0FCEC3390171C52
:10868E0040057411F0800F7410F012A724120AB86E
:10869E00901710120BD7E47B0AFAF9F812A72412DE
:1086AE00A9EE901715EBF07B0A12A6F2901716EBB7
:1086BE00F07B6412A6F2901717EBF0E47BE87A03D6
:1086CE0012A6F4901718EBF0E47B107A2712A6F49A
:1086DE00901719EBF07BA07A867901780012A6F636
:1086EE0090171AEBF07B407A42790F780012A6F6BB
:1086FE0090171BEBF012A710E0700F901714E014F8
:10870E00F0EF12A7157411F080EB12A724EC4D4E6A
:10871E004F7004901715F09017147407F0901714FB
:10872E00E0FF3395E0C364809480401812AA3212A1
:10873E00A710E012A73312B54612B26D901714E0CF
:04874E0014F080D9CA
:018752002204
:0BA161009017E6EBF0A3EAF0A3E9F092
:10A16C00EFC3940874809480504AC374089FFEA374
:10A17C00E0FDD39E503EC374089FC39DA3F090177F
:10A18C00E9E0FF14F0EF602CA3E0FF12AA32901765
:10A19C00E6E0FBA3E0FAA3E0F9A3E0F58275830007
:10A1AC0012078A12A73312B54612B26D9017EAE065
:04A1BC0004F080CA61
:01A1C000227C
:10B5570000010200030000000400000000000000DA
:109204004115B9FF5115BA002B0908072D060504AD
:08921400780302012F23002A58
:10000E009015CCE0FC75F8F07E3CDEFEE5F854F081
:10001E009015CCF075F80F7E3CDEFE9015CCE0FE10
:10002E00E5F8540FFDEE4DF0E0F4F06C70609015B5
:10003E00B8E0FC9015CCE09015B8F0604CC2D5EC51
:10004E007004D2D5801B9015B8E0B504149015CB72
:10005E00E004F0C394147480948040057412F0D2BE
:10006E00D530D52A9015B8E0FFC4540F90B55793EC
:10007E00FC601BEF540F93FF6014EC1425E025E099
:10008E00FEEF2E9015B9F08005E49015CBF075F8C3
:01009E00FF62
:01009F00223E
:03B71700256400A6
:0AB67400FDE0FBA3E0FAA3E0F922D9
:10B46E0075E8FFC293D290C291C291D291E5E820C5
:05B47E00E7FBAFE8222E
:10AF3700901882EFF0C291D293C29012AF5090183E
:10AF470082E0C454F012AF5022F5E87F017E001270
:0EAF5700B546D2917F057E0012B546C291220A
:10AF6500901883EFF0C291C293C29012AF7E9018F1
:10AF750083E0C454F012AF7E22F5E87F017E001213
:0EAF8500B546D2917F057E0012B546C29122DC
:0DB5F700D293D290C291C291D291AFE822BE
:10A54900E4F5E85391F74392085391FE439201537E
:10A5590091FD439202F5CB75CCFF12A59312A593F9
:10A569007F3812AF657F057E0012B5467F3212AF84
:10A57900657F2812AF657F0C12AF657F0612AF6544
:10A589007F0112AF657F8002AF657F3812AF657FAB
:07A59900057E0012B5462209
:0CB611007F0112AF657F027E0002B5468B
:10B16E00901884EBF0ED5401FDEF540FFFED6004E9
:10B17E00EF4440FFEF4480FF12AF65901884E0FF6C
:03B18E0002AF37D6
:10A221009017D0EFF0A3EDF0A3EBF0A3EAF0A3E9D0
:01A23100F03C
:10A2320012B4C29017D5EFF09017D1E05401F0900C
:10A2420017D0E0540FF0E49017D6F09017D5E0FF46
:10A25200A3E0FEC39F50259017D0E0FFA3E0A31216
:10A26200B6748E8275830012078AFB12B16E901744
:0CA27200D0E004F09017D6E004F080CF9C
:01A27E0022BD
:0CA9AA009015CDEFF0A3EDF0AF03AE026E
:10A9B6007B017A1579CF9015DEEBF0A3EAF0A3E9D7
:10A9C600F09013D574FFF0A374B7F0A37417F0A337
:10A9D600EEF0A3EFF01230EA9015CDE0FFA3E09081
:08A9E60015DE12B67402A22175
:0BB6340090FE82F090FE817405F02271
:0CB61D0090FE82E030E6F9E054BFF0221D
:10B2C10043912043922043911043921043BA8090BE
:0BB2D100FE8074E0F090FE82E4F022AA
:09B6C10090FE817401F002B61D37
:09B6CA0090FE817406F002B61D29
:0EB14A0012B6C112B5B212B158AF0512B5B2AD
:10B1580090FE817403F012B61D90FE82E030E10388
:06B168007F01227F00229E
:07B6DC00E412B63402B61DB2
:08000300740112B63402B61DAF
:0EB5B20090FE86EFF090FE817402F002B61D4E
:0FB5670090FE817404F012B61D90FE87E0FF2263
:10AD5800AE0712B14A12B6C1EE4401FF12B5B212E3
:10AD6800B15812B567EF1207B7740129F9E43AFA36
:10AD78009017F0E06401600312B6DC9017F0E0145D
:09AD8800F070DF12000302B6CAEC
:10AE6F009017F3EBF0A3EAF0A3E9F012B14A9017B1
:10AE7F00F3E0FBA3E475F00112089EA9F0FA1207A4
:10AE8F0071FF12B5B212B1589017F6E014F070DEE0
:03AE9F0002B6CA2E
:102B870025640000000000003E5B4F5B3E3E6B4F3C
:102B97006B3E1C3E7C3E1C183C7E3C181C577D57E8
:102BA7001C1C5E7F5E1C00183C1800FFE7C3E7FF94
:102BB7000018241800FFE7DBE7FF30483A060E2627
:102BC70029792926407F050507407F05253F5A3C7F
:102BD700E73C5A7F3E1C1C08081C1C3E7F14227FC2
:102BE70022145F5F005F5F06097F017F006689959A
:102BF7006A606060606094A2FFA29408047E040883
:102C070010207E201008082A1C08081C2A08081E05
:102C1700101010100C1E0C1E0C30383E3830060EEB
:102C27003E0E06000000000000005F0000000700E5
:102C37000700147F147F14242A7F2A1223130864A1
:102C47006236495620500008070300001C22410045
:102C57000041221C002A1C7F1C2A08083E08080085
:102C67008070300008080808080000606000201025
:102C77000804023E5149453E00427F4000724949DF
:102C870049462141494D331814127F1027454545C0
:102C9700393C4A49493141211109073649494936E1
:102CA700464949291E000014000000403400000076
:102CB70008142241141414141400412214080201A8
:102CC7005909063E415D594E7C1211127C7F4949D4
:102CD70049363E414141227F4141413E7F49494971
:102CE700417F090909013E414151737F0808087F67
:102CF70000417F41002040413F017F081422417F6E
:102D0700404040407F021C027F7F0408107F3E4105
:102D170041413E7F090909063E4151215E7F09195C
:102D27002946264949493203017F01033F40404074
:102D37003F1F2040201F3F4038403F631408146363
:102D470003047804036159494D43007F414141021F
:102D570004081020004141417F0402010204404061
:102D6700404040000307080020545478407F28441F
:102D770044383844444428384444287F3854545409
:102D87001800087E090218A4A49C787F0804047818
:102D970000447D40002040403D007F102844000053
:102DA700417F40007C047804787C08040478384428
:102DB700444438FC1824241818242418FC7C0804DC
:102DC7000408485454542404043F44243C404020FD
:102DD7007C1C2040201C3C4030403C4428102844A8
:102DE7004C9090907C4464544C4400083641000059
:102DF70000770000004136080002010204023C2669
:102E070023263C1EA1A161123A4040207A3854542F
:102E170055592155557941215454784121555478B4
:102E27004020545579400C1E527212395555555948
:102E3700395454545939555454580000457C41006D
:102E470002457D420001457C40F0292429F0F02805
:102E57002528F07C545545002054547C547C0A099D
:102E67007F4932494949323248484832324A48480C
:102E7700303A4141217A3A42402078009DA0A07D16
:102E870039444444393D4040403D3C24FF242448D4
:102E97007E4943662B2FFC2F2BFF0929F620C0887C
:102EA7007E090320545479410000447D413048484D
:102EB7004A32384040227A007A0A0A727D0D193167
:102EC7007D2629292F28262929292630484D4020C3
:102ED700380808080808080808382F10C8ACBA2F9F
:102EE700102834FA00007B000008142A1422221448
:102EF7002A1408AA005500AAAA55AA55AA00000034
:102F0700FF00101010FF00141414FF001010FF0032
:102F1700FF1010F010F0141414FC001414F700FF45
:102F27000000FF00FF1414F404FC141417101F1002
:102F3700101F101F1414141F00101010F0000000B1
:102F4700001F101010101F10101010F010000000BC
:102F5700FF101010101010101010FF10000000FFCD
:102F6700140000FF00FF00001F10170000FC04F40E
:102F770014141710171414F404F40000FF00F714C6
:102F8700141414141414F700F7141414171410104D
:102F97001F101F141414F4141010F010F000001F69
:102FA700101F0000001F14000000FC140000F010A8
:102FB700F01010FF10FF141414FF141010101F004E
:102FC700000000F010FFFFFFFFFFF0F0F0F0F0FF50
:102FD700FFFF0000000000FFFF0F0F0F0F0F384427
:102FE7004438447C2A2A3E147E02020606027E02E8
:102FF7007E0263554941633844443C04407E201EA9
:103007002006027E020299A5E7A5991C2A492A1CD7
:103017004C7201724C304A4D4D303048784830BCC4
:10302700625A463D3E494949007E0101017E2A2AEE
:103037002A2A2A44445F444440514A444040444A6F
:1030470051400000FF0103E080FF000008086B6BA0
:10305700083612362436060F090F06000018180026
:1030670000001010003040FF0101001F01011E0089
:0E307700191D1712003C3C3C3C0000000000FC
:1056E100A42BFFE5F03AFEED131313541F7C002F9A
:1056F100FFEC3EFEE0FBA3E0FAA3E0F98F828E838C
:1057010012078AFD22ED131313541FFEEF75F004E7
:10571100A424AAF582E5F03411F583E5822EF58201
:10572100E43583F583223ECF24F4CF34FFFED3EF5B
:10573100947FEE6480948022901733E0FB5407FF3E
:105741007E007480A8070822EFF0A3EBF0A3EAF033
:10575100A3E9F0A3E0FEA3E0FFC3EE6480948022FE
:10576100A42DFFE5F03CFEE0131313541F7C002F22
:10577100FFEC3EFE22FF901751E02FFF901750E003
:105781003400CF24E0CF34FFFED3EF943FEE6480AA
:10579100948022A4FFED2FFFEC35F0FEE0FD7A00AE
:1057A1002FEA3EC3648094802290173175F00CE09B
:1057B100A42DFFEC35F0FE2290174EA3E0FF9017C9
:1057C10052E0C43354E02FFF901754E02FFF90179D
:1057D10050A3E02BFD7B0102A355FFEE5CFEEF5DC4
:1057E1004E22C3E49FFFE49EFE7C00020852901704
:1057F10043A3E0FF901747E075F018A49017452FD9
:105801002BFFA3E0FE22901754E0FD7C00C39420FF
:105811007480948022CEA2E713CE1322CD34FFFCF4
:10582100D3ED943FEC6480948022901733E0FD7CAB
:1058310000C3940C748094802290173EE0FD7C009C
:10584100C394107480948022901749E0FD7C00C3BA
:105851009418748094802290182FE075F005A42488
:105861008AF582E5F0342BF583E5822C22E0FCA356
:10587100E0FD2FFFEC22901738A3E0FF90173CE0EA
:1058810022C39480748094802275F002E0A4FBAA64
:10589100F0E922C3E49FFFE49EFE7C00020852C3AC
:1058A10094047480948022901729E0FF901731E0CE
:1058B100C39F2290173FE0FF901747E0C39F22E06C
:1058C100F9A4FFED2FFFEC35F0FE2290174AE0FF1F
:1058D100901752E0C39F22E0FFED5407FEF87401D8
:1058E1000822E0FBA3E0FAA3E0F9A3222FFFE034B2
:0D58F10000CF22EF75F002A4FDACF0E02224
:10B0B500901885EFF012B6C17F7812B5B212B1586B
:10B0C500E412B0D3901885E012B0D302B6CAFF12CD
:06B0D500B5B212B15822D1
:10B06700901886EFF012B6C17F7812B0877F401232
:10B07700B087901886E0FF12B5B212B15802B6CA6F
:07B0870012B5B212B158220C
:10B40200901887EFF0ED6005E0FF02B067901887B3
:06B41200E0FF12B0B522BC
:10B01700901888EFF0ED24B012B03454F0C4540FF8
:10B02700441012B034540FFFE4FD02B402FFE4FDF4
:08B0370012B402901888E02217
:10B48300E4FD7F8D12B402E4FD7F1412B402E4FDE7
:05B493007FAF02B402CE
:10B49800E4FD7F8D12B402E4FD7F1012B402E4FDD6
:05B4A8007FAE02B402BA
:10AF9300E4FFEF1258A05025E4FEEE125882501A37
:10AFA30075F004EEA424AAF582E5F03411F583E5E7
:0DAFB300822F12571FE4F00E80E00F80D5B2
:01AFC000226E
:10A79500E4901870F0901870E0FF1258A05041EF47
:10A7A50024B0FFE4FD12B402E4FDFF12B402E4FD9F
:10A7B5007F1012B402E490186FF090186FE0FF124A
:10A7C50058825014A3E012570CE0FF7D0112B40229
:10A7D50090186FE004F080E2901870E004F080B506
:01A7E5002251
:10B25000E4FEEE1258A05014E4FDED12588250099D
:0CB26000ED12570EEFF00D80F10E80E6AD
:01B26C0022BF
:10A3360090172DA3E0FF901731E075F00CA42F2B9A
:0FA34600FF90172FA3E0901732FEE02EFD7B0152
:10A35500EFD31258835033ED12580F502DEB601385
:10A36500125706C083C0821258D88002C333D8FC66
:10A375004F8012125706C083C0821258D88002C37C
:0BA3850033D8FCF45FD082D083F022BC
:0D8CE50090182EEDF0A3EBF090182DEFF09D
:108CF2003395E0C364809480505EE4FCECC3940539
:108D0200748094804003028D9E12585812571FE4BB
:108D120093901830F0E4F9E9FF7E00C39408748060
:108D22009480503190182DE0FDFB3395E0FAEB2F43
:108D3200EE3AC3648094804012901830E030E00B29
:108D4200ED2CFF90182EE0291257D5901830E0C371
:108D520013F00980C20C80A4E4FCECC39405748077
:108D62009480503812585812571FE493901830F0DC
:108D7200E4F9E9C3940874809480501D901830E09F
:108D820030E00C90182DE02CFFA3E0291257D5906B
:0C8D92001830E0C313F00980D90C80BE3B
:018D9E0022B2
:10A3EA009017F7EFF0A3EDF0A3EBF0A3EAF0A3E9DF
:01A3FA00F072
:10A3FB00E4A3F09017F91258E3E0F582758300128D
:10A40B00078AFB60329017F7E0FFA3E0FD128CE5A3
:10A41B009017F7E02408F0E0FF3395E0FED3EF94BC
:10A42B0078EE648094804007E4F0A3E02402F0907F
:07A43B0017FCE004F080BCF7
:01A4420022F7
:0CAD1E00901675EFF0A3EDF0AF03AE024D
:10AD2A009013D574FFF0A3742BF0A37487F0A3EEED
:10AD3A00F0A3EFF07B017A1679771230EA90167554
:0EAD4A00E0FFA3E0FD7B017A16797702A3EA11
:037DE300901729CD
:107DE6001257494003027E8F7D0C1257E3901731DC
:107DF600EFF01258A84003027F1DE4A3F09017325B
:107E0600E0125832507AE4A3F012582B50691257F8
:107E1600AA90172D12586E1257274003027F1D9005
:107E26001732E0FF901730E090172F1258ED24F428
:107E36001257864003027F1D901731E0F975F00C4A
:107E460090173312579450028001C3402190173285
:107E560012588A75F01890172A1256E1125739806F
:107E660003125816D8FB1257DB600312A33690177D
:107E760033E004F0027E0F901732E004F0027E0336
:107E8600901731E004F0027DF8E4901731F01258B3
:107E9600A84003027F1DE4A3F0901732E012583287
:107EA600506CE4A3F012582B505B1257AA90172E71
:107EB600E02FFF90172DE0125727505B901732E006
:107EC600FFFD901730E02DFD90172FE03CCD24F4F8
:107ED60012581D50429017311258F475F018901729
:107EE6003312576190172A1256F51257398003122A
:107EF6005816D8FB1257DB600312A336901733E0EF
:107F060004F0027EAB901732E004F0027E9F9017D9
:077F160031E004F0027E944B
:017F1D002241
:03700A00901734A8
:10700D0012574940030270DF7D101257E390173C71
:10701D00EFF090173412587BC39F4003027192E436
:10702D00A3F090173DE012584140030270D6E4A33F
:10703D00F012583A40030270CD90173C75F01012C3
:10704D0057B090173812586E3ECF24F012572B4080
:10705D000302719290173DE0FF90173BE090173AB5
:10706D001258ED24F0125786400302719290173C8E
:10707D00E0F975F01090173E12579450028001C33D
:10708D00403590173D12588A75F0209017351256DD
:10709D00E190173E12573C8003125816D8FB125739
:1070AD00DB6014125877C454F02F2BFF90173AA3BE
:1070BD00E090173D12A34F90173EE004F002703E92
:1070CD0090173DE004F002702F90173CE004F002A1
:1070DD00701FE490173CF090173412587BC39F40FB
:1070ED0003027192E4A3F090173DE0125841400362
:1070FD00027189E4A3F012583A507890173CE0756C
:10710D00F0101257B1901739E02FFF901738E03E6D
:10711D00CF24F012572B506D90173DE0FFFD9017C7
:10712D003BE02DFD90173AE03CCD24F012581D5058
:10713D005490173C1258F475F02090173E12576179
:10714D009017351256F590173E12573C8003125882
:10715D0016D8FB1257DB6012125877C454F09017F3
:10716D003A12580090173D12A35090173EE004F0CC
:10717D0002710390173DE004F00270F490173CE0AB
:05718D0004F00270E4B3
:0171920022DA
:036E7F0090173F2A
:106E82001257494003026F577D18125894901747C2
:106E9200EFF01258B44003027009E4A3F0901748CF
:106EA200E01258504003026F4EE4A3F012584940DA
:106EB20003026F45901747E075F0181257B190170B
:106EC2004312586E3ECF24E812572B40030270093A
:106ED200901748E0FF901746E02FFF901745E034E7
:106EE20000CF24E8125786400302700990174775B5
:106EF200F0181258C090174912579D50028001C3D2
:106F0200403890174875F00312588D75F048A42B3D
:106F1200FFE5F03AFEED1257699017401256F590D0
:106F2200174912573C8003125816D8FB1257DB60E0
:106F3200091257EF90174812A350901749E004F036
:106F4200026EAE901748E004F0026E9F901747E081
:106F520004F0026E94E4901747F01258B440030212
:106F62007009E4A3F0901748E012585040030270F1
:106F720000E4A3F0125849507C901747E075F018CE
:106F82001257B1901744E02FFF901743E03ECF24F1
:106F9200E812572B5071901748E0FFFD901746E01A
:106FA2002DFD901745E03CCD24E812581D5058EFB6
:106FB20075F003A4FDACF0901747E075F048A42DDE
:106FC200FFE5F03CFE9017491257689017401256A1
:106FD200F590174912573C8003125816D8FB1257E6
:106FE200DB60091257EF90174812A350901749E03F
:106FF20004F0026F76901748E004F0026F67901772
:0770020047E004F0026F5C9F
:017009002264
:03777F0090174A16
:1077820012574940030278407D20125894901752B4
:10779200EFF01258CC40030278E5E4A3F0901753BF
:1077A200E012580E4003027837E4A3F01258075053
:1077B2007B901752E075F0201257B190174E125875
:1077C2006E3ECF24E012572B40030278E590175308
:1077D200E012577640030278E590175275F02012B6
:1077E20058C090175412579D50028001C34034ED87
:1077F20075F004A4FDACF0E975F080A42DFFE5F06E
:107802003CFE90175312576890174B1256F590177B
:107812005312573C8003125816D8FB1257DB6003F1
:107822001257B9901754E004F00277AE901753E064
:1078320004F002779F901752E004F0027794E490EC
:107842001752F01258CC40030278E5E4A3F09017E7
:1078520053E012580E40030278DCE4A3F0125807FA
:10786200506F901752E075F0201257B190174FE009
:107872002FFF90174EE03ECF24E012572B5064901A
:107882001753E0FD125776505A901754E075F004E2
:10789200A4FBAAF0901752E075F080A42BFFE5F04C
:1078A2003AFEED131313541F2FFFEC3EFE90174BBD
:1078B2001256F590175312573C8003125816D8FBF4
:1078C2001257DB60031257B9901754E004F00278A4
:1078D2005F901753E004F0027850901752E004F0E2
:0378E200027845E4
:0178E5002280
:0AA1C100901774EFF0901776EBF0A2
:10A1CB00E490177BF0A3F0901777E0131313541F51
:10A1DB00F0540770028000AF05AE07901777E0FFD1
:10A1EB00EEC39F5030901774E0FF901776E0FDEFB1
:10A1FB00C39D501E9017781258E3E475F0011208B6
:10A20B009E85F082F58312078AFD12570DEDF00F34
:05A21B0080D80E80C692
:01A22000221B
:1090710012B2C17F647E0012B5467FAE1290F67FB8
:109081004012B4027FB01290F67FC812B4027F8101
:109091001290FE7FFF12B4027FA11290FE7FA612F2
:1090A100B4027FA81291067F1F12B4027FD31291DE
:1090B10006FF12B4027FD512910E7FF012B4027F27
:1090C100D912910E7F2212B4027FDA1291167F0219
:1090D10012B4027FDB1291167F4912B402E4FD7FC4
:1090E1008D12B402E4FD7F1412B402E4FD7FAF12CD
:1090F100B40202AF93E4FD12B402E4FD22E4FD12D6
:10910100B402E4FD22E4FD12B402E4FD22E4FD1206
:0D911100B402E4FD22E4FD12B402E4FD22EC
:10ACA9009017AD120BD79017ADE0FCA3E0FDA3E020
:10ACB900FEA3E0FF22901889E0C394647480948015
:10ACC90022E4FBFA12019E9017AD020BD7E0FF9028
:0BACD900177DE0FBA3E0FAA3E0F922E6
:09B67E00007F027E3CDEFEDFFCD1
:01B6870022A0
:0EB5C000C2C67F147E0012B546D2C602B67E09
:10ABB800E4901889F030C60D12ACBE5008E004F0DD
:10ABC80012B6FE80F012ACBE40037F0122E490185A
:10ABD80089F020C60D12ACBE5008E004F012B6FE93
:0CABE80080F012ACBE40037F01227F0011
:01ABF400223E
:10ABF500E490188AF030C61090188A12ACC150083B
:10AC0500E004F012B6FE80EDE490188AF020C6103C
:10AC150090188A12ACC15008E004F012B6FE80ED1F
:0BAC250012B67E30C6037F01227F00C4
:01AC30002201
:10ADC900E4901872F0901871F0901871E0C394082B
:10ADD90074809480501CA3E0FF25E0F0E0FEC006DB
:10ADE90012ABF5D0E04F901872F0901871E004F0B2
:07ADF90080D7901872E0FF03
:01AE0000222F
:0B95980090177DEBF0A3EAF0A3E9F0D0
:1095A30012B5C012ABB8EF600302962F901785F087
:1095B300901785E0C3940574809480501A12ADC946
:1095C300901785E02480F582E43417F583EFF0905B
:1095D3001785E004F080D9901781E0FF901780E0B1
:1095E3002FFFE433FE901782E07C002FFFEC3EFE5A
:1095F300A3E02FFFEC3EFEA3E06F7001EE7030900E
:10960300178012ACD6EF1207B790178112ACD69021
:109613000001EF1207C9901782E09000021207C9F8
:10962300901783E09000031207C980037F01227F14
:019633000036
:019634002213
:0EB5CE0053B3BF53B4BFD2C612B5C002ABB860
:10B522007B017A187931129598EF70F4901831E016
:01B53200FF19
:01B5330022F5
:109C64007B017A1779A9129598EF70F49017ABE0FD
:109C7400547FFCE41203C712ACA97920784112ACDA
:109C8400CA9017ADE0F8A3E0F9A3E0FAA3E0FBC0A3
:109C940000C001C002C0039017ACE0FCE41203C78B
:109CA400D003D002D001D0001200AD12ACA9E4FB65
:109CB400FA792078411202A712ACD09017ABE030A9
:0F9CC400E70A12ACAF798078BF12ACCA12ACAF0E
:019CD300226E
:100DB10025640000000000000000000000000000A9
:100DC100000404040404040004000000140A0A00DE
:100DD10000000000000000000014143F140A3F0A44
:100DE1000A000000041E1505060C14150F0400006E
:100DF1000012150D0A142C2A1200000000040A0A20
:100E01001E15150936000000020201000000000055
:100E11000000000020100808080808081020000041
:100E2100020408080808080804020000000004156C
:100E31000E0E150400000000000404041F04040445
:100E4100000000000000000000000000020201009C
:100E5100000000001F000000000000000000000072
:100E6100000000000200000010080808040402024B
:100E710002010000000E1111111111110E000000EC
:100E810000040604040404040E000000000E111105
:100E9100080402011F000000000E11100C101011B7
:100EA1000E00000000080C0A0A091E0818000000C4
:100EB100001F01010F1010110E000000000E0901AA
:100EC1000F1111110E000000001F09080404040491
:100ED10004000000000E11110E1111110E0000008E
:100EE100000E1111111E10120E000000000000046E
:100EF10000000000040000000000000004000000E9
:100F0100040400002010080402040810200000005E
:100F11000000001F00001F00000000000204081074
:100F21002010080402000000000E11110804040042
:100F310004000000000E111915151D011E0000000E
:100F41000004040C0A0A1E1233000000000F1212E2
:100F51000E1212120F000000001E110101010111F9
:100F61000E000000000F1212121212120F000000E8
:100F7100001F120A0E0A02121F000000001F120AAF
:100F81000E0A020207000000001C120101391112B1
:100F91000C000000003312121E1212123300000066
:100FA100001F0404040404041F000000003E08089C
:100FB10008080808090700000037120A060A0A1281
:100FC1003700000000070202020202223F00000077
:100FD100001B1B1B1B15151515000000003B1216ED
:100FE100161A1A1217000000000E11111111111119
:100FF1000E000000000F12120E0202020700000094
:10100100000E1111111117190E180000000F121204
:101011000E0A121237000000001E110106081011FD
:101021000F000000001F1504040404040E0000005A
:1010310000331212121212120C00000000331212AD
:101041000A0A0C0404000000001515150E0A0A0A0C
:101051000A000000001B0A0A04040A0A1B0000001F
:10106100001B0A0A040404040E000000001F090802
:10107100040402121F0000001C04040404040404FC
:10108100041C000002020204040808081000000009
:101091000E08080808080808080E0000040A0000E5
:1010A100000000000000000000000000000000003F
:1010B10000003F00040000000000000000000000EC
:1010C100000000000C121C123C0000000003020290
:1010D1000E1212120E000000000000001C1202028B
:1010E1001C000000001810101C1212123C0000001D
:1010F100000000000C121E021C0000000038040455
:101101001E0404041E000000000000003C120C023A
:101111001E221C00000302020E12121237000000F0
:1011210000040000060404040E0000000008000092
:101131000C08080808080700000302023A0A0E1208
:101141003700000000070404040404041F00000029
:10115100000000000F15151515000000000000002B
:101161000F12121237000000000000000C121212C0
:101171000C000000000000000F1212120E02070006
:10118100000000001C1212121C10380000000000A8
:101191001B06020207000000000000001E020C10E6
:1011A1001E000000000004040E04040418000000E6
:1011B100000000001B1212123C00000000000000A1
:1011C10037120A0C040000000000000015150E0A79
:1011D1000A000000000000001B0A040A1B000000B6
:1011E1000000000037120A0C040403000000000094
:1011F1001E0804041E000000180808080408080856
:10120100081800080808080808080808080808005D
:10121100060404040804040404060002251800005E
:1012210000000000000000000000000000000000BD
:10123100000000000000000000000808080808087D
:101241000800001818000000486C2412000000007B
:10125100000000000000000000002424247F12127E
:10126100127F12121200000000081C2A2A0A0C1810
:1012710028282A2A1C080800000022251515152AED
:10128100585454542200000000000C1212120A7625
:10129100252911916E0000000606040300000000DC
:1012A100000000000000000040201010080808089D
:1012B1000808101020400000020408081010101047
:1012C100101008080402000000000008086B1C1C34
:1012D1006B08080000000000000000080808087FF3
:1012E10008080808000000000000000000000000DD
:1012F100000000060604030000000000000000FEDC
:1013010000000000000000000000000000000000DC
:101311000000000606000000008040402020101060
:10132100080804040202000000001824424242425C
:1013310042424224180000000000080E0808080874
:10134100080808083E00000000003C4242422020FC
:10135100100804427E00000000003C424220182098
:10136100404042221C00000000002030282424229A
:10137100227E20207800000000007E0202021A2650
:10138100404042221C0000000000382402021A26BC
:10139100424242241800000000007E222210100860
:1013A100080808080800000000003C4242422418D6
:1013B100244242423C0000000000182442424264A0
:1013C100584040241C0000000000000000181800D4
:1013D10000000018180000000000000000000800D4
:1013E100000000000808040000004020100804026A
:1013F100040810204000000000000000007F0000F1
:10140100007F0000000000000000020408102040DE
:10141100201008040200000000003C424246402027
:10142100101000181800000000001C225A555555D4
:10143100552D42221C000000000008081814142435
:101441003C224242E700000000001F2222221E220D
:10145100424242221F00000000007C424201010181
:10146100010142221C00000000001F2242424242B0
:10147100424242221F00000000003F4212121E128F
:10148100120242423F00000000003F4212121E12AF
:10149100120202020700000000003C2222010101A9
:1014A100712122221C0000000000E7424242427EDC
:1014B10042424242E700000000003E0808080808D6
:1014C100080808083E00000000007C1010101010F1
:1014D1001010101010110F0000007722120A0E0ACE
:1014E100121222227700000000000702020202020B
:1014F100020202427F000000000077363636362AAB
:101501002A2A2A2A6B0000000000E346464A4A5272
:10151100525262624700000000001C2241414141D9
:10152100414141221C00000000003F424242423E34
:10153100020202020700000000001C224141414159
:10154100414D53321C60000000003F4242423E12B6
:1015510012222242C700000000007C42420204180D
:10156100204042423E00000000007F490808080870
:10157100080808081C0000000000E74242424242FD
:10158100424242423C0000000000E7424222242441
:10159100141418080800000000006B494949495516
:1015A10055362222220000000000E74224241818A8
:1015B10018242442E70000000000772222141408B6
:1015C100080808081C00000000007E2120101008F7
:1015D100040442423F00000078080808080808088F
:1015E1000808080808780000000202040408080836
:1015F10010102020204040001E101010101010105C
:1016010010101010101E00003844000000000000EF
:1016110000000000000000000000000000000000C9
:10162100000000000000FF000608000000000000AC
:1016310000000000000000000000000000003C422B
:1016410078444242FC0000000000030202021A2614
:10165100424242261A000000000000000000384407
:10166100020202443800000000006040404078441B
:1016710042424264D80000000000000000003C42E9
:101681007E0202423C0000000000F08808087E084B
:10169100080808083E0000000000000000007C224D
:1016A100221C023C42423C000000030202023A4674
:1016B10042424242E700000000000C0C00000E080C
:1016C100080808083E000000000030300000382003
:1016D1002020202020221E0000000302020272129C
:1016E1000A1612227700000000000E0808080808F8
:1016F100080808083E0000000000000000007F927A
:1017010092929292B70000000000000000003B4658
:1017110042424242E70000000000000000003C425B
:10172100424242423C0000000000000000001B2633
:10173100424242221E0207000000000000007844DD
:10174100424242447840E000000000000000774C33
:10175100040404041F0000000000000000007C429B
:10176100023C40423E0000000000000008083E0824
:101771000808080830000000000000000000634273
:1017810042424262DC000000000000000000E7422B
:101791002424140808000000000000000000EB49A8
:1017A1004955552222000000000000000000762467
:1017B100181818246E000000000000000000E74225
:1017C10024241418080807000000000000007E22ED
:1017D100100808447E000000C02020202020102096
:1017E1002020202020C00010101010101010101008
:1017F1001010101010101000060808080808100832
:10180100080808080806000C32C2000000000000A9
:0B1811000000000000000000000000CC
:0A921C004215F700004215F5FFFFB0
:10257C009016B5E075F002A49016B4FDACF0E075C1
:10258C00F018A42DFFE5F03CFE9016B6E09016A8CE
:10259C00131313541F7C002FFFEC3EFEE0FBA3E053
:1025AC00FAA3E0F98F828E8312078AFD229016B46B
:1025BC00E075F00CA4FF9016ACE09016AB2FFFE08A
:1025CC0035F0FEEB7C002FFFEC3EFE229015FAE07E
:1025DC0024FFFB9015F9E034FFFA9015FCE024FF82
:1025EC00FE9015FBE034FF9013F2F0A3CEF0E4FD67
:1025FC00FCFFFE229016B6E0FB5407FF7E007480B1
:10260C00A8070822FBE0FEA3E0FFEE3395E0FDFCFB
:10261C00EB2FFFEA3EFEE93DFDE83CFC9014241252
:10262C000BD7901428E0F8A3E0F9A3E0FAA3E0FBA1
:10263C0090141CE0FEA3E0FFEE3395E0FDFCEB2FC5
:10264C00FFEA3EFEE93DFDE83CFC901428120BD756
:10265C00901412E0FEA3E0901410FFE0FCA3E0D372
:10266C009FEC9E229016C5E075F002A49016C4FD56
:10267C00ACF0E075F0209016C6A42DFFE5F03CFE02
:10268C00E0131313541F22E0FCA3E0FD9013BDE0F4
:10269C00FFA3E09013C7CFF0A3EFF09013BFE0FFC0
:1026AC00A3E09013C9CFF0A3EFF022901414E0FC38
:1026BC00A3E0FD901412E0FAA3E0A3FBE0FFA3E07B
:1026CC009013E2CFF0A3EFF090140EE0FFA3E09094
:1026DC0013E4CFF0A3EFF0901410E0FEA3E0FF2280
:1026EC00E0FCA3E02FFFEC3E901410F0A3EFF09071
:1026FC00141EE0FEA3E0901428FBAA06EA3395E032
:10270C00F9F8E0FCA3E0FDA3E0FEA3E0FF229017A4
:10271C0066FEE0FCA3E0FDC3901763E09DFD9017FF
:10272C0062E09CFC901768E0FAA3E0FB22FFE0FC5F
:10273C00A3E0FDD39FEE6480F8EC648098223ECF3A
:10274C0024F4CF34FFFED3EF94EFEE648094802218
:10275C00EEF0A3EFF0A3ECF0A3EDF0229016D4E092
:10276C0075F018A4FF9016CCE02FFF9016CB22909A
:10277C0013C4E075F020A4FF9013BCE02FFF90135E
:10278C00BB22FFEE5CFEEF5D4E229016C4E075F0AE
:10279C0010A4FF9016BCE02FFF9016BB22A4FFEDF7
:1027AC002FFFEC35F0FEE0FD7A002FEA3EC364808B
:1027BC00948022CEA2E713CE13229013C5E075F0BD
:1027CC0004A49013C4FDACF075F080E0A42DFFE5DB
:1027DC00F03CFE229016B475F00CE0A42DFFEC3505
:1027EC00F0FE22EFF0A3EBF0A3EAF0A3E9F02274E1
:1027FC00FFF0A3F0C3E49FFFE49E22901766E0FE77
:10280C00A3E0FFC322ED9FFFEC9EF0A3EFF022FFAD
:10281C00901696E02FFF901695E03ECF240ACF3409
:10282C0000F0A3EFF0901692E024FFF0901691E0E8
:10283C0034FFF022FDE0FAA3E0FBA3E0FFA3E0905D
:10284C0013C7CFF0A3EFF09016F22212A9EE90145A
:10285C0002E0FCA3E02FFFEC3E901412F0A3EFF08B
:10286C00901424E0F8A3E0F9A3E0FAA3E022E0FE40
:10287C00A3E0FFD39400EE6480948022CF34FFFE5B
:10288C00D3EF9453EE6480948122CD34FFFCD3EDCE
:10289C009453EC6480948122901766E0FEA3E0FFD1
:1028AC00901761E02FFF901760E03E22E0FFA3E05D
:1028BC009015F7CFF0A3EFF022901800E0FBA3E007
:1028CC00FAA3E0F9229015F9E4F0A374F0F0A374E4
:1028DC0001F0A37440F0222DFFEC3ECF240690169D
:1028EC0095CF3400F0A3EFF022C39FFFEC9EF0A332
:1028FC00EFF0229016B5E0FD9016AEE02DFD90168F
:10290C00ADE03C229016C5E0FD9016BEE02DFD908A
:10291C0016BDE03C229016D5E0FD9016CEE02DFDC4
:10292C009016CDE03C229013C5E0FD9013BEE02D37
:10293C00FD9013BDE03C22E075F00CA4FF9016ACAA
:10294C00E02FFF9016ABE0229016B6E0FD7C00C3A2
:10295C00940C74809480229016C6E0FD7C00C39485
:10296C001074809480229016D6E0FD7C00C39418DD
:10297C0074809480229013C6E0FD7C00C394207474
:10298C0080948022CFF0A3EFF0A3EAF0A3EBF02227
:10299C00A3E0FCA3E0FD22E9A42BFFE5F03AFEED59
:1029AC0022F583E58229F582E43583F583E493905F
:1029BC0013EAF022E0FCA3E0FD2FFFEC229016D5E9
:1029CC00E075F003A4FDACF09016D4E075F048224D
:1029DC00C39BFFEE9AF0A3EFF0901404E0FEA3E08B
:1029EC00FF22AE83AF82EE9013F2F0A3EFF022E061
:1029FC00FFA3E0CF901412F0A3EFF0229FFFEA9E0A
:102A0C00FEE0FCA3E0FD1207EBE4FCFD22E4F0A3E6
:102A1C00F0A3F0A3F09015F7E0FFA3E022E0FAA3F7
:102A2C00E0FBC3229FEE6480F8E06480982290164D
:102A3C0090E09FFF90168FE09EFEEF78022290149C
:102A4C0008E0FEA3E022C3EE6480948022EEFF90A7
:102A5C0013E0E02FFF9013DFE03400FE22ED9FFF28
:102A6C00EC9EF0A3EFF022901695E0FCA3E0FDC3E2
:102A7C00EC64809480229013E8E0C313FF9013EB76
:102A8C00E0FEC39F22EB9FFFEA9EF0A3EFF02290A3
:102A9C001691E0FEA3E0FF2290140CE0FEA3E0FFF1
:102AAC0022901412E0FEA3E0FFD3EB9FEA9E22E0FB
:102ABC0075F00CA424B4F582E5F0340D22E075F029
:102ACC0010A42428F582E5F0341222FE7C000208C2
:102ADC00522FFFE03400CF222401FFE03400FE220D
:102AEC009013BBE0FAA3E0FB22901763E02DFD905E
:102AFC001762E03C22901761E09FFF901760E09E08
:102B0C00229013EAE0C313F0A3E004F0229016A77E
:102B1C00E0FF9016B4E0C39F229016B7E0FF90162A
:102B2C00C4E0C39F229016C7E0FF9016D4E0C39F69
:102B3C0022E0F9A4FFED2FFFEC35F0FE2275E8FF43
:102B4C0075CBFFE4F5CC22E4F5CB75CCFF2212B6A5
:102B5C008D02B68D12B68DA3E0FF02B68DE0FEA3FA
:102B6C00E0FF90154EE02290168FE0FEA3E0780275
:0B2B7C00229013B7E0FF9013C4E0228A
:0FB57600C293C2918FE800000000D291D29322BD
:10B53400C293C29012B6FEAFE8EF7F00FED290D263
:01B544009373
:01B5450022E3
:05B71200C28302B576C0
:05B6880012B712E4FFFF
:05B68D00D28302B57636
:0AB69200D28312B534EEFF7E0022D1
:05B4AD00E0FEA3E0FF3A
:10B4B200AD07AC06D283ECFF12B576AF0502B576C6
:10B1F600AA07ED54FC75F008A4FDEA54F845F0FEE4
:0FB20600EDFFEB54F8131313541FFDEF4DFF2210
:109CD400D283C293C29012B6FEAFE8129D28129DA1
:109CE40028901837E4F0A3EFF0E0F8E4F0E89018D7
:109CF40037F0D290C29012B6FEAFE8AB07EBFAD2BF
:109D040090901835E0FF7E00EEF0A3EFF0A3E0F8AA
:109D1400E4F0E8A3F0EAFB7A00D293901837A3E0CA
:049D2400FD02B1F695
:109D2800901835E4F0A3EFF0E0F8E4F0E890183587
:0B9D3800F0D290C29012B6FEAFE822FD
:0AB69C0012B712AE04AF0502B68D1E
:10AC31009013BB1227F27E0012B712122B49901308
:10AC4100BE74FFF5F012089E45F0601912B692909D
:10AC510013BBE0FBA3E475F00112089EA9F0FAEF23
:0CAC61001207B780D9122B5375E8FF22B0
:0BB63F00901600E0FEA3E0FF02B7122F
:0BB64A00901602E0FEA3E0FF02B71222
:08A5F6009013B7EEF0A3EFF0A3
:10A5FE001225D812A835E49013B9F0A3F09015F9EE
:10A60E0012280A9013BAE09F9013B9E09E502DE4E1
:10A61E00FBFAD39015FCE09B9015FBE09A400D9051
:10A62E0013B712B4AD0BBB00010A80E69013BAE06B
:0CA63E0004F070C99013B9E004F080C172
:01A64A0022ED
:10B1D500AB07AA068D828C83C006C0071229EED064
:10B1E50007D00612A8359015F7E0FEA3E0FF02B4DC
:01B1F500B2A7
:08AAB600901873EEF0A3EFF01D
:10AABE00D39015FAE09F9015F9E09E400DD39015B6
:10AACE00FCE09D9015FBE09C5004E4FEFF229018E4
:10AADE0073E0FEA3E0FF12B41812B64A122B49120D
:08AAEE009CD4122B5375E8FF04
:01AAF600223D
:10B1B3005391FE4392015391FD4392025393F743FC
:10B1C30094085391F74392085391DF439220122B33
:02B1D300532205
:10B373007F327E0012B546C2957F327E0012B546FB
:09B38300D2957F327E0002B5462E
:105CE60012B1B312B3737F017E0012B7127F321264
:105CF600B5467F287E0012B7127FF612B7127F01D3
:105D0600122B5A1F12B68D7FCF12B6887F8112B61C
:105D16008D7F3012B68D7FED12B7127F6412B68D6D
:105D26007F0312B68D7F1212B68D7F8112B68D7FDC
:105D3600E812B7127F8512B68D7F1012B68D7F7866
:105D460012B68D7FCB12B7127F3912B68D7F2C1209
:105D5600B68DE4FF12B68D7F3412B68D7F0212B671
:105D66008D7FF712B7127F2012B68D7FEA12B688A2
:105D760012B68D7FB012B6887FB412B6887FC01275
:105D8600B7127F2112B68D7FC112B7127F1112B6DC
:105D96008D7FC512B7127F3F12B68D7F3C12B68D2E
:105DA6007FC712B7127FB512B68D7F3612B7127F34
:105DB6004812B68D7F3A12B7127F5512B68D7FB153
:105DC60012B6887F1B12B68D7FB612B7127F0A12E3
:105DD600B68D7FA212B68D7FF212B6887F2612B7D5
:105DE600127F0112B68D7FE012B7127F0F12B68DA9
:105DF6007F2612B68D7F2412B68D7F0B12B68D7F4D
:105E06000E12B68D7F0912B68D7F5412B68D7FA8FD
:105E160012B68D7F4612B68D7F0C12B68D7F171285
:105E2600B68D7F0912B68D7F0F12B68D7F0712B61B
:105E36008DE4FF12B68D7FE112B6887F1912B68DFA
:105E46007F1B12B68D7F0412B68D7F1012B68D7F22
:105E56000712B68D7F2A12B68D7F4712B68D7F390F
:105E660012B68D7F0312B68D7F06122B5A7F301223
:105E7600B68D7F3812B68D7F0F12B68D7F2B12B678
:105E86008812B68D0F12B68D7F3F12B68D7F2A12FD
:105E9600B688122B5A7FEF12B68D7FB712B7127FD4
:105EA6000712B68D7F1112B7127F9612B5467F295B
:105EB6007E0012B71212AEA29015FDEEF0A3EFF01F
:055EC600E4FF02839AD5
:10A835009013ECEEF0A3EFF0901604E0FEA3E0FF1A
:10A8450012B7129013ECE0FF7E00122B60EAFF12A4
:10A85500B68DAF037E0012B68D901606E0FEA3E01E
:10A86500FF12B712ECFF7E0012B68DAF057E001207
:0DA87500B68D9013F2E0FF122B6002B63F8B
:10B41800AB07AA068D828C83C006C0071229EED01E
:06B4280007D00602A83562
:10839A00901604E4F0A3742AF0A3E4F0A3742BF07B
:1083AA00901600E4F0A3742CF0A3E4F0A3742EF06A
:1083BA00EF14603C14606D14700302845824036047
:1083CA00030284931228D1122713BE9307BF4004D5
:1083DA007D0180027D00BE9307BF41047F018002B8
:1083EA007F00EF4D60057D0802848A7D4002848A01
:1083FA009015F91228DBA3E4F0A374F0F012271306
:10840A00BE9307BF40047D0180027D00BE9307BF73
:10841A0041047F0180027F00EF4D60047DF88002F5
:10842A007DF0805C1228D1122713BE9307BF400447
:10843A007D0180027D00BE9307BF41047F01800257
:10844A007F00EF4D60047D9880027DC080329015D8
:10845A00F91228DBA3E4F0A374F0F0122713BE93F9
:10846A0007BF40047D0180027D00BE9307BF41041F
:10847A007F0180027F00EF4D60047D2880027D200D
:0A848A007C007F367E0012B69C22B3
:10AEA20078B67C137D017BFF7A1879187E007F04C7
:10AEB20012074B7B017A1379B69013BEE4F0A374A8
:10AEC20004F07FD312AC319013B8E0FEA3E0FDEDA5
:01AED200FF80
:01AED300225C
:069316009013DC12275C3D
:10931C009013DC12280AEB9FFFEA9ECF24019013D6
:10932C00E81228ED9013DE12280A9013E3E09FFF59
:10933C009013E2E09ECF2401CF34009013EAF0A307
:10934C00EFF09013DEE0FCA3E0FD9013E2E0FFA34E
:10935C00E0CF1229F39013DCE0FEA3E0FF12A83556
:10936C00E49013E6F0A3F09013EA12280A9013E7A6
:10937C00E09F9013E6E09E502DE4FBFAD39013E9A6
:10938C00E09B9013E8E09A400D9013E412B4AD0BFF
:10939C00BB00010A80E69013E7E004F070C990135B
:0C93AC00E6E004F080C11225D802A835CC
:06731B009013C112275C73
:107321009013CD122A199013DFCFF0A3EFF0901331
:10733100C91228B89013C112280A9013D1122A91A8
:107341009013C3122A299013C8E09BFE9013C7E043
:107351009A9013D3F0A3CEF09013C1E0FFA3E09075
:1073610013DB1229909013D112287A400A9013D777
:10737100E4F0A304F08019EF4E70089013D7F0A346
:10738100F0800D9013D71227FB9013D1F0A3EFF0EB
:107391009013D312287A400A9013D9E4F0A304F091
:1073A1008019EF4E70089013D9F0A3F0800D90135F
:1073B100D91227FB9013D3F0A3EFF09013D3E0FE83
:1073C100A3E09013D11227399013D54007ECF0A315
:1073D100EDF08005EEF0A3EFF0E49013CBF0A3F015
:1073E1009013D6E09013D5122AE4D39013CCE090F9
:1073F10013CB122A3040030274959013DBE0FEA3F5
:10740100E0FF12299C12B1D59013D1E0FEA3E0FF59
:107411009013CEE02FF09013CDE03EF09013D3E027
:10742100FEA3E0FF9013D0E02FF09013CFE03EF0E9
:107431009013D5E0FEA3E09013CD122739401A90A6
:1074410013CD1228119013D7E0FEA3E0FF9013DCB7
:10745100E02FF09013DBE03EF09013D5E0FEA3E0C7
:10746100FF9013CF12273A401A9013CF1228119090
:1074710013D9E0FEA3E0FF9013DEE02FF09013DDBF
:10748100E03EF09013CCE004F070069013CBE004E2
:0A749100F00273E19013DF1228B837
:01749B0022CE
:064FEA0090153012275C57
:104FF00090153D122A1990154FCFF0A3EFF09015A0
:10500000391228B890153012280A901541122A91A9
:10501000901532122A29901537E09BFE901536E044
:105020009A901543F0A3CEF0901530E0FFA3E090E6
:10503000154B12299090154112287A400A90154775
:10504000E4F0A304F0801BEF4E7008901547F0A326
:10505000F0800F74FF9015471227FD901541F0A3C3
:10506000EFF090154312287A400A901549E4F0A316
:1050700004F0801BEF4E7008901549F0A3F0800FEC
:1050800074FF9015491227FD901543F0A3EFF0909F
:105090001543E0FEA3E0FF90154112273A90154515
:1050A0004007ECF0A3EDF08005EEF0A3EFF0E49004
:1050B000153BF0A3F0901546E0901545122AE4D375
:1050C00090153CE090153B122A3040030251D790D6
:1050D0001538E0700E90154BE0FEA3E0FF12299CFE
:1050E00012B1D5901538E0640170061251DE1252EB
:1050F00050901538E0640270571251DE12525090F1
:10510000154CE024FFFF90154BE034FFFE90154E48
:10511000E02401FD90154DE03400FC12B1D590154E
:105120004CE02401FF90154BE03400FE1252301287
:10513000523090154DE0FCA3E0FD12B1D590154B17
:10514000122B6924FFFD90154DE034FFFC12B1D500
:10515000901541E0FEA3E0FF90153EE02FF0901582
:105160003DE03EF0901543E0FEA3E0FF901540E0E7
:105170002FF090153FE03EF0901545E0FEA3E0FFD4
:1051800090153D12273A401A90153D122A69901544
:1051900047E0FEA3E0FF90154CE02FF090154BE0A8
:1051A0003EF0901545E0FEA3E0FF90153F12273A30
:1051B000401490153F122A69901549122B692FF05F
:1051C00090154DE03EF090153CE004F0700690150F
:0D51D0003BE004F00250B590154F1228B8D6
:1051DD002290154BE0FEA3E0FFA3E0FCA3E0FD123F
:1051ED00B1D590154CE02401FF90154BE03400FE35
:1051FD0090154DE0FCA3E0FD12B1D590154BE0FEEE
:10520D00A3E0FF90154EE02401FD90154DE0340014
:10521D00FC12B1D590154CE02401FF90154BE034F4
:10522D0000FE2290154EE024FFFD90154DE034FF59
:10523D00FC12B1D590154CE024FFFF90154BE034D6
:10524D00FFFE2290154EE02401FD90154DE0340037
:05525D00FC12B1D52296
:10A036009013BBEAF0A3EBF09013B712275CC007AE
:10A04600A3E0FAA3E0FB9013B912269BD007127384
:10A056001B9013B7E0FAA3E0FBFFAE02C007A31202
:10A066002693D00712731B9013BDE0FCA3E0FD12EC
:10A076002AECA312269B9013B7E0FEA3E0FF12730F
:10A086001B122AECFFAE02C0079013B9122693D01A
:04A096000702731B2F
:10B10000C0079013D8E0FFA3E09013E2CFF0A3EFC5
:10B11000F09013DAE0FFA3E09013E4CFF0A3EFF098
:05B12000D007029316A8
:10B42E00901875EAF0A3EBF012B418901875E0FEC0
:06B43E00A3E0FF02B4B21E
:108FC000901762ECF0A3EDF0901760EEF0A3EFF0D5
:108FD000901764EAF0A3EBF02FFFEE3AFE12299C03
:108FE000122AF512272F129059FE901766E0FCA363
:108FF000E0FD122AF512272F12B42E9017641228C2
:10900000A712271A12905912271A12B42E1228A446
:10901000129038122807122B011290381228A490AF
:10902000176412271D12B42E122807122B01FE906E
:10903000176412271E02B42EFE901764E0FCA3E012
:10904000FD901763E02DFD901762E03CFC901768DF
:10905000E0FAA3E0FB12B42E2212B42E901764E0C3
:10906000FEA3E0FFC3901761E09FFF901760E09EB2
:0190700022DD
:067B6B0090168612275C53
:107B7100E490168FF0A312299425E0FFEA33FEC3A7
:107B810074039F901696F0E49E901695F090168ED1
:107B9100E07003027C29122A9B90168F12273A402B
:107BA10003027C84901693ECF0A3EDF0122A9BD390
:107BB100901694E09FEE6480F8901693E0648098AC
:107BC100502B901688E0FCA3E0FD90168FE0FAA3FD
:107BD100E0FB901693E0FFA3E0CF127C8590169412
:107BE100E004F070C7901693E004F080BF122A738E
:107BF100500F122B73C333CE33CED8F91228E38042
:107C01001390169112280A122A3AC333CE33CED8D2
:107C1100F912281B901690E004F06003027B979004
:107C2100168FE004F0027B97122A9B90168FE0FAE0
:107C3100A3E0FBD39FEE6480F8EA648098504490FF
:107C41001688E0FCA3E0FDEE127C85122A73500F2A
:107C5100122B73C333CE33CED8F91228E38013909D
:107C6100169112280A122A3AC333CE33CED8F9120A
:107C7100281B901690E004F0700690168FE004F037
:037C8100027C2959
:107C840022901766F0A3EFF090168CE0FFA3E0902B
:107C94001768CFF0A3EFF0901686E0FEA3E0FF1282
:037CA4008FC0226C
:10A91A009016E612275C122995C0071228461226BD
:10A92A00AAD00712731B9016ECE0FCA3E0A312282E
:10A93A00401226AA9016EAE0FEA3E0FF12731B90CB
:10A94A0016F0E0FCA3E09016E61228401226AA9020
:0AA95A0016EEE0FEA3E0FF02731BFF
:06AFEE009017FD1227F28E
:10AFF4001208B4FFAEF01228C51208B4FD9017FD74
:10B004001228C8E5F08DF012094F1228C5EE8FF012
:03B0140002094FDF
:0945B50090140212275C122995F2
:1045BE00901424120BE300000000901428120BE359
:1045CE0000000000122A4A901404122666400612B9
:1045DE004802124839122AA4901408122667402E57
:1045EE009018007401F0A37414F0A37408F07B010A
:1045FE007A14790C12AFEE9018007401F0A37414B3
:10460E00F0A37406F07B017A14790A12AFEE122A27
:10461E004AFF9014041226674006124802124839C7
:10462E00122AA4901404E0FCA3E0FD6F7002EC6E5D
:10463E007066901402E0FEA3E0FFEE122A009014C2
:10464E0010EE1226DF901406122A299FEA9E500AB7
:10465E00901410EAF0A3EBF0800B122AAD400690F6
:10466E0014061229FB1226E390140A122A299FEA35
:10467E009E500A901410EAF0A3EBF0800B122AADB4
:10468E00400690140A1229FB901412E0FAA3E0904F
:10469E0014041226C7029316901402E0FAA3E0FB4C
:1046AE00901406E0FEA3E09014181229DC90140872
:1046BE00E0FCA3E090141A1228F590140AE0FEA371
:1046CE00E090141C1229DC90140CE0FCA3E0901472
:1046DE001E1228F5901406E0FEA3E0FF90140AE0E7
:1046EE00FCA3E0C39FFFEC9E901420F0A3EFF0908C
:1046FE001408E0FAA3E0FB90140CE0FCA3E0FDC369
:10470E009BFEEC9A901422F0A3CEF0EBB50510EAC6
:10471E00B5040C901408FFA3E0901416CF800C1271
:10472E002A4A24FFFFEE34FF901416F0A3EFF09008
:10473E001404E0FFA3E0901414CFF0A3EFF0901454
:10474E0016E0FEA3E0FF9014141226675035901465
:10475E001AE0FEA3E090142412270512A9EE90147D
:10476E00021226EC1228579014181226104003122B
