:10872B004102290042042A003241042C0042022754
:02873B0000003C
:10BC750012CA4212CD0712CE45D2AF12CD6B12D0E9
:10BC8500121290787B017A06792F12B1089006334B
:10BC9500A3A3E0FEA3E0FBAA0690062FA3A3E0FE64
:10BCA500A3E02BFFEE3AFE12C4171297F690075544
:10BCB500E06006900755E070FA900229E06010E414
:10BCC500F012CFA7EF600812D02090042CEFF012ED
:10BCD5003CB390042CE0FF60D412BB11E490042C1B
:03BCE500F080CA22
:03000B0002BCE84C
:10BCE800C0E0C0F0C083C082C0D075D000C000C022
:0DBCF80001C002C003C004C005C006C007A3
:10BD0500900228E02401FF900227E03400FE900411
:10BD15002AE0FAA3E0FBFDAC021221BB900227EC5E
:10BD2500F0A3EDF0EB24FFFFEA34FFFE900227E0DD
:0BBD3500B50608A3E0B5070312000EDE
:10BD4000D007D006D005D004D003D002D001D00057
:0BBD5000D0D0D082D083D0F0D0E03201
:0300A30002C6ABE7
:10C6AB00C0E0C0F0C083C082C0D075D000C000C055
:10C6BB0001C002C003C004C005C006C00712AB9D79
:10C6CB009002297401F0D007D006D005D004D00316
:10C6DB00D002D001D000D0D0D082D083D0F0D0E027
:01C6EB00321C
:10BB88004E65772047616D650042657374203A25DC
:10BB980037640053636F72653A2537640025640083
:10BBA80020202020202020202020596F7520576930
:10BBB8006E2021202020202020202020002020204E
:10BBC80020202020202020596F75204C6F7365217C
:10BBD800202020202020202020004A6F696E207419
:10BBE80068652074696C65732C2067657420746FB0
:07BBF8002032303438210037
:10873D004202050800620000000000000000000079
:10874D00000000000000000000000000000000001C
:10875D000000000FF000003878000070380000F0C5
:10876D00380000F0780000F078000000F000000004
:10877D00E0000001C0000003800000070000000EB3
:10878D000000003800000070000000E000000180D3
:10879D000000030180000E0300001C0600003FFED8
:1087AD0000003FFC00000000000000000000000081
:1087BD0000000000000000000000000000000000AC
:1087CD00000000000000000000000000000000009C
:1087DD000000000FE000001C7000003870000070F9
:1087ED0070000060700000E0700000E0700001C0DB
:1087FD00E00001C0E0000380E0000381C0000381C0
:10880D00C0000703C00007038000070380000707AF
:10881D0000000F0700000E0E0000061C00000738B8
:10882D00000003F000000000000000000000000048
:10883D00000000000000000000000000000000002B
:10884D00000000000000000000000000000000001B
:10885D000000000070000000E0000001E0000003D7
:10886D00E0000007C000000FC000001BC000003377
:10887D0080000067800000C7000001870000030F23
:10888D000000060E00000C0E00001FFFC0003FFF91
:10889D00C000001C0000003C000000380000007CFF
:1088AD00000003FF000000000000000000000000B9
:1088BD0000000000000000000000000000000000AB
:1088CD00000000000000000000000000000000009B
:1088DD000000000FF000001C380000383800007058
:1088ED00380000F0380000F0700000F0600000F17A
:1088FD00C000007F8000003E0000007F000001CF1F
:10890D0080000387C0000703C0000E03C0000C03E6
:10891D00C0000C0380000C0700000E0E000007BC09
:10892D00000001E000000000000000000000000059
:09893D0000000000000000000031
:10B28D00E4900649F0FFEFC3940474809480504815
:10B29D00E4FEEEC39404748094805039EF75F00889
:10B2AD00A42407F582E43402F58375F002EE12242E
:10B2BD00E5E0FCA3E04C701AEF25E025E02EFD90B3
:10B2CD000649E0FC04F074392CF582E43406F5836C
:10B2DD00EDF00E80BD0F80AE900649E07002FF22AA
:10B2ED0012C3D9900649E0FD7C0012221074392D4D
:10B2FD00F58274063CF583E0900638F012C3D97CD4
:10B30D00007D0A122210ED64014C7005FE7F048051
:10B31D00047E007F02900638E0FD1313543F75F054
:10B32D0008A42407F582E43402F583ED540375F087
:0BB33D00021224E5EEF0A3EFF07F0108
:01B3480022E2
:10693700E4F9E9FF3395E0FEC3EF9404EE64809435
:10694700804003026BFCE4900639F0A3F0A3F090BB
:106957000638F0900638E0FFFD3395E0FCC3ED9470
:1069670004EC648094804003026BF8EF3395E0FCFD
:10697700ED25E0FBEC33FAE9FF3395E0FEEF780312
:10698700C333CE33CED8F92407F58274023EF5839C
:10699700E5822BF582E5833AF583E0FAA3E0FBED88
:1069A70025E0FDEC33FCE9FF3395E0FEEF7803C308
:1069B70033CE33CED8F9243CF58274063EF583E511
:1069C700822DF582E5833CF583EAF0A3EBF0E9FF3E
:1069D7003395E0FEEF7803C333CE33CED8F92407DF
:1069E700F58274023EF583E5822DF582E5833CF559
:1069F70083E0FEA3E0FF4E7003026BEF90063AE0E0
:106A0700FCA3E0FD4C700B90063AEEF0A3EFF0020A
:106A17006B6E900638E0FF3395E0FEEF25E0FBEE66
:106A270033FAE9FF3395E0FEEF7803C333CE33CE75
:106A3700D8F92407F58274023EF583E5822BF582A7
:106A4700E5833AF583E0FEA3E06D7002EC6E600328
:106A5700026AE990063BE025E0FD90063AE033FC48
:106A6700900639E0FF3395E0FEEF25E0FBEE33FAC1
:106A7700E9FF3395E0FEEF7803C333CE33CED8F981
:106A87002407F58274023EF583E5822BF582E583C0
:106A97003AF583ECF0A3EDF0E490063AF0A3F0E9C1
:106AA700FF3395E0FEEF7803C333CE33CED8F92416
:106AB70007F58274023EF583E5822BF582E5833A7A
:106AC700F583E0FEA3E0FF900205E0FCA3E0FDEF05
:106AD7006D7002EE6C6003026B6890020204F002B4
:106AE7006B6890063AE0FCA3E0FD900639E0FF33BF
:106AF70095E0FEEF25E0FBEE33FAE9FF3395E0FE84
:106B0700EF7803C333CE33CED8F92407F582740266
:106B17003EF583E5822BF582E5833AF583ECF0A316
:106B2700EDF0900638E0FF3395E0FEEF25E0FDEE4F
:106B370033FCE9FF3395E0FEEF7803C333CE33CE62
:106B4700D8F92407F58274023EF583E5822DF58294
:106B5700E5833CF583E0FFA3E090063ACFF0A3EF8F
:106B6700F0900639E004F0900638E0FF3395E0FE38
:106B7700EF25E0FDEE33FCE9FF3395E0FEEF780308
:106B8700C333CE33CED8F92407F58274023EF5839A
:106B9700E5822DF582E5833CF583E4F0A3F09006CA
:106BA7003AE07002A3E0604090063AE0FCA3E0FD03
:106BB700900639E0FF3395E0FEEF25E0FBEE33FA70
:106BC700E9FF3395E0FEEF7803C333CE33CED8F930
:106BD7002407F58274023EF583E5822BF582E5836F
:106BE7003AF583ECF0A3EDF0900638E004F0026983
:106BF7005A09026939E4F9E9FF3395E0FEC3EF94D6
:106C070004EE648094804003026CA5E4900638F09B
:106C1700900638E0FFFD3395E0FCC3ED9404EC6487
:106C27008094805075EF3395E0FCED25E0FBEC3365
:106C3700FAE9FF3395E0FEEF7803C333CE33CED8BE
:106C4700F9243CF58274063EF583E5822BF582E54F
:106C5700833AF583E0FAA3E0FBED25E0FDEC33FC96
:106C6700E9FF3395E0FEEF7803C333CE33CED8F98F
:106C77002407F58274023EF583E5822DF582E583CC
:106C87003CF583E0FEA3E06B7002EE6A60037F01D0
:106C970022900638E004F0026C1709026BFE7F00B1
:016CA70022CA
:106CA800E4F9E9FF3395E0FEC3EF9404EE648094C1
:106CB800804003026F6C9006397403F0E4A3F0A3DC
:106CC800F09006387403F0900638E0FF3395E0C37F
:106CD800648094805003026F68EFFD3395E0FCED0B
:106CE80025E0FBEC33FAE9FF3395E0FEEF7803C3C8
:106CF80033CE33CED8F92407F58274023EF583E506
:106D0800822BF582E5833AF583E0FAA3E0FBED25D3
:106D1800E0FDEC33FCE9FF3395E0FEEF7803C33385
:106D2800CE33CED8F9243CF58274063EF583E5824D
:106D38002DF582E5833CF583EAF0A3EBF0E9FF3318
:106D480095E0FEEF7803C333CE33CED8F92407F5A8
:106D58008274023EF583E5822DF582E5833CF58356
:106D6800E0FEA3E0FF4E7003026F5F90063AE0FC7E
:106D7800A3E0FD4C700B90063AEEF0A3EFF0026E24
:106D8800DE900638E0FF3395E0FEEF25E0FBEE33BA
:106D9800FAE9FF3395E0FEEF7803C333CE33CED85C
:106DA800F92407F58274023EF583E5822BF582E526
:106DB800833AF583E0FEA3E06D7002EC6E60030297
:106DC8006E5990063BE025E0FD90063AE033FC90D2
:106DD8000639E0FF3395E0FEEF25E0FBEE33FAE9F4
:106DE800FF3395E0FEEF7803C333CE33CED8F924D2
:106DF80007F58274023EF583E5822BF582E5833A36
:106E0800F583ECF0A3EDF0E490063AF0A3F0E9FF87
:106E18003395E0FEEF7803C333CE33CED8F9240799
:106E2800F58274023EF583E5822BF582E5833AF517
:106E380083E0FEA3E0FF900205E0FCA3E0FDEF6D18
:106E48007002EE6C6003026ED890020204F0026ECB
:106E5800D890063AE0FCA3E0FD900639E0FF3395B0
:106E6800E0FEEF25E0FBEE33FAE9FF3395E0FEEFB5
:106E78007803C333CE33CED8F92407F58274023EA3
:106E8800F583E5822BF582E5833AF583ECF0A3EDF3
:106E9800F0900638E0FF3395E0FEEF25E0FDEE3395
:106EA800FCE9FF3395E0FEEF7803C333CE33CED849
:106EB800F92407F58274023EF583E5822DF582E513
:106EC800833CF583E0FFA3E090063ACFF0A3EFF010
:106ED800900639E014F0900638E0FF3395E0FEEFB5
:106EE80025E0FDEE33FCE9FF3395E0FEEF7803C3C0
:106EF80033CE33CED8F92407F58274023EF583E504
:106F0800822DF582E5833CF583E4F0A3F090063A00
:106F1800E07002A3E0604090063AE0FCA3E0FD9038
:106F28000639E0FF3395E0FEEF25E0FBEE33FAE9A2
:106F3800FF3395E0FEEF7803C333CE33CED8F92480
:106F480007F58274023EF583E5822BF582E5833AE4
:106F5800F583ECF0A3EDF0900638E014F0026CCF66
:106F680009026CAAE4F9E9FF3395E0FEC3EF940443
:106F7800EE648094804003027015E4900638F09027
:106F88000638E0FFFD3395E0FCC3ED9404EC648023
:106F980094805075EF3395E0FCED25E0FBEC33FA77
:106FA800E9FF3395E0FEEF7803C333CE33CED8F94B
:106FB800243CF58274063EF583E5822BF582E58351
:106FC8003AF583E0FAA3E0FBED25E0FDEC33FCE9BC
:106FD800FF3395E0FEEF7803C333CE33CED8F924E0
:106FE80007F58274023EF583E5822DF582E5833C40
:106FF800F583E0FEA3E06B7002EE6A60037F012276
:0F700800900638E004F0026F8709026F6E7F0078
:017017002256
:10701800E4F9E9FF3395E0FEC3EF9404EE6480944D
:107028008040030272ACE4900639F0A3F0A3F0901C
:107038000638F0900638E0FF3395E0FEC3EF94047D
:10704800EE6480948040030272A8E9FD3395E0FC69
:10705800ED25E0FBEC33FAE03395E0FEEF7803C36F
:1070680033CE33CED8F92407F58274023EF583E592
:10707800822BF582E5833AF583E0FAA3E0FBED2560
:10708800E0FDEC33FC900638E0FF3395E0FEEF7846
:1070980003C333CE33CED8F9FF243CF58274063EC1
:1070A800F583E5822DF582E5833CF583EAF0A3EBD1
:1070B800F074072FF58274023EF583E5822DF58280
:1070C800E5833CF583E0FEA3E0FF4E700302729F68
:1070D80090063AE0FCA3E0FD4C700B90063AEEF007
:1070E800A3EFF0027224E9FF3395E0FEEF25E0FB01
:1070F800EE33FA900638E0FF3395E0FEEF7803C3ED
:1071080033CE33CED8F92407F58274023EF583E5F1
:10711800822BF582E5833AF583E0FEA3E06D7002E9
:10712800EC6E60030271AC90063BE025E0FD900632
:107138003AE033FCE9FF3395E0FEEF25E0FBEE3360
:10714800FA900639E0FF3395E0FEEF7803C333CEBB
:1071580033CED8F9FF2407F58274023EF583E58221
:107168002BF582E5833AF583ECF0A3EDF0E4900685
:107178003AF0A3F074072FF58274023EF583E58296
:107188002BF582E5833AF583E0FEA3E0FF90020544
:10719800E0FCA3E0FDEF6D7002EE6C7079900202E6
:1071A80004F0807290063AE0FCA3E0FDE9FF339515
:1071B800E0FEEF25E0FBEE33FA900639E0FF339569
:1071C800E0FEEF7803C333CE33CED8F92407F58237
:1071D80074023EF583E5822BF582E5833AF583EC6C
:1071E800F0A3EDF0900638E0FF3395E0FEEF78036A
:1071F800C333CE33CED8F92407F58274023EF58323
:10720800E5822BF582E5833AF583E0FFA3E090065B
:107218003ACFF0A3EFF0900639E004F0E9FD33959A
:10722800E0FCED25E0FBEC33FA900638E0FF3395FF
:10723800E0FEEF7803C333CE33CED8F92407F582C6
:1072480074023EF583E5822BF582E5833AF583E403
:10725800F0A3F090063AE07002A3E0603A90063A94
:10726800E0FAA3E0FBED25E0FDEC33FC900639E005
:10727800FF3395E0FEEF7803C333CE33CED8F9243D
:1072880007F58274023EF583E5822DF582E5833C9D
:10729800F583EAF0A3EBF0900638E004F002703BC7
:1072A8000902701AE4900638F0900638E0FF33952A
:1072B800E0FEC3EF9404EE64809480400302735BA5
:1072C800E4F9E9FF3395E0FEC3EF9404EE6480949B
:1072D800805077E9FD3395E0FCED25E0FBEC33FACF
:1072E800900638E0FF3395E0FEEF7803C333CE33E2
:1072F800CED8F9243CF58274063EF583E5822BF559
:1073080082E5833AF583E0FAA3E0FBED25E0FDECA6
:1073180033FC900638E0FF3395E0FEEF7803C33383
:10732800CE33CED8F92407F58274023EF583E58280
:107338002DF582E5833CF583E0FEA3E06B7002EE59
:107348006A60037F0122090272CA900638E004F0DD
:057358000272B17F008C
:01735D00220D
:10735E00E4F9E9FF3395E0FEC3EF9404EE64809404
:10736E008040030275F19006397403F0E4A3F0A394
:10737E00F09006387403F0900638E03395E0C3645D
:10738E0080948050030275EDE9FD3395E0FCED2508
:10739E00E0FBEC33FAE0FF3395E0FEEF7803C33306
:1073AE00CE33CED8F92407F58274023EF583E582FA
:1073BE002BF582E5833AF583E0FAA3E0FBED25E0B9
:1073CE00FDEC33FC900638E0FF3395E0FEEF7803DA
:1073DE00C333CE33CED8F9FF243CF58274063EF586
:1073EE0083E5822DF582E5833CF583EAF0A3EBF08D
:1073FE0074072FF58274023EF583E5822DF582E542
:10740E00833CF583E0FEA3E0FF4E70030275E4902B
:10741E00063AE0FCA3E0FD4C700B90063AEEF0A3AA
:10742E00EFF0027569E9FF3395E0FEEF25E0FBEE24
:10743E0033FA900638E0FF3395E0FEEF7803C3335E
:10744E00CE33CED8F92407F58274023EF583E58259
:10745E002BF582E5833AF583E0FEA3E06D7002EC36
:10746E006E60030274F190063BE025E0FD90063A53
:10747E00E033FCE9FF3395E0FEEF25E0FBEE33FA57
:10748E00900639E0FF3395E0FEEF7803C333CE3339
:10749E00CED8F9FF2407F58274023EF583E5822BE0
:1074AE00F582E5833AF583ECF0A3EDF0E490063A2D
:1074BE00F0A3F074072FF58274023EF583E5822B5C
:1074CE00F582E5833AF583E0FEA3E0FF900205E046
:1074DE00FCA3E0FDEF6D7002EE6C70799002020479
:1074EE00F0807290063AE0FCA3E0FDE9FF3395E0F0
:1074FE00FEEF25E0FBEE33FA900639E0FF3395E020
:10750E00FEEF7803C333CE33CED8F92407F5827459
:10751E00023EF583E5822BF582E5833AF583ECF0A6
:10752E00A3EDF0900638E0FF3395E0FEEF7803C34D
:10753E0033CE33CED8F92407F58274023EF583E5B7
:10754E00822BF582E5833AF583E0FFA3E090063ABD
:10755E00CFF0A3EFF0900639E014F0E9FD3395E09B
:10756E00FCED25E0FBEC33FA900638E0FF3395E0B6
:10757E00FEEF7803C333CE33CED8F92407F58274E9
:10758E00023EF583E5822BF582E5833AF583E4F03E
:10759E00A3F090063AE07002A3E0603A90063AE05B
:1075AE00FAA3E0FBED25E0FDEC33FC900639E0FF9D
:1075BE003395E0FEEF7803C333CE33CED8F92407EC
:1075CE00F58274023EF583E5822DF582E5833CF566
:1075DE0083EAF0A3EBF0900638E014F0027385090D
:1075EE00027360E4900638F0900638E0FF3395E0C1
:1075FE00FEC3EF9404EE6480948040030276A0E410
:10760E00F9E9FF3395E0FEC3EF9404EE64809480B5
:10761E005077E9FD3395E0FCED25E0FBEC33FA9075
:10762E000638E0FF3395E0FEEF7803C333CE33CE5A
:10763E00D8F9243CF58274063EF583E5822BF5825B
:10764E00E5833AF583E0FAA3E0FBED25E0FDEC33AC
:10765E00FC900638E0FF3395E0FEEF7803C333CE9F
:10766E0033CED8F92407F58274023EF583E5822DD8
:10767E00F582E5833CF583E0FEA3E06B7002EE6AD3
:10768E0060037F01220902760F900638E004F002B3
:04769E0075F67F00FE
:0176A20022C5
:10C62300E4FFEFC3940474809480502BE4FEEEC3C4
:10C63300940474809480501CEF75F008A42407F5CB
:10C6430082E43402F58375F002EE1224E5E4F0A3EC
:10C65300F00E80DA0F80CB12B28D12B28D900202EF
:03C663007402F06E
:01C6660022B1
:109B4E00E4900638F0900638E0C394047480948054
:109B5E004003029CD3E4A3F0900639E0FFC39404C3
:109B6E00748094804003029CCAC3EF940374809463
:109B7E00804003029C1C900638E0FF75F008A42478
:109B8E0009F582E43402F583C083C082900639E081
:109B9E00FED082D08375F0021224E5E0FCA3E0FD36
:109BAE00EF75F008A42407F582E43402F58375F00E
:109BBE0002EE1224E5E0FEA3E0FF1221A9EF4E60B3
:109BCE004A900638E0FF75F008A42409F582E434C3
:109BDE0002F583C083C082900639E0FED082D08326
:109BEE0075F0021224E5E0FCA3E0FDEF75F008A489
:109BFE002407F582E43402F58375F002EE1224E5B3
:109C0E00E0FEA3E0B50507EEB504037F0022900643
:109C1E0038E0C39403748094804003029CC1E0FF3B
:109C2E0075F008A4240FF582E43402F583C083C0D6
:109C3E0082900639E0FED082D08375F0021224E5C0
:109C4E00E0FCA3E0FDEF75F008A42407F582E434F0
:109C5E0002F58375F002EE1224E5E0FEA3E0FF129A
:109C6E0021A9EF4E604A900638E0FF75F008A42453
:109C7E000FF582E43402F583C083C082900639E08A
:109C8E00FED082D08375F0021224E5E0FCA3E0FD45
:109C9E00EF75F008A42407F582E43402F58375F01D
:109CAE0002EE1224E5E0FEA3E0B50507EEB50403CF
:109CBE007F0022900639E004F0029B66900638E0A1
:079CCE0004F0029B537F012B
:019CD500226C
:10BD5B00E4900639F0900639E0C394047480948023
:10BD6B005053E4FDEDC3940474809480503F9006CF
:10BD7B0039E0FC7E007410A804088005C333CE3371
:10BD8B00CED8F9A805088005C333CE33CED8F9FF3A
:10BD9B00EC75F008A42407F582E43402F58375F002
:10BDAB0002ED1224E5EEF0A3EFF00D80B79006390B
:10BDBB00E004F080A0E4900203F0A3F0900200F006
:02BDCB00A3F0E3
:01BDCD002253
:1097F6007F187EC612C2E312BD5B7B017A00790038
:1098060090063DE4F0A37438F0A3E4F0A37408F0E6
:10981600A374BCF0A37440F074FFA3F0A3F0A37488
:1098260001F07F04124C1490063F7401F0A37425D6
:10983600F0E4A3F0A3F07BDDFA7D5BFC7F13FE1260
:10984600AE689006717401F0A37424F0A374A6F0B8
:10985600A37451F07BDC7A007D5C7C007F147E0073
:1098660012CB2D90063FE4F0A3744FF0A374FCF0E6
:10987600A37407F07BDC7A007D377C007F967E0040
:1098860012AE68900671E4F0A3744EF0A3747DF0F6
:10989600A314F07BDB7A007D387C007F977E001274
:1098A600CB2D7BFF7ABB798874FF900672F0A3F00C
:1098B600A3747DF0A314F0A3740CF0A37401F07DDF
:1098C6003D7C007FA17E0012B870E4900637F090D0
:1098D6000637E0FFC39405748094805059EF75F005
:1098E60032A4245CFDE435F0FC900649F0A3EDF0CB
:1098F600A37454F0A37458F07BDC7A007F147E00C6
:10990600128E5A900637E075F032A42414FFE4351F
:10991600F0FEAB07FA9006497401F0A37424F0A395
:109926007454F0A37458F07D5C7C00128E5A900635
:1099360037E004F08099E4900637F0900637E0C3EC
:109946009404748094805066E4A3F0900638E0FF97
:10995600C3940474809480504DEF75F032A4FBAA32
:10996600F02417FFE43AFEC006C007900637E075FC
:10997600F032A4FFAEF0245FFDE43EFCEB2443FB93
:10998600E43AFAEF248BFFE43E90063FF0A3EFF0B3
:10999600A3747DF0A314F0D007D00612AE6890062B
:1099A60038E004F080A5900637E004F0808D900240
:0799B600027402F002BD5B28
:10BB1100E4900637F0EF24F2601C24FD603724FD29
:10BB2100601924FE602224FD6038240D70449002C7
:10BB3100027403F0803C12C6238037900202E06455
:10BB410002702F1269378025900202E06402702290
:10BB5100126CA88018900202E0640270151270182D
:10BB6100800B900202E06402700812735E90063747
:10BB7100EFF0900637E0600E12B28D129B4EEF602F
:06BB810005E4900202F051
:01BB8700229B
:103CB300900202E06403700302421B90066E74FFDD
:103CC300F0A374BBF0A37491F0900203E0FFA3E0B0
:103CD300900671CFF0A3EFF07B017A067937125586
:103CE300C47B017A06793790067274FCF0A37407DB
:103CF300F0A374C6F0A37418F0A37410F0E4A3F057
:103D03007D32FC7F14FE12B87090066E74FFF0A330
:103D130074BBF0A3749BF0900200E0FFA3E0900655
:103D230071CFF0A3EFF07B017A0679371255C47B8C
:103D3300017A06793790067274FCF0A37407F0A336
:103D430074C6F0A37418F0A37410F0E4A3F07D44D8
:103D5300FC7F14FE12B870E4900669F0900669E0E7
:103D6300C394047480948040030241C6E4A3F0909A
:103D7300066AE0FFC394047480948040030241BD4B
:103D8300900669E075F008A42407F582E43402F58F
:103D93008375F002EF1224E5E0FEA3E0FF4E70030B
:103DA30002416BEF8EF01225373DDC00023E1C0012
:103DB300043E6000083EA400103EE800203F2B00B4
:103DC300403F6E00803FB201003FF60200403A04DC
:103DD30000407D0800000040C390066AE075F032A1
:103DE300A4FBAAF02418FFE43AFEC006C00790061D
:103DF30069E075F032A4FFAEF02460FDE43EFCEB15
:103E03002442FBE43AFAEF248AFFE43E900671F081
:103E1300A3EFF0A37484023F2490066AE075F032A6
:103E2300A4FBAAF02418FFE43AFEC006C0079006DC
:103E330069E075F032A4FFAEF02460FDE43EFCEBD4
:103E43002442FBE43AFAEF248AFFE43E900671F041
:103E5300A3EFF0A374FCF0A374070240BB90066ABF
:103E6300E075F032A4FBAAF02418FFE43AFEC00682
:103E7300C007900669E075F032A4FFAEF02460FD40
:103E8300E43EFCEB2442FBE43AFAEF248AFFE43EEF
:103E9300900671F0A3EFF0A37407F0A374E002405F
:103EA300BB90066AE075F032A4FBAAF02418FFE485
:103EB3003AFEC006C007900669E075F032A4FFAE73
:103EC300F02460FDE43EFCEB2442FBE43AFAEF24E9
:103ED3008AFFE43E900671F0A3EFF0A37401F0A310
:103EE30074CF0240BB90066AE075F032A4FBAAF0DF
:103EF3002418FFE43AFEC006C007900669E075F097
:103F030032A4FFAEF02460FDE43EFCEB2442FBE46C
:103F13003AFAEF248AFFE43E900671F0A3EFF0A390
:103F2300E4F0A3741F0240BB90066AE075F032A46C
:103F3300FBAAF02418FFE43AFEC006C00790066906
:103F4300E075F032A4FFAEF02460FDE43EFCEB2408
:103F530042FBE43AFAEF248AFFE43E900671F0A3B1
:103F6300EFF0A374F8F0A3E40240BB90066AE07597
:103F7300F032A4FBAAF02418FFE43AFEC006C007FF
:103F8300900669E075F032A4FFAEF02460FDE43ED4
:103F9300FCEB2442FBE43AFAEF248AFFE43E90066A
:103FA30071F0A3EFF0A374F8F0A3741F0240BB9069
:103FB300066AE075F032A4FBAAF02418FFE43AFE87
:103FC300C006C007900669E075F032A4FFAEF02486
:103FD30060FDE43EFCEB2442FBE43AFAEF248AFF63
:103FE300E43E900671F0A3EFF0A374BCF0A3744019
:103FF3000240BB90066AE075F032A4FBAAF02418D5
:10400300FFE43AFEC006C007900669E075F032A4EB
:10401300FFAEF02460FDE43EFCEB2442FBE43AFAFD
:10402300EF248AFFE43E900671F0A3EFF0A3742B14
:10403300F0A374120240BB90066AE075F032A4FB51
:10404300AAF02418FFE43AFEC006C007900669E010
:1040530075F032A4FFAEF02460FDE43EFCEB244295
:10406300FBE43AFAEF248AFFE43E900671F0A3EFF3
:10407300F0A37484F0A37430803E90066AE075F078
:1040830032A4FBAAF02418FFE43AFEC006C007904E
:104093000669E075F032A4FFAEF02460FDE43EFC57
:1040A300EB2442FBE43AFAEF248AFFE43E900671E4
:1040B300F0A3EFF0E4A3F0A3F0D007D00612CB2DCA
:1040C30090066E74FFF0A374BBF0A374A5F0900682
:1040D30069E075F008A42407F582E43402F583C08F
:1040E30083C08290066AE0D082D08375F0021224E6
:1040F300E5E0FFA3E0900671CFF0A3EFF07B017A38
:104103000679371255C47B017A06793712CE1DAD75
:104113000790066AE075F032A4242DFBE435F0FA2B
:10412300ED75F004A4FFC3EB9FFFEA95F0FEC00614
:10413300C007900669E075F032A4246DFDE435F004
:10414300FC7B017A06793774FF900672F0A3F0A323
:1041530074A6F0A37451F0A37410F0A37401F0D00B
:1041630007D00612B870804990066AE075F032A451
:10417300FBAAF02418FFE43AFEC006C007900669C4
:10418300E075F032A4FFAEF02460FDE43EFCEB24C6
:1041930042FBE43AFAEF248AFFE43E900671F0A36F
:1041A300EFF0A374A6F0A37451F0D007D00612CB9E
:1041B3002D90066AE004F0023D72900669E004F077
:1041C300023D5F900202E0640170107BFF7ABB79CD
:1041D300A890067274F8F0A3E48023900202E07BB7
:1041E300FF700E7ABB79C590067274F8F0A3E48071
:1041F3000D7ABB79E29006727484F0A37430F0A355
:1042030074C6F0A37418F0A3740CF0E4A3F07D2C2F
:084213007C017F24FE12B8704B
:01421B002280
:04D026007F03DFFEA7
:01D02A0022E3
:04D02B007F12DFFE93
:01D02F0022DE
:04D030007F26DFFE7A
:01D0340022D9
:04D035007FC6DFFED5
:01D0390022D4
:09CFB200007F027E5ADEFEDFFC66
:01CFBB002253
:09CFBC00007F207E28DEFEDFFC70
:01CFC5002249
:10CEA000AD07AC0612CFBCED1D70011C144C70F424
:01CEB000225F
:0789460044095E016E3600DA
:10CA4200E4F593F594F591F592F595F596F5B1F532
:10CA5200B2F5B3F5B4F5C9F5CAF5CBF5CCF5E1F508
:0DCA6200E212CFF712CD3912CBBEC2C122B5
:10CD0700C28CD2A95389FC5389FB538FFE438E8073
:09CD1700758CA2758A40D28C22B1
:10CD2000C28ED2AB5389CF5389BF538FFD438E4000
:09CD3000758DD1758B20D28E2285
:10CDB300538EE343AF04538FFB438E0475D6E8755C
:06CDC300D790438E102200
:10CE320053D1F043AF2043D10275D4ED75D54043B1
:03CE4200D10822F2
:10CE450053D10F43AF4043D12075D2F675D3A043DC
:03CE5500D1802267
:10CE58000102040810204080000000FFFF000000CD
:02CE68000000C8
:10CD390053B3EF43B41053B3F743B40853B3FB43AE
:09CD4900B404C2C4C2C3C2C22278
:0DCF5200C2C312D030D2C312D030C2C322ED
:05C6EC00900640EFF094
:10C6F100E4A3F0900641E0C3940874809480502A2A
:10C70100900640E0548064807004D2C48002C2C4A8
:10C7110012D030C2C212D030D2C212D030900640F4
:0AC72100E025E0F0A3E004F080C979
:01C72B0022EB
:10C33800900639EBF0A3EAF0A3E9F0A3ECF0A3ED43
:01C34800F004
:10C34900E4A3F0A3F090063CE0FEA3E0FFA3E0FC29
:10C35900A3E0FDC39FEC9E5026900639E0FBA3E0C5
:10C36900FAA3E0F98D828C83122148FF12C6EC9062
:10C37900063FE004F070CE90063EE004F080C6026D
:02C38900CF5291
:10CBBE0078377C067D017BFF7ACE79607E007F021E
:10CBCE001221097B017A0679377D027C0002C33877
:10CBDE0078907C097D017BFF7ACE79627E007F02A0
:10CBEE001221097B017A0979907D027C0002C338FB
:10CBFE0078927C097D017BFF7ACE79647E007F027C
:10CC0E001221097B017A0979927D027C0002C338D8
:05C4260090098AEFF00F
:10C42B00788B7C097D017BFF7ACE79667E007F025B
:10C43B0012210990098AE0FFD394077480948040FD
:10C44B000BEF90CE509390098BF0800C90098AE003
:10C45B0090CE589390098CF07B017A09798B7D02F1
:05C46B007C0002C33853
:10CC1E0078947C097D017BFF7ACE79687E007F0255
:10CC2E001221097B017A0979947D027C0002C338B6
:08894D00410996FE4109970063
:09CFEE0053B3FE43B401C2C0229A
:09CFF70053B3FE43B401D2C02281
:10C23500900996E0FF7E00647F7011A3E070047D95
:10C245000180027D00900997EDF08019EF64FE4EA4
:10C255007013900997E0600D70047F0180027F00E4
:10C26500900997EFF0900996E0FFF5E8A3E07008D4
:10C27500EF25E04401FF8009900996E0C31344804F
:06C28500FF900996EFF0A6
:01C28B002290
:0300A00002CBFE92
:0EB6A1009008F0EFF0A3EBF0A3EAF0A3E9F0BD
:10B6AF00C3740F9F9008F7F0AE029008F4A3E0FA6E
:10B6BF00A3E0C399FFEA9EFE9008F0E0FDC3740873
:10B6CF009DFDE49400FCD3EF9DEC6480F8EE648064
:10B6DF009850599008F4E0FBA3E0FAA3E0F9C003F7
:10B6EF00C002C0019008F1A3E0FAA3E0F9C3D08231
:10B6FF00D083D0E0E99582EA958350309008F7E047
:10B70F00FF12C4269008F1E0FBA3E0FAA3E0F912C0
:10B71F00212FF5E812CFBC12CC1E9008F7E014F0E1
:0CB72F009008F2E475F00112224680A799
:01B73B0022EB
:0EBDCE00900908EBF0A3EAF0A3E9F0A3EDF072
:10BDDC0090090D740FF090090DE0FFC39408748066
:10BDEC009480405012C42690090DE0FFC3740F9F3D
:10BDFC00FFE49400FE90090CE07C002FFFEC3EFE6B
:10BE0C0090090BE0FD1221BB90090EEDF090090892
:10BE1C00E0FBA3E0FAA3E0F990090EE0F58275834C
:10BE2C0000122148F5E812CFBC12CC1E90090DE08F
:04BE3C0014F080A2DC
:01BE400022DF
:108955005207A5C0F9A4B0999282F880908883C681
:05896500A1868EBFFF9A
:10CC7C0012CBDEE4F5CB75CCFF75E8FF53937F4305
:0DCC8C009480D2875395FD439602D2A122D9
:06962C009008691224A859
:1096320090086D7406F0900869E0FCEC33900875B0
:1096420040057411F0801A7410F0900869E0FCA3D0
:10965200E0FDA3E0FEA3E0FF12243E90086912247D
:10966200A8E47B0AFAF9F8900869E0FCA3E0FDA3FC
:10967200E0FEA3E0FF12C66790086EEBF0E47B0AFF
:10968200FAF9F8900869E0FCA3E0FDA3E0FEA3E08C
:10969200FF12C667E47B0AFAF9F812C66790086FF0
:1096A200EBF0E47B64FAF9F8900869E0FCA3E0FDD2
:1096B200A3E0FEA3E0FF12C667E47B0AFAF9F81200
:1096C200C667900870EBF0E47BE87A03F9F890083B
:1096D20069E0FCA3E0FDA3E0FEA3E0FF12C667E49D
:1096E2007B0AFAF9F812C667900871EBF0E47B1076
:1096F2007A27F9F8900869E0FCA3E0FDA3E0FEA355
:10970200E0FF12C667E47B0AFAF9F812C66790080E
:1097120072EBF07BA07A8679017800900869E0FC10
:10972200A3E0FDA3E0FEA3E0FF12C667E47B0AFA12
:10973200F9F812C667900873EBF07B407A42790F12
:109742007800900869E0FCA3E0FDA3E0FEA3E0FF3F
:1097520012C667E47B0AFAF9F812C667900874EB3E
:10976200F090086DE0FF3395E0FE746E2FF5827481
:10977200083EF583E0701A90086DE014F0EF33951F
:10978200E0FE746E2FF58274083EF5837411F0804A
:10979200D0900869E0FCA3E0FDA3E0FEA3E0FFECAB
:1097A2004D4E4F700490086EF090086D7407F09063
:1097B200086DE0FF3395E0C364809480403512C4A5
:1097C2002690086DE0FF3395E0FE746E2FF58274EB
:1097D200083EF583E024A5F582E43407F583E0F53D
:1097E200E87F027E0012CEA012CC1E90086DE0141B
:0397F200F080BC48
:0197F5002251
:0BBF2200900925EBF0A3EAF0A3E9F082
:10BF2D00EFC39408748094805057C374089FFEA388
:10BF3D00E0FDD39E504BC374089FC39DA3F09009A1
:10BF4D0028E0FF14F0EF6039A3E0FF12C42690093A
:10BF5D0025E0FBA3E0FAA3E0F9A3E0F582758300E9
:10BF6D0012214824A5F582E43407F583E0F5E87F36
:10BF7D00027E0012CEA012CC1E900929E004F080A2
:01BF8D00BDF6
:01BF8E002290
:10CEB1000001020003000000040000000000000067
:10896A00510757002B0908072D0605047803020151
:04897A002F23002A7D
:10000E00900769E0FC75F8F07E3CDEFEE5F854F0F2
:10001E00900769F075F80F7E3CDEFE900769E0FEF2
:10002E00E5F8540FFDEE4DF0E0F4F06C70609007C3
:10003E0055E0FC900769E0900755F0604CC2D5EC96
:10004E007004D2D5801B900755E0B5041490076854
:10005E00E004F0C394147480948040057412F0D2BE
:10006E00D530D52A900755E0FFC4540F90CEB193EA
:10007E00FC601BEF540F93FF6014EC1425E025E099
:10008E00FEEF2E900756F08005E4900768F075F8A5
:01009E00FF62
:01009F00223E
:03D03F0025640065
:10CDC90075E8FFC293D290C291C291D291E5E82051
:05CDD900E7FBAFE822BA
:10C7AC009009AAEFF0C291D293C290F5E87F017E76
:10C7BC000012CEA0D2917F057E0012CEA0C2919025
:10C7CC0009AAE0C454F0F5E87F017E0012CEA0D295
:0BC7DC00917F057E0012CEA0C29122CA
:10C7E7009009ABEFF0C291C293C290F5E87F017E4A
:10C7F7000012CEA0D2917F057E0012CEA0C29190EA
:10C8070009ABE0C454F0F5E87F017E0012CEA0D258
:0BC81700917F057E0012CEA0C291228E
:0DCF5F00D293D290C291C291D291AFE8223C
:10C17E00E4F5E85391F74392085391FE439201532D
:10C18E0091FD439202F5CB75CCFF7F3812C7E77F46
:10C19E00057E0012CEA07F3812C7E77F057E001203
:10C1AE00CEA07F3812C7E77F057E0012CEA07F3269
:10C1BE0012C7E77F2812C7E77F0C12C7E77F061268
:0CC1CE00C7E77F0112C7E77F8002C7E7C8
:0CCF79007F0112C7E77F027E0002CEA0FD
:10CB9B009009ACEBF0ED5401FDEF540FFFED600489
:10CBAB00EF4440FFEF4480FF12C7E79009ACE0FF72
:03CBBB0002C7AC02
:10BFFA0090090FEFF0A3EDF0A3EBF0A3EAF0A3E9A9
:01C00A00F045
:10C00B0012CE1D900914EFF0900910E05401F0903E
:10C01B00090FE0540FF0E4900915F0900914E0FFBC
:10C02B00A3E0FEC39F502B90090FE0FFA3E0FDA3FD
:10C03B00E0FBA3E0FAA3E0F98E827583001221489E
:10C04B00FB12CB9B90090FE004F0900915E004F074
:02C05B0080C99A
:01C05D0022C0
:0CC4700090076AEFF0A3EDF0AF03AE02FE
:10C47C007B017A07796C90077BEBF0A3EAF0A3E9D8
:10C48C00F090066E74FFF0A374D0F0A3743FF0A389
:10C49C00EEF0A3EFF01255C490076AE0FFA3E0FDA5
:0EC4AC0090077BE0FBA3E0FAA3E0F902BFFAE1
:0CCF850090FE82E030E6F9E054BFF0229C
:10CCD10043912043922043911043921043BA809094
:0BCCE100FE8074E0F090FE82E4F02280
:09D0000090FE817401F002CF855D
:09D0090090FE817406F002CF854F
:0ECB770012D00012CF1A12CB85AF0512CF1AC2
:10CB850090FE817403F012CF8590FE82E030E103C0
:06CB95007F01227F002257
:0ECF0C0090FE82E4F090FE817405F002CF8565
:0FCEC10090FE827401F090FE817405F002CF851F
:0ECF1A0090FE86EFF090FE817402F002CF854B
:0FCED00090FE817404F012CF8590FE87E0FF2260
:10C8D000AE0712CB7712D000EE4401FF12CF1A122E
:10C8E000CB8512CED0EF122175740129F9E43AFA02
:10C8F00090092FE06401600312CF0C90092FE0141F
:09C90000F070DF12CEC102D00973
:10C97800900932EBF0A3EAF0A3E9F012CB77900923
:10C9880032E0FBA3E475F00112225CA9F0FA12214F
:10C998002FFF12CF1A12CB85900935E014F070DE04
:03C9A80002D009B1
:10421C0025640000000000003E5B4F5B3E3E6B4F90
:10422C006B3E1C3E7C3E1C183C7E3C181C577D573C
:10423C001C1C5E7F5E1C00183C1800FFE7C3E7FFE8
:10424C000018241800FFE7DBE7FF30483A060E267B
:10425C0029792926407F050507407F05253F5A3CD3
:10426C00E73C5A7F3E1C1C08081C1C3E7F14227F16
:10427C0022145F5F005F5F06097F017F00668995EE
:10428C006A606060606094A2FFA29408047E0408D7
:10429C0010207E201008082A1C08081C2A08081E5A
:1042AC00101010100C1E0C1E0C30383E3830060E40
:1042BC003E0E06000000000000005F00000007003A
:1042CC000700147F147F14242A7F2A1223130864F6
:1042DC006236495620500008070300001C2241009A
:1042EC000041221C002A1C7F1C2A08083E080800DA
:1042FC00807030000808080808000060600020107A
:10430C000804023E5149453E00427F400072494933
:10431C0049462141494D331814127F102745454514
:10432C00393C4A4949314121110907364949493635
:10433C00464949291E0000140000004034000000CA
:10434C0008142241141414141400412214080201FC
:10435C005909063E415D594E7C1211127C7F494928
:10436C0049363E414141227F4141413E7F494949C5
:10437C00417F090909013E414151737F0808087FBB
:10438C0000417F41002040413F017F081422417FC2
:10439C00404040407F021C027F7F0408107F3E415A
:1043AC0041413E7F090909063E4151215E7F0919B1
:1043BC002946264949493203017F01033F404040C9
:1043CC003F1F2040201F3F4038403F6314081463B8
:1043DC0003047804036159494D43007F4141410274
:1043EC0004081020004141417F04020102044040B6
:1043FC00404040000307080020545478407F284474
:10440C0044383844444428384444287F385454545D
:10441C001800087E090218A4A49C787F080404786C
:10442C0000447D40002040403D007F1028440000A7
:10443C00417F40007C047804787C0804047838447C
:10444C00444438FC1824241818242418FC7C080430
:10445C000408485454542404043F44243C40402051
:10446C007C1C2040201C3C4030403C4428102844FC
:10447C004C9090907C4464544C44000836410000AD
:10448C0000770000004136080002010204023C26BD
:10449C0023263C1EA1A161123A4040207A38545484
:1044AC005559215555794121545478412155547809
:1044BC004020545579400C1E52721239555555599D
:1044CC00395454545939555454580000457C4100C2
:1044DC0002457D420001457C40F0292429F0F0285A
:1044EC002528F07C545545002054547C547C0A09F2
:1044FC007F4932494949323248484832324A484861
:10450C00303A4141217A3A42402078009DA0A07D6A
:10451C0039444444393D4040403D3C24FF24244828
:10452C007E4943662B2FFC2F2BFF0929F620C088D0
:10453C007E090320545479410000447D41304848A1
:10454C004A32384040227A007A0A0A727D0D1931BB
:10455C007D2629292F28262929292630484D402017
:10456C00380808080808080808382F10C8ACBA2FF3
:10457C00102834FA00007B000008142A142222149C
:10458C002A1408AA005500AAAA55AA55AA00000088
:10459C00FF00101010FF00141414FF001010FF0087
:1045AC00FF1010F010F0141414FC001414F700FF9A
:1045BC000000FF00FF1414F404FC141417101F1057
:1045CC00101F101F1414141F00101010F000000006
:1045DC00001F101010101F10101010F01000000011
:1045EC00FF101010101010101010FF10000000FF22
:1045FC00140000FF00FF00001F10170000FC04F463
:10460C0014141710171414F404F40000FF00F7141A
:10461C00141414141414F700F714141417141010A1
:10462C001F101F141414F4141010F010F000001FBD
:10463C00101F0000001F14000000FC140000F010FC
:10464C00F01010FF10FF141414FF141010101F00A2
:10465C00000000F010FFFFFFFFFFF0F0F0F0F0FFA4
:10466C00FFFF0000000000FFFF0F0F0F0F0F38447B
:10467C004438447C2A2A3E147E02020606027E023C
:10468C007E0263554941633844443C04407E201EFD
:10469C002006027E020299A5E7A5991C2A492A1C2C
:1046AC004C7201724C304A4D4D303048784830BC19
:1046BC00625A463D3E494949007E0101017E2A2A43
:1046CC002A2A2A44445F444440514A444040444AC4
:1046DC0051400000FF0103E080FF000008086B6BF5
:1046EC00083612362436060F090F0600001818007B
:1046FC0000001010003040FF0101001F01011E00DE
:0E470C00191D1712003C3C3C3C000000000050
:10CA96009009ADEFF012D0007F7812CF1A12CB8535
:10CAA600E4FF12CF1A12CB859009ADE0FF12CF1A20
:06CAB60012CB8502D0093D
:10CABC009009AEEFF012D0007F7812CF1A12CB850E
:10CACC007F4012CF1A12CB859009AEE0FF12CF1A1D
:06CADC0012CB8502D00917
:05CCEC0024B0FFE4FD8F
:10CCF1009009AFEFF0ED6005E0FF02CABC9009AF0B
:06CD0100E0FF12CA9622B9
:10CAE2009009B0EFF0ED12CCEC9009B0E054F0C434
:10CAF200540F4410FFE4FD12CCF19009B0E0540F42
:06CB0200FFE4FD02CCF18E
:10CDDE00E4FD7F8D12CCF1E4FD7F1412CCF1E4FD65
:05CDEE007FAF02CCF153
:10CDF300E4FD7F8D12CCF1E4FD7F1012CCF1E4FD54
:05CE03007FAE02CCF13E
:10C82200E4FFEFC3940474809480502DE4FEEEC3C1
:10C83200948074809480501E75F004EEA4242DF52B
:10C8420082E5F03404F583E5822FF582E43583F541
:09C8520083E4F00E80D80F80C9C8
:01C85B0022BA
:10BF8F00E4900999F0900999E0FFC39404748094A8
:10BF9F00805057EF12CCECE4FDFF12CCF1E4FD7FA3
:10BFAF001012CCF1E4900998F0900998E0FFC39437
:10BFBF008074809480502BA3E0FE75F004EFA424CE
:10BFCF002DF582E5F03404F583E5822EF582E43514
:10BFDF0083F583E0FF7D0112CCF1900998E004F026
:0ABFEF0080C7900999E004F0809BE0
:01BFF9002225
:10C85C00E4FEEEC3940474809480502DE4FDEDC38B
:10C86C00948074809480501E75F004EDA4242DF5F2
:10C87C0082E5F03404F583E5822EF582E43583F508
:09C88C0083EFF00D80D80E80C985
:01C895002280
:10B5530090087AA3E0FF90087EE075F00CA42F2BEF
:0FB56300FF90087CA3E090087FFEE02EFD7B01A7
:10B57200EFD3948074809480400302B5FDED942053
:10B58200748094805075EB6037ED131313541FFED3
:10B5920075F004EFA4242DF582E5F03404F583E57B
:10B5A200822EF582E43583F583C083C082E0FFED0D
:10B5B2005407FEF87401088002C333D8FC4F80366A
:10B5C200ED131313541FFE75F004EFA4242DF5821E
:10B5D200E5F03404F583E5822EF582E43583F583C4
:10B5E200C083C082E0FFED5407FEF87401088002B8
:0CB5F200C333D8FCF45FD082D083F02279
:0DAC9100900963EDF0A3EBF0900962EFF085
:10AC9E003395E0C3648094805077E4FCECC3940554
:10ACAE0074809480400302AD7C900964E075F005D9
:10ACBE00A4241FF582E5F03442F583E5822CF5825B
:10ACCE00E43583F583E493900965F0E4F9E9FF7EBA
:10ACDE0000C39408748094805034900962E0FDFBA8
:10ACEE003395E0FAEB2FEE3AC364809480401590D2
:10ACFE000965E030E00EED2CFF900963E029FD7B45
:10AD0E000112B572900965E0C313F00980BF0C8083
:10AD1E008BE4FCECC39405748094805051900964CC
:10AD2E00E075F005A4241FF582E5F03442F583E5C5
:10AD3E00822CF582E43583F583E493900965F0E483
:10AD4E00F9E9C39408748094805020900965E0302E
:10AD5E00E00F900962E02CFFA3E029FD7B0112B504
:0EAD6E0072900965E0C313F00980D60C80A531
:01AD7C0022B4
:10C0C200900936EFF0A3EDF0A3EBF0A3EAF0A3E9B9
:01C0D200F07D
:10C0D300E4A3F0900938E0FBA3E0FAA3E0F9A3E0BE
:10C0E300F582758300122148FB6032900936E0FF28
:10C0F300A3E0FD12AC91900936E02408F0E0FF3391
:10C1030095E0FED3EF9478EE648094804007E4F0EA
:0DC11300A3E02402F090093BE004F080B6A8
:01C1200022FC
:0CC896009007EDEFF0A3EDF0AF03AE0251
:10C8A20090066E74FFF0A37442F0A3741CF0A3EE22
:10C8B200F0A3EFF07B017A0779EF1255C49007EDF0
:0EC8C200E0FFA3E0FD7B017A0779EF02C0C220
:0E89AE00900876EFF0A3EBF0A3EAF0A3E9F057
:1089BC00A3E0FEA3E0FFC3EE648094804003028B2F
:1089CC000BC3E49FFFE49EFE7C007D0C12221090F2
:1089DC00087EEFF0900876E0FF90087EE0C39F40A1
:1089EC0003028C13E4A3F090087FE0C3940C748012
:1089FC0094804003028B02E4A3F0900880E0FD7C9D
:108A0C0000C3940C748094804003028AF990087E11
:108A1C00E075F00CA42DFFEC35F0FE90087AE0FC2C
:108A2C00A3E0FD2FFFEC3ECF24F4CF34FFFED3EFB9
:108A3C00947FEE648094804003028C1390087FE056
:108A4C00FF90087DE02FFF90087CE03400CF24F4E9
:108A5C00CF34FFFED3EF943FEE648094804003024A
:108A6C008C1390087EE0F975F00CA4FFED2FFFEC51
:108A7C0035F0FE900880E0FD7A002FEA3EC364805A
:108A8C00948050028001C3405B90087FE075F00237
:108A9C00A4FBAAF0E975F018A42BFFE5F03AFEED63
:108AAC00131313541F7C002FFFEC3EFE900877E04D
:108ABC00FBA3E0FAA3E0F98F828E83122148FD908C
:108ACC000880E0FB5407FF7E007480A8070880062E
:108ADC00CEA2E713CE13D8F8FFEE5CFEEF5D4E602E
:108AEC000312B553900880E004F0028A0690087FC8
:108AFC00E004F00289F390087EE004F00289E0E4DF
:108B0C0090087EF0900876E0FF90087EE0C39F40CE
:108B1C0003028C13E4A3F090087FE0C3940C7480E0
:108B2C0094804003028C0AE4A3F0900880E0FD7C62
:108B3C0000C3940C748094804003028C0190087ED6
:108B4C00E075F00CA42DFFEC35F0FE90087BE02FC7
:108B5C00FF90087AE03ECF24F4CF34FFFED3EF949D
:108B6C007FEE648094804003028C1390087FE0FFBA
:108B7C00FD90087DE02DFD90087CE03CCD24F4CDEB
:108B8C0034FFFCD3ED943FEC648094805079EF7506
:108B9C00F002A4FDACF090087EE075F018A42DFF57
:108BAC00E5F03CFE900880E0131313541F7C002F5B
:108BBC00FFEC3EFE900877E0FBA3E0FAA3E0F98F10
:108BCC00828E83122148FD900880E0FB5407FF7EC3
:108BDC00007480A807088006CEA2E713CE13D8F83D
:108BEC00FFEE5CFEEF5D4E600312B553900880E023
:108BFC0004F0028B3690087FE004F0028B2390087F
:078C0C007EE004F0028B1072
:018C1300223E
:0E849100900881EFF0A3EBF0A3EAF0A3E9F06E
:10849F00A3E0FEA3E0FFC3EE648094804003028656
:1084AF0006C3E49FFFE49EFE7C007D101222109015
:1084BF000889EFF0900881E0FF900889E0C39F40A2
:1084CF000302872AE4A3F090088AE0C39410748013
:1084DF00948040030285FDE4A3F090088BE0FD7CBF
:1084EF0000C394107480948040030285F49008892F
:1084FF00E075F010A42DFFEC35F0FE900885E0FC40
:10850F00A3E0FD2FFFEC3ECF24F0CF34FFFED3EFDF
:10851F00947FEE64809480400302872A90088AE05B
:10852F00FF900888E02FFF900887E03400CF24F0F9
:10853F00CF34FFFED3EF943FEE648094804003026C
:10854F00872A900889E0F975F010A4FFED2FFFEC52
:10855F0035F0FE90088BE0FD7A002FEA3EC3648071
:10856F00948050028001C3407390088AE075F00236
:10857F00A4FBAAF0E975F020A42BFFE5F03AFEED7D
:10858F00131313541F7C002FFFEC3EFE900882E064
:10859F00FBA3E0FAA3E0F98F828E83122148FD90AE
:1085AF00088BE0FB5407FF7E007480A80708800645
:1085BF00CEA2E713CE13D8F8FFEE5CFEEF5D4E6050
:1085CF001B900885A3E0FF900889E0C454F02F2B7F
:1085DF00FF900887A3E090088A12B56C90088BE093
:1085EF0004F00284E990088AE004F00284D690082F
:1085FF0089E004F00284C3E4900889F0900881E0D8
:10860F00FF900889E0C39F400302872AE4A3F090FC
:10861F00088AE0C39410748094804003028721E499
:10862F00A3F090088BE0FD7C00C3941074809480BD
:10863F004003028718900889E075F010A42DFFEC15
:10864F0035F0FE900886E02FFF900885E03ECF249E
:10865F00F0CF34FFFED3EF947FEE6480948040031D
:10866F0002872A90088AE0FFFD900888E02DFD9090
:10867F000887E03CCD24F0CD34FFFCD3ED943FECE4
:10868F0064809480400302872AEF75F002A4FDAC4A
:10869F00F0900889E075F020A42DFFE5F03CFE90E6
:1086AF00088BE0131313541F7C002FFFEC3EFE903A
:1086BF000882E0FBA3E0FAA3E0F98F828E831221F8
:1086CF0048FD90088BE0FB5407FF7E007480A807DD
:1086DF00088006CEA2E713CE13D8F8FFEE5CFEEFAC
:1086EF005D4E601C900885A3E0FF900889E0C4549C
:1086FF00F02F2BFF900887A3E0FE90088A12B56D2C
:10870F0090088BE004F002863190088AE004F002B2
:0B871F00861E900889E004F002860B23
:01872A00222C
:0E81F40090088CEFF0A3EBF0A3EAF0A3E9F003
:10820200A3E0FEA3E0FFC3EE6480948040030283F8
:108212006BC3E49FFFE49EFE7C007D181222109047
:108222000894EFF090088CE0FF900894E0C39F4020
:1082320003028490E4A3F0900895E0C3941874803C
:1082420094804003028362E4A3F0900896E0FD7CF0
:1082520000C3941874809480400302835990089458
:10826200E075F018A42DFFEC35F0FE900890E0FCCC
:10827200A3E0FD2FFFEC3ECF24E8CF34FFFED3EF87
:10828200947FEE648094804003028490900895E08D
:10829200FF900893E02FFF900892E03400CF24E88B
:1082A200CF34FFFED3EF943FEE648094804003020C
:1082B2008490900894E0F975F018A4FFED2FFFEC7C
:1082C20035F0FE900896E0FD7A002FEA3EC3648006
:1082D200948050028001C34075900895E075F003C8
:1082E200A4FBAAF0E975F048A42BFFE5F03AFEEDF5
:1082F200131313541F7C002FFFEC3EFE90088DE0F9
:10830200FBA3E0FAA3E0F98F828E83122148FD904D
:108312000896E0FB5407FF7E007480A807088006D9
:10832200CEA2E713CE13D8F8FFEE5CFEEF5D4E60EF
:108332001D900890A3E0FF900894E075F018A42F18
:108342002BFF900892A3E0FE90089512B56D90085D
:1083520096E004F002824C900895E004F002823923
:10836200900894E004F0028226E4900894F09008C9
:108372008CE0FF900894E0C39F4003028490E4A342
:10838200F0900895E0C394187480948040030284AE
:1083920087E4A3F0900896E0FD7C00C394187480F3
:1083A2009480400302847E900894E075F018A42D16
:1083B200FFEC35F0FE900891E02FFF900890E03E30
:1083C200CF24E8CF34FFFED3EF947FEE6480948015
:1083D2004003028490900895E0FFFD900893E02D01
:1083E200FD900892E03CCD24E8CD34FFFCD3ED941F
:1083F2003FEC648094804003028490EF75F003A404
:10840200FDACF0900894E075F048A42DFFE5F03C37
:10841200FE900896E0131313541F7C002FFFEC3ECE
:10842200FE90088DE0FBA3E0FAA3E0F98F828E8331
:10843200122148FD900896E0FB5407FF7E007480ED
:10844200A807088006CEA2E713CE13D8F8FFEE5C89
:10845200FEEF5D4E601D900890A3E0FF900894E04F
:1084620075F018A42F2BFF900892A3E0FE900895B8
:1084720012B56D900896E004F0028396900895E09C
:0E84820004F0028383900894E004F0028370FB
:0184900022C9
:0E7F4E00900897EFF0A3EBF0A3EAF0A3E9F0A0
:107F5C00A3E0FEA3E0FFC3EE6480948040030280A4
:107F6C00CAC3E49FFFE49EFE7C007D201222109089
:107F7C00089FEFF0900897E0FF90089FE0C39F40A8
:107F8C00030281F3E4A3F09008A0E0C39420748072
:107F9C00948040030280C1E4A3F09008A1E0FD7C32
:107FAC0000C394207480948040030280B890089F92
:107FBC00E075F020A42DFFEC35F0FE90089BE0FC62
:107FCC00A3E0FD2FFFEC3ECF24E0CF34FFFED3EF38
:107FDC00947FEE6480948040030281F39008A0E0CB
:107FEC00FF90089EE02FFF90089DE03400CF24E026
:107FFC00CF34FFFED3EF943FEE64809480400302B5
:10800C0081F390089FE0F975F020A4FFED2FFFECB1
:10801C0035F0FE9008A1E0FD7A002FEA3EC36480A3
:10802C00948050028001C3407AED75F004A4FDAC3D
:10803C00F0E975F080A42DFFE5F03CFE9008A0E07F
:10804C00131313541F7C002FFFEC3EFE900898E096
:10805C00FBA3E0FAA3E0F98F828E83122148FD90F6
:10806C0008A0E0FB5407FF7E007480A80708800678
:10807C00CEA2E713CE13D8F8FFEE5CFEEF5D4E6098
:10808C002290089BA3E0FF90089FE0C43354E02F9C
:10809C00FF9008A1E02FFF90089DA3E02BFD7B0132
:1080AC0012B5729008A1E004F0027FA69008A0E03F
:1080BC0004F0027F9390089FE004F0027F80E4902C
:1080CC00089FF0900897E0FF90089FE0C39F400343
:1080DC000281F3E4A3F09008A0E0C3942074809490
:1080EC008040030281EAE4A3F09008A1E0FD7C004B
:1080FC00C394207480948040030281E190089FE037
:10810C0075F020A42DFFEC35F0FE90089CE02FFFBD
:10811C0090089BE03ECF24E0CF34FFFED3EF947F5A
:10812C00EE6480948040030281F39008A0E0FDFF90
:10813C0090089EE02FFF90089DE03400CF24E0CF04
:10814C0034FFFED3EF943FEE6480948040030281B1
:10815C00F39008A1E075F004A4FBAAF090089FE04E
:10816C0075F080A42BFFE5F03AFEED131313541FAA
:10817C002FFFEC3EFE900898E0FBA3E0FAA3E0F999
:10818C008F828E83122148FD9008A0E0FB5407FFDC
:10819C007E007480A807088006CEA2E713CE13D801
:1081AC00F8FFEE5CFEEF5D4E602290089BA3E0FFB3
:1081BC0090089FE0C43354E02FFF9008A1E02FFFFC
:1081CC0090089DA3E02BFD7B0112B5729008A1E0F5
:1081DC0004F00280F59008A0E004F00280E2900820
:0781EC009FE004F00280CFC8
:0181F3002269
:0ABA95009008CCEFF09008CEEBF023
:10BA9F00E49008D3F0A3F09008CFE0131313541FD2
:10BAAF00F0540770028000AF05AE079008CFE0FF9B
:10BABF00EEC39F504C9008CCE0FF9008CEE0FDEF16
:10BACF00C39D503A9008D0E0FBA3E0FAA3E0F9A39E
:10BADF00E475F00112225C85F082F583122148FD96
:10BAEF0075F004EFA4242DF582E5F03404F583E519
:10BAFF00822EF582E43583F583EDF00F80BC0E8046
:01BB0F00AA8B
:01BB10002212
:10B3FA0012CCD17F647E0012CEA0E4FD7FAE12CCC7
:10B40A00F1E4FD7F4012CCF1E4FD7FB012CCF1E40F
:10B41A00FD7FC812CCF1E4FD7F8112CCF1E4FD7FFF
:10B42A00FF12CCF1E4FD7FA112CCF1E4FD7FA6125C
:10B43A00CCF1E4FD7FA812CCF1E4FD7F1F12CCF120
:10B44A00E4FD7FD312CCF1E4FDFF12CCF1E4FD7FE1
:10B45A00D512CCF1E4FD7FF012CCF1E4FD7FD912D4
:10B46A00CCF1E4FD7F2212CCF1E4FD7FDA12CCF1BB
:10B47A00E4FD7F0212CCF1E4FD7FDB12CCF1E4FDA6
:10B48A007F4912CCF1E4FD7F8D12CCF1E4FD7F14EB
:0DB49A0012CCF1E4FD7FAF12CCF102C8220C
:09CFC600007F027E3CDEFEDFFC70
:01CFCF00223F
:0ECF2800C2C67F147E0012CEA0D2C602CFC6B3
:10C12100E49009B1F030C6159009B1E0C39464748C
:10C131008094805008E004F012D02680E89009B184
:10C14100E0C394647480948040037F0122E49009E9
:10C15100B1F020C6159009B1E0C394647480948055
:10C161005008E004F012D02680E89009B1E0C394B1
:0CC17100647480948040037F01227F00F2
:01C17D00229F
:10C59700E49009B2F030C6159009B2E0C394647410
:10C5A7008094805008E004F012D02680E8E49009D7
:10C5B700B2F020C6159009B2E0C3946474809480E9
:10C5C7005008E004F012D02680E812CFC630C60328
:05C5D7007F01227F003E
:01C5DC00223C
:10C90900E490099BF090099AF090099AE0C3940881
:10C9190074809480501CA3E0FF25E0F0E0FEC0067F
:10C9290012C597D0E04F90099BF090099AE004F066
:07C9390080D790099BE0FF8D
:01C9400022D4
:0BB349009008D5EBF0A3EAF0A3E9F0B8
:10B3540012CF2812C121EF600302B3F49008DDF08C
:10B364009008DDE0C3940574809480501A12C909D2
:10B374009008DDE024D8F582E43408F583EFF090FA
:10B3840008DDE004F080D99008D9E0FF9008D8E007
:10B394002FFFE433FE9008DAE07C002FFFEC3EFE42
:10B3A400A3E02FFFEC3EFEA3E06F7001EE7044902B
:10B3B40008D8E0FF9008D5E0FBA3E0FAA3E0F9EF9A
:10B3C4001221759008D9E0FF9008D5E0FBA3E0FABC
:10B3D400A3E0F9900001EF1221879008DAE09000D1
:10B3E400021221879008DBE090000312218780037A
:05B3F4007F01227F0033
:01B3F9002231
:0ECF360053B3BF53B4BFD2C612CF2802C121DD
:10CE6A007B017A09796612B349EF70F4900966E09A
:01CE7A00FFB8
:01CE7B002294
:10B1D0007B017A0879F812B349EF70F49008FAE02D
:10B1E000547FFCE4121D859008FC1224A89008FCF2
:10B1F000E0FCA3E0FDA3E0FEA3E0FFE4FBFA79207E
:10B200007841121B5C9008FC1224A89008FCE0F81E
:10B21000A3E0F9A3E0FAA3E0FBC000C001C002C0B4
:10B22000039008FBE0FCE4121D85D003D002D0019E
:10B23000D000121A6B9008FC1224A89008FCE0FCC5
:10B24000A3E0FDA3E0FEA3E0FFE4FBFA7920784150
:10B25000121C659008FC1224A89008FAE030E71E42
:10B260009008FCE0FCA3E0FDA3E0FEA3E0FFE4FB0C
:10B27000FA798078BF121B5C9008FC1224A8900811
:0CB28000FCE0FCA3E0FDA3E0FEA3E0FF67
:01B28C00229F
:1025640025640000000000000000000000000000DE
:10257400000404040404040004000000140A0A0013
:1025840000000000000000000014143F140A3F0A79
:102594000A000000041E1505060C14150F040000A3
:1025A4000012150D0A142C2A1200000000040A0A55
:1025B4001E1515093600000002020100000000008B
:1025C4000000000020100808080808081020000077
:1025D40002040808080808080402000000000415A2
:1025E4000E0E150400000000000404041F0404047B
:1025F40000000000000000000000000002020100D2
:10260400000000001F0000000000000000000000A7
:102614000000000002000000100808080404020280
:1026240002010000000E1111111111110E00000021
:1026340000040604040404040E000000000E11113A
:10264400080402011F000000000E11100C101011EC
:102654000E00000000080C0A0A091E0818000000F9
:10266400001F01010F1010110E000000000E0901DF
:102674000F1111110E000000001F090804040404C6
:1026840004000000000E11110E1111110E000000C3
:10269400000E1111111E10120E00000000000004A3
:1026A400000000000400000000000000040000001E
:1026B4000404000020100804020408102000000094
:1026C4000000001F00001F000000000002040810AA
:1026D4002010080402000000000E11110804040078
:1026E40004000000000E111915151D011E00000044
:1026F4000004040C0A0A1E1233000000000F121218
:102704000E1212120F000000001E1101010101112E
:102714000E000000000F1212121212120F0000001D
:10272400001F120A0E0A02121F000000001F120AE4
:102734000E0A020207000000001C120101391112E6
:102744000C000000003312121E121212330000009B
:10275400001F0404040404041F000000003E0808D1
:1027640008080808090700000037120A060A0A12B6
:102774003700000000070202020202223F000000AC
:10278400001B1B1B1B15151515000000003B121622
:10279400161A1A1217000000000E1111111111114E
:1027A4000E000000000F12120E02020207000000C9
:1027B400000E1111111117190E180000000F12123A
:1027C4000E0A121237000000001E11010608101133
:1027D4000F000000001F1504040404040E00000090
:1027E40000331212121212120C00000000331212E3
:1027F4000A0A0C0404000000001515150E0A0A0A42
:102804000A000000001B0A0A04040A0A1B00000054
:10281400001B0A0A040404040E000000001F090837
:10282400040402121F0000001C0404040404040431
:10283400041C00000202020404080808100000003E
:102844000E08080808080808080E0000040A00001A
:102854000000000000000000000000000000000074
:1028640000003F0004000000000000000000000021
:10287400000000000C121C123C00000000030202C5
:102884000E1212120E000000000000001C120202C0
:102894001C000000001810101C1212123C00000052
:1028A400000000000C121E021C000000003804048A
:1028B4001E0404041E000000000000003C120C0270
:1028C4001E221C00000302020E1212123700000026
:1028D40000040000060404040E00000000080000C8
:1028E4000C08080808080700000302023A0A0E123E
:1028F4003700000000070404040404041F0000005F
:10290400000000000F151515150000000000000060
:102914000F12121237000000000000000C121212F5
:102924000C000000000000000F1212120E0207003B
:10293400000000001C1212121C10380000000000DD
:102944001B06020207000000000000001E020C101B
:102954001E000000000004040E040404180000001B
:10296400000000001B1212123C00000000000000D6
:1029740037120A0C040000000000000015150E0AAE
:102984000A000000000000001B0A040A1B000000EB
:102994000000000037120A0C0404030000000000C9
:1029A4001E0804041E00000018080808040808088B
:1029B4000818000808080808080808080808080093
:1029C4000604040408040404040600022518000094
:1029D40000000000000000000000000000000000F3
:1029E40000000000000000000000080808080808B3
:1029F4000800001818000000486C241200000000B1
:102A0400000000000000000000002424247F1212B3
:102A1400127F12121200000000081C2A2A0A0C1845
:102A240028282A2A1C080800000022251515152A22
:102A3400585454542200000000000C1212120A765A
:102A4400252911916E000000060604030000000011
:102A540000000000000000004020101008080808D2
:102A6400080810102040000002040808101010107C
:102A7400101008080402000000000008086B1C1C69
:102A84006B08080000000000000000080808087F28
:102A94000808080800000000000000000000000012
:102AA400000000060604030000000000000000FE11
:102AB4000000000000000000000000000000000012
:102AC4000000000606000000008040402020101096
:102AD4000808040402020000000018244242424292
:102AE40042424224180000000000080E08080808AA
:102AF400080808083E00000000003C424242202032
:102B0400100804427E00000000003C4242201820CD
:102B1400404042221C0000000000203028242422CF
:102B2400227E20207800000000007E0202021A2685
:102B3400404042221C0000000000382402021A26F1
:102B4400424242241800000000007E222210100895
:102B5400080808080800000000003C42424224180B
:102B6400244242423C0000000000182442424264D5
:102B7400584040241C000000000000000018180009
:102B84000000001818000000000000000000080009
:102B9400000000000808040000004020100804029F
:102BA400040810204000000000000000007F000026
:102BB400007F000000000000000002040810204014
:102BC400201008040200000000003C42424640205D
:102BD400101000181800000000001C225A5555550A
:102BE400552D42221C00000000000808181414246B
:102BF4003C224242E700000000001F2222221E2243
:102C0400424242221F00000000007C4242010101B6
:102C1400010142221C00000000001F2242424242E5
:102C2400424242221F00000000003F4212121E12C4
:102C3400120242423F00000000003F4212121E12E4
:102C4400120202020700000000003C2222010101DE
:102C5400712122221C0000000000E7424242427E11
:102C640042424242E700000000003E08080808080B
:102C7400080808083E00000000007C101010101026
:102C84001010101010110F0000007722120A0E0A03
:102C94001212222277000000000007020202020240
:102CA400020202427F000000000077363636362AE0
:102CB4002A2A2A2A6B0000000000E346464A4A52A8
:102CC400525262624700000000001C22414141410F
:102CD400414141221C00000000003F424242423E6A
:102CE400020202020700000000001C22414141418F
:102CF400414D53321C60000000003F4242423E12EC
:102D040012222242C700000000007C424202041842
:102D1400204042423E00000000007F4908080808A5
:102D2400080808081C0000000000E7424242424232
:102D3400424242423C0000000000E7424222242476
:102D4400141418080800000000006B49494949554B
:102D540055362222220000000000E74224241818DD
:102D640018242442E70000000000772222141408EB
:102D7400080808081C00000000007E21201010082C
:102D8400040442423F0000007808080808080808C4
:102D9400080808080878000000020204040808086B
:102DA40010102020204040001E1010101010101091
:102DB40010101010101E0000384400000000000025
:102DC40000000000000000000000000000000000FF
:102DD400000000000000FF000608000000000000E2
:102DE40000000000000000000000000000003C4261
:102DF40078444242FC0000000000030202021A264A
:102E0400424242261A00000000000000000038443C
:102E14000202024438000000000060404040784450
:102E240042424264D80000000000000000003C421E
:102E34007E0202423C0000000000F08808087E0880
:102E4400080808083E0000000000000000007C2282
:102E5400221C023C42423C000000030202023A46A9
:102E640042424242E700000000000C0C00000E0841
:102E7400080808083E000000000030300000382038
:102E84002020202020221E000000030202027212D1
:102E94000A1612227700000000000E08080808082D
:102EA400080808083E0000000000000000007F92AF
:102EB40092929292B70000000000000000003B468E
:102EC40042424242E70000000000000000003C4291
:102ED400424242423C0000000000000000001B2669
:102EE400424242221E020700000000000000784413
:102EF400424242447840E000000000000000774C69
:102F0400040404041F0000000000000000007C42D0
:102F1400023C40423E0000000000000008083E0859
:102F240008080808300000000000000000006342A8
:102F340042424262DC000000000000000000E74260
:102F44002424140808000000000000000000EB49DD
:102F5400495555222200000000000000000076249C
:102F6400181818246E000000000000000000E7425A
:102F740024241418080807000000000000007E2222
:102F8400100808447E000000C020202020201020CB
:102F94002020202020C0001010101010101010103D
:102FA4001010101010101000060808080808100867
:102FB400080808080806000C32C2000000000000DF
:0B2FC400000000000000000000000002
:0A897E004207940000420792FFFF39
:0FCEDF00C293C2918FE800000000D291D293223B
:10CE7C00C293C29012D026AFE8EF7F00FED290D2C0
:01CE8C009312
:01CE8D002282
:05D03A00C28302CEDFFD
:05CFD00012D03AE4FF5D
:05CFD500D28302CEDF53
:0ACFDA00D28312CE7CEEFF7E00220F
:05CE0800E0FEA3E0FFC5
:10CE0D00AD07AC06D283ECFF12CEDFAF0502CEDF4D
:10CC3E00AA07ED54FC75F008A4FDEA54F845F0FE81
:0FCC4E00EDFFEB54F8131313541FFDEF4DFF22AE
:10B99300D283C293C29012D026AFE890096AE4F032
:10B9A300A3EFF0E0F8E4F0E890096AF0D290C290D7
:10B9B30012D026AFE890096AE4F0A3EFF0E0F8E4D0
:10B9C300F0E890096AF0D290C29012D026AFE890C6
:10B9D300096CE4F0A3EFF0E0F8E4F0E890096CF010
:10B9E300D290C29012D026AFE8AB07EBFAD2909078
:10B9F300096AE0FF7E00EEF0A3EFF0A3E0F8E4F0C5
:10BA0300E8A3F0EAFB7A00D29390096CA3E0FD026D
:02BA1300CC3E27
:0ACFE40012D03AAE04AF0502CFD51B
:10C4BA0090063CEBF0A3EAF0A3E9F07E0012D03A32
:10C4CA0075E8FF75CBFFE4F5CC90063F74FFF5F0F5
:10C4DA0012225C45F0601912CFDA90063CE0FBA309
:10C4EA00E475F00112225CA9F0FAEF12217580D9E5
:0AC4FA00E4F5CB75CCFF75E8FF22D6
:0BCF910090079DE0FEA3E0FF02D03AF5
:0BCF9C0090079FE0FEA3E0FF02D03AE8
:08C2E300900639EEF0A3EFF024
:10C2EB0012BA15E490063BF0A3F0900796E0FEA37C
:10C2FB00E0FFC390063CE09F90063BE09E502DE490
:10C30B00FBFAD3900799E09B900798E09A400D9029
:10C31B00063912CE080BBB00010A80E690063CE002
:0CC32B0004F070C690063BE004F080BEF9
:01C3370022E3
:10C5DD00900704E02401FF900703E03400FE90076C
:0CC5ED0006E02401FD900705E03400FC8E
:10C5F900AB07AA068D828C83C006C007AE83AF82C3
:10C6090090068BEEF0A3EFF0D007D00612BA3C905B
:0AC619000794E0FEA3E0FF02CE0D3F
:08C5040090099CEEF0A3EFF09A
:10C50C00D3900797E09F900796E09E400DD390073D
:10C51C0099E09D900798E09C5004E4FEFF2290095E
:10C52C009CE0FEA3E0FF12C3BA12CF9C75E8FF7526
:10C53C00CBFFE4F5CC12B993E4F5CB75CCFF75E8E1
:01C54C00FFEF
:01C54D0022CB
:10CB08005391FE4392015391FD4392025393F7438D
:10CB180094085391F74392085391DF439220E4F528
:05CB2800CB75CCFF22DB
:10CD52007F327E0012CEA0C2957F327E0012CEA01C
:09CD6200D2957F327E0002CEA0C2
:1090780012CB0812CD527F017E0012D03A7F3212F5
:10908800CEA07F287E0012D03A7FF612D03A7F0118
:1090980012CFD512CFD51F12CFD57FCF12CFD07F09
:1090A8008112CFD57F3012CFD57FED12D03A7F64B1
:1090B80012CFD57F0312CFD57F1212CFD57F811261
:1090C800CFD57FE812D03A7F8512CFD57F1012CF47
:1090D800D57F7812CFD57FCB12D03A7F3912CFD532
:1090E8007F2C12CFD5E4FF12CFD57F3412CFD57F96
:1090F8000212CFD57FF712D03A7F2012CFD57FEA60
:1091080012CFD012CFD57FB012CFD07FB412CFD02C
:109118007FC012D03A7F2112CFD57FC112D03A7FBB
:109128001112CFD57FC512D03A7F3F12CFD57F3CE1
:1091380012CFD57FC712D03A7FB512CFD57F36125E
:10914800D03A7F4812CFD57F3A12D03A7F5512CF06
:10915800D57FB112CFD07F1B12CFD57FB612D03AB0
:109168007F0A12CFD57FA212CFD57FF212CFD07F40
:109178002612D03A7F0112CFD57FE012D03A7F0F66
:1091880012CFD57F2612CFD57F2412CFD57F0B12D1
:10919800CFD57F0E12CFD57F0912CFD57F5412CFEE
:1091A800D57FA812CFD57F4612CFD57F0C12CFD549
:1091B8007F1712CFD57F0912CFD57F0F12CFD57F5A
:1091C8000712CFD5E4FF12CFD57FE112CFD07F1998
:1091D80012CFD57F1B12CFD57F0412CFD57F1012A7
:1091E800CFD57F0712CFD57F2A12CFD57F4712CF91
:1091F800D57F3912CFD57F0312CFD57F0612CFD5B1
:1092080012CFD57F3012CFD57F3812CFD57F0F122E
:10921800CFD57F2B12CFD012CFD50F12CFD57F3F0E
:1092280012CFD57F2A12CFD012CFD512CFD57FEF4C
:1092380012CFD57FB712D03A7F0712CFD57F111240
:10924800D03A7F9612CEA07F297E0012D03A12C95A
:0E925800DE90079AEEF0A3EFF0E4FF02A626E8
:10BA1500900797E024FFFB900796E034FFFA900724
:10BA250099E024FFFE900798E034FF90068BF0A381
:07BA3500CEF0E4FDFCFFFE72
:10BA3C00900685EEF0A3EFF09007A1E0FEA3E0FFE7
:10BA4C0012D03A900685E0FF7E0012CFD5A3E0FF1E
:10BA5C0012CFD5EAFF12CFD5AF037E0012CFD5900F
:10BA6C0007A3E0FEA3E0FF12D03AECFF7E0012CF5A
:10BA7C00D5AF057E0012CFD590068BE0FF12CFD547
:09BA8C00A3E0FF12CFD502CF9117
:10C38B0090081CE075F00CA4FF900814E02FFF90B0
:10C39B000813E035F0FEEB7C002FFFEC3EFE90081F
:0FC3AB001DE0FD900816E09008152DFDE03CFC0C
:10C3BA00AB07AA068D828C83C006C007AE83AF8204
:0FC3CA0090068BEEF0A3EFF0D007D00602BA3C3E
:10A626009007A1E4F0A3742AF0A3E4F0A3742BF03E
:10A6360090079DE4F0A3742CF0A3E4F0A3742EF02D
:10A64600EF14605014700302A6D514700302A7100D
:10A656002403600302A752900796E4F0A374F0F077
:10A66600A37401F0A37440F0A3E0FEA3E0FFBE9341
:10A6760007BF40047D0180027D00BE9307BF4104F1
:10A686007F0180027F00EF4D60057D0802A7497DAE
:10A696004002A7499007967401F0A37440F0A3E422
:10A6A600F0A374F0F0A3E0FEA3E0FFBE9307BF4063
:10A6B600047D0180027D00BE9307BF41047F0180B7
:10A6C600027F00EF4D60047DF880027DF08074907B
:10A6D6000796E4F0A374F0F0A37401F0A37440F0BD
:10A6E600A3E0FEA3E0FFBE9307BF40047D01800206
:10A6F6007D00BE9307BF41047F0180027F00EF4DBE
:10A7060060047D9880027DC080399007967401F0C0
:10A71600A37440F0A3E4F0A374F0F0A3E0FEA3E07A
:10A72600FFBE9307BF40047D0180027D00BE9307F4
:10A73600BF41047F0180027F00EF4D60047D2880C9
:0DA74600027D207C007F367E0012CFE422D1
:10C9DE0078377C067D017BFF7A2F79CB7E007F0432
:10C9EE001221097B017A06793790063FE4F0A37491
:10C9FE0004F07FD312C4BA900639E0FEA3E0FDED39
:01CA0E00FF28
:01CA0F002204
:10A992009006ADE0FCA3E0FD9006ABE0FAA3E0FB7D
:10A9A200A3E0FFA3E090067BCFF0A3EFF09006A711
:10A9B200E0FFA3E090067DCFF0A3EFF09006A9E0C0
:04A9C200FEA3E0FF11
:0EA9C600900675EEF0A3EFF0A3ECF0A3EDF019
:10A9D400900675E0FEA3E0FFC3EB9FFFEA9ECF2441
:10A9E40001CF3400900681F0A3EFF0900677E0FEEB
:10A9F400A3E0FFC390067CE09FFF90067BE09ECF20
:10AA04002401CF3400900683F0A3EFF0900677E0A2
:10AA1400FCA3E0FD90067BE0FFA3E090068BCFF063
:10AA2400A3EFF0900675E0FEA3E0FF12BA3CE490B9
:10AA3400067FF0A3F0900683E0FEA3E0FFC3900638
:10AA440080E09F90067FE09E502DE4FBFAD39006B1
:10AA540082E09B900681E09A400D90067D12CE081C
:10AA64000BBB00010A80E6900680E004F070C690FB
:10AA7400067FE004F080BE900797E024FFFB900778
:10AA840096E034FFFA900799E024FFFE900798E0DF
:10AA940034FF90068BF0A3CEF0E4FDFCFFFE02BA77
:01AAA4003C75
:0E8E5A00900643EEF0A3EFF0A3ECF0A3EDF0D2
:108E6800E490064FF0A3F0A3F0A3F0900794E0FF7E
:108E7800A3E0900661CFF0A3EFF090064BE0FFA3CC
:108E8800E0900794CFF0A3EFF0900643E0FEA3E054
:108E9800FFC3EB9FFFEA9E900653F0A3EFF0900606
:108EA80045E0FAA3E0FBC390064AE09BFE90064922
:108EB800E09A900655F0A3CEF0900643E0FFA3E0B9
:108EC80090065DCFF0A3EFF0A3EAF0A3EBF09006D5
:108ED80053E0FEA3E0FFD39400EE64809480400A40
:108EE800900659E4F0A304F08021EF4E7008900634
:108EF80059F0A3F0801574FF900659F0A3F0C3E46D
:108F08009FFFE49E900653F0A3EFF0900655E0FE15
:108F1800A3E0FFD39400EE64809480400A90065B3F
:108F2800E4F0A304F08021EF4E700890065BF0A3F4
:108F3800F0801574FF90065BF0A3F0C3E49FFFE494
:108F48009E900655F0A3EFF0900655E0FEA3E0FFD3
:108F5800900653E0FCA3E0FDD39FEE6480F8EC6438
:108F680080989006574007ECF0A3EDF08005EEF0EE
:108F7800A3EFF0E490064DF0A3F0900658E024012A
:108F8800FF900657E03400FED390064EE09FEE6453
:108F980080F890064DE0648098400302906890063F
:108FA8005DE0FEA3E0FFA3E0FCA3E0FD12C5F9909D
:108FB8000653E0FEA3E0FF900650E02FF090064F26
:108FC800E03EF0900655E0FEA3E0FF900652E02F49
:108FD800F0900651E03EF0900657E0FEA3E0FF90C7
:108FE800064FE0FCA3E0FDD39FEE6480F8EC6480BC
:108FF800984020ED9FFFEC9E90064FF0A3EFF09075
:109008000659E0FEA3E0FF90065EE02FF090065DB3
:10901800E03EF0900657E0FEA3E0FF900651E0FC2A
:10902800A3E0FDD39FEE6480F8EC6480984020EDC7
:109038009FFFEC9E900651F0A3EFF090065BE0FED8
:10904800A3E0FF900660E02FF090065FE03EF0900E
:10905800064EE004F0700690064DE004F0028F82A0
:0F906800900661E0FFA3E0900794CFF0A3EFF034
:0190770022D6
:0E76A3009006E8EEF0A3EFF0A3ECF0A3EDF0FC
:1076B100E49006F5F0A3F0A3F0A3F0900794E0FFA7
:1076C100A3E0900707CFF0A3EFF09006F1E0FFA34E
:1076D100E0900794CFF0A3EFF09006E8E0FEA3E07E
:1076E100FFC3EB9FFFEA9E9006F9F0A3EFF090062F
:1076F100EAE0FAA3E0FBC39006EFE09BFE9006EE02
:10770100E09A9006FBF0A3CEF09006E8E0FFA3E03C
:10771100900703CFF0A3EFF0A3EAF0A3EBF09006FC
:10772100F9E0FEA3E0FFD39400EE64809480400A68
:107731009006FFE4F0A304F08021EF4E700890065C
:10774100FFF0A3F0801574FF9006FFF0A3F0C3E4EF
:107751009FFFE49E9006F9F0A3EFF09006FBE0FE98
:10776100A3E0FFD39400EE64809480400A90070167
:10777100E4F0A304F08021EF4E7008900701F0A31C
:10778100F0801574FF900701F0A3F0C3E49FFFE4BC
:107791009E9006FBF0A3EFF09006FBE0FEA3E0FF56
:1077A1009006F9E0FCA3E0FDD39FEE6480F8EC6461
:1077B10080989006FD4007ECF0A3EDF08005EEF017
:1077C100A3EFF0E49006F3F0A3F09006FEE02401AD
:1077D100FF9006FDE03400FED39006F4E09FEE64D6
:1077E10080F89006F3E064809840030279BA90062D
:1077F100F0E07011900703E0FEA3E0FFA3E0FCA31B
:10780100E0FD12C5F99006F0E064017038900703BD
:10781100E0FEA3E0FFA3E0FCA3E0FD12C5F99007A1
:1078210004E02401FF900703E03400FE900705E027
:10783100FCA3E0FD12C5F9900703E0FEA3E0FF12EF
:10784100C5EB12C5DD9006F0E06402600302790920
:10785100900703E0FEA3E0FFA3E0FCA3E0FD12C557
:10786100F9900704E02401FF900703E03400FE9043
:107871000705E0FCA3E0FD12C5F9900703E0FEA3B4
:10788100E0FF12C5EB12C5DD900704E024FFFF9075
:107891000703E034FF12C5EA900704E02401FF90DA
:1078A1000703E03400FE900706E024FFFD90070582
:1078B100E034FFFC12C5F9900704E024FFFF9007B4
:1078C10003E034FFFE900706E024FFFD900705E08A
:1078D10034FFFC12C5F9900704E024FFFF90070371
:1078E100E034FFFE900705E0FCA3E0FD12C5F9902E
:1078F1000703E0FEA3E0FF900706E024FFFD9007E9
:1079010005E034FFFC12C5F99006F9E0FEA3E0FFA3
:107911009006F6E02FF09006F5E03EF09006FBE0D1
:10792100FEA3E0FF9006F8E02FF09006F7E03EF0AE
:107931009006FDE0FEA3E0FF9006F5E0FCA3E0FD6C
:10794100D39FEE6480F8EC6480984020ED9FFFECBB
:107951009E9006F5F0A3EFF09006FFE0FEA3E0FF96
:10796100900704E02FF0900703E03EF09006FDE061
:10797100FEA3E0FF9006F7E0FCA3E0FDD39FEE64D9
:1079810080F8EC6480984020ED9FFFEC9E9006F714
:10799100F0A3EFF0900701E0FEA3E0FF900706E0FF
:1079A1002FF0900705E03EF09006F4E004F0700639
:1079B1009006F3E004F00277CB900707E0FFA3E025
:0879C100900794CFF0A3EFF052
:0179C900229B
:10AE680090063DEAF0A3EBF0900639EEF0A3EFF080
:10AE7800A3ECF0A3EDF0C007A3E0FAA3E0FB900673
:10AE88003BE0FFA3E0900649CFF0A3EFF090064126
:10AE9800E0FFA3E090064BCFF0A3EFF0D007128EAF
:10AEA8005A900639E0FAA3E0FBFFAE02C007A3E020
:10AEB800FCA3E0FD90063FE0FFA3E0900649CFF039
:10AEC800A3EFF0900641E0FFA3E090064BCFF0A37C
:10AED800EFF0D007128E5A90063FE0FCA3E0FD90F9
:10AEE800063DE0FAA3E0FBA3E0FFA3E0900649CF0C
:10AEF800F0A3EFF0900641E0FFA3E090064BCFF0FF
:10AF0800A3EFF0900639E0FEA3E0FF128E5A9006F8
:10AF18003DE0FAA3E0FBFFAE02C00790063BE0FC71
:10AF2800A3E0FD90063FE0FFA3E0900649CFF0A321
:10AF3800EFF0900641E0FFA3E090064BCFF0A3EFBF
:06AF4800F0D007028E5A52
:10CB2D00C007900671E0FFA3E090067BCFF0A3EF66
:10CB3D00F0900673E0FFA3E090067DCFF0A3EFF039
:05CB4D00D00702A9C69B
:10C9AB009008BCFEE0FCA3E0FD9008BBE02DFD90E1
:0DC9BB0008BAE03CFC9008C0E0FAA3E0FBE5
:10C9C80090099EEAF0A3EBF012C3BA90099EE0FE2C
:06C9D800A3E0FF02CE0DFA
:10A3BB009008BEF0A3EFF0900804E0FFA3E0900834
:0EA3CB00C0CFF0A3EFF09007FEE0FEA3E0FF8E
:10A3D9009008BAECF0A3EDF09008B8EEF0A3EFF016
:10A3E9009008BCEAF0A3EBF02FFFEE3AA312C9AE36
:10A3F9009008BCE0FEA3E0FFC39008B9E09FFF907E
:10A4090008B8E09EFE9008BE12C9AF9008BCE0FEF5
:10A41900A3E0FF9008B9E02FFF9008B8E03EFE9056
:10A4290008BEE0FCA3E0FDC39008BBE09DFD9008D9
:10A43900BAE09C12C9BF9008BCE0FEA3E0FFC3903C
:10A4490008B9E09FFF9008B8E09EFE9008BEE0FCC6
:10A45900A3E0FDC39008BBE09DFD9008BAE09C1203
:10A46900C9BF9008BEE0FEA3E0FF9008B9E02FFF46
:10A479009008B8E03E12C9AB9008BEE0FEA3E0FF29
:10A48900C39008B9E09FFF9008B8E09E12C9AB904D
:10A4990008BEE0FEA3E0FF9008B9E02FFF9008B8DE
:10A4A900E03EFE9008BCE0FCA3E0FDC39008BBE0E1
:10A4B9009DFD9008BAE09C12C9BF9008BEE0FEA3BA
:10A4C900E0FFC39008B9E09FFF9008B8E09EFE90B6
:10A4D90008BCE0FCA3E0FDC39008BBE09DFD90082B
:0FA4E900BAE09CFC9008C0E0FAA3E0FB02C9C8EF
:0E944A009007FEEEF0A3EFF0A3ECF0A3EDF020
:10945800E4900807F0A3F0A3EAF0A3EBF025E0FFFF
:10946800EA33FEC374039F90080EF0E49E90080D43
:10947800F0900806E07003029579900809E0FEA3D1
:10948800E0FF900807E0FCA3E0FDD39FEE6480F8BE
:10949800EC648098400302962B90080BECF0A3ED47
:1094A800F0900809E0FEA3E0FFD390080CE09FEEDF
:1094B8006480F890080BE0648098502B900800E0D6
:1094C800FCA3E0FD900807E0FAA3E0FB90080BE09E
:1094D800FFA3E0CF12A3BB90080CE004F070C29089
:1094E800080BE004F080BA90080DE0FCA3E0FDC38F
:1094F800EC648094805023900807E0FEA3E0780293
:10950800C333CE33CED8F92DFFEC3ECF2406CF346B
:109518000090080DF0A3EFF08043900809E0FEA347
:10952800E0FFC3900808E09FFF900807E09EFEEF69
:109538007802C333CE33CED8F9FF90080EE02FFF60
:1095480090080DE03ECF240ACF3400F0A3EFF0904E
:10955800080AE024FFF0900809E034FFF0900808BA
:10956800E004F06003029482900807E004F002949B
:1095780082900809E0FEA3E0FF900807E0FAA3E064
:10958800FBD39FEE6480F8EA648098400302962B30
:10959800900800E0FCA3E0FDEE12A3BB90080DE0EC
:1095A800FCA3E0FDC3EC648094805023900807E09E
:1095B800FEA3E07802C333CE33CED8F92DFFEC3EBC
:1095C800CF2406CF340090080DF0A3EFF08043902D
:1095D8000809E0FEA3E0FFC3900808E09FFF900899
:1095E80007E09EFEEF7802C333CE33CED8F9FF9062
:1095F800080EE02FFF90080DE03ECF240ACF34007C
:10960800F0A3EFF090080AE024FFF0900809E03496
:10961800FFF0900808E004F07006900807E004F0F6
:039628000295792F
:01962B00221C
:10B5FE0090083FEEF0A3EFF0A3ECF0A3EDF0A3EA7A
:10B60E00F0A3EBF0C007A3E0FFA3E0900649CFF054
:10B61E00A3EFF090084BE0FFA3E090064BCFF0A312
:10B62E00EFF0D007128E5A900845E0FCA3E0FDA380
:10B63E00E0FAA3E0FBA3E0FFA3E0900649CFF0A35E
:10B64E00EFF090084BE0FFA3E090064BCFF0A3EF96
:10B65E00F0900843E0FEA3E0FF128E5A900849E0F6
:10B66E00FCA3E0FD90083FE0FAA3E0FBA3E0FFA3FC
:10B67E00E0900649CFF0A3EFF090084BE0FFA3E077
