:10D9C50012E97D12ECD212EE10D2AF12ED3612EF43
:10D9D500F512988B7B017A1379E112C29D9013E5BC
:10D9E500A3A3E0FEA3E0FBAA069013E1A3A3E0FE38
:10D9F500A3E02BFFEE3AFE12E31612EF6912D352A3
:10DA05009000057402F024FE600804700812A3B3A8
:10DA1500800312A56312C897900005E024FE6008F4
:0DDA25000470F212C4E980ED12E1ED80E81A
:10716F000000000000000000000000000000000010
:10717F00000000000000000000000FF00000387851
:10718F00000070380000F0380000F0780000F07850
:10719F00000000F0000000E0000001C000000380CC
:1071AF000000070000000E00000038000000700013
:1071BF000000E0000001800000030180000E0300CA
:1071CF00001C0600003FFE00003FFC000000000016
:1071DF0000000000000000000000000000000000A0
:1071EF000000000000000000000000000000000090
:1071FF00000000000000000000000FE000001C7005
:10720F000000387000007070000060700000E070C7
:10721F000000E0700001C0E00001C0E0000380E06A
:10722F00000381C0000381C0000703C00007038073
:10723F000007038000070700000F0700000E0E0075
:10724F0000061C00000738000003F00000000000DB
:10725F00000000000000000000000000000000001F
:10726F00000000000000000000000000000000000F
:10727F00000000000000000000000070000000E0AF
:10728F00000001E0000003E0000007C000000FC095
:10729F0000001BC000003380000067800000C700A3
:1072AF000001870000030F0000060E00000C0E0007
:1072BF00001FFFC0003FFFC000001C0000003C008B
:1072CF000000380000007C000003FF0000000000F9
:1072DF00000000000000000000000000000000009F
:1072EF00000000000000000000000000000000008F
:1072FF00000000000000000000000FF000001C382C
:10730F0000003838000070380000F0380000F070CE
:10731F000000F0600000F1C000007F8000003E0020
:10732F0000007F000001CF80000387C0000703C06B
:10733F00000E03C0000C03C0000C0380000C0700FC
:10734F00000E0E000007BC000001E000000000006E
:10735F00000000000000000000000000000000001E
:10736F000000000000020000000380000007000082
:10737F00000E8000000C4000001A3000003318008F
:10738F0000618E00018183F0030104FC0DFFFE18E4
:10739F0030001C00000038000000300001006000C9
:1073AF0001FFFF80018003000180030001810300C2
:1073BF000181830001830300018303000183030024
:1073CF000182020000066000000C1F00001803E09D
:1073DF00007000F003C000701C00001000000000DF
:1073EF0000000000000000000000600000007000BE
:1073FF00000060000000E0000020C0001FF08010BF
:10740F001861FFF81861000018620000186600008C
:10741F0018640000186801801867FFC018600380A7
:10742F00186007001860060018600C00186018003C
:10743F001FE03000186060001860E0001840C010B6
:10744F001001801000030018000300180003001C37
:10745F000003FFFC0001FFF8000000000000000027
:10746F0000000000000000000100000001800C007F
:10747F0001800600018007000180030001800208DF
:10748F000181FFFC2181001C1FFD0010119B0010CA
:10749F00119A4000119870001198600011986020A7
:1074AF0011986070119860E0119861801FF8620068
:1074BF0011986C002180700001A060080190600895
:1074CF000198600801BC600807CC60087C04600864
:1074DF002000301C00003FFC0000000000000000F6
:10C7E2004100040041000900410FAB00410FDE008F
:10C7F20041000AFF41000200410003004200000024
:01C802000035
:03000B0002DC46CE
:10DC4600C0E0C0F0C083C082C0D075D000C000C0A4
:0DDC560001C002C003C004C005C006C00725
:10DC6300900001E02401FF900000E03400FE7C00FE
:10DC73007D321216E7ECF0A3EDF064314C7008909E
:0DDC83000FAB04F012D3E59000097401F01E
:10DC9000D007D006D005D004D003D002D001D000E8
:0BDCA000D0D0D082D083D0F0D0E03292
:0300A30002E5AAC9
:10E5AA00C0E0C0F0C083C082C0D075D000C000C037
:10E5BA0001C002C003C004C005C006C00712B9AF3B
:10E5CA009000047401F0D007D006D005D004D0031F
:10E5DA00D002D001D000D0D0D082D083D0F0D0E009
:01E5EA0032FE
:0BEF69007E007F0B7DA07C0F02E6AB5A
:10D35200E49013E9F0A3F07B017A14798A90000635
:10D3620004F0A3EAF0A3E9F09013F07427F0E4FFCD
:10D37200FE12D95C9013EAE02427F09013E9E0341E
:10D3820000F07B017A157959900006EBF0A3EAF0E0
:10D39200A3E9F09013E9E0FEA3E0FF9013F074021A
:10D3A200F012D95C9013EAE02402F09013E9E03421
:10D3B20000F07B017A15795C900006EBF0A3EAF0AD
:10D3C200A3E9F09013E9E0FEA3E0FF9013F07401EB
:10D3D200F012D95C9013EAE004F070069013E9E0D1
:02D3E20004F055
:01D3E4002226
:10CDE600E49013EDF0A3F0FFFE12E94B7B017A14F9
:10CDF600798A900006EBF0A3EAF0A3E9F09013ED30
:10CE0600E0FEA3E0FF9013F47427F012B5759013BB
:10CE1600EEE02427F09013EDE03400F07B017A1564
:10CE26007959900006EBF0A3EAF0A3E9F09013ED30
:10CE3600E0FEA3E0FF9013F47402F012B5759013B0
:10CE4600EEE02402F09013EDE03400F07B017A1559
:10CE5600795C900006EBF0A3EAF0A3E9F09013EDFD
:10CE6600E0FEA3E0FF9013F47401F012B575901381
:0CCE7600EEE004F070069013EDE004F014
:01CE8200228D
:10C89700901542E0FF3395E0C364809480401AEF1F
:10C8A7003395E0FE74432FF58274153EF583E090CF
:10C8B700000AF090154274FFF0900004E06010E465
:10C8C700F012EF8AEF600812F003900FDEEFF0909E
:10C8D7000FDEE0FF602C900003E0FE25E024ACF5BE
:10C8E70082E4340FF583EFF0EE25E024ADF582E422
:10C8F700340FF583E4F0900003E004F0E4900FDEDA
:10C90700F02290000AE0FFFD3395E0FCEDF47002A1
:10C91700ECF4602D900003E0FE25E024ACF582E402
:10C92700340FF583EFF0EE25E024ADF582E4340F04
:10C93700F5837401F0900003E004F090000A74FF9F
:02C94700F022DC
:10DA32002531396400202020202020202020205958
:10DA42006F752057696E2021202020202020202061
:10DA5200200020202020202020202047616D6520EA
:10DA62004F76657220212020202020202020004A8D
:10DA72006F696E207468652074696C65732C206709
:10DA8200657420746F2032303438210025640042DE
:0DDA9200657374203A0053636F72653A00AB
:10C72600E49013FBF0FFEFC39404748094805048A8
:10C73600E4FEEEC39404748094805039EF75F008DB
:10C74600A42491F582E43414F58375F002EE121AEE
:10C75600A9E0FCA3E04C701AEF25E025E02EFD9041
:10C7660013FBE0FC04F074EB2CF582E43413F58340
:10C77600EDF00E80BD0F80AE9013FBE07002FF223D
:10C7860012E2D89013FBE0FD7C001216E774EB2D45
:10C79600F58274133CF583E09013EAF012E2D87C3C
:10C7A600007D0A1216E7ED64014C7005FE7F0480D9
:10C7B600047E007F029013EAE0FD1313543F75F0E8
:10C7C60008A42491F582E43414F583ED540375F03E
:0BC7D60002121AA9EEF0A3EFF07F01A1
:01C7E1002235
:106A5A00E4F9E9FF3395E0FEC3EF9404EE64809411
:106A6A00804003026D39E49013EBF0A3F0A3F09099
:106A7A0013EAF09013EAE0FFFD3395E0FCC3ED94CE
:106A8A0004EC648094804003026D35EF3395E0FC9A
:106A9A00ED25E0FBEC33FAE9FF3395E0FEEF7803EE
:106AAA00C333CE33CED8F92491F58274143EF583DC
:106ABA00E5822BF582E5833AF583E0FAA3E0FBED64
:106ACA0025E0FDEC33FCE9FF3395E0FEEF7803C3E4
:106ADA0033CE33CED8F924EEF58274133EF583E52E
:106AEA00822DF582E5833CF583EAF0A3EBF0E9FF1A
:106AFA003395E0FEEF7803C333CE33CED8F9249131
:106B0A00F58274143EF583E5822DF582E5833CF522
:106B1A0083E0FEA3E0FF4E7003026D2C9013ECE0BD
:106B2A00FCA3E0FD4C700B9013ECEEF0A3EFF00227
:106B3A006CAB9013EAE0FF3395E0FEEF25E0FBEE45
:106B4A0033FAE9FF3395E0FEEF7803C333CE33CE51
:106B5A00D8F92491F58274143EF583E5822BF582E7
:106B6A00E5833AF583E0FEA3E06D7002EC6E600304
:106B7A00026C269013EDE025E0FD9013ECE033FC67
:106B8A009013EBE0FF3395E0FEEF25E0FBEE33FADE
:106B9A00E9FF3395E0FEEF7803C333CE33CED8F95D
:106BAA002491F58274143EF583E5822BF582E58300
:106BBA003AF583ECF0A3EDF09013EDE025E0FF90B9
:106BCA0013ECE033FE90148BE02FF090148AE03E31
:106BDA00F0E49013ECF0A3F0E9FF3395E0FEEF78D0
:106BEA0003C333CE33CED8F92491F58274143EF51B
:106BFA0083E5822BF582E5833AF583E0FEA3E0FF85
:106C0A0090148FE0FCA3E0FDEF6D7002EE6C600360
:106C1A00026CA590148E7404F0026CA59013ECE03B
:106C2A00FCA3E0FD9013EBE0FF3395E0FEEF25E0D7
:106C3A00FBEE33FAE9FF3395E0FEEF7803C333CE78
:106C4A0033CED8F92491F58274143EF583E5822B6C
:106C5A00F582E5833AF583ECF0A3EDF09013EAE0D0
:106C6A00FF3395E0FEEF25E0FDEE33FCE9FF3395B7
:106C7A00E0FEEF7803C333CE33CED8F92491F58200
:106C8A0074143EF583E5822DF582E5833CF583E0B5
:106C9A00FFA3E09013ECCFF0A3EFF09013EBE00426
:106CAA00F09013EAE0FF3395E0FEEF25E0FDEE33C6
:106CBA00FCE9FF3395E0FEEF7803C333CE33CED839
:106CCA00F92491F58274143EF583E5822DF582E567
:106CDA00833CF583E4F0A3F09013ECE07002A3E0A8
:106CEA0060409013ECE0FCA3E0FD9013EBE0FF336F
:106CFA0095E0FEEF25E0FBEE33FAE9FF3395E0FE7F
:106D0A00EF7803C333CE33CED8F92491F5827414C5
:106D1A003EF583E5822BF582E5833AF583ECF0A311
:106D2A00EDF09013EAE004F0026A7D09026A5CE47D
:106D3A00F9E9FF3395E0FEC3EF9404EE6480948092
:106D4A004003026DE2E49013EAF09013EAE0FFFDDB
:106D5A003395E0FCC3ED9404EC648094805075EFA5
:106D6A003395E0FCED25E0FBEC33FAE9FF3395E0DF
:106D7A00FEEF7803C333CE33CED8F924EEF582740E
:106D8A00133EF583E5822BF582E5833AF583E0FA33
:106D9A00A3E0FBED25E0FDEC33FCE9FF3395E0FED3
:106DAA00EF7803C333CE33CED8F92491F582741425
:106DBA003EF583E5822DF582E5833CF583E0FEA36B
:106DCA00E06B7002EE6A60037F01229013EAE0042E
:0A6DDA00F0026D5409026D3B7F00CA
:016DE400228C
:106DE500E4F9E9FF3395E0FEC3EF9404EE64809483
:106DF5008040030270C39013EB7403F0E4A3F0A387
:106E0500F09013EA7403F09013EAE0FF3395E0C3C2
:106E15006480948050030270BFEFFD3395E0FCED74
:106E250025E0FBEC33FAE9FF3395E0FEEF7803C389
:106E350033CE33CED8F92491F58274143EF583E52B
:106E4500822BF582E5833AF583E0FAA3E0FBED2595
:106E5500E0FDEC33FCE9FF3395E0FEEF7803C33347
:106E6500CE33CED8F924EEF58274133EF583E58250
:106E75002DF582E5833CF583EAF0A3EBF0E9FF33DA
:106E850095E0FEEF7803C333CE33CED8F92491F5E0
:106E95008274143EF583E5822DF582E5833CF58306
:106EA500E0FEA3E0FF4E70030270B69013ECE0FC29
:106EB500A3E0FD4C700B9013ECEEF0A3EFF0027025
:106EC500359013EAE0FF3395E0FEEF25E0FBEE3366
:106ED500FAE9FF3395E0FEEF7803C333CE33CED81E
:106EE500F92491F58274143EF583E5822BF582E54C
:106EF500833AF583E0FEA3E06D7002EC6E60030259
:106F05006FB09013EDE025E0FD9013ECE033FC90BD
:106F150013EBE0FF3395E0FEEF25E0FBEE33FAE9F6
:106F2500FF3395E0FEEF7803C333CE33CED8F92493
:106F350091F58274143EF583E5822BF582E5833A5B
:106F4500F583ECF0A3EDF09013EDE025E0FF901351
:106F5500ECE033FE90148BE02FF090148AE03EF0C5
:106F6500E49013ECF0A3F0E9FF3395E0FEEF78032E
:106F7500C333CE33CED8F92491F58274143EF5830C
:106F8500E5822BF582E5833AF583E0FEA3E0FF90E9
:106F9500148FE0FCA3E0FDEF6D7002EE6C60030260
:106FA500702F90148E7404F002702F9013ECE0FC97
:106FB500A3E0FD9013EBE0FF3395E0FEEF25E0FB4A
:106FC500EE33FAE9FF3395E0FEEF7803C333CE33B2
:106FD500CED8F92491F58274143EF583E5822BF51C
:106FE50082E5833AF583ECF0A3EDF09013EAE0FF38
:106FF5003395E0FEEF25E0FDEE33FCE9FF3395E048
:10700500FEEF7803C333CE33CED8F92491F58274DD
:10701500143EF583E5822DF582E5833CF583E0FF9B
:10702500A3E09013ECCFF0A3EFF09013EBE014F096
:107035009013EAE0FF3395E0FEEF25E0FDEE33FC2B
:10704500E9FF3395E0FEEF7803C333CE33CED8F9AD
:107055002491F58274143EF583E5822DF582E5834E
:107065003CF583E4F0A3F09013ECE07002A3E0603C
:10707500409013ECE0FCA3E0FD9013EBE0FF3395AB
:10708500E0FEEF25E0FBEE33FAE9FF3395E0FEEF96
:107095007803C333CE33CED8F92491F58274143EE8
:1070A500F583E5822BF582E5833AF583ECF0A3EDD4
:1070B500F09013EAE014F0026E0C09026DE7E4F9B2
:1070C500E9FF3395E0FEC3EF9404EE6480948040BD
:1070D5000302716CE49013EAF09013EAE0FFFD33CC
:1070E50095E0FCC3ED9404EC648094805075EF3317
:1070F50095E0FCED25E0FBEC33FAE9FF3395E0FE86
:10710500EF7803C333CE33CED8F924EEF58274136A
:107115003EF583E5822BF582E5833AF583E0FAA314
:10712500E0FBED25E0FDEC33FCE9FF3395E0FEEFF8
:107135007803C333CE33CED8F92491F58274143E47
:10714500F583E5822DF582E5833CF583E0FEA3E03A
:107155006B7002EE6A60037F01229013EAE004F08F
:097165000270DE090270C57F0012
:01716E0022FE
:1074EF00E4F9E9FF3395E0FEC3EF9404EE64809472
:1074FF008040030277AEE49013EBF0A3F0A3F0907B
:10750F0013EAF09013EAE0FF3395E0FEC3EF940423
:10751F00EE6480948040030277AAE9FD3395E0FC86
:10752F00ED25E0FBEC33FAE03395E0FEEF7803C393
:10753F0033CE33CED8F92491F58274143EF583E51A
:10754F00822BF582E5833AF583E0FAA3E0FBED2584
:10755F00E0FDEC33FC9013EAE0FF3395E0FEEF78AB
:10756F0003C333CE33CED8F9FF24EEF58274133E26
:10757F00F583E5822DF582E5833CF583EAF0A3EBF5
:10758F00F074912FF58274143EF583E5822DF58208
:10759F00E5833CF583E0FEA3E0FF4E70030277A185
:1075AF009013ECE0FCA3E0FD4C700B9013ECEEF0AD
:1075BF00A3EFF0027726E9FF3395E0FEEF25E0FB1E
:1075CF00EE33FA9013EAE0FF3395E0FEEF7803C352
:1075DF0033CE33CED8F92491F58274143EF583E57A
:1075EF00822BF582E5833AF583E0FEA3E06D70020E
:1075FF00EC6E60030276AE9013EDE025E0FD901384
:10760F00ECE033FCE9FF3395E0FEEF25E0FBEE33D2
:10761F00FA9013EBE0FF3395E0FEEF7803C333CE20
:10762F0033CED8F92491F58274143EF583E5822B7D
:10763F00F582E5833AF583ECF0A3EDF09013EDE0DE
:10764F0025E0FF9013ECE033FE90148BE02FF090C9
:10765F00148AE03EF0E49013ECF0A3F09013EBE00B
:10766F00FF3395E0FEEF7803C333CE33CED8F92442
:10767F0091F58274143EF583E5822BF582E5833A0A
:10768F00F583E0FEA3E0FF90148FE0FCA3E0FDEF95
:10769F006D7002EE6C707A90148E7404F08072909C
:1076AF0013ECE0FCA3E0FDE9FF3395E0FEEF25E0EE
:1076BF00FBEE33FA9013EBE0FF3395E0FEEF780328
:1076CF00C333CE33CED8F92491F58274143EF583AB
:1076DF00E5822BF582E5833AF583ECF0A3EDF0908C
:1076EF0013EAE0FF3395E0FEEF7803C333CE33CEDA
:1076FF00D8F92491F58274143EF583E5822BF58237
:10770F00E5833AF583E0FFA3E09013ECCFF0A3EF0E
:10771F00F09013EBE004F0E9FD3395E0FCED25E08C
:10772F00FBEC33FA9013EAE0FF3395E0FEEF7803BA
:10773F00C333CE33CED8F92491F58274143EF5833A
:10774F00E5822BF582E5833AF583E4F0A3F09013FD
:10775F00ECE07002A3E0603A9013ECE0FAA3E0FBD8
:10776F00ED25E0FDEC33FC9013EBE0FF3395E0FEED
:10777F00EF7803C333CE33CED8F92491F582741446
:10778F003EF583E5822DF582E5833CF583EAF0A390
:10779F00EBF09013EAE004F0027512090274F1E4C1
:1077AF009013EAF09013EAE0FF3395E0FEC3EF94F5
:1077BF0004EE64809480400302785DE4F9E9FF33BE
:1077CF0095E0FEC3EF9404EE648094805077E9FD5A
:1077DF003395E0FCED25E0FBEC33FA9013EAE0FF84
:1077EF003395E0FEEF7803C333CE33CED8F924EED2
:1077FF00F58274133EF583E5822BF582E5833AF526
:10780F0083E0FAA3E0FBED25E0FDEC33FC9013EAF7
:10781F00E0FF3395E0FEEF7803C333CE33CED8F9D4
:10782F002491F58274143EF583E5822DF582E5836C
:10783F003CF583E0FEA3E06B7002EE6A60037F010C
:10784F0022090277CC9013EAE004F00277B37F00AD
:01785F002206
:10786000E4F9E9FF3395E0FEC3EF9404EE648094FD
:10787000804003027B1E9013EB7403F0E4A3F0A39B
:10788000F09013EA7403F09013EAE03395E0C364D8
:107890008094805003027B1AE9FD3395E0FCED25CE
:1078A000E0FBEC33FAE0FF3395E0FEEF7803C333FF
:1078B000CE33CED8F92491F58274143EF583E58257
:1078C0002BF582E5833AF583E0FAA3E0FBED25E0B2
:1078D000FDEC33FC9013EAE0FF3395E0FEEF780314
:1078E000C333CE33CED8F9FF24EEF58274133EF5C0
:1078F00083E5822DF582E5833CF583EAF0A3EBF086
:1079000074912FF58274143EF583E5822DF582E59E
:10791000833CF583E0FEA3E0FF4E7003027B1190F1
:1079200013ECE0FCA3E0FD4C700B9013ECEEF0A325
:10793000EFF0027A96E9FF3395E0FEEF25E0FBEEEB
:1079400033FA9013EAE0FF3395E0FEEF7803C33398
:10795000CE33CED8F92491F58274143EF583E582B6
:107960002BF582E5833AF583E0FEA3E06D7002EC2F
:107970006E6003027A1E9013EDE025E0FD9013EC9B
:10798000E033FCE9FF3395E0FEEF25E0FBEE33FA50
:107990009013EBE0FF3395E0FEEF7803C333CE3373
:1079A000CED8F92491F58274143EF583E5822BF547
:1079B00082E5833AF583ECF0A3EDF09013EDE0253A
:1079C000E0FF9013ECE033FE90148BE02FF0901466
:1079D0008AE03EF0E49013ECF0A3F09013EBE0FFAC
:1079E0003395E0FEEF7803C333CE33CED8F924913C
:1079F000F58274143EF583E5822BF582E5833AF532
:107A000083E0FEA3E0FF90148FE0FCA3E0FDEF6DA8
:107A10007002EE6C707A90148E7404F08072901381
:107A2000ECE0FCA3E0FDE9FF3395E0FEEF25E0FB91
:107A3000EE33FA9013EBE0FF3395E0FEEF7803C3EB
:107A400033CE33CED8F92491F58274143EF583E514
:107A5000822BF582E5833AF583ECF0A3EDF09013E9
:107A6000EAE0FF3395E0FEEF7803C333CE33CED8A0
:107A7000F92491F58274143EF583E5822BF582E5B5
:107A8000833AF583E0FFA3E09013ECCFF0A3EFF08F
:107A90009013EBE014F0E9FD3395E0FCED25E0FBFD
:107AA000EC33FA9013EAE0FF3395E0FEEF7803C37E
:107AB00033CE33CED8F92491F58274143EF583E5A4
:107AC000822BF582E5833AF583E4F0A3F09013EC82
:107AD000E07002A3E0603A9013ECE0FAA3E0FBED63
:107AE00025E0FDEC33FC9013EBE0FF3395E0FEEF77
:107AF0007803C333CE33CED8F92491F58274143E83
:107B0000F583E5822DF582E5833CF583EAF0A3EB6E
:107B1000F09013EAE014F002788709027862E490AA
:107B200013EAF09013EAE0FF3395E0FEC3EF94040C
:107B3000EE648094804003027BCDE4F9E9FF339545
:107B4000E0FEC3EF9404EE648094805077E9FD3347
:107B500095E0FCED25E0FBEC33FA9013EAE0FF330F
:107B600095E0FEEF7803C333CE33CED8F924EEF59B
:107B70008274133EF583E5822BF582E5833AF58323
:107B8000E0FAA3E0FBED25E0FDEC33FC9013EAE026
:107B9000FF3395E0FEEF7803C333CE33CED8F9241C
:107BA00091F58274143EF583E5822DF582E5833CE0
:107BB000F583E0FEA3E06B7002EE6A60037F0122B2
:0F7BC00009027B3C9013EAE004F0027B237F0074
:017BCF002293
:10E9AD007E007F207D007B017A147991121BB112BC
:10E9BD00C72612C726E490148AF0A3F090148F7422
:0BE9CD0008F0A3E4F090148E04F02288
:10B68F00E49013EAF09013EAE0C39404748094807A
:10B69F00400302B7A1E4A3F09013EBE0FFC39404BF
:10B6AF0074809480400302B7989013EAE075F00815
:10B6BF00A42491F582E43414F58375F002EF121A85
:10B6CF00A9E0FEA3E04E7002FF229013EBE0FF24EF
:10B6DF0001FDE433FCC3ED9404EC6480948050418D
:10B6EF009013EAE0FE75F008A42493F582E4341475
:10B6FF00F58375F002EF121AA9E0FCA3E0FDEE75D9
:10B70F00F008A42491F582E43414F58375F002EF68
:10B71F00121AA9E0FEA3E0B50507EEB504037F00FA
:10B72F00229013EAE0FF2401FDE433FCC3ED9404FF
:10B73F00EC648094805049EF75F008A42499F58249
:10B74F00E43414F583C083C0829013EBE0FED08203
:10B75F00D08375F002121AA9E0FCA3E0FDEF75F09B
:10B76F0008A42491F582E43414F58375F002EE12E7
:10B77F001AA9E0FEA3E0B50507EEB504037F00228A
:10B78F009013EBE004F002B6A79013EAE004F00286
:04B79F00B6947F01DC
:01B7A3002283
:10C36500E49013ECF090148EE06401700302C4268F
:10C37500E49013EBF09013EBE0C394047480948085
:10C385005053E4FDEDC3940474809480503F9013A2
:10C39500EBE0FC7E007410A804088005C333CE339F
:10C3A500CED8F9A805088005C333CE33CED8F9FF1A
:10C3B500EC75F008A42491F582E43414F58375F046
:10C3C50002ED121AA9EEF0A3EFF00D80B79013EB72
:10C3D500E004F080A0E490148AF0A3F090148E7429
:10C3E50002F0C390148CE0648094805009E4F0A3BB
:10C3F500F09013EC04F090148FE0FEA3E0FFEE54F0
:10C4050007FCEF4C7004EF4E700E90148F7408F01B
:10C41500A3E4F09013EC04F09013ECE0600312CD6C
:01C42500E630
:01C4260022F3
:10CE830090140974FFF0A374DAF0A37432F09014D1
:10CE93008CE0FFA3E090140CCFF0A3EFF07B017ABA
:10CEA3001379EB1252767B017A1379EB90140D749C
:10CEB3002BF0A37412F0A374C6F0A37418F0A37438
:10CEC30010F0E4A3F07D32FC7F44FE12D2BB901439
:10CED3000974FFF0A374DAF0A37432F090148AE0BB
:10CEE300FFA3E090140CCFF0A3EFF07B017A13794A
:10CEF300EB1252767B017A1379EB90140D742BF0BD
:10CF0300A37412F0A374C6F0A37418F0A37410F002
:0CCF1300E4A3F07D44FC7F44FE02D2BB8E
:10E28B0090148EE024FD600B1470187BFF7ADA7902
:10E29B003780067BFF7ADA795490140D74F8F0A36B
:10E2AB00E4800F7BFF7ADA797190140D74BCF0A3C4
:10E2BB007440F0A374C6F0A37418F0A3740CF0E4CC
:0DE2CB00A3F07D2C7C017F24FE12D2BB222B
:105B1400E4901404F0901404E0C39404748094801A
:105B24004003025F84E4A3F0901405E0FFC39404EF
:105B3400748094804003025F7B901404E075F00845
:105B4400A42491F582E43414F58375F002EF121A5B
:105B5400A9E0FEA3E0FF4E7003025F29EF8EF0126E
:105B64001B845B9A00025BDA00045C1E00085C6222
:105B740000105CA600205CE900405D2C00805D7094
:105B840001005DB402005DF804005E3B08005E3B6A
:105B9400100000005E81901405E075F032A4FBAAA9
:105BA400F02418FFE43AFEC006C007901404E07520
:105BB400F032A4FFAEF02460FDE43EFCEB2442FB93
:105BC400E43AFAEF248AFFE43E90140CF0A3EFF0D9
:105BD400A37484025CE2901405E075F032A4FBAA7D
:105BE400F02418FFE43AFEC006C007901404E075E0
:105BF400F032A4FFAEF02460FDE43EFCEB2442FB53
:105C0400E43AFAEF248AFFE43E90140CF0A3EFF098
:105C1400A374FCF0A37407025E79901405E075F098
:105C240032A4FBAAF02418FFE43AFEC006C0079091
:105C34001404E075F032A4FFAEF02460FDE43EFCF1
:105C4400EB2442FBE43AFAEF248AFFE43E90140C7E
:105C5400F0A3EFF0A37407F0A374E0025E7990144C
:105C640005E075F032A4FBAAF02418FFE43AFEC064
:105C740006C007901404E075F032A4FFAEF024606F
:105C8400FDE43EFCEB2442FBE43AFAEF248AFFE411
:105C94003E90140CF0A3EFF0A37401F0A374CF02B0
:105CA4005E79901405E075F032A4FBAAF02418FF85
:105CB400E43AFEC006C007901404E075F032A4FF75
:105CC400AEF02460FDE43EFCEB2442FBE43AFAEF40
:105CD400248AFFE43E90140CF0A3EFF0A3E4F0A3B5
:105CE400741F025E79901405E075F032A4FBAAF0EB
:105CF4002418FFE43AFEC006C007901404E075F0CF
:105D040032A4FFAEF02460FDE43EFCEB2442FBE44D
:105D14003AFAEF248AFFE43E90140CF0A3EFF0A3C8
:105D240074F8F0A3E4025E79901405E075F032A4EF
:105D3400FBAAF02418FFE43AFEC006C0079014043E
:105D4400E075F032A4FFAEF02460FDE43EFCEB24E9
:105D540042FBE43AFAEF248AFFE43E90140CF0A3E9
:105D6400EFF0A374F8F0A3741F025E79901405E0B9
:105D740075F032A4FBAAF02418FFE43AFEC006C072
:105D840007901404E075F032A4FFAEF02460FDE443
:105D94003EFCEB2442FBE43AFAEF248AFFE43E9013
:105DA400140CF0A3EFF0A374BCF0A37440025E796A
:105DB400901405E075F032A4FBAAF02418FFE43A2D
:105DC400FEC006C007901404E075F032A4FFAEF0E4
:105DD4002460FDE43EFCEB2442FBE43AFAEF248A1F
:105DE400FFE43E90140CF0A3EFF0A3742BF0A37423
:105DF40012025E79901405E075F032A4FBAAF02437
:105E040018FFE43AFEC006C007901404E075F032AF
:105E1400A4FFAEF02460FDE43EFCEB2442FBE43A34
:105E2400FAEF248AFFE43E90140CF0A3EFF0A3747D
:105E340084F0A37430803E901405E075F032A4FB26
:105E4400AAF02418FFE43AFEC006C007901404E048
:105E540075F032A4FFAEF02460FDE43EFCEB244276
:105E6400FBE43AFAEF248AFFE43E90140CF0A3EF2B
:105E7400F0E4A3F0A3F0D007D00612EA9690140938
:105E840074FFF0A374DAF0A3748EF0901404E07538
:105E9400F008A42491F582E43414F583C083C0820D
:105EA400901405E0D082D08375F002121AA9E0FFA5
:105EB400A3E090140CCFF0A3EFF07B017A1379EBFD
:105EC4001252767B017A1379EB12EDE8AD07901448
:105ED40005E075F032A4242DFBE435F0FAED75F0FD
:105EE40004A4FFC3EB9FFFEA95F0FEC006C0079031
:105EF4001404E075F032A4246DFDE435F0FC7B015C
:105F04007A1379EB74FF90140DF0A3F0A374A6F048
:105F1400A37451F0A37410F0A37401F0D007D00659
:105F240012D2BB8049901405E075F032A4FBAAF0AC
:105F34002418FFE43AFEC006C007901404E075F08C
:105F440032A4FFAEF02460FDE43EFCEB2442FBE40B
:105F54003AFAEF248AFFE43E90140CF0A3EFF0A386
:105F640074A6F0A37451F0D007D00612EA969014E8
:105F740005E004F0025B2C901404E004F0025B19C9
:015F840022FA
:10A3B3007F187EC612E0F37BFF7A71796F9013EFFB
:10A3C300E4F0A37438F0A3E4F0A37408F0A374FCDE
:10A3D300F0A37407F074FFA3F0A3F0A37401F07F5C
:10A3E300041248C69013F17401F0A37425F0E4A39A
:10A3F300F0A3F07BDDFA7D5BFC7F13FE12BE4B9076
:10A40300140C7401F0A37424F0A374A6F0A3745184
:10A41300F07BDC7A007D5C7C007F147E0012EA9680
:10A423007BFF7ADA7991E490140DF0A3F0A374C65C
:10A43300F0A37418F0A37410F0A37401F07D327CC0
:10A44300007F147E0012D2BB7BFF7ADA7998E49006
:10A45300140DF0A3F0A374C6F0A37418F0A3741042
:10A46300F0A37401F07D447C007F147E0012D2BB04
:10A47300E49013E9F09013E9E0FFC394057480942A
:10A48300805059EF75F032A4245CFDE435F0FC9064
:10A4930013FBF0A3EDF0A37454F0A37458F07BDC2A
:10A4A3007A007F147E0012966D9013E9E075F03206
:10A4B300A42414FFE435F0FEAB07FA9013FB7401F8
:10A4C300F0A37424F0A37454F0A37458F07D5C7C5F
:10A4D3000012966D9013E9E004F08099E49013E97B
:10A4E300F09013E9E0C39404748094805066E4A36D
:10A4F300F09013EAE0FFC3940474809480504DEF0E
:10A5030075F032A4FBAAF02417FFE43AFEC006C09C
:10A51300079013E9E075F032A4FFAEF0245FFDE489
:10A523003EFCEB2443FBE43AFAEF248BFFE43E903A
:10A5330013F1F0A3EFF0A3747DF0A314F0D007D0D0
:10A543000612BE4B9013EAE004F080A59013E9E0F5
:10A5530004F0808D12C36512CE83125B1402E28B6A
:10BD6300E49013E9F0EF249F606324FE60271460DE
:10BD73006924F2601514607C24FC606B2406600364
:10BD830002BE07E490148EF0807A12E9AD12CE83DE
:10BD9300125B14803390148EE06404701404F090EA
:10BDA3001490E025E0F090148FE033F012CDE6809C
:10BDB3001790148EE0FF64036005EF6402700912AC
:10BDC300E9AD12CE83125B1412E28B803790148E8E
:10BDD300E06401702F126A5A802590148EE064018A
:10BDE3007022126DE5801890148EE06401701512B4
:10BDF30074EF800B90148EE06401700812786090E9
:10BE030013E9EFF09013E9E0603D12C72612B68FF5
:10BE1300EF600690148E7403F090148CE0FEA3E0A0
:10BE2300FF90148AE0FCA3E0FDD39FEE6480F8EC5E
:10BE33006480984006A3ECF0A3EDF012CDE612CE99
:07BE430083125B1412E28B75
:01BE4A0022D5
:10C4E900900003E0FF900002E0FE6F700302C5A018
:10C4F900EE25E024ADF582E4340FF583E070389041
:10C509000002E025E024ACF582E4340FF583E02451
:10C51900F4601E24FE601C24FA6012146017146073
:10C529000E24FD6006240870678048804A804C808C
:10C539004E805080528054900002E0FF25E024ADE7
:10C54900F582E4340FF583E064017044EF25E024BB
:10C55900ACF582E4340FF583E0603024DD602824F3
:10C56900F9602024FD601424FE600C24B7601024B7
:10C579004D701D7F7780167F7380127F61800E7FDB
:10C5890064800A7F7180067F7280027F6312BD63B7
:10C59900900002E004F022E4900003F0900002F021
:01C5A900226F
:10CD45006D656469756D0020736C6F7720002066D2
:10CD550061737420002538640020202020202020C5
:10CD6500202020596F752057696E20212020202012
:10CD750020202020200020202020202020202047A7
:10CD8500616D65204F7665722021202020202020AE
:10CD9500202000202020202020202020202050613D
:10CDA50075736520202020202020202020202000B1
:10CDB50020202020202020202020204E6F726D6111
:10CDC5006C20202020202020202020200042657378
:10CDD50074203A0053636F72653A00537065656459
:01CDE500004D
:04C803004115560085
:0B000E009013ECEBF0A3EAF0A3E9F084
:10001900A3E0F9A3E0FAA3E0A3C980719013F2E089
:10002900FBA3E0FAA3E0F9EA494B606A121749FF1A
:10003900AEF09013ECE0FBA3E0FAA3E0F912174944
:10004900B50735E5F0B506309013F2E0FBA3E0FA09
:10005900A3E0F9900002121774FFAEF09013ECE0E0
:10006900FBA3E0FAA3E0F9900002121774B50708A0
:10007900E5F0B506037F01229013F2E0FBA3E0FA55
:10008900A3E0F9900007121AD59013F2EBF0A3EA56
:08009900F0A3E9F080867F006E
:0100A100223C
:108F560090155EE4F0A37402F07F0A7E0012C1CC85
:108F6600AA06A9079015647401F0A3EAF0A3E9F034
:108F76007B007A007900C003C002C001901564E04E
:108F8600FBA3E0FAA3E0F9900004121B0512E2D855
:108F96007C007D0A1216E7ED2405FFE43CF99015E6
:108FA60064E0FBA3E0FAA3E0C98FF01217E412E233
:108FB600D87C007D0A1216E7ED2405FFE43CFE90FE
:108FC6001564E0FBA3E0FAA3E0F9900002EE8FF04F
:108FD6001218037F0A7E0012C1CCAA06A9079013B5
:108FE600EB7401F0A3EAF0A3E9F0901564E0FBA3AB
:108FF600E0FAA3E0F9C003C002C0019013EBE0FB66
:10900600A3E0FAA3E0F9900004121B057B007A00A6
:109016007900C003C002C0019013EBE0FBA3E0FAA5
:10902600A3E0F9900007121B0512E2D87C007D042C
:109036001216E7EC6003029189ED14605214700376
:109046000290E714700302913624036003029189AB
:10905600E490155DF0901564E0FBA3E0FAA3E0F957
:10906600121749FF9013EBE0FBA3E0FAA3E0F9E542
:10907600F08FF01217E4901564E0FBA3E0FAA3E08A
:10908600F99000021217742401FFE435F0803F9036
:10909600155D7401F0901564E0FBA3E0FAA3E0F916
:1090A600121749FF9013EBE0FBA3E0FAA3E0F9E502
:1090B600F08FF01217E4901564E0FBA3E0FAA3E04A
:1090C600F990000212177424FFFFE5F034FFFE90BA
:1090D60013EBE0FBA3E0FAA3E0F9900002EE0291A5
:1090E6008490155D7402F0901564E0FBA3E0FAA38A
:1090F600E0F91217492401FFE435F0F99013EBE08B
:10910600FBA3E0FAA3E0C98FF01217E4901564E020
:10911600FBA3E0FAA3E0F9900002121774FF901384
:10912600EBE0FBA3E0FAA3E0F9900002E5F0804E45
:1091360090155D7403F0901564E0FBA3E0FAA3E0DC
:10914600F912174924FFFFE5F034FFF99013EBE01D
:10915600FBA3E0FAA3E0C98FF01217E4901564E0D0
:10916600FBA3E0FAA3E0F9900002121774FF901334
:10917600EBE0FBA3E0FAA3E0F9900002E5F08FF044
:109186001218039013EBE0FBA3E0FAA3E0F9C00387
:10919600C002C001901564E0FBA3E0FAA3E0F990D9
:1091A6000007121B059013EBE0F9A3E0FAA3E09089
:0A91B6001567C9F0A3EAF0A3E9F081
:0191C000228C
:10E5220012E2D87C007D141216E7901560ECF0A37D
:10E53200EDF012E2D87C007D141216E7901562EC21
:10E54200F0A3EDF0A3E0F9A3E0FAA3E09013EFC982
:10E55200F0A3EAF0A3E9F07B017A15796012000ECC
:04E56200EF70BD2277
:10D47700D390155FE0940390155EE09400403690DA
:10D487001564E0FBA3E0FAA3E0F9900007121AD5B0
:10D49700900007121AD59013EFEBF0A3EAF0A3E977
:10D4A700F0901564E0FBA3E0FAA3E0F912000EEF99
:10D4B70060037F0122901564E0FBA3E0FAA3E0F983
:10D4C700121749FFAEF0C3EE64809480400BD3EF90
:10D4D7009413EE6480948040037F0122900002122F
:10D4E7001774FFAEF0C3EE64809480400BD3EF94C3
:0ED4F70013EE6480948040037F01227F0022A8
:10DF9800E49013EAF0901557F0A3F090155B740223
:10DFA800F0128F5612E522C3901559E064809480D0
:10DFB8005009E4F0A3F09013EA04F090155CE0FF38
:10DFC8007E00C374809480400AD3EF9403748094D5
:10DFD80080400A90155C7401F09013EAF09013EAFF
:06DFE800E0600312CDE62B
:01DFEE002210
:10DF400090155CE0601824FE602504704A7BFF7A1F
:10DF5000CD794590140D74BCF0A3744080207BFFF4
:10DF60007ACD794C90140D74FFF0A374E0800F7B90
:10DF7000FF7ACD795390140D74FCF0A37407F0A3CD
:10DF800074A6F0A37451F0A37410F0E4A3F07D43E1
:08DF9000FC7FA5FE12D2BB22AA
:10CF1F0090140974FFF0A374CDF0A3745AF0901518
:10CF2F0059E0FFA3E090140CCFF0A3EFF07B017A50
:10CF3F001379EC1252767B017A1379EC90140D74FD
:10CF4F002BF0A37412F0A374C6F0A37418F0A3749B
:10CF5F0010F0E4A3F07D32FC7F44FE12D2BB90149C
:10CF6F000974FFF0A374CDF0A3745AF0901557E035
:10CF7F00FFA3E090140CCFF0A3EFF07B017A1379AD
:10CF8F00EC1252767B017A1379EC90140D742BF01E
:10CF9F00A37412F0A374C6F0A37418F0A37410F066
:0CCFAF00E4A3F07D44FC7F44FE02D2BBF2
:10DEE60090155BE014602914601614600B147049D9
:10DEF6007BFF7ACD795E800E7BFF7ACD797B8006BB
:10DF06007BFF7ACD799890140D74F8F0A3E4800F16
:10DF16007BFF7ACD79B590140D74BCF0A37440F0F4
:10DF2600A374C6F0A37418F0A3740CF0E4A3F07DF8
:0ADF36002C7C017F24FE12D2BB22D6
:08CBFE00E0FBA3E0FAA3E0F95B
:10CC06009013EFECF0A3EDF09013ECEBF0A3EAF049
:10CC1600A3E9F0121749FFAEF07C007D0A121680D8
:10CC2600EF2415FFE43EFEC006C00790000212176F
:10CC360074FFAEF0121680EF245DFDE43EFCC004E6
:10CC4600C005121749FFAEF07C007D0A121680EF70
:10CC5600241DFBE43EFAC002C0039013ECE0FBA3E4
:10CC6600E0FAA3E0F9900002121774FFAEF0121674
:10CC760080EF2465FFE43E90140CF0A3EFF09013D0
:10CC8600EFE0FFA3E090140ECFF0A3EFF0D003D0B7
:0CCC960002D005D004D007D00602EA96B8
:109A7900901564E0FBA3E0FAA3E0F9900007121A3D
:109A8900D59013EAEBF0A3EAF0A3E9F0901560E0B2
:109A9900FEA3E0FF7C007D0A121680AA06AB07EB45
:109AA9002415FFE43AFEC006C007A3E0FEA3E0FFC9
:109AB900121680EF245DFDE43EFCEB241DFBE43A25
:109AC900FAEF2465FFE43E90140CF0A3EFF0A374C1
:109AD90007F0A374E0F0D007D00612EA9690156457
:109AE900E0FBA3E0FAA3E0F9121749FFAEF0C3EED9
:109AF900648094805003029BAFEF9414EE648094C9
:109B0900804003029BAF900002121774FFAEF0C3AE
:109B1900EE648094805003029BAFEF9414EE64804E
:109B290094804003029BAF121749FFAEF07C007D81
:109B39000A121680EF2415FFE43EFEC006C0079006
:109B49000002121774FFAEF0121680EF245DFDE4D7
:109B59003EFCC004C005121749FFAEF07C007D0A27
:109B6900121680EF241DFBE43EFAC002C0039015D3
:109B790064E0FBA3E0FA900002121774FFAEF01242
:109B89001680EF2465FFE43E90140CF0A3EFF0A3D8
:109B99007401F0A374CFF0D003D002D005D004D063
:109BA90007D00612EA969013EAE0FBA3E0FAA3E0D5
:109BB900F9EA494B7003029C60121749FFAEF07C29
:109BC900007D0A121680EF2415FFE43EFEC006C090
:109BD90007900002121774FFAEF0121680EF245D91
:109BE900FDE43EFCC004C005121749FFAEF07C003D
:109BF9007D0A121680EF241DFBE43EFAC002C00361
:109C09009013EAE0FBA3E0FA900002121774FFAE8A
:109C1900F0121680EF2465FFE43E90140CF0A3EFD8
:109C2900F0A37454F0A37458F0D003D002D005D037
:109C390004D007D00612EA969013EAE0FBA3E0FAF3
:109C4900A3E0F9900007121AD59013EAEBF0A3EA02
:079C5900F0A3E9F0029BAF4C
:019C600022E1
:107EF70090155BE0640160030281F47F0AFE12C102
:107F0700CCAA06A9079013E97401F0A3EAF0A3E944
:107F1700F07B007A007900C003C002C0019013E92A
:107F2700E0FBA3E0FAA3E0F9900004121B0590150B
:107F37005DE014604E147003027FD5147003028055
:107F47001F2403600302806B901564E0FBA3E0FA33
:107F5700A3E0F9121749FF9013E9E0FBA3E0FAA3A6
:107F6700E0F9E5F08FF01217E4901564E0FBA3E069
:107F7700FAA3E0F990000212177424FFFFE5F0342A
:107F8700FF8038901564E0FBA3E0FAA3E0F912172D
:107F970049FF9013E9E0FBA3E0FAA3E0F9E5F08FCE
:107FA700F01217E4901564E0FBA3E0FAA3E0F99060
:107FB70000021217742401FFE435F0FE9013E9E084
:107FC700FBA3E0FAA3E0F9900002EE0280669015A9
:107FD70064E0FBA3E0FAA3E0F912174924FFFFE5E9
:107FE700F034FFF99013E9E0FBA3E0FAA3E0C98FAF
:107FF700F01217E4901564E0FBA3E0FAA3E0F99010
:108007000002121774FF9013E9E0FBA3E0FAA3E064
:10801700F9900002E5F08047901564E0FBA3E0FAD1
:10802700A3E0F91217492401FFE435F0F99013E9A9
:10803700E0FBA3E0FAA3E0C98FF01217E490156400
:10804700E0FBA3E0FAA3E0F9900002121774FF9097
:1080570013E9E0FBA3E0FAA3E0F9900002E5F08F53
:10806700F01218039013E9E0FBA3E0FAA3E0F9C0CC
:1080770003C002C001901564E0FBA3E0FAA3E0F996
:10808700900004121B05901564E0FBA3E0FAA3E03F
:10809700F9C003C002C0019013E9E0FBA3E0FAA313
:1080A700E0F9900007121B059013E9E0F9A3E0FA45
:1080B700A3E0901564C9F0A3EAF0A3E9F09013E9EF
:1080C700E0FBA3A3E0F9121749FF901560E065F004
:1080D7007003A3E06F7079900002121774FF901578
:1080E70062E065F07003A3E06F706590155E75F050
:1080F7000112171DAFF0FEBE010EBF900B90155B6E
:108107007404F012DEE6801012E5227B017A1579FD
:10811700607DE07C0712CC06901558E0240AF090A9
:108127001557E03400F0901559E0FEA3E0FF9015D5
:1081370057E0FCA3E0FDD39FEE6480F8EC648098E1
:108147004009A3ECF0A3EDF012CDE612CF1F806C2F
:108157009015677D517CA612CBFE901567E0F9A3B9
:10816700E0FAA3E09013E9C9F0A3EAF0A3E9F07BF2
:10817700007A007900C003C002C001901567E0FBD8
:10818700A3E0FAA3E0F9900004121AD590000712B1
:108197001B05901567E0FBA3E0FAA3E0F990000444
:1081A700121AD5901567EBF0A3EAF0A3E9F0901344
:1081B700E9A3E0FAA3E0AE02FF12AF79901564E0FD
:1081C700FBA3E0FAA3E0F9900007121AD57D587CCB
:1081D7005412CC0612D477EF600990155B7403F044
:0D81E70002DEE69015647DCF7C0112CBFE18
:0181F4002268
:10D2230080749013E9E0FBA3E0FAA3E0F9EA494B29
:10D23300607C121749FFAEF0C3EE64809480402CEB
:10D24300EF9414EE648094805022900002121774BD
:10D25300FFAEF0C3EE648094804011EF9414EE644B
:10D2630080948050077D517CA612CC06901564E013
:10D27300FBA3E0FAA3E0F9900007121AD590156416
:10D28300EBF0A3EAF0A3E9F09013E9A3E0FAA3E03B
:10D29300AE02FF12AF79901564E0F9A3E0FAA3E0C0
:10D2A3009013E9C9F0A3EAF0A3E9F002D22590159F
:07D2B30067E4F0A3F0A3F013
:01D2BA002251
:0DEF1D007B017A1579607D517CA602CC063F
:10EB4A00E4901557F0A3F012D223128F5612EF1D3C
:10EB5A0012E52290155B7401F012CF1F129A790206
:02EB6A00DEE6E5
:10A563007F187EC612E0F37BFF7A73796F9013EF47
:10A57300E4F0A37448F0A3E4F0A37408F0A3E4F0B8
:10A58300A3741FF074FFA3F0A3F0A37401F07F037F
:10A593001248C69013F17401F0A37425F0E4A3F0FC
:10A5A300A3F07BDDFA7D5BFC7F13FE12BE4B9014A0
:10A5B3000C7401F0A37424F0A374A6F0A37451F0F7
:10A5C3007BDC7A007D5C7C007F147E0012EA967B44
:10A5D300FF7ACD79D2E490140DF0A3F0A374C6F002
:10A5E300A37418F0A37410F0A37401F07D327C00FF
:10A5F3007F147E0012D2BB7BFF7ACD79D9E490140D
:10A603000DF0A3F0A374C6F0A37418F0A37410F0B4
:10A61300A37401F07D447C007F147E0012D2BB90B2
:10A62300140CE4F0A37454F0A374A6F0A37451F0D3
:10A633007BDC7A007D327C007F9E7E0012EA96905E
:10A6430013FBE4F0A37441F0A37484F0A37430F01B
:10A653007BD87A007D417C007FA27E0012966D7BC1
:10A66300FF7ACD79E0E490140DF0A3F0A374A6F083
:10A67300A37451F0A3740CF0A37401F07D347C0037
:10A683007FAE7E0012D2BBE49013E9F09013E9E0B1
:10A69300FFC39415748094805057EF75F00AA42477
:10A6A3005CFDE435F0FC9013FBF0A3EDF0A3747DA7
:10A6B300F0A314F07BDC7A007F147E0012966D9079
:10A6C30013E9E075F00AA42414FFE435F0FEAB07A8
:10A6D300FA9013FB7401F0A37424F0A3747DF0A328
:10A6E30014F07D5C7C0012966D9013E9E004F08019
:10A6F3009B12DF9812DF4012CF1F129A7902DEE617
:10C01300EF121B5EC0DA00C0E001C0E702C0396165
:10C02300C0B063C05864C03672C09373C0777700E2
:10C0330000C0F302C0D790155BE06401600302C047
:10C04300F390155DE060076401600302C0F390158F
:10C053005D7402F02290155BE06401600302C0F39B
:10C0630090155DE060076401600302C0F390155D05
:10C073007403F02290155BE06401707490155DE029
:10C08300FF64026005EF64037066E490155DF022BF
:10C0930090155BE06401705890155DE0FF640260E9
:10C0A30005EF6403704A90155D7401F02290155BEF
:10C0B300E0640170047402800990155BE06402700F
:10C0C3000504F002DEE690155BE0FF64046005EF13
:10C0D3006403701C02EB4AE490155C800C90155CC1
:10C0E3007401800590155C7402F012DF4012CDE6F6
:01C0F300222A
:10BC7A00900003E0FF900002E0FE6F700302BD59DE
:10BC8A00EE25E024ADF582E4340FF583E0704990A7
:10BC9A000002E025E024ACF582E4340FF583E012DB
:10BCAA001B5EBCDC04BCDE05BCE006BCD60CBCD802
:10BCBA000EBCCE11BCD214BCDA15BCD416BCD01939
:10BCCA000000BD528059805B805D805F8061806327
:10BCDA00806580678069806B900002E0FF25E02420
:10BCEA00ADF582E4340FF583E06401705BEF25E083
:10BCFA0024ACF582E4340FF583E0121B5EBD4100EB
:10BD0A00BD4504BD4905BD4D06BD3D23BD392ABD0E
:10BD1A00292BBD312DBD2D2FBD35780000BD527F99
:10BD2A007780227F73801E7F61801A7F6480167FEE
:10BD3A007180127F72800E7F63800AE4FF80067F23
:10BD4A000180027F0212C013900002E004F022E494
:09BD5A00900003F0900002F022B9
:10E1ED00900FABE06049E4F090155CE014601814FA
:10E1FD00602624027039901556E004F0C3940A7419
:10E20D00809480402A8020901556E004F0C3940637
:10E21D00748094804019800F901556E004F0C394DB
:0FE22D0003748094804008E4F012BC7A127EF7EC
:01E23C0022BF
:04F009007F03DFFEA4
:01F00D0022E0
:04F00E007F12DFFE90
:01F0120022DB
:04F013007F26DFFE77
:01F0170022D6
:04F018007FC6DFFED2
:01F01C0022D1
:09EF9500007F027E5ADEFEDFFC63
:01EF9E002250
:09EF9F00007F207E28DEFEDFFC6D
:01EFA8002246
:10EE6B00AD07AC0612EF9FED1D70011C144C70F436
:01EE7B002274
:07C8070044179E016E36008C
:10E97D00E4F593F594F591F592F595F596F5B1F5D8
:10E98D00B2F5B3F5B4F5C9F5CAF5CBF5CCF5E1F5AE
:10E99D00E275FF5012EFDA12ED0412EB6CC2C122D8
:10ECD200C28CD2A95389FC5389FB538FFE438E8089
:09ECE200758CA2758A40D28C22C7
:10ECEB00C28ED2AB5389CF5389BF538FFD438E4016
:09ECFB00758DD1758B20D28E229B
:10ED7E00538EE343AF04538FFB438E0475D6E87571
:06ED8E00D790438E102215
:10EDFD0053D1F043AF2043D10275D4ED75D54043C7
:03EE0D00D1082207
:10EE100053D10F43AF4043D12075D2F675D3A043F1
:03EE2000D180227C
:10EE23000102040810204080000000FFFF000000E2
:02EE33000000DD
:10ED040053B3EF43B41053B3F743B40853B3FB43C3
:09ED1400B404C2C4C2C3C2C2228D
:0DEF2A00C2C312F013D2C312F013C2C322EF
:05E5EB009013F2EFF0B7
:10E5F000E4A3F09013F3E0C3940874809480502A4D
:10E600009013F2E0548064807004D2C48002C2C4CB
:10E6100012F013C2C212F013D2C212F0139013F20E
:0AE62000E025E0F0A3E004F080C95B
:01E62A0022CD
:10E148009013EBEBF0A3EAF0A3E9F0A3ECF0A3ED56
:01E15800F0D6
:10E15900E4A3F0A3F09013EEE0FEA3E0FFA3E0FC3C
:10E16900A3E0FDC39FEC9E50269013EBE0FBA3E0D8
:10E17900FAA3E0F98D828C8312161FFF12E5EB904A
:10E1890013F1E004F070CE9013F0E004F080C602C1
:02E19900EF2A6B
:10EB6C0078E97C137D017BFF7AEE792B7E007F02A6
:10EB7C001215E07B017A1379E97D027C0002E148F1
:10EB8C0078D37C177D017BFF7AEE792D7E007F0296
:10EB9C001215E07B017A1779D37D027C0002E148E3
:10EBAC0078D57C177D017BFF7AEE792F7E007F0272
:10EBBC001215E07B017A1779D57D027C0002E148C1
:05E325009017CAEFF0A3
:10E32A0078CB7C177D017BFF7AEE79317E007F0204
:10E33A001215E09017CAE0FFD394077480948040C6
:10E34A000BEF90EE1B939017CBF0800C9017CAE05E
:10E35A0090EE23939017CCF07B017A1779CB7D024C
:05E36A007C0002E14807
:10EBCC0078D77C177D017BFF7AEE79337E007F024C
:10EBDC001215E07B017A1779D77D027C0002E1489F
:08C80E004117D9FE4117DA00C1
:09EFD10053B3FE43B401C2C02297
:09EFDA0053B3FE43B401D2C0227E
:10DFEF009017D9E0FF7E00647F7011A3E070047D6D
:10DFFF000180027D009017DAEDF08019EF64FE4E7C
:10E00F0070139017DAE0600D70047F0180027F00BB
:10E01F009017DAEFF09017D9E0FFF5E8A3E070085A
:10E02F00EF25E04401FF80099017D9E0C313448026
:06E03F00FF9017D9EFF07D
:01E0450022B8
:03F0220002EBAC52
:0ECFBB0090171CEFF0A3EBF0A3EAF0A3E9F04F
:10CFC900C3740F9F901723F0AE02901720A3E0FAC5
:10CFD900A3E0C399FFEA9EFE90171CE0FDC3740805
:10CFE9009DFDE49400FCD3EF9DEC6480F8EE648031
:10CFF900985059901720E0FBA3E0FAA3E0F9C00389
:10D00900C002C00190171DA3E0FAA3E0F9C3D082C2
:10D01900D083D0E0E99582EA95835030901723E0D8
:10D02900FF12E32590171DE0FBA3E0FAA3E0F91234
:10D039001606F5E812EF9F12EBCC901723E014F0D7
:0CD0490090171EE475F00112171D80A75F
:01D0550022B8
:0ED80100901744EBF0A3EAF0A3E9F0A3EDF0DA
:10D80F00901749740FF0901749E0FFC39408748084
:10D81F009480405012E325901749E0FFC3740F9F87
:10D82F00FFE49400FE901748E07C002FFFEC3EFED3
:10D83F00901747E0FD12169290174AEDF09017449B
:10D84F00E0FBA3E0FAA3E0F990174AE0F5827583B5
:10D85F000012161FF5E812EF9F12EBCC901749E05C
:04D86F0014F080A28F
:01D873002292
:10C816005215B8C0F9A4B0999282F880908883C660
:05C82600A1868EBFFF9A
:10EC2A0012EB8CE4F5CB75CCFF75E8FF53937F4369
:0DEC3A009480D2875395FD439602D2A1220B
:06A0270090168B121A6C6A
:10A02D0090168F7406F090168BE0FCEC339016971B
:10A03D0040057411F0801A7410F090168BE0FCA39B
:10A04D00E0FDA3E0FEA3E0FF12194D90168B121A4E
:10A05D006CE47B0AFAF9F890168BE0FCA3E0FDA303
:10A06D00E0FEA3E0FF12E566901690EBF0E47B0AAC
:10A07D00FAF9F890168BE0FCA3E0FDA3E0FEA3E057
:10A08D00FF12E566E47B0AFAF9F812E5669016917F
:10A09D00EBF0E47B64FAF9F890168BE0FCA3E0FD9D
:10A0AD00A3E0FEA3E0FF12E566E47B0AFAF9F812DD
:10A0BD00E566901692EBF0E47BE87A03F9F89016DA
:10A0CD008BE0FCA3E0FDA3E0FEA3E0FF12E566E458
:10A0DD007B0AFAF9F812E566901693EBF0E47B1023
:10A0ED007A27F9F890168BE0FCA3E0FDA3E0FEA320
:10A0FD00E0FF12E566E47B0AFAF9F812E5669016C0
:10A10D0094EBF07BA07A867901780090168BE0FCB9
:10A11D00A3E0FDA3E0FEA3E0FF12E566E47B0AFAEF
:10A12D00F9F812E566901695EBF07B407A42790FBF
:10A13D00780090168BE0FCA3E0FDA3E0FEA3E0FF0A
:10A14D0012E566E47B0AFAF9F812E566901696EBCD
:10A15D00F090168FE0FF3395E0FE74902FF582742A
:10A16D00163EF583E0701A90168FE014F0EF3395DC
:10A17D00E0FE74902FF58274163EF5837411F08015
:10A18D00D090168BE0FCA3E0FDA3E0FEA3E0FFEC76
:10A19D004D4E4F7004901690F090168F7407F090FE
:10A1AD00168FE0FF3395E0C364809480403512E351
:10A1BD002590168FE0FF3395E0FE74902FF5827495
:10A1CD00163EF583E024B8F582E43415F583E0F509
:10A1DD00E87F027E0012EE6B12EBCC90168FE0142E
:03A1ED00F080BC43
:01A1F000224C
:0BDA9F00901761EBF0A3EAF0A3E9F0A0
:10DAAA00EFC39408748094805057C374089FFEA3F0
:10DABA00E0FDD39E504BC374089FC39DA3F09017FB
:10DACA0064E0FF14F0EF6039A3E0FF12E32590173A
:10DADA0061E0FBA3E0FAA3E0F9A3E0F58275830015
:10DAEA0012161F24B8F582E43415F583E0F5E87FB1
:10DAFA00027E0012EE6B12EBCC901765E004F08008
:01DB0A00BD5D
:01DB0B0022F7
:10EE7C00000102000300000004000000000000007C
:10C82B00411542FF511543002B0908072D0605043E
:08C83B00780302012F23002AFB
:10D3E500901555E0FC75F8F07E3CDEFEE5F854F04E
:10D3F500901555F075F80F7E3CDEFE901555E0FE54
:10D40500E5F8540FFDEE4DF0E0F4F06C706090150A
:10D4150041E0FC901555E0901541F0604CC2D5EC0B
:10D425007004D2D5801B901541E0B50414901554B5
:10D43500E004F0C394147480948040057412F0D213
:10D44500D530D52A901541E0FFC4540F90EE7C935A
:10D45500FC601BEF540F93FF6014EC1425E025E0EE
:10D46500FEEF2E901542F08005E4901554F075F806
:01D47500FFB7
:01D476002293
:03F025002564005F
:10ED940075E8FFC293D290C291C291D291E5E82066
:05EDA400E7FBAFE822CF
:10E6E7009017EDEFF0C291D293C290F5E87F017ECB
:10E6F7000012EE6BD2917F057E0012EE6BC29190F5
:10E7070017EDE0C454F0F5E87F017E0012EE6BD2FE
:0BE71700917F057E0012EE6BC2912284
:10E722009017EEEFF0C291C293C290F5E87F017E9E
:10E732000012EE6BD2917F057E0012EE6BC29190B9
:10E7420017EEE0C454F0F5E87F017E0012EE6BD2C2
:0BE75200917F057E0012EE6BC2912249
:0DEF3700D293D290C291C291D291AFE82244
:10DE2F00E4F5E85391F74392085391FE439201535F
:10DE3F0091FD439202F5CB75CCFF7F3812E7227F1D
:10DE4F00057E0012EE6B7F3812E7227F057E0012EF
:10DE5F00EE6B7F3812E7227F057E0012EE6B7F326A
:10DE6F0012E7227F2812E7227F0C12E7227F061289
:0CDE7F00E7227F0112E7227F8002E722E9
:0CEF51007F0112E7227F027E0002EE6BBF
:10EB04009017EFEBF0ED5401FDEF540FFFED6004AF
:10EB1400EF4440FFEF4480FF12E7229017EFE0FF3D
:03EB240002E6E71F
:10DCAB0090174BEFF0A3EDF0A3EBF0A3EAF0A3E991
:01DCBB00F078
:10DCBC0012EDE8901750EFF090174CE05401F090F3
:10DCCC00174BE0540FF0E4901751F0901750E0FF11
:10DCDC00A3E0FEC39F502B90174BE0FFA3E0FDA3E6
:10DCEC00E0FBA3E0FAA3E0F98E8275830012161F05
:10DCFC00FB12EB0490174BE004F0901751E004F08A
:02DD0C0080C9CC
:01DD0E0022F2
:0CE36F0090156AEFF0A3EDF0AF03AE02D2
:10E37B007B017A15796C90157BEBF0A3EAF0A3E99E
:10E38B00F090140974FFF0A374F0F0A37425F0A3BC
:10E39B00EEF0A3EFF012527690156AE0FFA3E0FDCA
:0EE3AB0090157BE0FBA3E0FAA3E0F902DCABE7
:0CEF5D0090FE82E030E6F9E054BFF022A4
:10EC9C0043912043922043911043921043BA8090A9
:0BECAC00FE8074E0F090FE82E4F02295
:09EFE30090FE817401F002EF5D63
:09EFEC0090FE817406F002EF5D55
:0EEAE00012EFE312EEE512EAEEAF0512EEE5DC
:10EAEE0090FE817403F012EF5D90FE82E030E10340
:06EAFE007F01227F0022CF
:0EEED70090FE82E4F090FE817405F002EF5D83
:0FEE8C0090FE827401F090FE817405F002EF5D3C
:0EEEE50090FE86EFF090FE817402F002EF5D69
:0FEE9B0090FE817404F012EF5D90FE87E0FF227D
:10E80B00AE0712EAE012EFE3EE4401FF12EEE5125F
:10E81B00EAEE12EE9BEF12164C740129F9E43AFA68
:10E82B0090176BE06401600312EED790176BE01446
:09E83B00F070DF12EE8C02EFEC2C
:10E8B30090176EEBF0A3EAF0A3E9F012EAE09017E9
:10E8C3006EE0FBA3E475F001121733A9F0FA1216F8
:10E8D30006FF12EEE512EAEE901771E014F070DE17
:03E8E30002EFEC55
:103ECE0025640000000000003E5B4F5B3E3E6B4FE2
:103EDE006B3E1C3E7C3E1C183C7E3C181C577D578E
:103EEE001C1C5E7F5E1C00183C1800FFE7C3E7FF3A
:103EFE000018241800FFE7DBE7FF30483A060E26CD
:103F0E0029792926407F050507407F05253F5A3C24
:103F1E00E73C5A7F3E1C1C08081C1C3E7F14227F67
:103F2E0022145F5F005F5F06097F017F006689953F
:103F3E006A606060606094A2FFA29408047E040828
:103F4E0010207E201008082A1C08081C2A08081EAB
:103F5E00101010100C1E0C1E0C30383E3830060E91
:103F6E003E0E06000000000000005F00000007008B
:103F7E000700147F147F14242A7F2A122313086447
:103F8E006236495620500008070300001C224100EB
:103F9E000041221C002A1C7F1C2A08083E0808002B
:103FAE0080703000080808080800006060002010CB
:103FBE000804023E5149453E00427F400072494985
:103FCE0049462141494D331814127F102745454566
:103FDE00393C4A4949314121110907364949493687
:103FEE00464949291E00001400000040340000001C
:103FFE00081422411414141414004122140802014E
:10400E005909063E415D594E7C1211127C7F494979
:10401E0049363E414141227F4141413E7F49494916
:10402E00417F090909013E414151737F0808087F0C
:10403E0000417F41002040413F017F081422417F13
:10404E00404040407F021C027F7F0408107F3E41AB
:10405E0041413E7F090909063E4151215E7F091902
:10406E002946264949493203017F01033F4040401A
:10407E003F1F2040201F3F4038403F631408146309
:10408E0003047804036159494D43007F41414102C5
:10409E0004081020004141417F0402010204404007
:1040AE00404040000307080020545478407F2844C5
:1040BE0044383844444428384444287F38545454AF
:1040CE001800087E090218A4A49C787F08040478BE
:1040DE0000447D40002040403D007F1028440000F9
:1040EE00417F40007C047804787C080404783844CE
:1040FE00444438FC1824241818242418FC7C080482
:10410E000408485454542404043F44243C404020A2
:10411E007C1C2040201C3C4030403C44281028444D
:10412E004C9090907C4464544C44000836410000FE
:10413E0000770000004136080002010204023C260E
:10414E0023263C1EA1A161123A4040207A385454D5
:10415E00555921555579412154547841215554785A
:10416E004020545579400C1E5272123955555559EE
:10417E00395454545939555454580000457C410013
:10418E0002457D420001457C40F0292429F0F028AB
:10419E002528F07C545545002054547C547C0A0943
:1041AE007F4932494949323248484832324A4848B2
:1041BE00303A4141217A3A42402078009DA0A07DBC
:1041CE0039444444393D4040403D3C24FF2424487A
:1041DE007E4943662B2FFC2F2BFF0929F620C08822
:1041EE007E090320545479410000447D41304848F3
:1041FE004A32384040227A007A0A0A727D0D19310D
:10420E007D2629292F28262929292630484D402068
:10421E00380808080808080808382F10C8ACBA2F44
:10422E00102834FA00007B000008142A14222214ED
:10423E002A1408AA005500AAAA55AA55AA000000D9
:10424E00FF00101010FF00141414FF001010FF00D8
:10425E00FF1010F010F0141414FC001414F700FFEB
:10426E000000FF00FF1414F404FC141417101F10A8
:10427E00101F101F1414141F00101010F000000057
:10428E00001F101010101F10101010F01000000062
:10429E00FF101010101010101010FF10000000FF73
:1042AE00140000FF00FF00001F10170000FC04F4B4
:1042BE0014141710171414F404F40000FF00F7146C
:1042CE00141414141414F700F714141417141010F3
:1042DE001F101F141414F4141010F010F000001F0F
:1042EE00101F0000001F14000000FC140000F0104E
:1042FE00F01010FF10FF141414FF141010101F00F4
:10430E00000000F010FFFFFFFFFFF0F0F0F0F0FFF5
:10431E00FFFF0000000000FFFF0F0F0F0F0F3844CC
:10432E004438447C2A2A3E147E02020606027E028D
:10433E007E0263554941633844443C04407E201E4E
:10434E002006027E020299A5E7A5991C2A492A1C7D
:10435E004C7201724C304A4D4D303048784830BC6A
:10436E00625A463D3E494949007E0101017E2A2A94
:10437E002A2A2A44445F444440514A444040444A15
:10438E0051400000FF0103E080FF000008086B6B46
:10439E00083612362436060F090F060000181800CC
:1043AE0000001010003040FF0101001F01011E002F
:0E43BE00191D1712003C3C3C3C0000000000A2
:10E9FF009017F0EFF012EFE37F7812EEE512EAEEE8
:10EA0F00E4FF12EEE512EAEE9017F0E0FF12EEE5EA
:06EA1F0012EAEE02EFEC2A
:10EA25009017F1EFF012EFE37F7812EEE512EAEEC0
:10EA35007F4012EEE512EAEE9017F1E0FF12EEE5E7
:06EA450012EAEE02EFEC04
:05ECB70024B0FFE4FDA4
:10ECBC009017F2EFF0ED6005E0FF02EA259017F2F5
:06ECCC00E0FF12E9FF2247
:10EA4B009017F3EFF0ED12ECB79017F3E054F0C41E
:10EA5B00540F4410FFE4FD12ECBC9017F3E0540F7D
:06EA6B00FFE4FD02ECBC1B
:10EDA900E4FD7F8D12ECBCE4FD7F1412ECBCE4FDA4
:05EDB9007FAF02ECBC7D
:10EDBE00E4FD7F8D12ECBCE4FD7F1012ECBCE4FD93
:05EDCE007FAE02ECBC69
:10E75D00E4FFEFC3940474809480502DE4FEEEC367
:10E76D00948074809480501E75F004EEA424DFF51F
:10E77D0082E5F03411F583E5822FF582E43583F5DA
:09E78D0083E4F00E80D80F80C96E
:01E796002260
:10DB0C00E49017DCF09017DCE0FFC394047480946D
:10DB1C00805057EF12ECB7E4FDFF12ECBCE4FD7F34
:10DB2C001012ECBCE49017DBF09017DBE0FFC39411
:10DB3C008074809480502BA3E0FE75F004EFA42435
:10DB4C00DFF582E5F03411F583E5822EF582E435BC
:10DB5C0083F583E0FF7D0112ECBC9017DBE004F051
:0ADB6C0080C79017DCE004F0809BF6
:01DB7600228C
:10E79700E4FEEEC3940474809480502DE4FDEDC331
:10E7A700948074809480501E75F004EDA424DFF5E6
:10E7B70082E5F03411F583E5822EF582E43583F5A1
:09E7C70083EFF00D80D80E80C92B
:01E7D0002226
:10CB53009016A8A3E0FF9016ACE075F00CA42F2B61
:0FCB6300FF9016AAA3E09016ADFEE02EFD7B0119
:10CB7200EFD3948074809480400302CBFDED942027
:10CB8200748094805075EB6037ED131313541FFEBD
:10CB920075F004EFA424DFF582E5F03411F583E5A6
:10CBA200822EF582E43583F583C083C082E0FFEDF7
:10CBB2005407FEF87401088002C333D8FC4F803654
:10CBC200ED131313541FFE75F004EFA424DFF58256
:10CBD200E5F03411F583E5822EF582E43583F583A1
:10CBE200C083C082E0FFED5407FEF87401088002A2
:0CCBF200C333D8FCF45FD082D083F02263
:0DBAA3009017A3EDF0A3EBF09017A2EFF0C9
:10BAB0003395E0C3648094805077E4FCECC3940534
:10BAC00074809480400302BB8E9017A4E075F0054B
:10BAD000A424D1F582E5F0343EF583E5822CF5828D
:10BAE000E43583F583E4939017A5F0E4F9E9FF7E4C
:10BAF00000C394087480948050349017A2E0FDFB3A
:10BB00003395E0FAEB2FEE3AC364809480401590B1
:10BB100017A5E030E00EED2CFF9017A3E029FD7B88
:10BB20000112CB729017A5E0C313F00980BF0C80FF
:10BB30008BE4FCECC394057480948050519017A45E
:10BB4000E075F005A424D1F582E5F0343EF583E5F7
:10BB5000822CF582E43583F583E4939017A5F0E415
:10BB6000F9E9C394087480948050209017A5E030C0
:10BB7000E00F9017A2E02CFFA3E029FD7B0112CB80
:0EBB8000729017A5E0C313F00980D60C80A5C3
:01BB8E002294
:10DD7300901772EFF0A3EDF0A3EBF0A3EAF0A3E9A1
:01DD8300F0AF
:10DD8400E4A3F0901774E0FBA3E0FAA3E0F9A3E0A6
:10DD9400F58275830012161FFB6032901772E0FF44
:10DDA400A3E0FD12BAA3901772E02408F0E0FF3359
:10DDB40095E0FED3EF9478EE648094804007E4F01D
:0DDDC400A3E02402F0901777E004F080B691
:01DDD100222F
:0CE7D100901600EFF0A3EDF0AF03AE02D5
:10E7DD0090140974FFF0A3743EF0A374CEF0A3EE71
:10E7ED00F0A3EFF07B017A167902125276901600A3
:0EE7FD00E0FFA3E0FD7B017A16790202DD73D6
:0E91C1009016A4EFF0A3EBF0A3EAF0A3E9F000
:1091CF00A3E0FEA3E0FFC3EE64809480400302930C
:1091DF001EC3E49FFFE49EFE7C007D0C1216E790F9
:1091EF0016ACEFF09016A4E0FF9016ACE0C39F40D2
:1091FF0003029426E4A3F09016ADE0C3940C7480A0
:10920F0094804003029315E4A3F09016AEE0FD7C2A
:10921F0000C3940C74809480400302930C9016AC9E
:10922F00E075F00CA42DFFEC35F0FE9016A8E0FCD5
:10923F00A3E0FD2FFFEC3ECF24F4CF34FFFED3EF9E
:10924F00947FEE6480948040030294269016ADE0E4
:10925F00FF9016ABE02FFF9016AAE03400CF24F456
:10926F00CF34FFFED3EF943FEE648094804003022F
:10927F0094269016ACE0F975F00CA4FFED2FFFECDF
:10928F0035F0FE9016AEE0FD7A002FEA3EC3648003
:10929F00948050028001C3405B9016ADE075F002E0
:1092AF00A4FBAAF0E975F018A42BFFE5F03AFEED48
:1092BF00131313541F7C002FFFEC3EFE9016A5E0F6
:1092CF00FBA3E0FAA3E0F98F828E8312161FFD90A5
:1092DF0016AEE0FB5407FF7E007480A807088006D7
:1092EF00CEA2E713CE13D8F8FFEE5CFEEF5D4E6013
:1092FF000312CB539016AEE004F00292199016AD04
:10930F00E004F00292069016ACE004F00291F3E450
:10931F009016ACF09016A4E0FF9016ACE0C39F40FF
:10932F0003029426E4A3F09016ADE0C3940C74806E
:10933F009480400302941DE4A3F09016AEE0FD7CF0
:10934F0000C3940C7480948040030294149016AC64
:10935F00E075F00CA42DFFEC35F0FE9016A9E02F70
:10936F00FF9016A8E03ECF24F4CF34FFFED3EF9446
:10937F007FEE6480948040030294269016ADE0FF48
:10938F00FD9016ABE02DFD9016AAE03CCD24F4CD58
:10939F0034FFFCD3ED943FEC648094805079EF75EB
:1093AF00F002A4FDACF09016ACE075F018A42DFF00
:1093BF00E5F03CFE9016AEE0131313541F7C002F04
:1093CF00FFEC3EFE9016A5E0FBA3E0FAA3E0F98FB9
:1093DF00828E8312161FFD9016AEE0FB5407FF7EA0
:1093EF00007480A807088006CEA2E713CE13D8F822
:1093FF00FFEE5CFEEF5D4E600312CB539016AEE0B6
:10940F0004F00293499016ADE004F00293369016E3
:07941F00ACE004F00293230E
:019426002223
:0E8CBC009016AFEFF0A3EBF0A3EAF0A3E9F0FF
:108CCA00A3E0FEA3E0FFC3EE648094804003028E1B
:108CDA0031C3E49FFFE49EFE7C007D101216E790EC
:108CEA0016B7EFF09016AFE0FF9016B7E0C39F40BB
:108CFA0003028F55E4A3F09016B8E0C39410748071
:108D0A0094804003028E28E4A3F09016B9E0FD7C1B
:108D1A0000C39410748094804003028E1F9016B78B
:108D2A00E075F010A42DFFEC35F0FE9016B3E0FCD0
:108D3A00A3E0FD2FFFEC3ECF24F0CF34FFFED3EFAC
:108D4A00947FEE648094804003028F559016B8E0B9
:108D5A00FF9016B6E02FFF9016B5E03400CF24F04E
:108D6A00CF34FFFED3EF943FEE6480948040030239
:108D7A008F559016B7E0F975F010A4FFED2FFFECB0
:108D8A0035F0FE9016B9E0FD7A002FEA3EC3648002
:108D9A00948050028001C340739016B8E075F002C7
:108DAA00A4FBAAF0E975F020A42BFFE5F03AFEED4A
:108DBA00131313541F7C002FFFEC3EFE9016B0E0F5
:108DCA00FBA3E0FAA3E0F98F828E8312161FFD90AF
:108DDA0016B9E0FB5407FF7E007480A807088006D6
:108DEA00CEA2E713CE13D8F8FFEE5CFEEF5D4E601D
:108DFA001B9016B3A3E0FF9016B7E0C454F02F2BD4
:108E0A00FF9016B5A3E09016B812CB6C9016B9E095
:108E1A0004F0028D149016B8E004F0028D01901649
:108E2A00B7E004F0028CEEE49016B7F09016AFE0CB
:108E3A00FF9016B7E0C39F4003028F55E4A3F0905A
:108E4A0016B8E0C39410748094804003028F4CE4F7
:108E5A00A3F09016B9E0FD7C00C39410748094804E
:108E6A004003028F439016B7E075F010A42DFFEC73
:108E7A0035F0FE9016B4E02FFF9016B3E03ECF24F3
:108E8A00F0CF34FFFED3EF947FEE648094804003EA
:108E9A00028F559016B8E0FFFD9016B6E02DFD90B2
:108EAA0016B5E03CCD24F0CD34FFFCD3ED943FEC75
:108EBA00648094804003028F55EF75F002A4FDACE4
:108ECA00F09016B7E075F020A42DFFE5F03CFE9077
:108EDA0016B9E0131313541F7C002FFFEC3EFE90CB
:108EEA0016B0E0FBA3E0FAA3E0F98F828E83121694
:108EFA001FFD9016B9E0FB5407FF7E007480A80797
:108F0A00088006CEA2E713CE13D8F8FFEE5CFEEF78
:108F1A005D4E601C9016B3A3E0FF9016B7E0C454F0
:108F2A00F02F2BFF9016B5A3E0FE9016B812CB6D6A
:108F3A009016B9E004F0028E5C9016B8E004F002D4
:0B8F4A008E499016B7E004F0028E364E
:018F550022F9
:0E8A1F009016BAEFF0A3EBF0A3EAF0A3E9F093
:108A2D00A3E0FEA3E0FFC3EE648094804003028BBD
:108A3D0096C3E49FFFE49EFE7C007D181216E7901E
:108A4D0016C2EFF09016BAE0FF9016C2E0C39F4039
:108A5D0003028CBBE4A3F09016C3E0C3941874809A
:108A6D0094804003028B8DE4A3F09016C4E0FD7C4E
:108A7D0000C39418748094804003028B849016C2B6
:108A8D00E075F018A42DFFEC35F0FE9016BEE0FC5D
:108A9D00A3E0FD2FFFEC3ECF24E8CF34FFFED3EF54
:108AAD00947FEE648094804003028CBB9016C3E0EB
:108ABD00FF9016C1E02FFF9016C0E03400CF24E8E0
:108ACD00CF34FFFED3EF943FEE64809480400302D9
:108ADD008CBB9016C2E0F975F018A4FFED2FFFECDA
:108AED0035F0FE9016C4E0FD7A002FEA3EC3648097
:108AFD00948050028001C340759016C3E075F00359
:108B0D00A4FBAAF0E975F048A42BFFE5F03AFEEDC1
:108B1D00131313541F7C002FFFEC3EFE9016BBE089
:108B2D00FBA3E0FAA3E0F98F828E8312161FFD904E
:108B3D0016C4E0FB5407FF7E007480A8070880066A
:108B4D00CEA2E713CE13D8F8FFEE5CFEEF5D4E60BC
:108B5D001D9016BEA3E0FF9016C2E075F018A42F6D
:108B6D002BFF9016C0A3E0FE9016C312CB6D90168E
:108B7D00C4E004F0028A779016C3E004F0028A6420
:108B8D009016C2E004F0028A51E49016C2F09016DD
:108B9D00BAE0FF9016C2E0C39F4003028CBBE4A372
:108BAD00F09016C3E0C39418748094804003028C37
:108BBD00B2E4A3F09016C4E0FD7C00C39418748059
:108BCD0094804003028CA99016C2E075F018A42D74
:108BDD00FFEC35F0FE9016BFE02FFF9016BEE03E85
:108BED00CF24E8CF34FFFED3EF947FEE64809480E2
:108BFD004003028CBB9016C3E0FFFD9016C1E02D23
:108C0D00FD9016C0E03CCD24E8CD34FFFCD3ED94AF
:108C1D003FEC648094804003028CBBEF75F003A49D
:108C2D00FDACF09016C2E075F048A42DFFE5F03CC8
:108C3D00FE9016C4E0131313541F7C002FFFEC3E5F
:108C4D00FE9016BBE0FBA3E0FAA3E0F98F828E83C2
:108C5D0012161FFD9016C4E0FB5407FF7E007480B2
:108C6D00A807088006CEA2E713CE13D8F8FFEE5C56
:108C7D00FEEF5D4E601D9016BEA3E0FF9016C2E0A4
:108C8D0075F018A42F2BFF9016C0A3E0FE9016C30D
:108C9D0012CB6D9016C4E004F0028BC19016C3E0A8
:0E8CAD0004F0028BAE9016C2E004F0028B9B26
:018CBB002296
:0E8779009016C5EFF0A3EBF0A3EAF0A3E9F031
:10878700A3E0FEA3E0FFC3EE648094804003028869
:10879700F5C3E49FFFE49EFE7C007D201216E79060
:1087A70016CDEFF09016C5E0FF9016CDE0C39F40C1
:1087B70003028A1EE4A3F09016CEE0C394207480CF
:1087C700948040030288ECE4A3F09016CFE0FD7C90
:1087D70000C394207480948040030288E39016CDF0
:1087E700E075F020A42DFFEC35F0FE9016C9E0FCF3
:1087F700A3E0FD2FFFEC3ECF24E0CF34FFFED3EF05
:10880700947FEE648094804003028A1E9016CEE027
:10881700FF9016CCE02FFF9016CBE03400CF24E07A
:10882700CF34FFFED3EF943FEE6480948040030281
:108837008A1E9016CDE0F975F020A4FFED2FFFEC0E
:1088470035F0FE9016CFE0FD7A002FEA3EC3648034
:10885700948050028001C3407AED75F004A4FDAC0A
:10886700F0E975F080A42DFFE5F03CFE9016CEE010
:10887700131313541F7C002FFFEC3EFE9016C6E027
:10888700FBA3E0FAA3E0F98F828E8312161FFD90F7
:1088970016CEE0FB5407FF7E007480A80708800609
:1088A700CEA2E713CE13D8F8FFEE5CFEEF5D4E6065
:1088B700229016C9A3E0FF9016CDE0C43354E02FF1
:1088C700FF9016CFE02FFF9016CBA3E02BFD7B0187
:1088D70012CB729016CFE004F00287D19016CEE04B
:1088E70004F00287BE9016CDE004F00287ABE49057
:1088F70016CDF09016C5E0FF9016CDE0C39F40035C
:10890700028A1EE4A3F09016CEE0C39420748094EC
:10891700804003028A15E4A3F09016CFE0FD7C00A7
:10892700C39420748094804003028A0C9016CDE093
:1089370075F020A42DFFEC35F0FE9016CAE02FFF4E
:108947009016C9E03ECF24E0CF34FFFED3EF947FEB
:10895700EE648094804003028A1E9016CEE0FDFFED
:108967009016CCE02FFF9016CBE03400CF24E0CF59
:1089770034FFFED3EF943FEE648094804003028A75
:108987001E9016CFE075F004A4FBAAF09016CDE078
:1089970075F080A42BFFE5F03AFEED131313541F77
:1089A7002FFFEC3EFE9016C6E0FBA3E0FAA3E0F92A
:1089B7008F828E8312161FFD9016CEE0FB5407FFA1
:1089C7007E007480A807088006CEA2E713CE13D8CE
:1089D700F8FFEE5CFEEF5D4E60229016C9A3E0FF44
:1089E7009016CDE0C43354E02FFF9016CFE02FFF51
:1089F7009016CBA3E02BFD7B0112CB729016CFE034
:108A070004F00289209016CEE004F002890D90163A
:078A1700CDE004F00288FA33
:018A1E002235
:0AD693009016EFEFF09016F1EBF0A7
:10D69D00E49016F6F0A3F09016F2E0131313541F56
:10D6AD00F0540770028000AF05AE079016F2E0FF50
:10D6BD00EEC39F504C9016EFE0FF9016F1E0FDEF9A
:10D6CD00C39D503A9016F3E0FBA3E0FAA3E0F9A353
:10D6DD00E475F00112173385F082F58312161FFDE4
:10D6ED0075F004EFA424DFF582E5F03411F583E540
:10D6FD00822EF582E43583F583EDF00F80BC0E802C
:01D70D00AA71
:01D70E0022F8
:10C9FA0012EC9C7F647E0012EE6BE4FD7FAE12ECBB
:10CA0A00BCE4FD7F4012ECBCE4FD7FB012ECBCE458
:10CA1A00FD7FC812ECBCE4FD7F8112ECBCE4FD7F13
:10CA2A00FF12ECBCE4FD7FA112ECBCE4FD7FA61270
:10CA3A00ECBCE4FD7FA812ECBCE4FD7F1F12ECBC49
:10CA4A00E4FD7FD312ECBCE4FDFF12ECBCE4FD7FF5
:10CA5A00D512ECBCE4FD7FF012ECBCE4FD7FD912E8
:10CA6A00ECBCE4FD7F2212ECBCE4FD7FDA12ECBCE4
:10CA7A00E4FD7F0212ECBCE4FD7FDB12ECBCE4FDBA
:10CA8A007F4912ECBCE4FD7F8D12ECBCE4FD7F14FF
:0DCA9A0012ECBCE4FD7FAF12ECBC02E75DC6
:09EFA900007F027E3CDEFEDFFC6D
:01EFB200223C
:0EEEF300C2C67F147E0012EE6BD2C602EFA9DB
:10DDD200E49017F4F030C6159017F4E0C39464741D
:10DDE2008094805008E004F012F00980E89017F463
:10DDF200E0C394647480948040037F0122E490170E
:10DE0200F4F020C6159017F4E0C3946474809480F3
:10DE12005008E004F012F00980E89017F4E0C3948F
:0CDE2200647480948040037F01227F0024
:01DE2E0022D1
:10E49600E49017F5F030C6159017F5E0C394647450
:10E4A6008094805008E004F012F00980E8E49017A8
:10E4B600F5F020C6159017F5E0C394647480948037
:10E4C6005008E004F012F00980E812EFA930C60304
:05E4D6007F01227F0020
:01E4DB00221E
:10E84400E49017DEF09017DDF09017DDE0C3940834
:10E8540074809480501CA3E0FF25E0F0E0FEC00625
:10E8640012E496D0E04F9017DEF09017DDE004F04C
:07E8740080D79017DEE0FFE2
:01E87B00227A
:0BC949009016F8EBF0A3EAF0A3E9F071
:10C9540012EEF312DDD2EF600302C9F4901700F077
:10C96400901700E0C3940574809480501A12E84430
:10C97400901700E024FBF582E43416F583EFF09081
:10C984001700E004F080D99016FCE0FF9016FBE05D
:10C994002FFFE433FE9016FDE07C002FFFEC3EFEFB
:10C9A400A3E02FFFEC3EFEA3E06F7001EE70449015
:10C9B40016FBE0FF9016F8E0FBA3E0FAA3E0F9EF22
:10C9C40012164C9016FCE0FF9016F8E0FBA3E0FA78
:10C9D400A3E0F9900001EF12165E9016FDE09000BE
:10C9E4000212165E9016FEE090000312165E80039B
:05C9F4007F01227F001D
:01C9F900221B
:0EEF010053B3BF53B4BFD2C612EEF302DDD23B
:10EE35007B017A1779A612C949EF70F49017A6E0FD
:01EE4500FFCD
:01EE460022A9
:10C669007B017A17792412C949EF70F4901726E0F3
:10C67900547FFCE412125C901728121A6C90172848
:10C68900E0FCA3E0FDA3E0FEA3E0FFE4FBFA7920D0
:10C699007841121033901728121A6C901728E0F875
:10C6A900A3E0F9A3E0FAA3E0FBC000C001C002C007
:10C6B90003901727E0FCE412125CD003D002D001EA
:10C6C900D000120F42901728121A6C901728E0FC1C
:10C6D900A3E0FDA3E0FEA3E0FFE4FBFA79207841A3
:10C6E90012113C901728121A6C901726E030E71E99
:10C6F900901728E0FCA3E0FDA3E0FEA3E0FFE4FB24
:10C70900FA798078BF121033901728121A6C901793
:0CC7190028E0FCA3E0FDA3E0FEA3E0FF8D
:01C7250022F1
:10277F0025640000000000000000000000000000C1
:10278F00000404040404040004000000140A0A00F6
:10279F0000000000000000000014143F140A3F0A5C
:1027AF000A000000041E1505060C14150F04000086
:1027BF000012150D0A142C2A1200000000040A0A38
:1027CF001E1515093600000002020100000000006E
:1027DF00000000002010080808080808102000005A
:1027EF000204080808080808040200000000041585
:1027FF000E0E150400000000000404041F0404045E
:10280F0000000000000000000000000002020100B4
:10281F00000000001F00000000000000000000008A
:10282F000000000002000000100808080404020263
:10283F0002010000000E1111111111110E00000004
:10284F0000040604040404040E000000000E11111D
:10285F00080402011F000000000E11100C101011CF
:10286F000E00000000080C0A0A091E0818000000DC
:10287F00001F01010F1010110E000000000E0901C2
:10288F000F1111110E000000001F090804040404A9
:10289F0004000000000E11110E1111110E000000A6
:1028AF00000E1111111E10120E0000000000000486
:1028BF000000000004000000000000000400000001
:1028CF000404000020100804020408102000000077
:1028DF000000001F00001F0000000000020408108D
:1028EF002010080402000000000E1111080404005B
:1028FF0004000000000E111915151D011E00000027
:10290F000004040C0A0A1E1233000000000F1212FA
:10291F000E1212120F000000001E11010101011111
:10292F000E000000000F1212121212120F00000000
:10293F00001F120A0E0A02121F000000001F120AC7
:10294F000E0A020207000000001C120101391112C9
:10295F000C000000003312121E121212330000007E
:10296F00001F0404040404041F000000003E0808B4
:10297F0008080808090700000037120A060A0A1299
:10298F003700000000070202020202223F0000008F
:10299F00001B1B1B1B15151515000000003B121605
:1029AF00161A1A1217000000000E11111111111131
:1029BF000E000000000F12120E02020207000000AC
:1029CF00000E1111111117190E180000000F12121D
:1029DF000E0A121237000000001E11010608101116
:1029EF000F000000001F1504040404040E00000073
:1029FF0000331212121212120C00000000331212C6
:102A0F000A0A0C0404000000001515150E0A0A0A24
:102A1F000A000000001B0A0A04040A0A1B00000037
:102A2F00001B0A0A040404040E000000001F09081A
:102A3F00040402121F0000001C0404040404040414
:102A4F00041C000002020204040808081000000021
:102A5F000E08080808080808080E0000040A0000FD
:102A6F000000000000000000000000000000000057
:102A7F0000003F0004000000000000000000000004
:102A8F00000000000C121C123C00000000030202A8
:102A9F000E1212120E000000000000001C120202A3
:102AAF001C000000001810101C1212123C00000035
:102ABF00000000000C121E021C000000003804046D
:102ACF001E0404041E000000000000003C120C0253
:102ADF001E221C00000302020E1212123700000009
:102AEF0000040000060404040E00000000080000AB
:102AFF000C08080808080700000302023A0A0E1221
:102B0F003700000000070404040404041F00000041
:102B1F00000000000F151515150000000000000043
:102B2F000F12121237000000000000000C121212D8
:102B3F000C000000000000000F1212120E0207001E
:102B4F00000000001C1212121C10380000000000C0
:102B5F001B06020207000000000000001E020C10FE
:102B6F001E000000000004040E04040418000000FE
:102B7F00000000001B1212123C00000000000000B9
:102B8F0037120A0C040000000000000015150E0A91
:102B9F000A000000000000001B0A040A1B000000CE
:102BAF000000000037120A0C0404030000000000AC
:102BBF001E0804041E00000018080808040808086E
:102BCF000818000808080808080808080808080076
:102BDF000604040408040404040600022518000077
:102BEF0000000000000000000000000000000000D6
:102BFF000000000000000000000008080808080896
:102C0F000800001818000000486C24120000000093
:102C1F00000000000000000000002424247F121296
:102C2F00127F12121200000000081C2A2A0A0C1828
:102C3F0028282A2A1C080800000022251515152A05
:102C4F00585454542200000000000C1212120A763D
:102C5F00252911916E0000000606040300000000F4
:102C6F0000000000000000004020101008080808B5
:102C7F00080810102040000002040808101010105F
:102C8F00101008080402000000000008086B1C1C4C
:102C9F006B08080000000000000000080808087F0B
:102CAF0008080808000000000000000000000000F5
:102CBF00000000060604030000000000000000FEF4
:102CCF0000000000000000000000000000000000F5
:102CDF000000000606000000008040402020101079
:102CEF000808040402020000000018244242424275
:102CFF0042424224180000000000080E080808088D
:102D0F00080808083E00000000003C424242202014
:102D1F00100804427E00000000003C4242201820B0
:102D2F00404042221C0000000000203028242422B2
:102D3F00227E20207800000000007E0202021A2668
:102D4F00404042221C0000000000382402021A26D4
:102D5F00424242241800000000007E222210100878
:102D6F00080808080800000000003C4242422418EE
:102D7F00244242423C0000000000182442424264B8
:102D8F00584040241C0000000000000000181800EC
:102D9F0000000018180000000000000000000800EC
:102DAF000000000008080400000040201008040282
:102DBF00040810204000000000000000007F000009
:102DCF00007F0000000000000000020408102040F7
:102DDF00201008040200000000003C424246402040
:102DEF00101000181800000000001C225A555555ED
:102DFF00552D42221C00000000000808181414244E
:102E0F003C224242E700000000001F2222221E2225
:102E1F00424242221F00000000007C424201010199
:102E2F00010142221C00000000001F2242424242C8
:102E3F00424242221F00000000003F4212121E12A7
:102E4F00120242423F00000000003F4212121E12C7
:102E5F00120202020700000000003C2222010101C1
:102E6F00712122221C0000000000E7424242427EF4
:102E7F0042424242E700000000003E0808080808EE
:102E8F00080808083E00000000007C101010101009
:102E9F001010101010110F0000007722120A0E0AE6
:102EAF001212222277000000000007020202020223
:102EBF00020202427F000000000077363636362AC3
:102ECF002A2A2A2A6B0000000000E346464A4A528B
:102EDF00525262624700000000001C2241414141F2
:102EEF00414141221C00000000003F424242423E4D
:102EFF00020202020700000000001C224141414172
:102F0F00414D53321C60000000003F4242423E12CE
