:0EB3D800410002004202030032420000000069
:10A7F300E490040FF0A374FFF012CB7F12CE441247
:10A80300CF9AD2AF12CEA812D17912907B7B017A64
:10A8130004790712B19790040BA3A3E0FEA3E0FB16
:10A82300AA06900407A3A3E0FEA3E02BFFEE3AFEE3
:10A8330012C54F12CFAD1297F990057FE0FF339504
:10A84300E0C364809480401AEF3395E0FE74802F58
:10A85300F58274053EF583E0900410F090057F7453
:10A86300FFF0900002E06010E4F012D10EEF6008F8
:10A8730012D18790040FEFF0123CB390040FE06005
:10A883003824F4602424FE602424FA601424FE6037
:10A893001424FD6008240870197F7780127F738069
:10A8A3000E7F61800A7F6480067F7180027F72124F
:10A8B300B5ECE490040FF08080900410E0FFFD33CA
:10A8C30095E0FCEDF47002ECF4700302A83CEF2475
:10A8D300DD602824F9602024FD601424FE600C242C
:10A8E300B76010244D70197F7780127F73800E7FBD
:10A8F30061800A7F6480067F7180027F7212B5ECEB
:09A9030090041074FFF002A83C5E
:03000B0002BE260C
:10BE2600C0E0C0F0C083C082C0D075D000C000C0E2
:0DBE360001C002C003C004C005C006C00763
:10BE4300900001E02401FF900000E03400FE900226
:10BE530003E0FAA3E0FBFDAC021221BB900000EC6F
:10BE6300F0A3EDF0EB24FFFFEA34FFFE900000E0C7
:0BBE7300B50608A3E0B5070312000E9F
:10BE7E00D007D006D005D004D003D002D001D00018
:0BBE8E00D0D0D082D083D0F0D0E032C2
:0300A30002C7E8A9
:10C7E800C0E0C0F0C083C082C0D075D000C000C017
:10C7F80001C002C003C004C005C006C00712AC2CAB
:10C808009000027401F0D007D006D005D004D00300
:10C81800D002D001D000D0D0D082D083D0F0D0E0E8
:01C8280032DD
:108E7B0000000000000000000000000000000000E7
:108E8B00000000000000000000000FF00000387828
:108E9B00000070380000F0380000F0780000F07827
:108EAB00000000F0000000E0000001C000000380A3
:108EBB000000070000000E000000380000007000EA
:108ECB000000E0000001800000030180000E0300A1
:108EDB00001C0600003FFE00003FFC0000000000ED
:108EEB000000000000000000000000000000000077
:108EFB000000000000000000000000000000000067
:108F0B00000000000000000000000FE000001C70DB
:108F1B000000387000007070000060700000E0709E
:108F2B000000E0700001C0E00001C0E0000380E041
:108F3B00000381C0000381C0000703C0000703804A
:108F4B000007038000070700000F0700000E0E004C
:108F5B0000061C00000738000003F00000000000B2
:108F6B0000000000000000000000000000000000F6
:108F7B0000000000000000000000000000000000E6
:108F8B00000000000000000000000070000000E086
:108F9B00000001E0000003E0000007C000000FC06C
:108FAB0000001BC000003380000067800000C7007A
:108FBB000001870000030F0000060E00000C0E00DE
:108FCB00001FFFC0003FFFC000001C0000003C0062
:108FDB000000380000007C000003FF0000000000D0
:108FEB000000000000000000000000000000000076
:108FFB000000000000000000000000000000000066
:10900B00000000000000000000000FF000001C3802
:10901B0000003838000070380000F0380000F070A5
:10902B000000F0600000F1C000007F8000003E00F7
:10903B0000007F000001CF80000387C0000703C042
:10904B00000E03C0000C03C0000C0380000C0700D3
:10905B00000E0E000007BC000001E0000000000045
:10906B0000000000000000000000000000000000F5
:10B3E6006028049F0000000000000000000000002C
:10B3F6000000000000000000000000000000000047
:0CB406000000000000000000000000003A
:10CFAD007B017A04799F9004167428F0E4FFFE0249
:02CFBD00BF842F
:10CEC100E4FFFE12CB4D7B017A04799F90041B7421
:08CED10028F0E4FFFE02A6D9DF
:10BFED0042657374203A0053636F72653A002531D0
:10BFFD0039640025640020202020202020202020CE
:10C00D00596F752057696E20212020202020202077
:10C01D0020200020202020202020202020596F7556
:10C02D00204C6F736521202020202020202020000F
:10C03D004A6F696E207468652074696C65732C2075
:0DC04D0067657420746F2032303438210094
:0FB412004204CC08004204C700004204CA0000F4
:10B31C00E4900423F0FFEFC39404748094805048AD
:10B32C00E4FEEEC39404748094805039EF75F008F9
:10B33C00A424CEF582E43404F58375F002EE1224D5
:10B34C00E5E0FCA3E04C701AEF25E025E02EFD9023
:10B35C000423E0FC04F074132CF582E43404F5832C
:10B36C00EDF00E80BD0F80AE900423E07002FF2242
:10B37C0012C511900423E0FD7C0012221074132DD1
:10B38C00F58274043CF583E0900412F012C5117C34
:10B39C00007D0A122210ED64014C7005FE7F0480C2
:10B3AC00047E007F02900412E0FD1313543F75F0ED
:10B3BC0008A424CEF582E43404F583ED540375F02F
:0BB3CC00021224E5EEF0A3EFF07F0179
:01B3D7002253
:10693700E4F9E9FF3395E0FEC3EF9404EE64809435
:10694700804003026C15E4900413F0A3F0A3F090C9
:106957000412F0900412E0FFFD3395E0FCC3ED94C0
:1069670004EC648094804003026C11EF3395E0FCE3
:10697700ED25E0FBEC33FAE9FF3395E0FEEF780312
:10698700C333CE33CED8F924CEF58274043EF583D3
:10699700E5822BF582E5833AF583E0FAA3E0FBED88
:1069A70025E0FDEC33FCE9FF3395E0FEEF7803C308
:1069B70033CE33CED8F92416F58274043EF583E539
:1069C700822DF582E5833CF583EAF0A3EBF0E9FF3E
:1069D7003395E0FEEF7803C333CE33CED8F924CE18
:1069E700F58274043EF583E5822DF582E5833CF557
:1069F70083E0FEA3E0FF4E7003026C08900414E0EE
:106A0700FCA3E0FD4C700B900414EEF0A3EFF00232
:106A17006B87900412E0FF3395E0FEEF25E0FBEE75
:106A270033FAE9FF3395E0FEEF7803C333CE33CE75
:106A3700D8F924CEF58274043EF583E5822BF582DE
:106A4700E5833AF583E0FEA3E06D7002EC6E600328
:106A5700026B02900415E025E0FD900414E033FC7E
:106A6700900413E0FF3395E0FEEF25E0FBEE33FAE9
:106A7700E9FF3395E0FEEF7803C333CE33CED8F981
:106A870024CEF58274043EF583E5822BF582E583F7
:106A97003AF583ECF0A3EDF0900415E025E0FF90C4
:106AA7000414E033FE9004C8E02FF09004C7E03EE2
:106AB700F0E4900414F0A3F0E9FF3395E0FEEF78DB
:106AC70003C333CE33CED8F924CEF58274043EF512
:106AD70083E5822BF582E5833AF583E0FEA3E0FFA9
:106AE7009004CCE0FCA3E0FDEF6D7002EE6C600358
:106AF700026B819004C904F0026B81900414E0FCDE
:106B0700A3E0FD900413E0FF3395E0FEEF25E0FBE3
:106B1700EE33FAE9FF3395E0FEEF7803C333CE3364
:106B2700CED8F924CEF58274043EF583E5822BF5A1
:106B370082E5833AF583ECF0A3EDF0900412E0FFD1
:106B47003395E0FEEF25E0FDEE33FCE9FF3395E0FA
:106B5700FEEF7803C333CE33CED8F924CEF5827453
:106B6700043EF583E5822DF582E5833CF583E0FF5E
:106B7700A3E0900414CFF0A3EFF0900413E004F027
:106B8700900412E0FF3395E0FEEF25E0FDEE33FCC5
:106B9700E9FF3395E0FEEF7803C333CE33CED8F960
:106BA70024CEF58274043EF583E5822DF582E583D4
:106BB7003CF583E4F0A3F0900414E07002A3E060D6
:106BC70040900414E0FCA3E0FD900413E0FF33952C
:106BD700E0FEEF25E0FBEE33FAE9FF3395E0FEEF49
:106BE7007803C333CE33CED8F924CEF58274043E6E
:106BF700F583E5822BF582E5833AF583ECF0A3ED87
:106C0700F0900412E004F002695A09026939E4F9C4
:106C1700E9FF3395E0FEC3EF9404EE64809480406F
:106C270003026CBEE4900412F0900412E0FFFD33FF
:106C370095E0FCC3ED9404EC648094805075EF33C9
:106C470095E0FCED25E0FBEC33FAE9FF3395E0FE38
:106C5700EF7803C333CE33CED8F92416F582740404
:106C67003EF583E5822BF582E5833AF583E0FAA3C7
:106C7700E0FBED25E0FDEC33FCE9FF3395E0FEEFAB
:106C87007803C333CE33CED8F924CEF58274043ECD
:106C9700F583E5822DF582E5833CF583E0FEA3E0ED
:106CA7006B7002EE6A60037F0122900412E004F029
:096CB700026C3009026C177F0029
:016CC00022B1
:106CC100E4F9E9FF3395E0FEC3EF9404EE648094A8
:106CD100804003026F9E9004137403F0E4A3F0A3B9
:106CE100F09004127403F0900412E0FF3395E0C3B6
:106CF100648094805003026F9AEFFD3395E0FCEDC0
:106D010025E0FBEC33FAE9FF3395E0FEEF7803C3AE
:106D110033CE33CED8F924CEF58274043EF583E523
:106D2100822BF582E5833AF583E0FAA3E0FBED25BA
:106D3100E0FDEC33FCE9FF3395E0FEEF7803C3336C
:106D4100CE33CED8F92416F58274043EF583E5825C
:106D51002DF582E5833CF583EAF0A3EBF0E9FF33FF
:106D610095E0FEEF7803C333CE33CED8F924CEF5C8
:106D71008274043EF583E5822DF582E5833CF5833B
:106D8100E0FEA3E0FF4E7003026F91900414E0FC5B
:106D9100A3E0FD4C700B900414EEF0A3EFF0026F32
:106DA10010900412E0FF3395E0FEEF25E0FBEE3397
:106DB100FAE9FF3395E0FEEF7803C333CE33CED843
:106DC100F924CEF58274043EF583E5822BF582E544
:106DD100833AF583E0FEA3E06D7002EC6E6003027E
:106DE1006E8B900415E025E0FD900414E033FC90D7
:106DF1000413E0FF3395E0FEEF25E0FBEE33FAE903
:106E0100FF3395E0FEEF7803C333CE33CED8F924B8
:106E1100CEF58274043EF583E5822BF582E5833A53
:106E2100F583ECF0A3EDF0900415E025E0FF90046C
:106E310014E033FE9004C8E02FF09004C7E03EF068
:106E4100E4900414F0A3F0E9FF3395E0FEEF78033A
:106E5100C333CE33CED8F924CEF58274043EF58304
:106E6100E5822BF582E5833AF583E0FEA3E0FF900E
:106E710004CCE0FCA3E0FDEF6D7002EE6C60030258
:106E81006F0A9004C904F0026F0A900414E0FCA395
:106E9100E0FD900413E0FF3395E0FEEF25E0FBEE0B
:106EA10033FAE9FF3395E0FEEF7803C333CE33CEF7
:106EB100D8F924CEF58274043EF583E5822BF58260
:106EC100E5833AF583ECF0A3EDF0900412E0FF3393
:106ED10095E0FEEF25E0FDEE33FCE9FF3395E0FEA2
:106EE100EF7803C333CE33CED8F924CEF5827404C0
:106EF1003EF583E5822DF582E5833CF583E0FFA332
:106F0100E0900414CFF0A3EFF0900413E014F0909C
:106F11000412E0FF3395E0FEEF25E0FDEE33FCE9DE
:106F2100FF3395E0FEEF7803C333CE33CED8F92497
:106F3100CEF58274043EF583E5822DF582E5833C2E
:106F4100F583E4F0A3F0900414E07002A3E0604044
:106F5100900414E0FCA3E0FD900413E0FF3395E0FE
:106F6100FEEF25E0FBEE33FAE9FF3395E0FEEF7823
:106F710003C333CE33CED8F924CEF58274043EF563
:106F810083E5822BF582E5833AF583ECF0A3EDF0FE
:106F9100900412E014F0026CE809026CC3E4F9E910
:106FA100FF3395E0FEC3EF9404EE648094804003C8
:106FB100027047E4900412F0900412E0FFFD339553
:106FC100E0FCC3ED9404EC648094805075EF33953C
:106FD100E0FCED25E0FBEC33FAE9FF3395E0FEEF51
:106FE1007803C333CE33CED8F92416F58274043E28
:106FF100F583E5822BF582E5833AF583E0FAA3E098
:10700100FBED25E0FDEC33FCE9FF3395E0FEEF7885
:1070110003C333CE33CED8F924CEF58274043EF5C2
:1070210083E5822DF582E5833CF583E0FEA3E06BE9
:107031007002EE6A60037F0122900412E004F00204
:087041006FB909026FA07F0086
:017049002224
:10704A00E4F9E9FF3395E0FEC3EF9404EE6480941B
:10705A00804003027308E4900413F0A3F0A3F090B5
:10706A000412F0900412E0FF3395E0FEC3EF94049B
:10707A00EE648094804003027304E9FD3395E0FCDA
:10708A00ED25E0FBEC33FAE03395E0FEEF7803C33D
:10709A0033CE33CED8F924CEF58274043EF583E597
:1070AA00822BF582E5833AF583E0FAA3E0FBED252E
:1070BA00E0FDEC33FC900412E0FF3395E0FEEF783C
:1070CA0003C333CE33CED8F9FF2416F58274043EB7
:1070DA00F583E5822DF582E5833CF583EAF0A3EB9F
:1070EA00F074CE2FF58274043EF583E5822DF58285
:1070FA00E5833CF583E0FEA3E0FF4E70030272FBDA
:10710A00900414E0FCA3E0FD4C700B900414EEF024
:10711A00A3EFF0027280E9FF3395E0FEEF25E0FB72
:10712A00EE33FA900412E0FF3395E0FEEF7803C3E2
:10713A0033CE33CED8F924CEF58274043EF583E5F6
:10714A00822BF582E5833AF583E0FEA3E06D7002B7
:10715A00EC6E6003027208900415E025E0FD9004CD
:10716A0014E033FCE9FF3395E0FEEF25E0FBEE3354
:10717A00FA900413E0FF3395E0FEEF7803C333CEB1
:10718A0033CED8F924CEF58274043EF583E5822BFA
:10719A00F582E5833AF583ECF0A3EDF0900415E06F
:1071AA0025E0FF900414E033FE9004C8E02FF0902D
:1071BA0004C7E03EF0E4900414F0A3F0900413E056
:1071CA00FF3395E0FEEF7803C333CE33CED8F924EC
:1071DA00CEF58274043EF583E5822BF582E5833A87
:1071EA00F583E0FEA3E0FF9004CCE0FCA3E0FDEF12
:1071FA006D7002EE6C70799004C904F0807290048C
:10720A0014E0FCA3E0FDE9FF3395E0FEEF25E0FB87
:10721A00EE33FA900413E0FF3395E0FEEF7803C3F0
:10722A0033CE33CED8F924CEF58274043EF583E505
:10723A00822BF582E5833AF583ECF0A3EDF0900416
:10724A0012E0FF3395E0FEEF7803C333CE33CED896
:10725A00F924CEF58274043EF583E5822BF582E5A6
:10726A00833AF583E0FFA3E0900414CFF0A3EFF094
:10727A00900413E004F0E9FD3395E0FCED25E0FB12
:10728A00EC33FA900412E0FF3395E0FEEF7803C383
:10729A0033CE33CED8F924CEF58274043EF583E595
:1072AA00822BF582E5833AF583E4F0A3F090041487
:1072BA00E07002A3E0603A900414E0FAA3E0FBED68
:1072CA0025E0FDEC33FC900413E0FF3395E0FEEF7C
:1072DA007803C333CE33CED8F924CEF58274043E74
:1072EA00F583E5822DF582E5833CF583EAF0A3EB8D
:1072FA00F0900412E004F002706D0902704CE49000
:10730A000412F0900412E0FF3395E0FEC3EF9404F8
:10731A00EE6480948040030273B7E4F9E9FF339581
:10732A00E0FEC3EF9404EE648094805077E9FD3365
:10733A0095E0FCED25E0FBEC33FA900412E0FF3314
:10734A0095E0FEEF7803C333CE33CED8F92416F591
:10735A008274043EF583E5822BF582E5833AF58350
:10736A00E0FAA3E0FBED25E0FDEC33FC900412E02B
:10737A00FF3395E0FEEF7803C333CE33CED8F9243A
:10738A00CEF58274043EF583E5822DF582E5833CD1
:10739A00F583E0FEA3E06B7002EE6A60037F0122D0
:0F73AA0009027326900412E004F002730D7F00B5
:0173B90022B1
:1073BA00E4F9E9FF3395E0FEC3EF9404EE648094A8
:1073CA008040030276779004137403F0E4A3F0A3D9
:1073DA00F09004127403F0900412E03395E0C36451
:1073EA008094805003027673E9FD3395E0FCED2525
:1073FA00E0FBEC33FAE0FF3395E0FEEF7803C333AA
:10740A00CE33CED8F924CEF58274043EF583E582D4
:10741A002BF582E5833AF583E0FAA3E0FBED25E05C
:10742A00FDEC33FC900412E0FF3395E0FEEF7803A5
:10743A00C333CE33CED8F9FF2416F58274043EF551
:10744A0083E5822DF582E5833CF583EAF0A3EBF030
:10745A0074CE2FF58274043EF583E5822DF582E51C
:10746A00833CF583E0FEA3E0FF4E700302766A9048
:10747A000414E0FCA3E0FD4C700B900414EEF0A39E
:10748A00EFF00275EFE9FF3395E0FEEF25E0FBEE42
:10749A0033FA900412E0FF3395E0FEEF7803C3332A
:1074AA00CE33CED8F924CEF58274043EF583E58234
:1074BA002BF582E5833AF583E0FEA3E06D7002ECDA
:1074CA006E6003027577900415E025E0FD900414C0
:1074DA00E033FCE9FF3395E0FEEF25E0FBEE33FAFB
:1074EA00900413E0FF3395E0FEEF7803C333CE3305
:1074FA00CED8F924CEF58274043EF583E5822BF5C5
:10750A0082E5833AF583ECF0A3EDF0900415E025CB
:10751A00E0FF900414E033FE9004C8E02FF09004DA
:10752A00C7E03EF0E4900414F0A3F0900413E0FFE7
:10753A003395E0FEEF7803C333CE33CED8F924CEA9
:10754A00F58274043EF583E5822BF582E5833AF5EC
:10755A0083E0FEA3E0FF9004CCE0FCA3E0FDEF6D26
:10756A007002EE6C70799004C904F0807290041471
:10757A00E0FCA3E0FDE9FF3395E0FEEF25E0FBEE3A
:10758A0033FA900413E0FF3395E0FEEF7803C33338
:10759A00CE33CED8F924CEF58274043EF583E58243
:1075AA002BF582E5833AF583ECF0A3EDF090041213
:1075BA00E0FF3395E0FEEF7803C333CE33CED8F93C
:1075CA0024CEF58274043EF583E5822BF582E583A9
:1075DA003AF583E0FFA3E0900414CFF0A3EFF09014
:1075EA000413E014F0E9FD3395E0FCED25E0FBEC33
:1075FA0033FA900412E0FF3395E0FEEF7803C333C9
:10760A00CE33CED8F924CEF58274043EF583E582D2
:10761A002BF582E5833AF583E4F0A3F0900414E0B5
:10762A007002A3E0603A900414E0FAA3E0FBED25AF
:10763A00E0FDEC33FC900413E0FF3395E0FEEF78B5
:10764A0003C333CE33CED8F924CEF58274043EF583
:10765A0083E5822DF582E5833CF583EAF0A3EBF01E
:10766A00900412E014F00273E1090273BCE490047E
:10767A0012F0900412E0FF3395E0FEC3EF9404EE9B
:10768A00648094804003027726E4F9E9FF3395E0A9
:10769A00FEC3EF9404EE648094805077E9FD33953D
:1076AA00E0FCED25E0FBEC33FA900412E0FF3395A1
:1076BA00E0FEEF7803C333CE33CED8F92416F58231
:1076CA0074043EF583E5822BF582E5833AF583E07F
:1076DA00FAA3E0FBED25E0FDEC33FC900412E0FF99
:1076EA003395E0FEEF7803C333CE33CED8F924CEF8
:1076FA00F58274043EF583E5822DF582E5833CF537
:10770A0083E0FEA3E06B7002EE6A60037F01220948
:0E771A00027695900412E004F002767C7F0067
:01772800223E
:10C68600E4FFEFC3940474809480502BE4FEEEC361
:10C69600940474809480501CEF75F008A424CEF5A1
:10C6A60082E43404F58375F002EE1224E5E4F0A387
:10C6B600F00E80DA0F80CB12B31C12B31CE4900488
:08C6C600C7F0A3F0A37402F019
:01C6CE002249
:10A90C00E4900412F0900412E0C3940474809480D8
:10A91C00400302AA1EE4A3F0900413E0FFC39404C6
:10A92C0074809480400302AA15900412E075F0081C
:10A93C00A424CEF582E43404F58375F002EF1224DE
:10A94C00E5E0FEA3E04E7002FF22900413E0FF242A
:10A95C0001FDE433FCC3ED9404EC6480948050411D
:10A96C00900412E0FE75F008A424D0F582E43404BF
:10A97C00F58375F002EF1224E5E0FCA3E0FDEE7523
:10A98C00F008A424CEF582E43404F58375F002EFCC
:10A99C001224E5E0FEA3E0B50507EEB504037F0045
:10A9AC0022900412E0FF2401FDE433FCC3ED940477
:10A9BC00EC648094805049EF75F008A424D6F5829D
:10A9CC00E43404F583C083C082900413E0FED0828B
:10A9DC00D08375F0021224E5E0FCA3E0FDEF75F0E6
:10A9EC0008A424CEF582E43404F58375F002EE124B
:10A9FC0024E5E0FEA3E0B50507EEB504037F0022D5
:10AA0C00900413E004F002A924900412E004F00274
:04AA1C00A9117F01FC
:01AA20002213
:10B53E00900414E4F0A37432F0E4900413F0900439
:10B54E0013E0C39404748094805053E4FDEDC394CF
:10B55E000474809480503F900413E0FC7E007410BD
:10B56E00A804088005C333CE33CED8F9A8050880C9
:10B57E0005C333CE33CED8F9FFEC75F008A424CE34
:10B58E00F582E43404F58375F002ED1224E5EEF055
:10B59E00A3EFF00D80B7900413E004F080A0E490C8
:10B5AE0004C7F0A3F090049FA3A3E0FEA3E0FF90D6
:10B5BE0004CAEEF0A3EFF0C3EE64809480501EE454
:10B5CE009004CAF0A3F09004CAE0FEA3E0FFEE33AD
:0DB5DE0095E0FDFC90049F1224A812CEC140
:01B5EB00223D
:1097F9007F187EC612C41B7BFF7A8E797B90041773
:10980900E4F0A37438F0A3E4F0A37408F0A374FCA3
:10981900F0A37407F074FFA3F0A3F0A37401F07F21
:1098290004124C149004197401F0A37425F0E4A3F4
:10983900F0A3F07BDDFA7D5BFC7F13FE12AEF7909F
:10984900044B7401F0A37424F0A374A6F0A374511B
:10985900F07BDC7A007D5C7C007F147E0012CC6A90
:109869007BFF7ABF79EDE490044CF0A3F0A374C6B2
:10987900F0A37418F0A37410F0A37401F07D327C86
:10988900007F147E0012BB0F7BFF7ABF79F4E4904E
:10989900044CF0A3F0A374C6F0A37418F0A37410D9
:1098A900F0A37401F07D447C007F147E0012BB0F8D
:1098B900E4900411F0900411E0FFC39405748094BE
:1098C900805059EF75F032A4245CFDE435F0FC902A
:1098D9000423F0A3EDF0A37454F0A37458F07BDCD7
:1098E9007A007F147E00128C5D900411E075F032CD
:1098F900A42414FFE435F0FEAB07FA9004237401A5
:10990900F0A37424F0A37454F0A37458F07D5C7C24
:1099190000128C5D900411E004F08099E490041128
:10992900F0900411E0C39404748094805066E4A319
:10993900F0900412E0FFC3940474809480504DEFBA
:1099490075F032A4FBAAF02417FFE43AFEC006C062
:1099590007900411E075F032A4FFAEF0245FFDE436
:109969003EFCEB2443FBE43AFAEF248BFFE43E9000
:109979000419F0A3EFF0A3747DF0A314F0D007D07D
:109989000612AEF7900412E004F080A5900411E0ED
:0D99990004F0808D9004C97402F002B53E08
:10B5EC00E4900411F0EF249F602024FD602924F2E4
:10B5FC00601314603C24FC602B240670449004C936
:10B60C007403F0803C12C68680379004C9E0640253
:10B61C00702F12693780259004C9E06402702212E1
:10B62C006CC180189004C9E06402701512704A80D5
:10B63C000B9004C9E0640270081273BA900411EF05
:10B64C00F0900411E0604512B31C12A90CEF6005D8
:10B65C00E49004C9F09004CAE0FEA3E0FFD3900488
:10B66C00C8E09FEE6480F89004C7E0648098401CAA
:10B67C00E0FEA3E0FF9004CAEEF0A3EFF0EE3395EA
:0CB68C00E0FDFC90049F1224A812CEC127
:01B69800228F
:103CB3009004C9E06403700302421B90044874FF3C
:103CC300F0A374BFF0A374FBF09004CAE0FFA3E079
:103CD30090044BCFF0A3EFF07B017A0479111255D6
:103CE300C47B017A04791190044C742BF0A37412F1
:103CF300F0A374C6F0A37418F0A37410F0E4A3F057
:103D03007D32FC7F44FE12BB0F90044874FFF0A386
:103D130074BFF0A374FBF09004C7E0FFA3E090042A
:103D23004BCFF0A3EFF07B017A0479111255C47BDA
:103D3300017A04791190044C742BF0A37412F0A34C
:103D430074C6F0A37418F0A37410F0E4A3F07D44D8
:103D5300FC7F44FE12BB0FE4900443F0900443E065
:103D6300C394047480948040030241C6E4A3F0909A
:103D73000444E0FFC394047480948040030241BD73
:103D8300900443E075F008A424CEF582E43404F5EE
:103D93008375F002EF1224E5E0FEA3E0FF4E70030B
:103DA30002416BEF8EF01225373DDC00023E1C0012
:103DB300043E6000083EA400103EE800203F2B00B4
:103DC300403F6E00803FB201003FF60200403A04DC
:103DD30000407D0800000040C3900444E075F032C9
:103DE300A4FBAAF02418FFE43AFEC006C00790041F
:103DF30043E075F032A4FFAEF02460FDE43EFCEB3B
:103E03002442FBE43AFAEF248AFFE43E90044BF0A9
:103E1300A3EFF0A37484023F24900444E075F032CE
:103E2300A4FBAAF02418FFE43AFEC006C0079004DE
:103E330043E075F032A4FFAEF02460FDE43EFCEBFA
:103E43002442FBE43AFAEF248AFFE43E90044BF069
:103E5300A3EFF0A374FCF0A374070240BB900444E7
:103E6300E075F032A4FBAAF02418FFE43AFEC00682
:103E7300C007900443E075F032A4FFAEF02460FD68
:103E8300E43EFCEB2442FBE43AFAEF248AFFE43EEF
:103E930090044BF0A3EFF0A37407F0A374E0024087
:103EA300BB900444E075F032A4FBAAF02418FFE4AD
:103EB3003AFEC006C007900443E075F032A4FFAE9B
:103EC300F02460FDE43EFCEB2442FBE43AFAEF24E9
:103ED3008AFFE43E90044BF0A3EFF0A37401F0A338
:103EE30074CF0240BB900444E075F032A4FBAAF007
:103EF3002418FFE43AFEC006C007900443E075F0BF
:103F030032A4FFAEF02460FDE43EFCEB2442FBE46C
:103F13003AFAEF248AFFE43E90044BF0A3EFF0A3B8
:103F2300E4F0A3741F0240BB900444E075F032A494
:103F3300FBAAF02418FFE43AFEC006C0079004432E
:103F4300E075F032A4FFAEF02460FDE43EFCEB2408
:103F530042FBE43AFAEF248AFFE43E90044BF0A3D9
:103F6300EFF0A374F8F0A3E40240BB900444E075BF
:103F7300F032A4FBAAF02418FFE43AFEC006C007FF
:103F8300900443E075F032A4FFAEF02460FDE43EFC
:103F9300FCEB2442FBE43AFAEF248AFFE43E90046C
:103FA3004BF0A3EFF0A374F8F0A3741F0240BB908F
:103FB3000444E075F032A4FBAAF02418FFE43AFEAF
:103FC300C006C007900443E075F032A4FFAEF024AE
:103FD30060FDE43EFCEB2442FBE43AFAEF248AFF63
:103FE300E43E90044BF0A3EFF0A374BCF0A3744041
:103FF3000240BB900444E075F032A4FBAAF02418FD
:10400300FFE43AFEC006C007900443E075F032A413
:10401300FFAEF02460FDE43EFCEB2442FBE43AFAFD
:10402300EF248AFFE43E90044BF0A3EFF0A3742B3C
:10403300F0A374120240BB900444E075F032A4FB79
:10404300AAF02418FFE43AFEC006C007900443E038
:1040530075F032A4FFAEF02460FDE43EFCEB244295
:10406300FBE43AFAEF248AFFE43E90044BF0A3EF1B
:10407300F0A37484F0A37430803E900444E075F0A0
:1040830032A4FBAAF02418FFE43AFEC006C007904E
:104093000443E075F032A4FFAEF02460FDE43EFC7F
:1040A300EB2442FBE43AFAEF248AFFE43E90044B0C
:1040B300F0A3EFF0E4A3F0A3F0D007D00612CC6A8C
:1040C30090044874FFF0A374C0F0A37400F090044C
:1040D30043E075F008A424CEF582E43404F583C0EC
:1040E30083C082900444E0D082D08375F00212240E
:1040F300E5E0FFA3E090044BCFF0A3EFF07B017A60
:104103000479111255C47B017A04791112CF72AD6F
:1041130007900444E075F032A4242DFBE435F0FA53
:10412300ED75F004A4FFC3EB9FFFEA95F0FEC00614
:10413300C007900443E075F032A4246DFDE435F02C
:10414300FC7B017A04791174FF90044CF0A3F0A373
:1041530074A6F0A37451F0A37410F0A37401F0D00B
:1041630007D00612BB0F8049900444E075F032A4D7
:10417300FBAAF02418FFE43AFEC006C007900443EC
:10418300E075F032A4FFAEF02460FDE43EFCEB24C6
:1041930042FBE43AFAEF248AFFE43E90044BF0A397
:1041A300EFF0A374A6F0A37451F0D007D00612CC9D
:1041B3006A900444E004F0023D72900443E004F08A
:1041C300023D5F9004C9E0640170107BFF7AC079FF
:1041D3000390044C74F8F0A3E480239004C9E07BBB
:1041E300FF700E7AC0792090044C74F8F0A3E48039
:1041F3000D7AC0793D90044C74BCF0A37440F0A3D5
:1042030074C6F0A37418F0A3740CF0E4A3F07D2C2F
:084213007C017F24FE12BB0FA9
:01421B002280
:04D18D007F03DFFE3F
:01D19100227B
:04D192007F12DFFE2B
:01D196002276
:04D197007F26DFFE12
:01D19B002271
:04D19C007FC6DFFE6D
:01D1A000226C
:09D11900007F027E5ADEFEDFFCFD
:01D1220022EA
:09D12300007F207E28DEFEDFFC07
:01D12C0022E0
:10D00700AD07AC0612D123ED1D70011C144C70F452
:01D0170022F6
:07B42100440776016E3600BE
:10CB7F00E4F593F594F591F592F595F596F5B1F5F4
:10CB8F00B2F5B3F5B4F5C9F5CAF5CBF5CCF5E1F5CA
:0DCB9F00E212D15E12CE7612CCFBC2C12292
:10CE4400C28CD2A95389FC5389FB538FFE438E8035
:09CE5400758CA2758A40D28C2273
:10CE5D00C28ED2AB5389CF5389BF538FFD438E40C2
:09CE6D00758DD1758B20D28E2247
:10CF0800538EE343AF04538FFB438E0475D6E87505
:06CF1800D790438E1022A9
:10CF870053D1F043AF2043D10275D4ED75D540435B
:03CF9700D108229C
:10CF9A0053D10F43AF4043D12075D2F675D3A04386
:03CFAA00D1802211
:10CFBF000102040810204080000000FFFF00000065
:02CFCF00000060
:10CE760053B3EF43B41053B3F743B40853B3FB4370
:09CE8600B404C2C4C2C3C2C2223A
:0DD0B900C2C312D197D2C312D197C2C322B5
:05C8290090041AEFF07D
:10C82E00E4A3F090041BE0C3940874809480502A13
:10C83E0090041AE0548064807004D2C48002C2C492
:10C84E0012D197C2C212D197D2C212D19790041AA6
:0AC85E00E025E0F0A3E004F080C93B
:01C8680022AD
:10C47000900413EBF0A3EAF0A3E9F0A3ECF0A3ED32
:01C48000F0CB
:10C48100E4A3F0A3F0900416E0FEA3E0FFA3E0FC18
:10C49100A3E0FDC39FEC9E5026900413E0FBA3E0B4
:10C4A100FAA3E0F98D828C83122148FF12C82990EA
:10C4B1000419E004F070CE900418E004F080C60284
:02C4C100D0B9F0
:10CCFB0078117C047D017BFF7ACF79C77E007F02A0
:10CD0B001221097B017A0479117D027C0002C47027
:10CD1B0078A87C077D017BFF7ACF79C97E007F02E3
:10CD2B001221097B017A0779A87D027C0002C4706D
:10CD3B0078AA7C077D017BFF7ACF79CB7E007F02BF
:10CD4B001221097B017A0779AA7D027C0002C4704B
:05C55E009007A2EFF0C0
:10C5630078A37C077D017BFF7ACF79CD7E007F02A4
:10C573001221099007A2E0FFD394077480948040AE
:10C583000BEF90CFB7939007A3F0800C9007A2E036
:10C5930090CFBF939007A4F07B017A0779A37D0224
:05C5A3007C0002C470E1
:10CD5B0078AC7C077D017BFF7ACF79CF7E007F0299
:10CD6B001221097B017A0779AC7D027C0002C47029
:08B428004107AEFE4107AF0031
:09D1550053B3FE43B401C2C02231
:09D15E0053B3FE43B401D2C02218
:10C36D009007AEE0FF7E00647F7011A3E070047D46
:10C37D000180027D009007AFEDF08019EF64FE4E55
:10C38D0070139007AFE0600D70047F0180027F0095
:10C39D009007AFEFF09007AEE0FFF5E8A3E070086F
:10C3AD00EF25E04401FF80099007AEE0C313448000
:06C3BD00FF9007AEEFF057
:01C3C3002257
:0300A00002CD3B53
:0EB9400090070EEFF0A3EBF0A3EAF0A3E9F0FE
:10B94E00C3740F9F900715F0AE02900712A3E0FA92
:10B95E00A3E0C399FFEA9EFE90070EE0FDC37408B4
:10B96E009DFDE49400FCD3EF9DEC6480F8EE6480C2
:10B97E00985059900712E0FBA3E0FAA3E0F9C00338
:10B98E00C002C00190070FA3E0FAA3E0F9C3D08272
:10B99E00D083D0E0E99582EA95835030900715E088
:10B9AE00FF12C55E90070FE0FBA3E0FAA3E0F912C9
:10B9BE00212FF5E812D12312CD5B900715E014F07C
:0CB9CE00900710E475F00112224680A7DB
:01B9DA00224A
:0EBE9900900726EBF0A3EAF0A3E9F0A3EDF08A
:10BEA70090072B740FF090072BE0FFC39408748062
:10BEB7009480405012C55E90072BE0FFC3740F9F1C
:10BEC700FFE49400FE90072AE07C002FFFEC3EFE83
:10BED700900729E0FD1221BB90072CEDF090072673
:10BEE700E0FBA3E0FAA3E0F990072CE0F582758365
:10BEF70000122148F5E812D12312CD5B90072BE001
:04BF070014F080A210
:01BF0B002213
:10B430005205CEC0F9A4B0999282F880908883C654
:05B44000A1868EBFFF94
:10CDB90012CD1BE4F5CB75CCFF75E8FF53937F4388
:0DCDC9009480D2875395FD439602D2A1229B
:06962F009006921224A82F
:109635009006967406F0900692E0FCEC3390069E38
:1096450040057411F0801A7410F0900692E0FCA3A6
:10965500E0FDA3E0FEA3E0FF12243E900692122453
:10966500A8E47B0AFAF9F8900692E0FCA3E0FDA3D2
:10967500E0FEA3E0FF12C7A4900697EBF0E47B0A97
:10968500FAF9F8900692E0FCA3E0FDA3E0FEA3E062
:10969500FF12C7A4E47B0AFAF9F812C7A49006984A
:1096A500EBF0E47B64FAF9F8900692E0FCA3E0FDA8
:1096B500A3E0FEA3E0FF12C7A4E47B0AFAF9F812BF
:1096C500C7A4900699EBF0E47BE87A03F9F89006D5
:1096D50092E0FCA3E0FDA3E0FEA3E0FF12C7A4E433
:1096E5007B0AFAF9F812C7A490069AEBF0E47B100E
:1096F5007A27F9F8900692E0FCA3E0FDA3E0FEA32B
:10970500E0FF12C7A4E47B0AFAF9F812C7A4900691
:109715009BEBF07BA07A8679017800900692E0FCBD
:10972500A3E0FDA3E0FEA3E0FF12C7A4E47B0AFAD1
:10973500F9F812C7A490069CEBF07B407A42790FAA
:109745007800900692E0FCA3E0FDA3E0FEA3E0FF15
:1097550012C7A4E47B0AFAF9F812C7A490069DEB98
:10976500F0900696E0FF3395E0FE74972FF582742E
:10977500063EF583E0701A900696E014F0EF3395F7
:10978500E0FE74972FF58274063EF5837411F08020
:10979500D0900692E0FCA3E0FDA3E0FEA3E0FFEC81
:1097A5004D4E4F7004900697F09006967407F09012
:1097B5000696E0FF3395E0C364809480403512C57A
:1097C5005E900696E0FF3395E0FE74972FF5827460
:1097D500063EF583E024CEF582E43405F583E0F515
:1097E500E87F027E0012D00712CD5B900696E0144A
:0397F500F080BC45
:0197F800224E
:0BC05A00900743EBF0A3EAF0A3E9F02D
:10C06500EFC39408748094805057C374089FFEA34F
:10C07500E0FDD39E504BC374089FC39DA3F090076A
:10C0850046E0FF14F0EF6039A3E0FF12C55E9007AC
:10C0950043E0FBA3E0FAA3E0F9A3E0F58275830092
:10C0A50012214824CEF582E43405F583E0F5E87FD6
:10C0B500027E0012D00712CD5B900747E004F080A6
:01C0C500BDBD
:01C0C6002257
:10D0180000010200030000000400000000000000FE
:10B4450041057FFF510580002B0908072D060504DE
:08B45500780302012F23002AF5
:10000E00900592E0FC75F8F07E3CDEFEE5F854F0CB
:10001E00900592F075F80F7E3CDEFE900592E0FEA4
:10002E00E5F8540FFDEE4DF0E0F4F06C70609005C5
:10003E007EE0FC900592E090057EF0604CC2D5EC1F
:10004E007004D2D5801B90057EE0B5041490059106
:10005E00E004F0C394147480948040057412F0D2BE
:10006E00D530D52A90057EE0FFC4540F90D018935A
:10007E00FC601BEF540F93FF6014EC1425E025E099
:10008E00FEEF2E90057FF08005E4900591F075F857
:01009E00FF62
:01009F00223E
:03D1A600256400FD
:10CF1E0075E8FFC293D290C291C291D291E5E820FA
:05CF2E00E7FBAFE82263
:10C8E9009007C0EFF0C291D293C290F5E87F017E24
:10C8F9000012D007D2917F057E0012D007C2919015
:10C9090007C0E0C454F0F5E87F017E0012D007D2D9
:0BC91900917F057E0012D007C2912222
:10C924009007C1EFF0C291C293C290F5E87F017EF7
:10C934000012D007D2917F057E0012D007C29190D9
:10C9440007C1E0C454F0F5E87F017E0012D007D29D
:0BC95400917F057E0012D007C29122E7
:0DD0C600D293D290C291C291D291AFE822D4
:10C2B600E4F5E85391F74392085391FE43920153F4
:10C2C60091FD439202F5CB75CCFF7F3812C9247FCE
:10C2D600057E0012D0077F3812C9247F057E001222
:10C2E600D0077F3812C9247F057E0012D0077F321F
:10C2F60012C9247F2812C9247F0C12C9247F061272
:0CC30600C9247F0112C9247F8002C924D1
:0CD0E0007F0112C9247F027E0002D007ED
:10CCD8009007C2EBF0ED5401FDEF540FFFED600437
:10CCE800EF4440FFEF4480FF12C9249007C2E0FFE1
:03CCF80002C8E986
:10C1320090072DEFF0A3EDF0A3EBF0A3EAF0A3E953
:01C14200F00C
:10C1430012CF72900732EFF090072EE05401F09077
:10C15300072DE0540FF0E4900733F0900732E0FF2F
:10C16300A3E0FEC39F502B90072DE0FFA3E0FDA3A8
:10C17300E0FBA3E0FAA3E0F98E8275830012214865
:10C18300FB12CCD890072DE004F0900733E004F0C5
:02C1930080C961
:01C195002287
:0CC5A800900593EFF0A3EDF0AF03AE029E
:10C5B4007B017A0579959005A4EBF0A3EAF0A3E951
:10C5C400F090044874FFF0A374D1F0A374A6F0A310
:10C5D400EEF0A3EFF01255C4900593E0FFA3E0FD45
:0EC5E4009005A4E0FBA3E0FAA3E0F902C13247
:0CD0EC0090FE82E030E6F9E054BFF02234
:10CE0E0043912043922043911043921043BA809055
:0BCE1E00FE8074E0F090FE82E4F02241
:09D1670090FE817401F002D0EC8D
:09D1700090FE817406F002D0EC7F
:0ECCB40012D16712D08112CCC2AF0512D0810E
:10CCC20090FE817403F012D0EC90FE82E030E1031A
:06CCD2007F01227F002219
:0ED0730090FE82E4F090FE817405F002D0EC95
:0FD0280090FE827401F090FE817405F002D0EC4E
:0ED0810090FE86EFF090FE817402F002D0EC7B
:0FD0370090FE817404F012D0EC90FE87E0FF228F
:10CA0D00AE0712CCB412D167EE4401FF12D08112E1
:10CA1D00CCC212D037EF122175740129F9E43AFA1C
:10CA2D0090074DE06401600312D07390074DE01440
:09CA3D00F070DF12D02802D17064
:10CAB500900750EBF0A3EAF0A3E9F012CCB490078D
:10CAC50050E0FBA3E475F00112225CA9F0FA1221F3
:10CAD5002FFF12D08112CCC2900753E014F070DE04
:03CAE50002D1700B
:10421C0025640000000000003E5B4F5B3E3E6B4F90
:10422C006B3E1C3E7C3E1C183C7E3C181C577D573C
:10423C001C1C5E7F5E1C00183C1800FFE7C3E7FFE8
:10424C000018241800FFE7DBE7FF30483A060E267B
:10425C0029792926407F050507407F05253F5A3CD3
:10426C00E73C5A7F3E1C1C08081C1C3E7F14227F16
:10427C0022145F5F005F5F06097F017F00668995EE
:10428C006A606060606094A2FFA29408047E0408D7
:10429C0010207E201008082A1C08081C2A08081E5A
:1042AC00101010100C1E0C1E0C30383E3830060E40
:1042BC003E0E06000000000000005F00000007003A
:1042CC000700147F147F14242A7F2A1223130864F6
:1042DC006236495620500008070300001C2241009A
:1042EC000041221C002A1C7F1C2A08083E080800DA
:1042FC00807030000808080808000060600020107A
:10430C000804023E5149453E00427F400072494933
:10431C0049462141494D331814127F102745454514
:10432C00393C4A4949314121110907364949493635
:10433C00464949291E0000140000004034000000CA
:10434C0008142241141414141400412214080201FC
:10435C005909063E415D594E7C1211127C7F494928
:10436C0049363E414141227F4141413E7F494949C5
:10437C00417F090909013E414151737F0808087FBB
:10438C0000417F41002040413F017F081422417FC2
:10439C00404040407F021C027F7F0408107F3E415A
:1043AC0041413E7F090909063E4151215E7F0919B1
:1043BC002946264949493203017F01033F404040C9
:1043CC003F1F2040201F3F4038403F6314081463B8
:1043DC0003047804036159494D43007F4141410274
:1043EC0004081020004141417F04020102044040B6
:1043FC00404040000307080020545478407F284474
:10440C0044383844444428384444287F385454545D
:10441C001800087E090218A4A49C787F080404786C
:10442C0000447D40002040403D007F1028440000A7
:10443C00417F40007C047804787C0804047838447C
:10444C00444438FC1824241818242418FC7C080430
:10445C000408485454542404043F44243C40402051
:10446C007C1C2040201C3C4030403C4428102844FC
:10447C004C9090907C4464544C44000836410000AD
:10448C0000770000004136080002010204023C26BD
:10449C0023263C1EA1A161123A4040207A38545484
:1044AC005559215555794121545478412155547809
:1044BC004020545579400C1E52721239555555599D
:1044CC00395454545939555454580000457C4100C2
:1044DC0002457D420001457C40F0292429F0F0285A
:1044EC002528F07C545545002054547C547C0A09F2
:1044FC007F4932494949323248484832324A484861
:10450C00303A4141217A3A42402078009DA0A07D6A
:10451C0039444444393D4040403D3C24FF24244828
:10452C007E4943662B2FFC2F2BFF0929F620C088D0
:10453C007E090320545479410000447D41304848A1
:10454C004A32384040227A007A0A0A727D0D1931BB
:10455C007D2629292F28262929292630484D402017
:10456C00380808080808080808382F10C8ACBA2FF3
:10457C00102834FA00007B000008142A142222149C
:10458C002A1408AA005500AAAA55AA55AA00000088
:10459C00FF00101010FF00141414FF001010FF0087
:1045AC00FF1010F010F0141414FC001414F700FF9A
:1045BC000000FF00FF1414F404FC141417101F1057
:1045CC00101F101F1414141F00101010F000000006
:1045DC00001F101010101F10101010F01000000011
:1045EC00FF101010101010101010FF10000000FF22
:1045FC00140000FF00FF00001F10170000FC04F463
:10460C0014141710171414F404F40000FF00F7141A
:10461C00141414141414F700F714141417141010A1
:10462C001F101F141414F4141010F010F000001FBD
:10463C00101F0000001F14000000FC140000F010FC
:10464C00F01010FF10FF141414FF141010101F00A2
:10465C00000000F010FFFFFFFFFFF0F0F0F0F0FFA4
:10466C00FFFF0000000000FFFF0F0F0F0F0F38447B
:10467C004438447C2A2A3E147E02020606027E023C
:10468C007E0263554941633844443C04407E201EFD
:10469C002006027E020299A5E7A5991C2A492A1C2C
:1046AC004C7201724C304A4D4D303048784830BC19
:1046BC00625A463D3E494949007E0101017E2A2A43
:1046CC002A2A2A44445F444440514A444040444AC4
:1046DC0051400000FF0103E080FF000008086B6BF5
:1046EC00083612362436060F090F0600001818007B
:1046FC0000001010003040FF0101001F01011E00DE
:0E470C00191D1712003C3C3C3C000000000050
:10CBD3009007C3EFF012D1677F7812D08112CCC2D5
:10CBE300E4FF12D08112CCC29007C3E0FF12D081C0
:06CBF30012CCC202D17059
:10CBF9009007C4EFF012D1677F7812D08112CCC2AE
:10CC09007F4012D08112CCC29007C4E0FF12D081BC
:06CC190012CCC202D17032
:05CE290024B0FFE4FD50
:10CE2E009007C5EFF0ED6005E0FF02CBF99007C566
:06CE3E00E0FF12CBD3223D
:10CC1F009007C6EFF0ED12CE299007C6E054F0C48E
:10CC2F00540F4410FFE4FD12CE2E9007C6E0540FB0
:06CC3F00FFE4FD02CE2E11
:10CF3300E4FD7F8D12CE2EE4FD7F1412CE2EE4FD90
:05CF43007FAF02CE2EBD
:10CF4800E4FD7F8D12CE2EE4FD7F1012CE2EE4FD7F
:05CF58007FAE02CE2EA9
:10C95F00E4FFEFC3940474809480502DE4FEEEC383
:10C96F00948074809480501E75F004EEA42405F515
:10C97F0082E5F03402F583E5822FF582E43583F505
:09C98F0083E4F00E80D80F80C98A
:01C99800227C
:10C0C700E49007B1F09007B1E0FFC3940474809443
:10C0D700805057EF12CE29E4FDFF12CE2EE4FD7FEC
:10C0E7001012CE2EE49007B0F09007B0E0FFC39493
:10C0F7008074809480502BA3E0FE75F004EFA42495
:10C1070005F582E5F03402F583E5822EF582E43504
:10C1170083F583E0FF7D0112CE2E9007B0E004F097
:0AC1270080C79007B1E004F0809B90
:01C1310022EB
:10C99900E4FEEEC3940474809480502DE4FDEDC34D
:10C9A900948074809480501E75F004EDA42405F5DC
:10C9B90082E5F03402F583E5822EF582E43583F5CC
:09C9C90083EFF00D80D80E80C947
:01C9D2002242
:10B7F2009006A3A3E0FF9006A7E075F00CA42F2B00
:0FB80200FF9006A5A3E09006A8FEE02EFD7B01B7
:10B81100EFD3948074809480400302B89CED94200F
:10B82100748094805075EB6037ED131313541FFE31
:10B8310075F004EFA42405F582E5F03402F583E503
:10B84100822EF582E43583F583C083C082E0FFED6B
:10B851005407FEF87401088002C333D8FC4F8036C8
:10B86100ED131313541FFE75F004EFA42405F582A4
:10B87100E5F03402F583E5822EF582E43583F58324
:10B88100C083C082E0FFED5407FEF8740108800216
:0CB89100C333D8FCF45FD082D083F022D7
:0DAD200090077BEDF0A3EBF090077AEFF0C9
:10AD2D003395E0C3648094805077E4FCECC39405C4
:10AD3D0074809480400302AE0B90077CE075F005A3
:10AD4D00A4241FF582E5F03442F583E5822CF582CB
:10AD5D00E43583F583E49390077DF0E4F9E9FF7E14
:10AD6D0000C3940874809480503490077AE0FDFB02
:10AD7D003395E0FAEB2FEE3AC36480948040159042
:10AD8D00077DE030E00EED2CFF90077BE029FD7B89
:10AD9D000112B81190077DE0C313F00980BF0C803C
:10ADAD008BE4FCECC3940574809480505190077C27
:10ADBD00E075F005A4241FF582E5F03442F583E536
:10ADCD00822CF582E43583F583E49390077DF0E4DE
:10ADDD00F9E9C3940874809480502090077DE03089
:10ADED00E00F90077AE02CFFA3E029FD7B0112B85C
:0EADFD001190077DE0C313F00980D60C80A5ED
:01AE0B002224
:10C1FA00900754EFF0A3EDF0A3EBF0A3EAF0A3E964
:01C20A00F043
:10C20B00E4A3F0900756E0FBA3E0FAA3E0F9A3E068
:10C21B00F582758300122148FB6032900754E0FFD2
:10C22B00A3E0FD12AD20900754E02408F0E0FF33AB
:10C23B0095E0FED3EF9478EE648094804007E4F0B1
:0DC24B00A3E02402F0900759E004F080B653
:01C2580022C3
:0CC9D300900616EFF0A3EDF0AF03AE02EB
:10C9DF0090044874FFF0A37442F0A3741CF0A3EE0C
:10C9EF00F0A3EFF07B017A0679181255C490061662
:0EC9FF00E0FFA3E0FD7B017A06791802C1FA81
:0E87B10090069FEFF0A3EBF0A3EAF0A3E9F02F
:1087BF00A3E0FEA3E0FFC3EE648094804003028930
:1087CF000EC3E49FFFE49EFE7C007D0C12221090EE
:1087DF0006A7EFF090069FE0FF9006A7E0C39F402B
:1087EF0003028A16E4A3F09006A8E0C3940C7480E9
:1087FF0094804003028905E4A3F09006A9E0FD7C74
:10880F0000C3940C7480948040030288FC9006A7E8
:10881F00E075F00CA42DFFEC35F0FE9006A3E0FC04
:10882F00A3E0FD2FFFEC3ECF24F4CF34FFFED3EFB8
:10883F00947FEE648094804003028A169006A8E02D
:10884F00FF9006A6E02FFF9006A5E03400CF24F49A
:10885F00CF34FFFED3EF943FEE6480948040030249
:10886F008A169006A7E0F975F00CA4FFED2FFFEC28
:10887F0035F0FE9006A9E0FD7A002FEA3EC3648032
:10888F00948050028001C3405B9006A8E075F0020F
:10889F00A4FBAAF0E975F018A42BFFE5F03AFEED62
:1088AF00131313541F7C002FFFEC3EFE9006A0E025
:1088BF00FBA3E0FAA3E0F98F828E83122148FD908B
:1088CF0006A9E0FB5407FF7E007480A80708800606
:1088DF00CEA2E713CE13D8F8FFEE5CFEEF5D4E602D
:1088EF000312B7F29006A9E004F00288099006A8D7
:1088FF00E004F00287F69006A7E004F00287E3E4B5
:10890F009006A7F090069FE0FF9006A7E0C39F4058
:10891F0003028A16E4A3F09006A8E0C3940C7480B7
:10892F0094804003028A0DE4A3F09006A9E0FD7C39
:10893F0000C3940C748094804003028A049006A7AD
:10894F00E075F00CA42DFFEC35F0FE9006A4E02F9F
:10895F00FF9006A3E03ECF24F4CF34FFFED3EF9475
:10896F007FEE648094804003028A169006A8E0FF91
:10897F00FD9006A6E02DFD9006A5E03CCD24F4CD9C
:10898F0034FFFCD3ED943FEC648094805079EF7505
:10899F00F002A4FDACF09006A7E075F018A42DFF2F
:1089AF00E5F03CFE9006A9E0131313541F7C002F33
:1089BF00FFEC3EFE9006A0E0FBA3E0FAA3E0F98FE8
:1089CF00828E83122148FD9006A9E0FB5407FF7E9B
:1089DF00007480A807088006CEA2E713CE13D8F83C
:1089EF00FFEE5CFEEF5D4E600312B7F29006A9E05A
:1089FF0004F00289399006A8E004F0028926900657
:078A0F00A7E004F002891347
:018A1600223D
:0E8517009006AAEFF0A3EBF0A3EAF0A3E9F0C0
:10852500A3E0FEA3E0FFC3EE6480948040030286CF
:108535008CC3E49FFFE49EFE7C007D101222109008
:1085450006B2EFF09006AAE0FF9006B2E0C39F40A6
:10855500030287B0E4A3F09006B3E0C394107480DF
:1085650094804003028683E4A3F09006B4E0FD7C8A
:1085750000C3941074809480400302867A9006B2FA
:10858500E075F010A42DFFEC35F0FE9006AEE0FC92
:10859500A3E0FD2FFFEC3ECF24F0CF34FFFED3EF59
:1085A500947FEE6480948040030287B09006B3E028
:1085B500FF9006B1E02FFF9006B0E03400CF24F025
:1085C500CF34FFFED3EF943FEE64809480400302E6
:1085D50087B09006B2E0F975F010A4FFED2FFFEC1F
:1085E50035F0FE9006B4E0FD7A002FEA3EC36480C4
:1085F500948050028001C340739006B3E075F00289
:10860500A4FBAAF0E975F020A42BFFE5F03AFEEDF6
:10861500131313541F7C002FFFEC3EFE9006ABE0B6
:10862500FBA3E0FAA3E0F98F828E83122148FD9027
:1086350006B4E0FB5407FF7E007480A80708800697
:10864500CEA2E713CE13D8F8FFEE5CFEEF5D4E60C9
:108655001B9006AEA3E0FF9006B2E0C454F02F2BAA
:10866500FF9006B0A3E09006B312B80B9006B4E0F5
:1086750004F002856F9006B3E004F002855C900675
:10868500B2E004F0028549E49006B2F09006AAE053
:10869500FF9006B2E0C39F40030287B0E4A3F090C9
:1086A50006B3E0C394107480948040030287A7E466
:1086B500A3F09006B4E0FD7C00C394107480948010
:1086C500400302879E9006B2E075F010A42DFFECE2
:1086D50035F0FE9006AFE02FFF9006AEE03ECF24CA
:1086E500F0CF34FFFED3EF947FEE64809480400397
:1086F5000287B09006B3E0FFFD9006B1E02DFD9036
:1087050006B0E03CCD24F0CD34FFFCD3ED943FEC36
:108715006480948040030287B0EF75F002A4FDAC3D
:10872500F09006B2E075F020A42DFFE5F03CFE9038
:1087350006B4E0131313541F7C002FFFEC3EFE908C
:1087450006ABE0FBA3E0FAA3E0F98F828E8312214A
:1087550048FD9006B4E0FB5407FF7E007480A8072F
:10876500088006CEA2E713CE13D8F8FFEE5CFEEF25
:108775005D4E601C9006AEA3E0FF9006B2E0C454C7
:10878500F02F2BFF9006B0A3E0FE9006B312B80CB5
:108795009006B4E004F00286B79006B3E004F00258
:0B87A50086A49006B2E004F00286916A
:0187B00022A6
:0E827A009006B5EFF0A3EBF0A3EAF0A3E9F055
:10828800A3E0FEA3E0FFC3EE648094804003028372
:10829800F1C3E49FFFE49EFE7C007D18122210903B
:1082A80006BDEFF09006B5E0FF9006BDE0C39F4025
:1082B80003028516E4A3F09006BEE0C39418748008
:1082C800948040030283E8E4A3F09006BFE0FD7CBD
:1082D80000C394187480948040030283DF9006BD25
:1082E800E075F018A42DFFEC35F0FE9006B9E0FC1F
:1082F800A3E0FD2FFFEC3ECF24E8CF34FFFED3EF01
:10830800947FEE6480948040030285169006BEE058
:10831800FF9006BCE02FFF9006BBE03400CF24E8B6
:10832800CF34FFFED3EF943FEE6480948040030285
:1083380085169006BDE0F975F018A4FFED2FFFEC47
:1083480035F0FE9006BFE0FD7A002FEA3EC3648058
:10835800948050028001C340759006BEE075F0031A
:10836800A4FBAAF0E975F048A42BFFE5F03AFEED6E
:10837800131313541F7C002FFFEC3EFE9006B6E04B
:10838800FBA3E0FAA3E0F98F828E83122148FD90C7
:1083980006BFE0FB5407FF7E007480A8070880062C
:1083A800CEA2E713CE13D8F8FFEE5CFEEF5D4E6069
:1083B8001D9006B9A3E0FF9006BDE075F018A42F44
:1083C8002BFF9006BBA3E0FE9006BE12B80C9006E9
:1083D800BFE004F00282D29006BEE004F00282BF41
:1083E8009006BDE004F00282ACE49006BDF0900671
:1083F800B5E0FF9006BDE0C39F4003028516E4A3E5
:10840800F09006BEE0C394187480948040030285FF
:108418000DE4A3F09006BFE0FD7C00C394187480BF
:10842800948040030285049006BDE075F018A42DE1
:10843800FFEC35F0FE9006BAE02FFF9006B9E03E5B
:10844800CF24E8CF34FFFED3EF947FEE648094808E
:1084580040030285169006BEE0FFFD9006BCE02DA5
:10846800FD9006BBE03CCD24E8CD34FFFCD3ED9471
:108478003FEC648094804003028516EF75F003A4F6
:10848800FDACF09006BDE075F048A42DFFE5F03C8A
:10849800FE9006BFE0131313541F7C002FFFEC3E21
:1084A800FE9006B6E0FBA3E0FAA3E0F98F828E8384
:1084B800122148FD9006BFE0FB5407FF7E00748040
:1084C800A807088006CEA2E713CE13D8F8FFEE5C03
:1084D800FEEF5D4E601D9006B9A3E0FF9006BDE07B
:1084E80075F018A42F2BFF9006BBA3E0FE9006BEE4
:1084F80012B80C9006BFE004F002841C9006BEE09F
:0E85080004F00284099006BDE004F00283F640
:018516002242
:0E7FD4009006C0EFF0A3EBF0A3EAF0A3E9F0F3
:107FE200A3E0FEA3E0FFC3EE64809480400302811D
:107FF20050C3E49FFFE49EFE7C007D20122210907D
:1080020006C8EFF09006C0E0FF9006C8E0C39F40AC
:1080120003028279E4A3F09006C9E0C3942074803D
:1080220094804003028147E4A3F09006CAE0FD7CFD
:1080320000C3942074809480400302813E9006C85D
:10804200E075F020A42DFFEC35F0FE9006C4E0FCB4
:10805200A3E0FD2FFFEC3ECF24E0CF34FFFED3EFB1
:10806200947FEE6480948040030282799006C9E096
:10807200FF9006C7E02FFF9006C6E03400CF24E051
:10808200CF34FFFED3EF943FEE648094804003022E
:1080920082799006C8E0F975F020A4FFED2FFFEC7D
:1080A20035F0FE9006CAE0FD7A002FEA3EC36480F6
:1080B200948050028001C3407AED75F004A4FDACB7
:1080C200F0E975F080A42DFFE5F03CFE9006C9E0D2
:1080D200131313541F7C002FFFEC3EFE9006C1E0E9
:1080E200FBA3E0FAA3E0F98F828E83122148FD9070
:1080F20006C9E0FB5407FF7E007480A807088006CB
:10810200CEA2E713CE13D8F8FFEE5CFEEF5D4E6011
:10811200229006C4A3E0FF9006C8E0C43354E02FC7
:10812200FF9006CAE02FFF9006C6A3E02BFD7B015D
:1081320012B8119006CAE004F002802C9006C9E041
:1081420004F00280199006C8E004F0028006E49070
:1081520006C8F09006C0E0FF9006C8E0C39F400347
:10816200028279E4A3F09006C9E0C394207480945B
:10817200804003028270E4A3F09006CAE0FD7C0016
:10818200C394207480948040030282679006C8E002
:1081920075F020A42DFFEC35F0FE9006C5E02FFF10
:1081A2009006C4E03ECF24E0CF34FFFED3EF947FAD
:1081B200EE6480948040030282799006C9E0FDFF5C
:1081C2009006C7E02FFF9006C6E03400CF24E0CF30
:1081D20034FFFED3EF943FEE64809480400302822A
:1081E200799006CAE075F004A4FBAAF09006C8E0F4
:1081F20075F080A42BFFE5F03AFEED131313541F24
:108202002FFFEC3EFE9006C1E0FBA3E0FAA3E0F9EB
:108212008F828E83122148FD9006C9E0FB5407FF2E
:108222007E007480A807088006CEA2E713CE13D87A
:10823200F8FFEE5CFEEF5D4E60229006C4A3E0FF05
:108242009006C8E0C43354E02FFF9006CAE02FFF27
:108252009006C6A3E02BFD7B0112B8119006CAE07E
:1082620004F002817B9006C9E004F0028168900666
:07827200C8E004F002815591
:0182790022E2
:0ABD34009006EAEFF09006ECEBF049
:10BD3E00E49006F1F0A3F09006EDE0131313541FF8
:10BD4E00F0540770028000AF05AE079006EDE0FFDD
:10BD5E00EEC39F504C9006EAE0FF9006ECE0FDEF3C
:10BD6E00C39D503A9006EEE0FBA3E0FAA3E0F9A3E0
:10BD7E00E475F00112225C85F082F583122148FDF4
:10BD8E0075F004EFA42405F582E5F03402F583E5A1
:10BD9E00822EF582E43583F583EDF00F80BC0E80A4
:01BDAE00AAEA
:01BDAF002271
:10B6990012CE0E7F647E0012D007E4FD7FAE12CE7B
:10B6A9002EE4FD7F4012CE2EE4FD7FB012CE2EE4B3
:10B6B900FD7FC812CE2EE4FD7F8112CE2EE4FD7FE0
:10B6C900FF12CE2EE4FD7FA112CE2EE4FD7FA6123D
:10B6D900CE2EE4FD7FA812CE2EE4FD7F1F12CE2EC2
:10B6E900E4FD7FD312CE2EE4FDFF12CE2EE4FD7FC2
:10B6F900D512CE2EE4FD7FF012CE2EE4FD7FD912B5
:10B70900CE2EE4FD7F2212CE2EE4FD7FDA12CE2E5C
:10B71900E4FD7F0212CE2EE4FD7FDB12CE2EE4FD86
:10B729007F4912CE2EE4FD7F8D12CE2EE4FD7F14CB
:0DB7390012CE2EE4FD7FAF12CE2E02C95FAE
:09D12D00007F027E3CDEFEDFFC07
:01D1360022D6
:0ED08F00C2C67F147E0012D007D2C602D12D79
:10C25900E49007C7F030C6159007C7E0C39464742B
:10C269008094805008E004F012D18D80E89007C7CF
:10C27900E0C394647480948040037F0122E49007B2
:10C28900C7F020C6159007C7E0C3946474809480F2
:10C299005008E004F012D18D80E89007C7E0C394FC
:0CC2A900647480948040037F01227F00B9
:01C2B5002266
:10C71800E49007C8F030C6159007C8E0C394647465
:10C728008094805008E004F012D18D80E8E49007EE
:10C73800C8F020C6159007C8E0C39464748094803C
:10C748005008E004F012D18D80E812D12D30C603D4
:05C758007F01227F00BB
:01C75D0022B9
:10CA4600E49007B3F09007B2F09007B2E0C3940801
:10CA560074809480501CA3E0FF25E0F0E0FEC00641
:10CA660012C718D0E04F9007B3F09007B2E004F079
:07CA760080D79007B3E0FF39
:01CA7D002296
:0BB48D009006F3EBF0A3EAF0A3E9F057
:10B4980012D08F12C259EF600302B5389006FBF044
:10B4A8009006FBE0C3940574809480501A12CA4633
:10B4B8009006FBE024F6F582E43406F583EFF0907D
:10B4C80006FBE004F080D99006F7E0FF9006F6E06E
:10B4D8002FFFE433FE9006F8E07C002FFFEC3EFEE1
:10B4E800A3E02FFFEC3EFEA3E06F7001EE704490E6
:10B4F80006F6E0FF9006F3E0FBA3E0FAA3E0F9EF1D
:10B508001221759006F7E0FF9006F3E0FBA3E0FA3E
:10B51800A3E0F9900001EF1221879006F8E090006F
:10B52800021221879006F9E0900003122187800318
:05B538007F01227F00ED
:01B53D0022EB
:0ED09D0053B3BF53B4BFD2C612D08F02C259D4
:10CFD1007B017A07797E12B48DEF70F490077EE0C1
:01CFE100FF50
:01CFE200222C
:10B25F007B017A07791612B48DEF70F4900718E01E
:10B26F00547FFCE4121D8590071A1224A890071A28
:10B27F00E0FCA3E0FDA3E0FEA3E0FFE4FBFA7920EE
:10B28F007841121B5C90071A1224A890071AE0F855
:10B29F00A3E0F9A3E0FAA3E0FBC000C001C002C025
:10B2AF0003900719E0FCE4121D85D003D002D001F2
:10B2BF00D000121A6B90071A1224A890071AE0FCFC
:10B2CF00A3E0FDA3E0FEA3E0FFE4FBFA79207841C1
:10B2DF00121C6590071A1224A8900718E030E71E79
:10B2EF0090071AE0FCA3E0FDA3E0FEA3E0FFE4FB60
:10B2FF00FA798078BF121B5C90071A1224A8900766
:0CB30F001AE0FCA3E0FDA3E0FEA3E0FFB9
:01B31B00220F
:1025640025640000000000000000000000000000DE
:10257400000404040404040004000000140A0A0013
:1025840000000000000000000014143F140A3F0A79
:102594000A000000041E1505060C14150F040000A3
:1025A4000012150D0A142C2A1200000000040A0A55
:1025B4001E1515093600000002020100000000008B
:1025C4000000000020100808080808081020000077
:1025D40002040808080808080402000000000415A2
:1025E4000E0E150400000000000404041F0404047B
:1025F40000000000000000000000000002020100D2
:10260400000000001F0000000000000000000000A7
:102614000000000002000000100808080404020280
:1026240002010000000E1111111111110E00000021
:1026340000040604040404040E000000000E11113A
:10264400080402011F000000000E11100C101011EC
:102654000E00000000080C0A0A091E0818000000F9
:10266400001F01010F1010110E000000000E0901DF
:102674000F1111110E000000001F090804040404C6
:1026840004000000000E11110E1111110E000000C3
:10269400000E1111111E10120E00000000000004A3
:1026A400000000000400000000000000040000001E
:1026B4000404000020100804020408102000000094
:1026C4000000001F00001F000000000002040810AA
:1026D4002010080402000000000E11110804040078
:1026E40004000000000E111915151D011E00000044
:1026F4000004040C0A0A1E1233000000000F121218
:102704000E1212120F000000001E1101010101112E
:102714000E000000000F1212121212120F0000001D
:10272400001F120A0E0A02121F000000001F120AE4
:102734000E0A020207000000001C120101391112E6
:102744000C000000003312121E121212330000009B
:10275400001F0404040404041F000000003E0808D1
:1027640008080808090700000037120A060A0A12B6
:102774003700000000070202020202223F000000AC
:10278400001B1B1B1B15151515000000003B121622
:10279400161A1A1217000000000E1111111111114E
:1027A4000E000000000F12120E02020207000000C9
:1027B400000E1111111117190E180000000F12123A
:1027C4000E0A121237000000001E11010608101133
:1027D4000F000000001F1504040404040E00000090
:1027E40000331212121212120C00000000331212E3
:1027F4000A0A0C0404000000001515150E0A0A0A42
:102804000A000000001B0A0A04040A0A1B00000054
:10281400001B0A0A040404040E000000001F090837
:10282400040402121F0000001C0404040404040431
:10283400041C00000202020404080808100000003E
:102844000E08080808080808080E0000040A00001A
:102854000000000000000000000000000000000074
:1028640000003F0004000000000000000000000021
:10287400000000000C121C123C00000000030202C5
:102884000E1212120E000000000000001C120202C0
:102894001C000000001810101C1212123C00000052
:1028A400000000000C121E021C000000003804048A
:1028B4001E0404041E000000000000003C120C0270
:1028C4001E221C00000302020E1212123700000026
:1028D40000040000060404040E00000000080000C8
:1028E4000C08080808080700000302023A0A0E123E
:1028F4003700000000070404040404041F0000005F
:10290400000000000F151515150000000000000060
:102914000F12121237000000000000000C121212F5
:102924000C000000000000000F1212120E0207003B
:10293400000000001C1212121C10380000000000DD
:102944001B06020207000000000000001E020C101B
:102954001E000000000004040E040404180000001B
:10296400000000001B1212123C00000000000000D6
:1029740037120A0C040000000000000015150E0AAE
:102984000A000000000000001B0A040A1B000000EB
:102994000000000037120A0C0404030000000000C9
:1029A4001E0804041E00000018080808040808088B
:1029B4000818000808080808080808080808080093
:1029C4000604040408040404040600022518000094
:1029D40000000000000000000000000000000000F3
:1029E40000000000000000000000080808080808B3
:1029F4000800001818000000486C241200000000B1
:102A0400000000000000000000002424247F1212B3
:102A1400127F12121200000000081C2A2A0A0C1845
:102A240028282A2A1C080800000022251515152A22
:102A3400585454542200000000000C1212120A765A
:102A4400252911916E000000060604030000000011
:102A540000000000000000004020101008080808D2
:102A6400080810102040000002040808101010107C
:102A7400101008080402000000000008086B1C1C69
:102A84006B08080000000000000000080808087F28
:102A94000808080800000000000000000000000012
:102AA400000000060604030000000000000000FE11
:102AB4000000000000000000000000000000000012
:102AC4000000000606000000008040402020101096
:102AD4000808040402020000000018244242424292
:102AE40042424224180000000000080E08080808AA
:102AF400080808083E00000000003C424242202032
:102B0400100804427E00000000003C4242201820CD
:102B1400404042221C0000000000203028242422CF
:102B2400227E20207800000000007E0202021A2685
:102B3400404042221C0000000000382402021A26F1
:102B4400424242241800000000007E222210100895
:102B5400080808080800000000003C42424224180B
:102B6400244242423C0000000000182442424264D5
:102B7400584040241C000000000000000018180009
:102B84000000001818000000000000000000080009
:102B9400000000000808040000004020100804029F
:102BA400040810204000000000000000007F000026
:102BB400007F000000000000000002040810204014
:102BC400201008040200000000003C42424640205D
:102BD400101000181800000000001C225A5555550A
:102BE400552D42221C00000000000808181414246B
:102BF4003C224242E700000000001F2222221E2243
:102C0400424242221F00000000007C4242010101B6
:102C1400010142221C00000000001F2242424242E5
:102C2400424242221F00000000003F4212121E12C4
:102C3400120242423F00000000003F4212121E12E4
:102C4400120202020700000000003C2222010101DE
:102C5400712122221C0000000000E7424242427E11
:102C640042424242E700000000003E08080808080B
:102C7400080808083E00000000007C101010101026
:102C84001010101010110F0000007722120A0E0A03
:102C94001212222277000000000007020202020240
:102CA400020202427F000000000077363636362AE0
:102CB4002A2A2A2A6B0000000000E346464A4A52A8
:102CC400525262624700000000001C22414141410F
:102CD400414141221C00000000003F424242423E6A
:102CE400020202020700000000001C22414141418F
:102CF400414D53321C60000000003F4242423E12EC
:102D040012222242C700000000007C424202041842
:102D1400204042423E00000000007F4908080808A5
:102D2400080808081C0000000000E7424242424232
:102D3400424242423C0000000000E7424222242476
:102D4400141418080800000000006B49494949554B
:102D540055362222220000000000E74224241818DD
:102D640018242442E70000000000772222141408EB
:102D7400080808081C00000000007E21201010082C
:102D8400040442423F0000007808080808080808C4
:102D9400080808080878000000020204040808086B
:102DA40010102020204040001E1010101010101091
:102DB40010101010101E0000384400000000000025
:102DC40000000000000000000000000000000000FF
:102DD400000000000000FF000608000000000000E2
:102DE40000000000000000000000000000003C4261
:102DF40078444242FC0000000000030202021A264A
:102E0400424242261A00000000000000000038443C
:102E14000202024438000000000060404040784450
:102E240042424264D80000000000000000003C421E
:102E34007E0202423C0000000000F08808087E0880
:102E4400080808083E0000000000000000007C2282
:102E5400221C023C42423C000000030202023A46A9
:102E640042424242E700000000000C0C00000E0841
:102E7400080808083E000000000030300000382038
:102E84002020202020221E000000030202027212D1
:102E94000A1612227700000000000E08080808082D
:102EA400080808083E0000000000000000007F92AF
:102EB40092929292B70000000000000000003B468E
:102EC40042424242E70000000000000000003C4291
:102ED400424242423C0000000000000000001B2669
:102EE400424242221E020700000000000000784413
:102EF400424242447840E000000000000000774C69
:102F0400040404041F0000000000000000007C42D0
:102F1400023C40423E0000000000000008083E0859
:102F240008080808300000000000000000006342A8
:102F340042424262DC000000000000000000E74260
:102F44002424140808000000000000000000EB49DD
:102F5400495555222200000000000000000076249C
:102F6400181818246E000000000000000000E7425A
:102F740024241418080807000000000000007E2222
:102F8400100808447E000000C020202020201020CB
:102F94002020202020C0001010101010101010103D
:102FA4001010101010101000060808080808100867
:102FB400080808080806000C32C2000000000000DF
:0B2FC400000000000000000000000002
:0AB45D004205BD00004205BBFFFFE1
:0FD04600C293C2918FE800000000D291D29322D2
:10CFE300C293C29012D18DAFE8EF7F00FED290D2F0
:01CFF30093AA
:01CFF400221A
:05D1A100C28302D0462C
:05D1370012D1A1E4FF8C
:05D13C00D28302D04681
:0AD14100D28312CFE3EEFF7E00223E
:05CF5D00E0FEA3E0FF6F
:10CF6200AD07AC06D283ECFF12D046AF0502D04625
:10CD7B00AA07ED54FC75F008A4FDEA54F845F0FE43
:0FCD8B00EDFFEB54F8131313541FFDEF4DFF2270
:10BC3200D283C293C29012D18DAFE8900782E4F012
:10BC4200A3EFF0E0F8E4F0E8900782F0D290C2901F
:10BC520012D18DAFE8900782E4F0A3EFF0E0F8E4B0
:10BC6200F0E8900782F0D290C29012D18DAFE890A6
:10BC72000784E4F0A3EFF0E0F8E4F0E8900784F042
:10BC8200D290C29012D18DAFE8AB07EBFAD290906E
:10BC92000782E0FF7E00EEF0A3EFF0A3E0F8E4F00D
:10BCA200E8A3F0EAFB7A00D293900784A3E0FD02B6
:02BCB200CD7B48
:0AD14B0012D1A1AE04AF0502D13CE1
:10C5F200900416EBF0A3EAF0A3E9F07E0012D1A1B9
:10C6020075E8FF75CBFFE4F5CC90041974FFF5F0E3
:10C6120012225C45F0601912D141900416E0FBA38E
:10C62200E475F00112225CA9F0FAEF12217580D9AB
:0AC63200E4F5CB75CCFF75E8FF229C
:0BD0F8009005C6E0FEA3E0FF02D1A1FE
:0BD103009005C8E0FEA3E0FF02D1A1F0
:08C41B00900413EEF0A3EFF012
:10C4230012BCB4E4900415F0A3F09005BFE0FEA3A2
:10C43300E0FFC3900416E09F900415E09E502DE4A6
:10C44300FBFAD39005C2E09B9005C1E09A400D90A2
:10C45300041312CF5D0BBB00010A80E6900416E0C3
:0CC4630004F070C6900415E004F080BEE8
:01C46F0022AA
:10C75E0090052DE02401FF90052CE03400FE90059D
:0CC76E002FE02401FD90052EE03400FCBB
:10C77A00AB07AA068D828C83C006C007AE83AF8240
:10C78A00900465EEF0A3EFF0D007D00612BCDB9060
:0AC79A0005BDE0FEA3E0FF02CF6240
:08C63C009007B4EEF0A3EFF04B
:10C64400D39005C0E09F9005BFE09E400DD39005B8
:10C65400C2E09D9005C1E09C5004E4FEFF229007D7
:10C66400B4E0FEA3E0FF12C4F212D10375E8FF7533
:10C67400CBFFE4F5CC12BC32E4F5CB75CCFF75E806
:01C68400FFB6
:01C685002292
:10CC45005391FE4392015391FD4392025393F7434F
:10CC550094085391F74392085391DF439220E4F5EA
:05CC6500CB75CCFF229D
:10CE8F007F327E0012D007C2957F327E0012D0070C
:09CE9F00D2957F327E0002D0071B
:10907B0012CC4512CE8F7F017E0012D1A17F32120E
:10908B00D0077F287E0012D1A17FF612D1A17F01DC
:10909B0012D13C12D13C1F12D13C7FCF12D1377F62
:1090AB008112D13C7F3012D13C7FED12D1A17F6474
:1090BB0012D13C7F0312D13C7F1212D13C7F811223
:1090CB00D13C7FE812D1A17F8512D13C7F1012D108
:1090DB003C7F7812D13C7FCB12D1A17F3912D13C8E
:1090EB007F2C12D13CE4FF12D13C7F3412D13C7F58
:1090FB000212D13C7FF712D1A17F2012D13C7FEA23
:10910B0012D13712D13C7FB012D1377FB412D13785
:10911B007FC012D1A17F2112D13C7FC112D1A17F7F
:10912B001112D13C7FC512D1A17F3F12D13C7F3CA4
:10913B0012D13C7FC712D1A17FB512D13C7F361221
:10914B00D1A17F4812D13C7F3A12D1A17F5512D1C8
:10915B003C7FB112D1377F1B12D13C7FB612D1A10C
:10916B007F0A12D13C7FA212D13C7FF212D1377F02
:10917B002612D1A17F0112D13C7FE012D1A17F0F2A
:10918B0012D13C7F2612D13C7F2412D13C7F0B1293
:10919B00D13C7F0E12D13C7F0912D13C7F5412D1AE
:1091AB003C7FA812D13C7F4612D13C7F0C12D13CA4
:1091BB007F1712D13C7F0912D13C7F0F12D13C7F1C
:1091CB000712D13CE4FF12D13C7FE112D1377F195A
:1091DB0012D13C7F1B12D13C7F0412D13C7F101269
:1091EB00D13C7F0712D13C7F2A12D13C7F4712D151
:1091FB003C7F3912D13C7F0312D13C7F0612D13C0C
:10920B0012D13C7F3012D13C7F3812D13C7F0F12F0
:10921B00D13C7F2B12D13712D13C0F12D13C7F3F67
:10922B0012D13C7F2A12D13712D13C12D13C7FEFA5
:10923B0012D13C7FB712D1A17F0712D13C7F111203
:10924B00D1A17F9612D0077F297E0012D1A112CB1C
:0E925B001B9005C3EEF0A3EFF0E4FF02A48722
:10BCB4009005C0E024FFFB9005BFE034FFFA900537
:10BCC400C2E024FFFE9005C1E034FF900465F0A3B8
:07BCD400CEF0E4FDFCFFFED1
:10BCDB0090045FEEF0A3EFF09005CAE0FEA3E0FF47
:10BCEB0012D1A190045FE0FF7E0012D13CA3E0FFD4
:10BCFB0012D13CEAFF12D13CAF037E0012D13C9033
:10BD0B0005CCE0FEA3E0FF12D1A1ECFF7E0012D127
:10BD1B003CAF057E0012D13C900465E0FF12D13C94
:09BD2B00A3E0FF12D13C02D0F8A4
:10C4C300900645E075F00CA4FF90063DE02FFF9029
:10C4D300063CE035F0FEEB7C002FFFEC3EFE9006C1
:0FC4E30046E0FD90063FE090063E2DFDE03CFC5C
:10C4F200AB07AA068D828C83C006C007AE83AF82CB
:0FC50200900465EEF0A3EFF0D007D00602BCDB8B
:10A487009005CAE4F0A3742AF0A3E4F0A3742BF0B8
:10A497009005C6E4F0A3742CF0A3E4F0A3742EF0A7
:10A4A700EF14605014700302A53614700302A571EF
:10A4B7002403600302A5B39005BFE4F0A374F0F092
:10A4C700A37401F0A37440F0A3E0FEA3E0FFBE93E2
:10A4D70007BF40047D0180027D00BE9307BF410492
:10A4E7007F0180027F00EF4D60057D0802A5AA7DF0
:10A4F7004002A5AA9005BF7401F0A37440F0A3E43D
:10A50700F0A374F0F0A3E0FEA3E0FFBE9307BF4003
:10A51700047D0180027D00BE9307BF41047F018057
:10A52700027F00EF4D60047DF880027DF08074901B
:10A5370005BFE4F0A374F0F0A37401F0A37440F036
:10A54700A3E0FEA3E0FFBE9307BF40047D018002A6
:10A557007D00BE9307BF41047F0180027F00EF4D5E
:10A5670060047D9880027DC080399005BF7401F03A
:10A57700A37440F0A3E4F0A374F0F0A3E0FEA3E01B
:10A58700FFBE9307BF40047D0180027D00BE930795
:10A59700BF41047F0180027F00EF4D60047D28806A
:0DA5A700027D207C007F367E0012D14B2209
:10CB1B0078117C047D017BFF7A2F79CB7E007F041B
:10CB2B001221097B017A047911900419E4F0A374A2
:10CB3B0004F07FD312C5F2900413E0FEA3E0FDEDE9
:01CB4B00FFEA
:01CB4C0022C6
:10AA2100900487E0FCA3E0FD900485E0FAA3E0FB3D
:10AA3100A3E0FFA3E0900455CFF0A3EFF0900481D1
:10AA4100E0FFA3E0900457CFF0A3EFF0900483E080
:04AA5100FEA3E0FF81
:0EAA550090044FEEF0A3EFF0A3ECF0A3EDF0B1
:10AA630090044FE0FEA3E0FFC3EB9FFFEA9ECF24D9
:10AA730001CF340090045BF0A3EFF0900451E0FEAB
:10AA8300A3E0FFC3900456E09FFF900455E09ECFE0
:10AA93002401CF340090045DF0A3EFF0900451E063
:10AAA300FCA3E0FD900455E0FFA3E0900465CFF024
:10AAB300A3EFF090044FE0FEA3E0FF12BCDBE490B1
:10AAC3000459F0A3F090045DE0FEA3E0FFC39004FB
:10AAD3005AE09F900459E09E502DE4FBFAD3900472
:10AAE3005CE09B90045BE09A400D90045712CF5DAD
:10AAF3000BBB00010A80E690045AE004F070C69094
:10AB03000459E004F080BE9005C0E024FFFB9005EB
:10AB1300BFE034FFFA9005C2E024FFFE9005C1E0D8
:10AB230034FF900465F0A3CEF0E4FDFCFFFE02BC0D
:01AB3300DB46
:0E8C5D0090041DEEF0A3EFF0A3ECF0A3EDF0F9
:108C6B00E4900429F0A3F0A3F0A3F09005BDE0FF7E
:108C7B00A3E090043BCFF0A3EFF0900425E0FFA31B
:108C8B00E09005BDCFF0A3EFF090041DE0FEA3E054
:108C9B00FFC3EB9FFFEA9E90042DF0A3EFF090042F
:108CAB001FE0FAA3E0FBC3900424E09BFE90042397
:108CBB00E09A90042FF0A3CEF090041DE0FFA3E008
:108CCB00900437CFF0A3EFF0A3EAF0A3EBF09004FE
:108CDB002DE0FEA3E0FFD39400EE64809480400A65
:108CEB00900433E4F0A304F08021EF4E700890045D
:108CFB0033F0A3F0801574FF900433F0A3F0C3E4BA
:108D0B009FFFE49E90042DF0A3EFF090042FE0FE64
:108D1B00A3E0FFD39400EE64809480400A90043566
:108D2B00E4F0A304F08021EF4E7008900435F0A31B
:108D3B00F0801574FF900435F0A3F0C3E49FFFE4BB
:108D4B009E90042FF0A3EFF090042FE0FEA3E0FF22
:108D5B0090042DE0FCA3E0FDD39FEE6480F8EC645F
:108D6B0080989004314007ECF0A3EDF08005EEF015
:108D7B00A3EFF0E4900427F0A3F0900432E0240179
:108D8B00FF900431E03400FED3900428E09FEE64A2
:108D9B0080F8900427E06480984003028E6B900467
:108DAB0037E0FEA3E0FFA3E0FCA3E0FD12C77A903F
:108DBB00042DE0FEA3E0FF90042AE02FF09004299D
:108DCB00E03EF090042FE0FEA3E0FF90042CE02F98
:108DDB00F090042BE03EF0900431E0FEA3E0FF9016
:108DEB000429E0FCA3E0FDD39FEE6480F8EC6480E3
:108DFB00984020ED9FFFEC9E900429F0A3EFF0909C
:108E0B000433E0FEA3E0FF900438E02FF09004372A
:108E1B00E03EF0900431E0FEA3E0FF90042BE0FC79
:108E2B00A3E0FDD39FEE6480F8EC6480984020EDC6
:108E3B009FFFEC9E90042BF0A3EFF0900435E0FE27
:108E4B00A3E0FF90043AE02FF0900439E03EF0905D
:108E5B000428E004F07006900427E004F0028D85EE
:0F8E6B0090043BE0FFA3E09005BDCFF0A3EFF034
:018E7A0022D5
:0E772900900511EEF0A3EFF0A3ECF0A3EDF04D
:10773700E490051EF0A3F0A3F0A3F09005BDE0FFD1
:10774700A3E0900530CFF0A3EFF090051AE0FFA378
:10775700E09005BDCFF0A3EFF0900511E0FEA3E0A8
:10776700FFC3EB9FFFEA9E900522F0A3EFF0900581
:1077770013E0FAA3E0FBC3900518E09BFE90051702
:10778700E09A900524F0A3CEF0900511E0FFA3E066
:1077970090052CCFF0A3EFF0A3EAF0A3EBF0900550
:1077A70022E0FEA3E0FFD39400EE64809480400AB9
:1077B700900528E4F0A304F08021EF4E70089005AF
:1077C70028F0A3F0801574FF900528F0A3F0C3E418
:1077D7009FFFE49E900522F0A3EFF0900524E0FEC2
:1077E700A3E0FFD39400EE64809480400A90052ABA
:1077F700E4F0A304F08021EF4E700890052AF0A36F
:10780700F0801574FF90052AF0A3F0C3E49FFFE40E
:107817009E900524F0A3EFF0900524E0FEA3E0FF7F
:10782700900522E0FCA3E0FDD39FEE6480F8EC64B2
:1078370080989005264007ECF0A3EDF08005EEF068
:10784700A3EFF0E490051CF0A3F0900527E02401D6
:10785700FF900526E03400FED390051DE09FEE64FF
:1078670080F890051CE06480984003027A409005F8
:1078770019E0701190052CE0FEA3E0FFA3E0FCA344
:10788700E0FD12C77A900519E06401703890052C65
:10789700E0FEA3E0FFA3E0FCA3E0FD12C77A90059A
:1078A7002DE02401FF90052CE03400FE90052EE02A
:1078B700FCA3E0FD12C77A90052CE0FEA3E0FF12BF
:1078C700C76C12C75E900519E06402600302798FE6
:1078D70090052CE0FEA3E0FFA3E0FCA3E0FD12C7A8
:1078E7007A90052DE02401FF90052CE03400FE90EE
:1078F700052EE0FCA3E0FD12C77A90052CE0FEA35D
:10790700E0FF12C76C12C75E90052DE024FFFF90C1
:10791700052CE034FF12C76B90052DE02401FF9082
:10792700052CE03400FE90052FE024FFFD90052E86
:10793700E034FFFC12C77A90052DE024FFFF900585
:107947002CE034FFFE90052FE024FFFD90052EE08C
:1079570034FFFC12C77A90052DE024FFFF90052C19
:10796700E034FFFE90052EE0FCA3E0FD12C77A90FD
:10797700052CE0FEA3E0FF90052FE024FFFD900516
:107987002EE034FFFC12C77A900522E0FEA3E0FF49
:1079970090051FE02FF090051EE03EF0900524E0D3
:1079A700FEA3E0FF900521E02FF0900520E03EF0D8
:1079B700900526E0FEA3E0FF90051EE0FCA3E0FD96
:1079C700D39FEE6480F8EC6480984020ED9FFFEC35
:1079D7009E90051EF0A3EFF0900528E0FEA3E0FFC0
:1079E70090052DE02FF090052CE03EF0900526E065
:1079F700FEA3E0FF900520E0FCA3E0FDD39FEE642B
:107A070080F8EC6480984020ED9FFFEC9E90052065
:107A1700F0A3EFF090052AE0FEA3E0FF90052FE02A
:107A27002FF090052EE03EF090051DE004F0700663
:107A370090051CE004F0027851900530E0FFA3E0C8
:087A47009005BDCFF0A3EFF0A4
:017A4F002214
:10AEF700900417EAF0A3EBF0900413EEF0A3EFF041
:10AF0700A3ECF0A3EDF0C007A3E0FAA3E0FB9004E5
:10AF170015E0FFA3E0900423CFF0A3EFF090041B0C
:10AF2700E0FFA3E0900425CFF0A3EFF0D007128C49
:10AF37005D900413E0FAA3E0FBFFAE02C007A3E0B5
:10AF4700FCA3E0FD900419E0FFA3E0900423CFF0F9
:10AF5700A3EFF090041BE0FFA3E0900425CFF0A33C
:10AF6700EFF0D007128C5D900419E0FCA3E0FD9090
:10AF77000417E0FAA3E0FBA3E0FFA3E0900423CFCC
:10AF8700F0A3EFF090041BE0FFA3E0900425CFF0BF
:10AF9700A3EFF0900413E0FEA3E0FF128C5D900492
:10AFA70017E0FAA3E0FBFFAE02C007900415E0FC30
:10AFB700A3E0FD900419E0FFA3E0900423CFF0A3E2
:10AFC700EFF090041BE0FFA3E0900425CFF0A3EF80
:06AFD700F0D007028C5DC2
:10CC6A00C00790044BE0FFA3E0900455CFF0A3EF78
:10CC7A00F090044DE0FFA3E0900457CFF0A3EFF04B
:05CC8A00D00702AA55CD
:10CAE8009006DAFEE0FCA3E0FD9006D9E02DFD906B
:0DCAF80006D8E03CFC9006DEE0FAA3E0FB6F
:10CB05009007B6EAF0A3EBF012C4F29007B6E0FE88
:06CB1500A3E0FF02CF6265
:10A21C009006DCF0A3EFF090062DE0FFA3E0900693
:0EA22C00DECFF0A3EFF0900627E0FEA3E0FFE8
:10A23A009006D8ECF0A3EDF09006D6EEF0A3EFF07E
:10A24A009006DAEAF0A3EBF02FFFEE3AA312CAEB7C
:10A25A009006DAE0FEA3E0FFC39006D7E09FFF90E6
:10A26A0006D6E09EFE9006DC12CAEC9006DAE0FE04
:10A27A00A3E0FF9006D7E02FFF9006D6E03EFE90BF
:10A28A0006DCE0FCA3E0FDC39006D9E09DFD900644
:10A29A00D8E09C12CAFC9006DAE0FEA3E0FFC39065
:10A2AA0006D7E09FFF9006D6E09EFE9006DCE0FC13
:10A2BA00A3E0FDC39006D9E09DFD9006D8E09C126C
:10A2CA00CAFC9006DCE0FEA3E0FF9006D7E02FFF71
:10A2DA009006D6E03E12CAE89006DCE0FEA3E0FF54
:10A2EA00C39006D7E09FFF9006D6E09E12CAE89078
:10A2FA0006DCE0FEA3E0FF9006D7E02FFF9006D62B
:10A30A00E03EFE9006DAE0FCA3E0FDC39006D9E049
:10A31A009DFD9006D8E09C12CAFC9006DCE0FEA3E4
:10A32A00E0FFC39006D7E09FFF9006D6E09EFE901E
:10A33A0006DAE0FCA3E0FDC39006D9E09DFD900695
:0FA34A00D8E09CFC9006DEE0FAA3E0FB02CB0516
:0E944D00900627EEF0A3EFF0A3ECF0A3EDF0F5
:10945B00E4900630F0A3F0A3EAF0A3EBF025E0FFD5
:10946B00EA33FEC374039F900637F0E49E900636F2
:10947B00F090062FE0700302957C900632E0FEA37D
:10948B00E0FF900630E0FCA3E0FDD39FEE6480F894
:10949B00EC648098400302962E900634ECF0A3ED1A
:1094AB00F0900632E0FEA3E0FFD3900635E09FEE8E
:1094BB006480F8900634E0648098502B900629E085
:1094CB00FCA3E0FD900630E0FAA3E0FB900634E04D
:1094DB00FFA3E0CF12A21C900635E004F070C290FF
:1094EB000634E004F080BA900636E0FCA3E0FDC33E
:1094FB00EC648094805023900630E0FEA3E0780269
:10950B00C333CE33CED8F92DFFEC3ECF2406CF3468
:10951B0000900636F0A3EFF08043900632E0FEA3F6
:10952B00E0FFC3900631E09FFF900630E09EFEEF18
:10953B007802C333CE33CED8F9FF900637E02FFF36
:10954B00900636E03ECF240ACF3400F0A3EFF09024
:10955B000633E024FFF0900632E034FFF090063142
