:0EBD64004100020042020300324200000000D3
:10A0FD009004077401F0E4900410F0A374FFF012C3
:10A10D00CB6412CE9312CFD1D2AF12CEF712D19E15
:10A11D001290A37B017A04790812B1E190040CA38B
:10A12D00A3E0FEA3E0FBAA06900408A3A3E0FEA310
:10A13D00E02BFFEE3AFE12C57D12CDEB1298219069
:10A14D000558E0FF3395E0C364809480401AEF33E7
:10A15D0095E0FE74592FF58274053EF583E0900469
:10A16D0011F090055874FFF0900002E06010E4F0DB
:10A17D0012D133EF600812D1AC900410EFF09004BF
:10A18D0007E06008123CDFE4900407F0900410E053
:10A19D00FD6047900407E04401F0ED24F4602624AF
:10A1AD00FE602624FA601614602314601424FD60EA
:10A1BD00082408701D7F7780167F7380127F618061
:10A1CD000E7F64800A7F7180067F7280027F63122A
:10A1DD00B4E4E4900410F002A14C900411E0FBFDF6
:10A1ED003395E0FCEDF47002ECF4700302A14C9099
:10A1FD000407E04401F0EB24DD602824F9602024FD
:10A20D00FD601424FE600C24B76010244D70197F7E
:10A21D007780127F73800E7F61800A7F6480067F56
:10A22D007180027F7212B4E490041174FFF002A1E8
:01A23D004CD4
:03000B0002BE54DE
:10BE5400C0E0C0F0C083C082C0D075D000C000C0B4
:0DBE640001C002C003C004C005C006C00735
:10BE7100900001E02401FF900000E03400FE9002F8
:10BE810003E0FAA3E0FBFDAC02121692900000EC75
:10BE9100F0A3EDF0EB24FFFFEA34FFFE900000E099
:0BBEA100B50608A3E0B5070312000E71
:10BEAC00D007D006D005D004D003D002D001D000EA
:0BBEBC00D0D0D082D083D0F0D0E03294
:0300A30002C7CDC4
:10C7CD00C0E0C0F0C083C082C0D075D000C000C032
:10C7DD0001C002C003C004C005C006C00712AC767C
:10C7ED009000027401F0D007D006D005D004D0031C
:10C7FD00D002D001D000D0D0D082D083D0F0D0E004
:01C80D0032F8
:108EA30000000000000000000000000000000000BF
:108EB300000000000000000000000FF00000387800
:108EC300000070380000F0380000F0780000F078FF
:108ED300000000F0000000E0000001C0000003807B
:108EE3000000070000000E000000380000007000C2
:108EF3000000E0000001800000030180000E030079
:108F0300001C0600003FFE00003FFC0000000000C4
:108F1300000000000000000000000000000000004E
:108F2300000000000000000000000000000000003E
:108F3300000000000000000000000FE000001C70B3
:108F43000000387000007070000060700000E07076
:108F53000000E0700001C0E00001C0E0000380E019
:108F6300000381C0000381C0000703C00007038022
:108F73000007038000070700000F0700000E0E0024
:108F830000061C00000738000003F000000000008A
:108F930000000000000000000000000000000000CE
:108FA30000000000000000000000000000000000BE
:108FB300000000000000000000000070000000E05E
:108FC300000001E0000003E0000007C000000FC044
:108FD30000001BC000003380000067800000C70052
:108FE3000001870000030F0000060E00000C0E00B6
:108FF300001FFFC0003FFFC000001C0000003C003A
:109003000000380000007C000003FF0000000000A7
:10901300000000000000000000000000000000004D
:10902300000000000000000000000000000000003D
:10903300000000000000000000000FF000001C38DA
:1090430000003838000070380000F0380000F0707D
:109053000000F0600000F1C000007F8000003E00CF
:1090630000007F000001CF80000387C0000703C01A
:10907300000E03C0000C03C0000C0380000C0700AB
:10908300000E0E000007BC000001E000000000001D
:1090930000000000000000000000000000000000CD
:10CDEB007B017A0479A090077BEBF0A3EAF0A3E92F
:0DCDFB00F09004177427F0E4FFFE02BFB2B1
:10CCE700E4FFFE12CB327B017A0479A090077BEB3D
:10CCF700F0A3EAF0A3E9F090041B7427F0E4FFFE29
:03CD070002A83C43
:10C01B0042657374203A0053636F72653A002531A1
:10C02B00396400256400202020202020202020209F
:10C03B00596F752057696E20212020202020202049
:10C04B0020200020202020202020202020596F7528
:10C05B00204C6F73652120202020202020202000E1
:10C06B004A6F696E207468652074696C65732C2047
:0DC07B0067657420746F2032303438210066
:10B42800E4900424F0FFEFC394047480948050489F
:10B43800E4FEEEC39404748094805039EF75F008EC
:10B44800A424A0F582E43404F58375F002EE121901
:10B45800BCE0FCA3E04C701AEF25E025E02EFD903F
:10B468000424E0FC04F074142CF582E43404F5831D
:10B47800EDF00E80BD0F80AE900424E07002FF2234
:10B4880012C53F900424E0FD7C001216E774142DC9
:10B49800F58274043CF583E0900413F012C53F7CF8
:10B4A800007D0A1216E7ED64014C7005FE7F0480EA
:10B4B800047E007F02900413E0FD1313543F75F0DF
:10B4C80008A424A0F582E43404F583ED540375F050
:0BB4D800021219BCEEF0A3EFF07F01A0
:01B4E3002246
:10696700E4F9E9FF3395E0FEC3EF9404EE64809405
:10697700804003026C43E4900414F0A3F0A3F0906A
:106987000413F0900413E0FFFD3395E0FCC3ED948E
:1069970004EC648094804003026C3FEF3395E0FC85
:1069A700ED25E0FBEC33FAE9FF3395E0FEEF7803E2
:1069B700C333CE33CED8F924A0F58274043EF583D1
:1069C700E5822BF582E5833AF583E0FAA3E0FBED58
:1069D70025E0FDEC33FCE9FF3395E0FEEF7803C3D8
:1069E70033CE33CED8F92417F58274043EF583E508
:1069F700822DF582E5833CF583EAF0A3EBF0E9FF0E
:106A07003395E0FEEF7803C333CE33CED8F924A015
:106A1700F58274043EF583E5822DF582E5833CF526
:106A270083E0FEA3E0FF4E7003026C36900415E08E
:106A3700FCA3E0FD4C700B900415EEF0A3EFF00201
:106A47006BB5900413E0FF3395E0FEEF25E0FBEE16
:106A570033FAE9FF3395E0FEEF7803C333CE33CE45
:106A6700D8F924A0F58274043EF583E5822BF582DC
:106A7700E5833AF583E0FEA3E06D7002EC6E6003F8
:106A8700026B30900416E025E0FD900415E033FC1E
:106A9700900414E0FF3395E0FEEF25E0FBEE33FAB8
:106AA700E9FF3395E0FEEF7803C333CE33CED8F951
:106AB70024A0F58274043EF583E5822BF582E583F5
:106AC7003AF583ECF0A3EDF0900416E025E0FF9093
:106AD7000415E033FE9004C1E02FF09004C0E03EBF
:106AE700F0E4900415F0A3F0E9FF3395E0FEEF78AA
:106AF70003C333CE33CED8F924A0F58274043EF510
:106B070083E5822BF582E5833AF583E0FEA3E0FF78
:106B17009004C4E0FCA3E0FDEF6D7002EE6C60032F
:106B2700026BAFA304F0026BAF900415E0FCA3E087
:106B3700FD900414E0FF3395E0FEEF25E0FBEE3314
:106B4700FAE9FF3395E0FEEF7803C333CE33CED8AF
:106B5700F924A0F58274043EF583E5822BF582E5DE
:106B6700833AF583ECF0A3EDF0900413E0FF33953F
:106B7700E0FEEF25E0FDEE33FCE9FF3395E0FEEFA5
:106B87007803C333CE33CED8F924A0F58274043EFC
:106B9700F583E5822DF582E5833CF583E0FFA3E0ED
:106BA700900415CFF0A3EFF0900414E004F09004E4
:106BB70013E0FF3395E0FEEF25E0FDEE33FCE9FF40
:106BC7003395E0FEEF7803C333CE33CED8F924A054
:106BD700F58274043EF583E5822DF582E5833CF565
:106BE70083E4F0A3F0900415E07002A3E060409006
:106BF7000415E0FCA3E0FD900414E0FF3395E0FEEC
:106C0700EF25E0FBEE33FAE9FF3395E0FEEF78037B
:106C1700C333CE33CED8F924A0F58274043EF5836E
:106C2700E5822BF582E5833AF583ECF0A3EDF0904E
:106C37000413E004F002698A09026969E4F9E9FFCB
:106C47003395E0FEC3EF9404EE6480948040030222
:106C57006CECE4900413F0900413E0FFFD3395E02F
:106C6700FCC3ED9404EC648094805075EF3395E099
:106C7700FCED25E0FBEC33FAE9FF3395E0FEEF7816
:106C870003C333CE33CED8F92417F58274043EF507
:106C970083E5822BF582E5833AF583E0FAA3E0FBEF
:106CA700ED25E0FDEC33FCE9FF3395E0FEEF7803DB
:106CB700C333CE33CED8F924A0F58274043EF583CE
:106CC700E5822DF582E5833CF583E0FEA3E06B705A
:106CD70002EE6A60037F0122900413E004F0026C65
:076CE7005E09026C457F000D
:016CEE002283
:106CEF00E4F9E9FF3395E0FEC3EF9404EE6480947A
:106CFF00804003026FCA9004147403F0E4A3F0A35E
:106D0F00F09004137403F0900413E0FF3395E0C385
:106D1F00648094805003026FC6EFFD3395E0FCED65
:106D2F0025E0FBEC33FAE9FF3395E0FEEF7803C380
:106D3F0033CE33CED8F924A0F58274043EF583E523
:106D4F00822BF582E5833AF583E0FAA3E0FBED258C
:106D5F00E0FDEC33FCE9FF3395E0FEEF7803C3333E
:106D6F00CE33CED8F92417F58274043EF583E5822D
:106D7F002DF582E5833CF583EAF0A3EBF0E9FF33D1
:106D8F0095E0FEEF7803C333CE33CED8F924A0F5C8
:106D9F008274043EF583E5822DF582E5833CF5830D
:106DAF00E0FEA3E0FF4E7003026FBD900415E0FC00
:106DBF00A3E0FD4C700B900415EEF0A3EFF0026F03
:106DCF003C900413E0FF3395E0FEEF25E0FBEE333C
:106DDF00FAE9FF3395E0FEEF7803C333CE33CED815
:106DEF00F924A0F58274043EF583E5822BF582E544
:106DFF00833AF583E0FEA3E06D7002EC6E60030250
:106E0F006EB7900416E025E0FD900415E033FC907A
:106E1F000414E0FF3395E0FEEF25E0FBEE33FAE9D3
:106E2F00FF3395E0FEEF7803C333CE33CED8F9248A
:106E3F00A0F58274043EF583E5822BF582E5833A53
:106E4F00F583ECF0A3EDF0900416E025E0FF90043D
:106E5F0015E033FE9004C1E02FF09004C0E03EF047
:106E6F00E4900415F0A3F0E9FF3395E0FEEF78030B
:106E7F00C333CE33CED8F924A0F58274043EF58304
:106E8F00E5822BF582E5833AF583E0FEA3E0FF90E0
:106E9F0004C4E0FCA3E0FDEF6D7002EE6C60030232
:106EAF006F36A304F0026F36900415E0FCA3E0FDEB
:106EBF00900414E0FF3395E0FEEF25E0FBEE33FA8C
:106ECF00E9FF3395E0FEEF7803C333CE33CED8F925
:106EDF0024A0F58274043EF583E5822BF582E583C9
:106EEF003AF583ECF0A3EDF0900413E0FF3395E057
:106EFF00FEEF25E0FDEE33FCE9FF3395E0FEEF7882
:106F0F0003C333CE33CED8F924A0F58274043EF5F3
:106F1F0083E5822DF582E5833CF583E0FFA3E090C6
:106F2F000415CFF0A3EFF0900414E014F0900413C5
:106F3F00E0FF3395E0FEEF25E0FDEE33FCE9FF3394
:106F4F0095E0FEEF7803C333CE33CED8F924A0F506
:106F5F008274043EF583E5822DF582E5833CF5834B
:106F6F00E4F0A3F0900415E07002A3E060409004F9
:106F7F0015E0FCA3E0FD900414E0FF3395E0FEEF75
:106F8F0025E0FBEE33FAE9FF3395E0FEEF7803C31C
:106F9F0033CE33CED8F924A0F58274043EF583E5C1
:106FAF00822BF582E5833AF583ECF0A3EDF09004A4
:106FBF0013E014F0026D1609026CF1E4F9E9FF33E6
:106FCF0095E0FEC3EF9404EE64809480400302705A
:106FDF0073E4900413F0900413E0FFFD3395E0FC8D
:106FEF00C3ED9404EC648094805075EF3395E0FC0E
:106FFF00ED25E0FBEC33FAE9FF3395E0FEEF780384
:10700F00C333CE33CED8F92417F58274043EF583FB
:10701F00E5822BF582E5833AF583E0FAA3E0FBEDF9
:10702F0025E0FDEC33FCE9FF3395E0FEEF7803C379
:10703F0033CE33CED8F924A0F58274043EF583E520
:10704F00822DF582E5833CF583E0FEA3E06B7002B1
:10705F00EE6A60037F0122900413E004F0026FE5F3
:06706F0009026FCC7F0056
:0170750022F8
:10707600E4F9E9FF3395E0FEC3EF9404EE648094EF
:10708600804003027332E4900414F0A3F0A3F0905E
:107096000413F0900413E0FF3395E0FEC3EF94046D
:1070A600EE64809480400302732EE9FD3395E0FC84
:1070B600ED25E0FBEC33FAE03395E0FEEF7803C311
:1070C60033CE33CED8F924A0F58274043EF583E599
:1070D600822BF582E5833AF583E0FAA3E0FBED2502
:1070E600E0FDEC33FC900413E0FF3395E0FEEF780F
:1070F60003C333CE33CED8F9FF2417F58274043E8A
:10710600F583E5822DF582E5833CF583EAF0A3EB72
:10711600F074A02FF58274043EF583E5822DF58286
:10712600E5833CF583E0FEA3E0FF4E700302732582
:10713600900415E0FCA3E0FD4C700B900415EEF0F6
:10714600A3EFF00272AAE9FF3395E0FEEF25E0FB1C
:10715600EE33FA900413E0FF3395E0FEEF7803C3B5
:1071660033CE33CED8F924A0F58274043EF583E5F8
:10717600822BF582E5833AF583E0FEA3E06D70028B
:10718600EC6E6003027232900416E025E0FD900476
:1071960015E033FCE9FF3395E0FEEF25E0FBEE3327
:1071A600FA900414E0FF3395E0FEEF7803C333CE84
:1071B60033CED8F924A0F58274043EF583E5822BFC
:1071C600F582E5833AF583ECF0A3EDF0900416E042
:1071D60025E0FF900415E033FE9004C1E02FF09007
:1071E60004C0E03EF0E4900415F0A3F0900414E02F
:1071F600FF3395E0FEEF7803C333CE33CED8F924C0
:10720600A0F58274043EF583E5822BF582E5833A88
:10721600F583E0FEA3E0FF9004C4E0FCA3E0FDEFED
:107226006D7002EE6C7077A304F08072900415E026
:10723600FCA3E0FDE9FF3395E0FEEF25E0FBEE332E
:10724600FA900414E0FF3395E0FEEF7803C333CEE3
:1072560033CED8F924A0F58274043EF583E5822B5B
:10726600F582E5833AF583ECF0A3EDF0900413E0A4
:10727600FF3395E0FEEF7803C333CE33CED8F9243F
:10728600A0F58274043EF583E5822BF582E5833A08
:10729600F583E0FFA3E0900415CFF0A3EFF0900490
:1072A60014E004F0E9FD3395E0FCED25E0FBEC335A
:1072B600FA900413E0FF3395E0FEEF7803C333CE74
:1072C60033CED8F924A0F58274043EF583E5822BEB
:1072D600F582E5833AF583E4F0A3F0900415E070B7
:1072E60002A3E0603A900415E0FAA3E0FBED25E086
:1072F600FDEC33FC900414E0FF3395E0FEEF7803D9
:10730600C333CE33CED8F924A0F58274043EF58378
:10731600E5822DF582E5833CF583EAF0A3EBF09058
:107326000413E004F002709909027078E4900413E3
:10733600F0900413E0FF3395E0FEC3EF9404EE648F
:1073460080948040030273E1E4F9E9FF3395E0FE9F
:10735600C3EF9404EE648094805077E9FD3395E0A2
:10736600FCED25E0FBEC33FA900413E0FF3395E0E7
:10737600FEEF7803C333CE33CED8F92417F58274E3
:10738600043EF583E5822BF582E5833AF583E0FA40
:10739600A3E0FBED25E0FDEC33FC900413E0FF33A6
:1073A60095E0FEEF7803C333CE33CED8F924A0F5AB
:1073B6008274043EF583E5822DF582E5833CF583F0
:1073C600E0FEA3E06B7002EE6A60037F0122090211
:0D73D6007350900413E004F00273377F0041
:0173E3002287
:1073E400E4F9E9FF3395E0FEC3EF9404EE6480947E
:1073F40080400302769F9004147403F0E4A3F0A386
:10740400F09004137403F0900413E03395E0C36424
:10741400809480500302769BE9FD3395E0FCED25D2
:10742400E0FBEC33FAE0FF3395E0FEEF7803C3337F
:10743400CE33CED8F924A0F58274043EF583E582D8
:107444002BF582E5833AF583E0FAA3E0FBED25E032
:10745400FDEC33FC900413E0FF3395E0FEEF78037A
:10746400C333CE33CED8F9FF2417F58274043EF526
:1074740083E5822DF582E5833CF583EAF0A3EBF006
:1074840074A02FF58274043EF583E5822DF582E520
:10749400833CF583E0FEA3E0FF4E700302769290F6
:1074A4000415E0FCA3E0FD4C700B900415EEF0A372
:1074B400EFF0027617E9FF3395E0FEEF25E0FBEEEF
:1074C40033FA900413E0FF3395E0FEEF7803C333FF
:1074D400CE33CED8F924A0F58274043EF583E58238
:1074E4002BF582E5833AF583E0FEA3E06D7002ECB0
:1074F4006E600302759F900416E025E0FD9004156C
:10750400E033FCE9FF3395E0FEEF25E0FBEE33FAD0
:10751400900414E0FF3395E0FEEF7803C333CE33D9
:10752400CED8F924A0F58274043EF583E5822BF5C8
:1075340082E5833AF583ECF0A3EDF0900416E025A0
:10754400E0FF900415E033FE9004C1E02FF09004B6
:10755400C0E03EF0E4900415F0A3F0900414E0FFC2
:107564003395E0FEEF7803C333CE33CED8F924A0AD
:10757400F58274043EF583E5822BF582E5833AF5C2
:1075840083E0FEA3E0FF9004C4E0FCA3E0FDEF6D04
:107594007002EE6C7077A304F08072900415E0FC26
:1075A400A3E0FDE9FF3395E0FEEF25E0FBEE33FABF
:1075B400900414E0FF3395E0FEEF7803C333CE3339
:1075C400CED8F924A0F58274043EF583E5822BF528
:1075D40082E5833AF583ECF0A3EDF0900413E0FF29
:1075E4003395E0FEEF7803C333CE33CED8F924A02D
:1075F400F58274043EF583E5822BF582E5833AF542
:1076040083E0FFA3E0900415CFF0A3EFF0900414FF
:10761400E014F0E9FD3395E0FCED25E0FBEC33FAF2
:10762400900413E0FF3395E0FEEF7803C333CE33C9
:10763400CED8F924A0F58274043EF583E5822BF5B7
:1076440082E5833AF583E4F0A3F0900415E0700238
:10765400A3E0603A900415E0FAA3E0FBED25E0FD19
:10766400EC33FC900414E0FF3395E0FEEF7803C3A1
:1076740033CE33CED8F924A0F58274043EF583E5E5
:10768400822DF582E5833CF583EAF0A3EBF09004C8
:1076940013E014F002740B090273E6E4900413F08F
:1076A400900413E0FF3395E0FEC3EF9404EE64808E
:1076B4009480400302774EE4F9E9FF3395E0FEC37A
:1076C400EF9404EE648094805077E9FD3395E0FCF8
:1076D400ED25E0FBEC33FA900413E0FF3395E0FE74
:1076E400EF7803C333CE33CED8F92417F58274046C
:1076F4003EF583E5822BF582E5833AF583E0FAA330
:10770400E0FBED25E0FDEC33FC900413E0FF339542
:10771400E0FEEF7803C333CE33CED8F924A0F5824C
:1077240074043EF583E5822DF582E5833CF583E020
:10773400FEA3E06B7002EE6A60037F012209027609
:0C774400BD900413E004F00276A47F0066
:017750002216
:10CB91007E007F207D007B017A0479A0121A3B126E
:10CBA100B42812B428E49004C0F0A3F09004C47433
:0ACBB10008F0A3E4F0A37402F022E0
:10A95600E4900413F0900413E0C39404748094808C
:10A96600400302AA68E4A3F0900414E0FFC3940431
:10A9760074809480400302AA5F900413E075F00887
:10A98600A424A0F582E43404F58375F002EF1219CD
:10A99600BCE0FEA3E04E7002FF22900414E0FF2408
:10A9A60001FDE433FCC3ED9404EC648094805041D3
:10A9B600900413E0FE75F008A424A2F582E43404A2
:10A9C600F58375F002EF1219BCE0FCA3E0FDEE750D
:10A9D600F008A424A0F582E43404F58375F002EFB0
:10A9E6001219BCE0FEA3E0B50507EEB504037F002F
:10A9F60022900413E0FF2401FDE433FCC3ED94042C
:10AA0600EC648094805049EF75F008A424A8F58280
:10AA1600E43404F583C083C082900414E0FED0823F
:10AA2600D08375F0021219BCE0FCA3E0FDEF75F0CF
:10AA360008A424A0F582E43404F58375F002EE122E
:10AA460019BCE0FEA3E0B50507EEB504037F0022BE
:10AA5600900414E004F002A96E900413E004F002DE
:04AA6600A95B7F0168
:01AA6A0022C9
:10B2A900E4900415F09004C6E06402700302B36AE6
:10B2B900E4900414F0900414E0C39404748094801E
:10B2C9005053E4FDEDC3940474809480503F90047E
:10B2D90014E0FC7E007410A804088005C333CE3343
:10B2E900CED8F9A805088005C333CE33CED8F9FFE7
:10B2F900EC75F008A424A0F582E43404F58375F014
:10B3090002ED1219BCEEF0A3EFF00D80B790041412
:10B31900E004F080A0E49004C0F0A3F09004C674A7
:10B3290002F0C39004C2E0648094805009E4F0A361
:10B33900F090041504F09004C4E0FEA3E0FFEE547D
:10B3490007FCEF4C7004EF4E700E9004C47408F0C3
:10B35900A3E4F090041504F0900415E0600312CC06
:01B36900E7FC
:01B36A0022C0
:109821007F187EC612C4497BFF7A8E79A3900418F3
:10983100E4F0A37438F0A3E4F0A37408F0A374FC7B
:10984100F0A37407F074FFA3F0A3F0A37401F07FF9
:1098510004124C4490041A7401F0A37425F0E4A39B
:10986100F0A3F07BDDFA7D5BFC7F13FE12AF41902C
:10987100044C7401F0A37424F0A374A6F0A37451F2
:10988100F07BDC7A007D5C7C007F147E0012CC7959
:109891007BFF7AC0791BE490044DF0A3F0A374C65A
:1098A100F0A37418F0A37410F0A37401F07D327C5E
:1098B100007F147E0012BAC37BFF7AC07922E49044
:1098C100044DF0A3F0A374C6F0A37418F0A37410B0
:1098D100F0A37401F07D447C007F147E0012BAC3B2
:1098E100E4900412F0900412E0FFC3940574809494
:1098F100805059EF75F032A4245CFDE435F0FC9002
:109901000424F0A3EDF0A37454F0A37458F07BDCAD
:109911007A007F147E00128C85900412E075F0327B
:10992100A42414FFE435F0FEAB07FA90042474017B
:10993100F0A37424F0A37454F0A37458F07D5C7CFC
:1099410000128C85900412E004F08099E4900412D6
:10995100F0900412E0C39404748094805066E4A3F0
:10996100F0900413E0FFC3940474809480504DEF91
:1099710075F032A4FBAAF02417FFE43AFEC006C03A
:1099810007900412E075F032A4FFAEF0245FFDE40D
:109991003EFCEB2443FBE43AFAEF248BFFE43E90D8
:1099A100041AF0A3EFF0A3747DF0A314F0D007D054
:1099B1000612AF41900413E004F080A5900412E078
:0799C10004F0808D02B2A941
:10B4E400E4900412F0EF249F603D24FE601F14607A
:10B4F4004324F2601314605624FC60452406705EF5
:10B504009004C67403F0805612CB9180519004C607
:10B51400E0640170497402F09004C5E025E0F09005
:10B5240004C4E033F080379004C6E06402702F1244
:10B53400696780259004C6E064027022126CEF8073
:10B54400189004C6E064027015127076800B9004A3
:10B55400C6E0640270081273E4900412EFF09004E1
:10B5640012E0603312B42812A956EF6005E4900487
:10B57400C6F09004C2E0FEA3E0FF9004C0E0FCA388
:10B58400E0FDD39FEE6480F8EC6480984006A3EC61
:07B59400F0A3EDF012CCE77B
:01B59B00228D
:103CDF009004C6E06403700302424B90044974FFE2
:103CEF00F0A374C0F0A37429F09004C2E0FFA3E026
:103CFF0090044CCFF0A3EFF07B017A0479121255A8
:103D0F00F47B017A04791290044D742BF0A3741292
:103D1F00F0A374C6F0A37418F0A37410F0E4A3F02A
:103D2F007D32FC7F44FE12BAC390044974FFF0A3A6
:103D3F0074C0F0A37429F09004C0E0FFA3E09004D6
:103D4F004CCFF0A3EFF07B017A0479121255F47B7C
:103D5F00017A04791290044D742BF0A37412F0A31E
:103D6F0074C6F0A37418F0A37410F0E4A3F07D44AC
:103D7F00FC7F44FE12BAC3E4900444F0900444E084
:103D8F00C394047480948040030241F6E4A3F0903E
:103D9F000445E0FFC394047480948040030241ED16
:103DAF00900444E075F008A424A0F582E43404F5EF
:103DBF008375F002EF1219BCE0FEA3E0FF4E700313
:103DCF0002419BEF8EF0121A0E3E0C00023E4C0089
:103DDF00043E9000083ED400103F1800203F5B00C7
:103DEF00403F9E00803FE2010040260200406A04EF
:103DFF000040AD080040AD1000000040F3900445B6
:103E0F00E075F032A4FBAAF02418FFE43AFEC006D6
:103E1F00C007900444E075F032A4FFAEF02460FDBB
:103E2F00E43EFCEB2442FBE43AFAEF248AFFE43E43
:103E3F0090044CF0A3EFF0A37484023F5490044518
:103E4F00E075F032A4FBAAF02418FFE43AFEC00696
:103E5F00C007900444E075F032A4FFAEF02460FD7B
:103E6F00E43EFCEB2442FBE43AFAEF248AFFE43E03
:103E7F0090044CF0A3EFF0A374FCF0A3740702407E
:103E8F00EB900445E075F032A4FBAAF02418FFE490
:103E9F003AFEC006C007900444E075F032A4FFAEAE
:103EAF00F02460FDE43EFCEB2442FBE43AFAEF24FD
:103EBF008AFFE43E90044CF0A3EFF0A37407F0A345
:103ECF0074E00240EB900445E075F032A4FBAAF0D9
:103EDF002418FFE43AFEC006C007900444E075F0D2
:103EEF0032A4FFAEF02460FDE43EFCEB2442FBE481
:103EFF003AFAEF248AFFE43E90044CF0A3EFF0A3CC
:103F0F007401F0A374CF0240EB900445E075F032DA
:103F1F00A4FBAAF02418FFE43AFEC006C0079004E1
:103F2F0044E075F032A4FFAEF02460FDE43EFCEBFC
:103F3F002442FBE43AFAEF248AFFE43E90044CF06B
:103F4F00A3EFF0A3E4F0A3741F0240EB900445E04D
:103F5F0075F032A4FBAAF02418FFE43AFEC006C0A5
:103F6F0007900444E075F032A4FFAEF02460FDE446
:103F7F003EFCEB2442FBE43AFAEF248AFFE43E9046
:103F8F00044CF0A3EFF0A374F8F0A3E40240EB901D
:103F9F000445E075F032A4FBAAF02418FFE43AFEC2
:103FAF00C006C007900444E075F032A4FFAEF024C1
:103FBF0060FDE43EFCEB2442FBE43AFAEF248AFF77
:103FCF00E43E90044CF0A3EFF0A374F8F0A3741F39
:103FDF000240EB900445E075F032A4FBAAF02418E0
:103FEF00FFE43AFEC006C007900444E075F032A427
:103FFF00FFAEF02460FDE43EFCEB2442FBE43AFA12
:10400F00EF248AFFE43E90044CF0A3EFF0A374BCBE
:10401F00F0A374400240EB900445E075F032A4FB2E
:10402F00AAF02418FFE43AFEC006C007900444E04B
:10403F0075F032A4FFAEF02460FDE43EFCEB2442A9
:10404F00FBE43AFAEF248AFFE43E90044CF0A3EF2E
:10405F00F0A3742BF0A374120240EB900445E075AB
:10406F00F032A4FBAAF02418FFE43AFEC006C00702
:10407F00900444E075F032A4FFAEF02460FDE43EFE
:10408F00FCEB2442FBE43AFAEF248AFFE43E90046F
:10409F004CF0A3EFF0A37484F0A37430803E90042F
:1040AF0045E075F032A4FBAAF02418FFE43AFEC0F5
:1040BF0006C007900444E075F032A4FFAEF0246010
:1040CF00FDE43EFCEB2442FBE43AFAEF248AFFE4E2
:1040DF003E90044CF0A3EFF0E4A3F0A3F0D007D090
:1040EF000612CC7990044974FFF0A374C0F0A37446
:1040FF002EF0900444E075F008A424A0F582E43477
:10410F0004F583C083C082900445E0D082D08375CC
:10411F00F0021219BCE0FFA3E090044CCFF0A3EF24
:10412F00F07B017A0479121255F47B017A0479122B
:10413F0012CFA9AD07900445E075F032A4242DFBF2
:10414F00E435F0FAED75F004A4FFC3EB9FFFEA9599
:10415F00F0FEC006C007900444E075F032A4246D51
:10416F00FDE435F0FC7B017A04791274FF90044D65
:10417F00F0A3F0A374A6F0A37451F0A37410F0A3EE
:10418F007401F0D007D00612BAC38049900445E0FD
:10419F0075F032A4FBAAF02418FFE43AFEC006C063
:1041AF0007900444E075F032A4FFAEF02460FDE404
:1041BF003EFCEB2442FBE43AFAEF248AFFE43E9004
:1041CF00044CF0A3EFF0A374A6F0A37451F0D00742
:1041DF00D00612CC79900445E004F0023D9E900485
:1041EF0044E004F0023D8B9004C6E0640170107B44
:1041FF00FF7AC0793190044D74F8F0A3E4802390D6
:10420F0004C6E07BFF700E7AC0794E90044D74F8AF
:10421F00F0A3E4800D7AC0796B90044D74BCF0A3C9
:10422F007440F0A374C6F0A37418F0A3740CF0E4F8
:0C423F00A3F07D2C7C017F24FE12BAC38A
:01424B002250
:04D1B2007F03DFFE1A
:01D1B6002256
:04D1B7007F12DFFE06
:01D1BB002251
:04D1BC007F26DFFEED
:01D1C000224C
:04D1C1007FC6DFFE48
:01D1C5002247
:09D13E00007F027E5ADEFEDFFCD8
:01D1470022C5
:09D14800007F207E28DEFEDFFCE2
:01D1510022BB
:10D02C00AD07AC0612D148ED1D70011C144C70F408
:01D03C0022D1
:07BD720044074F016E36008B
:10CB6400E4F593F594F591F592F595F596F5B1F50F
:10CB7400B2F5B3F5B4F5C9F5CAF5CBF5CCF5E1F5E5
:0DCB8400E212D18312CEC512CD2DC2C12206
:10CE9300C28CD2A95389FC5389FB538FFE438E80E6
:09CEA300758CA2758A40D28C2224
:10CEAC00C28ED2AB5389CF5389BF538FFD438E4073
:09CEBC00758DD1758B20D28E22F8
:10CF3F00538EE343AF04538FFB438E0475D6E875CE
:06CF4F00D790438E102272
:10CFBE0053D1F043AF2043D10275D4ED75D5404324
:03CFCE00D1082265
:10CFD10053D10F43AF4043D12075D2F675D3A0434F
:03CFE100D18022DA
:10CFE4000102040810204080000000FFFF00000040
:02CFF40000003B
:10CEC50053B3EF43B41053B3F743B40853B3FB4321
:09CED500B404C2C4C2C3C2C222EB
:0DD0DE00C2C312D1BCD2C312D1BCC2C32246
:05C80E0090041BEFF097
:10C81300E4A3F090041CE0C3940874809480502A2D
:10C8230090041BE0548064807004D2C48002C2C4AC
:10C8330012D1BCC2C212D1BCD2C212D1BC90041B51
:0AC84300E025E0F0A3E004F080C956
:01C84D0022C8
:10C49E00900414EBF0A3EAF0A3E9F0A3ECF0A3ED03
:01C4AE00F09D
:10C4AF00E4A3F0A3F0900417E0FEA3E0FFA3E0FCE9
:10C4BF00A3E0FDC39FEC9E5026900414E0FBA3E085
:10C4CF00FAA3E0F98D828C8312161FFF12C80E900B
:10C4DF00041AE004F070CE900419E004F080C60254
:02C4EF00D0DE9D
:10CD2D0078127C047D017BFF7ACF79EC7E007F0247
:10CD3D001215E07B017A0479127D027C0002C49EFB
:10CD4D0078847C077D017BFF7ACF79EE7E007F02B0
:10CD5D001215E07B017A0779847D027C0002C49E66
:10CD6D0078867C077D017BFF7ACF79F07E007F028C
:10CD7D001215E07B017A0779867D027C0002C49E44
:05C58C0090077EEFF0B6
:10C59100787F7C077D017BFF7ACF79F27E007F0275
:10C5A1001215E090077EE0FFD394077480948040D9
:10C5B1000BEF90CFDC9390077FF0800C90077EE02B
:10C5C10090CFE493900780F07B017A07797F7D0219
:05C5D1007C0002C49E85
:10CD8D0078887C077D017BFF7ACF79F47E007F0266
:10CD9D001215E07B017A0779887D027C0002C49E22
:08BD790041078AFE41078B001F
:09D17A0053B3FE43B401C2C0220C
:09D1830053B3FE43B401D2C022F3
:10C39B0090078AE0FF7E00647F7011A3E070047D3C
:10C3AB000180027D0090078BEDF08019EF64FE4E4B
:10C3BB00701390078BE0600D70047F0180027F008B
:10C3CB0090078BEFF090078AE0FFF5E8A3E0700889
:10C3DB00EF25E04401FF800990078AE0C3134480F6
:06C3EB00FF90078AEFF04D
:01C3F1002229
:0300A00002CD6D21
:0EB8F4009006E7EFF0A3EBF0A3EAF0A3E9F073
:10B90200C3740F9F9006EEF0AE029006EBA3E0FA2E
:10B91200A3E0C399FFEA9EFE9006E7E0FDC3740828
:10B922009DFDE49400FCD3EF9DEC6480F8EE64800E
:10B932009850599006EBE0FBA3E0FAA3E0F9C003AC
:10B94200C002C0019006E8A3E0FAA3E0F9C3D082E6
:10B95200D083D0E0E99582EA958350309006EEE0FC
:10B96200FF12C58C9006E8E0FBA3E0FAA3E0F9120F
:10B972001606F5E812D14812CD8D9006EEE014F0CD
:0CB982009006E9E475F00112171D80A783
:01B98E002296
:0EBEC7009006FFEBF0A3EAF0A3E9F0A3EDF084
:10BED500900704740FF0900704E0FFC39408748082
:10BEE5009480405012C58C900704E0FFC3740F9FE7
:10BEF500FFE49400FE900703E07C002FFFEC3EFE7C
:10BF0500900702E0FD121692900705EDF09006FFEE
:10BF1500E0FBA3E0FAA3E0F9900705E0F58275835D
:10BF25000012161FF5E812D14812CD8D900704E0D6
:04BF350014F080A2E2
:01BF390022E5
:10BD81005205A7C0F9A4B0999282F880908883C621
:05BD9100A1868EBFFF3A
:10CE080012CD4DE4F5CB75CCFF75E8FF53937F4306
:0DCE18009480D2875395FD439602D2A1224B
:0696570090066B12197F62
:10965D0090066F7406F090066BE0FCEC3390067785
:10966D0040057411F0801A7410F090066BE0FCA3A5
:10967D00E0FDA3E0FEA3E0FF12191590066B121991
:10968D007FE47B0AFAF9F890066BE0FCA3E0FDA3FA
:10969D00E0FEA3E0FF12C789900670EBF0E47B0AB1
:1096AD00FAF9F890066BE0FCA3E0FDA3E0FEA3E061
:1096BD00FF12C789E47B0AFAF9F812C7899006717F
:1096CD00EBF0E47B64FAF9F890066BE0FCA3E0FDA7
:1096DD00A3E0FEA3E0FF12C789E47B0AFAF9F812B2
:1096ED00C789900672EBF0E47BE87A03F9F89006EF
:1096FD006BE0FCA3E0FDA3E0FEA3E0FF12C789E44D
:10970D007B0AFAF9F812C789900673EBF0E47B1027
:10971D007A27F9F890066BE0FCA3E0FDA3E0FEA329
:10972D00E0FF12C789E47B0AFAF9F812C78990069F
:10973D0074EBF07BA07A867901780090066BE0FCE3
:10974D00A3E0FDA3E0FEA3E0FF12C789E47B0AFAC4
:10975D00F9F812C789900675EBF07B407A42790FC4
:10976D00780090066BE0FCA3E0FDA3E0FEA3E0FF14
:10977D0012C789E47B0AFAF9F812C789900676EBCD
:10978D00F090066FE0FF3395E0FE74702FF5827454
:10979D00063EF583E0701A90066FE014F0EF3395F6
:1097AD00E0FE74702FF58274063EF5837411F0801F
:1097BD00D090066BE0FCA3E0FDA3E0FEA3E0FFEC80
:1097CD004D4E4F7004900670F090066F7407F09038
:1097DD00066FE0FF3395E0C364809480403512C579
:1097ED008C90066FE0FF3395E0FE74702FF5827458
:1097FD00063EF583E024A7F582E43405F583E0F514
:10980D00E87F027E0012D02C12CD8D90066FE014F1
:03981D00F080BC1C
:019820002225
:0BC0880090071CEBF0A3EAF0A3E9F026
:10C09300EFC39408748094805057C374089FFEA321
:10C0A300E0FDD39E504BC374089FC39DA3F090073C
:10C0B3001FE0FF14F0EF6039A3E0FF12C58C900777
:10C0C3001CE0FBA3E0FAA3E0F9A3E0F5827583008B
:10C0D30012161F24A7F582E43405F583E0F5E87F03
:10C0E300027E0012D02C12CD8D900720E004F08048
:01C0F300BD8F
:01C0F4002229
:10D03D0000010200030000000400000000000000D9
:10BD9600410558FF510559002B0908072D060504D2
:08BDA600780302012F23002A9B
:10000E0090056BE0FC75F8F07E3CDEFEE5F854F0F2
:10001E0090056BF075F80F7E3CDEFE90056BE0FEF2
:10002E00E5F8540FFDEE4DF0E0F4F06C70609005C5
:10003E0057E0FC90056BE0900557F0604CC2D5EC94
:10004E007004D2D5801B900557E0B5041490056A54
:10005E00E004F0C394147480948040057412F0D2BE
:10006E00D530D52A900557E0FFC4540F90D03D935C
:10007E00FC601BEF540F93FF6014EC1425E025E099
:10008E00FEEF2E900558F08005E490056AF075F8A5
:01009E00FF62
:01009F00223E
:03D1CB00256400D8
:10CF550075E8FFC293D290C291C291D291E5E820C3
:05CF6500E7FBAFE8222C
:10C8CE0090079CEFF0C291D293C290F5E87F017E63
:10C8DE000012D02CD2917F057E0012D02CC29190E6
:10C8EE00079CE0C454F0F5E87F017E0012D02CD2F4
:0BC8FE00917F057E0012D02CC2912219
:10C9090090079DEFF0C291C293C290F5E87F017E36
:10C919000012D02CD2917F057E0012D02CC29190AA
:10C92900079DE0C454F0F5E87F017E0012D02CD2B7
:0BC93900917F057E0012D02CC29122DD
:0DD0EB00D293D290C291C291D291AFE822AF
:10C2E400E4F5E85391F74392085391FE43920153C6
:10C2F40091FD439202F5CB75CCFF7F3812C9097FBB
:10C30400057E0012D02C7F3812C9097F057E0012E9
:10C31400D02C7F3812C9097F057E0012D02C7F32C1
:10C3240012C9097F2812C9097F0C12C9097F061294
:0CC33400C9097F0112C9097F8002C909F4
:0CD105007F0112C9097F027E0002D02CBD
:10CD0A0090079EEBF0ED5401FDEF540FFFED600428
:10CD1A00EF4440FFEF4480FF12C90990079EE0FFED
:03CD2A0002C8CE6E
:10C16000900706EFF0A3EDF0A3EBF0A3EAF0A3E94C
:01C17000F0DE
:10C1710012CFA990070BEFF0900707E05401F09060
:10C181000706E0540FF0E490070CF090070BE0FF76
:10C19100A3E0FEC39F502B900706E0FFA3E0FDA3A1
:10C1A100E0FBA3E0FAA3E0F98E8275830012161F6B
:10C1B100FB12CD0A900706E004F090070CE004F0B2
:02C1C10080C933
:01C1C3002259
:0CC5D60090056CEFF0A3EDF0AF03AE0297
:10C5E2007B017A05796E90057DEBF0A3EAF0A3E971
:10C5F200F090044974FFF0A374D1F0A374CBF0A3BC
:10C60200EEF0A3EFF01255F490056CE0FFA3E0FD0D
:0EC6120090057DE0FBA3E0FAA3E0F902C16011
:0CD1110090FE82E030E6F9E054BFF0220E
:10CE5D0043912043922043911043921043BA809006
:0BCE6D00FE8074E0F090FE82E4F022F2
:09D18C0090FE817401F002D11142
:09D1950090FE817406F002D11134
:0ECCC30012D18C12D0A612CCD1AF0512D0A681
:10CCD10090FE817403F012D11190FE82E030E103E5
:06CCE1007F01227F00220A
:0ED0980090FE82E4F090FE817405F002D1114A
:0FD04D0090FE827401F090FE817405F002D11103
:0ED0A60090FE86EFF090FE817402F002D11130
:0FD05C0090FE817404F012D11190FE87E0FF2244
:10C9F200AE0712CCC312D18CEE4401FF12D0A612A4
:10CA0200CCD112D05CEF12164C740129F9E43AFA37
:10CA1200900726E06401600312D098900726E01484
:09CA2200F070DF12D04D02D19535
:10CA9A00900729EBF0A3EAF0A3E9F012CCC39007C0
:10CAAA0029E0FBA3E475F001121733A9F0FA121674
:10CABA0006FF12D0A612CCD190072CE014F070DE3B
:03CACA0002D19501
:10424C0025640000000000003E5B4F5B3E3E6B4F60
:10425C006B3E1C3E7C3E1C183C7E3C181C577D570C
:10426C001C1C5E7F5E1C00183C1800FFE7C3E7FFB8
:10427C000018241800FFE7DBE7FF30483A060E264B
:10428C0029792926407F050507407F05253F5A3CA3
:10429C00E73C5A7F3E1C1C08081C1C3E7F14227FE6
:1042AC0022145F5F005F5F06097F017F00668995BE
:1042BC006A606060606094A2FFA29408047E0408A7
:1042CC0010207E201008082A1C08081C2A08081E2A
:1042DC00101010100C1E0C1E0C30383E3830060E10
:1042EC003E0E06000000000000005F00000007000A
:1042FC000700147F147F14242A7F2A1223130864C6
:10430C006236495620500008070300001C22410069
:10431C000041221C002A1C7F1C2A08083E080800A9
:10432C008070300008080808080000606000201049
:10433C000804023E5149453E00427F400072494903
:10434C0049462141494D331814127F1027454545E4
:10435C00393C4A4949314121110907364949493605
:10436C00464949291E00001400000040340000009A
:10437C0008142241141414141400412214080201CC
:10438C005909063E415D594E7C1211127C7F4949F8
:10439C0049363E414141227F4141413E7F49494995
:1043AC00417F090909013E414151737F0808087F8B
:1043BC0000417F41002040413F017F081422417F92
:1043CC00404040407F021C027F7F0408107F3E412A
:1043DC0041413E7F090909063E4151215E7F091981
:1043EC002946264949493203017F01033F40404099
:1043FC003F1F2040201F3F4038403F631408146388
:10440C0003047804036159494D43007F4141410243
:10441C0004081020004141417F0402010204404085
:10442C00404040000307080020545478407F284443
:10443C0044383844444428384444287F385454542D
:10444C001800087E090218A4A49C787F080404783C
:10445C0000447D40002040403D007F102844000077
:10446C00417F40007C047804787C0804047838444C
:10447C00444438FC1824241818242418FC7C080400
:10448C000408485454542404043F44243C40402021
:10449C007C1C2040201C3C4030403C4428102844CC
:1044AC004C9090907C4464544C440008364100007D
:1044BC0000770000004136080002010204023C268D
:1044CC0023263C1EA1A161123A4040207A38545454
:1044DC0055592155557941215454784121555478D9
:1044EC004020545579400C1E52721239555555596D
:1044FC00395454545939555454580000457C410092
:10450C0002457D420001457C40F0292429F0F02829
:10451C002528F07C545545002054547C547C0A09C1
:10452C007F4932494949323248484832324A484830
:10453C00303A4141217A3A42402078009DA0A07D3A
:10454C0039444444393D4040403D3C24FF242448F8
:10455C007E4943662B2FFC2F2BFF0929F620C088A0
:10456C007E090320545479410000447D4130484871
:10457C004A32384040227A007A0A0A727D0D19318B
:10458C007D2629292F28262929292630484D4020E7
:10459C00380808080808080808382F10C8ACBA2FC3
:1045AC00102834FA00007B000008142A142222146C
:1045BC002A1408AA005500AAAA55AA55AA00000058
:1045CC00FF00101010FF00141414FF001010FF0057
:1045DC00FF1010F010F0141414FC001414F700FF6A
:1045EC000000FF00FF1414F404FC141417101F1027
:1045FC00101F101F1414141F00101010F0000000D6
:10460C00001F101010101F10101010F010000000E0
:10461C00FF101010101010101010FF10000000FFF1
:10462C00140000FF00FF00001F10170000FC04F432
:10463C0014141710171414F404F40000FF00F714EA
:10464C00141414141414F700F71414141714101071
:10465C001F101F141414F4141010F010F000001F8D
:10466C00101F0000001F14000000FC140000F010CC
:10467C00F01010FF10FF141414FF141010101F0072
:10468C00000000F010FFFFFFFFFFF0F0F0F0F0FF74
:10469C00FFFF0000000000FFFF0F0F0F0F0F38444B
:1046AC004438447C2A2A3E147E02020606027E020C
:1046BC007E0263554941633844443C04407E201ECD
:1046CC002006027E020299A5E7A5991C2A492A1CFC
:1046DC004C7201724C304A4D4D303048784830BCE9
:1046EC00625A463D3E494949007E0101017E2A2A13
:1046FC002A2A2A44445F444440514A444040444A94
:10470C0051400000FF0103E080FF000008086B6BC4
:10471C00083612362436060F090F0600001818004A
:10472C0000001010003040FF0101001F01011E00AD
:0E473C00191D1712003C3C3C3C000000000020
:10CBE20090079FEFF012D18C7F7812D0A612CCD191
:10CBF200E4FF12D0A612CCD190079FE0FF12D0A67C
:06CC020012CCD102D19515
:10CC08009007A0EFF012D18C7F7812D0A612CCD169
:10CC18007F4012D0A612CCD19007A0E0FF12D0A678
:06CC280012CCD102D195EF
:05CE780024B0FFE4FD01
:10CE7D009007A1EFF0ED6005E0FF02CC089007A14F
:06CE8D00E0FF12CBE222DF
:10CC2E009007A2EFF0ED12CE789007A2E054F0C478
:10CC3E00540F4410FFE4FD12CE7D9007A2E0540F76
:06CC4E00FFE4FD02CE7DB3
:10CF6A00E4FD7F8D12CE7DE4FD7F1412CE7DE4FDBB
:05CF7A007FAF02CE7D37
:10CF7F00E4FD7F8D12CE7DE4FD7F1012CE7DE4FDAA
:05CF8F007FAE02CE7D23
:10C94400E4FFEFC3940474809480502DE4FEEEC39E
:10C95400948074809480501E75F004EEA42405F530
:10C9640082E5F03402F583E5822FF582E43583F520
:09C9740083E4F00E80D80F80C9A5
:01C97D002297
:10C0F500E490078DF090078DE0FFC394047480945D
:10C10500805057EF12CE78E4FDFF12CE7DE4FD7F1F
:10C115001012CE7DE490078CF090078CE0FFC3945D
:10C125008074809480502BA3E0FE75F004EFA42466
:10C1350005F582E5F03402F583E5822EF582E435D6
:10C1450083F583E0FF7D0112CE7D90078CE004F03E
:0AC1550080C790078DE004F0809B86
:01C15F0022BD
:10C97E00E4FEEEC3940474809480502DE4FDEDC368
:10C98E00948074809480501E75F004EDA42405F5F7
:10C99E0082E5F03402F583E5822EF582E43583F5E7
:09C9AE0083EFF00D80D80E80C962
:01C9B700225D
:10B7A60090067CA3E0FF900680E075F00CA42F2B9A
:0FB7B600FF90067EA3E0900681FEE02EFD7B0152
:10B7C500EFD3948074809480400302B850ED9420A8
:10B7D500748094805075EB6037ED131313541FFE7E
:10B7E50075F004EFA42405F582E5F03402F583E550
:10B7F500822EF582E43583F583C083C082E0FFEDB8
:10B805005407FEF87401088002C333D8FC4F803614
:10B81500ED131313541FFE75F004EFA42405F582F0
:10B82500E5F03402F583E5822EF582E43583F58370
:10B83500C083C082E0FFED5407FEF8740108800262
:0CB84500C333D8FCF45FD082D083F02223
:0DAD6A00900754EDF0A3EBF0900753EFF0CD
:10AD77003395E0C3648094805077E4FCECC394057A
:10AD870074809480400302AE55900755E075F00536
:10AD9700A4244FF582E5F03442F583E5822CF58251
:10ADA700E43583F583E493900756F0E4F9E9FF7EF1
:10ADB70000C39408748094805034900753E0FDFBDF
:10ADC7003395E0FAEB2FEE3AC364809480401590F8
:10ADD7000756E030E00EED2CFF900754E029FD7B8D
:10ADE7000112B7C5900756E0C313F00980BF0C8066
:10ADF7008BE4FCECC3940574809480505190075504
:10AE0700E075F005A4244FF582E5F03442F583E5BB
:10AE1700822CF582E43583F583E493900756F0E4BA
:10AE2700F9E9C39408748094805020900756E03065
:10AE3700E00F900753E02CFFA3E029FD7B0112B739
:0EAE4700C5900756E0C313F00980D60C80A515
:01AE550022DA
:10C2280090072DEFF0A3EDF0A3EBF0A3EAF0A3E95C
:01C23800F015
:10C23900E4A3F090072FE0FBA3E0FAA3E0F9A3E061
:10C24900F58275830012161FFB603290072DE0FFFF
:10C25900A3E0FD12AD6A90072DE02408F0E0FF335A
:10C2690095E0FED3EF9478EE648094804007E4F083
:0DC27900A3E02402F0900732E004F080B64C
:01C286002295
:0CC9B8009005EFEFF0A3EDF0AF03AE022E
:10C9C40090044974FFF0A37442F0A3744CF0A3EEF6
:10C9D400F0A3EFF07B017A0579F11255F49005EF9D
:0EC9E400E0FFA3E0FD7B017A0579F102C22895
:0E87D900900678EFF0A3EBF0A3EAF0A3E9F02E
:1087E700A3E0FEA3E0FFC3EE648094804003028908
:1087F70036C3E49FFFE49EFE7C007D0C1216E790D3
:108807000680EFF0900678E0FF900680E0C39F4077
:1088170003028A3EE4A3F0900681E0C3940C7480BF
:108827009480400302892DE4A3F0900682E0FD7C4A
:1088370000C3940C748094804003028924900680BE
:10884700E075F00CA42DFFEC35F0FE90067CE0FC03
:10885700A3E0FD2FFFEC3ECF24F4CF34FFFED3EF90
:10886700947FEE648094804003028A3E900681E004
:10887700FF90067FE02FFF90067EE03400CF24F4C0
:10888700CF34FFFED3EF943FEE6480948040030221
:108897008A3E900680E0F975F00CA4FFED2FFFECFF
:1088A70035F0FE900682E0FD7A002FEA3EC3648031
:1088B700948050028001C3405B900681E075F0020E
:1088C700A4FBAAF0E975F018A42BFFE5F03AFEED3A
:1088D700131313541F7C002FFFEC3EFE900679E024
:1088E700FBA3E0FAA3E0F98F828E8312161FFD9097
:1088F7000682E0FB5407FF7E007480A80708800605
:10890700CEA2E713CE13D8F8FFEE5CFEEF5D4E6004
:108917000312B7A6900682E004F002883190068120
:10892700E004F002881E900680E004F002880BE461
:10893700900680F0900678E0FF900680E0C39F40A5
:1089470003028A3EE4A3F0900681E0C3940C74808E
:1089570094804003028A35E4A3F0900682E0FD7C10
:1089670000C3940C748094804003028A2C90068084
:10897700E075F00CA42DFFEC35F0FE90067DE02F9E
:10898700FF90067CE03ECF24F4CF34FFFED3EF9474
:108997007FEE648094804003028A3E900681E0FF68
:1089A700FD90067FE02DFD90067EE03CCD24F4CDC2
:1089B70034FFFCD3ED943FEC648094805079EF75DD
:1089C700F002A4FDACF0900680E075F018A42DFF2E
:1089D700E5F03CFE900682E0131313541F7C002F32
:1089E700FFEC3EFE900679E0FBA3E0FAA3E0F98FE7
:1089F700828E8312161FFD900682E0FB5407FF7ECE
:108A0700007480A807088006CEA2E713CE13D8F813
:108A1700FFEE5CFEEF5D4E600312B7A6900682E0A4
:108A270004F0028961900681E004F002894E900605
:078A370080E004F002893B1E
:018A3E002215
:0E853F00900683EFF0A3EBF0A3EAF0A3E9F0BF
:10854D00A3E0FEA3E0FFC3EE6480948040030286A7
:10855D00B4C3E49FFFE49EFE7C007D101216E790ED
:10856D00068BEFF0900683E0FF90068BE0C39F40F3
:10857D00030287D8E4A3F090068CE0C394107480B6
:10858D00948040030286ABE4A3F090068DE0FD7C61
:10859D0000C394107480948040030286A290068BD1
:1085AD00E075F010A42DFFEC35F0FE900687E0FC91
:1085BD00A3E0FD2FFFEC3ECF24F0CF34FFFED3EF31
:1085CD00947FEE6480948040030287D890068CE0FF
:1085DD00FF90068AE02FFF900689E03400CF24F04B
:1085ED00CF34FFFED3EF943FEE64809480400302BE
:1085FD0087D890068BE0F975F010A4FFED2FFFECF6
:10860D0035F0FE90068DE0FD7A002FEA3EC36480C2
:10861D00948050028001C3407390068CE075F00287
:10862D00A4FBAAF0E975F020A42BFFE5F03AFEEDCE
:10863D00131313541F7C002FFFEC3EFE900684E0B5
:10864D00FBA3E0FAA3E0F98F828E8312161FFD9033
:10865D00068DE0FB5407FF7E007480A80708800696
:10866D00CEA2E713CE13D8F8FFEE5CFEEF5D4E60A1
:10867D001B900687A3E0FF90068BE0C454F02F2BD0
:10868D00FF900689A3E090068C12B7BF90068DE08F
:10869D0004F002859790068CE004F0028584900624
:1086AD008BE004F0028571E490068BF0900683E078
:1086BD00FF90068BE0C39F40030287D8E4A3F090A0
:1086CD00068CE0C394107480948040030287CFE43D
:1086DD00A3F090068DE0FD7C00C39410748094800F
:1086ED0040030287C690068BE075F010A42DFFECB9
:1086FD0035F0FE900688E02FFF900687E03ECF24F0
:10870D00F0CF34FFFED3EF947FEE6480948040036E
:10871D000287D890068CE0FFFD90068AE02DFD9033
:10872D000689E03CCD24F0CD34FFFCD3ED943FEC35
:10873D006480948040030287D8EF75F002A4FDACED
:10874D00F090068BE075F020A42DFFE5F03CFE9037
:10875D00068DE0131313541F7C002FFFEC3EFE908B
:10876D000684E0FBA3E0FAA3E0F98F828E83121654
:10877D001FFD90068DE0FB5407FF7E007480A80757
:10878D00088006CEA2E713CE13D8F8FFEE5CFEEFFD
:10879D005D4E601C900687A3E0FF90068BE0C454ED
:1087AD00F02F2BFF900689A3E0FE90068C12B7C028
:1087BD0090068DE004F00286DF90068CE004F00256
:0B87CD0086CC90068BE004F00286B919
:0187D800227E
:0E82A20090068EEFF0A3EBF0A3EAF0A3E9F054
:1082B000A3E0FEA3E0FFC3EE648094804003028449
:1082C00019C3E49FFFE49EFE7C007D181216E79020
:1082D0000696EFF090068EE0FF900696E0C39F4072
:1082E0000302853EE4A3F0900697E0C394187480DF
:1082F00094804003028410E4A3F0900698E0FD7C93
:1083000000C39418748094804003028407900696FA
:10831000E075F018A42DFFEC35F0FE900692E0FC1D
:10832000A3E0FD2FFFEC3ECF24E8CF34FFFED3EFD8
:10833000947FEE64809480400302853E900697E02F
:10834000FF900695E02FFF900694E03400CF24E8DC
:10835000CF34FFFED3EF943FEE648094804003025D
:10836000853E900696E0F975F018A4FFED2FFFEC1E
:1083700035F0FE900698E0FD7A002FEA3EC3648057
:10838000948050028001C34075900697E075F00319
:10839000A4FBAAF0E975F048A42BFFE5F03AFEED46
:1083A000131313541F7C002FFFEC3EFE90068FE04A
:1083B000FBA3E0FAA3E0F98F828E8312161FFD90D3
:1083C0000698E0FB5407FF7E007480A8070880062B
:1083D000CEA2E713CE13D8F8FFEE5CFEEF5D4E6041
:1083E0001D900692A3E0FF900696E075F018A42F6A
:1083F0002BFF900694A3E0FE90069712B7C090065C
:1084000098E004F00282FA900697E004F00282E716
:10841000900696E004F00282D4E4900696F090066E
:108420008EE0FF900696E0C39F400302853EE4A3E2
:10843000F0900697E0C394187480948040030285FE
:1084400035E4A3F0900698E0FD7C00C39418748096
:108450009480400302852C900696E075F018A42DB8
:10846000FFEC35F0FE900693E02FFF900692E03E81
:10847000CF24E8CF34FFFED3EF947FEE6480948066
:10848000400302853E900697E0FFFD900695E02DA3
:10849000FD900694E03CCD24E8CD34FFFCD3ED9470
:1084A0003FEC64809480400302853EEF75F003A4A6
:1084B000FDACF0900696E075F048A42DFFE5F03C89
:1084C000FE900698E0131313541F7C002FFFEC3E20
:1084D000FE90068FE0FBA3E0FAA3E0F98F828E8383
:1084E00012161FFD900698E0FB5407FF7E00748073
:1084F000A807088006CEA2E713CE13D8F8FFEE5CDB
:10850000FEEF5D4E601D900692A3E0FF900696E0A0
:1085100075F018A42F2BFF900694A3E0FE90069709
:1085200012B7C0900698E004F0028444900697E0E9
:0E85300004F0028431900696E004F002841EEE
:01853E00221A
:0E7FFC00900699EFF0A3EBF0A3EAF0A3E9F0F2
:10800A00A3E0FEA3E0FFC3EE6480948040030281F4
:10801A0078C3E49FFFE49EFE7C007D201216E79061
:10802A0006A1EFF0900699E0FF9006A1E0C39F40F9
:10803A00030282A1E4A3F09006A2E0C39420748014
:10804A009480400302816FE4A3F09006A3E0FD7CD4
:10805A0000C394207480948040030281669006A134
:10806A00E075F020A42DFFEC35F0FE90069DE0FCB3
:10807A00A3E0FD2FFFEC3ECF24E0CF34FFFED3EF89
:10808A00947FEE6480948040030282A19006A2E06D
:10809A00FF9006A0E02FFF90069FE03400CF24E077
:1080AA00CF34FFFED3EF943FEE6480948040030206
:1080BA0082A19006A1E0F975F020A4FFED2FFFEC54
:1080CA0035F0FE9006A3E0FD7A002FEA3EC36480F5
:1080DA00948050028001C3407AED75F004A4FDAC8F
:1080EA00F0E975F080A42DFFE5F03CFE9006A2E0D1
:1080FA00131313541F7C002FFFEC3EFE90069AE0E8
:10810A00FBA3E0FAA3E0F98F828E8312161FFD907B
:10811A0006A2E0FB5407FF7E007480A807088006C9
:10812A00CEA2E713CE13D8F8FFEE5CFEEF5D4E60E9
:10813A002290069DA3E0FF9006A1E0C43354E02FED
:10814A00FF9006A3E02FFF90069FA3E02BFD7B0183
:10815A0012B7C59006A3E004F00280549006A2E08C
:10816A0004F00280419006A1E004F002802EE4901F
:10817A0006A1F0900699E0FF9006A1E0C39F400394
:10818A000282A1E4A3F09006A2E0C3942074809432
:10819A00804003028298E4A3F09006A3E0FD7C00ED
:1081AA00C3942074809480400302828F9006A1E0D9
:1081BA0075F020A42DFFEC35F0FE90069EE02FFF0F
:1081CA0090069DE03ECF24E0CF34FFFED3EF947FAC
:1081DA00EE6480948040030282A19006A2E0FDFF33
:1081EA009006A0E02FFF90069FE03400CF24E0CF56
:1081FA0034FFFED3EF943FEE648094804003028202
:10820A00A19006A3E075F004A4FBAAF09006A1E0F1
:10821A0075F080A42BFFE5F03AFEED131313541FFB
:10822A002FFFEC3EFE90069AE0FBA3E0FAA3E0F9EA
:10823A008F828E8312161FFD9006A2E0FB5407FF61
:10824A007E007480A807088006CEA2E713CE13D852
:10825A00F8FFEE5CFEEF5D4E602290069DA3E0FF04
:10826A009006A1E0C43354E02FFF9006A3E02FFF4D
:10827A0090069FA3E02BFD7B0112B7C59006A3E0F1
:10828A0004F00281A39006A2E004F0028190900615
:07829A00A1E004F002817D68
:0182A10022BA
:0ABCE8009006C3EFF09006C5EBF0E4
:10BCF200E49006CAF0A3F09006C6E0131313541F93
:10BD0200F0540770028000AF05AE079006C6E0FF50
:10BD1200EEC39F504C9006C3E0FF9006C5E0FDEFD6
:10BD2200C39D503A9006C7E0FBA3E0FAA3E0F9A353
:10BD3200E475F00112173385F082F58312161FFDA8
:10BD420075F004EFA42405F582E5F03402F583E5ED
:10BD5200822EF582E43583F583EDF00F80BC0E80F0
:01BD6200AA36
:01BD630022BD
:10B64D0012CE5D7F647E0012D02CE4FD7FAE12CE53
:10B65D007DE4FD7F4012CE7DE4FD7FB012CE7DE412
:10B66D00FD7FC812CE7DE4FD7F8112CE7DE4FD7F8E
:10B67D00FF12CE7DE4FD7FA112CE7DE4FD7FA612EB
:10B68D00CE7DE4FD7FA812CE7DE4FD7F1F12CE7D21
:10B69D00E4FD7FD312CE7DE4FDFF12CE7DE4FD7F70
:10B6AD00D512CE7DE4FD7FF012CE7DE4FD7FD91263
:10B6BD00CE7DE4FD7F2212CE7DE4FD7FDA12CE7DBC
:10B6CD00E4FD7F0212CE7DE4FD7FDB12CE7DE4FD35
:10B6DD007F4912CE7DE4FD7F8D12CE7DE4FD7F147A
:0DB6ED0012CE7DE4FD7FAF12CE7D02C94478
:09D15200007F027E3CDEFEDFFCE2
:01D15B0022B1
:0ED0B400C2C67F147E0012D02CD2C602D1520A
:10C28700E49007A3F030C6159007A3E0C394647445
:10C297008094805008E004F012D1B280E89007A3A0
:10C2A700E0C394647480948040037F0122E4900784
:10C2B700A3F020C6159007A3E0C39464748094800C
:10C2C7005008E004F012D1B280E89007A3E0C394CD
:0CC2D700647480948040037F01227F008B
:01C2E3002238
:10C6FD00E49007A4F030C6159007A4E0C3946474C9
:10C70D008094805008E004F012D1B280E8E49007E4
:10C71D00A4F020C6159007A4E0C39464748094809F
:10C72D005008E004F012D1B280E812D15230C603A5
:05C73D007F01227F00D6
:01C7420022D4
:10CA2B00E490078FF090078EF090078EE0C3940888
:10CA3B0074809480501CA3E0FF25E0F0E0FEC0065C
:10CA4B0012C6FDD0E04F90078FF090078EE004F0F8
:07CA5B0080D790078FE0FF78
:01CA620022B1
:0BB59C009006CCEBF0A3EAF0A3E9F06E
:10B5A70012D0B412C287EF600302B6479006D4F0F8
:10B5B7009006D4E0C3940574809480501A12CA2B65
:10B5C7009006D4E024CFF582E43406F583EFF090BB
:10B5D70006D4E004F080D99006D0E0FF9006CFE0D3
:10B5E7002FFFE433FE9006D1E07C002FFFEC3EFEF8
:10B5F700A3E02FFFEC3EFEA3E06F7001EE704490D6
:10B6070006CFE0FF9006CCE0FBA3E0FAA3E0F9EF5A
:10B6170012164C9006D0E0FF9006CCE0FBA3E0FAB0
:10B62700A3E0F9900001EF12165E9006D1E09000BA
:10B637000212165E9006D2E090000312165E800397
:05B647007F01227F00DD
:01B64C0022DB
:0ED0C20053B3BF53B4BFD2C612D0B402C2875C
:10CFF6007B017A07795712B59CEF70F4900757E0DA
:01D00600FF2A
:01D007002206
:10B36B007B017A0679EF12B59CEF70F49006F1E051
:10B37B00547FFCE412125C9006F312197F9006F3D3
:10B38B00E0FCA3E0FDA3E0FEA3E0FFE4FBFA7920E1
:10B39B0078411210339006F312197F9006F3E0F800
:10B3AB00A3E0F9A3E0FAA3E0FBC000C001C002C018
:10B3BB00039006F2E0FCE412125CD003D002D00141
:10B3CB00D000120F429006F312197F9006F3E0FCA7
:10B3DB00A3E0FDA3E0FEA3E0FFE4FBFA79207841B4
:10B3EB0012113C9006F312197F9006F1E030E71E24
:10B3FB009006F3E0FCA3E0FDA3E0FEA3E0FFE4FB7B
:10B40B00FA798078BF1210339006F312197F9006E9
:0CB41B00F3E0FCA3E0FDA3E0FEA3E0FFD3
:01B427002202
:1025900025640000000000000000000000000000B2
:1025A000000404040404040004000000140A0A00E7
:1025B00000000000000000000014143F140A3F0A4D
:1025C0000A000000041E1505060C14150F04000077
:1025D0000012150D0A142C2A1200000000040A0A29
:1025E0001E1515093600000002020100000000005F
:1025F000000000002010080808080808102000004B
:102600000204080808080808040200000000041575
:102610000E0E150400000000000404041F0404044E
:1026200000000000000000000000000002020100A5
:10263000000000001F00000000000000000000007B
:102640000000000002000000100808080404020254
:1026500002010000000E1111111111110E000000F5
:1026600000040604040404040E000000000E11110E
:10267000080402011F000000000E11100C101011C0
:102680000E00000000080C0A0A091E0818000000CD
:10269000001F01010F1010110E000000000E0901B3
:1026A0000F1111110E000000001F0908040404049A
:1026B00004000000000E11110E1111110E00000097
:1026C000000E1111111E10120E0000000000000477
:1026D00000000000040000000000000004000000F2
:1026E0000404000020100804020408102000000068
:1026F0000000001F00001F0000000000020408107E
:102700002010080402000000000E1111080404004B
:1027100004000000000E111915151D011E00000017
:102720000004040C0A0A1E1233000000000F1212EB
:102730000E1212120F000000001E11010101011102
:102740000E000000000F1212121212120F000000F1
:10275000001F120A0E0A02121F000000001F120AB8
:102760000E0A020207000000001C120101391112BA
:102770000C000000003312121E121212330000006F
:10278000001F0404040404041F000000003E0808A5
:1027900008080808090700000037120A060A0A128A
:1027A0003700000000070202020202223F00000080
:1027B000001B1B1B1B15151515000000003B1216F6
:1027C000161A1A1217000000000E11111111111122
:1027D0000E000000000F12120E020202070000009D
:1027E000000E1111111117190E180000000F12120E
:1027F0000E0A121237000000001E11010608101107
:102800000F000000001F1504040404040E00000063
:1028100000331212121212120C00000000331212B6
:102820000A0A0C0404000000001515150E0A0A0A15
:102830000A000000001B0A0A04040A0A1B00000028
:10284000001B0A0A040404040E000000001F09080B
:10285000040402121F0000001C0404040404040405
:10286000041C000002020204040808081000000012
:102870000E08080808080808080E0000040A0000EE
:102880000000000000000000000000000000000048
:1028900000003F00040000000000000000000000F5
:1028A000000000000C121C123C0000000003020299
:1028B0000E1212120E000000000000001C12020294
:1028C0001C000000001810101C1212123C00000026
:1028D000000000000C121E021C000000003804045E
:1028E0001E0404041E000000000000003C120C0244
:1028F0001E221C00000302020E12121237000000FA
:1029000000040000060404040E000000000800009B
:102910000C08080808080700000302023A0A0E1211
:102920003700000000070404040404041F00000032
:10293000000000000F151515150000000000000034
:102940000F12121237000000000000000C121212C9
:102950000C000000000000000F1212120E0207000F
:10296000000000001C1212121C10380000000000B1
:102970001B06020207000000000000001E020C10EF
:102980001E000000000004040E04040418000000EF
:10299000000000001B1212123C00000000000000AA
:1029A00037120A0C040000000000000015150E0A82
:1029B0000A000000000000001B0A040A1B000000BF
:1029C0000000000037120A0C04040300000000009D
:1029D0001E0804041E00000018080808040808085F
:1029E0000818000808080808080808080808080067
:1029F0000604040408040404040600022518000068
:102A000000000000000000000000000000000000C6
:102A10000000000000000000000008080808080886
:102A20000800001818000000486C24120000000084
:102A3000000000000000000000002424247F121287
:102A4000127F12121200000000081C2A2A0A0C1819
:102A500028282A2A1C080800000022251515152AF6
:102A6000585454542200000000000C1212120A762E
:102A7000252911916E0000000606040300000000E5
:102A800000000000000000004020101008080808A6
:102A90000808101020400000020408081010101050
:102AA000101008080402000000000008086B1C1C3D
:102AB0006B08080000000000000000080808087FFC
:102AC00008080808000000000000000000000000E6
:102AD000000000060604030000000000000000FEE5
:102AE00000000000000000000000000000000000E6
:102AF000000000060600000000804040202010106A
:102B00000808040402020000000018244242424265
:102B100042424224180000000000080E080808087D
:102B2000080808083E00000000003C424242202005
:102B3000100804427E00000000003C4242201820A1
:102B4000404042221C0000000000203028242422A3
:102B5000227E20207800000000007E0202021A2659
:102B6000404042221C0000000000382402021A26C5
:102B7000424242241800000000007E222210100869
:102B8000080808080800000000003C4242422418DF
:102B9000244242423C0000000000182442424264A9
:102BA000584040241C0000000000000000181800DD
:102BB00000000018180000000000000000000800DD
:102BC0000000000008080400000040201008040273
:102BD000040810204000000000000000007F0000FA
:102BE000007F0000000000000000020408102040E8
:102BF000201008040200000000003C424246402031
:102C0000101000181800000000001C225A555555DD
:102C1000552D42221C00000000000808181414243E
:102C20003C224242E700000000001F2222221E2216
:102C3000424242221F00000000007C42420101018A
:102C4000010142221C00000000001F2242424242B9
:102C5000424242221F00000000003F4212121E1298
:102C6000120242423F00000000003F4212121E12B8
:102C7000120202020700000000003C2222010101B2
:102C8000712122221C0000000000E7424242427EE5
:102C900042424242E700000000003E0808080808DF
:102CA000080808083E00000000007C1010101010FA
:102CB0001010101010110F0000007722120A0E0AD7
:102CC0001212222277000000000007020202020214
:102CD000020202427F000000000077363636362AB4
:102CE0002A2A2A2A6B0000000000E346464A4A527C
:102CF000525262624700000000001C2241414141E3
:102D0000414141221C00000000003F424242423E3D
:102D1000020202020700000000001C224141414162
:102D2000414D53321C60000000003F4242423E12BF
:102D300012222242C700000000007C424202041816
:102D4000204042423E00000000007F490808080879
:102D5000080808081C0000000000E7424242424206
:102D6000424242423C0000000000E742422224244A
:102D7000141418080800000000006B49494949551F
:102D800055362222220000000000E74224241818B1
:102D900018242442E70000000000772222141408BF
:102DA000080808081C00000000007E212010100800
:102DB000040442423F000000780808080808080898
:102DC000080808080878000000020204040808083F
:102DD00010102020204040001E1010101010101065
:102DE00010101010101E00003844000000000000F9
:102DF00000000000000000000000000000000000D3
:102E0000000000000000FF000608000000000000B5
:102E100000000000000000000000000000003C4234
:102E200078444242FC0000000000030202021A261D
:102E3000424242261A000000000000000000384410
:102E40000202024438000000000060404040784424
:102E500042424264D80000000000000000003C42F2
:102E60007E0202423C0000000000F08808087E0854
:102E7000080808083E0000000000000000007C2256
:102E8000221C023C42423C000000030202023A467D
:102E900042424242E700000000000C0C00000E0815
:102EA000080808083E00000000003030000038200C
:102EB0002020202020221E000000030202027212A5
:102EC0000A1612227700000000000E080808080801
:102ED000080808083E0000000000000000007F9283
:102EE00092929292B70000000000000000003B4662
:102EF00042424242E70000000000000000003C4265
:102F0000424242423C0000000000000000001B263C
:102F1000424242221E0207000000000000007844E6
:102F2000424242447840E000000000000000774C3C
:102F3000040404041F0000000000000000007C42A4
:102F4000023C40423E0000000000000008083E082D
:102F5000080808083000000000000000000063427C
:102F600042424262DC000000000000000000E74234
:102F70002424140808000000000000000000EB49B1
:102F80004955552222000000000000000000762470
:102F9000181818246E000000000000000000E7422E
:102FA00024241418080807000000000000007E22F6
:102FB000100808447E000000C0202020202010209F
:102FC0002020202020C00010101010101010101011
:102FD000101010101010100006080808080810083B
:102FE000080808080806000C32C2000000000000B3
:0B2FF0000000000000000000000000D6
:0ABDAE004205960000420594FFFFD5
:0FD06B00C293C2918FE800000000D291D29322AD
:10D00800C293C29012D1B2AFE8EF7F00FED290D2A5
:01D018009384
:01D0190022F4
:05D1C600C28302D06BE2
:05D15C0012D1C6E4FF42
:05D16100D28302D06B37
:0AD16600D28312D008EEFF7E0022F3
:05CF9400E0FEA3E0FF38
:10CF9900AD07AC06D283ECFF12D06BAF0502D06BA4
:10CDAD00AA07ED54FC75F008A4FDEA54F845F0FE11
:0FCDBD00EDFFEB54F8131313541FFDEF4DFF223E
:10BBE600D283C293C29012D1B2AFE890075BE4F061
:10BBF600A3EFF0E0F8E4F0E890075BF0D290C29093
:10BC060012D1B2AFE890075BE4F0A3EFF0E0F8E4FE
:10BC1600F0E890075BF0D290C29012D1B2AFE890F4
:10BC2600075DE4F0A3EFF0E0F8E4F0E890075DF0DC
:10BC3600D290C29012D1B2AFE8AB07EBFAD2909095
:10BC4600075BE0FF7E00EEF0A3EFF0A3E0F8E4F080
:10BC5600E8A3F0EAFB7A00D29390075DA3E0FD0229
:02BC6600CDAD62
:0AD1700012D1C6AE04AF0502D16172
:10C62000900417EBF0A3EAF0A3E9F07E0012D1C664
:10C6300075E8FF75CBFFE4F5CC90041A74FFF5F0B4
:10C6400012173345F0601912D166900417E0FBA36E
:10C65000E475F001121733A9F0FAEF12164C80D9E5
:0AC66000E4F5CB75CCFF75E8FF226E
:0BD11D0090059FE0FEA3E0FF02D1C6DA
:0BD128009005A1E0FEA3E0FF02D1C6CD
:08C44900900414EEF0A3EFF0E3
:10C4510012BC68E4900416F0A3F0900598E0FEA3E6
:10C46100E0FFC3900417E09F900416E09E502DE476
:10C47100FBFAD390059BE09B90059AE09A400D90C2
:10C48100041412CF940BBB00010A80E6900417E05C
:0CC4910004F070C6900416E004F080BEB9
:01C49D00227C
:10C74300900506E02401FF900505E03400FE900506
:0CC7530008E02401FD900507E03400FC24
:10C75F00AB07AA068D828C83C006C007AE83AF825B
:10C76F00900466EEF0A3EFF0D007D00612BC8F90C6
:0AC77F000596E0FEA3E0FF02CF994B
:08C66A00900790EEF0A3EFF041
:10C67200D3900599E09F900598E09E400DD39005D8
:10C682009BE09D90059AE09C5004E4FEFF229007F7
:10C6920090E0FEA3E0FF12C52012D12875E8FF75D5
:10C6A200CBFFE4F5CC12BBE6E4F5CB75CCFF75E825
:01C6B200FF88
:01C6B3002264
:10CC54005391FE4392015391FD4392025393F74340
:10CC640094085391F74392085391DF439220E4F5DB
:05CC7400CB75CCFF228E
:10CEDE007F327E0012D02CC2957F327E0012D02C73
:09CEEE00D2957F327E0002D02CA7
:1090A30012CC5412CEDE7F017E0012D1C67F321263
:1090B300D02C7F287E0012D1C67FF612D1C67F0145
:1090C30012D16112D1611F12D1617FCF12D15C7FA6
:1090D3008112D1617F3012D1617FED12D1C67F64DD
:1090E30012D1617F0312D1617F1212D1617F81128C
:1090F300D1617FE812D1C67F8512D1617F1012D171
:10910300617F7812D1617FCB12D1C67F3912D161D1
:109113007F2C12D161E4FF12D1617F3412D1617FC0
:109123000212D1617FF712D1C67F2012D1617FEA8B
:1091330012D15C12D1617FB012D15C7FB412D15CC9
:109143007FC012D1C67F2112D1617FC112D1C67FE8
:109153001112D1617FC512D1C67F3F12D1617F3C0D
:1091630012D1617FC712D1C67FB512D1617F36128A
:10917300D1C67F4812D1617F3A12D1C67F5512D131
:10918300617FB112D15C7F1B12D1617FB612D1C650
:109193007F0A12D1617FA212D1617FF212D15C7F6B
:1091A3002612D1C67F0112D1617FE012D1C67F0F93
:1091B30012D1617F2612D1617F2412D1617F0B12FC
:1091C300D1617F0E12D1617F0912D1617F5412D117
:1091D300617FA812D1617F4612D1617F0C12D161E8
:1091E3007F1712D1617F0912D1617F0F12D1617F85
:1091F3000712D161E4FF12D1617FE112D15C7F19C3
:1092030012D1617F1B12D1617F0412D1617F1012D1
:10921300D1617F0712D1617F2A12D1617F4712D1B9
:10922300617F3912D1617F0312D1617F0612D1614F
:1092330012D1617F3012D1617F3812D1617F0F1259
:10924300D1617F2B12D15C12D1610F12D1617F3FAB
:1092530012D1617F2A12D15C12D16112D1617FEFE9
:1092630012D1617FB712D1C67F0712D1617F11126C
:10927300D1C67F9612D02C7F297E0012D1C612CB85
:0E9283000090059CEEF0A3EFF0E4FF02A5EAD8
:10BC6800900599E024FFFB900598E034FFFA9005D1
:10BC78009BE024FFFE90059AE034FF900466F0A351
:07BC8800CEF0E4FDFCFFFE1D
:10BC8F00900460EEF0A3EFF09005A3E0FEA3E0FFB9
:10BC9F0012D1C6900460E0FF7E0012D161A3E0FFD5
:10BCAF0012D161EAFF12D161AF037E0012D1619010
:10BCBF0005A5E0FEA3E0FF12D1C6ECFF7E0012D176
:10BCCF0061AF057E0012D161900466E0FF12D16171
:09BCDF00A3E0FF12D16102D11DA6
:10C4F10090061EE075F00CA4FF900616E02FFF9049
:10C501000615E035F0FEEB7C002FFFEC3EFE9006B9
:0FC511001FE0FD900618E09006172DFDE03CFCA2
:10C52000AB07AA068D828C83C006C007AE83AF829C
:0FC53000900466EEF0A3EFF0D007D00602BC8FA8
:10A5EA009005A3E4F0A3742AF0A3E4F0A3742BF07B
:10A5FA0090059FE4F0A3742CF0A3E4F0A3742EF06A
:10A60A00EF14605014700302A69914700302A6D4C2
:10A61A002403600302A716900598E4F0A374F0F0EF
:10A62A00A37401F0A37440F0A3E0FEA3E0FFBE937D
:10A63A0007BF40047D0180027D00BE9307BF41042D
:10A64A007F0180027F00EF4D60057D0802A70D7D26
:10A65A004002A70D9005987401F0A37440F0A3E49A
:10A66A00F0A374F0F0A3E0FEA3E0FFBE9307BF409F
:10A67A00047D0180027D00BE9307BF41047F0180F3
:10A68A00027F00EF4D60047DF880027DF0807490B7
:10A69A000598E4F0A374F0F0A37401F0A37440F0F9
:10A6AA00A3E0FEA3E0FFBE9307BF40047D01800242
:10A6BA007D00BE9307BF41047F0180027F00EF4DFA
:10A6CA0060047D9880027DC080399005987401F0FD
:10A6DA00A37440F0A3E4F0A374F0F0A3E0FEA3E0B7
:10A6EA00FFBE9307BF40047D0180027D00BE930731
:10A6FA00BF41047F0180027F00EF4D60047D288006
:0DA70A00027D207C007F367E0012D170227F
:10CB000078127C047D017BFF7A2F79F77E007F0409
:10CB10001215E07B017A04791290041AE4F0A374F0
:10CB200004F07FD312C620900414E0FEA3E0FDEDD4
:01CB3000FF05
:01CB310022E1
:10AA6B00900488E0FCA3E0FD900486E0FAA3E0FBF1
:10AA7B00A3E0FFA3E0900456CFF0A3EFF090048285
:10AA8B00E0FFA3E0900458CFF0A3EFF0900484E034
:04AA9B00FEA3E0FF37
:0EAA9F00900450EEF0A3EFF0A3ECF0A3EDF066
:10AAAD00900450E0FEA3E0FFC3EB9FFFEA9ECF248E
:10AABD0001CF340090045CF0A3EFF0900452E0FE5F
:10AACD00A3E0FFC3900457E09FFF900456E09ECF94
:10AADD002401CF340090045EF0A3EFF0900452E017
:10AAED00FCA3E0FD900456E0FFA3E0900466CFF0D8
:10AAFD00A3EFF0900450E0FEA3E0FF12BC8FE490B2
:10AB0D00045AF0A3F090045EE0FEA3E0FFC39004AE
:10AB1D005BE09F90045AE09E502DE4FBFAD3900425
:10AB2D005DE09B90045CE09A400D90045812CF9428
:10AB3D000BBB00010A80E690045BE004F070C69048
:10AB4D00045AE004F080BE900599E024FFFB9005C7
:10AB5D0098E034FFFA90059BE024FFFE90059AE003
:10AB6D0034FF900466F0A3CEF0E4FDFCFFFE02BCC2
:01AB7D008F48
:0E8C850090041EEEF0A3EFF0A3ECF0A3EDF0D0
:108C9300E490042AF0A3F0A3F0A3F0900596E0FF7C
:108CA300A3E090043CCFF0A3EFF0900426E0FFA3F1
:108CB300E0900596CFF0A3EFF090041EE0FEA3E052
:108CC300FFC3EB9FFFEA9E90042EF0A3EFF0900406
:108CD30020E0FAA3E0FBC3900425E09BFE9004246C
:108CE300E09A900430F0A3CEF090041EE0FFA3E0DE
:108CF300900438CFF0A3EFF0A3EAF0A3EBF09004D5
:108D03002EE0FEA3E0FFD39400EE64809480400A3B
:108D1300900434E4F0A304F08021EF4E7008900433
:108D230034F0A3F0801574FF900434F0A3F0C3E48F
:108D33009FFFE49E90042EF0A3EFF0900430E0FE3A
:108D4300A3E0FFD39400EE64809480400A9004363D
:108D5300E4F0A304F08021EF4E7008900436F0A3F2
:108D6300F0801574FF900436F0A3F0C3E49FFFE492
:108D73009E900430F0A3EFF0900430E0FEA3E0FFF8
:108D830090042EE0FCA3E0FDD39FEE6480F8EC6436
:108D930080989004324007ECF0A3EDF08005EEF0EC
:108DA300A3EFF0E4900428F0A3F0900433E024014F
:108DB300FF900432E03400FED3900429E09FEE6478
:108DC30080F8900428E06480984003028E93900416
:108DD30038E0FEA3E0FFA3E0FCA3E0FD12C75F9031
:108DE300042EE0FEA3E0FF90042BE02FF090042A72
:108DF300E03EF0900430E0FEA3E0FF90042DE02F6E
:108E0300F090042CE03EF0900432E0FEA3E0FF90EB
:108E1300042AE0FCA3E0FDD39FEE6480F8EC6480B9
:108E2300984020ED9FFFEC9E90042AF0A3EFF09072
:108E33000434E0FEA3E0FF900439E02FF0900438FF
:108E4300E03EF0900432E0FEA3E0FF90042CE0FC4F
:108E5300A3E0FDD39FEE6480F8EC6480984020ED9E
:108E63009FFFEC9E90042CF0A3EFF0900436E0FEFD
:108E7300A3E0FF90043BE02FF090043AE03EF09033
:108E83000429E004F07006900428E004F0028DAD9C
:0F8E930090043CE0FFA3E0900596CFF0A3EFF032
:018EA20022AD
:0E7751009004EAEEF0A3EFF0A3ECF0A3EDF04D
:10775F00E49004F7F0A3F0A3F0A3F0900596E0FFF8
:10776F00A3E0900509CFF0A3EFF09004F3E0FFA39F
:10777F00E0900596CFF0A3EFF09004EAE0FEA3E0CF
:10778F00FFC3EB9FFFEA9E9004FBF0A3EFF0900482
:10779F00ECE0FAA3E0FBC39004F1E09BFE9004F051
:1077AF00E09A9004FDF0A3CEF09004EAE0FFA3E08E
:1077BF00900505CFF0A3EFF0A3EAF0A3EBF0900450
:1077CF00FBE0FEA3E0FFD39400EE64809480400AB8
:1077DF00900501E4F0A304F08021EF4E70089005AE
:1077EF0001F0A3F0801574FF900501F0A3F0C3E43E
:1077FF009FFFE49E9004FBF0A3EFF09004FDE0FEEA
:10780F00A3E0FFD39400EE64809480400A900503B8
:10781F00E4F0A304F08021EF4E7008900503F0A36D
:10782F00F0801574FF900503F0A3F0C3E49FFFE40D
:10783F009E9004FDF0A3EFF09004FDE0FEA3E0FFA7
:10784F009004FBE0FCA3E0FDD39FEE6480F8EC64B2
:10785F0080989004FF4007ECF0A3EDF08005EEF068
:10786F00A3EFF0E49004F5F0A3F0900500E02401FD
:10787F00FF9004FFE03400FED39004F6E09FEE6427
:10788F0080F89004F5E06480984003027A689004D1
:10789F00F2E07011900505E0FEA3E0FFA3E0FCA36A
:1078AF00E0FD12C75F9004F2E064017038900505A7
:1078BF00E0FEA3E0FFA3E0FCA3E0FD12C75F90058D
:1078CF0006E02401FF900505E03400FE900507E077
:1078DF00FCA3E0FD12C75F900505E0FEA3E0FF12D9
:1078EF00C75112C7439004F2E0640260030279B7F4
:1078FF00900505E0FEA3E0FFA3E0FCA3E0FD12C7A7
:10790F005F900506E02401FF900505E03400FE902E
:10791F000507E0FCA3E0FD12C75F900505E0FEA39D
:10792F00E0FF12C75112C743900506E024FFFF90F6
:10793F000505E034FF12C750900506E02401FF90C3
:10794F000505E03400FE900508E024FFFD900507D3
:10795F00E034FFFC12C75F900506E024FFFF90059F
:10796F0005E034FFFE900508E024FFFD900507E0D9
:10797F0034FFFC12C75F900506E024FFFF9005055A
:10798F00E034FFFE900507E0FCA3E0FD12C75F9017
:10799F000505E0FEA3E0FF900508E024FFFD90053C
:1079AF0007E034FFFC12C75F9004FBE0FEA3E0FF8B
:1079BF009004F8E02FF09004F7E03EF09004FDE023
:1079CF00FEA3E0FF9004FAE02FF09004F9E03EF000
:1079DF009004FFE0FEA3E0FF9004F7E0FCA3E0FDBE
:1079EF00D39FEE6480F8EC6480984020ED9FFFEC0D
:1079FF009E9004F7F0A3EFF0900501E0FEA3E0FFE7
:107A0F00900506E02FF0900505E03EF09004FFE0B2
:107A1F00FEA3E0FF9004F9E0FCA3E0FDD39FEE642A
:107A2F0080F8EC6480984020ED9FFFEC9E9004F965
:107A3F00F0A3EFF0900503E0FEA3E0FF900508E050
:107A4F002FF0900507E03EF09004F6E004F070068A
:107A5F009004F5E004F0027879900509E0FFA3E0C7
:087A6F00900596CFF0A3EFF0A3
:017A770022EC
:10AF4100900418EAF0A3EBF0900414EEF0A3EFF0F4
:10AF5100A3ECF0A3EDF0C007A3E0FAA3E0FB90049B
:10AF610016E0FFA3E0900424CFF0A3EFF090041CBF
:10AF7100E0FFA3E0900426CFF0A3EFF0D007128CFE
:10AF810085900414E0FAA3E0FBFFAE02C007A3E042
:10AF9100FCA3E0FD90041AE0FFA3E0900424CFF0AD
:10AFA100A3EFF090041CE0FFA3E0900426CFF0A3F0
:10AFB100EFF0D007128C8590041AE0FCA3E0FD901D
:10AFC1000418E0FAA3E0FBA3E0FFA3E0900424CF80
:10AFD100F0A3EFF090041CE0FFA3E0900426CFF073
:10AFE100A3EFF0900414E0FEA3E0FF128C8590041F
:10AFF10018E0FAA3E0FBFFAE02C007900416E0FCE4
:10B00100A3E0FD90041AE0FFA3E0900424CFF0A395
:10B01100EFF090041CE0FFA3E0900426CFF0A3EF33
:06B02100F0D007028C854F
:10CC7900C00790044CE0FFA3E0900456CFF0A3EF67
:10CC8900F090044EE0FFA3E0900458CFF0A3EFF03A
:05CC9900D00702AA9F74
:10CACD009006B3FEE0FCA3E0FD9006B2E02DFD90D4
:0DCADD0006B1E03CFC9006B7E0FAA3E0FBD8
:10CAEA00900792EAF0A3EBF012C520900792E0FEBD
:06CAFA00A3E0FF02CF994A
:10A37F009006B5F0A3EFF0900606E0FFA3E090067D
:0EA38F00B7CFF0A3EFF0900600E0FEA3E0FFD2
:10A39D009006B1ECF0A3EDF09006AFEEF0A3EFF068
:10A3AD009006B3EAF0A3EBF02FFFEE3AA312CAD05A
:10A3BD009006B3E0FEA3E0FFC39006B0E09FFF90D0
:10A3CD0006AFE09EFE9006B512CAD19006B3E0FE30
:10A3DD00A3E0FF9006B0E02FFF9006AFE03EFE90A9
:10A3ED0006B5E0FCA3E0FDC39006B2E09DFD90062E
:10A3FD00B1E09C12CAE19006B3E0FEA3E0FFC3906A
:10A40D0006B0E09FFF9006AFE09EFE9006B5E0FC23
:10A41D00A3E0FDC39006B2E09DFD9006B1E09C1255
:10A42D00CAE19006B5E0FEA3E0FF9006B0E02FFF75
:10A43D009006AFE03E12CACD9006B5E0FEA3E0FF58
:10A44D00C39006B0E09FFF9006AFE09E12CACD907C
:10A45D0006B5E0FEA3E0FF9006B0E02FFF9006AF3B
:10A46D00E03EFE9006B3E0FCA3E0FDC39006B2E033
:10A47D009DFD9006B1E09C12CAE19006B5E0FEA3E9
:10A48D00E0FFC39006B0E09FFF9006AFE09EFE9008
:10A49D0006B3E0FCA3E0FDC39006B2E09DFD90067F
:0FA4AD00B1E09CFC9006B7E0FAA3E0FB02CAEA1C
:0E947500900600EEF0A3EFF0A3ECF0A3EDF0F4
:10948300E4900609F0A3F0A3EAF0A3EBF025E0FFD4
:10949300EA33FEC374039F900610F0E49E90060F18
:1094A300F0900608E070030295A490060BE0FEA37B
:1094B300E0FF900609E0FCA3E0FDD39FEE6480F893
:1094C300EC648098400302965690060DECF0A3EDF1
:1094D300F090060BE0FEA3E0FFD390060EE09FEEB4
:1094E3006480F890060DE0648098502B900602E0AB
:1094F300FCA3E0FD900609E0FAA3E0FB90060DE073
:10950300FFA3E0CF12A37F90060EE004F070C29099
:10951300060DE004F080BA90060FE0FCA3E0FDC363
:10952300EC648094805023900609E0FEA3E0780267
:10953300C333CE33CED8F92DFFEC3ECF2406CF3440
:109543000090060FF0A3EFF0804390060BE0FEA31C
:10955300E0FFC390060AE09FFF900609E09EFEEF3E
:109563007802C333CE33CED8F9FF900610E02FFF35
:1095730090060FE03ECF240ACF3400F0A3EFF09023
:10958300060CE024FFF090060BE034FFF090060A8F
:10959300E004F060030294AD900609E004F0029445
