:10D7180012EA1412ED6912EEA7D2AF12EDCD12F093
:10D72800961298967B017A1379E112C3939013E5C8
:10D73800A3A3E0FEA3E0FBAA069013E1A3A3E0FEE7
:10D74800A3E02BFFEE3AFE12E3AD12F00012C45B29
:10D75800900005E0FF6401600BEF6402600674014D
:10D76800F012C2C6900005E024FE6008047008129A
:10D77800A3BE800312A56E12CA4C900005E024FED9
:0FD7880060080470F212C76180ED12E28480E83D
:10716F000000000000000000000000000000000010
:10717F00000000000000000000000FF00000387851
:10718F00000070380000F0380000F0780000F07850
:10719F00000000F0000000E0000001C000000380CC
:1071AF000000070000000E00000038000000700013
:1071BF000000E0000001800000030180000E0300CA
:1071CF00001C0600003FFE00003FFC000000000016
:1071DF0000000000000000000000000000000000A0
:1071EF000000000000000000000000000000000090
:1071FF00000000000000000000000FE000001C7005
:10720F000000387000007070000060700000E070C7
:10721F000000E0700001C0E00001C0E0000380E06A
:10722F00000381C0000381C0000703C00007038073
:10723F000007038000070700000F0700000E0E0075
:10724F0000061C00000738000003F00000000000DB
:10725F00000000000000000000000000000000001F
:10726F00000000000000000000000000000000000F
:10727F00000000000000000000000070000000E0AF
:10728F00000001E0000003E0000007C000000FC095
:10729F0000001BC000003380000067800000C700A3
:1072AF000001870000030F0000060E00000C0E0007
:1072BF00001FFFC0003FFFC000001C0000003C008B
:1072CF000000380000007C000003FF0000000000F9
:1072DF00000000000000000000000000000000009F
:1072EF00000000000000000000000000000000008F
:1072FF00000000000000000000000FF000001C382C
:10730F0000003838000070380000F0380000F070CE
:10731F000000F0600000F1C000007F8000003E0020
:10732F0000007F000001CF80000387C0000703C06B
:10733F00000E03C0000C03C0000C0380000C0700FC
:10734F00000E0E000007BC000001E000000000006E
:10735F00000000000000000000000000000000001E
:10736F000000000000020000000380000007000082
:10737F00000E8000000C4000001A3000003318008F
:10738F0000618E00018183F0030104FC0DFFFE18E4
:10739F0030001C00000038000000300001006000C9
:1073AF0001FFFF80018003000180030001810300C2
:1073BF000181830001830300018303000183030024
:1073CF000182020000066000000C1F00001803E09D
:1073DF00007000F003C000701C00001000000000DF
:1073EF0000000000000000000000600000007000BE
:1073FF00000060000000E0000020C0001FF08010BF
:10740F001861FFF81861000018620000186600008C
:10741F0018640000186801801867FFC018600380A7
:10742F00186007001860060018600C00186018003C
:10743F001FE03000186060001860E0001840C010B6
:10744F001001801000030018000300180003001C37
:10745F000003FFFC0001FFF8000000000000000027
:10746F0000000000000000000100000001800C007F
:10747F0001800600018007000180030001800208DF
:10748F000181FFFC2181001C1FFD0010119B0010CA
:10749F00119A4000119870001198600011986020A7
:1074AF0011986070119860E0119861801FF8620068
:1074BF0011986C002180700001A060080190600895
:1074CF000198600801BC600807CC60087C04600864
:1074DF002000301C00003FFC0000000000000000F6
:10C997004100040041000900410FAB00410FDE00D8
:10C9A70041000AFF4100020041000300420000006D
:01C9B700007F
:03000B0002DCDD37
:10DCDD00C0E0C0F0C083C082C0D075D000C000C00D
:0DDCED0001C002C003C004C005C006C0078E
:10DCFA00900001E02401FF900000E03400FE7C0067
:10DD0A007D321216E7ECF0A3EDF064314C70089006
:0DDD1A000FAB04F012D46A9000097401F000
:10DD2700D007D006D005D004D003D002D001D00050
:0BDD3700D0D0D082D083D0F0D0E032FA
:0300A30002E64131
:10E64100C0E0C0F0C083C082C0D075D000C000C09F
:10E6510001C002C003C004C005C006C00712BBA5AB
:10E661009000047401F0D007D006D005D004D00387
:10E67100D002D001D000D0D0D082D083D0F0D0E071
:01E681003266
:0BF000007E007F0B7DA07C0F02E7422A
:10C45B00E49013E9F0A3F07B017A14798A9000063B
:10C46B0004F0A3EAF0A3E9F09013F07427F0E4FFD3
:10C47B00FE12DA609013EAE02427F09013E9E0341F
:10C48B0000F07B017A157959900006EBF0A3EAF0E6
:10C49B00A3E9F09013E9E0FEA3E0FF9013F0740220
:10C4AB00F012DA609013EAE02402F09013E9E03422
:10C4BB0000F07B017A15795C900006EBF0A3EAF0B3
:10C4CB00A3E9F09013E9E0FEA3E0FF9013F07401F1
:10C4DB00F012DA609013EAE004F070069013E9E0D2
:10C4EB0004F07B017A007905900006EBF0A3EAF0EB
:10C4FB00A3E9F09013E9E0FEA3E0FF9013F07401C1
:10C50B00F012DA609013EAE004F070069013E9E0A1
:02C51B0004F02A
:01C51D0022FB
:10C2C600E49013EDF0A3F0FFFE12E9E27B017A148D
:10C2D600798A900006EBF0A3EAF0A3E9F09013ED5B
:10C2E600E0FEA3E0FF9013F47427F012B5809013DC
:10C2F600EEE02427F09013EDE03400F07B017A1590
:10C306007959900006EBF0A3EAF0A3E9F09013ED5B
:10C31600E0FEA3E0FF9013F47402F012B5809013D0
:10C32600EEE02402F09013EDE03400F07B017A1584
:10C33600795C900006EBF0A3EAF0A3E9F09013ED28
:10C34600E0FEA3E0FF9013F47401F012B5809013A1
:10C35600EEE004F070069013EDE004F07B017A0045
:10C366007905900006EBF0A3EAF0A3E9F09013ED4F
:10C37600E0FEA3E0FF9013F47401F012B580901371
:0CC38600EEE004F070069013EDE004F00F
:01C392002288
:10CA4C00901542E0FF3395E0C364809480401AEF68
:10CA5C003395E0FE74432FF58274153EF583E09018
:10CA6C00000AF090154274FFF0900004E06010E4AE
:10CA7C00F012F021EF600812F0A4900FDEEFF090AE
:10CA8C000FDEE0FF602C900003E0FE25E024ACF507
:10CA9C0082E4340FF583EFF0EE25E024ADF582E46B
:10CAAC00340FF583E4F0900003E004F0E4900FDE23
:10CABC00F02290000AE0FFFD3395E0FCEDF47002EB
:10CACC00ECF4602D900003E0FE25E024ACF582E44C
:10CADC00340FF583EFF0EE25E024ADF582E4340F4E
:10CAEC00F5837401F0900003E004F090000A74FFE9
:02CAFC00F02226
:0AF02C00E4900003F0900002F022CF
:10DAC90025313964002020202020202020202059C1
:10DAD9006F752057696E20212020202020202020CA
:10DAE900200020202020202020202047616D652053
:10DAF9004F76657220212020202020202020004AF6
:10DB09006F696E207468652074696C65732C206771
:10DB1900657420746F203230343821002564004246
:0DDB2900657374203A0053636F72653A0013
:10C8DB00E49013FBF0FFEFC39404748094805048F2
:10C8EB00E4FEEEC39404748094805039EF75F00825
:10C8FB00A42491F582E43414F58375F002EE121A38
:10C90B00A9E0FCA3E04C701AEF25E025E02EFD908A
:10C91B0013FBE0FC04F074EB2CF582E43413F58389
:10C92B00EDF00E80BD0F80AE9013FBE07002FF2286
:10C93B0012E36F9013FBE0FD7C001216E774EB2DF6
:10C94B00F58274133CF583E09013EAF012E36F7CED
:10C95B00007D0A1216E7ED64014C7005FE7F048022
:10C96B00047E007F029013EAE0FD1313543F75F031
:10C97B0008A42491F582E43414F583ED540375F087
:0BC98B0002121AA9EEF0A3EFF07F01EA
:01C99600227E
:106A5A00E4F9E9FF3395E0FEC3EF9404EE64809411
:106A6A00804003026D39E49013EBF0A3F0A3F09099
:106A7A0013EAF09013EAE0FFFD3395E0FCC3ED94CE
:106A8A0004EC648094804003026D35EF3395E0FC9A
:106A9A00ED25E0FBEC33FAE9FF3395E0FEEF7803EE
:106AAA00C333CE33CED8F92491F58274143EF583DC
:106ABA00E5822BF582E5833AF583E0FAA3E0FBED64
:106ACA0025E0FDEC33FCE9FF3395E0FEEF7803C3E4
:106ADA0033CE33CED8F924EEF58274133EF583E52E
:106AEA00822DF582E5833CF583EAF0A3EBF0E9FF1A
:106AFA003395E0FEEF7803C333CE33CED8F9249131
:106B0A00F58274143EF583E5822DF582E5833CF522
:106B1A0083E0FEA3E0FF4E7003026D2C9013ECE0BD
:106B2A00FCA3E0FD4C700B9013ECEEF0A3EFF00227
:106B3A006CAB9013EAE0FF3395E0FEEF25E0FBEE45
:106B4A0033FAE9FF3395E0FEEF7803C333CE33CE51
:106B5A00D8F92491F58274143EF583E5822BF582E7
:106B6A00E5833AF583E0FEA3E06D7002EC6E600304
:106B7A00026C269013EDE025E0FD9013ECE033FC67
:106B8A009013EBE0FF3395E0FEEF25E0FBEE33FADE
:106B9A00E9FF3395E0FEEF7803C333CE33CED8F95D
:106BAA002491F58274143EF583E5822BF582E58300
:106BBA003AF583ECF0A3EDF09013EDE025E0FF90B9
:106BCA0013ECE033FE90148BE02FF090148AE03E31
:106BDA00F0E49013ECF0A3F0E9FF3395E0FEEF78D0
:106BEA0003C333CE33CED8F92491F58274143EF51B
:106BFA0083E5822BF582E5833AF583E0FEA3E0FF85
:106C0A0090148FE0FCA3E0FDEF6D7002EE6C600360
:106C1A00026CA590148E7404F0026CA59013ECE03B
:106C2A00FCA3E0FD9013EBE0FF3395E0FEEF25E0D7
:106C3A00FBEE33FAE9FF3395E0FEEF7803C333CE78
:106C4A0033CED8F92491F58274143EF583E5822B6C
:106C5A00F582E5833AF583ECF0A3EDF09013EAE0D0
:106C6A00FF3395E0FEEF25E0FDEE33FCE9FF3395B7
:106C7A00E0FEEF7803C333CE33CED8F92491F58200
:106C8A0074143EF583E5822DF582E5833CF583E0B5
:106C9A00FFA3E09013ECCFF0A3EFF09013EBE00426
:106CAA00F09013EAE0FF3395E0FEEF25E0FDEE33C6
:106CBA00FCE9FF3395E0FEEF7803C333CE33CED839
:106CCA00F92491F58274143EF583E5822DF582E567
:106CDA00833CF583E4F0A3F09013ECE07002A3E0A8
:106CEA0060409013ECE0FCA3E0FD9013EBE0FF336F
:106CFA0095E0FEEF25E0FBEE33FAE9FF3395E0FE7F
:106D0A00EF7803C333CE33CED8F92491F5827414C5
:106D1A003EF583E5822BF582E5833AF583ECF0A311
:106D2A00EDF09013EAE004F0026A7D09026A5CE47D
:106D3A00F9E9FF3395E0FEC3EF9404EE6480948092
:106D4A004003026DE2E49013EAF09013EAE0FFFDDB
:106D5A003395E0FCC3ED9404EC648094805075EFA5
:106D6A003395E0FCED25E0FBEC33FAE9FF3395E0DF
:106D7A00FEEF7803C333CE33CED8F924EEF582740E
:106D8A00133EF583E5822BF582E5833AF583E0FA33
:106D9A00A3E0FBED25E0FDEC33FCE9FF3395E0FED3
:106DAA00EF7803C333CE33CED8F92491F582741425
:106DBA003EF583E5822DF582E5833CF583E0FEA36B
:106DCA00E06B7002EE6A60037F01229013EAE0042E
:0A6DDA00F0026D5409026D3B7F00CA
:016DE400228C
:106DE500E4F9E9FF3395E0FEC3EF9404EE64809483
:106DF5008040030270C39013EB7403F0E4A3F0A387
:106E0500F09013EA7403F09013EAE0FF3395E0C3C2
:106E15006480948050030270BFEFFD3395E0FCED74
:106E250025E0FBEC33FAE9FF3395E0FEEF7803C389
:106E350033CE33CED8F92491F58274143EF583E52B
:106E4500822BF582E5833AF583E0FAA3E0FBED2595
:106E5500E0FDEC33FCE9FF3395E0FEEF7803C33347
:106E6500CE33CED8F924EEF58274133EF583E58250
:106E75002DF582E5833CF583EAF0A3EBF0E9FF33DA
:106E850095E0FEEF7803C333CE33CED8F92491F5E0
:106E95008274143EF583E5822DF582E5833CF58306
:106EA500E0FEA3E0FF4E70030270B69013ECE0FC29
:106EB500A3E0FD4C700B9013ECEEF0A3EFF0027025
:106EC500359013EAE0FF3395E0FEEF25E0FBEE3366
:106ED500FAE9FF3395E0FEEF7803C333CE33CED81E
:106EE500F92491F58274143EF583E5822BF582E54C
:106EF500833AF583E0FEA3E06D7002EC6E60030259
:106F05006FB09013EDE025E0FD9013ECE033FC90BD
:106F150013EBE0FF3395E0FEEF25E0FBEE33FAE9F6
:106F2500FF3395E0FEEF7803C333CE33CED8F92493
:106F350091F58274143EF583E5822BF582E5833A5B
:106F4500F583ECF0A3EDF09013EDE025E0FF901351
:106F5500ECE033FE90148BE02FF090148AE03EF0C5
:106F6500E49013ECF0A3F0E9FF3395E0FEEF78032E
:106F7500C333CE33CED8F92491F58274143EF5830C
:106F8500E5822BF582E5833AF583E0FEA3E0FF90E9
:106F9500148FE0FCA3E0FDEF6D7002EE6C60030260
:106FA500702F90148E7404F002702F9013ECE0FC97
:106FB500A3E0FD9013EBE0FF3395E0FEEF25E0FB4A
:106FC500EE33FAE9FF3395E0FEEF7803C333CE33B2
:106FD500CED8F92491F58274143EF583E5822BF51C
:106FE50082E5833AF583ECF0A3EDF09013EAE0FF38
:106FF5003395E0FEEF25E0FDEE33FCE9FF3395E048
:10700500FEEF7803C333CE33CED8F92491F58274DD
:10701500143EF583E5822DF582E5833CF583E0FF9B
:10702500A3E09013ECCFF0A3EFF09013EBE014F096
:107035009013EAE0FF3395E0FEEF25E0FDEE33FC2B
:10704500E9FF3395E0FEEF7803C333CE33CED8F9AD
:107055002491F58274143EF583E5822DF582E5834E
:107065003CF583E4F0A3F09013ECE07002A3E0603C
:10707500409013ECE0FCA3E0FD9013EBE0FF3395AB
:10708500E0FEEF25E0FBEE33FAE9FF3395E0FEEF96
:107095007803C333CE33CED8F92491F58274143EE8
:1070A500F583E5822BF582E5833AF583ECF0A3EDD4
:1070B500F09013EAE014F0026E0C09026DE7E4F9B2
:1070C500E9FF3395E0FEC3EF9404EE6480948040BD
:1070D5000302716CE49013EAF09013EAE0FFFD33CC
:1070E50095E0FCC3ED9404EC648094805075EF3317
:1070F50095E0FCED25E0FBEC33FAE9FF3395E0FE86
:10710500EF7803C333CE33CED8F924EEF58274136A
:107115003EF583E5822BF582E5833AF583E0FAA314
:10712500E0FBED25E0FDEC33FCE9FF3395E0FEEFF8
:107135007803C333CE33CED8F92491F58274143E47
:10714500F583E5822DF582E5833CF583E0FEA3E03A
:107155006B7002EE6A60037F01229013EAE004F08F
:097165000270DE090270C57F0012
:01716E0022FE
:1074EF00E4F9E9FF3395E0FEC3EF9404EE64809472
:1074FF008040030277AEE49013EBF0A3F0A3F0907B
:10750F0013EAF09013EAE0FF3395E0FEC3EF940423
:10751F00EE6480948040030277AAE9FD3395E0FC86
:10752F00ED25E0FBEC33FAE03395E0FEEF7803C393
:10753F0033CE33CED8F92491F58274143EF583E51A
:10754F00822BF582E5833AF583E0FAA3E0FBED2584
:10755F00E0FDEC33FC9013EAE0FF3395E0FEEF78AB
:10756F0003C333CE33CED8F9FF24EEF58274133E26
:10757F00F583E5822DF582E5833CF583EAF0A3EBF5
:10758F00F074912FF58274143EF583E5822DF58208
:10759F00E5833CF583E0FEA3E0FF4E70030277A185
:1075AF009013ECE0FCA3E0FD4C700B9013ECEEF0AD
:1075BF00A3EFF0027726E9FF3395E0FEEF25E0FB1E
:1075CF00EE33FA9013EAE0FF3395E0FEEF7803C352
:1075DF0033CE33CED8F92491F58274143EF583E57A
:1075EF00822BF582E5833AF583E0FEA3E06D70020E
:1075FF00EC6E60030276AE9013EDE025E0FD901384
:10760F00ECE033FCE9FF3395E0FEEF25E0FBEE33D2
:10761F00FA9013EBE0FF3395E0FEEF7803C333CE20
:10762F0033CED8F92491F58274143EF583E5822B7D
:10763F00F582E5833AF583ECF0A3EDF09013EDE0DE
:10764F0025E0FF9013ECE033FE90148BE02FF090C9
:10765F00148AE03EF0E49013ECF0A3F09013EBE00B
:10766F00FF3395E0FEEF7803C333CE33CED8F92442
:10767F0091F58274143EF583E5822BF582E5833A0A
:10768F00F583E0FEA3E0FF90148FE0FCA3E0FDEF95
:10769F006D7002EE6C707A90148E7404F08072909C
:1076AF0013ECE0FCA3E0FDE9FF3395E0FEEF25E0EE
:1076BF00FBEE33FA9013EBE0FF3395E0FEEF780328
:1076CF00C333CE33CED8F92491F58274143EF583AB
:1076DF00E5822BF582E5833AF583ECF0A3EDF0908C
:1076EF0013EAE0FF3395E0FEEF7803C333CE33CEDA
:1076FF00D8F92491F58274143EF583E5822BF58237
:10770F00E5833AF583E0FFA3E09013ECCFF0A3EF0E
:10771F00F09013EBE004F0E9FD3395E0FCED25E08C
:10772F00FBEC33FA9013EAE0FF3395E0FEEF7803BA
:10773F00C333CE33CED8F92491F58274143EF5833A
:10774F00E5822BF582E5833AF583E4F0A3F09013FD
:10775F00ECE07002A3E0603A9013ECE0FAA3E0FBD8
:10776F00ED25E0FDEC33FC9013EBE0FF3395E0FEED
:10777F00EF7803C333CE33CED8F92491F582741446
:10778F003EF583E5822DF582E5833CF583EAF0A390
:10779F00EBF09013EAE004F0027512090274F1E4C1
:1077AF009013EAF09013EAE0FF3395E0FEC3EF94F5
:1077BF0004EE64809480400302785DE4F9E9FF33BE
:1077CF0095E0FEC3EF9404EE648094805077E9FD5A
:1077DF003395E0FCED25E0FBEC33FA9013EAE0FF84
:1077EF003395E0FEEF7803C333CE33CED8F924EED2
:1077FF00F58274133EF583E5822BF582E5833AF526
:10780F0083E0FAA3E0FBED25E0FDEC33FC9013EAF7
:10781F00E0FF3395E0FEEF7803C333CE33CED8F9D4
:10782F002491F58274143EF583E5822DF582E5836C
:10783F003CF583E0FEA3E06B7002EE6A60037F010C
:10784F0022090277CC9013EAE004F00277B37F00AD
:01785F002206
:10786000E4F9E9FF3395E0FEC3EF9404EE648094FD
:10787000804003027B1E9013EB7403F0E4A3F0A39B
:10788000F09013EA7403F09013EAE03395E0C364D8
:107890008094805003027B1AE9FD3395E0FCED25CE
:1078A000E0FBEC33FAE0FF3395E0FEEF7803C333FF
:1078B000CE33CED8F92491F58274143EF583E58257
:1078C0002BF582E5833AF583E0FAA3E0FBED25E0B2
:1078D000FDEC33FC9013EAE0FF3395E0FEEF780314
:1078E000C333CE33CED8F9FF24EEF58274133EF5C0
:1078F00083E5822DF582E5833CF583EAF0A3EBF086
:1079000074912FF58274143EF583E5822DF582E59E
:10791000833CF583E0FEA3E0FF4E7003027B1190F1
:1079200013ECE0FCA3E0FD4C700B9013ECEEF0A325
:10793000EFF0027A96E9FF3395E0FEEF25E0FBEEEB
:1079400033FA9013EAE0FF3395E0FEEF7803C33398
:10795000CE33CED8F92491F58274143EF583E582B6
:107960002BF582E5833AF583E0FEA3E06D7002EC2F
:107970006E6003027A1E9013EDE025E0FD9013EC9B
:10798000E033FCE9FF3395E0FEEF25E0FBEE33FA50
:107990009013EBE0FF3395E0FEEF7803C333CE3373
:1079A000CED8F92491F58274143EF583E5822BF547
:1079B00082E5833AF583ECF0A3EDF09013EDE0253A
:1079C000E0FF9013ECE033FE90148BE02FF0901466
:1079D0008AE03EF0E49013ECF0A3F09013EBE0FFAC
:1079E0003395E0FEEF7803C333CE33CED8F924913C
:1079F000F58274143EF583E5822BF582E5833AF532
:107A000083E0FEA3E0FF90148FE0FCA3E0FDEF6DA8
:107A10007002EE6C707A90148E7404F08072901381
:107A2000ECE0FCA3E0FDE9FF3395E0FEEF25E0FB91
:107A3000EE33FA9013EBE0FF3395E0FEEF7803C3EB
:107A400033CE33CED8F92491F58274143EF583E514
:107A5000822BF582E5833AF583ECF0A3EDF09013E9
:107A6000EAE0FF3395E0FEEF7803C333CE33CED8A0
:107A7000F92491F58274143EF583E5822BF582E5B5
:107A8000833AF583E0FFA3E09013ECCFF0A3EFF08F
:107A90009013EBE014F0E9FD3395E0FCED25E0FBFD
:107AA000EC33FA9013EAE0FF3395E0FEEF7803C37E
:107AB00033CE33CED8F92491F58274143EF583E5A4
:107AC000822BF582E5833AF583E4F0A3F09013EC82
:107AD000E07002A3E0603A9013ECE0FAA3E0FBED63
:107AE00025E0FDEC33FC9013EBE0FF3395E0FEEF77
:107AF0007803C333CE33CED8F92491F58274143E83
:107B0000F583E5822DF582E5833CF583EAF0A3EB6E
:107B1000F09013EAE014F002788709027862E490AA
:107B200013EAF09013EAE0FF3395E0FEC3EF94040C
:107B3000EE648094804003027BCDE4F9E9FF339545
:107B4000E0FEC3EF9404EE648094805077E9FD3347
:107B500095E0FCED25E0FBEC33FA9013EAE0FF330F
:107B600095E0FEEF7803C333CE33CED8F924EEF59B
:107B70008274133EF583E5822BF582E5833AF58323
:107B8000E0FAA3E0FBED25E0FDEC33FC9013EAE026
:107B9000FF3395E0FEEF7803C333CE33CED8F9241C
:107BA00091F58274143EF583E5822DF582E5833CE0
:107BB000F583E0FEA3E06B7002EE6A60037F0122B2
:0F7BC00009027B3C9013EAE004F0027B237F0074
:017BCF002293
:10EA44007E007F207D007B017A147991121BB11224
:10EA5400C8DB12C8DBE490148AF0A3F090148F741E
:0BEA640008F0A3E4F090148E04F022F0
:10B69A00E49013EAF09013EAE0C39404748094806F
:10B6AA00400302B7ACE4A3F09013EBE0FFC39404A9
:10B6BA0074809480400302B7A39013EAE075F008FF
:10B6CA00A42491F582E43414F58375F002EF121A7A
:10B6DA00A9E0FEA3E04E7002FF229013EBE0FF24E4
:10B6EA0001FDE433FCC3ED9404EC64809480504182
:10B6FA009013EAE0FE75F008A42493F582E434146A
:10B70A00F58375F002EF121AA9E0FCA3E0FDEE75CD
:10B71A00F008A42491F582E43414F58375F002EF5D
:10B72A00121AA9E0FEA3E0B50507EEB504037F00EF
:10B73A00229013EAE0FF2401FDE433FCC3ED9404F4
:10B74A00EC648094805049EF75F008A42499F5823E
:10B75A00E43414F583C083C0829013EBE0FED082F8
:10B76A00D08375F002121AA9E0FCA3E0FDEF75F090
:10B77A0008A42491F582E43414F58375F002EE12DC
:10B78A001AA9E0FEA3E0B50507EEB504037F00227F
:10B79A009013EBE004F002B6B29013EAE004F00270
:04B7AA00B69F7F01C6
:01B7AE002278
:10C51E00E49013ECF090148EE06401700302C5DF1A
:10C52E00E49013EBF09013EBE0C3940474809480CA
:10C53E005053E4FDEDC3940474809480503F9013E7
:10C54E00EBE0FC7E007410A804088005C333CE33E4
:10C55E00CED8F9A805088005C333CE33CED8F9FF5F
:10C56E00EC75F008A42491F582E43414F58375F08B
:10C57E0002ED121AA9EEF0A3EFF00D80B79013EBB7
:10C58E00E004F080A0E490148AF0A3F090148E746E
:10C59E0002F0C390148CE0648094805009E4F0A300
:10C5AE00F09013EC04F090148FE0FEA3E0FFEE5435
:10C5BE0007FCEF4C7004EF4E700E90148F7408F061
:10C5CE00A3E4F09013EC04F09013ECE0600312C2BD
:01C5DE00C696
:01C5DF002239
:10CF9B0090140974FFF0A374DAF0A374C9F0901421
:10CFAB008CE0FFA3E090140CCFF0A3EFF07B017AA1
:10CFBB001379EB1252767B017A1379EB90140D7483
:10CFCB002BF0A37412F0A374C6F0A37418F0A3741F
:10CFDB0010F0E4A3F07D32FC7F44FE12D3D3901407
:10CFEB000974FFF0A374DAF0A374C9F090148AE00B
:10CFFB00FFA3E090140CCFF0A3EFF07B017A137931
:10D00B00EB1252767B017A1379EB90140D742BF0A3
:10D01B00A37412F0A374C6F0A37418F0A37410F0E9
:0CD02B00E4A3F07D44FC7F44FE02D3D35C
:10E3220090148EE024FD600B1470187BFF7ADA796A
:10E33200CE80067BFF7ADA79EB90140D74F8F0A3A5
:10E34200E4800F7BFF7ADB790890140D74BCF0A394
:10E352007440F0A374C6F0A37418F0A3740CF0E434
:0DE36200A3F07D2C7C017F24FE12D3D3227A
:105B1400E4901404F0901404E0C39404748094801A
:105B24004003025F84E4A3F0901405E0FFC39404EF
:105B3400748094804003025F7B901404E075F00845
:105B4400A42491F582E43414F58375F002EF121A5B
:105B5400A9E0FEA3E0FF4E7003025F29EF8EF0126E
:105B64001B845B9A00025BDA00045C1E00085C6222
:105B740000105CA600205CE900405D2C00805D7094
:105B840001005DB402005DF804005E3B08005E3B6A
:105B9400100000005E81901405E075F032A4FBAAA9
:105BA400F02418FFE43AFEC006C007901404E07520
:105BB400F032A4FFAEF02460FDE43EFCEB2442FB93
:105BC400E43AFAEF248AFFE43E90140CF0A3EFF0D9
:105BD400A37484025CE2901405E075F032A4FBAA7D
:105BE400F02418FFE43AFEC006C007901404E075E0
:105BF400F032A4FFAEF02460FDE43EFCEB2442FB53
:105C0400E43AFAEF248AFFE43E90140CF0A3EFF098
:105C1400A374FCF0A37407025E79901405E075F098
:105C240032A4FBAAF02418FFE43AFEC006C0079091
:105C34001404E075F032A4FFAEF02460FDE43EFCF1
:105C4400EB2442FBE43AFAEF248AFFE43E90140C7E
:105C5400F0A3EFF0A37407F0A374E0025E7990144C
:105C640005E075F032A4FBAAF02418FFE43AFEC064
:105C740006C007901404E075F032A4FFAEF024606F
:105C8400FDE43EFCEB2442FBE43AFAEF248AFFE411
:105C94003E90140CF0A3EFF0A37401F0A374CF02B0
:105CA4005E79901405E075F032A4FBAAF02418FF85
:105CB400E43AFEC006C007901404E075F032A4FF75
:105CC400AEF02460FDE43EFCEB2442FBE43AFAEF40
:105CD400248AFFE43E90140CF0A3EFF0A3E4F0A3B5
:105CE400741F025E79901405E075F032A4FBAAF0EB
:105CF4002418FFE43AFEC006C007901404E075F0CF
:105D040032A4FFAEF02460FDE43EFCEB2442FBE44D
:105D14003AFAEF248AFFE43E90140CF0A3EFF0A3C8
:105D240074F8F0A3E4025E79901405E075F032A4EF
:105D3400FBAAF02418FFE43AFEC006C0079014043E
:105D4400E075F032A4FFAEF02460FDE43EFCEB24E9
:105D540042FBE43AFAEF248AFFE43E90140CF0A3E9
:105D6400EFF0A374F8F0A3741F025E79901405E0B9
:105D740075F032A4FBAAF02418FFE43AFEC006C072
:105D840007901404E075F032A4FFAEF02460FDE443
:105D94003EFCEB2442FBE43AFAEF248AFFE43E9013
:105DA400140CF0A3EFF0A374BCF0A37440025E796A
:105DB400901405E075F032A4FBAAF02418FFE43A2D
:105DC400FEC006C007901404E075F032A4FFAEF0E4
:105DD4002460FDE43EFCEB2442FBE43AFAEF248A1F
:105DE400FFE43E90140CF0A3EFF0A3742BF0A37423
:105DF40012025E79901405E075F032A4FBAAF02437
:105E040018FFE43AFEC006C007901404E075F032AF
:105E1400A4FFAEF02460FDE43EFCEB2442FBE43A34
:105E2400FAEF248AFFE43E90140CF0A3EFF0A3747D
:105E340084F0A37430803E901405E075F032A4FB26
:105E4400AAF02418FFE43AFEC006C007901404E048
:105E540075F032A4FFAEF02460FDE43EFCEB244276
:105E6400FBE43AFAEF248AFFE43E90140CF0A3EF2B
:105E7400F0E4A3F0A3F0D007D00612EB2D901409A0
:105E840074FFF0A374DBF0A37425F0901404E075A0
:105E9400F008A42491F582E43414F583C083C0820D
:105EA400901405E0D082D08375F002121AA9E0FFA5
:105EB400A3E090140CCFF0A3EFF07B017A1379EBFD
:105EC4001252767B017A1379EB12EE7FAD079014B0
:105ED40005E075F032A4242DFBE435F0FAED75F0FD
:105EE40004A4FFC3EB9FFFEA95F0FEC006C0079031
:105EF4001404E075F032A4246DFDE435F0FC7B015C
:105F04007A1379EB74FF90140DF0A3F0A374A6F048
:105F1400A37451F0A37410F0A37401F0D007D00659
:105F240012D3D38049901405E075F032A4FBAAF093
:105F34002418FFE43AFEC006C007901404E075F08C
:105F440032A4FFAEF02460FDE43EFCEB2442FBE40B
:105F54003AFAEF248AFFE43E90140CF0A3EFF0A386
:105F640074A6F0A37451F0D007D00612EB2D901450
:105F740005E004F0025B2C901404E004F0025B19C9
:015F840022FA
:10A3BE007F187EC612E18A7BFF7A71796F9013EF58
:10A3CE00E4F0A37438F0A3E4F0A37408F0A374FCD3
:10A3DE00F0A37407F074FFA3F0A3F0A37401F07F51
:10A3EE00041248C69013F17401F0A37425F0E4A38F
:10A3FE00F0A3F07BDDFA7D5BFC7F13FE12BE709046
:10A40E00140C7401F0A37424F0A374A6F0A3745179
:10A41E00F07BDC7A007D5C7C007F147E0012EB2DDD
:10A42E007BFF7ADB7928E490140DF0A3F0A374C6B9
:10A43E00F0A37418F0A37410F0A37401F07D327CB5
:10A44E00007F147E0012D3D37BFF7ADB792FE4904A
:10A45E00140DF0A3F0A374C6F0A37418F0A3741037
:10A46E00F0A37401F07D447C007F147E0012D3D3E0
:10A47E00E49013E9F09013E9E0FFC394057480941F
:10A48E00805059EF75F032A4245CFDE435F0FC9059
:10A49E0013FBF0A3EDF0A37454F0A37458F07BDC1F
:10A4AE007A007F147E001296789013E9E075F032F0
:10A4BE00A42414FFE435F0FEAB07FA9013FB7401ED
:10A4CE00F0A37424F0A37454F0A37458F07D5C7C54
:10A4DE00001296789013E9E004F08099E49013E965
:10A4EE00F09013E9E0C39404748094805066E4A362
:10A4FE00F09013EAE0FFC3940474809480504DEF03
:10A50E0075F032A4FBAAF02417FFE43AFEC006C091
:10A51E00079013E9E075F032A4FFAEF0245FFDE47E
:10A52E003EFCEB2443FBE43AFAEF248BFFE43E902F
:10A53E0013F1F0A3EFF0A3747DF0A314F0D007D0C5
:10A54E000612BE709013EAE004F080A59013E9E0C5
:10A55E0004F0808D12C51E12CF9B125B1402E322F3
:10BAB000E49013E9F0EF249F607024FE603414607A
:10BAC0007624F2602214700302BB5124FC607524BA
:10BAD00006600302BB6112F02C9000057402F012A4
:10BAE000C2C612A56E807A12EA4412CF9B125B1472
:10BAF000803390148EE06404701404F0901490E08D
:10BB000025E0F090148FE033F012C2C68017901435
:10BB10008EE0FF64036005EF6402700912EA4412CC
:10BB2000CF9B125B1412E322803790148EE06401E5
:10BB3000702F126A5A802590148EE06401702212D0
:10BB40006DE5801890148EE0640170151274EF801A
:10BB50000B90148EE0640170081278609013E9EF86
:10BB6000F09013E9E0603D12C8DB12B69AEF600670
:10BB700090148E7403F090148CE0FEA3E0FF9014F8
:10BB80008AE0FCA3E0FDD39FEE6480F8EC6480982B
:10BB90004006A3ECF0A3EDF012C2C612CF9B125BDD
:04BBA0001412E32276
:01BBA400227E
:10C76100900003E0FF900002E0FEC39F400302C877
:10C771001AEE25E024ADF582E4340FF583E070383C
:10C78100900002E025E024ACF582E4340FF583E06B
:10C7910024F4601E24FE601C24FA60121460171435
:10C7A100600E24FD6006240870688048804A804C31
:10C7B100804E805080538055900002E0FF25E02498
:10C7C100ADF582E4340FF583E064017045EF25E0B7
:10C7D10024ACF582E4340FF583E0603124DD602977
:10C7E10024F9602024FD601424FE600C24B760103D
:10C7F100244D701E7F7780177F7380137F61800FB8
:10C801007F64800B7F7102BAB07F7280027F6312F6
:0DC81100BAB0900002E004F02212F02C22D8
:10CEFA006D656469756D0020736C6F77200020661C
:10CF0A00617374200025386400202020202020200E
:10CF1A00202020596F752057696E2021202020205B
:10CF2A0020202020200020202020202020202047F0
:10CF3A00616D65204F7665722021202020202020F7
:10CF4A002020002020202020202020202020506186
:10CF5A0075736520202020202020202020202000FA
:10CF6A0020202020202020202020204E6F726D615A
:10CF7A006C202020202020202020202000426573C1
:10CF8A0074203A0053636F72653A005370656564A2
:01CF9A000096
:04C9B80041155600CF
:0B000E009013ECEBF0A3EAF0A3E9F084
:10001900A3E0F9A3E0FAA3E0A3C980719013F2E089
:10002900FBA3E0FAA3E0F9EA494B606A121749FF1A
:10003900AEF09013ECE0FBA3E0FAA3E0F912174944
:10004900B50735E5F0B506309013F2E0FBA3E0FA09
:10005900A3E0F9900002121774FFAEF09013ECE0E0
:10006900FBA3E0FAA3E0F9900002121774B50708A0
:10007900E5F0B506037F01229013F2E0FBA3E0FA55
:10008900A3E0F9900007121AD59013F2EBF0A3EA56
:08009900F0A3E9F080867F006E
:0100A100223C
:108F610090155EE4F0A37402F07F0A7E0012C1F551
:108F7100AA06A9079015647401F0A3EAF0A3E9F029
:108F81007B007A007900C003C002C001901564E043
:108F9100FBA3E0FAA3E0F9900004121B0512E36FB2
:108FA1007C007D0A1216E7ED2405FFE43CF99015DB
:108FB10064E0FBA3E0FAA3E0C98FF01217E412E327
:108FC1006F7C007D0A1216E7ED2405FFE43CFE905C
:108FD1001564E0FBA3E0FAA3E0F9900002EE8FF044
:108FE1001218037F0A7E0012C1F5AA06A907901381
:108FF100EC7401F0A3EAF0A3E9F0901564E0FBA39F
:10900100E0FAA3E0F9C003C002C0019013ECE0FB59
:10901100A3E0FAA3E0F9900004121B057B007A009B
:109021007900C003C002C0019013ECE0FBA3E0FA99
:10903100A3E0F9900007121B0512E36F7C007D0489
:109041001216E7EC6003029194ED14605214700360
:109051000290F2147003029141240360030291947F
:10906100E490155DF0901564E0FBA3E0FAA3E0F94C
:10907100121749FF9013ECE0FBA3E0FAA3E0F9E536
:10908100F08FF01217E4901564E0FBA3E0FAA3E07F
:10909100F99000021217742401FFE435F0803F902B
:1090A100155D7401F0901564E0FBA3E0FAA3E0F90B
:1090B100121749FF9013ECE0FBA3E0FAA3E0F9E5F6
:1090C100F08FF01217E4901564E0FBA3E0FAA3E03F
:1090D100F990000212177424FFFFE5F034FFFE90AF
:1090E10013ECE0FBA3E0FAA3E0F9900002EE029199
:1090F1008F90155D7402F0901564E0FBA3E0FAA374
:10910100E0F91217492401FFE435F0F99013ECE07E
:10911100FBA3E0FAA3E0C98FF01217E4901564E015
:10912100FBA3E0FAA3E0F9900002121774FF901379
:10913100ECE0FBA3E0FAA3E0F9900002E5F0804E39
:1091410090155D7403F0901564E0FBA3E0FAA3E0D1
:10915100F912174924FFFFE5F034FFF99013ECE011
:10916100FBA3E0FAA3E0C98FF01217E4901564E0C5
:10917100FBA3E0FAA3E0F9900002121774FF901329
:10918100ECE0FBA3E0FAA3E0F9900002E5F08FF038
:109191001218039013ECE0FBA3E0FAA3E0F9C0037B
:1091A100C002C001901564E0FBA3E0FAA3E0F990CE
:1091B1000007121B059013ECE0F9A3E0FAA3E0907D
:0A91C1001567C9F0A3EAF0A3E9F076
:0191CB002281
:10E5B90012E36F7C007D141216E7901560ECF0A34E
:10E5C900EDF012E36F7C007D141216E7901562ECF2
:10E5D900F0A3EDF0A3E0F9A3E0FAA3E09013EFC9EB
:10E5E900F0A3EAF0A3E9F07B017A15796012000E35
:04E5F900EF70BD22E0
:10D4FC00D390155FE0940390155EE0940040369055
:10D50C001564E0FBA3E0FAA3E0F9900007121AD52A
:10D51C00900007121AD59013EFEBF0A3EAF0A3E9F1
:10D52C00F0901564E0FBA3E0FAA3E0F912000EEF13
:10D53C0060037F0122901564E0FBA3E0FAA3E0F9FD
:10D54C00121749FFAEF0C3EE64809480400BD3EF0A
:10D55C009413EE6480948040037F012290000212A9
:10D56C001774FFAEF0C3EE64809480400BD3EF943D
:0ED57C0013EE6480948040037F01227F002222
:10DFD70090155CE0601824FE602504704A7BFF7A88
:10DFE700CE79FA90140D74BCF0A3744080207BFFA7
:10DFF7007ACF790190140D74FFF0A374E0800F7B42
:10E00700FF7ACF790890140D74FCF0A37407F0A37E
:10E0170074A6F0A37451F0A37410F0E4A3F07D4349
:08E02700FC7FA5FE12D3D322F9
:10D0370090140974FFF0A374CFF0A3740FF0901548
:10D0470059E0FFA3E090140CCFF0A3EFF07B017A37
:10D057001379EC1252767B017A1379EC90140D74E4
:10D067002BF0A37412F0A374C6F0A37418F0A37482
:10D0770010F0E4A3F07D32FC7F44FE12D3D390146A
:10D087000974FFF0A374CFF0A3740FF0901557E065
:10D09700FFA3E090140CCFF0A3EFF07B017A137994
:10D0A700EC1252767B017A1379EC90140D742BF005
:10D0B700A37412F0A374C6F0A37418F0A37410F04D
:0CD0C700E4A3F07D44FC7F44FE02D3D3C0
:10DF7D0090155BE014602914601614600B14704941
:10DF8D007BFF7ACF7913800E7BFF7ACF79308006B5
:10DF9D007BFF7ACF794D90140D74F8F0A3E4800FC8
:10DFAD007BFF7ACF796A90140D74BCF0A37440F0A6
:10DFBD00A374C6F0A37418F0A3740CF0E4A3F07D61
:0ADFCD002C7C017F24FE12D3D32226
:08CDB300E0FBA3E0FAA3E0F9A4
:10CDBB009013EFECF0A3EDF09013ECEBF0A3EAF093
:10CDCB00A3E9F0121749FFAEF07C007D0A12168022
:10CDDB00EF2415FFE43EFEC006C0079000021217B9
:10CDEB0074FFAEF0121680EF245DFDE43EFCC00430
:10CDFB00C005121749FFAEF07C007D0A121680EFBA
:10CE0B00241DFBE43EFAC002C0039013ECE0FBA32D
:10CE1B00E0FAA3E0F9900002121774FFAEF01216BD
:10CE2B0080EF2465FFE43E90140CF0A3EFF0901319
:10CE3B00EFE0FFA3E090140ECFF0A3EFF0D003D000
:0CCE4B0002D005D004D007D00602EB2D69
:109A8400901564E0FBA3E0FAA3E0F9900007121A32
:109A9400D59013EBEBF0A3EAF0A3E9F0901560E0A6
:109AA400FEA3E0FF7C007D0A121680AA06AB07EB3A
:109AB4002415FFE43AFEC006C007A3E0FEA3E0FFBE
:109AC400121680EF245DFDE43EFCEB241DFBE43A1A
:109AD400FAEF2465FFE43E90140CF0A3EFF0A374B6
:109AE40007F0A374E0F0D007D00612EB2D901564B4
:109AF400E0FBA3E0FAA3E0F9121749FFAEF0C3EECE
:109B0400648094805003029BBAEF9414EE648094B2
:109B1400804003029BBA900002121774FFAEF0C398
:109B2400EE648094805003029BBAEF9414EE648038
:109B340094804003029BBA121749FFAEF07C007D6B
:109B44000A121680EF2415FFE43EFEC006C00790FB
:109B54000002121774FFAEF0121680EF245DFDE4CC
:109B64003EFCC004C005121749FFAEF07C007D0A1C
:109B7400121680EF241DFBE43EFAC002C0039015C8
:109B840064E0FBA3E0FA900002121774FFAEF01237
:109B94001680EF2465FFE43E90140CF0A3EFF0A3CD
:109BA4007401F0A374CFF0D003D002D005D004D058
:109BB40007D00612EB2D9013EBE0FBA3E0FAA3E031
:109BC400F9EA494B7003029C6B121749FFAEF07C13
:109BD400007D0A121680EF2415FFE43EFEC006C085
:109BE40007900002121774FFAEF0121680EF245D86
:109BF400FDE43EFCC004C005121749FFAEF07C0032
:109C04007D0A121680EF241DFBE43EFAC002C00355
:109C14009013EBE0FBA3E0FA900002121774FFAE7E
:109C2400F0121680EF2465FFE43E90140CF0A3EFCD
:109C3400F0A37454F0A37458F0D003D002D005D02C
:109C440004D007D00612EB2D9013EBE0FBA3E0FA4F
:109C5400A3E0F9900007121AD59013EBEBF0A3EAF6
:079C6400F0A3E9F0029BBA36
:019C6B0022D6
:107EF700900005E0640260030281FF90155BE06477
:107F07000160030281FF7F0AFE12C1F5AA06A907D5
:107F17009013E97401F0A3EAF0A3E9F07B007A007B
:107F27007900C003C002C0019013E9E0FBA3E0FAA7
:107F3700A3E0F9900004121B0590155DE014604E54
:107F4700147003027FE014700302802A2403600385
:107F5700028076901564E0FBA3E0FAA3E0F912171C
:107F670049FF9013E9E0FBA3E0FAA3E0F9E5F08FFE
:107F7700F01217E4901564E0FBA3E0FAA3E0F99090
:107F8700000212177424FFFFE5F034FF80389015C4
:107F970064E0FBA3E0FAA3E0F9121749FF9013E9A5
:107FA700E0FBA3E0FAA3E0F9E5F08FF01217E49005
:107FB7001564E0FBA3E0FAA3E0F99000021217743E
:107FC7002401FFE435F0FE9013E9E0FBA3E0FAA3F8
:107FD700E0F9900002EE028071901564E0FBA3E0E7
:107FE700FAA3E0F912174924FFFFE5F034FFF990EF
:107FF70013E9E0FBA3E0FAA3E0C98FF01217E490BE
:108007001564E0FBA3E0FAA3E0F9900002121774ED
:10801700FF9013E9E0FBA3E0FAA3E0F9900002E583
:10802700F08047901564E0FBA3E0FAA3E0F912178C
:10803700492401FFE435F0F99013E9E0FBA3E0FAE6
:10804700A3E0C98FF01217E4901564E0FBA3E0FAF0
:10805700A3E0F9900002121774FF9013E9E0FBA365
:10806700E0FAA3E0F9900002E5F08FF01218039010
:1080770013E9E0FBA3E0FAA3E0F9C003C002C001E3
:10808700901564E0FBA3E0FAA3E0F9900004121B4B
:1080970005901564E0FBA3E0FAA3E0F9C003C00272
:1080A700C0019013E9E0FBA3E0FAA3E0F990000711
:1080B700121B059013E9E0F9A3E0FAA3E090156419
:1080C700C9F0A3EAF0A3E9F09013E9E0FBA3A3E06A
:1080D700F9121749FF901560E065F07003A3E06F90
:1080E7007079900002121774FF901562E065F070C6
:1080F70003A3E06F706590155E75F00112171DAF51
:10810700F0FEBE010EBF900B90155B7404F012DFFA
:108117007D801012E5B97B017A1579607DE07C07D7
:1081270012CDBB901558E0240AF0901557E03400A3
:10813700F0901559E0FEA3E0FF901557E0FCA3E08F
:10814700FDD39FEE6480F8EC6480984009A3ECF0BF
:10815700A3EDF012C2C612D037806C9015677D511F
:108167007CA612CDB3901567E0F9A3E0FAA3E090DF
:1081770013E9C9F0A3EAF0A3E9F07B007A007900DC
:10818700C003C002C001901567E0FBA3E0FAA3E0BB
:10819700F9900004121AD5900007121B0590156775
:1081A700E0FBA3E0FAA3E0F9900004121AD59015BA
:1081B70067EBF0A3EAF0A3E9F09013E9A3E0FAA3D1
:1081C700E0AE02FF12AF84901564E0FBA3E0FAA3D0
:1081D700E0F9900007121AD57D587C5412CDBB12D6
:1081E700D4FCEF600990155B7403F002DF7D9015F6
:0881F700647DCF7C0112CDB3C1
:0181FF00225D
:10D33B0080749013E9E0FBA3E0FAA3E0F9EA494B10
:10D34B00607C121749FFAEF0C3EE64809480402CD2
:10D35B00EF9414EE648094805022900002121774A4
:10D36B00FFAEF0C3EE648094804011EF9414EE6432
:10D37B0080948050077D517CA612CDBB901564E044
:10D38B00FBA3E0FAA3E0F9900007121AD5901564FD
:10D39B00EBF0A3EAF0A3E9F09013E9A3E0FAA3E022
:10D3AB00AE02FF12AF84901564E0F9A3E0FAA3E09C
:10D3BB009013E9C9F0A3EAF0A3E9F002D33D90156D
:07D3CB0067E4F0A3F0A3F0FA
:01D3D2002238
:0DEFB4007B017A1579607D517CA602CDBBF2
:10E02F00E49013EBF0901557F0A3F090155B74028A
:10E03F00F0128F6112E5B9C3901559E06480948096
:10E04F005009E4F0A3F09013EB04F090155CE0FF9F
:10E05F007E00C374809480400AD3EF94037480943D
:10E06F0080400A90155C7401F09013EBF09013EB65
:06E07F00E0600312C2C6BE
:01E085002278
:10EBE100E4901557F0A3F012D33B128F6112EFB4EA
:10EBF10012E5B990155B7401F012D037129A8402B4
:02EC0100DF7DB5
:10A56E007F187EC612E18A7BFF7A73796F9013EFA4
:10A57E00E4F0A37448F0A3E4F0A37408F0A3E4F0AD
:10A58E00A3741FF074FFA3F0A3F0A37401F07F0374
:10A59E001248C69013F17401F0A37425F0E4A3F0F1
:10A5AE00A3F07BDDFA7D5BFC7F13FE12BE70901470
:10A5BE000C7401F0A37424F0A374A6F0A37451F0EC
:10A5CE007BDC7A007D5C7C007F147E0012EB2D7BA1
:10A5DE00FF7ACF7987E490140DF0A3F0A374C6F040
:10A5EE00A37418F0A37410F0A37401F07D327C00F4
:10A5FE007F147E0012D3D37BFF7ACF798EE4901432
:10A60E000DF0A3F0A374C6F0A37418F0A37410F0A9
:10A61E00A37401F07D447C007F147E0012D3D3908E
:10A62E00140CE4F0A37454F0A374A6F0A37451F0C8
:10A63E007BDC7A007D327C007F9E7E0012EB2D90BB
:10A64E0013FBE4F0A37441F0A37484F0A37430F010
:10A65E007BD87A007D417C007FA27E001296787BAB
:10A66E00FF7ACF7995E490140DF0A3F0A374A6F0C1
:10A67E00A37451F0A3740CF0A37401F07D347C002C
:10A68E007FAE7E0012D3D3E49013EAF09013EAE08B
:10A69E00FFC39415748094805057EF75F00AA4246C
:10A6AE005CFDE435F0FC9013FBF0A3EDF0A3747D9C
:10A6BE00F0A314F07BDC7A007F147E001296789063
:10A6CE0013EAE075F00AA42414FFE435F0FEAB079C
:10A6DE00FA9013FB7401F0A37424F0A3747DF0A31D
:10A6EE0014F07D5C7C001296789013EAE004F08002
:10A6FE009B12E02F12DFD712D037129A8402DF7D21
:10B9BA00EF121B5EBA9600BA9C01BAA302B9F561EE
:10B9CA00BA6C63BA1464B9E071B9F272BA4F73BA55
:10B9DA0033770000BAAF12D33B12F02C90000574F3
:10B9EA0001F012C2C602A3BE02BA9390155BE064CC
:10B9FA0001600302BAAF90155DE06007640160035D
:10BA0A0002BAAF90155D7402F02290155BE06401F2
:10BA1A00600302BAAF90155DE0600764016003023B
:10BA2A00BAAF90155D7403F02290155BE064017063
:10BA3A007490155DE0FF64026005EF64037066E4CC
:10BA4A0090155DF02290155BE06401705890155DC9
:10BA5A00E0FF64026005EF6403704A90155D7401AB
:10BA6A00F02290155BE0640170047402800990155D
:10BA7A005BE06402700504F002DF7D90155BE0FF75
:10BA8A0064046005EF6403701C02EBE1E490155C4A
:10BA9A00800C90155C7401800590155C7402F0129C
:06BAAA00DFD712C2C62224
:10BF5600900003E0FF900002E0FEC39F400302C092
:10BF660037EE25E024ADF582E4340FF583E0704921
:10BF7600900002E025E024ACF582E4340FF583E07E
:10BF8600121B5EBFB904BFBB05BFBD06BFB30CBF66
:10BF9600B50EBFAB11BFAF14BFB715BFB116BFAD5E
:10BFA600190000C0308059805B805D805F806180B1
:10BFB6006480668068806A806C900002E0FF25E0FD
:10BFC60024ADF582E4340FF583E06401705CEF255F
:10BFD600E024ACF582E4340FF583E0121B5EC01F4B
:10BFE60000C02304C02705C02B06C01B23C0162A89
:10BFF600C0062BC00E2DC00A2FC012780000C0301C
:10C006007F7780237F73801F7F61801B7F6480170B
:10C016007F7102B9BA7F72800E7F63800AE4FF8067
:10C02600067F0180027F0212B9BA900002E004F096
:05C036002212F02C2293
:10E28400900FABE06049E4F090155CE01460181462
:10E29400602624027039901556E004F0C3940A7481
:10E2A400809480402A8020901556E004F0C39406A0
:10E2B400748094804019800F901556E004F0C39444
:0FE2C40003748094804008E4F012BF56127EF776
:01E2D3002228
:04F0AA007F03DFFE03
:01F0AE00223F
:04F0AF007F12DFFEEF
:01F0B300223A
:04F0B4007F26DFFED6
:01F0B8002235
:04F0B9007FC6DFFE31
:01F0BD002230
:09F03600007F027E5ADEFEDFFCC1
:01F03F0022AE
:09F04000007F207E28DEFEDFFCCB
:01F0490022A4
:10EF0200AD07AC0612F040ED1D70011C144C70F4FC
:01EF120022DC
:07C9BC0044179E016E3600D6
:10EA1400E4F593F594F591F592F595F596F5B1F540
:10EA2400B2F5B3F5B4F5C9F5CAF5CBF5CCF5E1F516
:10EA3400E275FF5012F07B12ED9B12EC03C2C1226F
:10ED6900C28CD2A95389FC5389FB538FFE438E80F1
:09ED7900758CA2758A40D28C222F
:10ED8200C28ED2AB5389CF5389BF538FFD438E407E
:09ED9200758DD1758B20D28E2203
:10EE1500538EE343AF04538FFB438E0475D6E875D9
:06EE2500D790438E10227D
:10EE940053D1F043AF2043D10275D4ED75D540432F
:03EEA400D1082270
:10EEA70053D10F43AF4043D12075D2F675D3A0435A
:03EEB700D18022E5
:10EEBA000102040810204080000000FFFF0000004B
:02EECA00000046
:10ED9B0053B3EF43B41053B3F743B40853B3FB432C
:09EDAB00B404C2C4C2C3C2C222F6
:0DEFC100C2C312F0B4D2C312F0B4C2C32216
:05E682009013F2EFF01F
:10E68700E4A3F09013F3E0C3940874809480502AB5
:10E697009013F2E0548064807004D2C48002C2C434
:10E6A70012F0B4C2C212F0B4D2C212F0B49013F294
:0AE6B700E025E0F0A3E004F080C9C4
:01E6C1002236
:10E1DF009013EBEBF0A3EAF0A3E9F0A3ECF0A3EDBF
:01E1EF00F03F
:10E1F000E4A3F0A3F09013EEE0FEA3E0FFA3E0FCA5
:10E20000A3E0FDC39FEC9E50269013EBE0FBA3E040
:10E21000FAA3E0F98D828C8312161FFF12E682901A
:10E2200013F1E004F070CE9013F0E004F080C60229
:02E23000EFC13C
:10EC030078E97C137D017BFF7AEE79C27E007F0277
:10EC13001215E07B017A1379E97D027C0002E1DFC2
:10EC230078D37C177D017BFF7AEE79C47E007F0267
:10EC33001215E07B017A1779D37D027C0002E1DFB4
:10EC430078D57C177D017BFF7AEE79C67E007F0243
:10EC53001215E07B017A1779D57D027C0002E1DF92
:05E3BC009017CAEFF00C
:10E3C10078CB7C177D017BFF7AEE79C87E007F02D6
:10E3D1001215E09017CAE0FFD3940774809480402F
:10E3E1000BEF90EEB2939017CBF0800C9017CAE030
:10E3F10090EEBA939017CCF07B017A1779CB7D021E
:05E401007C0002E1DFD8
:10EC630078D77C177D017BFF7AEE79CA7E007F021D
:10EC73001215E07B017A1779D77D027C0002E1DF70
:08C9C3004117D9FE4117DA000B
:09F0720053B3FE43B401C2C022F5
:09F07B0053B3FE43B401D2C022DC
:10E086009017D9E0FF7E00647F7011A3E070047DD5
:10E096000180027D009017DAEDF08019EF64FE4EE4
:10E0A60070139017DAE0600D70047F0180027F0024
:10E0B6009017DAEFF09017D9E0FFF5E8A3E07008C3
:10E0C600EF25E04401FF80099017D9E0C31344808F
:06E0D600FF9017D9EFF0E6
:01E0DC002221
:03F0C30002EC4319
:0ED0D30090171CEFF0A3EBF0A3EAF0A3E9F036
:10D0E100C3740F9F901723F0AE02901720A3E0FAAC
:10D0F100A3E0C399FFEA9EFE90171CE0FDC37408EC
:10D101009DFDE49400FCD3EF9DEC6480F8EE648017
:10D11100985059901720E0FBA3E0FAA3E0F9C0036F
:10D12100C002C00190171DA3E0FAA3E0F9C3D082A9
:10D13100D083D0E0E99582EA95835030901723E0BF
:10D14100FF12E3BC90171DE0FBA3E0FAA3E0F91284
:10D151001606F5E812F04012EC63901723E014F084
:0CD1610090171EE475F00112171D80A746
:01D16D00229F
:0ED90500901744EBF0A3EAF0A3E9F0A3EDF0D5
:10D91300901749740FF0901749E0FFC3940874807F
:10D923009480405012E3BC901749E0FFC3740F9FEB
:10D93300FFE49400FE901748E07C002FFFEC3EFECE
:10D94300901747E0FD12169290174AEDF090174496
:10D95300E0FBA3E0FAA3E0F990174AE0F5827583B0
:10D963000012161FF5E812F04012EC63901749E01D
:04D9730014F080A28A
:01D97700228D
:10C9CB005215B8C0F9A4B0999282F880908883C6AA
:05C9DB00A1868EBFFFE4
:10ECC10012EC23E4F5CB75CCFF75E8FF53937F433A
:0DECD1009480D2875395FD439602D2A12274
:06A0320090168B121A6C5F
:10A0380090168F7406F090168BE0FCEC3390169710
:10A0480040057411F0801A7410F090168BE0FCA390
:10A05800E0FDA3E0FEA3E0FF12194D90168B121A43
:10A068006CE47B0AFAF9F890168BE0FCA3E0FDA3F8
:10A07800E0FEA3E0FF12E5FD901690EBF0E47B0A0A
:10A08800FAF9F890168BE0FCA3E0FDA3E0FEA3E04C
:10A09800FF12E5FDE47B0AFAF9F812E5FD90169146
:10A0A800EBF0E47B64FAF9F890168BE0FCA3E0FD92
:10A0B800A3E0FEA3E0FF12E5FDE47B0AFAF9F8123B
:10A0C800E5FD901692EBF0E47BE87A03F9F8901638
:10A0D8008BE0FCA3E0FDA3E0FEA3E0FF12E5FDE4B6
:10A0E8007B0AFAF9F812E5FD901693EBF0E47B1081
:10A0F8007A27F9F890168BE0FCA3E0FDA3E0FEA315
:10A10800E0FF12E5FDE47B0AFAF9F812E5FD901686
:10A1180094EBF07BA07A867901780090168BE0FCAE
:10A12800A3E0FDA3E0FEA3E0FF12E5FDE47B0AFA4D
:10A13800F9F812E5FD901695EBF07B407A42790F1D
:10A14800780090168BE0FCA3E0FDA3E0FEA3E0FFFF
:10A1580012E5FDE47B0AFAF9F812E5FD901696EB94
:10A16800F090168FE0FF3395E0FE74902FF582741F
:10A17800163EF583E0701A90168FE014F0EF3395D1
:10A18800E0FE74902FF58274163EF5837411F0800A
:10A19800D090168BE0FCA3E0FDA3E0FEA3E0FFEC6B
:10A1A8004D4E4F7004901690F090168F7407F090F3
:10A1B800168FE0FF3395E0C364809480403512E346
:10A1C800BC90168FE0FF3395E0FE74902FF58274F3
:10A1D800163EF583E024B8F582E43415F583E0F5FE
:10A1E800E87F027E0012EF0212EC6390168FE014F3
:03A1F800F080BC38
:01A1FB002241
:0BDB3600901761EBF0A3EAF0A3E9F008
:10DB4100EFC39408748094805057C374089FFEA358
:10DB5100E0FDD39E504BC374089FC39DA3F0901763
:10DB610064E0FF14F0EF6039A3E0FF12E3BC90170B
:10DB710061E0FBA3E0FAA3E0F9A3E0F5827583007D
:10DB810012161F24B8F582E43415F583E0F5E87F19
:10DB9100027E0012EF0212EC63901765E004F08040
:01DBA100BDC6
:01DBA2002260
:10EF130000010200030000000400000000000000E4
:10C9E000411542FF511543002B0908072D06050488
:08C9F000780302012F23002A45
:10D46A00901555E0FC75F8F07E3CDEFEE5F854F0C8
:10D47A00901555F075F80F7E3CDEFE901555E0FECE
:10D48A00E5F8540FFDEE4DF0E0F4F06C7060901585
:10D49A0041E0FC901555E0901541F0604CC2D5EC86
:10D4AA007004D2D5801B901541E0B5041490155430
:10D4BA00E004F0C394147480948040057412F0D28E
:10D4CA00D530D52A901541E0FFC4540F90EF13933D
:10D4DA00FC601BEF540F93FF6014EC1425E025E069
:10D4EA00FEEF2E901542F08005E4901554F075F881
:01D4FA00FF32
:01D4FB00220E
:03F0C600256400BE
:10EE2B0075E8FFC293D290C291C291D291E5E820CE
:05EE3B00E7FBAFE82237
:10E77E009017EDEFF0C291D293C290F5E87F017E33
:10E78E000012EF02D2917F057E0012EF02C291902D
:10E79E0017EDE0C454F0F5E87F017E0012EF02D2CF
:0BE7AE00917F057E0012EF02C2912255
:10E7B9009017EEEFF0C291C293C290F5E87F017E07
:10E7C9000012EF02D2917F057E0012EF02C29190F2
:10E7D90017EEE0C454F0F5E87F017E0012EF02D293
:0BE7E900917F057E0012EF02C291221A
:0DEFCE00D293D290C291C291D291AFE822AD
:10DEC600E4F5E85391F74392085391FE43920153C8
:10DED60091FD439202F5CB75CCFF7F3812E7B97FEF
:10DEE600057E0012EF027F3812E7B97F057E001229
:10DEF600EF027F3812E7B97F057E0012EF027F320C
:10DF060012E7B97F2812E7B97F0C12E7B97F06122C
:0CDF1600E7B97F0112E7B97F8002E7B98C
:0CEFE8007F0112E7B97F027E0002EF02F9
:10EB9B009017EFEBF0ED5401FDEF540FFFED600418
:10EBAB00EF4440FFEF4480FF12E7B99017EFE0FF0F
:03EBBB0002E77EF0
:10DD420090174BEFF0A3EDF0A3EBF0A3EAF0A3E9F9
:01DD5200F0E0
:10DD530012EE7F901750EFF090174CE05401F090C3
:10DD6300174BE0540FF0E4901751F0901750E0FF79
:10DD7300A3E0FEC39F502B90174BE0FFA3E0FDA34E
:10DD8300E0FBA3E0FAA3E0F98E8275830012161F6D
:10DD9300FB12EB9B90174BE004F0901751E004F05B
:02DDA30080C935
:01DDA500225B
:0CE4060090156AEFF0A3EDF0AF03AE023A
:10E412007B017A15796C90157BEBF0A3EAF0A3E906
:10E42200F090140974FFF0A374F0F0A374C6F0A383
:10E43200EEF0A3EFF012527690156AE0FFA3E0FD32
:0EE4420090157BE0FBA3E0FAA3E0F902DD42B7
:0CEFF40090FE82E030E6F9E054BFF0220D
:10ED330043912043922043911043921043BA809011
:0BED4300FE8074E0F090FE82E4F022FD
:09F0840090FE817401F002EFF42A
:09F08D0090FE817406F002EFF41C
:0EEB770012F08412EF7C12EB85AF0512EF7CDA
:10EB850090FE817403F012EFF490FE82E030E10311
:06EB95007F01227F002237
:0EEF6E0090FE82E4F090FE817405F002EFF454
:0FEF230090FE827401F090FE817405F002EFF40D
:0EEF7C0090FE86EFF090FE817402F002EFF43A
:0FEF320090FE817404F012EFF490FE87E0FF224E
:10E8A200AE0712EB7712F084EE4401FF12EF7C12F6
:10E8B200EB8512EF32EF12164C740129F9E43AFAA1
:10E8C20090176BE06401600312EF6E90176BE01417
:09E8D200F070DF12EF2302F08D5B
:10E94A0090176EEBF0A3EAF0A3E9F012EB779017B9
:10E95A006EE0FBA3E475F001121733A9F0FA121660
:10E96A0006FF12EF7C12EB85901771E014F070DE4F
:03E97A0002F08D1B
:103ECE0025640000000000003E5B4F5B3E3E6B4FE2
:103EDE006B3E1C3E7C3E1C183C7E3C181C577D578E
:103EEE001C1C5E7F5E1C00183C1800FFE7C3E7FF3A
:103EFE000018241800FFE7DBE7FF30483A060E26CD
:103F0E0029792926407F050507407F05253F5A3C24
:103F1E00E73C5A7F3E1C1C08081C1C3E7F14227F67
:103F2E0022145F5F005F5F06097F017F006689953F
:103F3E006A606060606094A2FFA29408047E040828
:103F4E0010207E201008082A1C08081C2A08081EAB
:103F5E00101010100C1E0C1E0C30383E3830060E91
:103F6E003E0E06000000000000005F00000007008B
:103F7E000700147F147F14242A7F2A122313086447
:103F8E006236495620500008070300001C224100EB
:103F9E000041221C002A1C7F1C2A08083E0808002B
:103FAE0080703000080808080800006060002010CB
:103FBE000804023E5149453E00427F400072494985
:103FCE0049462141494D331814127F102745454566
:103FDE00393C4A4949314121110907364949493687
:103FEE00464949291E00001400000040340000001C
:103FFE00081422411414141414004122140802014E
:10400E005909063E415D594E7C1211127C7F494979
:10401E0049363E414141227F4141413E7F49494916
:10402E00417F090909013E414151737F0808087F0C
:10403E0000417F41002040413F017F081422417F13
:10404E00404040407F021C027F7F0408107F3E41AB
:10405E0041413E7F090909063E4151215E7F091902
:10406E002946264949493203017F01033F4040401A
:10407E003F1F2040201F3F4038403F631408146309
:10408E0003047804036159494D43007F41414102C5
:10409E0004081020004141417F0402010204404007
:1040AE00404040000307080020545478407F2844C5
:1040BE0044383844444428384444287F38545454AF
:1040CE001800087E090218A4A49C787F08040478BE
:1040DE0000447D40002040403D007F1028440000F9
:1040EE00417F40007C047804787C080404783844CE
:1040FE00444438FC1824241818242418FC7C080482
:10410E000408485454542404043F44243C404020A2
:10411E007C1C2040201C3C4030403C44281028444D
:10412E004C9090907C4464544C44000836410000FE
:10413E0000770000004136080002010204023C260E
:10414E0023263C1EA1A161123A4040207A385454D5
:10415E00555921555579412154547841215554785A
:10416E004020545579400C1E5272123955555559EE
:10417E00395454545939555454580000457C410013
:10418E0002457D420001457C40F0292429F0F028AB
:10419E002528F07C545545002054547C547C0A0943
:1041AE007F4932494949323248484832324A4848B2
:1041BE00303A4141217A3A42402078009DA0A07DBC
:1041CE0039444444393D4040403D3C24FF2424487A
:1041DE007E4943662B2FFC2F2BFF0929F620C08822
:1041EE007E090320545479410000447D41304848F3
:1041FE004A32384040227A007A0A0A727D0D19310D
:10420E007D2629292F28262929292630484D402068
:10421E00380808080808080808382F10C8ACBA2F44
:10422E00102834FA00007B000008142A14222214ED
:10423E002A1408AA005500AAAA55AA55AA000000D9
:10424E00FF00101010FF00141414FF001010FF00D8
:10425E00FF1010F010F0141414FC001414F700FFEB
:10426E000000FF00FF1414F404FC141417101F10A8
:10427E00101F101F1414141F00101010F000000057
:10428E00001F101010101F10101010F01000000062
:10429E00FF101010101010101010FF10000000FF73
:1042AE00140000FF00FF00001F10170000FC04F4B4
:1042BE0014141710171414F404F40000FF00F7146C
:1042CE00141414141414F700F714141417141010F3
:1042DE001F101F141414F4141010F010F000001F0F
:1042EE00101F0000001F14000000FC140000F0104E
:1042FE00F01010FF10FF141414FF141010101F00F4
:10430E00000000F010FFFFFFFFFFF0F0F0F0F0FFF5
:10431E00FFFF0000000000FFFF0F0F0F0F0F3844CC
:10432E004438447C2A2A3E147E02020606027E028D
:10433E007E0263554941633844443C04407E201E4E
:10434E002006027E020299A5E7A5991C2A492A1C7D
:10435E004C7201724C304A4D4D303048784830BC6A
:10436E00625A463D3E494949007E0101017E2A2A94
:10437E002A2A2A44445F444440514A444040444A15
:10438E0051400000FF0103E080FF000008086B6B46
:10439E00083612362436060F090F060000181800CC
:1043AE0000001010003040FF0101001F01011E002F
:0E43BE00191D1712003C3C3C3C0000000000A2
:10EA96009017F0EFF012F0847F7812EF7C12EB857E
:10EAA600E4FF12EF7C12EB859017F0E0FF12EF7C8B
:06EAB60012EB8502F08D59
:10EABC009017F1EFF012F0847F7812EF7C12EB8557
:10EACC007F4012EF7C12EB859017F1E0FF12EF7C88
:06EADC0012EB8502F08D33
:05ED4E0024B0FFE4FD0C
:10ED53009017F2EFF0ED6005E0FF02EABC9017F2C6
:06ED6300E0FF12EA962217
:10EAE2009017F3EFF0ED12ED4E9017F3E054F0C4EF
:10EAF200540F4410FFE4FD12ED539017F3E0540F4E
:06EB0200FFE4FD02ED53EB
:10EE4000E4FD7F8D12ED53E4FD7F1412ED53E4FDDC
:05EE50007FAF02ED534D
:10EE5500E4FD7F8D12ED53E4FD7F1012ED53E4FDCB
:05EE65007FAE02ED5339
:10E7F400E4FFEFC3940474809480502DE4FEEEC3D0
:10E80400948074809480501E75F004EEA424DFF587
:10E8140082E5F03411F583E5822FF582E43583F542
:09E8240083E4F00E80D80F80C9D6
:01E82D0022C8
:10DBA300E49017DCF09017DCE0FFC39404748094D6
:10DBB300805057EF12ED4EE4FDFF12ED53E4FD7F6D
:10DBC3001012ED53E49017DBF09017DBE0FFC394E2
:10DBD3008074809480502BA3E0FE75F004EFA4249E
:10DBE300DFF582E5F03411F583E5822EF582E43525
:10DBF30083F583E0FF7D0112ED539017DBE004F022
:0ADC030080C79017DCE004F0809B5E
:01DC0D0022F4
:10E82E00E4FEEEC3940474809480502DE4FDEDC399
:10E83E00948074809480501E75F004EDA424DFF54E
:10E84E0082E5F03411F583E5822EF582E43583F509
:09E85E0083EFF00D80D80E80C993
:01E86700228E
:10CD08009016A8A3E0FF9016ACE075F00CA42F2BAA
:0FCD1800FF9016AAA3E09016ADFEE02EFD7B0162
:10CD2700EFD3948074809480400302CDB2ED9420B9
:10CD3700748094805075EB6037ED131313541FFE06
:10CD470075F004EFA424DFF582E5F03411F583E5EF
:10CD5700822EF582E43583F583C083C082E0FFED40
:10CD67005407FEF87401088002C333D8FC4F80369D
:10CD7700ED131313541FFE75F004EFA424DFF5829F
:10CD8700E5F03411F583E5822EF582E43583F583EA
:10CD9700C083C082E0FFED5407FEF87401088002EB
:0CCDA700C333D8FCF45FD082D083F022AC
:0DBC99009017A3EDF0A3EBF09017A2EFF0D1
:10BCA6003395E0C3648094805077E4FCECC394053C
:10BCB60074809480400302BD849017A4E075F0055B
:10BCC600A424D1F582E5F0343EF583E5822CF58295
:10BCD600E43583F583E4939017A5F0E4F9E9FF7E54
:10BCE60000C394087480948050349017A2E0FDFB42
:10BCF6003395E0FAEB2FEE3AC364809480401590BA
:10BD060017A5E030E00EED2CFF9017A3E029FD7B90
:10BD16000112CD279017A5E0C313F00980BF0C8050
:10BD26008BE4FCECC394057480948050519017A466
:10BD3600E075F005A424D1F582E5F0343EF583E5FF
:10BD4600822CF582E43583F583E4939017A5F0E41D
:10BD5600F9E9C394087480948050209017A5E030C8
:10BD6600E00F9017A2E02CFFA3E029FD7B0112CD86
:0EBD7600279017A5E0C313F00980D60C80A516
:01BD8400229C
:10DE0A00901772EFF0A3EDF0A3EBF0A3EAF0A3E909
:01DE1A00F017
:10DE1B00E4A3F0901774E0FBA3E0FAA3E0F9A3E00E
:10DE2B00F58275830012161FFB6032901772E0FFAC
:10DE3B00A3E0FD12BC99901772E02408F0E0FF33C9
:10DE4B0095E0FED3EF9478EE648094804007E4F085
:0DDE5B00A3E02402F0901777E004F080B6F9
:01DE68002297
:0CE86800901600EFF0A3EDF0AF03AE023D
:10E8740090140974FFF0A3743EF0A374CEF0A3EED9
:10E88400F0A3EFF07B017A1679021252769016000B
:0EE89400E0FFA3E0FD7B017A16790202DE0AA6
:0E91CC009016A4EFF0A3EBF0A3EAF0A3E9F0F5
:1091DA00A3E0FEA3E0FFC3EE648094804003029301
:1091EA0029C3E49FFFE49EFE7C007D0C1216E790E3
:1091FA0016ACEFF09016A4E0FF9016ACE0C39F40C7
:10920A0003029431E4A3F09016ADE0C3940C748089
:10921A0094804003029320E4A3F09016AEE0FD7C14
:10922A0000C3940C7480948040030293179016AC88
:10923A00E075F00CA42DFFEC35F0FE9016A8E0FCCA
:10924A00A3E0FD2FFFEC3ECF24F4CF34FFFED3EF93
:10925A00947FEE6480948040030294319016ADE0CE
:10926A00FF9016ABE02FFF9016AAE03400CF24F44B
:10927A00CF34FFFED3EF943FEE6480948040030224
:10928A0094319016ACE0F975F00CA4FFED2FFFECC9
:10929A0035F0FE9016AEE0FD7A002FEA3EC36480F8
:1092AA00948050028001C3405B9016ADE075F002D5
:1092BA00A4FBAAF0E975F018A42BFFE5F03AFEED3D
:1092CA00131313541F7C002FFFEC3EFE9016A5E0EB
:1092DA00FBA3E0FAA3E0F98F828E8312161FFD909A
:1092EA0016AEE0FB5407FF7E007480A807088006CC
:1092FA00CEA2E713CE13D8F8FFEE5CFEEF5D4E6008
:10930A000312CD089016AEE004F00292249016AD36
:10931A00E004F00292119016ACE004F00291FEE42F
:10932A009016ACF09016A4E0FF9016ACE0C39F40F4
:10933A0003029431E4A3F09016ADE0C3940C748058
:10934A0094804003029428E4A3F09016AEE0FD7CDA
:10935A0000C3940C74809480400302941F9016AC4E
:10936A00E075F00CA42DFFEC35F0FE9016A9E02F65
:10937A00FF9016A8E03ECF24F4CF34FFFED3EF943B
:10938A007FEE6480948040030294319016ADE0FF32
:10939A00FD9016ABE02DFD9016AAE03CCD24F4CD4D
:1093AA0034FFFCD3ED943FEC648094805079EF75E0
:1093BA00F002A4FDACF09016ACE075F018A42DFFF5
:1093CA00E5F03CFE9016AEE0131313541F7C002FF9
:1093DA00FFEC3EFE9016A5E0FBA3E0FAA3E0F98FAE
:1093EA00828E8312161FFD9016AEE0FB5407FF7E95
:1093FA00007480A807088006CEA2E713CE13D8F817
:10940A00FFEE5CFEEF5D4E600312CD089016AEE0F3
:10941A0004F00293549016ADE004F00293419016C2
:07942A00ACE004F002932EF8
:019431002218
:0E8CC7009016AFEFF0A3EBF0A3EAF0A3E9F0F4
:108CD500A3E0FEA3E0FFC3EE648094804003028E10
:108CE5003CC3E49FFFE49EFE7C007D101216E790D6
:108CF50016B7EFF09016AFE0FF9016B7E0C39F40B0
:108D050003028F60E4A3F09016B8E0C3941074805A
:108D150094804003028E33E4A3F09016B9E0FD7C05
:108D250000C39410748094804003028E2A9016B775
:108D3500E075F010A42DFFEC35F0FE9016B3E0FCC5
:108D4500A3E0FD2FFFEC3ECF24F0CF34FFFED3EFA1
:108D5500947FEE648094804003028F609016B8E0A3
:108D6500FF9016B6E02FFF9016B5E03400CF24F043
:108D7500CF34FFFED3EF943FEE648094804003022E
:108D85008F609016B7E0F975F010A4FFED2FFFEC9A
:108D950035F0FE9016B9E0FD7A002FEA3EC36480F7
:108DA500948050028001C340739016B8E075F002BC
:108DB500A4FBAAF0E975F020A42BFFE5F03AFEED3F
:108DC500131313541F7C002FFFEC3EFE9016B0E0EA
:108DD500FBA3E0FAA3E0F98F828E8312161FFD90A4
:108DE50016B9E0FB5407FF7E007480A807088006CB
:108DF500CEA2E713CE13D8F8FFEE5CFEEF5D4E6012
:108E05001B9016B3A3E0FF9016B7E0C454F02F2BC8
:108E1500FF9016B5A3E09016B812CD219016B9E0D3
:108E250004F0028D1F9016B8E004F0028D0C901628
:108E3500B7E004F0028CF9E49016B7F09016AFE0B5
:108E4500FF9016B7E0C39F4003028F60E4A3F09044
:108E550016B8E0C39410748094804003028F57E4E1
:108E6500A3F09016B9E0FD7C00C394107480948043
:108E75004003028F4E9016B7E075F010A42DFFEC5D
:108E850035F0FE9016B4E02FFF9016B3E03ECF24E8
:108E9500F0CF34FFFED3EF947FEE648094804003DF
:108EA500028F609016B8E0FFFD9016B6E02DFD909C
:108EB50016B5E03CCD24F0CD34FFFCD3ED943FEC6A
:108EC500648094804003028F60EF75F002A4FDACCE
:108ED500F09016B7E075F020A42DFFE5F03CFE906C
:108EE50016B9E0131313541F7C002FFFEC3EFE90C0
:108EF50016B0E0FBA3E0FAA3E0F98F828E83121689
:108F05001FFD9016B9E0FB5407FF7E007480A8078B
:108F1500088006CEA2E713CE13D8F8FFEE5CFEEF6D
:108F25005D4E601C9016B3A3E0FF9016B7E0C454E5
:108F3500F02F2BFF9016B5A3E0FE9016B812CD22A8
:108F45009016B9E004F0028E679016B8E004F002BE
:0B8F55008E549016B7E004F0028E412D
:018F600022EE
:0E8A2A009016BAEFF0A3EBF0A3EAF0A3E9F088
:108A3800A3E0FEA3E0FFC3EE648094804003028BB2
:108A4800A1C3E49FFFE49EFE7C007D181216E79008
:108A580016C2EFF09016BAE0FF9016C2E0C39F402E
:108A680003028CC6E4A3F09016C3E0C39418748084
:108A780094804003028B98E4A3F09016C4E0FD7C38
:108A880000C39418748094804003028B8F9016C2A0
:108A9800E075F018A42DFFEC35F0FE9016BEE0FC52
:108AA800A3E0FD2FFFEC3ECF24E8CF34FFFED3EF49
:108AB800947FEE648094804003028CC69016C3E0D5
:108AC800FF9016C1E02FFF9016C0E03400CF24E8D5
:108AD800CF34FFFED3EF943FEE64809480400302CE
:108AE8008CC69016C2E0F975F018A4FFED2FFFECC4
:108AF80035F0FE9016C4E0FD7A002FEA3EC364808C
:108B0800948050028001C340759016C3E075F0034D
:108B1800A4FBAAF0E975F048A42BFFE5F03AFEEDB6
:108B2800131313541F7C002FFFEC3EFE9016BBE07E
:108B3800FBA3E0FAA3E0F98F828E8312161FFD9043
:108B480016C4E0FB5407FF7E007480A8070880065F
:108B5800CEA2E713CE13D8F8FFEE5CFEEF5D4E60B1
:108B68001D9016BEA3E0FF9016C2E075F018A42F62
:108B78002BFF9016C0A3E0FE9016C312CD229016CC
:108B8800C4E004F0028A829016C3E004F0028A6FFF
:108B98009016C2E004F0028A5CE49016C2F09016C7
:108BA800BAE0FF9016C2E0C39F4003028CC6E4A35C
:108BB800F09016C3E0C39418748094804003028C2C
:108BC800BDE4A3F09016C4E0FD7C00C39418748043
:108BD80094804003028CB49016C2E075F018A42D5E
:108BE800FFEC35F0FE9016BFE02FFF9016BEE03E7A
:108BF800CF24E8CF34FFFED3EF947FEE64809480D7
:108C08004003028CC69016C3E0FFFD9016C1E02D0C
:108C1800FD9016C0E03CCD24E8CD34FFFCD3ED94A4
:108C28003FEC648094804003028CC6EF75F003A487
:108C3800FDACF09016C2E075F048A42DFFE5F03CBD
:108C4800FE9016C4E0131313541F7C002FFFEC3E54
:108C5800FE9016BBE0FBA3E0FAA3E0F98F828E83B7
:108C680012161FFD9016C4E0FB5407FF7E007480A7
:108C7800A807088006CEA2E713CE13D8F8FFEE5C4B
:108C8800FEEF5D4E601D9016BEA3E0FF9016C2E099
:108C980075F018A42F2BFF9016C0A3E0FE9016C302
:108CA80012CD229016C4E004F0028BCC9016C3E0DB
:0E8CB80004F0028BB99016C2E004F0028BA605
:018CC600228B
:0E8784009016C5EFF0A3EBF0A3EAF0A3E9F026
:10879200A3E0FEA3E0FFC3EE64809480400302895D
:1087A20000C3E49FFFE49EFE7C007D201216E7904A
:1087B20016CDEFF09016C5E0FF9016CDE0C39F40B6
:1087C20003028A29E4A3F09016CEE0C394207480B9
:1087D200948040030288F7E4A3F09016CFE0FD7C7A
:1087E20000C394207480948040030288EE9016CDDA
:1087F200E075F020A42DFFEC35F0FE9016C9E0FCE8
:10880200A3E0FD2FFFEC3ECF24E0CF34FFFED3EFF9
:10881200947FEE648094804003028A299016CEE011
:10882200FF9016CCE02FFF9016CBE03400CF24E06F
:10883200CF34FFFED3EF943FEE6480948040030276
:108842008A299016CDE0F975F020A4FFED2FFFECF8
:1088520035F0FE9016CFE0FD7A002FEA3EC3648029
:10886200948050028001C3407AED75F004A4FDACFF
:10887200F0E975F080A42DFFE5F03CFE9016CEE005
:10888200131313541F7C002FFFEC3EFE9016C6E01C
:10889200FBA3E0FAA3E0F98F828E8312161FFD90EC
:1088A20016CEE0FB5407FF7E007480A807088006FE
:1088B200CEA2E713CE13D8F8FFEE5CFEEF5D4E605A
:1088C200229016C9A3E0FF9016CDE0C43354E02FE6
:1088D200FF9016CFE02FFF9016CBA3E02BFD7B017C
:1088E20012CD279016CFE004F00287DC9016CEE07E
:1088F20004F00287C99016CDE004F00287B6E49036
:1089020016CDF09016C5E0FF9016CDE0C39F400350
:10891200028A29E4A3F09016CEE0C39420748094D6
:10892200804003028A20E4A3F09016CFE0FD7C0091
:10893200C39420748094804003028A179016CDE07D
:1089420075F020A42DFFEC35F0FE9016CAE02FFF43
:108952009016C9E03ECF24E0CF34FFFED3EF947FE0
:10896200EE648094804003028A299016CEE0FDFFD7
:108972009016CCE02FFF9016CBE03400CF24E0CF4E
:1089820034FFFED3EF943FEE648094804003028A6A
:10899200299016CFE075F004A4FBAAF09016CDE062
:1089A20075F080A42BFFE5F03AFEED131313541F6C
:1089B2002FFFEC3EFE9016C6E0FBA3E0FAA3E0F91F
:1089C2008F828E8312161FFD9016CEE0FB5407FF96
:1089D2007E007480A807088006CEA2E713CE13D8C3
:1089E200F8FFEE5CFEEF5D4E60229016C9A3E0FF39
:1089F2009016CDE0C43354E02FFF9016CFE02FFF46
:108A02009016CBA3E02BFD7B0112CD279016CFE071
:108A120004F002892B9016CEE004F0028918901619
:078A2200CDE004F00289051C
:018A2900222A
:0AD797009016EFEFF09016F1EBF0A2
:10D7A100E49016F6F0A3F09016F2E0131313541F51
:10D7B100F0540770028000AF05AE079016F2E0FF4B
:10D7C100EEC39F504C9016EFE0FF9016F1E0FDEF95
:10D7D100C39D503A9016F3E0FBA3E0FAA3E0F9A34E
:10D7E100E475F00112173385F082F58312161FFDDF
:10D7F10075F004EFA424DFF582E5F03411F583E53B
:10D80100822EF582E43583F583EDF00F80BC0E8026
:01D81100AA6C
:01D8120022F3
:10CBAF0012ED337F647E0012EF02E4FD7FAE12EDD3
:10CBBF0053E4FD7F4012ED53E4FD7FB012ED53E4DB
:10CBCF00FD7FC812ED53E4FD7F8112ED53E4FD7F2D
:10CBDF00FF12ED53E4FD7FA112ED53E4FD7FA6128A
:10CBEF00ED53E4FD7FA812ED53E4FD7F1F12ED53CB
:10CBFF00E4FD7FD312ED53E4FDFF12ED53E4FD7F0F
:10CC0F00D512ED53E4FD7FF012ED53E4FD7FD91201
:10CC1F00ED53E4FD7F2212ED53E4FD7FDA12ED5365
:10CC2F00E4FD7F0212ED53E4FD7FDB12ED53E4FDD3
:10CC3F007F4912ED53E4FD7F8D12ED53E4FD7F1418
:0DCC4F0012ED53E4FD7FAF12ED5302E7F448
:09F04A00007F027E3CDEFEDFFCCB
:01F05300229A
:0EEF8A00C2C67F147E0012EF02D2C602F04A09
:10DE6900E49017F4F030C6159017F4E0C394647485
:10DE79008094805008E004F012F0AA80E89017F42A
:10DE8900E0C394647480948040037F0122E4901776
:10DE9900F4F020C6159017F4E0C39464748094805C
:10DEA9005008E004F012F0AA80E89017F4E0C39457
:0CDEB900647480948040037F01227F008D
:01DEC500223A
:10E52D00E49017F5F030C6159017F5E0C3946474B8
:10E53D008094805008E004F012F0AA80E8E490176F
:10E54D00F5F020C6159017F5E0C39464748094809F
:10E55D005008E004F012F0AA80E812F04A30C60329
:05E56D007F01227F0088
:01E572002286
:10E8DB00E49017DEF09017DDF09017DDE0C394089D
:10E8EB0074809480501CA3E0FF25E0F0E0FEC0068E
:10E8FB0012E52DD0E04F9017DEF09017DDE004F01D
:07E90B0080D79017DEE0FF4A
:01E9120022E2
:0BCAFE009016F8EBF0A3EAF0A3E9F0BB
:10CB090012EF8A12DE69EF600302CBA9901700F0D9
:10CB1900901700E0C3940574809480501A12E8DBE2
:10CB2900901700E024FBF582E43416F583EFF090CA
:10CB39001700E004F080D99016FCE0FF9016FBE0A6
:10CB49002FFFE433FE9016FDE07C002FFFEC3EFE44
:10CB5900A3E02FFFEC3EFEA3E06F7001EE7044905E
:10CB690016FBE0FF9016F8E0FBA3E0FAA3E0F9EF6B
:10CB790012164C9016FCE0FF9016F8E0FBA3E0FAC1
:10CB8900A3E0F9900001EF12165E9016FDE0900007
:10CB99000212165E9016FEE090000312165E8003E4
:05CBA9007F01227F0066
:01CBAE002264
:0EEF980053B3BF53B4BFD2C612EF8A02DE6974
:10EECC007B017A1779A612CAFEEF70F49017A6E0B0
:01EEDC00FF36
:01EEDD002212
:10C81E007B017A17792412CAFEEF70F4901726E086
:10C82E00547FFCE412125C901728121A6C90172891
:10C83E00E0FCA3E0FDA3E0FEA3E0FFE4FBFA792019
:10C84E007841121033901728121A6C901728E0F8BE
:10C85E00A3E0F9A3E0FAA3E0FBC000C001C002C050
:10C86E0003901727E0FCE412125CD003D002D00133
:10C87E00D000120F42901728121A6C901728E0FC65
:10C88E00A3E0FDA3E0FEA3E0FFE4FBFA79207841EC
:10C89E0012113C901728121A6C901726E030E71EE2
:10C8AE00901728E0FCA3E0FDA3E0FEA3E0FFE4FB6D
:10C8BE00FA798078BF121033901728121A6C9017DD
:0CC8CE0028E0FCA3E0FDA3E0FEA3E0FFD7
:01C8DA00223B
:10277F0025640000000000000000000000000000C1
:10278F00000404040404040004000000140A0A00F6
:10279F0000000000000000000014143F140A3F0A5C
:1027AF000A000000041E1505060C14150F04000086
:1027BF000012150D0A142C2A1200000000040A0A38
:1027CF001E1515093600000002020100000000006E
:1027DF00000000002010080808080808102000005A
:1027EF000204080808080808040200000000041585
:1027FF000E0E150400000000000404041F0404045E
:10280F0000000000000000000000000002020100B4
:10281F00000000001F00000000000000000000008A
:10282F000000000002000000100808080404020263
:10283F0002010000000E1111111111110E00000004
:10284F0000040604040404040E000000000E11111D
:10285F00080402011F000000000E11100C101011CF
:10286F000E00000000080C0A0A091E0818000000DC
:10287F00001F01010F1010110E000000000E0901C2
:10288F000F1111110E000000001F090804040404A9
:10289F0004000000000E11110E1111110E000000A6
:1028AF00000E1111111E10120E0000000000000486
:1028BF000000000004000000000000000400000001
:1028CF000404000020100804020408102000000077
:1028DF000000001F00001F0000000000020408108D
:1028EF002010080402000000000E1111080404005B
:1028FF0004000000000E111915151D011E00000027
:10290F000004040C0A0A1E1233000000000F1212FA
:10291F000E1212120F000000001E11010101011111
:10292F000E000000000F1212121212120F00000000
:10293F00001F120A0E0A02121F000000001F120AC7
:10294F000E0A020207000000001C120101391112C9
:10295F000C000000003312121E121212330000007E
:10296F00001F0404040404041F000000003E0808B4
:10297F0008080808090700000037120A060A0A1299
:10298F003700000000070202020202223F0000008F
:10299F00001B1B1B1B15151515000000003B121605
:1029AF00161A1A1217000000000E11111111111131
:1029BF000E000000000F12120E02020207000000AC
:1029CF00000E1111111117190E180000000F12121D
:1029DF000E0A121237000000001E11010608101116
:1029EF000F000000001F1504040404040E00000073
:1029FF0000331212121212120C00000000331212C6
:102A0F000A0A0C0404000000001515150E0A0A0A24
:102A1F000A000000001B0A0A04040A0A1B00000037
:102A2F00001B0A0A040404040E000000001F09081A
:102A3F00040402121F0000001C0404040404040414
:102A4F00041C000002020204040808081000000021
:102A5F000E08080808080808080E0000040A0000FD
:102A6F000000000000000000000000000000000057
:102A7F0000003F0004000000000000000000000004
:102A8F00000000000C121C123C00000000030202A8
:102A9F000E1212120E000000000000001C120202A3
:102AAF001C000000001810101C1212123C00000035
:102ABF00000000000C121E021C000000003804046D
:102ACF001E0404041E000000000000003C120C0253
:102ADF001E221C00000302020E1212123700000009
:102AEF0000040000060404040E00000000080000AB
:102AFF000C08080808080700000302023A0A0E1221
:102B0F003700000000070404040404041F00000041
:102B1F00000000000F151515150000000000000043
:102B2F000F12121237000000000000000C121212D8
:102B3F000C000000000000000F1212120E0207001E
:102B4F00000000001C1212121C10380000000000C0
:102B5F001B06020207000000000000001E020C10FE
:102B6F001E000000000004040E04040418000000FE
:102B7F00000000001B1212123C00000000000000B9
:102B8F0037120A0C040000000000000015150E0A91
:102B9F000A000000000000001B0A040A1B000000CE
:102BAF000000000037120A0C0404030000000000AC
:102BBF001E0804041E00000018080808040808086E
:102BCF000818000808080808080808080808080076
:102BDF000604040408040404040600022518000077
:102BEF0000000000000000000000000000000000D6
:102BFF000000000000000000000008080808080896
:102C0F000800001818000000486C24120000000093
:102C1F00000000000000000000002424247F121296
:102C2F00127F12121200000000081C2A2A0A0C1828
:102C3F0028282A2A1C080800000022251515152A05
:102C4F00585454542200000000000C1212120A763D
:102C5F00252911916E0000000606040300000000F4
:102C6F0000000000000000004020101008080808B5
:102C7F00080810102040000002040808101010105F
:102C8F00101008080402000000000008086B1C1C4C
:102C9F006B08080000000000000000080808087F0B
:102CAF0008080808000000000000000000000000F5
:102CBF00000000060604030000000000000000FEF4
:102CCF0000000000000000000000000000000000F5
:102CDF000000000606000000008040402020101079
:102CEF000808040402020000000018244242424275
:102CFF0042424224180000000000080E080808088D
:102D0F00080808083E00000000003C424242202014
:102D1F00100804427E00000000003C4242201820B0
:102D2F00404042221C0000000000203028242422B2
:102D3F00227E20207800000000007E0202021A2668
:102D4F00404042221C0000000000382402021A26D4
:102D5F00424242241800000000007E222210100878
:102D6F00080808080800000000003C4242422418EE
:102D7F00244242423C0000000000182442424264B8
:102D8F00584040241C0000000000000000181800EC
:102D9F0000000018180000000000000000000800EC
:102DAF000000000008080400000040201008040282
:102DBF00040810204000000000000000007F000009
:102DCF00007F0000000000000000020408102040F7
:102DDF00201008040200000000003C424246402040
:102DEF00101000181800000000001C225A555555ED
:102DFF00552D42221C00000000000808181414244E
:102E0F003C224242E700000000001F2222221E2225
:102E1F00424242221F00000000007C424201010199
:102E2F00010142221C00000000001F2242424242C8
:102E3F00424242221F00000000003F4212121E12A7
:102E4F00120242423F00000000003F4212121E12C7
:102E5F00120202020700000000003C2222010101C1
:102E6F00712122221C0000000000E7424242427EF4
