:10CBD800410FA5004111A6004111A700420FA30073
:01CBE800004C
:10A3A300E49013B2F0A374FFF0E4A3F012E7DF121A
:10A3B300EB3112EC6FD2AF12EB9512EE5412987B85
:10A3C3007B017A1379AA12C3589013AEA3A3E0FEBC
:10A3D300A3E0FBAA069013AAA3A3E0FEA3E02BFF2E
:10A3E300EE3AFE12E17812EDC812D28612A7079058
:10A3F30015D1E0FF3395E0C364809480401AEF33B6
:10A4030095E0FE74D22FF58274153EF583E0901328
:10A41300B3F09015D174FFF0900FA5E06010E4F055
:10A4230012EDE9EF600812EE629013B2EFF09013B1
:10A43300B2E06055121B5EA47804A47C05A48006D8
:10A44300A46C0CA4700EA45C11A46414A47415A4CD
:10A453006816A460190000A4857F7780227F73802B
:10A463001E7F61801A7F6480167F7180127F7280E5
:10A473000E7F63800AE4FF80067F0180027F021261
:10A48300C0CEE49013B2F080679013B3E0FFFD33C6
:10A4930095E0FCEDF47002ECF46055EF121B5EA442
:10A4A300DC00A4E004A4E405A4E806A4D823A4D40F
:10A4B3002AA4C42BA4CC2DA4C82FA4D0780000A414
:10A4C300ED7F7780227F73801E7F61801A7F648097
:10A4D300167F7180127F72800E7F63800AE4FF8093
:10A4E300067F0180027F0212C0CE9013B374FFF087
:10A4F3009011A7E0700302A3F2E4F0901612E014A7
:10A50300601E1460352402600302A3F29013B4E0CA
:10A5130004F0C3940A74809480500302A3F280125F
:10A523009013B4E004F0C394067480948050030243
:10A53300A3F2E4F012EE8102A3F29013B4E004F06C
:10A54300C3940374809480500302A3F2E4F012EEE8
:04A553008102A3F2EC
:03000B0002DAF81E
:10DAF800C0E0C0F0C083C082C0D075D000C000C0F4
:0DDB080001C002C003C004C005C006C00774
:10DB1500900FA4E02401FF900FA3E03400FE7C00E9
:10DB25007D321216E7ECF0A3EDF064314C700890ED
:0DDB350011A704F012D3199011A67401F08D
:10DB4200D007D006D005D004D003D002D001D00037
:0BDB5200D0D0D082D083D0F0D0E032E1
:0300A30002E40C68
:10E40C00C0E0C0F0C083C082C0D075D000C000C0D6
:10E41C0001C002C003C004C005C006C00712BB5334
:10E42C00900FA57401F0D007D006D005D004D0030E
:10E43C00D002D001D000D0D0D082D083D0F0D0E0A8
:01E44C00329D
:10715F000000000000000000000000000000000020
:10716F00000000000000000000000FF00000387861
:10717F00000070380000F0380000F0780000F07860
:10718F00000000F0000000E0000001C000000380DC
:10719F000000070000000E00000038000000700023
:1071AF000000E0000001800000030180000E0300DA
:1071BF00001C0600003FFE00003FFC000000000026
:1071CF0000000000000000000000000000000000B0
:1071DF0000000000000000000000000000000000A0
:1071EF00000000000000000000000FE000001C7015
:1071FF000000387000007070000060700000E070D8
:10720F000000E0700001C0E00001C0E0000380E07A
:10721F00000381C0000381C0000703C00007038083
:10722F000007038000070700000F0700000E0E0085
:10723F0000061C00000738000003F00000000000EB
:10724F00000000000000000000000000000000002F
:10725F00000000000000000000000000000000001F
:10726F00000000000000000000000070000000E0BF
:10727F00000001E0000003E0000007C000000FC0A5
:10728F0000001BC000003380000067800000C700B3
:10729F000001870000030F0000060E00000C0E0017
:1072AF00001FFFC0003FFFC000001C0000003C009B
:1072BF000000380000007C000003FF000000000009
:1072CF0000000000000000000000000000000000AF
:1072DF00000000000000000000000000000000009F
:1072EF00000000000000000000000FF000001C383C
:1072FF0000003838000070380000F0380000F070DF
:10730F000000F0600000F1C000007F8000003E0030
:10731F0000007F000001CF80000387C0000703C07B
:10732F00000E03C0000C03C0000C0380000C07000C
:10733F00000E0E000007BC000001E000000000007E
:10734F00000000000000000000000000000000002E
:10735F000000000000020000000380000007000092
:10736F00000E8000000C4000001A3000003318009F
:10737F0000618E00018183F0030104FC0DFFFE18F4
:10738F0030001C00000038000000300001006000D9
:10739F0001FFFF80018003000180030001810300D2
:1073AF000181830001830300018303000183030034
:1073BF000182020000066000000C1F00001803E0AD
:1073CF00007000F003C000701C00001000000000EF
:1073DF0000000000000000000000600000007000CE
:1073EF00000060000000E0000020C0001FF08010CF
:1073FF001861FFF81861000018620000186600009D
:10740F0018640000186801801867FFC018600380B7
:10741F00186007001860060018600C00186018004C
:10742F001FE03000186060001860E0001840C010C6
:10743F001001801000030018000300180003001C47
:10744F000003FFFC0001FFF8000000000000000037
:10745F0000000000000000000100000001800C008F
:10746F0001800600018007000180030001800208EF
:10747F000181FFFC2181001C1FFD0010119B0010DA
:10748F00119A4000119870001198600011986020B7
:10749F0011986070119860E0119861801FF8620078
:1074AF0011986C002180700001A0600801906008A5
:1074BF000198600801BC600807CC60087C04600874
:1074CF002000301C00003FFC000000000000000006
:0BEDC8007E007F037DA07C0F02E50DA4
:10D28600E49013B5F0A3F07B017A14795590000071
:10D2960004F0A3EAF0A3E9F09013BC7427F0E4FFCE
:10D2A600FE12D87B9013B6E02427F09013B5E03435
:10D2B60000F07B017A16790F900000EBF0A3EAF0FC
:10D2C600A3E9F09013B5E0FEA3E0FF9013BC74024F
:10D2D600F012D87B9013B6E02402F09013B5E03438
:10D2E60000F07B017A167912900000EBF0A3EAF0C9
:10D2F600A3E9F09013B5E0FEA3E0FF9013BC740120
:10D30600F012D87B9013B6E004F070069013B5E0E7
:02D3160004F021
:01D3180022F2
:10CD1A00E49013B8F0A3F0FFFE12E7AD7B017A149A
:10CD2A007955900000EBF0A3EAF0A3E9F09013B86C
:10CD3A00E0FEA3E0FF9013BF7427F012B719901317
:10CD4A00B9E02427F09013B8E03400F07B017A169A
:10CD5A00790F900000EBF0A3EAF0A3E9F09013B882
:10CD6A00E0FEA3E0FF9013BF7402F012B71990130C
:10CD7A00B9E02402F09013B8E03400F07B017A168F
:10CD8A007912900000EBF0A3EAF0A3E9F09013B84F
:10CD9A00E0FEA3E0FF9013BF7401F012B7199013DD
:0CCDAA00B9E004F070069013B8E004F04B
:01CDB600225A
:10D8E40025313964002020202020202020202059A8
:10D8F4006F752057696E20212020202020202020B1
:10D90400200020202020202020202047616D652039
:10D914004F76657220212020202020202020004ADC
:10D924006F696E207468652074696C65732C206758
:10D93400657420746F20323034382100256400422D
:0DD94400657374203A0053636F72653A00FA
:10C72000E4901657F0FFEFC394047480948050484F
:10C73000E4FEEEC39404748094805039EF75F008E1
:10C74000A4245CF582E43414F58375F002EE121A29
:10C75000A9E0FCA3E04C701AEF25E025E02EFD9047
:10C760001657E0FC04F074472CF582E43416F58388
:10C77000EDF00E80BD0F80AE901657E07002FF22E4
:10C7800012E13A901657E0FD7C001216E774472D2F
:10C79000F58274163CF583E0901646F012E13A7C7F
:10C7A000007D0A1216E7ED64014C7005FE7F0480DF
:10C7B000047E007F02901646E0FD1313543F75F08F
:10C7C00008A4245CF582E43414F583ED540375F079
:0BC7D00002121AA9EEF0A3EFF07F01A7
:01C7DB00223B
:106A4A00E4F9E9FF3395E0FEC3EF9404EE64809421
:106A5A00804003026D29E490147DF0A3F0A3F09026
:106A6A00147CF090147CE0FFFD3395E0FCC3ED94B8
:106A7A0004EC648094804003026D25EF3395E0FCBA
:106A8A00ED25E0FBEC33FAE9FF3395E0FEEF7803FE
:106A9A00C333CE33CED8F9245CF58274143EF58321
:106AAA00E5822BF582E5833AF583E0FAA3E0FBED74
:106ABA0025E0FDEC33FCE9FF3395E0FEEF7803C3F4
:106ACA0033CE33CED8F92480F58274143EF583E5AB
:106ADA00822DF582E5833CF583EAF0A3EBF0E9FF2A
:106AEA003395E0FEEF7803C333CE33CED8F9245C76
:106AFA00F58274143EF583E5822DF582E5833CF533
:106B0A0083E0FEA3E0FF4E7003026D1C90147EE04A
:106B1A00FCA3E0FD4C700B90147EEEF0A3EFF002A4
:106B2A006C9B90147CE0FF3395E0FEEF25E0FBEED2
:106B3A0033FAE9FF3395E0FEEF7803C333CE33CE61
:106B4A00D8F9245CF58274143EF583E5822BF5822C
:106B5A00E5833AF583E0FEA3E06D7002EC6E600314
:106B6A00026C1690147FE025E0FD90147EE033FC61
:106B7A0090147DE0FF3395E0FEEF25E0FBEE33FA5B
:106B8A00E9FF3395E0FEEF7803C333CE33CED8F96D
:106B9A00245CF58274143EF583E5822BF582E58345
:106BAA003AF583ECF0A3EDF090147FE025E0FF9036
:106BBA00147EE033FE901456E02FF0901455E03E18
:106BCA00F0E490147EF0A3F0E9FF3395E0FEEF784D
:106BDA0003C333CE33CED8F9245CF58274143EF560
:106BEA0083E5822BF582E5833AF583E0FEA3E0FF95
:106BFA0090145AE0FCA3E0FDEF6D7002EE6C6003A6
:106C0A00026C959014597404F0026C9590147EE00D
:106C1A00FCA3E0FD90147DE0FF3395E0FEEF25E054
:106C2A00FBEE33FAE9FF3395E0FEEF7803C333CE88
:106C3A0033CED8F9245CF58274143EF583E5822BB1
:106C4A00F582E5833AF583ECF0A3EDF090147CE04D
:106C5A00FF3395E0FEEF25E0FDEE33FCE9FF3395C7
:106C6A00E0FEEF7803C333CE33CED8F9245CF58245
:106C7A0074143EF583E5822DF582E5833CF583E0C5
:106C8A00FFA3E090147ECFF0A3EFF090147DE00410
:106C9A00F090147CE0FF3395E0FEEF25E0FDEE3343
:106CAA00FCE9FF3395E0FEEF7803C333CE33CED849
:106CBA00F9245CF58274143EF583E5822DF582E5AC
:106CCA00833CF583E4F0A3F090147EE07002A3E025
:106CDA00604090147EE0FCA3E0FD90147DE0FF3359
:106CEA0095E0FEEF25E0FBEE33FAE9FF3395E0FE8F
:106CFA00EF7803C333CE33CED8F9245CF58274140B
:106D0A003EF583E5822BF582E5833AF583ECF0A321
:106D1A00EDF090147CE004F0026A6D09026A4CE41A
:106D2A00F9E9FF3395E0FEC3EF9404EE64809480A2
:106D3A004003026DD2E490147CF090147CE0FFFDD5
:106D4A003395E0FCC3ED9404EC648094805075EFB5
:106D5A003395E0FCED25E0FBEC33FAE9FF3395E0EF
:106D6A00FEEF7803C333CE33CED8F92480F582748C
:106D7A00143EF583E5822BF582E5833AF583E0FA42
:106D8A00A3E0FBED25E0FDEC33FCE9FF3395E0FEE3
:106D9A00EF7803C333CE33CED8F9245CF58274146A
:106DAA003EF583E5822DF582E5833CF583E0FEA37B
:106DBA00E06B7002EE6A60037F012290147CE004AB
:0A6DCA00F0026D4409026D2B7F00FA
:016DD400229C
:106DD500E4F9E9FF3395E0FEC3EF9404EE64809493
:106DE5008040030270B39014A17403F0E4A3F0A3F0
:106DF500F09014A07403F09014A0E0FF3395E0C365
:106E05006480948050030270AFEFFD3395E0FCED94
:106E150025E0FBEC33FAE9FF3395E0FEEF7803C399
:106E250033CE33CED8F9245CF58274143EF583E570
:106E3500822BF582E5833AF583E0FAA3E0FBED25A5
:106E4500E0FDEC33FCE9FF3395E0FEEF7803C33357
:106E5500CE33CED8F924A4F58274143EF583E582A9
:106E65002DF582E5833CF583EAF0A3EBF0E9FF33EA
:106E750095E0FEEF7803C333CE33CED8F9245CF525
:106E85008274143EF583E5822DF582E5833CF58316
:106E9500E0FEA3E0FF4E70030270A69014A2E0FC92
:106EA500A3E0FD4C700B9014A2EEF0A3EFF002707E
:106EB500259014A0E0FF3395E0FEEF25E0FBEE33CF
:106EC500FAE9FF3395E0FEEF7803C333CE33CED82E
:106ED500F9245CF58274143EF583E5822BF582E591
:106EE500833AF583E0FEA3E06D7002EC6E60030269
:106EF5006FA09014A3E025E0FD9014A2E033FC9070
:106F050014A1E0FF3395E0FEEF25E0FBEE33FAE94F
:106F1500FF3395E0FEEF7803C333CE33CED8F924A3
:106F25005CF58274143EF583E5822BF582E5833AA0
:106F3500F583ECF0A3EDF09014A3E025E0FF9014A9
:106F4500A2E033FE901456E02FF0901455E03EF089
:106F5500E49014A2F0A3F0E9FF3395E0FEEF780387
:106F6500C333CE33CED8F9245CF58274143EF58351
:106F7500E5822BF582E5833AF583E0FEA3E0FF90F9
:106F8500145AE0FCA3E0FDEF6D7002EE6C600302A5
:106F9500701F9014597404F002701F9014A2E0FC45
:106FA500A3E0FD9014A1E0FF3395E0FEEF25E0FBA3
:106FB500EE33FAE9FF3395E0FEEF7803C333CE33C2
:106FC500CED8F9245CF58274143EF583E5822BF561
:106FD50082E5833AF583ECF0A3EDF09014A0E0FF91
:106FE5003395E0FEEF25E0FDEE33FCE9FF3395E058
:106FF500FEEF7803C333CE33CED8F9245CF5827423
:10700500143EF583E5822DF582E5833CF583E0FFAB
:10701500A3E09014A2CFF0A3EFF09014A1E014F038
:107025009014A0E0FF3395E0FEEF25E0FDEE33FC84
:10703500E9FF3395E0FEEF7803C333CE33CED8F9BD
:10704500245CF58274143EF583E5822DF582E58393
:107055003CF583E4F0A3F09014A2E07002A3E06095
:10706500409014A2E0FCA3E0FD9014A1E0FF33954D
:10707500E0FEEF25E0FBEE33FAE9FF3395E0FEEFA6
:107085007803C333CE33CED8F9245CF58274143E2D
:10709500F583E5822BF582E5833AF583ECF0A3EDE4
:1070A500F09014A0E014F0026DFC09026DD7E4F92C
:1070B500E9FF3395E0FEC3EF9404EE6480948040CD
:1070C5000302715CE49014A0F09014A0E0FFFD337E
:1070D50095E0FCC3ED9404EC648094805075EF3327
:1070E50095E0FCED25E0FBEC33FAE9FF3395E0FE96
:1070F500EF7803C333CE33CED8F924A4F5827414C4
:107105003EF583E5822BF582E5833AF583E0FAA324
:10711500E0FBED25E0FDEC33FCE9FF3395E0FEEF08
:107125007803C333CE33CED8F9245CF58274143E8C
:10713500F583E5822DF582E5833CF583E0FEA3E04A
:107145006B7002EE6A60037F01229014A0E004F0E8
:097155000270CE090270B57F0042
:01715E00220E
:1074DF00E4F9E9FF3395E0FEC3EF9404EE64809482
:1074EF0080400302779EE49014C5F0A3F0A3F090C0
:1074FF0014C4F09014C4E0FF3395E0FEC3EF94047E
:10750F00EE64809480400302779AE9FD3395E0FCA6
:10751F00ED25E0FBEC33FAE03395E0FEEF7803C3A3
:10752F0033CE33CED8F9245CF58274143EF583E55F
:10753F00822BF582E5833AF583E0FAA3E0FBED2594
:10754F00E0FDEC33FC9014C4E0FF3395E0FEEF78E0
:10755F0003C333CE33CED8F9FF24C8F58274143E5B
:10756F00F583E5822DF582E5833CF583EAF0A3EB05
:10757F00F0745C2FF58274143EF583E5822DF5824D
:10758F00E5833CF583E0FEA3E0FF4E7003027791A5
:10759F009014C6E0FCA3E0FD4C700B9014C6EEF007
:1075AF00A3EFF0027716E9FF3395E0FEEF25E0FB3E
:1075BF00EE33FA9014C4E0FF3395E0FEEF7803C387
:1075CF0033CE33CED8F9245CF58274143EF583E5BF
:1075DF00822BF582E5833AF583E0FEA3E06D70021E
:1075EF00EC6E600302769E9014C7E025E0FD9014C8
:1075FF00C6E033FCE9FF3395E0FEEF25E0FBEE3309
:10760F00FA9014C5E0FF3395E0FEEF7803C333CE55
:10761F0033CED8F9245CF58274143EF583E5822BC2
:10762F00F582E5833AF583ECF0A3EDF09014C7E013
:10763F0025E0FF9014C6E033FE901456E02FF09033
:10764F001455E03EF0E49014C6F0A3F09014C5E09A
:10765F00FF3395E0FEEF7803C333CE33CED8F92452
:10766F005CF58274143EF583E5822BF582E5833A4F
:10767F00F583E0FEA3E0FF90145AE0FCA3E0FDEFDA
:10768F006D7002EE6C707A9014597404F0807290E1
:10769F0014C6E0FCA3E0FDE9FF3395E0FEEF25E023
:1076AF00FBEE33FA9014C5E0FF3395E0FEEF78035D
:1076BF00C333CE33CED8F9245CF58274143EF583F0
:1076CF00E5822BF582E5833AF583ECF0A3EDF0909C
:1076DF0014C4E0FF3395E0FEEF7803C333CE33CE0F
:1076EF00D8F9245CF58274143EF583E5822BF5827C
:1076FF00E5833AF583E0FFA3E09014C6CFF0A3EF44
:10770F00F09014C5E004F0E9FD3395E0FCED25E0C1
:10771F00FBEC33FA9014C4E0FF3395E0FEEF7803EF
:10772F00C333CE33CED8F9245CF58274143EF5837F
:10773F00E5822BF582E5833AF583E4F0A3F090140C
:10774F00C6E07002A3E0603A9014C6E0FAA3E0FB33
:10775F00ED25E0FDEC33FC9014C5E0FF3395E0FE22
:10776F00EF7803C333CE33CED8F9245CF58274148B
:10777F003EF583E5822DF582E5833CF583EAF0A3A0
:10778F00EBF09014C4E004F0027502090274E1E416
:10779F009014C4F09014C4E0FF3395E0FEC3EF944F
:1077AF0004EE64809480400302784DE4F9E9FF33DE
:1077BF0095E0FEC3EF9404EE648094805077E9FD6A
:1077CF003395E0FCED25E0FBEC33FA9014C4E0FFB9
:1077DF003395E0FEEF7803C333CE33CED8F924C808
:1077EF00F58274143EF583E5822BF582E5833AF535
:1077FF0083E0FAA3E0FBED25E0FDEC33FC9014C42D
:10780F00E0FF3395E0FEEF7803C333CE33CED8F9E4
:10781F00245CF58274143EF583E5822DF582E583B1
:10782F003CF583E0FEA3E06B7002EE6A60037F011C
:10783F0022090277BC9014C4E004F00277A37F0002
:01784F002216
:10785000E4F9E9FF3395E0FEC3EF9404EE6480940D
:10786000804003027B0E9014E97403F0E4A3F0A3BC
:10787000F09014E87403F09014E8E03395E0C364EA
:107880008094805003027B0AE9FD3395E0FCED25EE
:10789000E0FBEC33FAE0FF3395E0FEEF7803C3330F
:1078A000CE33CED8F9245CF58274143EF583E5829C
:1078B0002BF582E5833AF583E0FAA3E0FBED25E0C2
:1078C000FDEC33FC9014E8E0FF3395E0FEEF780325
:1078D000C333CE33CED8F9FF24ECF58274143EF5D1
:1078E00083E5822DF582E5833CF583EAF0A3EBF096
:1078F000745C2FF58274143EF583E5822DF582E5E4
:10790000833CF583E0FEA3E0FF4E7003027B019011
:1079100014EAE0FCA3E0FD4C700B9014EAEEF0A337
:10792000EFF0027A86E9FF3395E0FEEF25E0FBEE0B
:1079300033FA9014E8E0FF3395E0FEEF7803C333A9
:10794000CE33CED8F9245CF58274143EF583E582FB
:107950002BF582E5833AF583E0FEA3E06D7002EC3F
:107960006E6003027A0E9014EBE025E0FD9014EABD
:10797000E033FCE9FF3395E0FEEF25E0FBEE33FA60
:107980009014E9E0FF3395E0FEEF7803C333CE3384
:10799000CED8F9245CF58274143EF583E5822BF58C
:1079A00082E5833AF583ECF0A3EDF09014EBE0254B
:1079B000E0FF9014EAE033FE901456E02FF09014AC
:1079C00055E03EF0E49014EAF0A3F09014E9E0FFF3
:1079D0003395E0FEEF7803C333CE33CED8F9245C81
:1079E000F58274143EF583E5822BF582E5833AF542
:1079F00083E0FEA3E0FF90145AE0FCA3E0FDEF6DEE
:107A00007002EE6C707A9014597404F080729014C5
:107A1000EAE0FCA3E0FDE9FF3395E0FEEF25E0FBA3
:107A2000EE33FA9014E9E0FF3395E0FEEF7803C3FC
:107A300033CE33CED8F9245CF58274143EF583E559
:107A4000822BF582E5833AF583ECF0A3EDF09014F8
:107A5000E8E0FF3395E0FEEF7803C333CE33CED8B2
:107A6000F9245CF58274143EF583E5822BF582E5FA
:107A7000833AF583E0FFA3E09014EACFF0A3EFF0A0
:107A80009014E9E014F0E9FD3395E0FCED25E0FB0E
:107A9000EC33FA9014E8E0FF3395E0FEEF7803C38F
:107AA00033CE33CED8F9245CF58274143EF583E5E9
:107AB000822BF582E5833AF583E4F0A3F09014EA93
:107AC000E07002A3E0603A9014EAE0FAA3E0FBED74
:107AD00025E0FDEC33FC9014E9E0FF3395E0FEEF88
:107AE0007803C333CE33CED8F9245CF58274143EC8
:107AF000F583E5822DF582E5833CF583EAF0A3EB7F
:107B0000F09014E8E014F002787709027852E490DB
:107B100014E8F09014E8E0FF3395E0FEC3EF94041E
:107B2000EE648094804003027BBDE4F9E9FF339565
:107B3000E0FEC3EF9404EE648094805077E9FD3357
:107B400095E0FCED25E0FBEC33FA9014E8E0FF3320
:107B500095E0FEEF7803C333CE33CED8F924ECF5AD
:107B60008274143EF583E5822BF582E5833AF58332
:107B7000E0FAA3E0FBED25E0FDEC33FC9014E8E037
:107B8000FF3395E0FEEF7803C333CE33CED8F9242C
:107B90005CF58274143EF583E5822DF582E5833C25
:107BA000F583E0FEA3E06B7002EE6A60037F0122C2
:0F7BB00009027B2C9014E8E004F0027B137F00A5
:017BBF0022A3
:10E80C007E007F207D007B017A14795C121BB11293
:10E81C00C72012C720E4901455F0A3F090145A743A
:0BE82C0008F0A3E4F090145904F0225F
:10B83300E4901873F0901873E0C3940474809480B8
:10B84300400302B945E4A3F0901874E0FFC39404E5
:10B8530074809480400302B93C901873E075F0083B
:10B86300A4245CF582E43414F58375F002EF121A14
:10B87300A9E0FEA3E04E7002FF22901874E0FF24BB
:10B8830001FDE433FCC3ED9404EC648094805041E7
:10B89300901873E0FE75F008A4245EF582E4341476
:10B8A300F58375F002EF121AA9E0FCA3E0FDEE7533
:10B8B300F008A4245CF582E43414F58375F002EFF8
:10B8C300121AA9E0FEA3E0B50507EEB504037F0055
:10B8D30022901873E0FF2401FDE433FCC3ED9404CC
:10B8E300EC648094805049EF75F008A42464F582D9
:10B8F300E43414F583C083C082901874E0FED082D0
:10B90300D08375F002121AA9E0FCA3E0FDEF75F0F5
:10B9130008A4245CF582E43414F58375F002EE1276
:10B923001AA9E0FEA3E0B50507EEB504037F0022E4
:10B93300901874E004F002B84B901873E004F0021E
:04B94300B8387F0190
:01B9470022DD
:10C42000E4901876F0901459E06401700302C4E1BE
:10C43000E4901875F0901875E0C3940474809480AB
:10C440005053E4FDEDC3940474809480503F9018E1
:10C4500075E0FC7E007410A804088005C333CE3359
:10C46000CED8F9A805088005C333CE33CED8F9FF5E
:10C47000EC75F008A4245CF582E43414F58375F0BF
:10C4800002ED121AA9EEF0A3EFF00D80B790187527
:10C49000E004F080A0E4901455F0A3F090145974D7
:10C4A00002F0C3901457E0648094805009E4F0A334
:10C4B000F090187604F090145AE0FEA3E0FFEE54DA
:10C4C00007FCEF4C7004EF4E700E90145A7408F095
:10C4D000A3E4F090187604F0901876E0600312CD93
:01C4E0001A41
:01C4E1002238
:10CDB7009013D474FFF0A374D8F0A374E4F0901424
:10CDC70057E0FFA3E09013D7CFF0A3EFF07B017AF2
:10CDD7001579891252667B017A1579899013D8746F
:10CDE7002BF0A37412F0A374C6F0A37418F0A37405
:10CDF70010F0E4A3F07D32FC7F44FE12D1EF9013D4
:10CE0700D474FFF0A374D8F0A374E4F0901455E041
:10CE1700FFA3E09013D7CFF0A3EFF07B017A15794A
:10CE2700891252667B017A1579899013D8742BF091
:10CE3700A37412F0A374C6F0A37418F0A37410F0CF
:0CCE4700E4A3F07D44FC7F44FE02D1EF28
:10E0ED00901459E024FD600B1470187BFF7AD879D9
:10E0FD00E980067BFF7AD979069013D874F8F0A3DE
:10E10D00E4800F7BFF7AD979239013D874BCF0A3E8
:10E11D007440F0A374C6F0A37418F0A3740CF0E46B
:0DE12D00A3F07D2C7C017F24FE12D1EF2297
:105B0400E4901587F0901587E0C394047480948022
:105B14004003025F74E4A3F0901588E0FFC394048B
:105B2400748094804003025F6B901587E075F008E1
:105B3400A4245CF582E43414F58375F002EF121AA0
:105B4400A9E0FEA3E0FF4E7003025F19EF8EF0128E
:105B54001B845B8A00025BCA00045C0E00085C5272
:105B640000105C9600205CD900405D1C00805D60E4
:105B740001005DA402005DE804005E2B08005E2BBA
:105B8400100000005E71901588E075F032A4FBAA45
:105B9400F02418FFE43AFEC006C007901587E075AC
:105BA400F032A4FFAEF02460FDE43EFCEB2442FBA3
:105BB400E43AFAEF248AFFE43E9013C3F0A3EFF033
:105BC400A37484025CD2901588E075F032A4FBAA19
:105BD400F02418FFE43AFEC006C007901587E0756C
:105BE400F032A4FFAEF02460FDE43EFCEB2442FB63
:105BF400E43AFAEF248AFFE43E9013C3F0A3EFF0F3
:105C0400A374FCF0A37407025E69901588E075F034
:105C140032A4FBAAF02418FFE43AFEC006C00790A1
:105C24001587E075F032A4FFAEF02460FDE43EFC7D
:105C3400EB2442FBE43AFAEF248AFFE43E9013C3D8
:105C4400F0A3EFF0A37407F0A374E0025E6990156B
:105C540088E075F032A4FBAAF02418FFE43AFEC0F1
:105C640006C007901587E075F032A4FFAEF02460FB
:105C7400FDE43EFCEB2442FBE43AFAEF248AFFE421
:105C84003E9013C3F0A3EFF0A37401F0A374CF020A
:105C94005E69901588E075F032A4FBAAF02418FF21
:105CA400E43AFEC006C007901587E075F032A4FF01
:105CB400AEF02460FDE43EFCEB2442FBE43AFAEF50
:105CC400248AFFE43E9013C3F0A3EFF0A3E4F0A30F
:105CD400741F025E69901588E075F032A4FBAAF087
:105CE4002418FFE43AFEC006C007901587E075F05B
:105CF40032A4FFAEF02460FDE43EFCEB2442FBE45E
:105D04003AFAEF248AFFE43E9013C3F0A3EFF0A322
:105D140074F8F0A3E4025E69901588E075F032A48B
:105D2400FBAAF02418FFE43AFEC006C007901587CA
:105D3400E075F032A4FFAEF02460FDE43EFCEB24F9
:105D440042FBE43AFAEF248AFFE43E9013C3F0A343
:105D5400EFF0A374F8F0A3741F025E69901588E055
:105D640075F032A4FBAAF02418FFE43AFEC006C082
:105D740007901587E075F032A4FFAEF02460FDE4CF
:105D84003EFCEB2442FBE43AFAEF248AFFE43E9023
:105D940013C3F0A3EFF0A374BCF0A37440025E69D4
:105DA400901588E075F032A4FBAAF02418FFE43AB9
:105DB400FEC006C007901587E075F032A4FFAEF070
:105DC4002460FDE43EFCEB2442FBE43AFAEF248A2F
:105DD400FFE43E9013C3F0A3EFF0A3742BF0A3747D
:105DE40012025E69901588E075F032A4FBAAF024D3
:105DF40018FFE43AFEC006C007901587E075F0323C
:105E0400A4FFAEF02460FDE43EFCEB2442FBE43A44
:105E1400FAEF248AFFE43E9013C3F0A3EFF0A374D7
:105E240084F0A37430803E901588E075F032A4FBB2
:105E3400AAF02418FFE43AFEC006C007901587E0D4
:105E440075F032A4FFAEF02460FDE43EFCEB244286
:105E5400FBE43AFAEF248AFFE43E9013C3F0A3EF85
:105E6400F0E4A3F0A3F0D007D00612E8F59013D421
:105E740074FFF0A374D9F0A37440F0901587E07513
:105E8400F008A4245CF582E43414F583C083C08252
:105E9400901588E0D082D08375F002121AA9E0FF31
:105EA400A3E09013D7CFF0A3EFF07B017A15796EBE
:105EB4001252667B017A15796E12EC47AD07901584
:105EC40088E075F032A4242DFBE435F0FAED75F08A
:105ED40004A4FFC3EB9FFFEA95F0FEC006C0079041
:105EE4001587E075F032A4246DFDE435F0FC7B01E8
:105EF4007A15796E74FF9013D8F0A3F0A374A6F00A
:105F0400A37451F0A37410F0A37401F0D007D00669
:105F140012D1EF8049901588E075F032A4FBAAF005
:105F24002418FFE43AFEC006C007901587E075F018
:105F340032A4FFAEF02460FDE43EFCEB2442FBE41B
:105F44003AFAEF248AFFE43E9013C3F0A3EFF0A3E0
:105F540074A6F0A37451F0D007D00612E8F590159A
:105F640088E004F0025B1C901587E004F0025B09F2
:015F7400220A
:10A557007F187EC612DFA57BFF7A71795F9013BAE9
:10A56700E4F0A37438F0A3E4F0A37408F0A374FC38
:10A57700F0A37407F074FFA3F0A3F0A37401F07FB6
:10A58700041248B69013BC7401F0A37425F0E4A339
:10A59700F0A3F07BDDFA7D5BFC7F13FE12BF069014
:10A5A70013C37401F0A37424F0A374A6F0A3745129
:10A5B700F07BDC7A007D5C7C007F147E0012E8F57E
:10A5C7007BFF7AD97943E49013D8F0A3F0A374C63C
:10A5D700F0A37418F0A37410F0A37401F07D327C1B
:10A5E700007F147E0012D1EF7BFF7AD9794AE4907D
:10A5F70013D8F0A3F0A374C6F0A37418F0A37410D3
:10A60700F0A37401F07D447C007F147E0012D1EF2B
:10A61700E4901877F0901877E0FFC394057480945E
:10A62700805059EF75F032A4245CFDE435F0FC90BE
:10A6370013C6F0A3EDF0A37454F0A37458F07BDCB9
:10A647007A007F147E0012965D901877E075F032DD
:10A65700A42414FFE435F0FEAB07FA9013C6740187
:10A66700F0A37424F0A37454F0A37458F07D5C7CB9
:10A677000012965D901877E004F08099E4901877BF
:10A68700F0901877E0C39404748094805066E4A334
:10A69700F0901878E0FFC3940474809480504DEFD5
:10A6A70075F032A4FBAAF02417FFE43AFEC006C0F7
:10A6B70007901877E075F032A4FFAEF0245FFDE451
:10A6C7003EFCEB2443FBE43AFAEF248BFFE43E9095
:10A6D70013BCF0A3EFF0A3747DF0A314F0D007D060
:10A6E7000612BF06901878E004F080A5901877E06E
:10A6F70004F0808D12C42012CDB7125B0402E0ED86
:10BE1E00E4901893F0EF249F606324FE6027146073
:10BE2E006924F2601514607C24FC606B24066003A8
:10BE3E0002BEC2E4901459F0807A12E80C12CDB70B
:10BE4E00125B048033901459E06404701404F09073
:10BE5E00145BE025E0F090145AE033F012CD1A8016
:10BE6E0017901459E0FF64036005EF640270091225
:10BE7E00E80C12CDB7125B0412E0ED803790145926
:10BE8E00E06401702F126A4A8025901459E0640113
:10BE9E007022126DD58018901459E064017015123D
:10BEAE0074DF800B901459E0640170081278509082
:10BEBE001893EFF0901893E0603D12C72012B8333C
:10BECE00EF60069014597403F0901457E0FEA3E04F
:10BEDE00FF901455E0FCA3E0FDD39FEE6480F8ECD8
:10BEEE006480984006A3ECF0A3EDF012CD1A12CDAB
:07BEFE00B7125B0412E0ED36
:01BF05002219
:10CC79006D656469756D0020736C6F77200020669F
:10CC89006173742000253864002020202020202092
:10CC9900202020596F752057696E202120202020DF
:10CCA9002020202020002020202020202020204774
:10CCB900616D65204F76657220212020202020207B
:10CCC900202000202020202020202020202050610A
:10CCD900757365202020202020202020202020007E
:10CCE90020202020202020202020204E6F726D61DE
:10CCF9006C20202020202020202020200042657345
:10CD090074203A0053636F72653A00537065656425
:01CD19000019
:0B000E009013B8EBF0A3EAF0A3E9F0B8
:10001900A3E0F9A3E0FAA3E0A3C980719013BEE0BD
:10002900FBA3E0FAA3E0F9EA494B606A121749FF1A
:10003900AEF09013B8E0FBA3E0FAA3E0F912174978
:10004900B50735E5F0B506309013BEE0FBA3E0FA3D
:10005900A3E0F9900002121774FFAEF09013B8E014
:10006900FBA3E0FAA3E0F9900002121774B50708A0
:10007900E5F0B506037F01229013BEE0FBA3E0FA89
:10008900A3E0F9900007121AD59013BEEBF0A3EA8A
:08009900F0A3E9F080867F006E
:0100A100223C
:108F4600901614E4F0A37402F07F0A7E0012C28722
:108F5600AA06A90790161A7401F0A3EAF0A3E9F08D
:108F66007B007A007900C003C002C00190161AE0A7
:108F7600FBA3E0FAA3E0F9900004121B0512E13A04
:108F86007C007D0A1216E7ED2405FFE43CF99016F5
:108F96001AE0FBA3E0FAA3E0C98FF01217E412E18E
:108FA6003A7C007D0A1216E7ED2405FFE43CFE90AC
:108FB600161AE0FBA3E0FAA3E0F9900002EE8FF0A8
:108FC6001218037F0A7E0012C287AA06A907901309
:108FD600B77401F0A3EAF0A3E9F090161AE0FBA338
:108FE600E0FAA3E0F9C003C002C0019013B7E0FBAA
:108FF600A3E0FAA3E0F9900004121B057B007A00B7
:109006007900C003C002C0019013B7E0FBA3E0FAE9
:10901600A3E0F9900007121B0512E13A7C007D04DB
:109026001216E7EC6003029179ED14605214700396
:109036000290D714700302912624036003029179EB
:10904600E4901613F090161AE0FBA3E0FAA3E0F9F9
:10905600121749FF9013B7E0FBA3E0FAA3E0F9E586
:10906600F08FF01217E490161AE0FBA3E0FAA3E0E3
:10907600F99000021217742401FFE435F0803F9046
:1090860016137401F090161AE0FBA3E0FAA3E0F9B8
:10909600121749FF9013B7E0FBA3E0FAA3E0F9E546
:1090A600F08FF01217E490161AE0FBA3E0FAA3E0A3
:1090B600F990000212177424FFFFE5F034FFFE90CA
:1090C60013B7E0FBA3E0FAA3E0F9900002EE0291E9
:1090D600749016137402F090161AE0FBA3E0FAA33C
:1090E600E0F91217492401FFE435F0F99013B7E0CF
:1090F600FBA3E0FAA3E0C98FF01217E490161AE07A
:10910600FBA3E0FAA3E0F9900002121774FF901394
:10911600B7E0FBA3E0FAA3E0F9900002E5F0804E89
:109126009016137403F090161AE0FBA3E0FAA3E07E
:10913600F912174924FFFFE5F034FFF99013B7E061
:10914600FBA3E0FAA3E0C98FF01217E490161AE029
:10915600FBA3E0FAA3E0F9900002121774FF901344
:10916600B7E0FBA3E0FAA3E0F9900002E5F08FF088
:109176001218039013B7E0FBA3E0FAA3E0F9C003CB
:10918600C002C00190161AE0FBA3E0FAA3E0F99032
:109196000007121B059013B7E0F9A3E0FAA3E090CD
:0A91A600161DC9F0A3EAF0A3E9F0DA
:0191B000229C
:10E3840012E13A7C007D141216E7901616ECF0A305
:10E39400EDF012E13A7C007D141216E7901618ECA9
:10E3A400F0A3EDF0A3E0F9A3E0FAA3E09013BBC956
:10E3B400F0A3EAF0A3E9F07B017A16791612000EB5
:04E3C400EF70BD2217
:10D6310090161AE0FBA3E0FAA3E0F9900007121A92
:10D64100D59013BBEBF0A3EAF0A3E9F090161AE032
:10D65100FBA3E0FAA3E0F912000EEF60037F0122C1
:10D6610090161AE0FBA3E0FAA3E0F9121749FFAE06
:10D67100F0C3EE64809480400BD3EF9413EE64808A
:10D68100948040037F0122900002121774FFAEF0D4
:10D69100C3EE64809480400BD3EF9413EE648094C6
:09D6A1008040037F01227F00227A
:10DE4A00E49013B6F090160DF0A3F0901611740238
:10DE5A00F0128F4612E384C390160FE06480948018
:10DE6A005009E4F0A3F09013B604F0901612E0FF04
:10DE7A007E00C374809480400AD3EF940374809424
:10DE8A0080400A9016127401F09013B6F09013B6FF
:06DE9A00E0600312CD1A46
:01DEA000225F
:10DDF200901612E0601824FE602504704A7BFF7AB8
:10DE0200CC79799013D874BCF0A3744080207BFF46
:10DE12007ACC79809013D874FFF0A374E0800F7BE2
:10DE2200FF7ACC79879013D874FCF0A37407F0A31F
:10DE320074A6F0A37451F0A37410F0E4A3F07D4330
:08DE4200FC7FA5FE12D1EF22C6
:10CE53009013D474FFF0A374CCF0A3748EF09016E7
:10CE63000FE0FFA3E09013D7CFF0A3EFF07B017A9D
:10CE73001379B81252667B017A1379B89013D87478
:10CE83002BF0A37412F0A374C6F0A37418F0A37468
:10CE930010F0E4A3F07D32FC7F44FE12D1EF901337
:10CEA300D474FFF0A374CCF0A3748EF090160DE04D
:10CEB300FFA3E09013D7CFF0A3EFF07B017A1379B0
:10CEC300B81252667B017A1379B89013D8742BF099
:10CED300A37412F0A374C6F0A37418F0A37410F033
:0CCEE300E4A3F07D44FC7F44FE02D1EF8C
:10DD9800901611E014602914601614600B14704971
:10DDA8007BFF7ACC7992800E7BFF7ACC79AF8006A4
:10DDB8007BFF7ACC79CC9013D874F8F0A3E4800F69
:10DDC8007BFF7ACC79E99013D874BCF0A37440F047
:10DDD800A374C6F0A37418F0A3740CF0E4A3F07D48
:0ADDE8002C7C017F24FE12D1EF22F3
:08CA9100E0FBA3E0FAA3E0F9C9
:10CA99009013BBECF0A3EDF09013B8EBF0A3EAF020
:10CAA900A3E9F0121749FFAEF07C007D0A12168047
:10CAB900EF2415FFE43EFEC006C0079000021217DE
:10CAC90074FFAEF0121680EF245DFDE43EFCC00455
:10CAD900C005121749FFAEF07C007D0A121680EFDF
:10CAE900241DFBE43EFAC002C0039013B8E0FBA387
:10CAF900E0FAA3E0F9900002121774FFAEF01216E3
:10CB090080EF2465FFE43E9013C3F0A3EFF0901388
:10CB1900BBE0FFA3E09013C5CFF0A3EFF0D003D0A3
:0CCB290002D005D004D007D00602E8F5C9
:109A690090161AE0FBA3E0FAA3E0F9900007121A96
:109A7900D59013B6EBF0A3EAF0A3E9F0901616E03F
:109A8900FEA3E0FF7C007D0A121680AA06AB07EB55
:109A99002415FFE43AFEC006C007A3E0FEA3E0FFD9
:109AA900121680EF245DFDE43EFCEB241DFBE43A35
:109AB900FAEF2465FFE43E9013C3F0A3EFF0A3741B
:109AC90007F0A374E0F0D007D00612E8F590161A53
:109AD900E0FBA3E0FAA3E0F9121749FFAEF0C3EEE9
:109AE900648094805003029B9FEF9414EE648094E9
:109AF900804003029B9F900002121774FFAEF0C3CF
:109B0900EE648094805003029B9FEF9414EE64806E
:109B190094804003029B9F121749FFAEF07C007DA1
:109B29000A121680EF2415FFE43EFEC006C0079016
:109B39000002121774FFAEF0121680EF245DFDE4E7
:109B49003EFCC004C005121749FFAEF07C007D0A37
:109B5900121680EF241DFBE43EFAC002C0039016E2
:109B69001AE0FBA3E0FA900002121774FFAEF0129C
:109B79001680EF2465FFE43E9013C3F0A3EFF0A332
:109B89007401F0A374CFF0D003D002D005D004D073
:109B990007D00612E8F59013B6E0FBA3E0FAA3E0BC
:109BA900F9EA494B7003029C50121749FFAEF07C49
:109BB900007D0A121680EF2415FFE43EFEC006C0A0
:109BC90007900002121774FFAEF0121680EF245DA1
:109BD900FDE43EFCC004C005121749FFAEF07C004D
:109BE9007D0A121680EF241DFBE43EFAC002C00371
:109BF9009013B6E0FBA3E0FA900002121774FFAECF
:109C0900F0121680EF2465FFE43E9013C3F0A3EF32
:109C1900F0A37454F0A37458F0D003D002D005D047
:109C290004D007D00612E8F59013B6E0FBA3E0FADA
:109C3900A3E0F9900007121AD59013B6EBF0A3EA46
:079C4900F0A3E9F0029B9F6C
:019C500022F1
:107EE700901611E0640160030281E47F0AFE12C26A
:107EF70087AA06A9079013B57401F0A3EAF0A3E9CE
:107F0700F07B007A007900C003C002C0019013B56E
:107F1700E0FBA3E0FAA3E0F9900004121B0590161A
:107F270013E014604E147003027FC51470030280BF
:107F37000F2403600302805B90161AE0FBA3E0FAAC
:107F4700A3E0F9121749FF9013B5E0FBA3E0FAA3EA
:107F5700E0F9E5F08FF01217E490161AE0FBA3E0C2
:107F6700FAA3E0F990000212177424FFFFE5F0343A
:107F7700FF803890161AE0FBA3E0FAA3E0F9121786
:107F870049FF9013B5E0FBA3E0FAA3E0F9E5F08F12
:107F9700F01217E490161AE0FBA3E0FAA3E0F990B9
:107FA70000021217742401FFE435F0FE9013B5E0C8
:107FB700FBA3E0FAA3E0F9900002EE0280569016C8
:107FC7001AE0FBA3E0FAA3E0F912174924FFFFE543
:107FD700F034FFF99013B5E0FBA3E0FAA3E0C98FF3
:107FE700F01217E490161AE0FBA3E0FAA3E0F99069
:107FF7000002121774FF9013B5E0FBA3E0FAA3E0A9
:10800700F9900002E5F0804790161AE0FBA3E0FA2A
:10801700A3E0F91217492401FFE435F0F99013B5ED
:10802700E0FBA3E0FAA3E0C98FF01217E490161A59
:10803700E0FBA3E0FAA3E0F9900002121774FF90A7
:1080470013B5E0FBA3E0FAA3E0F9900002E5F08F97
:10805700F01218039013B5E0FBA3E0FAA3E0F9C010
:1080670003C002C00190161AE0FBA3E0FAA3E0F9EF
:10807700900004121B0590161AE0FBA3E0FAA3E098
:10808700F9C003C002C0019013B5E0FBA3E0FAA357
:10809700E0F9900007121B059013B5E0F9A3E0FA89
:1080A700A3E090161AC9F0A3EAF0A3E9F09013B57C
:1080B700E0FBA3A3E0F9121749FF901616E065F05D
:1080C7007003A3E06F7079900002121774FF901687
:1080D70018E065F07003A3E06F706590161475F0F3
:1080E7000112171DAFF0FEBE010EBF900B901611C7
:1080F7007404F012DD98801012E3847B017A1679FC
:10810700167DE07C0712CA9990160EE0240AF090BB
:10811700160DE03400F090160FE0FEA3E0FF901676
:108127000DE0FCA3E0FDD39FEE6480F8EC6480983B
:108137004009A3ECF0A3EDF012CD1A12CE53806CD8
:1081470090161D7D517CA612CA9190161DE0F9A3C9
:10815700E0FAA3E09013B5C9F0A3EAF0A3E9F07B36
:10816700007A007900C003C002C00190161DE0FB31
:10817700A3E0FAA3E0F9900004121AD590000712C1
:108187001B0590161DE0FBA3E0FAA3E0F99000049D
:10819700121AD590161DEBF0A3EAF0A3E9F090139D
:1081A700B5A3E0FAA3E0AE02FF12B11D90161AE0E4
:1081B700FBA3E0FAA3E0F9900007121AD57D587CDB
:1081C7005412CA9912D631EF60099016117403F050
:0D81D70002DD9890161A7DCF7C0112CA912E
:0181E4002278
:10D1570080749013B5E0FBA3E0FAA3E0F9EA494B2A
:10D16700607C121749FFAEF0C3EE64809480402CB8
:10D17700EF9414EE6480948050229000021217748A
:10D18700FFAEF0C3EE648094804011EF9414EE6418
:10D1970080948050077D517CA612CA9990161AE098
:10D1A700FBA3E0FAA3E0F9900007121AD590161A2C
:10D1B700EBF0A3EAF0A3E9F09013B5A3E0FAA3E03C
:10D1C700AE02FF12B11D90161AE0F9A3E0FAA3E030
:10D1D7009013B5C9F0A3EAF0A3E9F002D15990166C
:07D1E7001DE4F0A3F0A3F02A
:01D1EE00221E
:0DED7C007B017A1679167D517CA602CA999A
:10E9A900E490160DF0A3F012D157128F4612ED7CA8
:10E9B90012E3849016117401F012CE53129A69026F
:02E9C900DD98D7
:10A707007F187EC612DFA57BFF7A73795F9013BA35
:10A71700E4F0A37448F0A3E4F0A37408F0A3E4F012
:10A72700A3741FF074FFA3F0A3F0A37401F07F03D9
:10A737001248B69013BC7401F0A37425F0E4A3F09B
:10A74700A3F07BDDFA7D5BFC7F13FE12BF0690133F
:10A75700C37401F0A37424F0A374A6F0A37451F09A
:10A767007BDC7A007D5C7C007F147E0012E8F57B41
:10A77700FF7ACD7906E49013D8F0A3F0A374C6F05E
:10A78700A37418F0A37410F0A37401F07D327C0059
:10A797007F147E0012D1EF7BFF7ACD790DE4901301
:10A7A700D8F0A3F0A374C6F0A37418F0A37410F044
:10A7B700A37401F07D447C007F147E0012D1EF90DA
:10A7C70013C3E4F0A37454F0A374A6F0A37451F078
:10A7D7007BDC7A007D327C007F9E7E0012E8F5905C
:10A7E70013C6E4F0A37441F0A37484F0A37430F0AB
:10A7F7007BD87A007D417C007FA27E0012965D7B2C
:10A80700FF7ACD7914E49013D8F0A3F0A374A6F0DF
:10A81700A37451F0A3740CF0A37401F07D347C0091
:10A827007FAE7E0012D1EFE49013B5F09013B5E040
:10A83700FFC39415748094805057EF75F00AA424D1
:10A847005CFDE435F0FC9013C6F0A3EDF0A3747D36
:10A85700F0A314F07BDC7A007F147E0012965D90E3
:10A8670013B5E075F00AA42414FFE435F0FEAB0736
:10A87700FA9013C67401F0A37424F0A3747DF0A3B7
:10A8870014F07D5C7C0012965D9013B5E004F080B7
:10A897009B12DE4A12DDF212CE53129A6902DD983C
:10C0CE00EF121B5EC19500C19B01C1A202C0F461BB
:10C0DE00C16B63C11364C0F172C14E73C13277007C
:10C0EE0000C1AE02C192901611E06401600302C15C
:10C0FE00AE901613E060076401600302C1AE9016A5
:10C10E00137402F022901611E06401600302C1AEB6
:10C11E00901613E060076401600302C1AE9016131F
:10C12E007403F022901611E064017074901613E0FF
:10C13E00FF64026005EF64037066E4901613F0224C
:10C14E00901611E064017058901613E0FF640260BF
:10C15E0005EF6403704A9016137401F022901611C5
:10C16E00E06401700474028009901611E06402709C
:10C17E000504F002DD98901611E0FF64046005EFEF
:10C18E006403701C02E9A9E4901612800C9016123A
:10C19E00740180059016127402F012DDF212CD1A9F
:01C1AE00226E
:03EE8100027EE727
:04EE68007F03DFFE47
:01EE6C002283
:04EE6D007F12DFFE33
:01EE7100227E
:04EE72007F26DFFE1A
:01EE76002279
:04EE77007FC6DFFE75
:01EE7B002274
:09EDF400007F027E5ADEFEDFFC06
:01EDFD0022F3
:09EDFE00007F207E28DEFEDFFC10
:01EE070022E8
:10ECCA00AD07AC0612EDFEED1D70011C144C70F47C
:01ECDA002217
:07CBE90044183E016E360006
:10E7DF00E4F593F594F591F592F595F596F5B1F578
:10E7EF00B2F5B3F5B4F5C9F5CAF5CBF5CCF5E1F54E
:0DE7FF00E212EE3912EB6312E9CBC2C12227
:10EB3100C28CD2A95389FC5389FB538FFE438E802B
:09EB4100758CA2758A40D28C2269
:10EB4A00C28ED2AB5389CF5389BF538FFD438E40B8
:09EB5A00758DD1758B20D28E223D
:10EBDD00538EE343AF04538FFB438E0475D6E87514
:06EBED00D790438E1022B8
:10EC5C0053D1F043AF2043D10275D4ED75D5404369
:03EC6C00D10822AA
:10EC6F0053D10F43AF4043D12075D2F675D3A04394
:03EC7F00D180221F
:10EC82000102040810204080000000FFFF00000085
:02EC9200000080
:10EB630053B3EF43B41053B3F743B40853B3FB4366
:09EB7300B404C2C4C2C3C2C22230
:0DED8900C2C312EE72D2C312EE72C2C322D8
:05E44D009013BEEFF08A
:10E45200E4A3F09013BFE0C3940874809480502A20
:10E462009013BEE0548064807004D2C48002C2C49F
:10E4720012EE72C2C212EE72D2C212EE729013BECB
:0AE48200E025E0F0A3E004F080C9FB
:01E48C00226D
:10DFFA009013B7EBF0A3EAF0A3E9F0A3ECF0A3EDDA
:01E00A00F025
:10E00B00E4A3F0A3F09013BAE0FEA3E0FFA3E0FCBF
:10E01B00A3E0FDC39FEC9E50269013B7E0FBA3E05B
:10E02B00FAA3E0F98D828C8312161FFF12E44D9038
:10E03B0013BDE004F070CE9013BCE004F080C60278
:02E04B00ED895D
:10E9CB0078B57C137D017BFF7AEC798A7E007F0220
:10E9DB001215E07B017A1379B57D027C0002DFFA18
:10E9EB0078797C187D017BFF7AEC798C7E007F0235
:10E9FB001215E07B017A1879797D027C0002DFFA2F
:10EA0B00787B7C187D017BFF7AEC798E7E007F0210
:10EA1B001215E07B017A18797B7D027C0002DFFA0C
:05E1870090186AEFF0A2
:10E18C00786B7C187D017BFF7AEC79907E007F02A6
:10E19C001215E090186AE0FFD394077480948040C5
:10E1AC000BEF90EC7A9390186BF0800C90186AE05F
:10E1BC0090EC829390186CF07B017A18796B7D024D
:05E1CC007C0002DFFAF7
:10EA2B00787D7C187D017BFF7AEC79927E007F02EA
:10EA3B001215E07B017A18797D7D027C0002DFFAEA
:08CBF00041187FFE411880008E
:09EE300053B3FE43B401C2C02239
:09EE390053B3FE43B401D2C02220
:10DEA10090187FE0FF7E00647F7011A3E070047D15
:10DEB1000180027D00901880EDF08019EF64FE4E24
:10DEC1007013901880E0600D70047F0180027F0064
:10DED100901880EFF090187FE0FFF5E8A3E070085C
:10DEE100EF25E04401FF800990187FE0C3134480CF
:06DEF100FF90187FEFF026
:01DEF7002208
:03EE840002EA0B94
:0ECEEF009017BCEFF0A3EBF0A3EAF0A3E9F07C
:10CEFD00C3740F9F9017C3F0AE029017C0A3E0FA52
:10CF0D00A3E0C399FFEA9EFE9017BCE0FDC3740831
:10CF1D009DFDE49400FCD3EF9DEC6480F8EE6480FD
:10CF2D009850599017C0E0FBA3E0FAA3E0F9C003B5
:10CF3D00C002C0019017BDA3E0FAA3E0F9C3D082EF
:10CF4D00D083D0E0E99582EA958350309017C3E005
:10CF5D00FF12E1879017BDE0FBA3E0FAA3E0F91201
:10CF6D001606F5E812EDFE12EA2B9017C3E014F049
:0CCF7D009017BEE475F00112171D80A78C
:01CF89002285
:0ED720009017E4EBF0A3EAF0A3E9F0A3EDF01C
:10D72E009017E9740FF09017E9E0FFC39408748026
:10D73E009480405012E1879017E9E0FFC3740F9F69
:10D74E00FFE49400FE9017E8E07C002FFFEC3EFE15
:10D75E009017E7E0FD1216929017EAEDF09017E49D
:10D76E00E0FBA3E0FAA3E0F99017EAE0F5827583F7
:10D77E000012161FF5E812EDFE12EA2B9017E9E0E3
:04D78E0014F080A271
:01D792002274
:10CBF800521658C0F9A4B0999282F880908883C6DA
:05CC0800A1868EBFFFB4
:10EA890012E9EBE4F5CB75CCFF75E8FF53937F43AF
:0DEA99009480D2875395FD439602D2A122AE
:06A0170090172B121A6CD9
:10A01D0090172F7406F090172BE0FCEC3390173748
:10A02D0040057411F0801A7410F090172BE0FCA30A
:10A03D00E0FDA3E0FEA3E0FF12194D90172B121ABD
:10A04D006CE47B0AFAF9F890172BE0FCA3E0FDA372
:10A05D00E0FEA3E0FF12E3C8901730EBF0E47B0ABB
:10A06D00FAF9F890172BE0FCA3E0FDA3E0FEA3E0C6
:10A07D00FF12E3C8E47B0AFAF9F812E3C89017312E
:10A08D00EBF0E47B64FAF9F890172BE0FCA3E0FD0C
:10A09D00A3E0FEA3E0FF12E3C8E47B0AFAF9F8128D
:10A0AD00E3C8901732EBF0E47BE87A03F9F89017E8
:10A0BD002BE0FCA3E0FDA3E0FEA3E0FF12E3C8E468
:10A0CD007B0AFAF9F812E3C8901733EBF0E47B1032
:10A0DD007A27F9F890172BE0FCA3E0FDA3E0FEA38F
:10A0ED00E0FF12E3C8E47B0AFAF9F812E3C890170F
:10A0FD0034EBF07BA07A867901780090172BE0FC89
:10A10D00A3E0FDA3E0FEA3E0FF12E3C8E47B0AFA9F
:10A11D00F9F812E3C8901735EBF07B407A42790FCE
:10A12D00780090172BE0FCA3E0FDA3E0FEA3E0FF79
:10A13D0012E3C8E47B0AFAF9F812E3C8901736EB7C
:10A14D00F090172FE0FF3395E0FE74302FF58274F9
:10A15D00173EF583E0701A90172FE014F0EF33954A
:10A16D00E0FE74302FF58274173EF5837411F08084
:10A17D00D090172BE0FCA3E0FDA3E0FEA3E0FFECE5
:10A18D004D4E4F7004901730F090172F7407F090CC
:10A19D00172FE0FF3395E0C364809480403512E1C2
:10A1AD008790172FE0FF3395E0FE74302FF5827402
:10A1BD00173EF583E02458F582E43416F583E0F577
:10A1CD00E87F027E0012ECCA12EA2B90172FE014E2
:03A1DD00F080BC53
:01A1E000225C
:0BD95100901801EBF0A3EAF0A3E9F04E
:10D95C00EFC39408748094805057C374089FFEA33F
:10D96C00E0FDD39E504BC374089FC39DA3F0901849
:10D97C0004E0FF14F0EF6039A3E0FF12E187901888
:10D98C0001E0FBA3E0FAA3E0F9A3E0F582758300C4
:10D99C0012161F2458F582E43416F583E0F5E87F5F
:10D9AC00027E0012ECCA12EA2B901805E004F080FB
:01D9BC00BDAD
:01D9BD002247
:10ECDB00000102000300000004000000000000001F
:10CC0D004115D1FF5115D2002B0908072D0605043A
:08CC1D00780302012F23002A15
:10D319009015E4E0FC75F8F07E3CDEFEE5F854F08B
:10D329009015E4F075F80F7E3CDEFE9015E4E0FE02
:10D33900E5F8540FFDEE4DF0E0F4F06C70609015D7
:10D34900D0E0FC9015E4E09015D0F0604CC2D5EC2B
:10D359007004D2D5801B9015D0E0B504149015E364
:10D36900E004F0C394147480948040057412F0D2E0
:10D37900D530D52A9015D0E0FFC4540F90ECDB933B
:10D38900FC601BEF540F93FF6014EC1425E025E0BB
:10D39900FEEF2E9015D1F08005E49015E3F075F8B5
:01D3A900FF84
:01D3AA002260
:03EE8700256400FF
:10EBF30075E8FFC293D290C291C291D291E5E82009
:05EC0300E7FBAFE82271
:10E54900901894EFF0C291D293C290F5E87F017EC2
:10E559000012ECCAD2917F057E0012ECCAC29190DA
:10E569001894E0C454F0F5E87F017E0012ECCAD299
:0BE57900917F057E0012ECCAC29122C7
:10E58400901895EFF0C291C293C290F5E87F017E96
:10E594000012ECCAD2917F057E0012ECCAC291909F
:10E5A4001895E0C454F0F5E87F017E0012ECCAD25D
:0BE5B400917F057E0012ECCAC291228C
:0DED9600D293D290C291C291D291AFE822E7
:10DCE100E4F5E85391F74392085391FE43920153AF
:10DCF10091FD439202F5CB75CCFF7F3812E5847F0D
:10DD0100057E0012ECCA7F3812E5847F057E001281
:10DD1100ECCA7F3812E5847F057E0012ECCA7F329F
:10DD210012E5847F2812E5847F0C12E5847F0612B8
:0CDD3100E5847F0112E5847F8002E58418
:0CEDB0007F0112E5847F027E0002ECCAA5
:10E96300901896EBF0ED5401FDEF540FFFED6004AA
:10E97300EF4440FFEF4480FF12E584901896E0FFD8
:03E9830002E54961
:10DB5D009017EBEFF0A3EDF0A3EBF0A3EAF0A3E940
:01DB6D00F0C7
:10DB6E0012EC479017F0EFF09017ECE05401F090A4
:10DB7E0017EBE0540FF0E49017F1F09017F0E0FF80
:10DB8E00A3E0FEC39F502B9017EBE0FFA3E0FDA395
:10DB9E00E0FBA3E0FAA3E0F98E8275830012161F54
:10DBAE00FB12E9639017EBE004F09017F1E004F03C
:02DBBE0080C91C
:01DBC0002242
:0CE1D1009015E5EFF0A3EDF0AF03AE02F7
:10E1DD007B017A1579E79015F6EBF0A3EAF0A3E948
:10E1ED00F09013D474FFF0A374EEF0A37487F0A332
:10E1FD00EEF0A3EFF01252669015E5E0FFA3E0FDFF
:0EE20D009015F6E0FBA3E0FAA3E0F902DB5D5A
:0CEDBC0090FE82E030E6F9E054BFF02247
:10EAFB0043912043922043911043921043BA80904C
:0BEB0B00FE8074E0F090FE82E4F02237
:09EE420090FE817401F002EDBCA8
:09EE4B0090FE817406F002EDBC9A
:0EE93F0012EE4212ED4412E94DAF0512ED4406
:10E94D0090FE817403F012EDBC90FE82E030E10385
:06E95D007F01227F002271
:0EED360090FE82E4F090FE817405F002EDBCC8
:0FECEB0090FE827401F090FE817405F002EDBC82
:0EED440090FE86EFF090FE817402F002EDBCAE
:0FECFA0090FE817404F012EDBC90FE87E0FF22C3
:10E66D00AE0712E93F12EE42EE4401FF12ED4412E5
:10E67D00E94D12ECFAEF12164C740129F9E43AFA4D
:10E68D0090180BE06401600312ED3690180BE01446
:09E69D00F070DF12ECEB02EE4B11
:10E7150090180EEBF0A3EAF0A3E9F012E93F901888
:10E725000EE0FBA3E475F001121733A9F0FA1216F7
:10E7350006FF12ED4412E94D901811E014F070DE59
:03E7450002EE4B96
:103EBE0025640000000000003E5B4F5B3E3E6B4FF2
:103ECE006B3E1C3E7C3E1C183C7E3C181C577D579E
:103EDE001C1C5E7F5E1C00183C1800FFE7C3E7FF4A
:103EEE000018241800FFE7DBE7FF30483A060E26DD
:103EFE0029792926407F050507407F05253F5A3C35
:103F0E00E73C5A7F3E1C1C08081C1C3E7F14227F77
:103F1E0022145F5F005F5F06097F017F006689954F
:103F2E006A606060606094A2FFA29408047E040838
:103F3E0010207E201008082A1C08081C2A08081EBB
:103F4E00101010100C1E0C1E0C30383E3830060EA1
:103F5E003E0E06000000000000005F00000007009B
:103F6E000700147F147F14242A7F2A122313086457
:103F7E006236495620500008070300001C224100FB
:103F8E000041221C002A1C7F1C2A08083E0808003B
:103F9E0080703000080808080800006060002010DB
:103FAE000804023E5149453E00427F400072494995
:103FBE0049462141494D331814127F102745454576
:103FCE00393C4A4949314121110907364949493697
:103FDE00464949291E00001400000040340000002C
:103FEE00081422411414141414004122140802015E
:103FFE005909063E415D594E7C1211127C7F49498A
:10400E0049363E414141227F4141413E7F49494926
:10401E00417F090909013E414151737F0808087F1C
:10402E0000417F41002040413F017F081422417F23
:10403E00404040407F021C027F7F0408107F3E41BB
:10404E0041413E7F090909063E4151215E7F091912
:10405E002946264949493203017F01033F4040402A
:10406E003F1F2040201F3F4038403F631408146319
:10407E0003047804036159494D43007F41414102D5
:10408E0004081020004141417F0402010204404017
:10409E00404040000307080020545478407F2844D5
:1040AE0044383844444428384444287F38545454BF
:1040BE001800087E090218A4A49C787F08040478CE
:1040CE0000447D40002040403D007F102844000009
:1040DE00417F40007C047804787C080404783844DE
:1040EE00444438FC1824241818242418FC7C080492
:1040FE000408485454542404043F44243C404020B3
:10410E007C1C2040201C3C4030403C44281028445D
:10411E004C9090907C4464544C440008364100000E
:10412E0000770000004136080002010204023C261E
:10413E0023263C1EA1A161123A4040207A385454E5
:10414E00555921555579412154547841215554786A
:10415E004020545579400C1E5272123955555559FE
:10416E00395454545939555454580000457C410023
:10417E0002457D420001457C40F0292429F0F028BB
:10418E002528F07C545545002054547C547C0A0953
:10419E007F4932494949323248484832324A4848C2
:1041AE00303A4141217A3A42402078009DA0A07DCC
:1041BE0039444444393D4040403D3C24FF2424488A
:1041CE007E4943662B2FFC2F2BFF0929F620C08832
:1041DE007E090320545479410000447D4130484803
:1041EE004A32384040227A007A0A0A727D0D19311D
:1041FE007D2629292F28262929292630484D402079
:10420E00380808080808080808382F10C8ACBA2F54
:10421E00102834FA00007B000008142A14222214FD
:10422E002A1408AA005500AAAA55AA55AA000000E9
:10423E00FF00101010FF00141414FF001010FF00E8
:10424E00FF1010F010F0141414FC001414F700FFFB
:10425E000000FF00FF1414F404FC141417101F10B8
:10426E00101F101F1414141F00101010F000000067
:10427E00001F101010101F10101010F01000000072
:10428E00FF101010101010101010FF10000000FF83
:10429E00140000FF00FF00001F10170000FC04F4C4
:1042AE0014141710171414F404F40000FF00F7147C
:1042BE00141414141414F700F71414141714101003
:1042CE001F101F141414F4141010F010F000001F1F
:1042DE00101F0000001F14000000FC140000F0105E
:1042EE00F01010FF10FF141414FF141010101F0004
:1042FE00000000F010FFFFFFFFFFF0F0F0F0F0FF06
:10430E00FFFF0000000000FFFF0F0F0F0F0F3844DC
:10431E004438447C2A2A3E147E02020606027E029D
:10432E007E0263554941633844443C04407E201E5E
:10433E002006027E020299A5E7A5991C2A492A1C8D
:10434E004C7201724C304A4D4D303048784830BC7A
:10435E00625A463D3E494949007E0101017E2A2AA4
:10436E002A2A2A44445F444440514A444040444A25
:10437E0051400000FF0103E080FF000008086B6B56
:10438E00083612362436060F090F060000181800DC
:10439E0000001010003040FF0101001F01011E003F
:0E43AE00191D1712003C3C3C3C0000000000B2
:10E85E00901897EFF012EE427F7812ED4412E94DC8
:10E86E00E4FF12ED4412E94D901897E0FF12ED44CB
:06E87E0012E94D02EE4B11
:10E88400901898EFF012EE427F7812ED4412E94DA1
:10E894007F4012ED4412E94D901898E0FF12ED44C8
:06E8A40012E94D02EE4BEB
:05EB160024B0FFE4FD46
:10EB1B00901899EFF0ED6005E0FF02E884901899EA
:06EB2B00E0FF12E85E228B
:10E8AA0090189AEFF0ED12EB1690189AE054F0C413
:10E8BA00540F4410FFE4FD12EB1B90189AE0540F1A
:06E8CA00FFE4FD02EB1B60
:10EC0800E4FD7F8D12EB1BE4FD7F1412EB1BE4FD8A
:05EC18007FAF02EB1BC1
:10EC1D00E4FD7F8D12EB1BE4FD7F1012EB1BE4FD79
:05EC2D007FAE02EB1BAD
:10E5BF00E4FFEFC3940474809480502DE4FEEEC307
:10E5CF00948074809480501E75F004EEA424A8F5F6
:10E5DF0082E5F03411F583E5822FF582E43583F57A
:09E5EF0083E4F00E80D80F80C90E
:01E5F8002200
:10D9BE00E4901882F0901882E0FFC394047480946F
:10D9CE00805057EF12EB16E4FDFF12EB1BE4FD7FC8
:10D9DE001012EB1BE4901881F0901881E0FFC394B5
:10D9EE008074809480502BA3E0FE75F004EFA42485
:10D9FE00A8F582E5F03411F583E5822EF582E43543
:10DA0E0083F583E0FF7D0112EB1B901881E004F09B
:0ADA1E0080C7901882E004F0809B9E
:01DA280022DB
:10E5F900E4FEEEC3940474809480502DE4FDEDC3D1
:10E60900948074809480501E75F004EDA424A8F5BC
:10E6190082E5F03411F583E5822EF582E43583F540
:09E6290083EFF00D80D80E80C9CA
:01E6320022C5
:10C9E600901748A3E0FF90174CE075F00CA42F2B8E
:0FC9F600FF90174AA3E090174DFEE02EFD7B0146
:10CA0500EFD3948074809480400302CA90ED942003
:10CA1500748094805075EB6037ED131313541FFE2B
:10CA250075F004EFA424A8F582E5F03411F583E54B
:10CA3500822EF582E43583F583C083C082E0FFED65
:10CA45005407FEF87401088002C333D8FC4F8036C2
:10CA5500ED131313541FFE75F004EFA424A8F582FB
:10CA6500E5F03411F583E5822EF582E43583F5830F
:10CA7500C083C082E0FFED5407FEF8740108800210
:0CCA8500C333D8FCF45FD082D083F022D1
:0DBC4700901843EDF0A3EBF0901842EFF0E1
:10BC54003395E0C3648094805077E4FCECC394058E
:10BC640074809480400302BD32901844E075F0055E
:10BC7400A424C1F582E5F0343EF583E5822CF582F7
:10BC8400E43583F583E493901845F0E4F9E9FF7E05
:10BC940000C39408748094805034901842E0FDFBF3
:10BCA4003395E0FAEB2FEE3AC3648094804015900C
:10BCB4001845E030E00EED2CFF901843E029FD7BA1
:10BCC4000112CA05901845E0C313F00980BF0C8027
:10BCD4008BE4FCECC3940574809480505190184418
:10BCE400E075F005A424C1F582E5F0343EF583E562
:10BCF400822CF582E43583F583E493901845F0E4CF
:10BD0400F9E9C39408748094805020901845E03079
:10BD1400E00F901842E02CFFA3E029FD7B0112CA3A
:0EBD240005901845E0C313F00980D60C80A5E9
:01BD320022EE
:10DC2500901812EFF0A3EDF0A3EBF0A3EAF0A3E94F
:01DC3500F0FE
:10DC3600E4A3F0901814E0FBA3E0FAA3E0F9A3E054
:10DC4600F58275830012161FFB6032901812E0FFF2
:10DC5600A3E0FD12BC47901812E02408F0E0FF3361
:10DC660095E0FED3EF9478EE648094804007E4F06C
:0DDC7600A3E02402F0901817E004F080B63F
:01DC8300227E
:0CE633009016A0EFF0A3EDF0AF03AE02D4
:10E63F009013D474FFF0A3743EF0A374BEF0A3EE56
:10E64F00F0A3EFF07B017A1679A21252669016A012
:0EE65F00E0FFA3E0FD7B017A1679A202DC2524
:0E91B100901744EFF0A3EBF0A3EAF0A3E9F06F
:1091BF00A3E0FEA3E0FFC3EE64809480400302931C
:1091CF000EC3E49FFFE49EFE7C007D0C1216E79019
:1091DF00174CEFF0901744E0FF90174CE0C39F40FF
:1091EF0003029416E4A3F090174DE0C3940C74801F
:1091FF0094804003029305E4A3F090174EE0FD7CAA
:10920F0000C3940C7480948040030292FC90174C1E
:10921F00E075F00CA42DFFEC35F0FE901748E0FC44
:10922F00A3E0FD2FFFEC3ECF24F4CF34FFFED3EFAE
:10923F00947FEE64809480400302941690174DE063
:10924F00FF90174BE02FFF90174AE03400CF24F424
:10925F00CF34FFFED3EF943FEE648094804003023F
:10926F00941690174CE0F975F00CA4FFED2FFFEC5E
:10927F0035F0FE90174EE0FD7A002FEA3EC3648072
:10928F00948050028001C3405B90174DE075F0024F
:10929F00A4FBAAF0E975F018A42BFFE5F03AFEED58
:1092AF00131313541F7C002FFFEC3EFE901745E065
:1092BF00FBA3E0FAA3E0F98F828E8312161FFD90B5
:1092CF00174EE0FB5407FF7E007480A80708800646
:1092DF00CEA2E713CE13D8F8FFEE5CFEEF5D4E6023
:1092EF000312C9E690174EE004F002920990174D51
:1092FF00E004F00291F690174CE004F00291E3E4E1
:10930F0090174CF0901744E0FF90174CE0C39F402C
:10931F0003029416E4A3F090174DE0C3940C7480ED
:10932F009480400302940DE4A3F090174EE0FD7C6F
:10933F0000C3940C74809480400302940490174CE3
:10934F00E075F00CA42DFFEC35F0FE901749E02FDF
:10935F00FF901748E03ECF24F4CF34FFFED3EF94B5
:10936F007FEE64809480400302941690174DE0FFC7
:10937F00FD90174BE02DFD90174AE03CCD24F4CD26
:10938F0034FFFCD3ED943FEC648094805079EF75FB
:10939F00F002A4FDACF090174CE075F018A42DFF6F
:1093AF00E5F03CFE90174EE0131313541F7C002F73
:1093BF00FFEC3EFE901745E0FBA3E0FAA3E0F98F28
:1093CF00828E8312161FFD90174EE0FB5407FF7E0F
:1093DF00007480A807088006CEA2E713CE13D8F832
:1093EF00FFEE5CFEEF5D4E600312C9E690174EE094
:1093FF0004F002933990174DE004F0029326901772
:07940F004CE004F00293138E
:019416002233
:0E8CAC0090174FEFF0A3EBF0A3EAF0A3E9F06E
:108CBA00A3E0FEA3E0FFC3EE648094804003028E2B
:108CCA0021C3E49FFFE49EFE7C007D101216E7900C
:108CDA001757EFF090174FE0FF901757E0C39F40E8
:108CEA0003028F45E4A3F0901758E0C394107480F0
:108CFA0094804003028E18E4A3F0901759E0FD7C9B
:108D0A0000C39410748094804003028E0F9017570A
:108D1A00E075F010A42DFFEC35F0FE901753E0FC3F
:108D2A00A3E0FD2FFFEC3ECF24F0CF34FFFED3EFBC
:108D3A00947FEE648094804003028F45901758E038
:108D4A00FF901756E02FFF901755E03400CF24F01C
:108D5A00CF34FFFED3EF943FEE6480948040030249
:108D6A008F45901757E0F975F010A4FFED2FFFEC2F
:108D7A0035F0FE901759E0FD7A002FEA3EC3648071
:108D8A00948050028001C34073901758E075F00236
:108D9A00A4FBAAF0E975F020A42BFFE5F03AFEED5A
:108DAA00131313541F7C002FFFEC3EFE901750E064
:108DBA00FBA3E0FAA3E0F98F828E8312161FFD90BF
:108DCA001759E0FB5407FF7E007480A80708800645
:108DDA00CEA2E713CE13D8F8FFEE5CFEEF5D4E602D
:108DEA001B901753A3E0FF901757E0C454F02F2BA2
:108DFA00FF901755A3E090175812C9FF901759E032
:108E0A0004F0028D04901758E004F0028CF19017D8
:108E1A0057E004F0028CDEE4901757F090174FE009
:108E2A00FF901757E0C39F4003028F45E4A3F090D9
:108E3A001758E0C39410748094804003028F3CE476
:108E4A00A3F0901759E0FD7C00C3941074809480BD
:108E5A004003028F33901757E075F010A42DFFECF2
:108E6A0035F0FE901754E02FFF901753E03ECF24C1
:108E7A00F0CF34FFFED3EF947FEE648094804003FA
:108E8A00028F45901758E0FFFD901756E02DFD9090
:108E9A001755E03CCD24F0CD34FFFCD3ED943FECE4
:108EAA00648094804003028F45EF75F002A4FDAC04
:108EBA00F0901757E075F020A42DFFE5F03CFE90E6
:108ECA001759E0131313541F7C002FFFEC3EFE903A
:108EDA001750E0FBA3E0FAA3E0F98F828E83121603
:108EEA001FFD901759E0FB5407FF7E007480A80706
:108EFA00088006CEA2E713CE13D8F8FFEE5CFEEF89
:108F0A005D4E601C901753A3E0FF901757E0C454BE
:108F1A00F02F2BFF901755A3E0FE90175812CA00A6
:108F2A00901759E004F0028E4C901758E004F002B2
:0B8F3A008E39901757E004F0028E26DD
:018F45002209
:0E8A0F0090175AEFF0A3EBF0A3EAF0A3E9F002
:108A1D00A3E0FEA3E0FFC3EE648094804003028BCD
:108A2D0086C3E49FFFE49EFE7C007D181216E7903E
:108A3D001762EFF090175AE0FF901762E0C39F4066
:108A4D0003028CABE4A3F0901763E0C39418748019
:108A5D0094804003028B7DE4A3F0901764E0FD7CCD
:108A6D0000C39418748094804003028B7490176235
:108A7D00E075F018A42DFFEC35F0FE90175EE0FCCC
:108A8D00A3E0FD2FFFEC3ECF24E8CF34FFFED3EF64
:108A9D00947FEE648094804003028CAB901763E06A
:108AAD00FF901761E02FFF901760E03400CF24E8AE
:108ABD00CF34FFFED3EF943FEE64809480400302E9
:108ACD008CAB901762E0F975F018A4FFED2FFFEC59
:108ADD0035F0FE901764E0FD7A002FEA3EC3648006
:108AED00948050028001C34075901763E075F003C8
:108AFD00A4FBAAF0E975F048A42BFFE5F03AFEEDD2
:108B0D00131313541F7C002FFFEC3EFE90175BE0F8
:108B1D00FBA3E0FAA3E0F98F828E8312161FFD905E
:108B2D001764E0FB5407FF7E007480A807088006D9
:108B3D00CEA2E713CE13D8F8FFEE5CFEEF5D4E60CC
:108B4D001D90175EA3E0FF901762E075F018A42F3B
:108B5D002BFF901760A3E0FE90176312CA009017C9
:108B6D0064E004F0028A67901763E004F0028A540F
:108B7D00901762E004F0028A41E4901762F09017BA
:108B8D005AE0FF901762E0C39F4003028CABE4A351
:108B9D00F0901763E0C39418748094804003028CA6
:108BAD00A2E4A3F0901764E0FD7C00C394187480D8
:108BBD0094804003028C99901762E075F018A42DF3
:108BCD00FFEC35F0FE90175FE02FFF90175EE03E53
:108BDD00CF24E8CF34FFFED3EF947FEE64809480F2
:108BED004003028CAB901763E0FFFD901761E02D01
:108BFD00FD901760E03CCD24E8CD34FFFCD3ED941F
:108C0D003FEC648094804003028CABEF75F003A4BD
:108C1D00FDACF0901762E075F048A42DFFE5F03C37
:108C2D00FE901764E0131313541F7C002FFFEC3ECE
:108C3D00FE90175BE0FBA3E0FAA3E0F98F828E8331
:108C4D0012161FFD901764E0FB5407FF7E00748021
:108C5D00A807088006CEA2E713CE13D8F8FFEE5C66
:108C6D00FEEF5D4E601D90175EA3E0FF901762E072
:108C7D0075F018A42F2BFF901760A3E0FE901763DB
:108C8D0012CA00901764E004F0028BB1901763E0F4
:0E8C9D0004F0028B9E901762E004F0028B8BB5
:018CAB0022A6
:0E876900901765EFF0A3EBF0A3EAF0A3E9F0A0
:10877700A3E0FEA3E0FFC3EE648094804003028879
:10878700E5C3E49FFFE49EFE7C007D201216E79080
:10879700176DEFF0901765E0FF90176DE0C39F40EE
:1087A70003028A0EE4A3F090176EE0C3942074804E
:1087B700948040030288DCE4A3F090176FE0FD7C0F
:1087C70000C394207480948040030288D390176D6F
:1087D700E075F020A42DFFEC35F0FE901769E0FC62
:1087E700A3E0FD2FFFEC3ECF24E0CF34FFFED3EF15
:1087F700947FEE648094804003028A0E90176EE0A7
:10880700FF90176CE02FFF90176BE03400CF24E048
:10881700CF34FFFED3EF943FEE6480948040030291
:108827008A0E90176DE0F975F020A4FFED2FFFEC8D
:1088370035F0FE90176FE0FD7A002FEA3EC36480A3
:10884700948050028001C3407AED75F004A4FDAC1A
:10885700F0E975F080A42DFFE5F03CFE90176EE07F
:10886700131313541F7C002FFFEC3EFE901766E096
:10887700FBA3E0FAA3E0F98F828E8312161FFD9007
:10888700176EE0FB5407FF7E007480A80708800678
:10889700CEA2E713CE13D8F8FFEE5CFEEF5D4E6075
:1088A70022901769A3E0FF90176DE0C43354E02FBF
:1088B700FF90176FE02FFF90176BA3E02BFD7B0155
:1088C70012CA0590176FE004F00287C190176EE097
:1088D70004F00287AE90176DE004F002879BE490E6
:1088E700176DF0901765E0FF90176DE0C39F400389
:1088F700028A0EE4A3F090176EE0C394207480946C
:10890700804003028A05E4A3F090176FE0FD7C0026
:10891700C394207480948040030289FC90176DE013
:1089270075F020A42DFFEC35F0FE90176AE02FFFBD
:10893700901769E03ECF24E0CF34FFFED3EF947F5A
:10894700EE648094804003028A0E90176EE0FDFF6C
:1089570090176CE02FFF90176BE03400CF24E0CF27
:1089670034FFFED3EF943FEE648094804003028A85
:108977000E90176FE075F004A4FBAAF090176DE056
:1089870075F080A42BFFE5F03AFEED131313541F87
:108997002FFFEC3EFE901766E0FBA3E0FAA3E0F999
:1089A7008F828E8312161FFD90176EE0FB5407FF10
:1089B7007E007480A807088006CEA2E713CE13D8DE
:1089C700F8FFEE5CFEEF5D4E6022901769A3E0FFB3
:1089D70090176DE0C43354E02FFF90176FE02FFF1F
:1089E70090176BA3E02BFD7B0112CA0590176FE070
:1089F70004F002891090176EE004F00288FD9017CA
:078A07006DE004F00288EAB3
:018A0E002245
:0AD5390090178FEFF0901791EBF0C0
:10D54300E4901796F0A3F0901792E0131313541F6F
:10D55300F0540770028000AF05AE07901792E0FF0A
:10D56300EEC39F504C90178FE0FF901791E0FDEFB3
:10D57300C39D503A901793E0FBA3E0FAA3E0F9A30D
:10D58300E475F00112173385F082F58312161FFD3F
:10D5930075F004EFA424A8F582E5F03411F583E5D2
:10D5A300822EF582E43583F583EDF00F80BC0E8087
:01D5B300AACD
:01D5B4002254
:10C88D0012EAFB7F647E0012ECCAE4FD7FAE12EB70
:10C89D001BE4FD7F4012EB1BE4FD7FB012EB1BE4AC
:10C8AD00FD7FC812EB1BE4FD7F8112EB1BE4FD7FC6
:10C8BD00FF12EB1BE4FD7FA112EB1BE4FD7FA61223
:10C8CD00EB1BE4FD7FA812EB1BE4FD7F1F12EB1B9E
:10C8DD00E4FD7FD312EB1BE4FDFF12EB1BE4FD7FA8
:10C8ED00D512EB1BE4FD7FF012EB1BE4FD7FD9129B
:10C8FD00EB1BE4FD7F2212EB1BE4FD7FDA12EB1B39
:10C90D00E4FD7F0212EB1BE4FD7FDB12EB1BE4FD6C
:10C91D007F4912EB1BE4FD7F8D12EB1BE4FD7F14B1
:0DC92D0012EB1BE4FD7FAF12EB1B02E5BF18
:09EE0800007F027E3CDEFEDFFC0F
:01EE110022DE
:0EED5200C2C67F147E0012ECCAD2C602EE08C2
:10DC8400E490189BF030C61590189BE0C39464741C
:10DC94008094805008E004F012EE6880E890189BAD
:10DCA400E0C394647480948040037F0122E490185C
:10DCB4009BF020C61590189BE0C3946474809480F4
:10DCC4005008E004F012EE6880E890189BE0C394DA
:0CDCD400647480948040037F01227F0074
:01DCE0002221
:10E2F800E490189CF030C61590189CE0C3946474A0
:10E308008094805008E004F012EE6880E8E49018E9
:10E318009CF020C61590189CE0C394647480948087
:10E328005008E004F012EE6880E812EE0830C603E8
:05E338007F01227F00BF
:01E33D0022BD
:10E6A600E4901884F0901883F0901883E0C39408DF
:10E6B60074809480501CA3E0FF25E0F0E0FEC006C5
:10E6C60012E2F8D0E04F901884F0901883E004F03E
:07E6D60080D7901884E0FFDB
:01E6DD00221A
:0BC7DC00901798EBF0A3EAF0A3E9F03F
:10C7E70012ED5212DC84EF600302C8879017A0F0A5
:10C7F7009017A0E0C3940574809480501A12E6A69F
:10C807009017A0E0249BF582E43417F583EFF090AE
:10C8170017A0E004F080D990179CE0FF90179BE0E9
:10C827002FFFE433FE90179DE07C002FFFEC3EFEC8
:10C83700A3E02FFFEC3EFEA3E06F7001EE70449083
:10C84700179BE0FF901798E0FBA3E0FAA3E0F9EF4E
:10C8570012164C90179CE0FF901798E0FBA3E0FAA4
:10C86700A3E0F9900001EF12165E90179DE090008B
:10C877000212165E90179EE090000312165E800368
:05C887007F01227F008B
:01C88C002289
:0EED600053B3BF53B4BFD2C612ED5202DC84CF
:10EC94007B017A18794612C7DCEF70F4901846E0CD
:01ECA400FF70
:01ECA500224C
:10C663007B017A1779C412C7DCEF70F49017C6E028
:10C67300547FFCE412125C9017C8121A6C9017C80E
:10C68300E0FCA3E0FDA3E0FEA3E0FFE4FBFA7920D6
:10C6930078411210339017C8121A6C9017C8E0F83B
:10C6A300A3E0F9A3E0FAA3E0FBC000C001C002C00D
:10C6B300039017C7E0FCE412125CD003D002D00150
:10C6C300D000120F429017C8121A6C9017C8E0FCE2
:10C6D300A3E0FDA3E0FEA3E0FFE4FBFA79207841A9
:10C6E30012113C9017C8121A6C9017C6E030E71E5F
:10C6F3009017C8E0FCA3E0FDA3E0FEA3E0FFE4FB8A
:10C70300FA798078BF1210339017C8121A6C9017F9
:0CC71300C8E0FCA3E0FDA3E0FEA3E0FFF3
:01C71F0022F7
:10276F0025640000000000000000000000000000D1
:10277F00000404040404040004000000140A0A0006
:10278F0000000000000000000014143F140A3F0A6C
:10279F000A000000041E1505060C14150F04000096
:1027AF000012150D0A142C2A1200000000040A0A48
:1027BF001E1515093600000002020100000000007E
:1027CF00000000002010080808080808102000006A
:1027DF000204080808080808040200000000041595
:1027EF000E0E150400000000000404041F0404046E
:1027FF0000000000000000000000000002020100C5
:10280F00000000001F00000000000000000000009A
:10281F000000000002000000100808080404020273
:10282F0002010000000E1111111111110E00000014
:10283F0000040604040404040E000000000E11112D
:10284F00080402011F000000000E11100C101011DF
:10285F000E00000000080C0A0A091E0818000000EC
:10286F00001F01010F1010110E000000000E0901D2
:10287F000F1111110E000000001F090804040404B9
:10288F0004000000000E11110E1111110E000000B6
:10289F00000E1111111E10120E0000000000000496
:1028AF000000000004000000000000000400000011
:1028BF000404000020100804020408102000000087
:1028CF000000001F00001F0000000000020408109D
:1028DF002010080402000000000E1111080404006B
:1028EF0004000000000E111915151D011E00000037
:1028FF000004040C0A0A1E1233000000000F12120B
:10290F000E1212120F000000001E11010101011121
:10291F000E000000000F1212121212120F00000010
:10292F00001F120A0E0A02121F000000001F120AD7
:10293F000E0A020207000000001C120101391112D9
:10294F000C000000003312121E121212330000008E
:10295F00001F0404040404041F000000003E0808C4
:10296F0008080808090700000037120A060A0A12A9
:10297F003700000000070202020202223F0000009F
:10298F00001B1B1B1B15151515000000003B121615
:10299F00161A1A1217000000000E11111111111141
:1029AF000E000000000F12120E02020207000000BC
:1029BF00000E1111111117190E180000000F12122D
:1029CF000E0A121237000000001E11010608101126
:1029DF000F000000001F1504040404040E00000083
:1029EF0000331212121212120C00000000331212D6
:1029FF000A0A0C0404000000001515150E0A0A0A35
:102A0F000A000000001B0A0A04040A0A1B00000047
:102A1F00001B0A0A040404040E000000001F09082A
:102A2F00040402121F0000001C0404040404040424
:102A3F00041C000002020204040808081000000031
:102A4F000E08080808080808080E0000040A00000D
:102A5F000000000000000000000000000000000067
:102A6F0000003F0004000000000000000000000014
:102A7F00000000000C121C123C00000000030202B8
:102A8F000E1212120E000000000000001C120202B3
:102A9F001C000000001810101C1212123C00000045
:102AAF00000000000C121E021C000000003804047D
:102ABF001E0404041E000000000000003C120C0263
:102ACF001E221C00000302020E1212123700000019
:102ADF0000040000060404040E00000000080000BB
:102AEF000C08080808080700000302023A0A0E1231
:102AFF003700000000070404040404041F00000052
:102B0F00000000000F151515150000000000000053
:102B1F000F12121237000000000000000C121212E8
:102B2F000C000000000000000F1212120E0207002E
:102B3F00000000001C1212121C10380000000000D0
:102B4F001B06020207000000000000001E020C100E
:102B5F001E000000000004040E040404180000000E
:102B6F00000000001B1212123C00000000000000C9
:102B7F0037120A0C040000000000000015150E0AA1
:102B8F000A000000000000001B0A040A1B000000DE
:102B9F000000000037120A0C0404030000000000BC
:102BAF001E0804041E00000018080808040808087E
:102BBF000818000808080808080808080808080086
:102BCF000604040408040404040600022518000087
:102BDF0000000000000000000000000000000000E6
:102BEF0000000000000000000000080808080808A6
:102BFF000800001818000000486C241200000000A4
:102C0F00000000000000000000002424247F1212A6
:102C1F00127F12121200000000081C2A2A0A0C1838
:102C2F0028282A2A1C080800000022251515152A15
:102C3F00585454542200000000000C1212120A764D
:102C4F00252911916E000000060604030000000004
:102C5F0000000000000000004020101008080808C5
:102C6F00080810102040000002040808101010106F
:102C7F00101008080402000000000008086B1C1C5C
:102C8F006B08080000000000000000080808087F1B
:102C9F000808080800000000000000000000000005
:102CAF00000000060604030000000000000000FE04
:102CBF000000000000000000000000000000000005
:102CCF000000000606000000008040402020101089
:102CDF000808040402020000000018244242424285
:102CEF0042424224180000000000080E080808089D
:102CFF00080808083E00000000003C424242202025
:102D0F00100804427E00000000003C4242201820C0
:102D1F00404042221C0000000000203028242422C2
:102D2F00227E20207800000000007E0202021A2678
:102D3F00404042221C0000000000382402021A26E4
:102D4F00424242241800000000007E222210100888
:102D5F00080808080800000000003C4242422418FE
:102D6F00244242423C0000000000182442424264C8
:102D7F00584040241C0000000000000000181800FC
:102D8F0000000018180000000000000000000800FC
:102D9F000000000008080400000040201008040292
:102DAF00040810204000000000000000007F000019
:102DBF00007F000000000000000002040810204007
:102DCF00201008040200000000003C424246402050
:102DDF00101000181800000000001C225A555555FD
:102DEF00552D42221C00000000000808181414245E
:102DFF003C224242E700000000001F2222221E2236
:102E0F00424242221F00000000007C4242010101A9
:102E1F00010142221C00000000001F2242424242D8
:102E2F00424242221F00000000003F4212121E12B7
:102E3F00120242423F00000000003F4212121E12D7
:102E4F00120202020700000000003C2222010101D1
:102E5F00712122221C0000000000E7424242427E04
:102E6F0042424242E700000000003E0808080808FE
:102E7F00080808083E00000000007C101010101019
:102E8F001010101010110F0000007722120A0E0AF6
:102E9F001212222277000000000007020202020233
:102EAF00020202427F000000000077363636362AD3
:102EBF002A2A2A2A6B0000000000E346464A4A529B
:102ECF00525262624700000000001C224141414102
:102EDF00414141221C00000000003F424242423E5D
:102EEF00020202020700000000001C224141414182
:102EFF00414D53321C60000000003F4242423E12DF
:102F0F0012222242C700000000007C424202041835
:102F1F00204042423E00000000007F490808080898
:102F2F00080808081C0000000000E7424242424225
:102F3F00424242423C0000000000E7424222242469
:102F4F00141418080800000000006B49494949553E
:102F5F0055362222220000000000E74224241818D0
:102F6F0018242442E70000000000772222141408DE
:102F7F00080808081C00000000007E21201010081F
:102F8F00040442423F0000007808080808080808B7
:102F9F00080808080878000000020204040808085E
:102FAF0010102020204040001E1010101010101084
:102FBF0010101010101E0000384400000000000018
:102FCF0000000000000000000000000000000000F2
:102FDF00000000000000FF000608000000000000D5
:102FEF0000000000000000000000000000003C4254
:102FFF0078444242FC0000000000030202021A263D
:10300F00424242261A00000000000000000038442F
:10301F000202024438000000000060404040784443
:10302F0042424264D80000000000000000003C4211
:10303F007E0202423C0000000000F08808087E0873
:10304F00080808083E0000000000000000007C2275
:10305F00221C023C42423C000000030202023A469C
:10306F0042424242E700000000000C0C00000E0834
:10307F00080808083E00000000003030000038202B
:10308F002020202020221E000000030202027212C4
:10309F000A1612227700000000000E080808080820
