:0EBC74004100020042020300324200000000C4
:10A353009004077401F0E4900410F0A374FFF0126A
:10A36300CB4012CE4512CF83D2AF12CEA912D15019
:10A3730012907B7B017A04790812B1B390040CA389
:10A38300A3E0FEA3E0FBAA06900408A3A3E0FEA3B8
:10A39300E02BFFEE3AFE12C50E12CD9D1297F990F7
:10A3A3000558E0FF3395E0C364809480401AEF338F
:10A3B30095E0FE74592FF58274053EF583E0900411
:10A3C30011F090055874FFF0900002E06010E4F083
:10A3D30012D0E5EF600812D15E900410EFF0900404
:10A3E30007E06008123CB3E4900407F0900410E027
:10A3F300FD6041900407E04401F0ED24F46024245F
:10A40300FE602424FA601424FE601424FD600824F2
:10A413000870197F7780127F73800E7F61800A7FB7
:10A423006480067F7180027F7212B74CE49004103F
:10A43300F002A3A2900411E0FBFD3395E0FCEDF4E0
:10A443007002ECF4700302A3A2900407E04401F04D
:10A45300EB24DD602824F9602024FD601424FE60D1
:10A463000C24B76010244D70197F7780127F73809E
:10A473000E7F61800A7F6480067F7180027F721283
:0BA48300B74C90041174FFF002A3A27C
:03000B0002BDE54E
:10BDE500C0E0C0F0C083C082C0D075D000C000C024
:0DBDF50001C002C003C004C005C006C007A5
:10BE0200900001E02401FF900000E03400FE900267
:10BE120003E0FAA3E0FBFDAC021221BB900000ECB0
:10BE2200F0A3EDF0EB24FFFFEA34FFFE900000E008
:0BBE3200B50608A3E0B5070312000EE0
:10BE3D00D007D006D005D004D003D002D001D00059
:0BBE4D00D0D0D082D083D0F0D0E03203
:0300A30002C7A9E8
:10C7A900C0E0C0F0C083C082C0D075D000C000C056
:10C7B90001C002C003C004C005C006C00712AC48CE
:10C7C9009000027401F0D007D006D005D004D00340
:10C7D900D002D001D000D0D0D082D083D0F0D0E028
:01C7E900321D
:108E7B0000000000000000000000000000000000E7
:108E8B00000000000000000000000FF00000387828
:108E9B00000070380000F0380000F0780000F07827
:108EAB00000000F0000000E0000001C000000380A3
:108EBB000000070000000E000000380000007000EA
:108ECB000000E0000001800000030180000E0300A1
:108EDB00001C0600003FFE00003FFC0000000000ED
:108EEB000000000000000000000000000000000077
:108EFB000000000000000000000000000000000067
:108F0B00000000000000000000000FE000001C70DB
:108F1B000000387000007070000060700000E0709E
:108F2B000000E0700001C0E00001C0E0000380E041
:108F3B00000381C0000381C0000703C0000703804A
:108F4B000007038000070700000F0700000E0E004C
:108F5B0000061C00000738000003F00000000000B2
:108F6B0000000000000000000000000000000000F6
:108F7B0000000000000000000000000000000000E6
:108F8B00000000000000000000000070000000E086
:108F9B00000001E0000003E0000007C000000FC06C
:108FAB0000001BC000003380000067800000C7007A
:108FBB000001870000030F0000060E00000C0E00DE
:108FCB00001FFFC0003FFFC000001C0000003C0062
:108FDB000000380000007C000003FF0000000000D0
:108FEB000000000000000000000000000000000076
:108FFB000000000000000000000000000000000066
:10900B00000000000000000000000FF000001C3802
:10901B0000003838000070380000F0380000F070A5
:10902B000000F0600000F1C000007F8000003E00F7
:10903B0000007F000001CF80000387C0000703C042
:10904B00000E03C0000C03C0000C0380000C0700D3
:10905B00000E0E000007BC000001E0000000000045
:10906B0000000000000000000000000000000000F5
:10CD9D007B017A0479A290077BEBF0A3EAF0A3E97B
:0DCDAD00F09004177425F0E4FFFE02BF4370
:10CC9900E4FFFE12CB0E7B017A0479A290077BEBAD
:10CCA900F0A3EAF0A3E9F090041C7425F0E4FFFE78
:03CCB90002A80EC0
:10BFAC0042657374203A0053636F72653A00253111
:10BFBC00396400256400202020202020202020200F
:10BFCC00596F752057696E202120202020202020B9
:10BFDC0020200020202020202020202020596F7598
:10BFEC00204C6F7365212020202020202020200051
:10BFFC004A6F696E207468652074696C65732C20B7
:0DC00C0067657420746F20323034382100D5
:05BC82004204A00800CF
:10B33800E4900424F0FFEFC3940474809480504890
:10B34800E4FEEEC39404748094805039EF75F008DD
:10B35800A424A2F582E43404F58375F002EE1224E5
:10B36800E5E0FCA3E04C701AEF25E025E02EFD9007
:10B378000424E0FC04F074142CF582E43404F5830E
:10B38800EDF00E80BD0F80AE900424E07002FF2225
:10B3980012C4D0900424E0FD7C0012221074142DF5
:10B3A800F58274043CF583E0900413F012C4D07C59
:10B3B800007D0A122210ED64014C7005FE7F0480A6
:10B3C800047E007F02900413E0FD1313543F75F0D0
:10B3D80008A424A2F582E43404F583ED540375F03F
:0BB3E800021224E5EEF0A3EFF07F015D
:01B3F3002237
:10693700E4F9E9FF3395E0FEC3EF9404EE64809435
:10694700804003026C15E4900414F0A3F0A3F090C8
:106957000413F0900413E0FFFD3395E0FCC3ED94BE
:1069670004EC648094804003026C11EF3395E0FCE3
:10697700ED25E0FBEC33FAE9FF3395E0FEEF780312
:10698700C333CE33CED8F924A2F58274043EF583FF
:10699700E5822BF582E5833AF583E0FAA3E0FBED88
:1069A70025E0FDEC33FCE9FF3395E0FEEF7803C308
:1069B70033CE33CED8F92417F58274043EF583E538
:1069C700822DF582E5833CF583EAF0A3EBF0E9FF3E
:1069D7003395E0FEEF7803C333CE33CED8F924A244
:1069E700F58274043EF583E5822DF582E5833CF557
:1069F70083E0FEA3E0FF4E7003026C08900415E0ED
:106A0700FCA3E0FD4C700B900415EEF0A3EFF00231
:106A17006B87900413E0FF3395E0FEEF25E0FBEE74
:106A270033FAE9FF3395E0FEEF7803C333CE33CE75
:106A3700D8F924A2F58274043EF583E5822BF5820A
:106A4700E5833AF583E0FEA3E06D7002EC6E600328
:106A5700026B02900416E025E0FD900415E033FC7C
:106A6700900414E0FF3395E0FEEF25E0FBEE33FAE8
:106A7700E9FF3395E0FEEF7803C333CE33CED8F981
:106A870024A2F58274043EF583E5822BF582E58323
:106A97003AF583ECF0A3EDF0900416E025E0FF90C3
:106AA7000415E033FE9004C3E02FF09004C2E03EEB
:106AB700F0E4900415F0A3F0E9FF3395E0FEEF78DA
:106AC70003C333CE33CED8F924A2F58274043EF53E
:106AD70083E5822BF582E5833AF583E0FEA3E0FFA9
:106AE7009004A0E0FCA3E0FDEF6D7002EE6C600384
:106AF700026B819004C604F0026B81900415E0FCE0
:106B0700A3E0FD900414E0FF3395E0FEEF25E0FBE2
:106B1700EE33FAE9FF3395E0FEEF7803C333CE3364
:106B2700CED8F924A2F58274043EF583E5822BF5CD
:106B370082E5833AF583ECF0A3EDF0900413E0FFD0
:106B47003395E0FEEF25E0FDEE33FCE9FF3395E0FA
:106B5700FEEF7803C333CE33CED8F924A2F582747F
:106B6700043EF583E5822DF582E5833CF583E0FF5E
:106B7700A3E0900415CFF0A3EFF0900414E004F025
:106B8700900413E0FF3395E0FEEF25E0FDEE33FCC4
:106B9700E9FF3395E0FEEF7803C333CE33CED8F960
:106BA70024A2F58274043EF583E5822DF582E58300
:106BB7003CF583E4F0A3F0900415E07002A3E060D5
:106BC70040900415E0FCA3E0FD900414E0FF33952A
:106BD700E0FEEF25E0FBEE33FAE9FF3395E0FEEF49
:106BE7007803C333CE33CED8F924A2F58274043E9A
:106BF700F583E5822BF582E5833AF583ECF0A3ED87
:106C0700F0900413E004F002695A09026939E4F9C3
:106C1700E9FF3395E0FEC3EF9404EE64809480406F
:106C270003026CBEE4900413F0900413E0FFFD33FD
:106C370095E0FCC3ED9404EC648094805075EF33C9
:106C470095E0FCED25E0FBEC33FAE9FF3395E0FE38
:106C5700EF7803C333CE33CED8F92417F582740403
:106C67003EF583E5822BF582E5833AF583E0FAA3C7
:106C7700E0FBED25E0FDEC33FCE9FF3395E0FEEFAB
:106C87007803C333CE33CED8F924A2F58274043EF9
:106C9700F583E5822DF582E5833CF583E0FEA3E0ED
:106CA7006B7002EE6A60037F0122900413E004F028
:096CB700026C3009026C177F0029
:016CC00022B1
:106CC100E4F9E9FF3395E0FEC3EF9404EE648094A8
:106CD100804003026F9E9004147403F0E4A3F0A3B8
:106CE100F09004137403F0900413E0FF3395E0C3B4
:106CF100648094805003026F9AEFFD3395E0FCEDC0
:106D010025E0FBEC33FAE9FF3395E0FEEF7803C3AE
:106D110033CE33CED8F924A2F58274043EF583E54F
:106D2100822BF582E5833AF583E0FAA3E0FBED25BA
:106D3100E0FDEC33FCE9FF3395E0FEEF7803C3336C
:106D4100CE33CED8F92417F58274043EF583E5825B
:106D51002DF582E5833CF583EAF0A3EBF0E9FF33FF
:106D610095E0FEEF7803C333CE33CED8F924A2F5F4
:106D71008274043EF583E5822DF582E5833CF5833B
:106D8100E0FEA3E0FF4E7003026F91900415E0FC5A
:106D9100A3E0FD4C700B900415EEF0A3EFF0026F31
:106DA10010900413E0FF3395E0FEEF25E0FBEE3396
:106DB100FAE9FF3395E0FEEF7803C333CE33CED843
:106DC100F924A2F58274043EF583E5822BF582E570
:106DD100833AF583E0FEA3E06D7002EC6E6003027E
:106DE1006E8B900416E025E0FD900415E033FC90D5
:106DF1000414E0FF3395E0FEEF25E0FBEE33FAE902
:106E0100FF3395E0FEEF7803C333CE33CED8F924B8
:106E1100A2F58274043EF583E5822BF582E5833A7F
:106E2100F583ECF0A3EDF0900416E025E0FF90046B
:106E310015E033FE9004C3E02FF09004C2E03EF071
:106E4100E4900415F0A3F0E9FF3395E0FEEF780339
:106E5100C333CE33CED8F924A2F58274043EF58330
:106E6100E5822BF582E5833AF583E0FEA3E0FF900E
:106E710004A0E0FCA3E0FDEF6D7002EE6C60030284
:106E81006F0A9004C604F0026F0A900415E0FCA397
:106E9100E0FD900414E0FF3395E0FEEF25E0FBEE0A
:106EA10033FAE9FF3395E0FEEF7803C333CE33CEF7
:106EB100D8F924A2F58274043EF583E5822BF5828C
:106EC100E5833AF583ECF0A3EDF0900413E0FF3392
:106ED10095E0FEEF25E0FDEE33FCE9FF3395E0FEA2
:106EE100EF7803C333CE33CED8F924A2F5827404EC
:106EF1003EF583E5822DF582E5833CF583E0FFA332
:106F0100E0900415CFF0A3EFF0900414E014F0909A
:106F11000413E0FF3395E0FEEF25E0FDEE33FCE9DD
:106F2100FF3395E0FEEF7803C333CE33CED8F92497
:106F3100A2F58274043EF583E5822DF582E5833C5A
:106F4100F583E4F0A3F0900415E07002A3E0604043
:106F5100900415E0FCA3E0FD900414E0FF3395E0FC
:106F6100FEEF25E0FBEE33FAE9FF3395E0FEEF7823
:106F710003C333CE33CED8F924A2F58274043EF58F
:106F810083E5822BF582E5833AF583ECF0A3EDF0FE
:106F9100900413E014F0026CE809026CC3E4F9E90F
:106FA100FF3395E0FEC3EF9404EE648094804003C8
:106FB100027047E4900413F0900413E0FFFD339551
:106FC100E0FCC3ED9404EC648094805075EF33953C
:106FD100E0FCED25E0FBEC33FAE9FF3395E0FEEF51
:106FE1007803C333CE33CED8F92417F58274043E27
:106FF100F583E5822BF582E5833AF583E0FAA3E098
:10700100FBED25E0FDEC33FCE9FF3395E0FEEF7885
:1070110003C333CE33CED8F924A2F58274043EF5EE
:1070210083E5822DF582E5833CF583E0FEA3E06BE9
:107031007002EE6A60037F0122900413E004F00203
:087041006FB909026FA07F0086
:017049002224
:10704A00E4F9E9FF3395E0FEC3EF9404EE6480941B
:10705A00804003027308E4900414F0A3F0A3F090B4
:10706A000413F0900413E0FF3395E0FEC3EF940499
:10707A00EE648094804003027304E9FD3395E0FCDA
:10708A00ED25E0FBEC33FAE03395E0FEEF7803C33D
:10709A0033CE33CED8F924A2F58274043EF583E5C3
:1070AA00822BF582E5833AF583E0FAA3E0FBED252E
:1070BA00E0FDEC33FC900413E0FF3395E0FEEF783B
:1070CA0003C333CE33CED8F9FF2417F58274043EB6
:1070DA00F583E5822DF582E5833CF583EAF0A3EB9F
:1070EA00F074A22FF58274043EF583E5822DF582B1
:1070FA00E5833CF583E0FEA3E0FF4E70030272FBDA
:10710A00900415E0FCA3E0FD4C700B900415EEF022
:10711A00A3EFF0027280E9FF3395E0FEEF25E0FB72
:10712A00EE33FA900413E0FF3395E0FEEF7803C3E1
:10713A0033CE33CED8F924A2F58274043EF583E522
:10714A00822BF582E5833AF583E0FEA3E06D7002B7
:10715A00EC6E6003027208900416E025E0FD9004CC
:10716A0015E033FCE9FF3395E0FEEF25E0FBEE3353
:10717A00FA900414E0FF3395E0FEEF7803C333CEB0
:10718A0033CED8F924A2F58274043EF583E5822B26
:10719A00F582E5833AF583ECF0A3EDF0900416E06E
:1071AA0025E0FF900415E033FE9004C3E02FF09031
:1071BA0004C2E03EF0E4900415F0A3F0900414E059
:1071CA00FF3395E0FEEF7803C333CE33CED8F924EC
:1071DA00A2F58274043EF583E5822BF582E5833AB3
:1071EA00F583E0FEA3E0FF9004A0E0FCA3E0FDEF3E
:1071FA006D7002EE6C70799004C604F0807290048F
:10720A0015E0FCA3E0FDE9FF3395E0FEEF25E0FB86
:10721A00EE33FA900414E0FF3395E0FEEF7803C3EF
:10722A0033CE33CED8F924A2F58274043EF583E531
:10723A00822BF582E5833AF583ECF0A3EDF0900416
:10724A0013E0FF3395E0FEEF7803C333CE33CED895
:10725A00F924A2F58274043EF583E5822BF582E5D2
:10726A00833AF583E0FFA3E0900415CFF0A3EFF093
:10727A00900414E004F0E9FD3395E0FCED25E0FB11
:10728A00EC33FA900413E0FF3395E0FEEF7803C382
:10729A0033CE33CED8F924A2F58274043EF583E5C1
:1072AA00822BF582E5833AF583E4F0A3F090041586
:1072BA00E07002A3E0603A900415E0FAA3E0FBED67
:1072CA0025E0FDEC33FC900414E0FF3395E0FEEF7B
:1072DA007803C333CE33CED8F924A2F58274043EA0
:1072EA00F583E5822DF582E5833CF583EAF0A3EB8D
:1072FA00F0900413E004F002706D0902704CE490FF
:10730A000413F0900413E0FF3395E0FEC3EF9404F6
:10731A00EE6480948040030273B7E4F9E9FF339581
:10732A00E0FEC3EF9404EE648094805077E9FD3365
:10733A0095E0FCED25E0FBEC33FA900413E0FF3313
:10734A0095E0FEEF7803C333CE33CED8F92417F590
:10735A008274043EF583E5822BF582E5833AF58350
:10736A00E0FAA3E0FBED25E0FDEC33FC900413E02A
:10737A00FF3395E0FEEF7803C333CE33CED8F9243A
:10738A00A2F58274043EF583E5822DF582E5833CFD
:10739A00F583E0FEA3E06B7002EE6A60037F0122D0
:0F73AA0009027326900413E004F002730D7F00B4
:0173B90022B1
:1073BA00E4F9E9FF3395E0FEC3EF9404EE648094A8
:1073CA008040030276779004147403F0E4A3F0A3D8
:1073DA00F09004137403F0900413E03395E0C3644F
:1073EA008094805003027673E9FD3395E0FCED2525
:1073FA00E0FBEC33FAE0FF3395E0FEEF7803C333AA
:10740A00CE33CED8F924A2F58274043EF583E58200
:10741A002BF582E5833AF583E0FAA3E0FBED25E05C
:10742A00FDEC33FC900413E0FF3395E0FEEF7803A4
:10743A00C333CE33CED8F9FF2417F58274043EF550
:10744A0083E5822DF582E5833CF583EAF0A3EBF030
:10745A0074A22FF58274043EF583E5822DF582E548
:10746A00833CF583E0FEA3E0FF4E700302766A9048
:10747A000415E0FCA3E0FD4C700B900415EEF0A39C
:10748A00EFF00275EFE9FF3395E0FEEF25E0FBEE42
:10749A0033FA900413E0FF3395E0FEEF7803C33329
:1074AA00CE33CED8F924A2F58274043EF583E58260
:1074BA002BF582E5833AF583E0FEA3E06D7002ECDA
:1074CA006E6003027577900416E025E0FD900415BE
:1074DA00E033FCE9FF3395E0FEEF25E0FBEE33FAFB
:1074EA00900414E0FF3395E0FEEF7803C333CE3304
:1074FA00CED8F924A2F58274043EF583E5822BF5F1
:10750A0082E5833AF583ECF0A3EDF0900416E025CA
:10751A00E0FF900415E033FE9004C3E02FF09004DE
:10752A00C2E03EF0E4900415F0A3F0900414E0FFEA
:10753A003395E0FEEF7803C333CE33CED8F924A2D5
:10754A00F58274043EF583E5822BF582E5833AF5EC
:10755A0083E0FEA3E0FF9004A0E0FCA3E0FDEF6D52
:10756A007002EE6C70799004C604F0807290041573
:10757A00E0FCA3E0FDE9FF3395E0FEEF25E0FBEE3A
:10758A0033FA900414E0FF3395E0FEEF7803C33337
:10759A00CE33CED8F924A2F58274043EF583E5826F
:1075AA002BF582E5833AF583ECF0A3EDF090041312
:1075BA00E0FF3395E0FEEF7803C333CE33CED8F93C
:1075CA0024A2F58274043EF583E5822BF582E583D5
:1075DA003AF583E0FFA3E0900415CFF0A3EFF09013
:1075EA000414E014F0E9FD3395E0FCED25E0FBEC32
:1075FA0033FA900413E0FF3395E0FEEF7803C333C8
:10760A00CE33CED8F924A2F58274043EF583E582FE
:10761A002BF582E5833AF583E4F0A3F0900415E0B4
:10762A007002A3E0603A900415E0FAA3E0FBED25AE
:10763A00E0FDEC33FC900414E0FF3395E0FEEF78B4
:10764A0003C333CE33CED8F924A2F58274043EF5AF
:10765A0083E5822DF582E5833CF583EAF0A3EBF01E
:10766A00900413E014F00273E1090273BCE490047D
:10767A0013F0900413E0FF3395E0FEC3EF9404EE99
:10768A00648094804003027726E4F9E9FF3395E0A9
:10769A00FEC3EF9404EE648094805077E9FD33953D
:1076AA00E0FCED25E0FBEC33FA900413E0FF3395A0
:1076BA00E0FEEF7803C333CE33CED8F92417F58230
:1076CA0074043EF583E5822BF582E5833AF583E07F
:1076DA00FAA3E0FBED25E0FDEC33FC900413E0FF98
:1076EA003395E0FEEF7803C333CE33CED8F924A224
:1076FA00F58274043EF583E5822DF582E5833CF537
:10770A0083E0FEA3E06B7002EE6A60037F01220948
:0E771A00027695900413E004F002767C7F0066
:01772800223E
:10C51D00E4FFEFC3940474809480502BE4FEEEC3CB
:10C52D00940474809480501CEF75F008A424A2F537
:10C53D0082E43404F58375F002EE1224E5E4F0A3F1
:10C54D00F00E80DA0F80CB12B33812B338E49004BA
:0AC55D00C2F0A3F09004C67402F0CF
:01C5670022B1
:10A92800E4900413F0900413E0C3940474809480BA
:10A93800400302AA3AE4A3F0900414E0FFC394048D
:10A9480074809480400302AA31900413E075F008E3
:10A95800A424A2F582E43404F58375F002EF1224EE
:10A96800E5E0FEA3E04E7002FF22900414E0FF240D
:10A9780001FDE433FCC3ED9404EC64809480504101
:10A98800900413E0FE75F008A424A4F582E43404CE
:10A99800F58375F002EF1224E5E0FCA3E0FDEE7507
:10A9A800F008A424A2F582E43404F58375F002EFDC
:10A9B8001224E5E0FEA3E0B50507EEB504037F0029
:10A9C80022900413E0FF2401FDE433FCC3ED94045A
:10A9D800EC648094805049EF75F008A424AAF582AD
:10A9E800E43404F583C083C082900414E0FED0826E
:10A9F800D08375F0021224E5E0FCA3E0FDEF75F0CA
:10AA080008A424A2F582E43404F58375F002EE125A
:10AA180024E5E0FEA3E0B50507EEB504037F0022B8
:10AA2800900414E004F002A940900413E004F0023A
:04AA3800A92D7F01C4
:01AA3C0022F7
:10B9B600900415E4F0A37432F09004C6E0640270BB
:10B9C6000302BA4EE4900414F0900414E0C3940405
:10B9D600748094805053E4FDEDC394047480948085
:10B9E600503F900414E0FC7E007410A80408800503
:10B9F600C333CE33CED8F9A805088005C333CE337A
:10BA0600CED8F9FFEC75F008A424A2F582E434043C
:10BA1600F58375F002ED1224E5EEF0A3EFF00D804C
:10BA2600B7900414E004F080A0E49004C2F0A3F000
:10BA36009004C67402F0C39004C4E06480948050FD
:08BA460004E4F0A3F012CC9916
:01BA4E0022D5
:1097F9007F187EC612C3DA7BFF7A8E797B900418B4
:10980900E4F0A37438F0A3E4F0A37408F0A374FCA3
:10981900F0A37407F074FFA3F0A3F0A37401F07F21
:1098290004124C1490041A7401F0A37425F0E4A3F3
:10983900F0A3F07BDDFA7D5BFC7F13FE12AF139082
:10984900044C7401F0A37424F0A374A6F0A374511A
:10985900F07BDC7A007D5C7C007F147E0012CC2BCF
:109869007BFF7ABF79ACE490044DF0A3F0A374C6F2
:10987900F0A37418F0A37410F0A37401F07D327C86
:10988900007F147E0012BA4F7BFF7ABF79B3E49050
:10989900044DF0A3F0A374C6F0A37418F0A37410D8
:1098A900F0A37401F07D447C007F147E0012BA4F4E
:1098B900E4900412F0900412E0FFC39405748094BC
:1098C900805059EF75F032A4245CFDE435F0FC902A
:1098D9000424F0A3EDF0A37454F0A37458F07BDCD6
:1098E9007A007F147E00128C5D900412E075F032CC
:1098F900A42414FFE435F0FEAB07FA9004247401A4
:10990900F0A37424F0A37454F0A37458F07D5C7C24
:1099190000128C5D900412E004F08099E490041226
:10992900F0900412E0C39404748094805066E4A318
:10993900F0900413E0FFC3940474809480504DEFB9
:1099490075F032A4FBAAF02417FFE43AFEC006C062
:1099590007900412E075F032A4FFAEF0245FFDE435
:109969003EFCEB2443FBE43AFAEF248BFFE43E9000
:10997900041AF0A3EFF0A3747DF0A314F0D007D07C
:109989000612AF13900413E004F080A5900412E0CE
:0799990004F0808D02B9B655
:10B74C00E4900412F0EF249F602024FD602924F281
:10B75C00601314603C24FC602B240670449004C6D7
:10B76C007403F0803C12C51D80379004C6E064025F
:10B77C00702F12693780259004C6E0640270221283
:10B78C006CC180189004C6E06402701512704A8077
:10B79C000B9004C6E0640270081273BA900412EFA6
:10B7AC00F0900412E0603312B33812A928EF600550
:10B7BC00E49004C6F09004C4E0FEA3E0FF9004C241
:10B7CC00E0FCA3E0FDD39FEE6480F8EC648098402D
:0AB7DC0009A3ECF0A3EDF012CC99E4
:01B7E6002240
:103CB3009004C6E06403700302421B90044974FF3E
:103CC300F0A374BFF0A374BAF09004C4E0FFA3E0C0
:103CD30090044CCFF0A3EFF07B017A0479121255D4
:103CE300C47B017A04791290044D742BF0A37412EF
:103CF300F0A374C6F0A37418F0A37410F0E4A3F057
:103D03007D32FC7F44FE12BA4F90044974FFF0A346
:103D130074BFF0A374BAF09004C2E0FFA3E0900470
:103D23004CCFF0A3EFF07B017A0479121255C47BD8
:103D3300017A04791290044D742BF0A37412F0A34A
:103D430074C6F0A37418F0A37410F0E4A3F07D44D8
:103D5300FC7F44FE12BA4FE4900444F0900444E024
:103D6300C394047480948040030241C6E4A3F0909A
:103D73000445E0FFC394047480948040030241BD72
:103D8300900444E075F008A424A2F582E43404F519
:103D93008375F002EF1224E5E0FEA3E0FF4E70030B
:103DA30002416BEF8EF01225373DDC00023E1C0012
:103DB300043E6000083EA400103EE800203F2B00B4
:103DC300403F6E00803FB201003FF60200403A04DC
:103DD30000407D0800000040C3900445E075F032C8
:103DE300A4FBAAF02418FFE43AFEC006C00790041F
:103DF30044E075F032A4FFAEF02460FDE43EFCEB3A
:103E03002442FBE43AFAEF248AFFE43E90044CF0A8
:103E1300A3EFF0A37484023F24900445E075F032CD
:103E2300A4FBAAF02418FFE43AFEC006C0079004DE
:103E330044E075F032A4FFAEF02460FDE43EFCEBF9
:103E43002442FBE43AFAEF248AFFE43E90044CF068
:103E5300A3EFF0A374FCF0A374070240BB900445E6
:103E6300E075F032A4FBAAF02418FFE43AFEC00682
:103E7300C007900444E075F032A4FFAEF02460FD67
:103E8300E43EFCEB2442FBE43AFAEF248AFFE43EEF
:103E930090044CF0A3EFF0A37407F0A374E0024086
:103EA300BB900445E075F032A4FBAAF02418FFE4AC
:103EB3003AFEC006C007900444E075F032A4FFAE9A
:103EC300F02460FDE43EFCEB2442FBE43AFAEF24E9
:103ED3008AFFE43E90044CF0A3EFF0A37401F0A337
:103EE30074CF0240BB900445E075F032A4FBAAF006
:103EF3002418FFE43AFEC006C007900444E075F0BE
:103F030032A4FFAEF02460FDE43EFCEB2442FBE46C
:103F13003AFAEF248AFFE43E90044CF0A3EFF0A3B7
:103F2300E4F0A3741F0240BB900445E075F032A493
:103F3300FBAAF02418FFE43AFEC006C0079004442D
:103F4300E075F032A4FFAEF02460FDE43EFCEB2408
:103F530042FBE43AFAEF248AFFE43E90044CF0A3D8
:103F6300EFF0A374F8F0A3E40240BB900445E075BE
:103F7300F032A4FBAAF02418FFE43AFEC006C007FF
:103F8300900444E075F032A4FFAEF02460FDE43EFB
:103F9300FCEB2442FBE43AFAEF248AFFE43E90046C
:103FA3004CF0A3EFF0A374F8F0A3741F0240BB908E
:103FB3000445E075F032A4FBAAF02418FFE43AFEAE
:103FC300C006C007900444E075F032A4FFAEF024AD
:103FD30060FDE43EFCEB2442FBE43AFAEF248AFF63
:103FE300E43E90044CF0A3EFF0A374BCF0A3744040
:103FF3000240BB900445E075F032A4FBAAF02418FC
:10400300FFE43AFEC006C007900444E075F032A412
:10401300FFAEF02460FDE43EFCEB2442FBE43AFAFD
:10402300EF248AFFE43E90044CF0A3EFF0A3742B3B
:10403300F0A374120240BB900445E075F032A4FB78
:10404300AAF02418FFE43AFEC006C007900444E037
:1040530075F032A4FFAEF02460FDE43EFCEB244295
:10406300FBE43AFAEF248AFFE43E90044CF0A3EF1A
:10407300F0A37484F0A37430803E900445E075F09F
:1040830032A4FBAAF02418FFE43AFEC006C007904E
:104093000444E075F032A4FFAEF02460FDE43EFC7E
:1040A300EB2442FBE43AFAEF248AFFE43E90044C0B
:1040B300F0A3EFF0E4A3F0A3F0D007D00612CC2BCB
:1040C30090044974FFF0A374BFF0A374BFF090048D
:1040D30044E075F008A424A2F582E43404F583C017
:1040E30083C082900445E0D082D08375F00212240D
:1040F300E5E0FFA3E090044CCFF0A3EFF07B017A5F
:104103000479121255C47B017A04791212CF5BAD84
:1041130007900445E075F032A4242DFBE435F0FA52
:10412300ED75F004A4FFC3EB9FFFEA95F0FEC00614
:10413300C007900444E075F032A4246DFDE435F02B
:10414300FC7B017A04791274FF90044DF0A3F0A371
:1041530074A6F0A37451F0A37410F0A37401F0D00B
:1041630007D00612BA4F8049900445E075F032A497
:10417300FBAAF02418FFE43AFEC006C007900444EB
:10418300E075F032A4FFAEF02460FDE43EFCEB24C6
:1041930042FBE43AFAEF248AFFE43E90044CF0A396
:1041A300EFF0A374A6F0A37451F0D007D00612CC9D
:1041B3002B900445E004F0023D72900444E004F0C7
:1041C300023D5F9004C6E0640170107BFF7ABF7903
:1041D300C290044D74F8F0A3E480239004C6E07BFE
:1041E300FF700E7ABF79DF90044D74F8F0A3E4807A
:1041F3000D7ABF79FC90044D74BCF0A37440F0A316
:1042030074C6F0A37418F0A3740CF0E4A3F07D2C2F
:084213007C017F24FE12BA4F6A
:01421B002280
:04D164007F03DFFE68
:01D1680022A4
:04D169007F12DFFE54
:01D16D00229F
:04D16E007F26DFFE3B
:01D17200229A
:04D173007FC6DFFE96
:01D177002295
:09D0F000007F027E5ADEFEDFFC27
:01D0F9002214
:09D0FA00007F207E28DEFEDFFC31
:01D103002209
:10CFDE00AD07AC0612D0FAED1D70011C144C70F4A6
:01CFEE002220
:07BC870044074F016E360077
:10CB4000E4F593F594F591F592F595F596F5B1F533
:10CB5000B2F5B3F5B4F5C9F5CAF5CBF5CCF5E1F509
:0DCB6000E212D13512CE7712CCDFC2C12215
:10CE4500C28CD2A95389FC5389FB538FFE438E8034
:09CE5500758CA2758A40D28C2272
:10CE5E00C28ED2AB5389CF5389BF538FFD438E40C1
:09CE6E00758DD1758B20D28E2246
:10CEF100538EE343AF04538FFB438E0475D6E8751D
:06CF0100D790438E1022C0
:10CF700053D1F043AF2043D10275D4ED75D5404372
:03CF8000D10822B3
:10CF830053D10F43AF4043D12075D2F675D3A0439D
:03CF9300D1802228
:10CF96000102040810204080000000FFFF0000008E
:02CFA600000089
:10CE770053B3EF43B41053B3F743B40853B3FB436F
:09CE8700B404C2C4C2C3C2C22239
:0DD09000C2C312D16ED2C312D16EC2C32230
:05C7EA0090041BEFF0BC
:10C7EF00E4A3F090041CE0C3940874809480502A52
:10C7FF0090041BE0548064807004D2C48002C2C4D1
:10C80F0012D16EC2C212D16ED2C212D16E90041B5F
:0AC81F00E025E0F0A3E004F080C97A
:01C8290022EC
:10C42F00900414EBF0A3EAF0A3E9F0A3ECF0A3ED72
:01C43F00F00C
:10C44000E4A3F0A3F0900417E0FEA3E0FFA3E0FC58
:10C45000A3E0FDC39FEC9E5026900414E0FBA3E0F4
:10C46000FAA3E0F98D828C83122148FF12C7EA906B
:10C47000041AE004F070CE900419E004F080C602C3
:02C48000D0905A
:10CCDF0078127C047D017BFF7ACF799E7E007F02E4
:10CCEF001221097B017A0479127D027C0002C42F84
:10CCFF0078847C077D017BFF7ACF79A07E007F024D
:10CD0F001221097B017A0779847D027C0002C42FEE
:10CD1F0078867C077D017BFF7ACF79A27E007F0228
:10CD2F001221097B017A0779867D027C0002C42FCC
:05C5680090077EEFF0DA
:10C56D00787F7C077D017BFF7ACF79A47E007F02E7
:10C57D0012210990077EE0FFD394077480948040C8
:10C58D000BEF90CF8E9390077FF0800C90077EE09D
:10C59D0090CF9693900780F07B017A07797F7D028B
:05C5AD007C0002C42F18
:10CD3F0078887C077D017BFF7ACF79A67E007F0202
:10CD4F001221097B017A0779887D027C0002C42FAA
:08BC8E0041078AFE41078B000B
:09D12C0053B3FE43B401C2C0225A
:09D1350053B3FE43B401D2C02241
:10C32C0090078AE0FF7E00647F7011A3E070047DAB
:10C33C000180027D0090078BEDF08019EF64FE4EBA
:10C34C00701390078BE0600D70047F0180027F00FA
:10C35C0090078BEFF090078AE0FFF5E8A3E07008F8
:10C36C00EF25E04401FF800990078AE0C313448065
:06C37C00FF90078AEFF0BC
:01C382002298
:0300A00002CD1F6F
:0EB7E7009006E7EFF0A3EBF0A3EAF0A3E9F081
:10B7F500C3740F9F9006EEF0AE029006EBA3E0FA3D
:10B80500A3E0C399FFEA9EFE9006E7E0FDC3740836
:10B815009DFDE49400FCD3EF9DEC6480F8EE64801C
:10B825009850599006EBE0FBA3E0FAA3E0F9C003BA
:10B83500C002C0019006E8A3E0FAA3E0F9C3D082F4
:10B84500D083D0E0E99582EA958350309006EEE00A
:10B85500FF12C5689006E8E0FBA3E0FAA3E0F91241
:10B86500212FF5E812D0FA12CD3F9006EEE014F044
:0CB875009006E9E475F00112224680A75D
:01B8810022A4
:0EBE58009006FFEBF0A3EAF0A3E9F0A3EDF0F3
:10BE6600900704740FF0900704E0FFC394087480F1
:10BE76009480405012C568900704E0FFC3740F9F7A
:10BE8600FFE49400FE900703E07C002FFFEC3EFEEB
:10BE9600900702E0FD1221BB900705EDF09006FF2A
:10BEA600E0FBA3E0FAA3E0F9900705E0F5827583CD
:10BEB60000122148F5E812D0FA12CD3F900704E0AF
:04BEC60014F080A252
:01BECA002255
:10BC96005205A7C0F9A4B0999282F880908883C60D
:05BCA600A1868EBFFF26
:10CDBA0012CCFFE4F5CB75CCFF75E8FF53937F43A4
:0DCDCA009480D2875395FD439602D2A1229A
:06962F0090066B1224A856
:1096350090066F7406F090066BE0FCEC33900677AD
:1096450040057411F0801A7410F090066BE0FCA3CD
:10965500E0FDA3E0FEA3E0FF12243E90066B12247A
:10966500A8E47B0AFAF9F890066BE0FCA3E0FDA3F9
:10967500E0FEA3E0FF12C765900670EBF0E47B0AFD
:10968500FAF9F890066BE0FCA3E0FDA3E0FEA3E089
:10969500FF12C765E47B0AFAF9F812C765900671EF
:1096A500EBF0E47B64FAF9F890066BE0FCA3E0FDCF
:1096B500A3E0FEA3E0FF12C765E47B0AFAF9F812FE
:1096C500C765900672EBF0E47BE87A03F9F890063B
:1096D5006BE0FCA3E0FDA3E0FEA3E0FF12C765E499
:1096E5007B0AFAF9F812C765900673EBF0E47B1074
:1096F5007A27F9F890066BE0FCA3E0FDA3E0FEA352
:10970500E0FF12C765E47B0AFAF9F812C76590060F
:1097150074EBF07BA07A867901780090066BE0FC0B
:10972500A3E0FDA3E0FEA3E0FF12C765E47B0AFA10
:10973500F9F812C765900675EBF07B407A42790F10
:10974500780090066BE0FCA3E0FDA3E0FEA3E0FF3C
:1097550012C765E47B0AFAF9F812C765900676EB3D
:10976500F090066FE0FF3395E0FE74702FF582747C
:10977500063EF583E0701A90066FE014F0EF33951E
:10978500E0FE74702FF58274063EF5837411F08047
:10979500D090066BE0FCA3E0FDA3E0FEA3E0FFECA8
:1097A5004D4E4F7004900670F090066F7407F09060
:1097B500066FE0FF3395E0C364809480403512C5A1
:1097C5006890066FE0FF3395E0FE74702FF58274A4
:1097D500063EF583E024A7F582E43405F583E0F53C
:1097E500E87F027E0012CFDE12CD3F90066FE014B7
:0397F500F080BC45
:0197F800224E
:0BC0190090071CEBF0A3EAF0A3E9F095
:10C02400EFC39408748094805057C374089FFEA390
:10C03400E0FDD39E504BC374089FC39DA3F09007AB
:10C044001FE0FF14F0EF6039A3E0FF12C56890070A
:10C054001CE0FBA3E0FAA3E0F9A3E0F582758300FA
:10C0640012214824A7F582E43405F583E0F5E87F3E
:10C07400027E0012CFDE12CD3F900720E004F08054
:01C08400BDFE
:01C085002298
:10CFEF000001020003000000040000000000000028
:10BCAB00410558FF510559002B0908072D060504BE
:08BCBB00780302012F23002A87
:10000E0090056BE0FC75F8F07E3CDEFEE5F854F0F2
:10001E0090056BF075F80F7E3CDEFE90056BE0FEF2
:10002E00E5F8540FFDEE4DF0E0F4F06C70609005C5
:10003E0057E0FC90056BE0900557F0604CC2D5EC94
:10004E007004D2D5801B900557E0B5041490056A54
:10005E00E004F0C394147480948040057412F0D2BE
:10006E00D530D52A900557E0FFC4540F90CFEF93AB
:10007E00FC601BEF540F93FF6014EC1425E025E099
:10008E00FEEF2E900558F08005E490056AF075F8A5
:01009E00FF62
:01009F00223E
:03D17D0025640026
:10CF070075E8FFC293D290C291C291D291E5E82011
:05CF1700E7FBAFE8227A
:10C8AA0090079CEFF0C291D293C290F5E87F017E87
:10C8BA000012CFDED2917F057E0012CFDEC29190A8
:10C8CA00079CE0C454F0F5E87F017E0012CFDED267
:0BC8DA00917F057E0012CFDEC291228C
:10C8E50090079DEFF0C291C293C290F5E87F017E5B
:10C8F5000012CFDED2917F057E0012CFDEC291906D
:10C90500079DE0C454F0F5E87F017E0012CFDED22A
:0BC91500917F057E0012CFDEC2912250
:0DD09D00D293D290C291C291D291AFE822FD
:10C27500E4F5E85391F74392085391FE4392015335
:10C2850091FD439202F5CB75CCFF7F3812C8E57F4F
:10C29500057E0012CFDE7F3812C8E57F057E0012CD
:10C2A500CFDE7F3812C8E57F057E0012CFDE7F32F4
:10C2B50012C8E57F2812C8E57F0C12C8E57F061273
:0CC2C500C8E57F0112C8E57F8002C8E5D3
:0CD0B7007F0112C8E57F027E0002CFDE80
:10CCBC0090079EEBF0ED5401FDEF540FFFED600477
:10CCCC00EF4440FFEF4480FF12C8E590079EE0FF61
:03CCDC0002C8AAE1
:10C0F100900706EFF0A3EDF0A3EBF0A3EAF0A3E9BC
:01C10100F04D
:10C1020012CF5B90070BEFF0900707E05401F0901D
:10C112000706E0540FF0E490070CF090070BE0FFE5
:10C12200A3E0FEC39F502B900706E0FFA3E0FDA310
:10C13200E0FBA3E0FAA3E0F98E82758300122148A6
:10C14200FB12CCBC900706E004F090070CE004F070
:02C1520080C9A2
:01C1540022C8
:0CC5B20090056CEFF0A3EDF0AF03AE02BB
:10C5BE007B017A05796E90057DEBF0A3EAF0A3E995
:10C5CE00F090044974FFF0A374D1F0A3747DF0A32E
:10C5DE00EEF0A3EFF01255C490056CE0FFA3E0FD62
:0EC5EE0090057DE0FBA3E0FAA3E0F902C0F1A6
:0CD0C30090FE82E030E6F9E054BFF0225D
:10CE0F0043912043922043911043921043BA809054
:0BCE1F00FE8074E0F090FE82E4F02240
:09D13E0090FE817401F002D0C3DF
:09D1470090FE817406F002D0C3D1
:0ECC750012D13E12D05812CC83AF0512D05807
:10CC830090FE817403F012D0C390FE82E030E10382
:06CC93007F01227F002258
:0ED04A0090FE82E4F090FE817405F002D0C3E7
:0FCFFF0090FE827401F090FE817405F002D0C3A1
:0ED0580090FE86EFF090FE817402F002D0C3CD
:0FD00E0090FE817404F012D0C390FE87E0FF22E1
:10C9CE00AE0712CC7512D13EEE4401FF12D05812B2
:10C9DE00CC8312D00EEF122175740129F9E43AFAC4
:10C9EE00900726E06401600312D04A900726E014F7
:09C9FE00F070DF12CFFF02D147F7
:10CA7600900729EBF0A3EAF0A3E9F012CC75900732
:10CA860029E0FBA3E475F00112225CA9F0FA122159
:10CA96002FFF12D05812CC8390072CE014F070DED2
:03CAA60002D14773
:10421C0025640000000000003E5B4F5B3E3E6B4F90
:10422C006B3E1C3E7C3E1C183C7E3C181C577D573C
:10423C001C1C5E7F5E1C00183C1800FFE7C3E7FFE8
:10424C000018241800FFE7DBE7FF30483A060E267B
:10425C0029792926407F050507407F05253F5A3CD3
:10426C00E73C5A7F3E1C1C08081C1C3E7F14227F16
:10427C0022145F5F005F5F06097F017F00668995EE
:10428C006A606060606094A2FFA29408047E0408D7
:10429C0010207E201008082A1C08081C2A08081E5A
:1042AC00101010100C1E0C1E0C30383E3830060E40
:1042BC003E0E06000000000000005F00000007003A
:1042CC000700147F147F14242A7F2A1223130864F6
:1042DC006236495620500008070300001C2241009A
:1042EC000041221C002A1C7F1C2A08083E080800DA
:1042FC00807030000808080808000060600020107A
:10430C000804023E5149453E00427F400072494933
:10431C0049462141494D331814127F102745454514
:10432C00393C4A4949314121110907364949493635
:10433C00464949291E0000140000004034000000CA
:10434C0008142241141414141400412214080201FC
:10435C005909063E415D594E7C1211127C7F494928
:10436C0049363E414141227F4141413E7F494949C5
:10437C00417F090909013E414151737F0808087FBB
:10438C0000417F41002040413F017F081422417FC2
:10439C00404040407F021C027F7F0408107F3E415A
:1043AC0041413E7F090909063E4151215E7F0919B1
:1043BC002946264949493203017F01033F404040C9
:1043CC003F1F2040201F3F4038403F6314081463B8
:1043DC0003047804036159494D43007F4141410274
:1043EC0004081020004141417F04020102044040B6
:1043FC00404040000307080020545478407F284474
:10440C0044383844444428384444287F385454545D
:10441C001800087E090218A4A49C787F080404786C
:10442C0000447D40002040403D007F1028440000A7
:10443C00417F40007C047804787C0804047838447C
:10444C00444438FC1824241818242418FC7C080430
:10445C000408485454542404043F44243C40402051
:10446C007C1C2040201C3C4030403C4428102844FC
:10447C004C9090907C4464544C44000836410000AD
:10448C0000770000004136080002010204023C26BD
:10449C0023263C1EA1A161123A4040207A38545484
:1044AC005559215555794121545478412155547809
:1044BC004020545579400C1E52721239555555599D
:1044CC00395454545939555454580000457C4100C2
:1044DC0002457D420001457C40F0292429F0F0285A
:1044EC002528F07C545545002054547C547C0A09F2
:1044FC007F4932494949323248484832324A484861
:10450C00303A4141217A3A42402078009DA0A07D6A
:10451C0039444444393D4040403D3C24FF24244828
:10452C007E4943662B2FFC2F2BFF0929F620C088D0
:10453C007E090320545479410000447D41304848A1
:10454C004A32384040227A007A0A0A727D0D1931BB
:10455C007D2629292F28262929292630484D402017
:10456C00380808080808080808382F10C8ACBA2FF3
:10457C00102834FA00007B000008142A142222149C
:10458C002A1408AA005500AAAA55AA55AA00000088
:10459C00FF00101010FF00141414FF001010FF0087
:1045AC00FF1010F010F0141414FC001414F700FF9A
:1045BC000000FF00FF1414F404FC141417101F1057
:1045CC00101F101F1414141F00101010F000000006
:1045DC00001F101010101F10101010F01000000011
:1045EC00FF101010101010101010FF10000000FF22
:1045FC00140000FF00FF00001F10170000FC04F463
:10460C0014141710171414F404F40000FF00F7141A
:10461C00141414141414F700F714141417141010A1
:10462C001F101F141414F4141010F010F000001FBD
:10463C00101F0000001F14000000FC140000F010FC
:10464C00F01010FF10FF141414FF141010101F00A2
:10465C00000000F010FFFFFFFFFFF0F0F0F0F0FFA4
:10466C00FFFF0000000000FFFF0F0F0F0F0F38447B
:10467C004438447C2A2A3E147E02020606027E023C
:10468C007E0263554941633844443C04407E201EFD
:10469C002006027E020299A5E7A5991C2A492A1C2C
:1046AC004C7201724C304A4D4D303048784830BC19
:1046BC00625A463D3E494949007E0101017E2A2A43
:1046CC002A2A2A44445F444440514A444040444AC4
:1046DC0051400000FF0103E080FF000008086B6BF5
:1046EC00083612362436060F090F0600001818007B
:1046FC0000001010003040FF0101001F01011E00DE
:0E470C00191D1712003C3C3C3C000000000050
:10CB940090079FEFF012D13E7F7812D05812CC83C9
:10CBA400E4FF12D05812CC8390079FE0FF12D058B4
:06CBB40012CC8302D14700
:10CBBA009007A0EFF012D13E7F7812D05812CC83A2
:10CBCA007F4012D05812CC839007A0E0FF12D058B1
:06CBDA0012CC8302D147DA
:05CE2A0024B0FFE4FD4F
:10CE2F009007A1EFF0ED6005E0FF02CBBA9007A1EC
:06CE3F00E0FF12CB94227B
:10CBE0009007A2EFF0ED12CE2A9007A2E054F0C415
:10CBF000540F4410FFE4FD12CE2F9007A2E0540F13
:06CC0000FFE4FD02CE2F4F
:10CF1C00E4FD7F8D12CE2FE4FD7F1412CE2FE4FDA5
:05CF2C007FAF02CE2FD3
:10CF3100E4FD7F8D12CE2FE4FD7F1012CE2FE4FD94
:05CF41007FAE02CE2FBF
:10C92000E4FFEFC3940474809480502DE4FEEEC3C2
:10C93000948074809480501E75F004EEA42405F554
:10C9400082E5F03402F583E5822FF582E43583F544
:09C9500083E4F00E80D80F80C9C9
:01C9590022BB
:10C08600E490078DF090078DE0FFC39404748094CC
:10C09600805057EF12CE2AE4FDFF12CE2FE4FD7F2B
:10C0A6001012CE2FE490078CF090078CE0FFC3941B
:10C0B6008074809480502BA3E0FE75F004EFA424D6
:10C0C60005F582E5F03402F583E5822EF582E43546
:10C0D60083F583E0FF7D0112CE2F90078CE004F0FC
:0AC0E60080C790078DE004F0809BF6
:01C0F000222D
:10C95A00E4FEEEC3940474809480502DE4FDEDC38C
:10C96A00948074809480501E75F004EDA42405F51B
:10C97A0082E5F03402F583E5822EF582E43583F50B
:09C98A0083EFF00D80D80E80C986
:01C993002281
:10B5FE0090067CA3E0FF900680E075F00CA42F2B44
:0FB60E00FF90067EA3E0900681FEE02EFD7B01FB
:10B61D00EFD3948074809480400302B6A8ED9420FB
:10B62D00748094805075EB6037ED131313541FFE27
:10B63D0075F004EFA42405F582E5F03402F583E5F9
:10B64D00822EF582E43583F583C083C082E0FFED61
:10B65D005407FEF87401088002C333D8FC4F8036BE
:10B66D00ED131313541FFE75F004EFA42405F5829A
:10B67D00E5F03402F583E5822EF582E43583F5831A
:10B68D00C083C082E0FFED5407FEF874010880020C
:0CB69D00C333D8FCF45FD082D083F022CD
:0DAD3C00900754EDF0A3EBF0900753EFF0FB
:10AD49003395E0C3648094805077E4FCECC39405A8
:10AD590074809480400302AE27900755E075F00592
:10AD6900A4241FF582E5F03442F583E5822CF582AF
:10AD7900E43583F583E493900756F0E4F9E9FF7E1F
:10AD890000C39408748094805034900753E0FDFB0D
:10AD99003395E0FAEB2FEE3AC36480948040159026
:10ADA9000756E030E00EED2CFF900754E029FD7BBB
:10ADB9000112B61D900756E0C313F00980BF0C803D
:10ADC9008BE4FCECC3940574809480505190075532
:10ADD900E075F005A4241FF582E5F03442F583E51A
:10ADE900822CF582E43583F583E493900756F0E4E9
:10ADF900F9E9C39408748094805020900756E03094
:10AE0900E00F900753E02CFFA3E029FD7B0112B668
:0EAE19001D900756E0C313F00980D60C80A5EB
:01AE27002208
:10C1B90090072DEFF0A3EDF0A3EBF0A3EAF0A3E9CC
:01C1C900F085
:10C1CA00E4A3F090072FE0FBA3E0FAA3E0F9A3E0D1
:10C1DA00F582758300122148FB603290072DE0FF3B
:10C1EA00A3E0FD12AD3C90072DE02408F0E0FF33F8
:10C1FA0095E0FED3EF9478EE648094804007E4F0F3
:0DC20A00A3E02402F0900732E004F080B6BB
:01C217002204
:0CC994009005EFEFF0A3EDF0AF03AE0252
:10C9A00090044974FFF0A37442F0A3741CF0A3EE4A
:10C9B000F0A3EFF07B017A0579F11255C49005EFF1
:0EC9C000E0FFA3E0FD7B017A0579F102C1B929
:0E87B100900678EFF0A3EBF0A3EAF0A3E9F056
:1087BF00A3E0FEA3E0FFC3EE648094804003028930
:1087CF000EC3E49FFFE49EFE7C007D0C12221090EE
:1087DF000680EFF0900678E0FF900680E0C39F40A0
:1087EF0003028A16E4A3F0900681E0C3940C748010
:1087FF0094804003028905E4A3F0900682E0FD7C9B
:10880F0000C3940C7480948040030288FC9006800F
:10881F00E075F00CA42DFFEC35F0FE90067CE0FC2B
:10882F00A3E0FD2FFFEC3ECF24F4CF34FFFED3EFB8
:10883F00947FEE648094804003028A16900681E054
:10884F00FF90067FE02FFF90067EE03400CF24F4E8
:10885F00CF34FFFED3EF943FEE6480948040030249
:10886F008A16900680E0F975F00CA4FFED2FFFEC4F
:10887F0035F0FE900682E0FD7A002FEA3EC3648059
:10888F00948050028001C3405B900681E075F00236
:10889F00A4FBAAF0E975F018A42BFFE5F03AFEED62
:1088AF00131313541F7C002FFFEC3EFE900679E04C
:1088BF00FBA3E0FAA3E0F98F828E83122148FD908B
:1088CF000682E0FB5407FF7E007480A8070880062D
:1088DF00CEA2E713CE13D8F8FFEE5CFEEF5D4E602D
:1088EF000312B5FE900682E004F00288099006811B
:1088FF00E004F00287F6900680E004F00287E3E4DC
:10890F00900680F0900678E0FF900680E0C39F40CD
:10891F0003028A16E4A3F0900681E0C3940C7480DE
:10892F0094804003028A0DE4A3F0900682E0FD7C60
:10893F0000C3940C748094804003028A04900680D4
:10894F00E075F00CA42DFFEC35F0FE90067DE02FC6
:10895F00FF90067CE03ECF24F4CF34FFFED3EF949C
:10896F007FEE648094804003028A16900681E0FFB8
:10897F00FD90067FE02DFD90067EE03CCD24F4CDEA
:10898F0034FFFCD3ED943FEC648094805079EF7505
:10899F00F002A4FDACF0900680E075F018A42DFF56
:1089AF00E5F03CFE900682E0131313541F7C002F5A
:1089BF00FFEC3EFE900679E0FBA3E0FAA3E0F98F0F
:1089CF00828E83122148FD900682E0FB5407FF7EC2
:1089DF00007480A807088006CEA2E713CE13D8F83C
:1089EF00FFEE5CFEEF5D4E600312B5FE900682E077
:1089FF0004F0028939900681E004F002892690067E
:078A0F0080E004F00289136E
:018A1600223D
:0E851700900683EFF0A3EBF0A3EAF0A3E9F0E7
:10852500A3E0FEA3E0FFC3EE6480948040030286CF
:108535008CC3E49FFFE49EFE7C007D101222109008
:10854500068BEFF0900683E0FF90068BE0C39F401B
:10855500030287B0E4A3F090068CE0C39410748006
:1085650094804003028683E4A3F090068DE0FD7CB1
:1085750000C3941074809480400302867A90068B21
:10858500E075F010A42DFFEC35F0FE900687E0FCB9
:10859500A3E0FD2FFFEC3ECF24F0CF34FFFED3EF59
:1085A500947FEE6480948040030287B090068CE04F
:1085B500FF90068AE02FFF900689E03400CF24F073
:1085C500CF34FFFED3EF943FEE64809480400302E6
:1085D50087B090068BE0F975F010A4FFED2FFFEC46
:1085E50035F0FE90068DE0FD7A002FEA3EC36480EB
:1085F500948050028001C3407390068CE075F002B0
:10860500A4FBAAF0E975F020A42BFFE5F03AFEEDF6
:10861500131313541F7C002FFFEC3EFE900684E0DD
:10862500FBA3E0FAA3E0F98F828E83122148FD9027
:10863500068DE0FB5407FF7E007480A807088006BE
:10864500CEA2E713CE13D8F8FFEE5CFEEF5D4E60C9
:108655001B900687A3E0FF90068BE0C454F02F2BF8
:10866500FF900689A3E090068C12B61790068DE060
:1086750004F002856F90068CE004F002855C90069C
:108685008BE004F0028549E490068BF0900683E0C8
:10869500FF90068BE0C39F40030287B0E4A3F090F0
:1086A500068CE0C394107480948040030287A7E48D
:1086B500A3F090068DE0FD7C00C394107480948037
:1086C500400302879E90068BE075F010A42DFFEC09
:1086D50035F0FE900688E02FFF900687E03ECF2418
:1086E500F0CF34FFFED3EF947FEE64809480400397
:1086F5000287B090068CE0FFFD90068AE02DFD9084
:108705000689E03CCD24F0CD34FFFCD3ED943FEC5D
:108715006480948040030287B0EF75F002A4FDAC3D
:10872500F090068BE075F020A42DFFE5F03CFE905F
:10873500068DE0131313541F7C002FFFEC3EFE90B3
:108745000684E0FBA3E0FAA3E0F98F828E83122171
:1087550048FD90068DE0FB5407FF7E007480A80756
:10876500088006CEA2E713CE13D8F8FFEE5CFEEF25
:108775005D4E601C900687A3E0FF90068BE0C45415
:10878500F02F2BFF900689A3E0FE90068C12B618F9
:1087950090068DE004F00286B790068CE004F002A6
:0B87A50086A490068BE004F002869191
:0187B00022A6
:0E827A0090068EEFF0A3EBF0A3EAF0A3E9F07C
:10828800A3E0FEA3E0FFC3EE648094804003028372
:10829800F1C3E49FFFE49EFE7C007D18122210903B
:1082A8000696EFF090068EE0FF900696E0C39F409A
:1082B80003028516E4A3F0900697E0C3941874802F
:1082C800948040030283E8E4A3F0900698E0FD7CE4
:1082D80000C394187480948040030283DF9006964C
:1082E800E075F018A42DFFEC35F0FE900692E0FC46
:1082F800A3E0FD2FFFEC3ECF24E8CF34FFFED3EF01
:10830800947FEE648094804003028516900697E07F
:10831800FF900695E02FFF900694E03400CF24E804
:10832800CF34FFFED3EF943FEE6480948040030285
:108338008516900696E0F975F018A4FFED2FFFEC6E
:1083480035F0FE900698E0FD7A002FEA3EC364807F
:10835800948050028001C34075900697E075F00341
:10836800A4FBAAF0E975F048A42BFFE5F03AFEED6E
:10837800131313541F7C002FFFEC3EFE90068FE072
:10838800FBA3E0FAA3E0F98F828E83122148FD90C7
:108398000698E0FB5407FF7E007480A80708800653
:1083A800CEA2E713CE13D8F8FFEE5CFEEF5D4E6069
:1083B8001D900692A3E0FF900696E075F018A42F92
:1083C8002BFF900694A3E0FE90069712B61890062D
:1083D80098E004F00282D2900697E004F00282BF8F
:1083E800900696E004F00282ACE4900696F09006BF
:1083F8008EE0FF900696E0C39F4003028516E4A333
:10840800F0900697E0C39418748094804003028526
:108418000DE4A3F0900698E0FD7C00C394187480E6
:1084280094804003028504900696E075F018A42D08
:10843800FFEC35F0FE900693E02FFF900692E03EA9
:10844800CF24E8CF34FFFED3EF947FEE648094808E
:108458004003028516900697E0FFFD900695E02DF3
:10846800FD900694E03CCD24E8CD34FFFCD3ED9498
:108478003FEC648094804003028516EF75F003A4F6
:10848800FDACF0900696E075F048A42DFFE5F03CB1
:10849800FE900698E0131313541F7C002FFFEC3E48
:1084A800FE90068FE0FBA3E0FAA3E0F98F828E83AB
:1084B800122148FD900698E0FB5407FF7E00748067
:1084C800A807088006CEA2E713CE13D8F8FFEE5C03
:1084D800FEEF5D4E601D900692A3E0FF900696E0C9
:1084E80075F018A42F2BFF900694A3E0FE90069732
:1084F80012B618900698E004F002841C900697E0E3
:0E85080004F0028409900696E004F00283F667
:018516002242
:0E7FD400900699EFF0A3EBF0A3EAF0A3E9F01A
:107FE200A3E0FEA3E0FFC3EE64809480400302811D
:107FF20050C3E49FFFE49EFE7C007D20122210907D
:1080020006A1EFF0900699E0FF9006A1E0C39F4021
:1080120003028279E4A3F09006A2E0C39420748064
:1080220094804003028147E4A3F09006A3E0FD7C24
:1080320000C3942074809480400302813E9006A184
:10804200E075F020A42DFFEC35F0FE90069DE0FCDB
:10805200A3E0FD2FFFEC3ECF24E0CF34FFFED3EFB1
:10806200947FEE6480948040030282799006A2E0BD
:10807200FF9006A0E02FFF90069FE03400CF24E09F
:10808200CF34FFFED3EF943FEE648094804003022E
:1080920082799006A1E0F975F020A4FFED2FFFECA4
:1080A20035F0FE9006A3E0FD7A002FEA3EC364801D
:1080B200948050028001C3407AED75F004A4FDACB7
:1080C200F0E975F080A42DFFE5F03CFE9006A2E0F9
:1080D200131313541F7C002FFFEC3EFE90069AE010
:1080E200FBA3E0FAA3E0F98F828E83122148FD9070
:1080F20006A2E0FB5407FF7E007480A807088006F2
:10810200CEA2E713CE13D8F8FFEE5CFEEF5D4E6011
:108112002290069DA3E0FF9006A1E0C43354E02F15
:10812200FF9006A3E02FFF90069FA3E02BFD7B01AB
:1081320012B61D9006A3E004F002802C9006A2E085
:1081420004F00280199006A1E004F0028006E49097
:1081520006A1F0900699E0FF9006A1E0C39F4003BC
:10816200028279E4A3F09006A2E0C3942074809482
:10817200804003028270E4A3F09006A3E0FD7C003D
:10818200C394207480948040030282679006A1E029
:1081920075F020A42DFFEC35F0FE90069EE02FFF37
:1081A20090069DE03ECF24E0CF34FFFED3EF947FD4
:1081B200EE6480948040030282799006A2E0FDFF83
:1081C2009006A0E02FFF90069FE03400CF24E0CF7E
:1081D20034FFFED3EF943FEE64809480400302822A
:1081E200799006A3E075F004A4FBAAF09006A1E042
:1081F20075F080A42BFFE5F03AFEED131313541F24
:108202002FFFEC3EFE90069AE0FBA3E0FAA3E0F912
:108212008F828E83122148FD9006A2E0FB5407FF55
:108222007E007480A807088006CEA2E713CE13D87A
:10823200F8FFEE5CFEEF5D4E602290069DA3E0FF2C
:108242009006A1E0C43354E02FFF9006A3E02FFF75
:1082520090069FA3E02BFD7B0112B61D9006A3E0C2
:1082620004F002817B9006A2E004F002816890068D
:07827200A1E004F0028155B8
:0182790022E2
:0ABCF3009006C3EFF09006C5EBF0D9
:10BCFD00E49006CAF0A3F09006C6E0131313541F88
:10BD0D00F0540770028000AF05AE079006C6E0FF45
:10BD1D00EEC39F504C9006C3E0FF9006C5E0FDEFCB
:10BD2D00C39D503A9006C7E0FBA3E0FAA3E0F9A348
:10BD3D00E475F00112225C85F082F583122148FD35
:10BD4D0075F004EFA42405F582E5F03402F583E5E2
:10BD5D00822EF582E43583F583EDF00F80BC0E80E5
:01BD6D00AA2B
:01BD6E0022B2
:10B4A50012CE0F7F647E0012CFDEE4FD7FAE12CE9A
:10B4B5002FE4FD7F4012CE2FE4FD7FB012CE2FE4A6
:10B4C500FD7FC812CE2FE4FD7F8112CE2FE4FD7FD4
:10B4D500FF12CE2FE4FD7FA112CE2FE4FD7FA61231
:10B4E500CE2FE4FD7FA812CE2FE4FD7F1F12CE2FB5
:10B4F500E4FD7FD312CE2FE4FDFF12CE2FE4FD7FB6
:10B50500D512CE2FE4FD7FF012CE2FE4FD7FD912A8
:10B51500CE2FE4FD7F2212CE2FE4FD7FDA12CE2F4F
:10B52500E4FD7F0212CE2FE4FD7FDB12CE2FE4FD7A
:10B535007F4912CE2FE4FD7F8D12CE2FE4FD7F14BF
:0DB5450012CE2FE4FD7FAF12CE2F02C920E1
:09D10400007F027E3CDEFEDFFC30
:01D10D0022FF
:0ED06600C2C67F147E0012CFDED2C602D104F5
:10C21800E49007A3F030C6159007A3E0C3946474B4
:10C228008094805008E004F012D16480E89007A35D
:10C23800E0C394647480948040037F0122E49007F3
:10C24800A3F020C6159007A3E0C39464748094807B
:10C258005008E004F012D16480E89007A3E0C3948A
:0CC26800647480948040037F01227F00FA
:01C2740022A7
:10C6D900E49007A4F030C6159007A4E0C3946474ED
:10C6E9008094805008E004F012D16480E8E4900757
:10C6F900A4F020C6159007A4E0C3946474809480C4
:10C709005008E004F012D16480E812D10430C60365
:05C719007F01227F00FA
:01C71E0022F8
:10CA0700E490078FF090078EF090078EE0C39408AC
:10CA170074809480501CA3E0FF25E0F0E0FEC00680
:10CA270012C6D9D0E04F90078FF090078EE004F040
:07CA370080D790078FE0FF9C
:01CA3E0022D5
:0BB3F4009006CCEBF0A3EAF0A3E9F018
:10B3FF0012D06612C218EF600302B49F9006D4F009
:10B40F009006D4E0C3940574809480501A12CA0732
:10B41F009006D4E024CFF582E43406F583EFF09064
:10B42F0006D4E004F080D99006D0E0FF9006CFE07C
:10B43F002FFFE433FE9006D1E07C002FFFEC3EFEA1
:10B44F00A3E02FFFEC3EFEA3E06F7001EE7044907F
:10B45F0006CFE0FF9006CCE0FBA3E0FAA3E0F9EF04
:10B46F001221759006D0E0FF9006CCE0FBA3E0FA26
:10B47F00A3E0F9900001EF1221879006D1E0900030
:10B48F00021221879006D2E09000031221878003D9
:05B49F007F01227F0087
:01B4A4002285
:0ED0740053B3BF53B4BFD2C612D06602C21867
:10CFA8007B017A07795712B3F4EF70F4900757E0D2
:01CFB800FF79
:01CFB9002255
:10B27B007B017A0679EF12B3F4EF70F49006F1E0EC
:10B28B00547FFCE4121D859006F31224A89006F35C
:10B29B00E0FCA3E0FDA3E0FEA3E0FFE4FBFA7920D2
:10B2AB007841121B5C9006F31224A89006F3E0F889
:10B2BB00A3E0F9A3E0FAA3E0FBC000C001C002C009
:10B2CB00039006F2E0FCE4121D85D003D002D001FE
:10B2DB00D000121A6B9006F31224A89006F3E0FC30
:10B2EB00A3E0FDA3E0FEA3E0FFE4FBFA79207841A5
:10B2FB00121C659006F31224A89006F1E030E71EAD
:10B30B009006F3E0FCA3E0FDA3E0FEA3E0FFE4FB6B
:10B31B00FA798078BF121B5C9006F31224A8900672
:0CB32B00F3E0FCA3E0FDA3E0FEA3E0FFC4
:01B3370022F3
:1025640025640000000000000000000000000000DE
:10257400000404040404040004000000140A0A0013
:1025840000000000000000000014143F140A3F0A79
:102594000A000000041E1505060C14150F040000A3
:1025A4000012150D0A142C2A1200000000040A0A55
:1025B4001E1515093600000002020100000000008B
:1025C4000000000020100808080808081020000077
:1025D40002040808080808080402000000000415A2
:1025E4000E0E150400000000000404041F0404047B
:1025F40000000000000000000000000002020100D2
:10260400000000001F0000000000000000000000A7
:102614000000000002000000100808080404020280
:1026240002010000000E1111111111110E00000021
:1026340000040604040404040E000000000E11113A
:10264400080402011F000000000E11100C101011EC
:102654000E00000000080C0A0A091E0818000000F9
:10266400001F01010F1010110E000000000E0901DF
:102674000F1111110E000000001F090804040404C6
:1026840004000000000E11110E1111110E000000C3
:10269400000E1111111E10120E00000000000004A3
:1026A400000000000400000000000000040000001E
:1026B4000404000020100804020408102000000094
:1026C4000000001F00001F000000000002040810AA
:1026D4002010080402000000000E11110804040078
:1026E40004000000000E111915151D011E00000044
:1026F4000004040C0A0A1E1233000000000F121218
:102704000E1212120F000000001E1101010101112E
:102714000E000000000F1212121212120F0000001D
:10272400001F120A0E0A02121F000000001F120AE4
:102734000E0A020207000000001C120101391112E6
:102744000C000000003312121E121212330000009B
:10275400001F0404040404041F000000003E0808D1
:1027640008080808090700000037120A060A0A12B6
:102774003700000000070202020202223F000000AC
:10278400001B1B1B1B15151515000000003B121622
:10279400161A1A1217000000000E1111111111114E
:1027A4000E000000000F12120E02020207000000C9
:1027B400000E1111111117190E180000000F12123A
:1027C4000E0A121237000000001E11010608101133
:1027D4000F000000001F1504040404040E00000090
:1027E40000331212121212120C00000000331212E3
:1027F4000A0A0C0404000000001515150E0A0A0A42
:102804000A000000001B0A0A04040A0A1B00000054
:10281400001B0A0A040404040E000000001F090837
:10282400040402121F0000001C0404040404040431
:10283400041C00000202020404080808100000003E
:102844000E08080808080808080E0000040A00001A
:102854000000000000000000000000000000000074
:1028640000003F0004000000000000000000000021
:10287400000000000C121C123C00000000030202C5
:102884000E1212120E000000000000001C120202C0
:102894001C000000001810101C1212123C00000052
:1028A400000000000C121E021C000000003804048A
:1028B4001E0404041E000000000000003C120C0270
:1028C4001E221C00000302020E1212123700000026
:1028D40000040000060404040E00000000080000C8
:1028E4000C08080808080700000302023A0A0E123E
:1028F4003700000000070404040404041F0000005F
:10290400000000000F151515150000000000000060
:102914000F12121237000000000000000C121212F5
:102924000C000000000000000F1212120E0207003B
:10293400000000001C1212121C10380000000000DD
:102944001B06020207000000000000001E020C101B
:102954001E000000000004040E040404180000001B
:10296400000000001B1212123C00000000000000D6
:1029740037120A0C040000000000000015150E0AAE
:102984000A000000000000001B0A040A1B000000EB
:102994000000000037120A0C0404030000000000C9
:1029A4001E0804041E00000018080808040808088B
:1029B4000818000808080808080808080808080093
:1029C4000604040408040404040600022518000094
:1029D40000000000000000000000000000000000F3
:1029E40000000000000000000000080808080808B3
:1029F4000800001818000000486C241200000000B1
:102A0400000000000000000000002424247F1212B3
:102A1400127F12121200000000081C2A2A0A0C1845
:102A240028282A2A1C080800000022251515152A22
:102A3400585454542200000000000C1212120A765A
:102A4400252911916E000000060604030000000011
:102A540000000000000000004020101008080808D2
:102A6400080810102040000002040808101010107C
:102A7400101008080402000000000008086B1C1C69
:102A84006B08080000000000000000080808087F28
:102A94000808080800000000000000000000000012
:102AA400000000060604030000000000000000FE11
:102AB4000000000000000000000000000000000012
:102AC4000000000606000000008040402020101096
:102AD4000808040402020000000018244242424292
:102AE40042424224180000000000080E08080808AA
:102AF400080808083E00000000003C424242202032
:102B0400100804427E00000000003C4242201820CD
:102B1400404042221C0000000000203028242422CF
:102B2400227E20207800000000007E0202021A2685
:102B3400404042221C0000000000382402021A26F1
:102B4400424242241800000000007E222210100895
:102B5400080808080800000000003C42424224180B
:102B6400244242423C0000000000182442424264D5
:102B7400584040241C000000000000000018180009
:102B84000000001818000000000000000000080009
:102B9400000000000808040000004020100804029F
:102BA400040810204000000000000000007F000026
:102BB400007F000000000000000002040810204014
:102BC400201008040200000000003C42424640205D
:102BD400101000181800000000001C225A5555550A
:102BE400552D42221C00000000000808181414246B
:102BF4003C224242E700000000001F2222221E2243
:102C0400424242221F00000000007C4242010101B6
:102C1400010142221C00000000001F2242424242E5
:102C2400424242221F00000000003F4212121E12C4
:102C3400120242423F00000000003F4212121E12E4
:102C4400120202020700000000003C2222010101DE
:102C5400712122221C0000000000E7424242427E11
:102C640042424242E700000000003E08080808080B
:102C7400080808083E00000000007C101010101026
:102C84001010101010110F0000007722120A0E0A03
:102C94001212222277000000000007020202020240
:102CA400020202427F000000000077363636362AE0
:102CB4002A2A2A2A6B0000000000E346464A4A52A8
:102CC400525262624700000000001C22414141410F
:102CD400414141221C00000000003F424242423E6A
:102CE400020202020700000000001C22414141418F
:102CF400414D53321C60000000003F4242423E12EC
:102D040012222242C700000000007C424202041842
:102D1400204042423E00000000007F4908080808A5
:102D2400080808081C0000000000E7424242424232
:102D3400424242423C0000000000E7424222242476
:102D4400141418080800000000006B49494949554B
:102D540055362222220000000000E74224241818DD
:102D640018242442E70000000000772222141408EB
:102D7400080808081C00000000007E21201010082C
:102D8400040442423F0000007808080808080808C4
:102D9400080808080878000000020204040808086B
:102DA40010102020204040001E1010101010101091
:102DB40010101010101E0000384400000000000025
:102DC40000000000000000000000000000000000FF
:102DD400000000000000FF000608000000000000E2
:102DE40000000000000000000000000000003C4261
:102DF40078444242FC0000000000030202021A264A
:102E0400424242261A00000000000000000038443C
:102E14000202024438000000000060404040784450
:102E240042424264D80000000000000000003C421E
:102E34007E0202423C0000000000F08808087E0880
:102E4400080808083E0000000000000000007C2282
:102E5400221C023C42423C000000030202023A46A9
:102E640042424242E700000000000C0C00000E0841
:102E7400080808083E000000000030300000382038
:102E84002020202020221E000000030202027212D1
:102E94000A1612227700000000000E08080808082D
:102EA400080808083E0000000000000000007F92AF
:102EB40092929292B70000000000000000003B468E
:102EC40042424242E70000000000000000003C4291
:102ED400424242423C0000000000000000001B2669
:102EE400424242221E020700000000000000784413
:102EF400424242447840E000000000000000774C69
:102F0400040404041F0000000000000000007C42D0
:102F1400023C40423E0000000000000008083E0859
:102F240008080808300000000000000000006342A8
:102F340042424262DC000000000000000000E74260
:102F44002424140808000000000000000000EB49DD
:102F5400495555222200000000000000000076249C
:102F6400181818246E000000000000000000E7425A
:102F740024241418080807000000000000007E2222
:102F8400100808447E000000C020202020201020CB
:102F94002020202020C0001010101010101010103D
:102FA4001010101010101000060808080808100867
:102FB400080808080806000C32C2000000000000DF
:0B2FC400000000000000000000000002
:0ABCC3004205960000420594FFFFC1
:0FD01D00C293C2918FE800000000D291D29322FB
:10CFBA00C293C29012D164AFE8EF7F00FED290D242
:01CFCA0093D3
:01CFCB002243
:05D17800C28302D01D7E
:05D10E0012D178E4FFDE
:05D11300D28302D01DD3
:0AD11800D28312CFBAEEFF7E002290
:05CF4600E0FEA3E0FF86
:10CF4B00AD07AC06D283ECFF12D01DAF0502D01D8E
:10CD5F00AA07ED54FC75F008A4FDEA54F845F0FE5F
:0FCD6F00EDFFEB54F8131313541FFDEF4DFF228C
:10BB7200D283C293C29012D164AFE890075BE4F023
:10BB8200A3EFF0E0F8E4F0E890075BF0D290C29007
:10BB920012D164AFE890075BE4F0A3EFF0E0F8E4C1
:10BBA200F0E890075BF0D290C29012D164AFE890B7
:10BBB200075DE4F0A3EFF0E0F8E4F0E890075DF051
:10BBC200D290C29012D164AFE8AB07EBFAD2909058
:10BBD200075BE0FF7E00EEF0A3EFF0A3E0F8E4F0F5
:10BBE200E8A3F0EAFB7A00D29390075DA3E0FD029E
:02BBF200CD5F25
:0AD1220012D178AE04AF0502D1135C
:10C5FC00900417EBF0A3EAF0A3E9F07E0012D178D7
:10C60C0075E8FF75CBFFE4F5CC90041A74FFF5F0D8
:10C61C0012225C45F0601912D118900417E0FBA3AC
:10C62C00E475F00112225CA9F0FAEF12217580D9A1
:0AC63C00E4F5CB75CCFF75E8FF2292
:0BD0CF0090059FE0FEA3E0FF02D17877
:0BD0DA009005A1E0FEA3E0FF02D1786A
:08C3DA00900414EEF0A3EFF053
:10C3E20012BBF4E4900416F0A3F0900598E0FEA3CB
:10C3F200E0FFC3900417E09F900416E09E502DE4E6
:10C40200FBFAD390059BE09B90059AE09A400D9031
:10C41200041412CF460BBB00010A80E6900417E019
:0CC4220004F070C6900416E004F080BE28
:01C42E0022EB
:10C71F00900506E02401FF900505E03400FE90052A
:0CC72F0008E02401FD900507E03400FC48
:10C73B00AB07AA068D828C83C006C007AE83AF827F
:10C74B00900466EEF0A3EFF0D007D00612BC1B905E
:0AC75B000596E0FEA3E0FF02CF4BBD
:08C64600900790EEF0A3EFF065
:10C64E00D3900599E09F900598E09E400DD39005FC
:10C65E009BE09D90059AE09C5004E4FEFF2290071B
:10C66E0090E0FEA3E0FF12C4B112D0DA75E8FF75B8
:10C67E00CBFFE4F5CC12BB72E4F5CB75CCFF75E8BD
:01C68E00FFAC
:01C68F002288
:10CC06005391FE4392015391FD4392025393F7438E
:10CC160094085391F74392085391DF439220E4F529
:05CC2600CB75CCFF22DC
:10CE90007F327E0012CFDEC2957F327E0012CFDE5F
:09CEA000D2957F327E0002CFDE44
:10907B0012CC0612CE907F017E0012D1787F321275
:10908B00CFDE7F287E0012D1787FF612D1787F0158
:10909B0012D11312D1131F12D1137FCF12D10E7F06
:1090AB008112D1137F3012D1137FED12D1787F64EF
:1090BB0012D1137F0312D1137F1212D1137F81129E
:1090CB00D1137FE812D1787F8512D1137F1012D183
:1090DB00137F7812D1137FCB12D1787F3912D11332
:1090EB007F2C12D113E4FF12D1137F3412D1137FD3
:1090FB000212D1137FF712D1787F2012D1137FEA9E
:10910B0012D10E12D1137FB012D10E7FB412D10E29
:10911B007FC012D1787F2112D1137FC112D1787FFA
:10912B001112D1137FC512D1787F3F12D1137F3C1F
:10913B0012D1137FC712D1787FB512D1137F36129C
:10914B00D1787F4812D1137F3A12D1787F5512D143
:10915B00137FB112D10E7F1B12D1137FB612D178B0
:10916B007F0A12D1137FA212D1137FF212D10E7F7D
:10917B002612D1787F0112D1137FE012D1787F0FA5
:10918B0012D1137F2612D1137F2412D1137F0B120E
:10919B00D1137F0E12D1137F0912D1137F5412D129
:1091AB00137FA812D1137F4612D1137F0C12D11348
:1091BB007F1712D1137F0912D1137F0F12D1137F97
:1091CB000712D113E4FF12D1137FE112D10E7F19D5
:1091DB0012D1137F1B12D1137F0412D1137F1012E4
:1091EB00D1137F0712D1137F2A12D1137F4712D1CC
:1091FB00137F3912D1137F0312D1137F0612D113B0
:10920B0012D1137F3012D1137F3812D1137F0F126B
:10921B00D1137F2B12D10E12D1130F12D1137F3F0B
:10922B0012D1137F2A12D10E12D11312D1137FEF49
:10923B0012D1137FB712D1787F0712D1137F11127E
:10924B00D1787F9612CFDE7F297E0012D17812CA99
:0E925B00DC90059CEEF0A3EFF0E4FF02A5BC52
:10BBF400900599E024FFFB900598E034FFFA900546
:10BC04009BE024FFFE90059AE034FF900466F0A3C5
:07BC1400CEF0E4FDFCFFFE91
:10BC1B00900460EEF0A3EFF09005A3E0FEA3E0FF2D
:10BC2B0012D178900460E0FF7E0012D113A3E0FFE5
:10BC3B0012D113EAFF12D113AF037E0012D113906E
:10BC4B0005A5E0FEA3E0FF12D178ECFF7E0012D138
:10BC5B0013AF057E0012D113900466E0FF12D113CF
:09BC6B00A3E0FF12D11302D0CFB7
:10C4820090061EE075F00CA4FF900616E02FFF90B8
:10C492000615E035F0FEEB7C002FFFEC3EFE900629
:0FC4A2001FE0FD900618E09006172DFDE03CFC12
:10C4B100AB07AA068D828C83C006C007AE83AF820C
:0FC4C100900466EEF0A3EFF0D007D00602BC1B8C
:10A5BC009005A3E4F0A3742AF0A3E4F0A3742BF0A9
:10A5CC0090059FE4F0A3742CF0A3E4F0A3742EF098
:10A5DC00EF14605014700302A66B14700302A6A64D
:10A5EC002403600302A6E8900598E4F0A374F0F04D
:10A5FC00A37401F0A37440F0A3E0FEA3E0FFBE93AC
:10A60C0007BF40047D0180027D00BE9307BF41045B
:10A61C007F0180027F00EF4D60057D0802A6DF7D83
:10A62C004002A6DF9005987401F0A37440F0A3E4F7
:10A63C00F0A374F0F0A3E0FEA3E0FFBE9307BF40CD
:10A64C00047D0180027D00BE9307BF41047F018021
:10A65C00027F00EF4D60047DF880027DF0807490E5
:10A66C000598E4F0A374F0F0A37401F0A37440F027
:10A67C00A3E0FEA3E0FFBE9307BF40047D01800270
:10A68C007D00BE9307BF41047F0180027F00EF4D28
:10A69C0060047D9880027DC080399005987401F02B
:10A6AC00A37440F0A3E4F0A374F0F0A3E0FEA3E0E5
:10A6BC00FFBE9307BF40047D0180027D00BE93075F
:10A6CC00BF41047F0180027F00EF4D60047D288034
:0DA6DC00027D207C007F367E0012D12222FC
:10CADC0078127C047D017BFF7A2F79CB7E007F045A
:10CAEC001221097B017A04791290041AE4F0A374E0
:10CAFC0004F07FD312C5FC900414E0FEA3E0FDED1E
:01CB0C00FF29
:01CB0D002205
:10AA3D00900488E0FCA3E0FD900486E0FAA3E0FB1F
:10AA4D00A3E0FFA3E0900456CFF0A3EFF0900482B3
:10AA5D00E0FFA3E0900458CFF0A3EFF0900484E062
:04AA6D00FEA3E0FF65
:0EAA7100900450EEF0A3EFF0A3ECF0A3EDF094
:10AA7F00900450E0FEA3E0FFC3EB9FFFEA9ECF24BC
:10AA8F0001CF340090045CF0A3EFF0900452E0FE8D
:10AA9F00A3E0FFC3900457E09FFF900456E09ECFC2
:10AAAF002401CF340090045EF0A3EFF0900452E045
:10AABF00FCA3E0FD900456E0FFA3E0900466CFF006
:10AACF00A3EFF0900450E0FEA3E0FF12BC1BE49054
:10AADF00045AF0A3F090045EE0FEA3E0FFC39004DD
:10AAEF005BE09F90045AE09E502DE4FBFAD3900454
:10AAFF005DE09B90045CE09A400D90045812CF46A5
:10AB0F000BBB00010A80E690045BE004F070C69076
:10AB1F00045AE004F080BE900599E024FFFB9005F5
:10AB2F0098E034FFFA90059BE024FFFE90059AE031
:10AB3F0034FF900466F0A3CEF0E4FDFCFFFE02BCF0
:01AB4F001BEA
:0E8C5D0090041EEEF0A3EFF0A3ECF0A3EDF0F8
:108C6B00E490042AF0A3F0A3F0A3F0900596E0FFA4
:108C7B00A3E090043CCFF0A3EFF0900426E0FFA319
:108C8B00E0900596CFF0A3EFF090041EE0FEA3E07A
:108C9B00FFC3EB9FFFEA9E90042EF0A3EFF090042E
:108CAB0020E0FAA3E0FBC3900425E09BFE90042494
:108CBB00E09A900430F0A3CEF090041EE0FFA3E006
:108CCB00900438CFF0A3EFF0A3EAF0A3EBF09004FD
:108CDB002EE0FEA3E0FFD39400EE64809480400A64
:108CEB00900434E4F0A304F08021EF4E700890045C
:108CFB0034F0A3F0801574FF900434F0A3F0C3E4B8
:108D0B009FFFE49E90042EF0A3EFF0900430E0FE62
:108D1B00A3E0FFD39400EE64809480400A90043665
:108D2B00E4F0A304F08021EF4E7008900436F0A31A
:108D3B00F0801574FF900436F0A3F0C3E49FFFE4BA
:108D4B009E900430F0A3EFF0900430E0FEA3E0FF20
:108D5B0090042EE0FCA3E0FDD39FEE6480F8EC645E
:108D6B0080989004324007ECF0A3EDF08005EEF014
:108D7B00A3EFF0E4900428F0A3F0900433E0240177
:108D8B00FF900432E03400FED3900429E09FEE64A0
:108D9B0080F8900428E06480984003028E6B900466
:108DAB0038E0FEA3E0FFA3E0FCA3E0FD12C73B907D
:108DBB00042EE0FEA3E0FF90042BE02FF090042A9A
:108DCB00E03EF0900430E0FEA3E0FF90042DE02F96
:108DDB00F090042CE03EF0900432E0FEA3E0FF9014
:108DEB00042AE0FCA3E0FDD39FEE6480F8EC6480E2
:108DFB00984020ED9FFFEC9E90042AF0A3EFF0909B
:108E0B000434E0FEA3E0FF900439E02FF090043827
:108E1B00E03EF0900432E0FEA3E0FF90042CE0FC77
:108E2B00A3E0FDD39FEE6480F8EC6480984020EDC6
:108E3B009FFFEC9E90042CF0A3EFF0900436E0FE25
:108E4B00A3E0FF90043BE02FF090043AE03EF0905B
:108E5B000429E004F07006900428E004F0028D85EC
:0F8E6B0090043CE0FFA3E0900596CFF0A3EFF05A
:018E7A0022D5
:0E7729009004EAEEF0A3EFF0A3ECF0A3EDF075
:10773700E49004F7F0A3F0A3F0A3F0900596E0FF20
:10774700A3E0900509CFF0A3EFF09004F3E0FFA3C7
:10775700E0900596CFF0A3EFF09004EAE0FEA3E0F7
:10776700FFC3EB9FFFEA9E9004FBF0A3EFF09004AA
:10777700ECE0FAA3E0FBC39004F1E09BFE9004F079
:10778700E09A9004FDF0A3CEF09004EAE0FFA3E0B6
:10779700900505CFF0A3EFF0A3EAF0A3EBF0900478
:1077A700FBE0FEA3E0FFD39400EE64809480400AE0
:1077B700900501E4F0A304F08021EF4E70089005D6
:1077C70001F0A3F0801574FF900501F0A3F0C3E466
:1077D7009FFFE49E9004FBF0A3EFF09004FDE0FE12
:1077E700A3E0FFD39400EE64809480400A900503E1
:1077F700E4F0A304F08021EF4E7008900503F0A396
:10780700F0801574FF900503F0A3F0C3E49FFFE435
:107817009E9004FDF0A3EFF09004FDE0FEA3E0FFCF
:107827009004FBE0FCA3E0FDD39FEE6480F8EC64DA
:1078370080989004FF4007ECF0A3EDF08005EEF090
:10784700A3EFF0E49004F5F0A3F0900500E0240125
:10785700FF9004FFE03400FED39004F6E09FEE644F
:1078670080F89004F5E06480984003027A40900421
:10787700F2E07011900505E0FEA3E0FFA3E0FCA392
:10788700E0FD12C73B9004F2E064017038900505F3
:10789700E0FEA3E0FFA3E0FCA3E0FD12C73B9005D9
:1078A70006E02401FF900505E03400FE900507E09F
:1078B700FCA3E0FD12C73B900505E0FEA3E0FF1225
:1078C700C72D12C71F9004F2E06402600302798F8C
:1078D700900505E0FEA3E0FFA3E0FCA3E0FD12C7CF
:1078E7003B900506E02401FF900505E03400FE907B
:1078F7000507E0FCA3E0FD12C73B900505E0FEA3EA
:10790700E0FF12C72D12C71F900506E024FFFF9066
:107917000505E034FF12C72C900506E02401FF900F
:107927000505E03400FE900508E024FFFD900507FB
:10793700E034FFFC12C73B900506E024FFFF9005EB
:1079470005E034FFFE900508E024FFFD900507E001
:1079570034FFFC12C73B900506E024FFFF900505A6
:10796700E034FFFE900507E0FCA3E0FD12C73B9063
:107977000505E0FEA3E0FF900508E024FFFD900564
:1079870007E034FFFC12C73B9004FBE0FEA3E0FFD7
:107997009004F8E02FF09004F7E03EF09004FDE04B
:1079A700FEA3E0FF9004FAE02FF09004F9E03EF028
:1079B7009004FFE0FEA3E0FF9004F7E0FCA3E0FDE6
:1079C700D39FEE6480F8EC6480984020ED9FFFEC35
:1079D7009E9004F7F0A3EFF0900501E0FEA3E0FF0F
:1079E700900506E02FF0900505E03EF09004FFE0DB
:1079F700FEA3E0FF9004F9E0FCA3E0FDD39FEE6453
:107A070080F8EC6480984020ED9FFFEC9E9004F98D
:107A1700F0A3EFF0900503E0FEA3E0FF900508E078
:107A27002FF0900507E03EF09004F6E004F07006B2
:107A37009004F5E004F0027851900509E0FFA3E017
:087A4700900596CFF0A3EFF0CB
:017A4F002214
:10AF1300900418EAF0A3EBF0900414EEF0A3EFF022
:10AF2300A3ECF0A3EDF0C007A3E0FAA3E0FB9004C9
:10AF330016E0FFA3E0900424CFF0A3EFF090041CED
:10AF4300E0FFA3E0900426CFF0A3EFF0D007128C2C
:10AF53005D900414E0FAA3E0FBFFAE02C007A3E098
:10AF6300FCA3E0FD90041AE0FFA3E0900424CFF0DB
:10AF7300A3EFF090041CE0FFA3E0900426CFF0A31E
:10AF8300EFF0D007128C5D90041AE0FCA3E0FD9073
:10AF93000418E0FAA3E0FBA3E0FFA3E0900424CFAE
:10AFA300F0A3EFF090041CE0FFA3E0900426CFF0A1
:10AFB300A3EFF0900414E0FEA3E0FF128C5D900475
:10AFC30018E0FAA3E0FBFFAE02C007900416E0FC12
:10AFD300A3E0FD90041AE0FFA3E0900424CFF0A3C4
:10AFE300EFF090041CE0FFA3E0900426CFF0A3EF62
:06AFF300F0D007028C5DA6
:10CC2B00C00790044CE0FFA3E0900456CFF0A3EFB5
:10CC3B00F090044EE0FFA3E0900458CFF0A3EFF088
:05CC4B00D00702AA71F0
:10CAA9009006B3FEE0FCA3E0FD9006B2E02DFD90F8
:0DCAB90006B1E03CFC9006B7E0FAA3E0FBFC
:10CAC600900792EAF0A3EBF012C4B1900792E0FE51
:06CAD600A3E0FF02CF4BBC
:10A216009006B5F0A3EFF0900606E0FFA3E09006E7
:0EA22600B7CFF0A3EFF0900600E0FEA3E0FF3C
:10A234009006B1ECF0A3EDF09006AFEEF0A3EFF0D2
:10A244009006B3EAF0A3EBF02FFFEE3AA312CAACE8
:10A254009006B3E0FEA3E0FFC39006B0E09FFF903A
:10A2640006AFE09EFE9006B512CAAD9006B3E0FEBE
:10A27400A3E0FF9006B0E02FFF9006AFE03EFE9013
:10A2840006B5E0FCA3E0FDC39006B2E09DFD900698
:10A29400B1E09C12CABD9006B3E0FEA3E0FFC390F8
:10A2A40006B0E09FFF9006AFE09EFE9006B5E0FC8E
:10A2B400A3E0FDC39006B2E09DFD9006B1E09C12C0
:10A2C400CABD9006B5E0FEA3E0FF9006B0E02FFF04
:10A2D4009006AFE03E12CAA99006B5E0FEA3E0FFE7
:10A2E400C39006B0E09FFF9006AFE09E12CAA9900B
:10A2F40006B5E0FEA3E0FF9006B0E02FFF9006AFA6
:10A30400E03EFE9006B3E0FCA3E0FDC39006B2E09D
:10A314009DFD9006B1E09C12CABD9006B5E0FEA377
:10A32400E0FFC39006B0E09FFF9006AFE09EFE9072
:10A3340006B3E0FCA3E0FDC39006B2E09DFD9006E9
:0FA34400B1E09CFC9006B7E0FAA3E0FB02CAC6AA
:0E944D00900600EEF0A3EFF0A3ECF0A3EDF01C
:10945B00E4900609F0A3F0A3EAF0A3EBF025E0FFFC
:10946B00EA33FEC374039F900610F0E49E90060F40
:10947B00F0900608E0700302957C90060BE0FEA3CB
:10948B00E0FF900609E0FCA3E0FDD39FEE6480F8BB
:10949B00EC648098400302962E90060DECF0A3ED41
:1094AB00F090060BE0FEA3E0FFD390060EE09FEEDC
:1094BB006480F890060DE0648098502B900602E0D3
:1094CB00FCA3E0FD900609E0FAA3E0FB90060DE09B
:1094DB00FFA3E0CF12A21690060EE004F070C2902C
:1094EB00060DE004F080BA90060FE0FCA3E0FDC38C
:1094FB00EC648094805023900609E0FEA3E0780290
:10950B00C333CE33CED8F92DFFEC3ECF2406CF3468
:10951B000090060FF0A3EFF0804390060BE0FEA344
:10952B00E0FFC390060AE09FFF900609E09EFEEF66
:10953B007802C333CE33CED8F9FF900610E02FFF5D
:10954B0090060FE03ECF240ACF3400F0A3EFF0904B
:10955B00060CE024FFF090060BE034FFF090060AB7
:10956B00E004F06003029485900609E004F0029495
:10957B008590060BE0FEA3E0FF900609E0FAA3E05E
:10958B00FBD39FEE6480F8EA648098400302962E2A
