:0EBBD400410002004202030032420000000065
:10AA8800E490040FF0A374FFF012CB3912CDFE123C
:10AA9800CF3CD2AF12CE6212D1091290E87B017A74
:10AAA80004790712B1F690040BA3A3E0FEA3E0FB20
:10AAB800AA06900407A3A3E0FEA3E02BFFEE3AFE4C
:10AAC80012C509129866900556E06018900557E07F
:10AAD8002458F582E43405F583E0900410F09005DD
:10AAE80056E070FA900002E06010E4F012D09EEF99
:10AAF800600812D11790040FEFF0123CB390040FC6
:10AB0800E0603824F4602424FE602424FA601424CD
:10AB1800FE601424FD6008240870197F7780127F76
:10AB280073800E7F61800A7F6480067F7180027F58
:10AB38007212B4E8E490040FF0808B900410E0FFE8
:10AB4800FD3395E0FCEDF47002ECF4700302AACE3C
:10AB5800EF24DD602824F9602024FD601424FE60C1
:10AB68000C24B76010244D70197F7780127F738092
:10AB78000E7F61800A7F6480067F7180027F721277
:0BAB8800B4E890041074FFF002AACEA5
:03000B0002BE4DE5
:10BE4D00C0E0C0F0C083C082C0D075D000C000C0BB
:0DBE5D0001C002C003C004C005C006C0073C
:10BE6A00900001E02401FF900000E03400FE9002FF
:10BE7A0003E0FAA3E0FBFDAC021221BB900000EC48
:10BE8A00F0A3EDF0EB24FFFFEA34FFFE900000E0A0
:0BBE9A00B50608A3E0B5070312000E78
:10BEA500D007D006D005D004D003D002D001D000F1
:0BBEB500D0D0D082D083D0F0D0E0329B
:0300A30002C7A2EF
:10C7A200C0E0C0F0C083C082C0D075D000C000C05D
:10C7B20001C002C003C004C005C006C00712AC8B92
:10C7C2009000027401F0D007D006D005D004D00347
:10C7D200D002D001D000D0D0D082D083D0F0D0E02F
:01C7E2003224
:1087B10042657374203A0053636F72653A00253144
:1087C1003964002564002020202020202020202042
:1087D100596F752057696E202120202020202020EC
:1087E10020200020202020202020202020596F75CB
:1087F100204C6F7365212020202020202020200084
:108801004A6F696E207468652074696C65732C20E9
:1088110067657420746F2032303438210000000005
:108821000000000000000000000000000000000047
:10883100000000000000000FF00000387800007018
:10884100380000F0380000F0780000F078000000F7
:10885100F0000000E0000001C000000380000007FC
:108861000000000E0000003800000070000000E071
:10887100000001800000030180000E0300001C06BF
:1088810000003FFE00003FFC00000000000000006F
:1088910000000000000000000000000000000000D7
:1088A10000000000000000000000000000000000C7
:1088B100000000000000000FE000001C7000003804
:1088C1007000007070000060700000E0700000E057
:1088D100700001C0E00001C0E0000380E0000381FE
:1088E100C0000381C0000703C00007038000070325
:1088F1008000070700000F0700000E0E0000061C95
:1089010000000738000003F0000000000000000034
:108911000000000000000000000000000000000056
:108921000000000000000000000000000000000046
:10893100000000000000000070000000E0000001E5
:10894100E0000003E0000007C000000FC000001BB2
:10895100C000003380000067800000C7000001876D
:108961000000030F0000060E00000C0E00001FFFA8
:10897100C0003FFFC000001C0000003C00000038A8
:108981000000007C000003FF000000000000000068
:1089910000000000000000000000000000000000D6
:1089A10000000000000000000000000000000000C6
:1089B100000000000000000FF000001C380000382B
:1089C10038000070380000F0380000F0700000F04E
:1089D100600000F1C000007F8000003E0000007FC9
:1089E100000001CF80000387C0000703C0000E0311
:1089F100C0000C03C0000C0380000C0700000E0E29
:108A0100000007BC000001E00000000000000000C1
:0D8A11000000000000000000000000000058
:0FBBE2004204A4080042049F00004204A2000095
:10B37B00E4900423F0FFEFC394047480948050484E
:10B38B00E4FEEEC39404748094805039EF75F0089A
:10B39B00A424A6F582E43404F58375F002EE12249E
:10B3AB00E5E0FCA3E04C701AEF25E025E02EFD90C4
:10B3BB000423E0FC04F074132CF582E43404F583CD
:10B3CB00EDF00E80BD0F80AE900423E07002FF22E3
:10B3DB0012C4CB900423E0FD7C0012221074132DB9
:10B3EB00F58274043CF583E0900412F012C4CB7C1C
:10B3FB00007D0A122210ED64014C7005FE7F048063
:10B40B00047E007F02900412E0FD1313543F75F08D
:10B41B0008A424A6F582E43404F583ED540375F0F7
:0BB42B00021224E5EEF0A3EFF07F0119
:01B4360022F3
:10693700E4F9E9FF3395E0FEC3EF9404EE64809435
:10694700804003026C15E4900413F0A3F0A3F090C9
:106957000412F0900412E0FFFD3395E0FCC3ED94C0
:1069670004EC648094804003026C11EF3395E0FCE3
:10697700ED25E0FBEC33FAE9FF3395E0FEEF780312
:10698700C333CE33CED8F924A6F58274043EF583FB
:10699700E5822BF582E5833AF583E0FAA3E0FBED88
:1069A70025E0FDEC33FCE9FF3395E0FEEF7803C308
:1069B70033CE33CED8F92416F58274043EF583E539
:1069C700822DF582E5833CF583EAF0A3EBF0E9FF3E
:1069D7003395E0FEEF7803C333CE33CED8F924A640
:1069E700F58274043EF583E5822DF582E5833CF557
:1069F70083E0FEA3E0FF4E7003026C08900414E0EE
:106A0700FCA3E0FD4C700B900414EEF0A3EFF00232
:106A17006B87900412E0FF3395E0FEEF25E0FBEE75
:106A270033FAE9FF3395E0FEEF7803C333CE33CE75
:106A3700D8F924A6F58274043EF583E5822BF58206
:106A4700E5833AF583E0FEA3E06D7002EC6E600328
:106A5700026B02900415E025E0FD900414E033FC7E
:106A6700900413E0FF3395E0FEEF25E0FBEE33FAE9
:106A7700E9FF3395E0FEEF7803C333CE33CED8F981
:106A870024A6F58274043EF583E5822BF582E5831F
:106A97003AF583ECF0A3EDF0900415E025E0FF90C4
:106AA7000414E033FE9004A0E02FF090049FE03E32
:106AB700F0E4900414F0A3F0E9FF3395E0FEEF78DB
:106AC70003C333CE33CED8F924A6F58274043EF53A
:106AD70083E5822BF582E5833AF583E0FEA3E0FFA9
:106AE7009004A4E0FCA3E0FDEF6D7002EE6C600380
:106AF700026B819004A104F0026B81900414E0FC06
:106B0700A3E0FD900413E0FF3395E0FEEF25E0FBE3
:106B1700EE33FAE9FF3395E0FEEF7803C333CE3364
:106B2700CED8F924A6F58274043EF583E5822BF5C9
:106B370082E5833AF583ECF0A3EDF0900412E0FFD1
:106B47003395E0FEEF25E0FDEE33FCE9FF3395E0FA
:106B5700FEEF7803C333CE33CED8F924A6F582747B
:106B6700043EF583E5822DF582E5833CF583E0FF5E
:106B7700A3E0900414CFF0A3EFF0900413E004F027
:106B8700900412E0FF3395E0FEEF25E0FDEE33FCC5
:106B9700E9FF3395E0FEEF7803C333CE33CED8F960
:106BA70024A6F58274043EF583E5822DF582E583FC
:106BB7003CF583E4F0A3F0900414E07002A3E060D6
:106BC70040900414E0FCA3E0FD900413E0FF33952C
:106BD700E0FEEF25E0FBEE33FAE9FF3395E0FEEF49
:106BE7007803C333CE33CED8F924A6F58274043E96
:106BF700F583E5822BF582E5833AF583ECF0A3ED87
:106C0700F0900412E004F002695A09026939E4F9C4
:106C1700E9FF3395E0FEC3EF9404EE64809480406F
:106C270003026CBEE4900412F0900412E0FFFD33FF
:106C370095E0FCC3ED9404EC648094805075EF33C9
:106C470095E0FCED25E0FBEC33FAE9FF3395E0FE38
:106C5700EF7803C333CE33CED8F92416F582740404
:106C67003EF583E5822BF582E5833AF583E0FAA3C7
:106C7700E0FBED25E0FDEC33FCE9FF3395E0FEEFAB
:106C87007803C333CE33CED8F924A6F58274043EF5
:106C9700F583E5822DF582E5833CF583E0FEA3E0ED
:106CA7006B7002EE6A60037F0122900412E004F029
:096CB700026C3009026C177F0029
:016CC00022B1
:106CC100E4F9E9FF3395E0FEC3EF9404EE648094A8
:106CD100804003026F9E9004137403F0E4A3F0A3B9
:106CE100F09004127403F0900412E0FF3395E0C3B6
:106CF100648094805003026F9AEFFD3395E0FCEDC0
:106D010025E0FBEC33FAE9FF3395E0FEEF7803C3AE
:106D110033CE33CED8F924A6F58274043EF583E54B
:106D2100822BF582E5833AF583E0FAA3E0FBED25BA
:106D3100E0FDEC33FCE9FF3395E0FEEF7803C3336C
:106D4100CE33CED8F92416F58274043EF583E5825C
:106D51002DF582E5833CF583EAF0A3EBF0E9FF33FF
:106D610095E0FEEF7803C333CE33CED8F924A6F5F0
:106D71008274043EF583E5822DF582E5833CF5833B
:106D8100E0FEA3E0FF4E7003026F91900414E0FC5B
:106D9100A3E0FD4C700B900414EEF0A3EFF0026F32
:106DA10010900412E0FF3395E0FEEF25E0FBEE3397
:106DB100FAE9FF3395E0FEEF7803C333CE33CED843
:106DC100F924A6F58274043EF583E5822BF582E56C
:106DD100833AF583E0FEA3E06D7002EC6E6003027E
:106DE1006E8B900415E025E0FD900414E033FC90D7
:106DF1000413E0FF3395E0FEEF25E0FBEE33FAE903
:106E0100FF3395E0FEEF7803C333CE33CED8F924B8
:106E1100A6F58274043EF583E5822BF582E5833A7B
:106E2100F583ECF0A3EDF0900415E025E0FF90046C
:106E310014E033FE9004A0E02FF090049FE03EF0B8
:106E4100E4900414F0A3F0E9FF3395E0FEEF78033A
:106E5100C333CE33CED8F924A6F58274043EF5832C
:106E6100E5822BF582E5833AF583E0FEA3E0FF900E
:106E710004A4E0FCA3E0FDEF6D7002EE6C60030280
:106E81006F0A9004A104F0026F0A900414E0FCA3BD
:106E9100E0FD900413E0FF3395E0FEEF25E0FBEE0B
:106EA10033FAE9FF3395E0FEEF7803C333CE33CEF7
:106EB100D8F924A6F58274043EF583E5822BF58288
:106EC100E5833AF583ECF0A3EDF0900412E0FF3393
:106ED10095E0FEEF25E0FDEE33FCE9FF3395E0FEA2
:106EE100EF7803C333CE33CED8F924A6F5827404E8
:106EF1003EF583E5822DF582E5833CF583E0FFA332
:106F0100E0900414CFF0A3EFF0900413E014F0909C
:106F11000412E0FF3395E0FEEF25E0FDEE33FCE9DE
:106F2100FF3395E0FEEF7803C333CE33CED8F92497
:106F3100A6F58274043EF583E5822DF582E5833C56
:106F4100F583E4F0A3F0900414E07002A3E0604044
:106F5100900414E0FCA3E0FD900413E0FF3395E0FE
:106F6100FEEF25E0FBEE33FAE9FF3395E0FEEF7823
:106F710003C333CE33CED8F924A6F58274043EF58B
:106F810083E5822BF582E5833AF583ECF0A3EDF0FE
:106F9100900412E014F0026CE809026CC3E4F9E910
:106FA100FF3395E0FEC3EF9404EE648094804003C8
:106FB100027047E4900412F0900412E0FFFD339553
:106FC100E0FCC3ED9404EC648094805075EF33953C
:106FD100E0FCED25E0FBEC33FAE9FF3395E0FEEF51
:106FE1007803C333CE33CED8F92416F58274043E28
:106FF100F583E5822BF582E5833AF583E0FAA3E098
:10700100FBED25E0FDEC33FCE9FF3395E0FEEF7885
:1070110003C333CE33CED8F924A6F58274043EF5EA
:1070210083E5822DF582E5833CF583E0FEA3E06BE9
:107031007002EE6A60037F0122900412E004F00204
:087041006FB909026FA07F0086
:017049002224
:10704A00E4F9E9FF3395E0FEC3EF9404EE6480941B
:10705A00804003027308E4900413F0A3F0A3F090B5
:10706A000412F0900412E0FF3395E0FEC3EF94049B
:10707A00EE648094804003027304E9FD3395E0FCDA
:10708A00ED25E0FBEC33FAE03395E0FEEF7803C33D
:10709A0033CE33CED8F924A6F58274043EF583E5BF
:1070AA00822BF582E5833AF583E0FAA3E0FBED252E
:1070BA00E0FDEC33FC900412E0FF3395E0FEEF783C
:1070CA0003C333CE33CED8F9FF2416F58274043EB7
:1070DA00F583E5822DF582E5833CF583EAF0A3EB9F
:1070EA00F074A62FF58274043EF583E5822DF582AD
:1070FA00E5833CF583E0FEA3E0FF4E70030272FBDA
:10710A00900414E0FCA3E0FD4C700B900414EEF024
:10711A00A3EFF0027280E9FF3395E0FEEF25E0FB72
:10712A00EE33FA900412E0FF3395E0FEEF7803C3E2
:10713A0033CE33CED8F924A6F58274043EF583E51E
:10714A00822BF582E5833AF583E0FEA3E06D7002B7
:10715A00EC6E6003027208900415E025E0FD9004CD
:10716A0014E033FCE9FF3395E0FEEF25E0FBEE3354
:10717A00FA900413E0FF3395E0FEEF7803C333CEB1
:10718A0033CED8F924A6F58274043EF583E5822B22
:10719A00F582E5833AF583ECF0A3EDF0900415E06F
:1071AA0025E0FF900414E033FE9004A0E02FF09055
:1071BA00049FE03EF0E4900414F0A3F0900413E07E
:1071CA00FF3395E0FEEF7803C333CE33CED8F924EC
:1071DA00A6F58274043EF583E5822BF582E5833AAF
:1071EA00F583E0FEA3E0FF9004A4E0FCA3E0FDEF3A
:1071FA006D7002EE6C70799004A104F080729004B4
:10720A0014E0FCA3E0FDE9FF3395E0FEEF25E0FB87
:10721A00EE33FA900413E0FF3395E0FEEF7803C3F0
:10722A0033CE33CED8F924A6F58274043EF583E52D
:10723A00822BF582E5833AF583ECF0A3EDF0900416
:10724A0012E0FF3395E0FEEF7803C333CE33CED896
:10725A00F924A6F58274043EF583E5822BF582E5CE
:10726A00833AF583E0FFA3E0900414CFF0A3EFF094
:10727A00900413E004F0E9FD3395E0FCED25E0FB12
:10728A00EC33FA900412E0FF3395E0FEEF7803C383
:10729A0033CE33CED8F924A6F58274043EF583E5BD
:1072AA00822BF582E5833AF583E4F0A3F090041487
:1072BA00E07002A3E0603A900414E0FAA3E0FBED68
:1072CA0025E0FDEC33FC900413E0FF3395E0FEEF7C
:1072DA007803C333CE33CED8F924A6F58274043E9C
:1072EA00F583E5822DF582E5833CF583EAF0A3EB8D
:1072FA00F0900412E004F002706D0902704CE49000
:10730A000412F0900412E0FF3395E0FEC3EF9404F8
:10731A00EE6480948040030273B7E4F9E9FF339581
:10732A00E0FEC3EF9404EE648094805077E9FD3365
:10733A0095E0FCED25E0FBEC33FA900412E0FF3314
:10734A0095E0FEEF7803C333CE33CED8F92416F591
:10735A008274043EF583E5822BF582E5833AF58350
:10736A00E0FAA3E0FBED25E0FDEC33FC900412E02B
:10737A00FF3395E0FEEF7803C333CE33CED8F9243A
:10738A00A6F58274043EF583E5822DF582E5833CF9
:10739A00F583E0FEA3E06B7002EE6A60037F0122D0
:0F73AA0009027326900412E004F002730D7F00B5
:0173B90022B1
:1073BA00E4F9E9FF3395E0FEC3EF9404EE648094A8
:1073CA008040030276779004137403F0E4A3F0A3D9
:1073DA00F09004127403F0900412E03395E0C36451
:1073EA008094805003027673E9FD3395E0FCED2525
:1073FA00E0FBEC33FAE0FF3395E0FEEF7803C333AA
:10740A00CE33CED8F924A6F58274043EF583E582FC
:10741A002BF582E5833AF583E0FAA3E0FBED25E05C
:10742A00FDEC33FC900412E0FF3395E0FEEF7803A5
:10743A00C333CE33CED8F9FF2416F58274043EF551
:10744A0083E5822DF582E5833CF583EAF0A3EBF030
:10745A0074A62FF58274043EF583E5822DF582E544
:10746A00833CF583E0FEA3E0FF4E700302766A9048
:10747A000414E0FCA3E0FD4C700B900414EEF0A39E
:10748A00EFF00275EFE9FF3395E0FEEF25E0FBEE42
:10749A0033FA900412E0FF3395E0FEEF7803C3332A
:1074AA00CE33CED8F924A6F58274043EF583E5825C
:1074BA002BF582E5833AF583E0FEA3E06D7002ECDA
:1074CA006E6003027577900415E025E0FD900414C0
:1074DA00E033FCE9FF3395E0FEEF25E0FBEE33FAFB
:1074EA00900413E0FF3395E0FEEF7803C333CE3305
:1074FA00CED8F924A6F58274043EF583E5822BF5ED
:10750A0082E5833AF583ECF0A3EDF0900415E025CB
:10751A00E0FF900414E033FE9004A0E02FF0900402
:10752A009FE03EF0E4900414F0A3F0900413E0FF0F
:10753A003395E0FEEF7803C333CE33CED8F924A6D1
:10754A00F58274043EF583E5822BF582E5833AF5EC
:10755A0083E0FEA3E0FF9004A4E0FCA3E0FDEF6D4E
:10756A007002EE6C70799004A104F0807290041499
:10757A00E0FCA3E0FDE9FF3395E0FEEF25E0FBEE3A
:10758A0033FA900413E0FF3395E0FEEF7803C33338
:10759A00CE33CED8F924A6F58274043EF583E5826B
:1075AA002BF582E5833AF583ECF0A3EDF090041213
:1075BA00E0FF3395E0FEEF7803C333CE33CED8F93C
:1075CA0024A6F58274043EF583E5822BF582E583D1
:1075DA003AF583E0FFA3E0900414CFF0A3EFF09014
:1075EA000413E014F0E9FD3395E0FCED25E0FBEC33
:1075FA0033FA900412E0FF3395E0FEEF7803C333C9
:10760A00CE33CED8F924A6F58274043EF583E582FA
:10761A002BF582E5833AF583E4F0A3F0900414E0B5
:10762A007002A3E0603A900414E0FAA3E0FBED25AF
:10763A00E0FDEC33FC900413E0FF3395E0FEEF78B5
:10764A0003C333CE33CED8F924A6F58274043EF5AB
:10765A0083E5822DF582E5833CF583EAF0A3EBF01E
:10766A00900412E014F00273E1090273BCE490047E
:10767A0012F0900412E0FF3395E0FEC3EF9404EE9B
:10768A00648094804003027726E4F9E9FF3395E0A9
:10769A00FEC3EF9404EE648094805077E9FD33953D
:1076AA00E0FCED25E0FBEC33FA900412E0FF3395A1
:1076BA00E0FEEF7803C333CE33CED8F92416F58231
:1076CA0074043EF583E5822BF582E5833AF583E07F
:1076DA00FAA3E0FBED25E0FDEC33FC900412E0FF99
:1076EA003395E0FEEF7803C333CE33CED8F924A620
:1076FA00F58274043EF583E5822DF582E5833CF537
:10770A0083E0FEA3E06B7002EE6A60037F01220948
:0E771A00027695900412E004F002767C7F0067
:01772800223E
:10C64000E4FFEFC3940474809480502BE4FEEEC3A7
:10C65000940474809480501CEF75F008A424A6F50F
:10C6600082E43404F58375F002EE1224E5E4F0A3CD
:10C67000F00E80DA0F80CB12B37B12B37BE4900410
:08C680009FF0A3F0A37402F087
:01C68800228F
:10A86000E4900412F0900412E0C394047480948085
:10A87000400302A972E4A3F0900413E0FFC3940420
:10A8800074809480400302A969900412E075F00876
:10A89000A424A6F582E43404F58375F002EF1224B3
:10A8A000E5E0FEA3E04E7002FF22900413E0FF24D7
:10A8B00001FDE433FCC3ED9404EC648094805041CA
:10A8C000900412E0FE75F008A424A8F582E4340494
:10A8D000F58375F002EF1224E5E0FCA3E0FDEE75D0
:10A8E000F008A424A6F582E43404F58375F002EFA1
:10A8F0001224E5E0FEA3E0B50507EEB504037F00F2
:10A9000022900412E0FF2401FDE433FCC3ED940423
:10A91000EC648094805049EF75F008A424AEF58271
:10A92000E43404F583C083C082900413E0FED08237
:10A93000D08375F0021224E5E0FCA3E0FDEF75F092
:10A9400008A424A6F582E43404F58375F002EE121F
:10A9500024E5E0FEA3E0B50507EEB504037F002281
:10A96000900413E004F002A878900412E004F002CE
:04A97000A8657F0156
:01A9740022C0
:10B79A00900414E4F0A37432F0E4900413F09004DB
:10B7AA0013E0C39404748094805053E4FDEDC39471
:10B7BA000474809480503F900413E0FC7E0074105F
:10B7CA00A804088005C333CE33CED8F9A80508806B
:10B7DA0005C333CE33CED8F9FFEC75F008A424A6FE
:10B7EA00F582E43404F58375F002ED1224E5EEF0F7
:10B7FA00A3EFF00D80B7900413E004F080A0E4906A
:10B80A00049FF0A3F0FFFE12CF859004A2EEF0A3EE
:10B81A00EFF0C3EE64809480501AE49004A2F0A37F
:10B82A00F0FFFE12CB079004A2E0FCA3E0FDE4FFC8
:04B83A00FE12CE9399
:01B83E0022E7
:109866007F187EC612C3D57BFF7A88791E900417AF
:10987600E4F0A37438F0A3E4F0A37408F0A374FC36
:10988600F0A37407F074FFA3F0A3F0A37401F07FB4
:1098960004124C149004197401F0A37425F0E4A387
:1098A600F0A3F07BDDFA7D5BFC7F13FE12AF5690D2
:1098B600044B7401F0A37424F0A374A6F0A37451AE
:1098C600F07BDC7A007D5C7C007F147E0012CC2469
:1098D6007BFF7A8779B1E490044CF0A3F0A374C6B9
:1098E600F0A37418F0A37410F0A37401F07D327C19
:1098F600007F147E0012BAB17BFF7A8779B8E490B4
:10990600044CF0A3F0A374C6F0A37418F0A374106B
:10991600F0A37401F07D447C007F147E0012BAB17E
:10992600E4900411F0900411E0FFC3940574809450
:10993600805059EF75F032A4245CFDE435F0FC90BC
:109946000423F0A3EDF0A37454F0A37458F07BDC69
:109956007A007F147E00128ECA900411E075F032F0
:10996600A42414FFE435F0FEAB07FA900423740137
:10997600F0A37424F0A37454F0A37458F07D5C7CB7
:1099860000128ECA900411E004F08099E49004114C
:10999600F0900411E0C39404748094805066E4A3AC
:1099A600F0900412E0FFC3940474809480504DEF4D
:1099B60075F032A4FBAAF02417FFE43AFEC006C0F5
:1099C60007900411E075F032A4FFAEF0245FFDE4C9
:1099D6003EFCEB2443FBE43AFAEF248BFFE43E9093
:1099E6000419F0A3EFF0A3747DF0A314F0D007D010
:1099F6000612AF56900412E004F080A5900411E020
:0D9A060004F0808D9004A17402F002B79A64
:10B4E800E4900411F0EF249F602024FD602924F2E9
:10B4F800601314603C24FC602B240670449004A163
:10B508007403F0803C12C64080379004A1E06402C6
:10B51800702F12693780259004A1E064027022120E
:10B528006CC180189004A1E06402701512704A8002
:10B538000B9004A1E0640270081273BA900411EF32
:10B54800F0900411E0604612B37B12A860EF60052A
:10B55800E49004A1F09004A2E0FEA3E0FF90049F11
:10B56800E0FCA3E0FDD39FEE6480F8EC6480984093
:10B578001C9004A2ECF0A3EDF0E4FFFE12CB0790C0
:0DB5880004A2E0FCA3E0FDE4FFFE12CE9360
:01B595002293
:103CB3009004A1E06403700302421B90044874FF64
:103CC300F0A37487F0A374BFF09004A2E0FFA3E015
:103CD30090044BCFF0A3EFF07B017A0479111255D6
:103CE300C47B017A04791190044C742BF0A37412F1
:103CF300F0A374C6F0A37418F0A37410F0E4A3F057
:103D03007D32FC7F44FE12BAB190044874FFF0A3E5
:103D13007487F0A374BFF090049FE0FFA3E09004C6
:103D23004BCFF0A3EFF07B017A0479111255C47BDA
:103D3300017A04791190044C742BF0A37412F0A34C
:103D430074C6F0A37418F0A37410F0E4A3F07D44D8
:103D5300FC7F44FE12BAB1E4900443F0900443E0C4
:103D6300C394047480948040030241C6E4A3F0909A
:103D73000444E0FFC394047480948040030241BD73
:103D8300900443E075F008A424A6F582E43404F516
:103D93008375F002EF1224E5E0FEA3E0FF4E70030B
:103DA30002416BEF8EF01225373DDC00023E1C0012
:103DB300043E6000083EA400103EE800203F2B00B4
:103DC300403F6E00803FB201003FF60200403A04DC
:103DD30000407D0800000040C3900444E075F032C9
:103DE300A4FBAAF02418FFE43AFEC006C00790041F
:103DF30043E075F032A4FFAEF02460FDE43EFCEB3B
:103E03002442FBE43AFAEF248AFFE43E90044BF0A9
:103E1300A3EFF0A37484023F24900444E075F032CE
:103E2300A4FBAAF02418FFE43AFEC006C0079004DE
:103E330043E075F032A4FFAEF02460FDE43EFCEBFA
:103E43002442FBE43AFAEF248AFFE43E90044BF069
:103E5300A3EFF0A374FCF0A374070240BB900444E7
:103E6300E075F032A4FBAAF02418FFE43AFEC00682
:103E7300C007900443E075F032A4FFAEF02460FD68
:103E8300E43EFCEB2442FBE43AFAEF248AFFE43EEF
:103E930090044BF0A3EFF0A37407F0A374E0024087
:103EA300BB900444E075F032A4FBAAF02418FFE4AD
:103EB3003AFEC006C007900443E075F032A4FFAE9B
:103EC300F02460FDE43EFCEB2442FBE43AFAEF24E9
:103ED3008AFFE43E90044BF0A3EFF0A37401F0A338
:103EE30074CF0240BB900444E075F032A4FBAAF007
:103EF3002418FFE43AFEC006C007900443E075F0BF
:103F030032A4FFAEF02460FDE43EFCEB2442FBE46C
:103F13003AFAEF248AFFE43E90044BF0A3EFF0A3B8
:103F2300E4F0A3741F0240BB900444E075F032A494
:103F3300FBAAF02418FFE43AFEC006C0079004432E
:103F4300E075F032A4FFAEF02460FDE43EFCEB2408
:103F530042FBE43AFAEF248AFFE43E90044BF0A3D9
:103F6300EFF0A374F8F0A3E40240BB900444E075BF
:103F7300F032A4FBAAF02418FFE43AFEC006C007FF
:103F8300900443E075F032A4FFAEF02460FDE43EFC
:103F9300FCEB2442FBE43AFAEF248AFFE43E90046C
:103FA3004BF0A3EFF0A374F8F0A3741F0240BB908F
:103FB3000444E075F032A4FBAAF02418FFE43AFEAF
:103FC300C006C007900443E075F032A4FFAEF024AE
:103FD30060FDE43EFCEB2442FBE43AFAEF248AFF63
:103FE300E43E90044BF0A3EFF0A374BCF0A3744041
:103FF3000240BB900444E075F032A4FBAAF02418FD
:10400300FFE43AFEC006C007900443E075F032A413
:10401300FFAEF02460FDE43EFCEB2442FBE43AFAFD
:10402300EF248AFFE43E90044BF0A3EFF0A3742B3C
:10403300F0A374120240BB900444E075F032A4FB79
:10404300AAF02418FFE43AFEC006C007900443E038
:1040530075F032A4FFAEF02460FDE43EFCEB244295
:10406300FBE43AFAEF248AFFE43E90044BF0A3EF1B
:10407300F0A37484F0A37430803E900444E075F0A0
:1040830032A4FBAAF02418FFE43AFEC006C007904E
:104093000443E075F032A4FFAEF02460FDE43EFC7F
:1040A300EB2442FBE43AFAEF248AFFE43E90044B0C
:1040B300F0A3EFF0E4A3F0A3F0D007D00612CC24D2
:1040C30090044874FFF0A37487F0A374C4F09004C1
:1040D30043E075F008A424A6F582E43404F583C014
:1040E30083C082900444E0D082D08375F00212240E
:1040F300E5E0FFA3E090044BCFF0A3EFF07B017A60
:104103000479111255C47B017A04791112CF14ADCD
:1041130007900444E075F032A4242DFBE435F0FA53
:10412300ED75F004A4FFC3EB9FFFEA95F0FEC00614
:10413300C007900443E075F032A4246DFDE435F02C
:10414300FC7B017A04791174FF90044CF0A3F0A373
:1041530074A6F0A37451F0A37410F0A37401F0D00B
:1041630007D00612BAB18049900444E075F032A436
:10417300FBAAF02418FFE43AFEC006C007900443EC
:10418300E075F032A4FFAEF02460FDE43EFCEB24C6
:1041930042FBE43AFAEF248AFFE43E90044BF0A397
:1041A300EFF0A374A6F0A37451F0D007D00612CC9D
:1041B30024900444E004F0023D72900443E004F0D0
:1041C300023D5F9004A1E0640170107BFF7A877960
:1041D300C790044C74F8F0A3E480239004A1E07B1F
:1041E300FF700E7A8779E490044C74F8F0A3E480AE
:1041F3000D7A88790190044C74BCF0A37440F0A349
:1042030074C6F0A37418F0A3740CF0E4A3F07D2C2F
:084213007C017F24FE12BAB108
:01421B002280
:04D11D007F03DFFEAF
:01D1210022EB
:04D122007F12DFFE9B
:01D1260022E6
:04D127007F26DFFE82
:01D12B0022E1
:04D12C007FC6DFFEDD
:01D1300022DC
:09D0A900007F027E5ADEFEDFFC6E
:01D0B200225B
:09D0B300007F207E28DEFEDFFC78
:01D0BC002251
:10CF9700AD07AC0612D0B3ED1D70011C144C70F434
:01CFA7002267
:07BBF10044074E016E36000F
:10CB3900E4F593F594F591F592F595F596F5B1F53A
:10CB4900B2F5B3F5B4F5C9F5CAF5CBF5CCF5E1F510
:0DCB5900E212D0EE12CE3012CCB5C2C122D5
:10CDFE00C28CD2A95389FC5389FB538FFE438E807C
:09CE0E00758CA2758A40D28C22B9
:10CE1700C28ED2AB5389CF5389BF538FFD438E4008
:09CE2700758DD1758B20D28E228D
:10CEAA00538EE343AF04538FFB438E0475D6E87564
:06CEBA00D790438E102208
:10CF290053D1F043AF2043D10275D4ED75D54043B9
:03CF3900D10822FA
:10CF3C0053D10F43AF4043D12075D2F675D3A043E4
:03CF4C00D180226F
:10CF4F000102040810204080000000FFFF000000D5
:02CF5F000000D0
:10CE300053B3EF43B41053B3F743B40853B3FB43B6
:09CE4000B404C2C4C2C3C2C22280
:0DD04900C2C312D127D2C312D127C2C32205
:05C7E30090041AEFF0C4
:10C7E800E4A3F090041BE0C3940874809480502A5A
:10C7F80090041AE0548064807004D2C48002C2C4D9
:10C8080012D127C2C212D127D2C212D12790041A3C
:0AC81800E025E0F0A3E004F080C981
:01C8220022F3
:10C42A00900413EBF0A3EAF0A3E9F0A3ECF0A3ED78
:01C43A00F011
:10C43B00E4A3F0A3F0900416E0FEA3E0FFA3E0FC5E
:10C44B00A3E0FDC39FEC9E5026900413E0FBA3E0FA
:10C45B00FAA3E0F98D828C83122148FF12C7E39077
:10C46B000419E004F070CE900418E004F080C602CA
:02C47B00D049A6
:10CCB50078117C047D017BFF7ACF79577E007F0256
:10CCC5001221097B017A0479117D027C0002C42AB4
:10CCD50078807C077D017BFF7ACF79597E007F02C2
:10CCE5001221097B017A0779807D027C0002C42A22
:10CCF50078827C077D017BFF7ACF795B7E007F029E
:10CD05001221097B017A0779827D027C0002C42AFF
:05C5180090077AEFF02E
:10C51D00787B7C077D017BFF7ACF795D7E007F0282
:10C52D0012210990077AE0FFD3940774809480401C
:10C53D000BEF90CF479390077BF0800C90077AE03C
:10C54D0090CF4F9390077CF07B017A07797B7D022A
:05C55D007C0002C42A6D
:10CD150078847C077D017BFF7ACF795F7E007F0277
:10CD25001221097B017A0779847D027C0002C42ADD
:08BBF800410786FE41078700AA
:09D0E50053B3FE43B401C2C022A2
:09D0EE0053B3FE43B401D2C02289
:10C32700900786E0FF7E00647F7011A3E070047DB4
:10C337000180027D00900787EDF08019EF64FE4EC3
:10C347007013900787E0600D70047F0180027F0003
:10C35700900787EFF0900786E0FFF5E8A3E0700805
:10C36700EF25E04401FF8009900786E0C31344806E
:06C37700FF900786EFF0C5
:01C37D00229D
:0300A00002CCF59A
:0EB8E2009006E6EFF0A3EBF0A3EAF0A3E9F086
:10B8F000C3740F9F9006EDF0AE029006EAA3E0FA43
:10B90000A3E0C399FFEA9EFE9006E6E0FDC374083B
:10B910009DFDE49400FCD3EF9DEC6480F8EE648020
:10B920009850599006EAE0FBA3E0FAA3E0F9C003BF
:10B93000C002C0019006E7A3E0FAA3E0F9C3D082F9
:10B94000D083D0E0E99582EA958350309006EDE00F
:10B95000FF12C5189006E7E0FBA3E0FAA3E0F91296
:10B96000212FF5E812D0B312CD159006EDE014F0BA
:0CB970009006E8E475F00112224680A762
:01B97C0022A8
:0EBEC0009006FEEBF0A3EAF0A3E9F0A3EDF08C
:10BECE00900703740FF0900703E0FFC3940874808B
:10BEDE009480405012C518900703E0FFC3740F9F63
:10BEEE00FFE49400FE900702E07C002FFFEC3EFE84
:10BEFE00900701E0FD1221BB900704EDF09006FEC5
:10BF0E00E0FBA3E0FAA3E0F9900704E0F582758365
:10BF1E0000122148F5E812D0B312CD15900703E0B8
:04BF2E0014F080A2E9
:01BF320022EC
:10BC00005205A6C0F9A4B0999282F880908883C6A4
:05BC1000A1868EBFFFBC
:10CD730012CCD5E4F5CB75CCFF75E8FF53937F4315
:0DCD83009480D2875395FD439602D2A122E1
:06969C0090066A1224A8EA
:1096A20090066E7406F090066AE0FCEC3390067643
:1096B20040057411F0801A7410F090066AE0FCA361
:1096C200E0FDA3E0FEA3E0FF12243E90066A12240E
:1096D200A8E47B0AFAF9F890066AE0FCA3E0FDA38D
:1096E200E0FEA3E0FF12C75E90066FEBF0E47B0A98
:1096F200FAF9F890066AE0FCA3E0FDA3E0FEA3E01D
:10970200FF12C75EE47B0AFAF9F812C75E90067090
:10971200EBF0E47B64FAF9F890066AE0FCA3E0FD62
:10972200A3E0FEA3E0FF12C75EE47B0AFAF9F81297
:10973200C75E900671EBF0E47BE87A03F9F89006D5
:109742006AE0FCA3E0FDA3E0FEA3E0FF12C75EE433
:109752007B0AFAF9F812C75E900672EBF0E47B100E
:109762007A27F9F890066AE0FCA3E0FDA3E0FEA3E5
:10977200E0FF12C75EE47B0AFAF9F812C75E9006B0
:1097820073EBF07BA07A867901780090066AE0FCA0
:10979200A3E0FDA3E0FEA3E0FF12C75EE47B0AFAAA
:1097A200F9F812C75E900674EBF07B407A42790FAB
:1097B200780090066AE0FCA3E0FDA3E0FEA3E0FFD0
:1097C20012C75EE47B0AFAF9F812C75E900675EBDF
:1097D200F090066EE0FF3395E0FE746F2FF5827411
:1097E200063EF583E0701A90066EE014F0EF3395B2
:1097F200E0FE746F2FF58274063EF5837411F080DB
:10980200D090066AE0FCA3E0FDA3E0FEA3E0FFEC3B
:109812004D4E4F700490066FF090066E7407F090F4
:10982200066EE0FF3395E0C364809480403512C534
:109832001890066EE0FF3395E0FE746F2FF5827488
:10984200063EF583E024A6F582E43405F583E0F5CF
:10985200E87F027E0012CF9712CD1590066EE014BB
:03986200F080BCD7
:0198650022E0
:0BC0140090071BEBF0A3EAF0A3E9F09B
:10C01F00EFC39408748094805057C374089FFEA395
:10C02F00E0FDD39E504BC374089FC39DA3F09007B0
:10C03F001EE0FF14F0EF6039A3E0FF12C518900760
:10C04F001BE0FBA3E0FAA3E0F9A3E0F58275830000
:10C05F0012214824A6F582E43405F583E0F5E87F44
:10C06F00027E0012CF9712CD1590071FE004F080CB
:01C07F00BD03
:01C08000229D
:10CFA800000102000300000004000000000000006F
:10BC1500510558002B0908072D0605047803020174
:04BC25002F23002A9F
:10000E0090056AE0FC75F8F07E3CDEFEE5F854F0F3
:10001E0090056AF075F80F7E3CDEFE90056AE0FEF4
:10002E00E5F8540FFDEE4DF0E0F4F06C70609005C5
:10003E0056E0FC90056AE0900556F0604CC2D5EC97
:10004E007004D2D5801B900556E0B5041490056956
:10005E00E004F0C394147480948040057412F0D2BE
:10006E00D530D52A900556E0FFC4540F90CFA893F3
:10007E00FC601BEF540F93FF6014EC1425E025E099
:10008E00FEEF2E900557F08005E4900569F075F8A7
:01009E00FF62
:01009F00223E
:03D136002564006D
:10CEC00075E8FFC293D290C291C291D291E5E82059
:05CED000E7FBAFE822C2
:10C8A300900794EFF0C291D293C290F5E87F017E96
:10C8B3000012CF97D2917F057E0012CF97C291903D
:10C8C3000794E0C454F0F5E87F017E0012CF97D2BD
:0BC8D300917F057E0012CF97C29122DA
:10C8DE00900795EFF0C291C293C290F5E87F017E6A
:10C8EE000012CF97D2917F057E0012CF97C2919002
:10C8FE000795E0C454F0F5E87F017E0012CF97D281
:0BC90E00917F057E0012CF97C291229E
:0DD05600D293D290C291C291D291AFE82244
:10C27000E4F5E85391F74392085391FE439201533A
:10C2800091FD439202F5CB75CCFF7F3812C8DE7F5B
:10C29000057E0012CF977F3812C8DE7F057E001220
:10C2A000CF977F3812C8DE7F057E0012CF977F328E
:10C2B00012C8DE7F2812C8DE7F0C12C8DE7F06128D
:0CC2C000C8DE7F0112C8DE7F8002C8DEED
:0CD070007F0112C8DE7F027E0002CF9715
:10CC9200900796EBF0ED5401FDEF540FFFED6004A9
:10CCA200EF4440FFEF4480FF12C8DE900796E0FF9A
:03CCB20002C8A312
:10C0EC00900705EFF0A3EDF0A3EBF0A3EAF0A3E9C2
:01C0FC00F053
:10C0FD0012CF1490070AEFF0900706E05401F0906C
:10C10D000705E0540FF0E490070BF090070AE0FFED
:10C11D00A3E0FEC39F502B900705E0FFA3E0FDA316
:10C12D00E0FBA3E0FAA3E0F98E82758300122148AB
:10C13D00FB12CC92900705E004F090070BE004F0A1
:02C14D0080C9A7
:01C14F0022CD
:0CC5620090056BEFF0A3EDF0AF03AE020C
:10C56E007B017A05796D90057CEBF0A3EAF0A3E9E7
:10C57E00F090044874FFF0A374D1F0A37436F0A3C6
:10C58E00EEF0A3EFF01255C490056BE0FFA3E0FDB3
:0EC59E0090057CE0FBA3E0FAA3E0F902C0ECFC
:0CD07C0090FE82E030E6F9E054BFF022A4
:10CDC80043912043922043911043921043BA80909C
:0BCDD800FE8074E0F090FE82E4F02288
:09D0F70090FE817401F002D07C6E
:09D1000090FE817406F002D07C5F
:0ECC6E0012D0F712D01112CC7CAF0512D011EB
:10CC7C0090FE817403F012D07C90FE82E030E103D0
:06CC8C007F01227F00225F
:0ED0030090FE82E4F090FE817405F002D07C75
:0FCFB80090FE827401F090FE817405F002D07C2F
:0ED0110090FE86EFF090FE817402F002D07C5B
:0FCFC70090FE817404F012D07C90FE87E0FF2270
:10C9C700AE0712CC6E12D0F7EE4401FF12D011124F
:10C9D700CC7C12CFC7EF122175740129F9E43AFA1A
:10C9E700900725E06401600312D003900725E01447
:09C9F700F070DF12CFB802D1008C
:10CA6F00900728EBF0A3EAF0A3E9F012CC6E900741
:10CA7F0028E0FBA3E475F00112225CA9F0FA122161
:10CA8F002FFF12D01112CC7C90072BE014F070DE28
:03CA9F0002D100C1
:10421C0025640000000000003E5B4F5B3E3E6B4F90
:10422C006B3E1C3E7C3E1C183C7E3C181C577D573C
:10423C001C1C5E7F5E1C00183C1800FFE7C3E7FFE8
:10424C000018241800FFE7DBE7FF30483A060E267B
:10425C0029792926407F050507407F05253F5A3CD3
:10426C00E73C5A7F3E1C1C08081C1C3E7F14227F16
:10427C0022145F5F005F5F06097F017F00668995EE
:10428C006A606060606094A2FFA29408047E0408D7
:10429C0010207E201008082A1C08081C2A08081E5A
:1042AC00101010100C1E0C1E0C30383E3830060E40
:1042BC003E0E06000000000000005F00000007003A
:1042CC000700147F147F14242A7F2A1223130864F6
:1042DC006236495620500008070300001C2241009A
:1042EC000041221C002A1C7F1C2A08083E080800DA
:1042FC00807030000808080808000060600020107A
:10430C000804023E5149453E00427F400072494933
:10431C0049462141494D331814127F102745454514
:10432C00393C4A4949314121110907364949493635
:10433C00464949291E0000140000004034000000CA
:10434C0008142241141414141400412214080201FC
:10435C005909063E415D594E7C1211127C7F494928
:10436C0049363E414141227F4141413E7F494949C5
:10437C00417F090909013E414151737F0808087FBB
:10438C0000417F41002040413F017F081422417FC2
:10439C00404040407F021C027F7F0408107F3E415A
:1043AC0041413E7F090909063E4151215E7F0919B1
:1043BC002946264949493203017F01033F404040C9
:1043CC003F1F2040201F3F4038403F6314081463B8
:1043DC0003047804036159494D43007F4141410274
:1043EC0004081020004141417F04020102044040B6
:1043FC00404040000307080020545478407F284474
:10440C0044383844444428384444287F385454545D
:10441C001800087E090218A4A49C787F080404786C
:10442C0000447D40002040403D007F1028440000A7
:10443C00417F40007C047804787C0804047838447C
:10444C00444438FC1824241818242418FC7C080430
:10445C000408485454542404043F44243C40402051
:10446C007C1C2040201C3C4030403C4428102844FC
:10447C004C9090907C4464544C44000836410000AD
:10448C0000770000004136080002010204023C26BD
:10449C0023263C1EA1A161123A4040207A38545484
:1044AC005559215555794121545478412155547809
:1044BC004020545579400C1E52721239555555599D
:1044CC00395454545939555454580000457C4100C2
:1044DC0002457D420001457C40F0292429F0F0285A
:1044EC002528F07C545545002054547C547C0A09F2
:1044FC007F4932494949323248484832324A484861
:10450C00303A4141217A3A42402078009DA0A07D6A
:10451C0039444444393D4040403D3C24FF24244828
:10452C007E4943662B2FFC2F2BFF0929F620C088D0
:10453C007E090320545479410000447D41304848A1
:10454C004A32384040227A007A0A0A727D0D1931BB
:10455C007D2629292F28262929292630484D402017
:10456C00380808080808080808382F10C8ACBA2FF3
:10457C00102834FA00007B000008142A142222149C
:10458C002A1408AA005500AAAA55AA55AA00000088
:10459C00FF00101010FF00141414FF001010FF0087
:1045AC00FF1010F010F0141414FC001414F700FF9A
:1045BC000000FF00FF1414F404FC141417101F1057
:1045CC00101F101F1414141F00101010F000000006
:1045DC00001F101010101F10101010F01000000011
:1045EC00FF101010101010101010FF10000000FF22
:1045FC00140000FF00FF00001F10170000FC04F463
:10460C0014141710171414F404F40000FF00F7141A
:10461C00141414141414F700F714141417141010A1
:10462C001F101F141414F4141010F010F000001FBD
:10463C00101F0000001F14000000FC140000F010FC
:10464C00F01010FF10FF141414FF141010101F00A2
:10465C00000000F010FFFFFFFFFFF0F0F0F0F0FFA4
:10466C00FFFF0000000000FFFF0F0F0F0F0F38447B
:10467C004438447C2A2A3E147E02020606027E023C
:10468C007E0263554941633844443C04407E201EFD
:10469C002006027E020299A5E7A5991C2A492A1C2C
:1046AC004C7201724C304A4D4D303048784830BC19
:1046BC00625A463D3E494949007E0101017E2A2A43
:1046CC002A2A2A44445F444440514A444040444AC4
:1046DC0051400000FF0103E080FF000008086B6BF5
:1046EC00083612362436060F090F0600001818007B
:1046FC0000001010003040FF0101001F01011E00DE
:0E470C00191D1712003C3C3C3C000000000050
:10CB8D00900797EFF012D0F77F7812D01112CC7C6E
:10CB9D00E4FF12D01112CC7C900797E0FF12D01158
:06CBAD0012CC7C02D10055
:10CBB300900798EFF012D0F77F7812D01112CC7C47
:10CBC3007F4012D01112CC7C900798E0FF12D01155
:06CBD30012CC7C02D1002F
:05CDE30024B0FFE4FD97
:10CDE800900799EFF0ED6005E0FF02CBB39007994B
:06CDF800E0FF12CB8D22CA
:10CBD90090079AEFF0ED12CDE390079AE054F0C474
:10CBE900540F4410FFE4FD12CDE890079AE0540F6A
:06CBF900FFE4FD02CDE89F
:10CED500E4FD7F8D12CDE8E4FD7F1412CDE8E4FD7D
:05CEE5007FAF02CDE863
:10CEEA00E4FD7F8D12CDE8E4FD7F1012CDE8E4FD6C
:05CEFA007FAE02CDE84F
:10C91900E4FFEFC3940474809480502DE4FEEEC3C9
:10C92900948074809480501E75F004EEA42405F55B
:10C9390082E5F03402F583E5822FF582E43583F54B
:09C9490083E4F00E80D80F80C9D0
:01C9520022C2
:10C08100E4900789F0900789E0FFC39404748094D9
:10C09100805057EF12CDE3E4FDFF12CDE8E4FD7FC0
:10C0A1001012CDE8E4900788F0900788E0FFC39470
:10C0B1008074809480502BA3E0FE75F004EFA424DB
:10C0C10005F582E5F03402F583E5822EF582E4354B
:10C0D10083F583E0FF7D0112CDE8900788E004F04D
:0AC0E10080C7900789E004F0809BFF
:01C0EB002232
:10C95300E4FEEEC3940474809480502DE4FDEDC393
:10C96300948074809480501E75F004EDA42405F522
:10C9730082E5F03402F583E5822EF582E43583F512
:09C9830083EFF00D80D80E80C98D
:01C98C002288
:10B6EF0090067BA3E0FF90067FE075F00CA42F2B54
:0FB6FF00FF90067DA3E0900680FEE02EFD7B010C
:10B70E00EFD3948074809480400302B799ED942017
:10B71E00748094805075EB6037ED131313541FFE35
:10B72E0075F004EFA42405F582E5F03402F583E507
:10B73E00822EF582E43583F583C083C082E0FFED6F
:10B74E005407FEF87401088002C333D8FC4F8036CC
:10B75E00ED131313541FFE75F004EFA42405F582A8
:10B76E00E5F03402F583E5822EF582E43583F58328
:10B77E00C083C082E0FFED5407FEF874010880021A
:0CB78E00C333D8FCF45FD082D083F022DB
:0DAD7F00900753EDF0A3EBF0900752EFF0BA
:10AD8C003395E0C3648094805077E4FCECC3940565
:10AD9C0074809480400302AE6A900754E075F0050D
:10ADAC00A4241FF582E5F03442F583E5822CF5826C
:10ADBC00E43583F583E493900755F0E4F9E9FF7EDD
:10ADCC0000C39408748094805034900752E0FDFBCB
:10ADDC003395E0FAEB2FEE3AC364809480401590E3
:10ADEC000755E030E00EED2CFF900753E029FD7B7A
:10ADFC000112B70E900755E0C313F00980BF0C8009
:10AE0C008BE4FCECC39405748094805051900754EF
:10AE1C00E075F005A4241FF582E5F03442F583E5D6
:10AE2C00822CF582E43583F583E493900755F0E4A6
:10AE3C00F9E9C39408748094805020900755E03051
:10AE4C00E00F900752E02CFFA3E029FD7B0112B725
:0EAE5C000E900755E0C313F00980D60C80A5B8
:01AE6A0022C5
:10C1B40090072CEFF0A3EDF0A3EBF0A3EAF0A3E9D2
:01C1C400F08A
:10C1C500E4A3F090072EE0FBA3E0FAA3E0F9A3E0D7
:10C1D500F582758300122148FB603290072CE0FF41
:10C1E500A3E0FD12AD7F90072CE02408F0E0FF33BB
:10C1F50095E0FED3EF9478EE648094804007E4F0F8
:0DC20500A3E02402F0900731E004F080B6C1
:01C212002209
:0CC98D009005EEEFF0A3EDF0AF03AE025A
:10C9990090044874FFF0A37442F0A3741CF0A3EE52
:10C9A900F0A3EFF07B017A0579F01255C49005EEFA
:0EC9B900E0FFA3E0FD7B017A0579F002C1B436
:0E8A1E00900677EFF0A3EBF0A3EAF0A3E9F0E7
:108A2C00A3E0FEA3E0FFC3EE648094804003028BBE
:108A3C007BC3E49FFFE49EFE7C007D0C1222109011
:108A4C00067FEFF0900677E0FF90067FE0C39F4033
:108A5C0003028C83E4A3F0900680E0C3940C748032
:108A6C0094804003028B72E4A3F0900681E0FD7CBD
:108A7C0000C3940C748094804003028B6990067F31
:108A8C00E075F00CA42DFFEC35F0FE90067BE0FCBD
:108A9C00A3E0FD2FFFEC3ECF24F4CF34FFFED3EF49
:108AAC00947FEE648094804003028C83900680E077
:108ABC00FF90067EE02FFF90067DE03400CF24F47B
:108ACC00CF34FFFED3EF943FEE64809480400302DA
:108ADC008C8390067FE0F975F00CA4FFED2FFFEC72
:108AEC0035F0FE900681E0FD7A002FEA3EC36480EB
:108AFC00948050028001C3405B900680E075F002C8
:108B0C00A4FBAAF0E975F018A42BFFE5F03AFEEDF2
:108B1C00131313541F7C002FFFEC3EFE900678E0DD
:108B2C00FBA3E0FAA3E0F98F828E83122148FD901B
:108B3C000681E0FB5407FF7E007480A807088006BE
:108B4C00CEA2E713CE13D8F8FFEE5CFEEF5D4E60BD
:108B5C000312B6EF900681E004F0028A769006804C
:108B6C00E004F0028A6390067FE004F0028A50E48D
:108B7C0090067FF0900677E0FF90067FE0C39F4061
:108B8C0003028C83E4A3F0900680E0C3940C748001
:108B9C0094804003028C7AE4A3F0900681E0FD7C83
:108BAC0000C3940C748094804003028C7190067FF7
:108BBC00E075F00CA42DFFEC35F0FE90067CE02F58
:108BCC00FF90067BE03ECF24F4CF34FFFED3EF942E
:108BDC007FEE648094804003028C83900680E0FFDB
:108BEC00FD90067EE02DFD90067DE03CCD24F4CD7D
:108BFC0034FFFCD3ED943FEC648094805079EF7596
:108C0C00F002A4FDACF090067FE075F018A42DFFE7
:108C1C00E5F03CFE900681E0131313541F7C002FEB
:108C2C00FFEC3EFE900678E0FBA3E0FAA3E0F98FA0
:108C3C00828E83122148FD900681E0FB5407FF7E53
:108C4C00007480A807088006CEA2E713CE13D8F8CC
:108C5C00FFEE5CFEEF5D4E600312B6EF900681E016
:108C6C0004F0028BA6900680E004F0028B93900631
:078C7C007FE004F0028B8091
:018C830022CE
:0E851700900682EFF0A3EBF0A3EAF0A3E9F0E8
:10852500A3E0FEA3E0FFC3EE6480948040030286CF
:108535008CC3E49FFFE49EFE7C007D101222109008
:10854500068AEFF0900682E0FF90068AE0C39F401E
:10855500030287B0E4A3F090068BE0C39410748007
:1085650094804003028683E4A3F090068CE0FD7CB2
:1085750000C3941074809480400302867A90068A22
:10858500E075F010A42DFFEC35F0FE900686E0FCBA
:10859500A3E0FD2FFFEC3ECF24F0CF34FFFED3EF59
:1085A500947FEE6480948040030287B090068BE050
:1085B500FF900689E02FFF900688E03400CF24F075
:1085C500CF34FFFED3EF943FEE64809480400302E6
:1085D50087B090068AE0F975F010A4FFED2FFFEC47
:1085E50035F0FE90068CE0FD7A002FEA3EC36480EC
:1085F500948050028001C3407390068BE075F002B1
:10860500A4FBAAF0E975F020A42BFFE5F03AFEEDF6
:10861500131313541F7C002FFFEC3EFE900683E0DE
:10862500FBA3E0FAA3E0F98F828E83122148FD9027
:10863500068CE0FB5407FF7E007480A807088006BF
:10864500CEA2E713CE13D8F8FFEE5CFEEF5D4E60C9
:108655001B900686A3E0FF90068AE0C454F02F2BFA
:10866500FF900688A3E090068B12B70890068CE071
:1086750004F002856F90068BE004F002855C90069D
:108685008AE004F0028549E490068AF0900682E0CB
:10869500FF90068AE0C39F40030287B0E4A3F090F1
:1086A500068BE0C394107480948040030287A7E48E
:1086B500A3F090068CE0FD7C00C394107480948038
:1086C500400302879E90068AE075F010A42DFFEC0A
:1086D50035F0FE900687E02FFF900686E03ECF241A
:1086E500F0CF34FFFED3EF947FEE64809480400397
:1086F5000287B090068BE0FFFD900689E02DFD9086
:108705000688E03CCD24F0CD34FFFCD3ED943FEC5E
:108715006480948040030287B0EF75F002A4FDAC3D
:10872500F090068AE075F020A42DFFE5F03CFE9060
:10873500068CE0131313541F7C002FFFEC3EFE90B4
:108745000683E0FBA3E0FAA3E0F98F828E83122172
:1087550048FD90068CE0FB5407FF7E007480A80757
:10876500088006CEA2E713CE13D8F8FFEE5CFEEF25
:108775005D4E601C900686A3E0FF90068AE0C45417
:10878500F02F2BFF900688A3E0FE90068B12B70909
:1087950090068CE004F00286B790068BE004F002A8
:0B87A50086A490068AE004F002869192
:0187B00022A6
:0E827A0090068DEFF0A3EBF0A3EAF0A3E9F07D
:10828800A3E0FEA3E0FFC3EE648094804003028372
:10829800F1C3E49FFFE49EFE7C007D18122210903B
:1082A8000695EFF090068DE0FF900695E0C39F409D
:1082B80003028516E4A3F0900696E0C39418748030
:1082C800948040030283E8E4A3F0900697E0FD7CE5
:1082D80000C394187480948040030283DF9006954D
:1082E800E075F018A42DFFEC35F0FE900691E0FC47
:1082F800A3E0FD2FFFEC3ECF24E8CF34FFFED3EF01
:10830800947FEE648094804003028516900696E080
:10831800FF900694E02FFF900693E03400CF24E806
:10832800CF34FFFED3EF943FEE6480948040030285
:108338008516900695E0F975F018A4FFED2FFFEC6F
:1083480035F0FE900697E0FD7A002FEA3EC3648080
:10835800948050028001C34075900696E075F00342
:10836800A4FBAAF0E975F048A42BFFE5F03AFEED6E
:10837800131313541F7C002FFFEC3EFE90068EE073
:10838800FBA3E0FAA3E0F98F828E83122148FD90C7
:108398000697E0FB5407FF7E007480A80708800654
:1083A800CEA2E713CE13D8F8FFEE5CFEEF5D4E6069
:1083B8001D900691A3E0FF900695E075F018A42F94
:1083C8002BFF900693A3E0FE90069612B70990063D
:1083D80097E004F00282D2900696E004F00282BF91
:1083E800900695E004F00282ACE4900695F09006C1
:1083F8008DE0FF900695E0C39F4003028516E4A335
:10840800F0900696E0C39418748094804003028527
:108418000DE4A3F0900697E0FD7C00C394187480E7
:1084280094804003028504900695E075F018A42D09
:10843800FFEC35F0FE900692E02FFF900691E03EAB
:10844800CF24E8CF34FFFED3EF947FEE648094808E
:108458004003028516900696E0FFFD900694E02DF5
:10846800FD900693E03CCD24E8CD34FFFCD3ED9499
:108478003FEC648094804003028516EF75F003A4F6
:10848800FDACF0900695E075F048A42DFFE5F03CB2
:10849800FE900697E0131313541F7C002FFFEC3E49
:1084A800FE90068EE0FBA3E0FAA3E0F98F828E83AC
:1084B800122148FD900697E0FB5407FF7E00748068
:1084C800A807088006CEA2E713CE13D8F8FFEE5C03
:1084D800FEEF5D4E601D900691A3E0FF900695E0CB
:1084E80075F018A42F2BFF900693A3E0FE90069634
:1084F80012B709900697E004F002841C900696E0F3
:0E85080004F0028409900695E004F00283F668
:018516002242
:0E7FD400900698EFF0A3EBF0A3EAF0A3E9F01B
:107FE200A3E0FEA3E0FFC3EE64809480400302811D
:107FF20050C3E49FFFE49EFE7C007D20122210907D
:1080020006A0EFF0900698E0FF9006A0E0C39F4024
:1080120003028279E4A3F09006A1E0C39420748065
:1080220094804003028147E4A3F09006A2E0FD7C25
:1080320000C3942074809480400302813E9006A085
:10804200E075F020A42DFFEC35F0FE90069CE0FCDC
:10805200A3E0FD2FFFEC3ECF24E0CF34FFFED3EFB1
:10806200947FEE6480948040030282799006A1E0BE
:10807200FF90069FE02FFF90069EE03400CF24E0A1
:10808200CF34FFFED3EF943FEE648094804003022E
:1080920082799006A0E0F975F020A4FFED2FFFECA5
:1080A20035F0FE9006A2E0FD7A002FEA3EC364801E
:1080B200948050028001C3407AED75F004A4FDACB7
:1080C200F0E975F080A42DFFE5F03CFE9006A1E0FA
:1080D200131313541F7C002FFFEC3EFE900699E011
:1080E200FBA3E0FAA3E0F98F828E83122148FD9070
:1080F20006A1E0FB5407FF7E007480A807088006F3
:10810200CEA2E713CE13D8F8FFEE5CFEEF5D4E6011
:108112002290069CA3E0FF9006A0E0C43354E02F17
:10812200FF9006A2E02FFF90069EA3E02BFD7B01AD
:1081320012B70E9006A2E004F002802C9006A1E095
:1081420004F00280199006A0E004F0028006E49098
:1081520006A0F0900698E0FF9006A0E0C39F4003BF
:10816200028279E4A3F09006A1E0C3942074809483
:10817200804003028270E4A3F09006A2E0FD7C003E
:10818200C394207480948040030282679006A0E02A
:1081920075F020A42DFFEC35F0FE90069DE02FFF38
:1081A20090069CE03ECF24E0CF34FFFED3EF947FD5
:1081B200EE6480948040030282799006A1E0FDFF84
:1081C20090069FE02FFF90069EE03400CF24E0CF80
:1081D20034FFFED3EF943FEE64809480400302822A
:1081E200799006A2E075F004A4FBAAF09006A0E044
:1081F20075F080A42BFFE5F03AFEED131313541F24
:108202002FFFEC3EFE900699E0FBA3E0FAA3E0F913
:108212008F828E83122148FD9006A1E0FB5407FF56
:108222007E007480A807088006CEA2E713CE13D87A
:10823200F8FFEE5CFEEF5D4E602290069CA3E0FF2D
:108242009006A0E0C43354E02FFF9006A2E02FFF77
:1082520090069EA3E02BFD7B0112B70E9006A2E0D2
:1082620004F002817B9006A1E004F002816890068E
:07827200A0E004F0028155B9
:0182790022E2
:0ABD5B009006C2EFF09006C4EBF072
:10BD6500E49006C9F0A3F09006C5E0131313541F21
:10BD7500F0540770028000AF05AE079006C5E0FFDE
:10BD8500EEC39F504C9006C2E0FF9006C4E0FDEF65
:10BD9500C39D503A9006C6E0FBA3E0FAA3E0F9A3E1
:10BDA500E475F00112225C85F082F583122148FDCD
:10BDB50075F004EFA42405F582E5F03402F583E57A
:10BDC500822EF582E43583F583EDF00F80BC0E807D
:01BDD500AAC3
:01BDD600224A
:10B5960012CDC87F647E0012CF97E4FD7FAE12CD38
:10B5A600E8E4FD7F4012CDE8E4FD7FB012CDE8E48B
:10B5B600FD7FC812CDE8E4FD7F8112CDE8E4FD7F72
:10B5C600FF12CDE8E4FD7FA112CDE8E4FD7FA612CF
:10B5D600CDE8E4FD7FA812CDE8E4FD7F1F12CDE89B
:10B5E600E4FD7FD312CDE8E4FDFF12CDE8E4FD7F54
:10B5F600D512CDE8E4FD7FF012CDE8E4FD7FD91247
:10B60600CDE8E4FD7F2212CDE8E4FD7FDA12CDE835
:10B61600E4FD7F0212CDE8E4FD7FDB12CDE8E4FD18
:10B626007F4912CDE8E4FD7F8D12CDE8E4FD7F145D
:0DB6360012CDE8E4FD7FAF12CDE802C91986
:09D0BD00007F027E3CDEFEDFFC78
:01D0C6002247
:0ED01F00C2C67F147E0012CF97D2C602D0BDCB
:10C21300E490079BF030C61590079BE0C3946474C9
:10C223008094805008E004F012D11D80E890079BB1
:10C23300E0C394647480948040037F0122E49007F8
:10C243009BF020C61590079BE0C394647480948090
:10C253005008E004F012D11D80E890079BE0C394DE
:0CC26300647480948040037F01227F00FF
:01C26F0022AC
:10C6D200E490079CF030C61590079CE0C394647404
:10C6E2008094805008E004F012D11D80E8E49007A5
:10C6F2009CF020C61590079CE0C3946474809480DB
:10C702005008E004F012D11D80E812D0BD30C603FB
:05C712007F01227F0001
:01C7170022FF
:10CA0000E490078BF090078AF090078AE0C39408BF
:10CA100074809480501CA3E0FF25E0F0E0FEC00687
:10CA200012C6D2D0E04F90078BF090078AE004F056
:07CA300080D790078BE0FFA7
:01CA370022DC
:0BB437009006CBEBF0A3EAF0A3E9F0D5
:10B4420012D01F12C213EF600302B4E29006D3F0CF
:10B452009006D3E0C3940574809480501A12CA00F7
:10B462009006D3E024CEF582E43406F583EFF09023
:10B4720006D3E004F080D99006CFE0FF9006CEE03C
:10B482002FFFE433FE9006D0E07C002FFFEC3EFE5F
:10B49200A3E02FFFEC3EFEA3E06F7001EE7044903C
:10B4A20006CEE0FF9006CBE0FBA3E0FAA3E0F9EFC3
:10B4B2001221759006CFE0FF9006CBE0FBA3E0FAE5
:10B4C200A3E0F9900001EF1221879006D0E09000EE
:10B4D200021221879006D1E0900003122187800397
:05B4E2007F01227F0044
:01B4E7002242
:0ED02D0053B3BF53B4BFD2C612D01F02C213FA
:10CF61007B017A07795612B437EF70F4900756E0D7
:01CF7100FFC0
:01CF7200229C
:10B2BE007B017A0679EE12B437EF70F49006F0E067
:10B2CE00547FFCE4121D859006F21224A89006F21B
:10B2DE00E0FCA3E0FDA3E0FEA3E0FFE4FBFA79208F
:10B2EE007841121B5C9006F21224A89006F2E0F848
:10B2FE00A3E0F9A3E0FAA3E0FBC000C001C002C0C6
:10B30E00039006F1E0FCE4121D85D003D002D001BB
:10B31E00D000121A6B9006F21224A89006F2E0FCEE
:10B32E00A3E0FDA3E0FEA3E0FFE4FBFA7920784161
:10B33E00121C659006F21224A89006F0E030E71E6B
:10B34E009006F2E0FCA3E0FDA3E0FEA3E0FFE4FB29
:10B35E00FA798078BF121B5C9006F21224A8900630
:0CB36E00F2E0FCA3E0FDA3E0FEA3E0FF82
:01B37A0022B0
:1025640025640000000000000000000000000000DE
:10257400000404040404040004000000140A0A0013
:1025840000000000000000000014143F140A3F0A79
:102594000A000000041E1505060C14150F040000A3
:1025A4000012150D0A142C2A1200000000040A0A55
:1025B4001E1515093600000002020100000000008B
:1025C4000000000020100808080808081020000077
:1025D40002040808080808080402000000000415A2
:1025E4000E0E150400000000000404041F0404047B
:1025F40000000000000000000000000002020100D2
:10260400000000001F0000000000000000000000A7
:102614000000000002000000100808080404020280
:1026240002010000000E1111111111110E00000021
:1026340000040604040404040E000000000E11113A
:10264400080402011F000000000E11100C101011EC
:102654000E00000000080C0A0A091E0818000000F9
:10266400001F01010F1010110E000000000E0901DF
:102674000F1111110E000000001F090804040404C6
:1026840004000000000E11110E1111110E000000C3
:10269400000E1111111E10120E00000000000004A3
:1026A400000000000400000000000000040000001E
:1026B4000404000020100804020408102000000094
:1026C4000000001F00001F000000000002040810AA
:1026D4002010080402000000000E11110804040078
:1026E40004000000000E111915151D011E00000044
:1026F4000004040C0A0A1E1233000000000F121218
:102704000E1212120F000000001E1101010101112E
:102714000E000000000F1212121212120F0000001D
:10272400001F120A0E0A02121F000000001F120AE4
:102734000E0A020207000000001C120101391112E6
:102744000C000000003312121E121212330000009B
:10275400001F0404040404041F000000003E0808D1
:1027640008080808090700000037120A060A0A12B6
:102774003700000000070202020202223F000000AC
:10278400001B1B1B1B15151515000000003B121622
:10279400161A1A1217000000000E1111111111114E
:1027A4000E000000000F12120E02020207000000C9
:1027B400000E1111111117190E180000000F12123A
:1027C4000E0A121237000000001E11010608101133
:1027D4000F000000001F1504040404040E00000090
:1027E40000331212121212120C00000000331212E3
:1027F4000A0A0C0404000000001515150E0A0A0A42
:102804000A000000001B0A0A04040A0A1B00000054
:10281400001B0A0A040404040E000000001F090837
:10282400040402121F0000001C0404040404040431
:10283400041C00000202020404080808100000003E
:102844000E08080808080808080E0000040A00001A
:102854000000000000000000000000000000000074
:1028640000003F0004000000000000000000000021
:10287400000000000C121C123C00000000030202C5
:102884000E1212120E000000000000001C120202C0
:102894001C000000001810101C1212123C00000052
:1028A400000000000C121E021C000000003804048A
:1028B4001E0404041E000000000000003C120C0270
:1028C4001E221C00000302020E1212123700000026
:1028D40000040000060404040E00000000080000C8
:1028E4000C08080808080700000302023A0A0E123E
:1028F4003700000000070404040404041F0000005F
:10290400000000000F151515150000000000000060
:102914000F12121237000000000000000C121212F5
:102924000C000000000000000F1212120E0207003B
:10293400000000001C1212121C10380000000000DD
:102944001B06020207000000000000001E020C101B
:102954001E000000000004040E040404180000001B
:10296400000000001B1212123C00000000000000D6
:1029740037120A0C040000000000000015150E0AAE
:102984000A000000000000001B0A040A1B000000EB
:102994000000000037120A0C0404030000000000C9
:1029A4001E0804041E00000018080808040808088B
:1029B4000818000808080808080808080808080093
:1029C4000604040408040404040600022518000094
:1029D40000000000000000000000000000000000F3
:1029E40000000000000000000000080808080808B3
:1029F4000800001818000000486C241200000000B1
:102A0400000000000000000000002424247F1212B3
:102A1400127F12121200000000081C2A2A0A0C1845
:102A240028282A2A1C080800000022251515152A22
:102A3400585454542200000000000C1212120A765A
:102A4400252911916E000000060604030000000011
:102A540000000000000000004020101008080808D2
:102A6400080810102040000002040808101010107C
:102A7400101008080402000000000008086B1C1C69
:102A84006B08080000000000000000080808087F28
:102A94000808080800000000000000000000000012
:102AA400000000060604030000000000000000FE11
:102AB4000000000000000000000000000000000012
:102AC4000000000606000000008040402020101096
:102AD4000808040402020000000018244242424292
:102AE40042424224180000000000080E08080808AA
:102AF400080808083E00000000003C424242202032
:102B0400100804427E00000000003C4242201820CD
:102B1400404042221C0000000000203028242422CF
:102B2400227E20207800000000007E0202021A2685
:102B3400404042221C0000000000382402021A26F1
:102B4400424242241800000000007E222210100895
:102B5400080808080800000000003C42424224180B
:102B6400244242423C0000000000182442424264D5
:102B7400584040241C000000000000000018180009
:102B84000000001818000000000000000000080009
:102B9400000000000808040000004020100804029F
:102BA400040810204000000000000000007F000026
:102BB400007F000000000000000002040810204014
:102BC400201008040200000000003C42424640205D
:102BD400101000181800000000001C225A5555550A
:102BE400552D42221C00000000000808181414246B
:102BF4003C224242E700000000001F2222221E2243
:102C0400424242221F00000000007C4242010101B6
:102C1400010142221C00000000001F2242424242E5
:102C2400424242221F00000000003F4212121E12C4
:102C3400120242423F00000000003F4212121E12E4
:102C4400120202020700000000003C2222010101DE
:102C5400712122221C0000000000E7424242427E11
:102C640042424242E700000000003E08080808080B
:102C7400080808083E00000000007C101010101026
:102C84001010101010110F0000007722120A0E0A03
:102C94001212222277000000000007020202020240
:102CA400020202427F000000000077363636362AE0
:102CB4002A2A2A2A6B0000000000E346464A4A52A8
:102CC400525262624700000000001C22414141410F
:102CD400414141221C00000000003F424242423E6A
:102CE400020202020700000000001C22414141418F
:102CF400414D53321C60000000003F4242423E12EC
:102D040012222242C700000000007C424202041842
:102D1400204042423E00000000007F4908080808A5
:102D2400080808081C0000000000E7424242424232
:102D3400424242423C0000000000E7424222242476
:102D4400141418080800000000006B49494949554B
:102D540055362222220000000000E74224241818DD
:102D640018242442E70000000000772222141408EB
:102D7400080808081C00000000007E21201010082C
:102D8400040442423F0000007808080808080808C4
:102D9400080808080878000000020204040808086B
:102DA40010102020204040001E1010101010101091
:102DB40010101010101E0000384400000000000025
:102DC40000000000000000000000000000000000FF
:102DD400000000000000FF000608000000000000E2
:102DE40000000000000000000000000000003C4261
:102DF40078444242FC0000000000030202021A264A
:102E0400424242261A00000000000000000038443C
:102E14000202024438000000000060404040784450
:102E240042424264D80000000000000000003C421E
:102E34007E0202423C0000000000F08808087E0880
:102E4400080808083E0000000000000000007C2282
:102E5400221C023C42423C000000030202023A46A9
:102E640042424242E700000000000C0C00000E0841
:102E7400080808083E000000000030300000382038
:102E84002020202020221E000000030202027212D1
:102E94000A1612227700000000000E08080808082D
:102EA400080808083E0000000000000000007F92AF
:102EB40092929292B70000000000000000003B468E
:102EC40042424242E70000000000000000003C4291
:102ED400424242423C0000000000000000001B2669
:102EE400424242221E020700000000000000784413
:102EF400424242447840E000000000000000774C69
:102F0400040404041F0000000000000000007C42D0
:102F1400023C40423E0000000000000008083E0859
:102F240008080808300000000000000000006342A8
:102F340042424262DC000000000000000000E74260
:102F44002424140808000000000000000000EB49DD
:102F5400495555222200000000000000000076249C
:102F6400181818246E000000000000000000E7425A
:102F740024241418080807000000000000007E2222
:102F8400100808447E000000C020202020201020CB
:102F94002020202020C0001010101010101010103D
:102FA4001010101010101000060808080808100867
:102FB400080808080806000C32C2000000000000DF
:0B2FC400000000000000000000000002
:0ABC29004205950000420593FFFF5D
:0FCFD600C293C2918FE800000000D291D2932243
:10CF7300C293C29012D11DAFE8EF7F00FED290D2D0
:01CF8300931A
:01CF8400228A
:05D13100C28302CFD60D
:05D0C70012D131E4FF6D
:05D0CC00D28302CFD663
:0AD0D100D28312CF73EEFF7E00221F
:05CEFF00E0FEA3E0FFCE
:10CF0400AD07AC06D283ECFF12CFD6AF0502CFD665
:10CD3500AA07ED54FC75F008A4FDEA54F845F0FE89
:0FCD4500EDFFEB54F8131313541FFDEF4DFF22B6
:10BC5900D283C293C29012D11DAFE890075AE4F083
:10BC6900A3EFF0E0F8E4F0E890075AF0D290C29020
:10BC790012D11DAFE890075AE4F0A3EFF0E0F8E421
:10BC8900F0E890075AF0D290C29012D11DAFE89017
:10BC9900075CE4F0A3EFF0E0F8E4F0E890075CF06B
:10BCA900D290C29012D11DAFE8AB07EBFAD29090B7
:10BCB900075AE0FF7E00EEF0A3EFF0A3E0F8E4F00E
:10BCC900E8A3F0EAFB7A00D29390075CA3E0FD02B7
:02BCD900CD3567
:0AD0DB0012D131AE04AF0502D0CC33
:10C5AC00900416EBF0A3EAF0A3E9F07E0012D1316F
:10C5BC0075E8FF75CBFFE4F5CC90041974FFF5F02A
:10C5CC0012225C45F0601912D0D1900416E0FBA346
:10C5DC00E475F00112225CA9F0FAEF12217580D9F2
:0AC5EC00E4F5CB75CCFF75E8FF22E3
:0BD0880090059EE0FEA3E0FF02D13106
:0BD093009005A0E0FEA3E0FF02D131F9
:08C3D500900413EEF0A3EFF059
:10C3DD0012BCDBE4900415F0A3F0900597E0FEA3EA
:10C3ED00E0FFC3900416E09F900415E09E502DE4ED
:10C3FD00FBFAD390059AE09B900599E09A400D9039
:10C40D00041312CEFF0BBB00010A80E6900416E068
:0CC41D0004F070C6900415E004F080BE2E
:01C4290022F0
:10C71800900505E02401FF900504E03400FE900533
:0CC7280007E02401FD900506E03400FC51
:10C73400AB07AA068D828C83C006C007AE83AF8286
:10C74400900465EEF0A3EFF0D007D00612BD02907E
:0AC754000595E0FEA3E0FF02CF040C
:08C5F60090078CEEF0A3EFF0BA
:10C5FE00D3900598E09F900597E09E400DD390054F
:10C60E009AE09D900599E09C5004E4FEFF2290076D
:10C61E008CE0FEA3E0FF12C4AC12D09375E8FF7558
:10C62E00CBFFE4F5CC12BC59E4F5CB75CCFF75E825
:01C63E00FFFC
:01C63F0022D8
:10CBFF005391FE4392015391FD4392025393F74396
:10CC0F0094085391F74392085391DF439220E4F530
:05CC1F00CB75CCFF22E3
:10CE49007F327E0012CF97C2957F327E0012CF9734
:09CE5900D2957F327E0002CF97D2
:1090E80012CBFF12CE497F017E0012D1317F32129E
:1090F800CF977F287E0012D1317FF612D1317F01C0
:1091080012D0CC12D0CC1F12D0CC7FCF12D0C77FB8
:109118008112D0CC7F3012D0CC7FED12D1317F6458
:1091280012D0CC7F0312D0CC7F1212D0CC7F811208
:10913800D0CC7FE812D1317F8512D0CC7F1012D0ED
:10914800CC7F7812D0CC7FCB12D1317F3912D0CCE2
:109158007F2C12D0CCE4FF12D0CC7F3412D0CC7F3D
:109168000212D0CC7FF712D1317F2012D0CC7FEA07
:1091780012D0C712D0CC7FB012D0C77FB412D0C7DC
:109188007FC012D1317F2112D0CC7FC112D1317F63
:109198001112D0CC7FC512D1317F3F12D0CC7F3C89
:1091A80012D0CC7FC712D1317FB512D0CC7F361206
:1091B800D1317F4812D0CC7F3A12D1317F5512D0AD
:1091C800CC7FB112D0C77F1B12D0CC7FB612D13161
:1091D8007F0A12D0CC7FA212D0CC7FF212D0C77FE8
:1091E8002612D1317F0112D0CC7FE012D1317F0F0E
:1091F80012D0CC7F2612D0CC7F2412D0CC7F0B1279
:10920800D0CC7F0E12D0CC7F0912D0CC7F5412D094
:10921800CC7FA812D0CC7F4612D0CC7F0C12D0CCF9
:109228007F1712D0CC7F0912D0CC7F0F12D0CC7F01
:109238000712D0CCE4FF12D0CC7FE112D0C77F193F
:1092480012D0CC7F1B12D0CC7F0412D0CC7F10124E
:10925800D0CC7F0712D0CC7F2A12D0CC7F4712D037
:10926800CC7F3912D0CC7F0312D0CC7F0612D0CC61
:1092780012D0CC7F3012D0CC7F3812D0CC7F0F12D6
:10928800D0CC7F2B12D0C712D0CC0F12D0CC7F3FBE
:1092980012D0CC7F2A12D0C712D0CC12D0CC7FEFFC
:1092A80012D0CC7FB712D1317F0712D0CC7F1112E8
:1092B800D1317F9612CF977F297E0012D13112CA01
:0E92C800D590059BEEF0A3EFF0E4FF02A4F4B6
:10BCDB00900598E024FFFB900597E034FFFA900560
:10BCEB009AE024FFFE900599E034FF900465F0A3E1
:07BCFB00CEF0E4FDFCFFFEAA
:10BD020090045FEEF0A3EFF09005A2E0FEA3E0FF47
:10BD120012D13190045FE0FF7E0012D0CCA3E0FF8D
:10BD220012D0CCEAFF12D0CCAF037E0012D0CC905E
:10BD320005A4E0FEA3E0FF12D131ECFF7E0012D099
:10BD4200CCAF057E0012D0CC900465E0FF12D0CCBF
:09BD5200A3E0FF12D0CC02D0885E
:10C47D0090061DE075F00CA4FF900615E02FFF90BF
:10C48D000614E035F0FEEB7C002FFFEC3EFE90062F
:0FC49D001EE0FD900617E09006162DFDE03CFC1A
:10C4AC00AB07AA068D828C83C006C007AE83AF8211
:0FC4BC00900465EEF0A3EFF0D007D00602BD02AA
:10A4F4009005A2E4F0A3742AF0A3E4F0A3742BF073
:10A5040090059EE4F0A3742CF0A3E4F0A3742EF061
:10A51400EF14605014700302A5A314700302A5DEA7
:10A524002403600302A620900597E4F0A374F0F0DE
:10A53400A37401F0A37440F0A3E0FEA3E0FFBE9374
:10A5440007BF40047D0180027D00BE9307BF410424
:10A554007F0180027F00EF4D60057D0802A6177D14
:10A564004002A6179005977401F0A37440F0A3E489
:10A57400F0A374F0F0A3E0FEA3E0FFBE9307BF4096
:10A58400047D0180027D00BE9307BF41047F0180EA
:10A59400027F00EF4D60047DF880027DF0807490AE
:10A5A4000597E4F0A374F0F0A37401F0A37440F0F1
:10A5B400A3E0FEA3E0FFBE9307BF40047D01800239
:10A5C4007D00BE9307BF41047F0180027F00EF4DF1
:10A5D40060047D9880027DC080399005977401F0F5
:10A5E400A37440F0A3E4F0A374F0F0A3E0FEA3E0AE
:10A5F400FFBE9307BF40047D0180027D00BE930728
:10A60400BF41047F0180027F00EF4D60047D2880FC
:0DA61400027D207C007F367E0012D0DB220C
:10CAD50078117C047D017BFF7A2F79CB7E007F0462
:10CAE5001221097B017A047911900419E4F0A374E9
:10CAF50004F07FD312C5AC900413E0FEA3E0FDED76
:01CB0500FF30
:01CB0600220C
:10A97500900487E0FCA3E0FD900485E0FAA3E0FBEA
:10A98500A3E0FFA3E0900455CFF0A3EFF09004817E
:10A99500E0FFA3E0900457CFF0A3EFF0900483E02D
:04A9A500FEA3E0FF2E
:0EA9A90090044FEEF0A3EFF0A3ECF0A3EDF05E
:10A9B70090044FE0FEA3E0FFC3EB9FFFEA9ECF2486
:10A9C70001CF340090045BF0A3EFF0900451E0FE58
:10A9D700A3E0FFC3900456E09FFF900455E09ECF8D
:10A9E7002401CF340090045DF0A3EFF0900451E010
:10A9F700FCA3E0FD900455E0FFA3E0900465CFF0D1
:10AA0700A3EFF090044FE0FEA3E0FF12BD02E49035
:10AA17000459F0A3F090045DE0FEA3E0FFC39004A7
:10AA27005AE09F900459E09E502DE4FBFAD390041E
:10AA37005CE09B90045BE09A400D90045712CEFFB8
:10AA47000BBB00010A80E690045AE004F070C69040
:10AA57000459E004F080BE900598E024FFFB9005C0
:10AA670097E034FFFA90059AE024FFFE900599E0FD
:10AA770034FF900465F0A3CEF0E4FDFCFFFE02BDB9
:01AA870002CC
:0E8ECA0090041DEEF0A3EFF0A3ECF0A3EDF08A
:108ED800E4900429F0A3F0A3F0A3F0900595E0FF37
:108EE800A3E090043BCFF0A3EFF0900425E0FFA3AC
:108EF800E0900595CFF0A3EFF090041DE0FEA3E00D
:108F0800FFC3EB9FFFEA9E90042DF0A3EFF09004BF
:108F18001FE0FAA3E0FBC3900424E09BFE90042327
:108F2800E09A90042FF0A3CEF090041DE0FFA3E098
:108F3800900437CFF0A3EFF0A3EAF0A3EBF090048E
:108F48002DE0FEA3E0FFD39400EE64809480400AF5
:108F5800900433E4F0A304F08021EF4E70089004ED
:108F680033F0A3F0801574FF900433F0A3F0C3E44A
:108F78009FFFE49E90042DF0A3EFF090042FE0FEF5
:108F8800A3E0FFD39400EE64809480400A900435F7
:108F9800E4F0A304F08021EF4E7008900435F0A3AC
:108FA800F0801574FF900435F0A3F0C3E49FFFE44C
:108FB8009E90042FF0A3EFF090042FE0FEA3E0FFB3
:108FC80090042DE0FCA3E0FDD39FEE6480F8EC64F0
:108FD80080989004314007ECF0A3EDF08005EEF0A6
:108FE800A3EFF0E4900427F0A3F0900432E024010A
:108FF800FF900431E03400FED3900428E09FEE6433
:1090080080F8900427E064809840030290D8900488
:1090180037E0FEA3E0FFA3E0FCA3E0FD12C7349015
:10902800042DE0FEA3E0FF90042AE02FF09004292D
:10903800E03EF090042FE0FEA3E0FF90042CE02F28
:10904800F090042BE03EF0900431E0FEA3E0FF90A6
:109058000429E0FCA3E0FDD39FEE6480F8EC648073
:10906800984020ED9FFFEC9E900429F0A3EFF0902C
:109078000433E0FEA3E0FF900438E02FF0900437BB
:10908800E03EF0900431E0FEA3E0FF90042BE0FC0A
:10909800A3E0FDD39FEE6480F8EC6480984020ED57
:1090A8009FFFEC9E90042BF0A3EFF0900435E0FEB8
:1090B800A3E0FF90043AE02FF0900439E03EF090EE
:1090C8000428E004F07006900427E004F0028FF210
:0F90D80090043BE0FFA3E0900595CFF0A3EFF0ED
:0190E7002266
:0E7729009004E9EEF0A3EFF0A3ECF0A3EDF076
:10773700E49004F6F0A3F0A3F0A3F0900595E0FF22
:10774700A3E0900508CFF0A3EFF09004F2E0FFA3C9
:10775700E0900595CFF0A3EFF09004E9E0FEA3E0F9
:10776700FFC3EB9FFFEA9E9004FAF0A3EFF09004AB
:10777700EBE0FAA3E0FBC39004F0E09BFE9004EF7C
:10778700E09A9004FCF0A3CEF09004E9E0FFA3E0B8
:10779700900504CFF0A3EFF0A3EAF0A3EBF0900479
:1077A700FAE0FEA3E0FFD39400EE64809480400AE1
:1077B700900500E4F0A304F08021EF4E70089005D7
:1077C70000F0A3F0801574FF900500F0A3F0C3E468
:1077D7009FFFE49E9004FAF0A3EFF09004FCE0FE14
:1077E700A3E0FFD39400EE64809480400A900502E2
:1077F700E4F0A304F08021EF4E7008900502F0A397
:10780700F0801574FF900502F0A3F0C3E49FFFE436
:107817009E9004FCF0A3EFF09004FCE0FEA3E0FFD1
:107827009004FAE0FCA3E0FDD39FEE6480F8EC64DB
:1078370080989004FE4007ECF0A3EDF08005EEF091
:10784700A3EFF0E49004F4F0A3F09004FFE0240128
:10785700FF9004FEE03400FED39004F5E09FEE6451
:1078670080F89004F4E06480984003027A40900422
:10787700F1E07011900504E0FEA3E0FFA3E0FCA394
:10788700E0FD12C7349004F1E064017038900504FC
:10789700E0FEA3E0FFA3E0FCA3E0FD12C7349005E0
:1078A70005E02401FF900504E03400FE900506E0A2
:1078B700FCA3E0FD12C734900504E0FEA3E0FF122D
:1078C700C72612C7189004F1E06402600302798F9B
:1078D700900504E0FEA3E0FFA3E0FCA3E0FD12C7D0
:1078E70034900505E02401FF900504E03400FE9084
:1078F7000506E0FCA3E0FD12C734900504E0FEA3F3
:10790700E0FF12C72612C718900505E024FFFF9075
:107917000504E034FF12C725900505E02401FF9018
:107927000504E03400FE900507E024FFFD900506FE
:10793700E034FFFC12C734900505E024FFFF9005F3
:1079470004E034FFFE900507E024FFFD900506E004
:1079570034FFFC12C734900505E024FFFF900504AF
:10796700E034FFFE900506E0FCA3E0FD12C734906B
:107977000504E0FEA3E0FF900507E024FFFD900566
:1079870006E034FFFC12C7349004FAE0FEA3E0FFE0
:107997009004F7E02FF09004F6E03EF09004FCE04E
:1079A700FEA3E0FF9004F9E02FF09004F8E03EF02A
:1079B7009004FEE0FEA3E0FF9004F6E0FCA3E0FDE8
:1079C700D39FEE6480F8EC6480984020ED9FFFEC35
:1079D7009E9004F6F0A3EFF0900500E0FEA3E0FF11
:1079E700900505E02FF0900504E03EF09004FEE0DE
:1079F700FEA3E0FF9004F8E0FCA3E0FDD39FEE6454
:107A070080F8EC6480984020ED9FFFEC9E9004F88E
:107A1700F0A3EFF0900502E0FEA3E0FF900507E07A
:107A27002FF0900506E03EF09004F5E004F07006B4
:107A37009004F4E004F0027851900508E0FFA3E019
:087A4700900595CFF0A3EFF0CC
:017A4F002214
:10AF5600900417EAF0A3EBF0900413EEF0A3EFF0E1
:10AF6600A3ECF0A3EDF0C007A3E0FAA3E0FB900486
:10AF760015E0FFA3E0900423CFF0A3EFF090041BAD
:10AF8600E0FFA3E0900425CFF0A3EFF0D007128EE8
:10AF9600CA900413E0FAA3E0FBFFAE02C007A3E0E9
:10AFA600FCA3E0FD900419E0FFA3E0900423CFF09A
:10AFB600A3EFF090041BE0FFA3E0900425CFF0A3DD
:10AFC600EFF0D007128ECA900419E0FCA3E0FD90C2
:10AFD6000417E0FAA3E0FBA3E0FFA3E0900423CF6D
:10AFE600F0A3EFF090041BE0FFA3E0900425CFF060
:10AFF600A3EFF0900413E0FEA3E0FF128ECA9004C4
:10B0060017E0FAA3E0FBFFAE02C007900415E0FCD0
:10B01600A3E0FD900419E0FFA3E0900423CFF0A382
:10B02600EFF090041BE0FFA3E0900425CFF0A3EF20
:06B03600F0D007028ECAF3
:10CC2400C00790044BE0FFA3E0900455CFF0A3EFBE
:10CC3400F090044DE0FFA3E0900457CFF0A3EFF091
:05CC4400D00702A9A9C0
:10CAA2009006B2FEE0FCA3E0FD9006B1E02DFD9001
:0DCAB20006B0E03CFC9006B6E0FAA3E0FB05
:10CABF0090078EEAF0A3EBF012C4AC90078EE0FE65
:06CACF00A3E0FF02CF040A
:10A289009006B4F0A3EFF0900605E0FFA3E0900676
:0EA29900B6CFF0A3EFF09005FFE0FEA3E0FFCC
:10A2A7009006B0ECF0A3EDF09006AEEEF0A3EFF061
:10A2B7009006B2EAF0A3EBF02FFFEE3AA312CAA57D
:10A2C7009006B2E0FEA3E0FFC39006AFE09FFF90C9
:10A2D70006AEE09EFE9006B412CAA69006B2E0FE55
:10A2E700A3E0FF9006AFE02FFF9006AEE03EFE90A2
:10A2F70006B4E0FCA3E0FDC39006B1E09DFD900627
:10A30700B0E09C12CAB69006B2E0FEA3E0FFC3908D
:10A3170006AFE09FFF9006AEE09EFE9006B4E0FC1D
:10A32700A3E0FDC39006B1E09DFD9006B0E09C124E
:10A33700CAB69006B4E0FEA3E0FF9006AFE02FFF99
:10A347009006AEE03E12CAA29006B4E0FEA3E0FF7C
:10A35700C39006AFE09FFF9006AEE09E12CAA290A0
:10A3670006B4E0FEA3E0FF9006AFE02FFF9006AE35
:10A37700E03EFE9006B2E0FCA3E0FDC39006B1E02C
:10A387009DFD9006B0E09C12CAB69006B4E0FEA30D
:10A39700E0FFC39006AFE09FFF9006AEE09EFE9001
:10A3A70006B2E0FCA3E0FDC39006B1E09DFD900678
:0FA3B700B0E09CFC9006B6E0FAA3E0FB02CABF40
:0E94BA009005FFEEF0A3EFF0A3ECF0A3EDF0B1
:1094C800E4900608F0A3F0A3EAF0A3EBF025E0FF90
:1094D800EA33FEC374039F90060FF0E49E90060ED5
:1094E800F0900607E070030295E990060AE0FEA3F3
:1094F800E0FF900608E0FCA3E0FDD39FEE6480F84F
:10950800EC648098400302969B90060CECF0A3ED67
:10951800F090060AE0FEA3E0FFD390060DE09FEE70
:109528006480F890060CE0648098502B900601E067
:10953800FCA3E0FD900608E0FAA3E0FB90060CE02F
:10954800FFA3E0CF12A28990060DE004F070C2904C
:10955800060CE004F080BA90060EE0FCA3E0FDC320
:10956800EC648094805023900608E0FEA3E0780223
:10957800C333CE33CED8F92DFFEC3ECF2406CF34FB
:109588000090060EF0A3EFF0804390060AE0FEA3D9
:10959800E0FFC3900609E09FFF900608E09EFEEFFB
:1095A8007802C333CE33CED8F9FF90060FE02FFFF1
:1095B80090060EE03ECF240ACF3400F0A3EFF090DF
:1095C800060BE024FFF090060AE034FFF09006094D
:1095D800E004F060030294F2900608E004F00294BC
:1095E800F290060AE0FEA3E0FF900608E0FAA3E086
:1095F800FBD39FEE6480F8EA648098400302969B50
:10960800900601E0FCA3E0FDEE12A28990060EE0B0
:10961800FCA3E0FDC3EC648094805023900608E02E
:10962800FEA3E07802C333CE33CED8F92DFFEC3E4B
:10963800CF2406CF340090060EF0A3EFF0804390BD
:10964800060AE0FEA3E0FFC3900609E09FFF90062C
