:10B27C004A6F696E207468652074696C65732C2044
:10B28C0067657420746F203230343821004E657736
:10B29C002047616D650042657374203A2537640060
:0DB2AC0053636F72653A2537640025640016
:1077B400410202004204070032620000020000009D
:1077C40000000000000000000000000000000000B5
:1077D40000000000000007F800001C3C0000381EF8
:1077E40000003C1E00003C1E00003C1E0000001E69
:1077F4000000001C0000003C000000380000007085
:10780400000000E0000001C0000003800000070049
:107814000000060000000C060000180C0000300CEC
:1078240000003FFC00003FFC0000000000000000DE
:107834000000000000000000000000000000000044
:107844000000000000000000000000000000000034
:1078540000000000000007F000000E3800001C3893
:1078640000001C1C00001C1C0000381C0000381CFC
:107874000000381C0000381C0000381C0000381CB4
:107884000000381C0000381C0000381C0000381CA4
:107894000000381C00001C1C00001C1800001C38D0
:1078A40000000E70000007E000000000000000006F
:1078B40000000000000000000000000000000000C4
:1078C40000000000000000000000000000000000B4
:1078D4000000000000000030000000700000007094
:1078E400000000F0000001F0000003F0000003704D
:1078F4000000067000000E7000000C70000018708C
:107904000000387000007070000060700000FFFF1D
:107914000000FFFF00000070000000700000007015
:10792400000000F8000003FF000000000000000059
:107934000000000000000000000000000000000043
:107944000000000000000000000000000000000033
:1079540000000000000007F000000E1C00001C0CDA
:1079640000001C0C00003C0E00003C0C00001C1C21
:1079740000001E3800000FF0000003E0000007F8CC
:1079840000000E7C0000183E0000381E0000300E7F
:107994000000300E0000300E0000380E00001C1CE9
:1079A40000000F78000001C000000000000000008B
:1079B4000000000000000000000000000042000081
:0279C4000000C1
:10A7FC00E4900668F0900668E0C39404748094803A
:10A80C005053E4FDEDC3940474809480503F900643
:10A81C0068E0FC7E007410A804088005C333CE33B6
:10A82C00CED8F9A805088005C333CE33CED8F9FFAE
:10A83C00EC75F008A42409F582E43404F58375F072
:10A84C0002ED1224E5EEF0A3EFF00D80B790066850
:10A85C00E004F080A0E4900405F0A3F0900203F073
:02A86C00A3F057
:01A86E0022C7
:1063A10012B54F12B81412B952D2AF12B87812BB4B
:1063B1001F1280F87F187EC612ADF77B017A06792D
:1063C10060129E39900664A3A3E0FEA3E0FBAA0637
:1063D100900660A3A3E0FEA3E02BFFEE3AFE12AF0E
:1063E1002B12A7FC7B017A00790290066CE4F0A3E2
:1063F1007438F0A3E4F0A37408F0A374F8F0A37464
:106401001FF074FFA3F0A3F0A37401F07F04124600
:106411007E7BFF7AB2797C90066F7484F0A374302E
:10642100F074FFA3F0A3F0A3740CF0A37401F07D4A
:106431002CFC7F247E0012A4E590066E7401F0A36B
:106441007425F0E4A3F0A3F07BDDFA7D5BFC7F1300
:10645100FE129B9990066E7401F0A37424F0A3744C
:10646100A6F0A37451F07BDC7A007D5C7C007F1484
:106471007E0012B63A90066EE4F0A3744FF0E4A3E6
:10648100F0A3F07BDCFA7D37FC7F96FE129B99909E
:10649100066EE4F0A3744EF0A3742BF0A37412F013
:1064A1007BDB7A007D387C007F977E0012B63A7BD9
:1064B100FF7AB2799974FF90066FF0A3F0A3F0A36D
:1064C100F0A3740CF0A37401F07D3D7C007FA17EEC
:1064D1000012A4E5E490065EF090065EE0FFC3942E
:1064E10005748094805059EF75F032A4245CFDE46A
:1064F10035F0FC900678F0A3EDF0A37454F0A3748A
:1065010058F07BDC7A007F147E00127EDA90065E02
:10651100E075F032A42414FFE435F0FEAB07FA90E5
:1065210006787401F0A37424F0A37454F0A3745892
:10653100F07D5C7C00127EDA90065EE004F08099CA
:10654100900754E0601A900755E02456F582E43430
:1065510007F583E0FD7F01129229900754E070FA5C
:10656100900202E06005E4F012BAB490066B74FF89
:10657100F0A374B2F0A374A2F0900405E0FFA3E0CD
:1065810090066ECFF0A3EFF07B017A06792B1250C3
:106591002E7B017A06792B90066F74FCF0A37407A9
:1065A100F074FFA3F0A3F0A37410F0A37401F07DC5
:1065B100327C007F147E0012A4E590066B74FFF01C
:1065C100A374B2F0A374ACF0900203E0FFA3E090D7
:1065D100066ECFF0A3EFF07B017A06792B12502ED5
:1065E1007B017A06792B90066F74FCF0A37407F097
:1065F10074FFA3F0A3F0A37410F0A37401F07D4421
:106601007C007F147E0012A4E5E490065EF0900603
:106611005EE0C39404748094804003026541E4A366
:10662100F090065FE0FFC3940474809480400302FD
:10663100672390066B74FFF0A374B2F0A374B6F0F5
:1066410090065EE075F008A42409F582E43404F5AF
:106651008375F002EF1224E5E0FFA3E090066ECF10
:10666100F0A3EFF07B017A06792B12502E7B017A91
:1066710006792B12B92A90065DEFF090065FE0755E
:10668100F032A4FBAAF02416FFE43AFEC006C007CC
:1066910090065EE075F032A4FFAEF0245EFDE43EAC
:1066A100FCEB2444FBE43AFAEF248CFFE43E900631
:1066B1006EF0A3EFF0A3747DF0A314F0D007D00621
:1066C100129B9990065FE075F032A4242DFDE4350C
:1066D100F0FC90065DE075F004A4FFC3ED9FFFECB4
:1066E10095F0FEC006C007A3E075F032A4246DFD4D
:1066F100E435F0FC7B017A06792B90066F7401F08A
:10670100A374CFF074FFA3F0A3F0A37410F0A374EB
:1067110001F0D007D00612A4E590065FE004F00274
:0B672100662290065EE004F002660FA6
:03000B0002A86FD9
:10A86F00C0E0C0F0C083C082C0D075D000C000C0AF
:0DA87F0001C002C003C004C005C006C00730
:10A88C00900001E02401FF900000E03400FE9004F1
:10A89C0007E0FAA3E0FBFDAC021221BB900000EC38
:10A8AC00F0A3EDF0EB24FFFFEA34FFFE900000E094
:0BA8BC00B50608A3E0B5070312000E6C
:10A8C700D007D006D005D004D003D002D001D000E5
:0BA8D700D0D0D082D083D0F0D0E0328F
:0300A30002B17B2C
:10B17B00C0E0C0F0C083C082C0D075D000C000C09A
:10B18B0001C002C003C004C005C006C0071298CEA0
:10B19B009002027401F0D007D006D005D004D00382
:10B1AB00D002D001D000D0D0D082D083D0F0D0E06C
:01B1BB003261
:04BB33007F03DFFEAF
:01BB370022EB
:04BB38007F12DFFE9B
:01BB3C0022E6
:04BB3D007F26DFFE82
:01BB410022E1
:04BB42007FC6DFFEDD
:01BB460022DC
:09BABF00007F027E5ADEFEDFFC6E
:01BAC800225B
:09BAC900007F207E28DEFEDFFC78
:01BAD2002251
:10B9AD00AD07AC0612BAC9ED1D70011C144C70F434
:01B9BD002267
:0779C600440948016E360080
:10B54F00E4F593F594F591F592F595F596F5B1F53A
:10B55F00B2F5B3F5B4F5C9F5CAF5CBF5CCF5E1F510
:0DB56F00E212BB0412B84612B6CBC2C122D4
:10B81400C28CD2A95389FC5389FB538FFE438E807B
:09B82400758CA2758A40D28C22B9
:10B82D00C28ED2AB5389CF5389BF538FFD438E4008
:09B83D00758DD1758B20D28E228D
:10B8C000538EE343AF04538FFB438E0475D6E87564
:06B8D000D790438E102208
:10B93F0053D1F043AF2043D10275D4ED75D54043B9
:03B94F00D10822FA
:10B9520053D10F43AF4043D12075D2F675D3A043E4
:03B96200D180226F
:10B965000102040810204080000000FFFF000000D5
:02B975000000D0
:10B8460053B3EF43B41053B3F743B40853B3FB43B6
:09B85600B404C2C4C2C3C2C22280
:0DBA5F00C2C312BB3DD2C312BB3DC2C32205
:05B1BC00900671EFF0A8
:10B1C100E4A3F0900672E0C3940874809480502A3E
:10B1D100900671E0548064807004D2C48002C2C4BD
:10B1E10012BB3DC2C212BB3DD2C212BB3D90067121
:0AB1F100E025E0F0A3E004F080C9BF
:01B1FB002231
:10AE4C0090066AEBF0A3EAF0A3E9F0A3ECF0A3ED13
:01AE5C00F005
:10AE5D00E4A3F0A3F090066DE0FEA3E0FFA3E0FCF9
:10AE6D00A3E0FDC39FEC9E502690066AE0FBA3E095
:10AE7D00FAA3E0F98D828C83122148FF12B1BC90A8
:10AE8D000670E004F070CE90066FE004F080C6020C
:02AE9D00BA5F9A
:10B6CB0078687C067D017BFF7AB9796D7E007F02FD
:10B6DB001221097B017A0679687D027C0002AE4C4F
:10B6EB00787A7C097D017BFF7AB9796F7E007F02C6
:10B6FB001221097B017A09797A7D027C0002AE4C1A
:10B70B00787C7C097D017BFF7AB979717E007F02A1
:10B71B001221097B017A09797C7D027C0002AE4CF7
:05AF3A00900974EFF026
:10AF3F0078757C097D017BFF7AB979737E007F027A
:10AF4F00122109900974E0FFD39407748094804014
:10AF5F000BEF90B95D93900975F0800C900974E038
:10AF6F0090B96593900976F07B017A0979757D0226
:05AF7F007C0002AE4C55
:10B72B00787E7C097D017BFF7AB979757E007F027B
:10B73B001221097B017A09797E7D027C0002AE4CD5
:0879CD00410980FE410981001F
:09BAFB0053B3FE43B401C2C022A2
:09BB040053B3FE43B401D2C02288
:10AD4900900980E0FF7E00647F7011A3E070047DAC
:10AD59000180027D00900981EDF08019EF64FE4EBB
:10AD69007013900981E0600D70047F0180027F00FB
:10AD7900900981EFF0900980E0FFF5E8A3E0700801
:10AD8900EF25E04401FF8009900980E0C313448066
:06AD9900FF900980EFF0BD
:01AD9F002291
:0300A00002B70B99
:0EA316009008E4EFF0A3EBF0A3EAF0A3E9F067
:10A32400C3740F9F9008EBF0AE029008E8A3E0FA24
:10A33400A3E0C399FFEA9EFE9008E4E0FDC374081D
:10A344009DFDE49400FCD3EF9DEC6480F8EE648002
:10A354009850599008E8E0FBA3E0FAA3E0F9C003A1
:10A36400C002C0019008E5A3E0FAA3E0F9C3D082DB
:10A37400D083D0E0E99582EA958350309008EBE0F1
:10A38400FF12AF3A9008E5E0FBA3E0FAA3E0F9126C
:10A39400212FF5E812BAC912B72B9008EBE014F09C
:0CA3A4009008E6E475F00112224680A744
:01A3B000228A
:0EA8E2009008FCEBF0A3EAF0A3E9F0A3EDF080
:10A8F000900901740FF0900901E0FFC3940874807F
:10A900009480405012AF3A900901E0FFC3740F9F4A
:10A91000FFE49400FE900900E07C002FFFEC3EFE77
:10A920009008FFE0FD1221BB900902EDF09008FCB9
:10A93000E0FBA3E0FAA3E0F9900902E0F582758359
:10A9400000122148F5E812BAC912B72B900901E0AC
:04A9500014F080A2DD
:01A9540022E0
:1079D5005207A4C0F9A4B0999282F880908883C612
:0579E500A1868EBFFF2A
:10B7890012B6EBE4F5CB75CCFF75E8FF53937F4315
:0DB799009480D2875395FD439602D2A122E1
:0686AC009008681224A8EA
:1086B20090086C7406F0900868E0FCEC3390087443
:1086C20040057411F0801A7410F0900868E0FCA361
:1086D200E0FDA3E0FEA3E0FF12243E90086812240E
:1086E200A8E47B0AFAF9F8900868E0FCA3E0FDA38D
:1086F200E0FEA3E0FF12B13790086DEBF0E47B0AD5
:10870200FAF9F8900868E0FCA3E0FDA3E0FEA3E01C
:10871200FF12B137E47B0AFAF9F812B13790086E0A
:10872200EBF0E47B64FAF9F8900868E0FCA3E0FD62
:10873200A3E0FEA3E0FF12B137E47B0AFAF9F812D4
:10874200B13790086FEBF0E47BE87A03F9F8900810
:1087520068E0FCA3E0FDA3E0FEA3E0FF12B137E472
:108762007B0AFAF9F812B137900870EBF0E47B104B
:108772007A27F9F8900868E0FCA3E0FDA3E0FEA3E5
:10878200E0FF12B137E47B0AFAF9F812B137900828
:1087920071EBF07BA07A8679017800900868E0FCA2
:1087A200A3E0FDA3E0FEA3E0FF12B137E47B0AFAE7
:1087B200F9F812B137900872EBF07B407A42790FE8
:1087C2007800900868E0FCA3E0FDA3E0FEA3E0FFD0
:1087D20012B137E47B0AFAF9F812B137900873EB59
:1087E200F090086CE0FF3395E0FE746D2FF5827413
:1087F200083EF583E0701A90086CE014F0EF3395B0
:10880200E0FE746D2FF58274083EF5837411F080DA
:10881200D0900868E0FCA3E0FDA3E0FEA3E0FFEC3B
:108822004D4E4F700490086DF090086C7407F090F4
:10883200086CE0FF3395E0C364809480403512AF4A
:108842003A90086CE0FF3395E0FE746D2FF5827468
:10885200083EF583E024A4F582E43407F583E0F5CD
:10886200E87F027E0012B9AD12B72B90086CE014BB
:03887200F080BCD7
:0188750022E0
:0BAA3600900919EBF0A3EAF0A3E9F08F
:10AA4100EFC39408748094805057C374089FFEA389
:10AA5100E0FDD39E504BC374089FC39DA3F09009A2
:10AA61001CE0FF14F0EF6039A3E0FF12AF3A900948
:10AA710019E0FBA3E0FAA3E0F9A3E0F582758300F6
:10AA810012214824A4F582E43407F583E0F5E87F38
:10AA9100027E0012B9AD12B72B90091DE004F080BF
:01AAA100BDF7
:01AAA2002291
:10B9BE00000102000300000004000000000000006F
:1079EA00510756002B0908072D06050478030201E2
:0479FA002F23002A0D
:10000E00900768E0FC75F8F07E3CDEFEE5F854F0F3
:10001E00900768F075F80F7E3CDEFE900768E0FEF4
:10002E00E5F8540FFDEE4DF0E0F4F06C70609007C3
:10003E0054E0FC900768E0900754F0604CC2D5EC99
:10004E007004D2D5801B900754E0B5041490076756
:10005E00E004F0C394147480948040057412F0D2BE
:10006E00D530D52A900754E0FFC4540F90B9BE93F3
:10007E00FC601BEF540F93FF6014EC1425E025E099
:10008E00FEEF2E900755F08005E4900767F075F8A7
:01009E00FF62
:01009F00223E
:03BB4C002564006D
:10B8D60075E8FFC293D290C291C291D291E5E82059
:05B8E600E7FBAFE822C2
:10B2B900900990EFF0C291D293C290F5E87F017E98
:10B2C9000012B9ADD2917F057E0012B9ADC291903D
:10B2D9000990E0C454F0F5E87F017E0012B9ADD2BF
:0BB2E900917F057E0012B9ADC29122DA
:10B2F400900991EFF0C291C293C290F5E87F017E6C
:10B304000012B9ADD2917F057E0012B9ADC2919001
:10B314000991E0C454F0F5E87F017E0012B9ADD282
:0BB32400917F057E0012B9ADC291229E
:0DBA6C00D293D290C291C291D291AFE82244
:10AC9200E4F5E85391F74392085391FE439201532E
:10ACA20091FD439202F5CB75CCFF7F3812B2F47F4F
:10ACB200057E0012B9AD7F3812B2F47F057E001214
:10ACC200B9AD7F3812B2F47F057E0012B9AD7F3282
:10ACD20012B2F47F2812B2F47F0C12B2F47F061281
:0CACE200B2F47F0112B2F47F8002B2F4E1
:0CBA86007F0112B2F47F027E0002B9AD15
:10B6A800900992EBF0ED5401FDEF540FFFED6004AB
:10B6B800EF4440FFEF4480FF12B2F4900992E0FF9C
:03B6C80002B2B912
:10AB0E00900903EFF0A3EDF0A3EBF0A3EAF0A3E9B5
:01AB1E00F046
:10AB1F0012B92A900908EFF0900904E05401F0905F
:10AB2F000903E0540FF0E4900909F0900908E0FFE1
:10AB3F00A3E0FEC39F502B900903E0FFA3E0FDA30A
:10AB4F00E0FBA3E0FAA3E0F98E827583001221489F
:10AB5F00FB12B6A8900903E004F0900909E004F095
:02AB6F0080C99B
:01AB710022C1
:0CAF8400900769EFF0A3EDF0AF03AE0200
:10AF90007B017A07796B90077AEBF0A3EAF0A3E9DB
:10AFA000F090066B74FFF0A374BBF0A3744CF0A395
:10AFB000EEF0A3EFF012502E900769E0FFA3E0FD42
:0EAFC00090077AE0FBA3E0FAA3E0F902AB0EE3
:0CBA920090FE82E030E6F9E054BFF022A4
:10B7DE0043912043922043911043921043BA80909C
:0BB7EE00FE8074E0F090FE82E4F02288
:09BB0D0090FE817401F002BA926D
:09BB160090FE817406F002BA925F
:0EB6840012BB0D12BA2712B692AF0512BA27EA
:10B6920090FE817403F012BA9290FE82E030E103D0
:06B6A2007F01227F00225F
:0EBA190090FE82E4F090FE817405F002BA9275
:0FB9CE0090FE827401F090FE817405F002BA922F
:0EBA270090FE86EFF090FE817402F002BA925B
:0FB9DD0090FE817404F012BA9290FE87E0FF2270
:10B3DD00AE0712B68412BB0DEE4401FF12BA27124E
:10B3ED00B69212B9DDEF122175740129F9E43AFA1A
:10B3FD00900923E06401600312BA19900923E01447
:09B40D00F070DF12B9CE02BB168B
:10B48500900926EBF0A3EAF0A3E9F012B68490093F
:10B4950026E0FBA3E475F00112225CA9F0FA122163
:10B4A5002FFF12BA2712B692900929E014F070DE28
:03B4B50002BB16C1
:103C860025640000000000003E5B4F5B3E3E6B4F2C
:103C96006B3E1C3E7C3E1C183C7E3C181C577D57D8
:103CA6001C1C5E7F5E1C00183C1800FFE7C3E7FF84
:103CB6000018241800FFE7DBE7FF30483A060E2617
:103CC60029792926407F050507407F05253F5A3C6F
:103CD600E73C5A7F3E1C1C08081C1C3E7F14227FB2
:103CE60022145F5F005F5F06097F017F006689958A
:103CF6006A606060606094A2FFA29408047E040873
:103D060010207E201008082A1C08081C2A08081EF5
:103D1600101010100C1E0C1E0C30383E3830060EDB
:103D26003E0E06000000000000005F0000000700D5
:103D36000700147F147F14242A7F2A122313086491
:103D46006236495620500008070300001C22410035
:103D56000041221C002A1C7F1C2A08083E08080075
:103D66008070300008080808080000606000201015
:103D76000804023E5149453E00427F4000724949CF
:103D860049462141494D331814127F1027454545B0
:103D9600393C4A49493141211109073649494936D1
:103DA600464949291E000014000000403400000066
:103DB6000814224114141414140041221408020198
:103DC6005909063E415D594E7C1211127C7F4949C4
:103DD60049363E414141227F4141413E7F49494961
:103DE600417F090909013E414151737F0808087F57
:103DF60000417F41002040413F017F081422417F5E
:103E0600404040407F021C027F7F0408107F3E41F5
:103E160041413E7F090909063E4151215E7F09194C
:103E26002946264949493203017F01033F40404064
:103E36003F1F2040201F3F4038403F631408146353
:103E460003047804036159494D43007F414141020F
:103E560004081020004141417F0402010204404051
:103E6600404040000307080020545478407F28440F
:103E760044383844444428384444287F38545454F9
:103E86001800087E090218A4A49C787F0804047808
:103E960000447D40002040403D007F102844000043
:103EA600417F40007C047804787C08040478384418
:103EB600444438FC1824241818242418FC7C0804CC
:103EC6000408485454542404043F44243C404020ED
:103ED6007C1C2040201C3C4030403C442810284498
:103EE6004C9090907C4464544C4400083641000049
:103EF60000770000004136080002010204023C2659
:103F060023263C1EA1A161123A4040207A3854541F
:103F160055592155557941215454784121555478A4
:103F26004020545579400C1E527212395555555938
:103F3600395454545939555454580000457C41005D
:103F460002457D420001457C40F0292429F0F028F5
:103F56002528F07C545545002054547C547C0A098D
:103F66007F4932494949323248484832324A4848FC
:103F7600303A4141217A3A42402078009DA0A07D06
:103F860039444444393D4040403D3C24FF242448C4
:103F96007E4943662B2FFC2F2BFF0929F620C0886C
:103FA6007E090320545479410000447D413048483D
:103FB6004A32384040227A007A0A0A727D0D193157
:103FC6007D2629292F28262929292630484D4020B3
:103FD600380808080808080808382F10C8ACBA2F8F
:103FE600102834FA00007B000008142A1422221438
:103FF6002A1408AA005500AAAA55AA55AA00000024
:10400600FF00101010FF00141414FF001010FF0022
:10401600FF1010F010F0141414FC001414F700FF35
:104026000000FF00FF1414F404FC141417101F10F2
:10403600101F101F1414141F00101010F0000000A1
:10404600001F101010101F10101010F010000000AC
:10405600FF101010101010101010FF10000000FFBD
:10406600140000FF00FF00001F10170000FC04F4FE
:1040760014141710171414F404F40000FF00F714B6
:10408600141414141414F700F7141414171410103D
:104096001F101F141414F4141010F010F000001F59
:1040A600101F0000001F14000000FC140000F01098
:1040B600F01010FF10FF141414FF141010101F003E
:1040C600000000F010FFFFFFFFFFF0F0F0F0F0FF40
:1040D600FFFF0000000000FFFF0F0F0F0F0F384417
:1040E6004438447C2A2A3E147E02020606027E02D8
:1040F6007E0263554941633844443C04407E201E99
:104106002006027E020299A5E7A5991C2A492A1CC7
:104116004C7201724C304A4D4D303048784830BCB4
:10412600625A463D3E494949007E0101017E2A2ADE
:104136002A2A2A44445F444440514A444040444A5F
:1041460051400000FF0103E080FF000008086B6B90
:10415600083612362436060F090F06000018180016
:1041660000001010003040FF0101001F01011E0079
:0E417600191D1712003C3C3C3C0000000000EC
:10B5A300900993EFF012BB0D7F7812BA2712B6926F
:10B5B300E4FF12BA2712B692900993E0FF12BA275A
:06B5C30012B69202BB1655
:10B5C900900994EFF012BB0D7F7812BA2712B69248
:10B5D9007F4012BA2712B692900994E0FF12BA2757
:06B5E90012B69202BB162F
:05B7F90024B0FFE4FD97
:10B7FE00900995EFF0ED6005E0FF02B5C99009954F
:06B80E00E0FF12B5A322C9
:10B5EF00900996EFF0ED12B7F9900996E054F0C478
:10B5FF00540F4410FFE4FD12B7FE900996E0540F6C
:06B60F00FFE4FD02B7FE9E
:10B8EB00E4FD7F8D12B7FEE4FD7F1412B7FEE4FD7D
:05B8FB007FAF02B7FE63
:10B90000E4FD7F8D12B7FEE4FD7F1012B7FEE4FD6B
:05B910007FAE02B7FE4E
:10B32F00E4FFEFC3940474809480502DE4FEEEC3C9
:10B33F00948074809480501E75F004EEA42429F537
:10B34F0082E5F03404F583E5822FF582E43583F549
:09B35F0083E4F00E80D80F80C9D0
:01B3680022C2
:10AAA300E4900983F0900983E0FFC39404748094D5
:10AAB300805057EF12B7F9E4FDFF12B7FEE4FD7FB4
:10AAC3001012B7FEE4900982F0900982E0FFC3946C
:10AAD3008074809480502BA3E0FE75F004EFA424CF
:10AAE30029F582E5F03404F583E5822EF582E43519
:10AAF30083F583E0FF7D0112B7FE900982E004F045
:0AAB030080C7900983E004F0809BF6
:01AB0D002225
:10B36900E4FEEEC3940474809480502DE4FDEDC393
:10B37900948074809480501E75F004EDA42429F5FE
:10B3890082E5F03404F583E5822EF582E43583F510
:09B3990083EFF00D80D80E80C98D
:01B3A2002288
:10A1C800900879A3E0FF90087DE075F00CA42F2B90
:0FA1D800FF90087BA3E090087EFEE02EFD7B0148
:10A1E700EFD3948074809480400302A272ED942090
:10A1F700748094805075EB6037ED131313541FFE72
:10A2070075F004EFA42429F582E5F03404F583E51D
:10A21700822EF582E43583F583C083C082E0FFEDAB
:10A227005407FEF87401088002C333D8FC4F803608
:10A23700ED131313541FFE75F004EFA42429F582C0
:10A24700E5F03404F583E5822EF582E43583F58362
:10A25700C083C082E0FFED5407FEF8740108800256
:0CA26700C333D8FCF45FD082D083F02217
:0D99C20090094DEDF0A3EBF090094CEFF093
:1099CF003395E0C3648094805077E4FCECC3940536
:1099DF00748094804003029AAD90094EE075F005B3
:1099EF00A42489F582E5F0343CF583E5822CF582D9
:1099FF00E43583F583E49390094FF0E4F9E9FF7EB2
:109A0F0000C3940874809480503490094CE0FDFB9F
:109A1F003395E0FAEB2FEE3AC364809480401590B3
:109A2F00094FE030E00EED2CFF90094DE029FD7B52
:109A3F000112A1E790094FE0C313F00980BF0C801A
:109A4F008BE4FCECC3940574809480505190094EC4
:109A5F00E075F005A42489F582E5F0343CF583E543
:109A6F00822CF582E43583F583E49390094FF0E47B
:109A7F00F9E9C3940874809480502090094FE03026
:109A8F00E00F90094CE02CFFA3E029FD7B0112A110
:0E9A9F00E790094FE0C313F00980D60C80A5B4
:019AAD002296
:10ABD60090092AEFF0A3EDF0A3EBF0A3EAF0A3E9C6
:01ABE600F07E
:10ABE700E4A3F090092CE0FBA3E0FAA3E0F9A3E0CB
:10ABF700F582758300122148FB603290092AE0FF35
:10AC0700A3E0FD1299C290092AE02408F0E0FF337F
:10AC170095E0FED3EF9478EE648094804007E4F0EB
:0DAC2700A3E02402F090092FE004F080B6B5
:01AC340022FD
:0CB3A3009007ECEFF0A3EDF0AF03AE025A
:10B3AF0090066B74FFF0A3743CF0A37486F0A3EEC9
:10B3BF00F0A3EFF07B017A0779EE12502E9007EC95
:0EB3CF00E0FFA3E0FD7B017A0779EE02ABD62A
:0E7A2E00900875EFF0A3EBF0A3EAF0A3E9F0E7
:107A3C00A3E0FEA3E0FFC3EE648094804003027BCE
:107A4C008BC3E49FFFE49EFE7C007D0C1222109001
:107A5C00087DEFF0900875E0FF90087DE0C39F4033
:107A6C0003027C93E4A3F090087EE0C3940C748032
:107A7C0094804003027B82E4A3F090087FE0FD7CBD
:107A8C0000C3940C748094804003027B7990087D31
:107A9C00E075F00CA42DFFEC35F0FE900879E0FCBD
:107AAC00A3E0FD2FFFEC3ECF24F4CF34FFFED3EF49
:107ABC00947FEE648094804003027C9390087EE077
:107ACC00FF90087CE02FFF90087BE03400CF24F47B
:107ADC00CF34FFFED3EF943FEE64809480400302DA
:107AEC007C9390087DE0F975F00CA4FFED2FFFEC72
:107AFC0035F0FE90087FE0FD7A002FEA3EC36480EB
:107B0C00948050028001C3405B90087EE075F002C7
:107B1C00A4FBAAF0E975F018A42BFFE5F03AFEEDF2
:107B2C00131313541F7C002FFFEC3EFE900876E0DD
:107B3C00FBA3E0FAA3E0F98F828E83122148FD901B
:107B4C00087FE0FB5407FF7E007480A807088006BE
:107B5C00CEA2E713CE13D8F8FFEE5CFEEF5D4E60BD
:107B6C000312A1C890087FE004F0027A8690087E88
:107B7C00E004F0027A7390087DE004F0027A60E48D
:107B8C0090087DF0900875E0FF90087DE0C39F4061
:107B9C0003027C93E4A3F090087EE0C3940C748001
:107BAC0094804003027C8AE4A3F090087FE0FD7C83
:107BBC0000C3940C748094804003027C8190087DF7
:107BCC00E075F00CA42DFFEC35F0FE90087AE02F58
:107BDC00FF900879E03ECF24F4CF34FFFED3EF942E
:107BEC007FEE648094804003027C9390087EE0FFDB
:107BFC00FD90087CE02DFD90087BE03CCD24F4CD7D
:107C0C0034FFFCD3ED943FEC648094805079EF7595
:107C1C00F002A4FDACF090087DE075F018A42DFFE7
:107C2C00E5F03CFE90087FE0131313541F7C002FEB
:107C3C00FFEC3EFE900876E0FBA3E0FAA3E0F98FA0
:107C4C00828E83122148FD90087FE0FB5407FF7E53
:107C5C00007480A807088006CEA2E713CE13D8F8CC
:107C6C00FFEE5CFEEF5D4E600312A1C890087FE052
:107C7C0004F0027BB690087EE004F0027BA390082F
:077C8C007DE004F0027B9093
:017C930022CE
:0E751A00900880EFF0A3EBF0A3EAF0A3E9F0F5
:10752800A3E0FEA3E0FFC3EE6480948040030276EC
:107538008FC3E49FFFE49EFE7C007D101222109012
:107548000888EFF0900880E0FF900888E0C39F402B
:10755800030277B3E4A3F0900889E0C39410748021
:1075680094804003027686E4A3F090088AE0FD7CCC
:1075780000C3941074809480400302767D9008883C
:10758800E075F010A42DFFEC35F0FE900884E0FCC7
:10759800A3E0FD2FFFEC3ECF24F0CF34FFFED3EF66
:1075A800947FEE6480948040030277B3900889E06A
:1075B800FF900887E02FFF900886E03400CF24F082
:1075C800CF34FFFED3EF943FEE64809480400302F3
:1075D80077B3900888E0F975F010A4FFED2FFFEC61
:1075E80035F0FE90088AE0FD7A002FEA3EC36480F9
:1075F800948050028001C34073900889E075F002BE
:10760800A4FBAAF0E975F020A42BFFE5F03AFEED03
:10761800131313541F7C002FFFEC3EFE900881E0EB
:10762800FBA3E0FAA3E0F98F828E83122148FD9034
:10763800088AE0FB5407FF7E007480A807088006CC
:10764800CEA2E713CE13D8F8FFEE5CFEEF5D4E60D6
:107658001B900884A3E0FF900888E0C454F02F2B07
:10766800FF900886A3E090088912A1E190088AE0BB
:1076780004F0027572900889E004F002755F9008C2
:1076880088E004F002754CE4900888F0900880E0E7
:10769800FF900888E0C39F40030277B3E4A3F0900B
:1076A8000889E0C394107480948040030277AAE4A8
:1076B800A3F090088AE0FD7C00C394107480948045
:1076C80040030277A1900888E075F010A42DFFEC24
:1076D80035F0FE900885E02FFF900884E03ECF2427
:1076E800F0CF34FFFED3EF947FEE648094804003A4
:1076F8000277B3900889E0FFFD900887E02DFD90A0
:107708000886E03CCD24F0CD34FFFCD3ED943FEC6B
:107718006480948040030277B3EF75F002A4FDAC57
:10772800F0900888E075F020A42DFFE5F03CFE906D
:10773800088AE0131313541F7C002FFFEC3EFE90C1
:107748000881E0FBA3E0FAA3E0F98F828E8312217F
:1077580048FD90088AE0FB5407FF7E007480A80764
:10776800088006CEA2E713CE13D8F8FFEE5CFEEF32
:107778005D4E601C900884A3E0FF900888E0C45424
:10778800F02F2BFF900886A3E0FE90088912A1E253
:1077980090088AE004F00276BA900889E004F002C2
:0B77A80076A7900888E004F0027694B9
:0177B30022B3
:0E727D0090088BEFF0A3EBF0A3EAF0A3E9F08A
:10728B00A3E0FEA3E0FFC3EE64809480400302738F
:10729B00F4C3E49FFFE49EFE7C007D181222109045
:1072AB000893EFF090088BE0FF900893E0C39F40AA
:1072BB0003027519E4A3F0900894E0C3941874804A
:1072CB00948040030273EBE4A3F0900895E0FD7CFF
:1072DB0000C394187480948040030273E290089367
:1072EB00E075F018A42DFFEC35F0FE90088FE0FC54
:1072FB00A3E0FD2FFFEC3ECF24E8CF34FFFED3EF0E
:10730B00947FEE648094804003027519900894E09A
:10731B00FF900892E02FFF900891E03400CF24E813
:10732B00CF34FFFED3EF943FEE6480948040030292
:10733B007519900893E0F975F018A4FFED2FFFEC89
:10734B0035F0FE900895E0FD7A002FEA3EC364808D
:10735B00948050028001C34075900894E075F0034F
:10736B00A4FBAAF0E975F048A42BFFE5F03AFEED7B
:10737B00131313541F7C002FFFEC3EFE90088CE080
:10738B00FBA3E0FAA3E0F98F828E83122148FD90D4
:10739B000895E0FB5407FF7E007480A80708800661
:1073AB00CEA2E713CE13D8F8FFEE5CFEEF5D4E6076
:1073BB001D90088FA3E0FF900893E075F018A42FA1
:1073CB002BFF900891A3E0FE90089412A1E2900885
:1073DB0095E004F00272D5900894E004F00272C2BA
:1073EB00900893E004F00272AFE4900893F09008D9
:1073FB008BE0FF900893E0C39F4003027519E4A351
:10740B00F0900894E0C39418748094804003027544
:10741B0010E4A3F0900895E0FD7C00C394187480F1
:10742B0094804003027507900893E075F018A42D23
:10743B00FFEC35F0FE900890E02FFF90088FE03EB8
:10744B00CF24E8CF34FFFED3EF947FEE648094809B
:10745B004003027519900894E0FFFD900892E02D0F
:10746B00FD900891E03CCD24E8CD34FFFCD3ED94A6
:10747B003FEC648094804003027519EF75F003A410
:10748B00FDACF0900893E075F048A42DFFE5F03CBF
:10749B00FE900895E0131313541F7C002FFFEC3E56
:1074AB00FE90088CE0FBA3E0FAA3E0F98F828E83B9
:1074BB00122148FD900895E0FB5407FF7E00748075
:1074CB00A807088006CEA2E713CE13D8F8FFEE5C10
:1074DB00FEEF5D4E601D90088FA3E0FF900893E0D8
:1074EB0075F018A42F2BFF900891A3E0FE90089441
:1074FB0012A1E2900895E004F002741F900894E04A
:0E750B0004F002740C900893E004F00273F98F
:01751900224F
:0E6FD700900896EFF0A3EBF0A3EAF0A3E9F028
:106FE500A3E0FEA3E0FFC3EE64809480400302713A
:106FF50053C3E49FFFE49EFE7C007D201222109087
:10700500089EEFF0900896E0FF90089EE0C39F4031
:107015000302727CE4A3F090089FE0C3942074807F
:107025009480400302714AE4A3F09008A0E0FD7C3F
:1070350000C3942074809480400302714190089E9F
:10704500E075F020A42DFFEC35F0FE90089AE0FCE9
:10705500A3E0FD2FFFEC3ECF24E0CF34FFFED3EFBE
:10706500947FEE64809480400302727C90089FE0D8
:10707500FF90089DE02FFF90089CE03400CF24E0AE
:10708500CF34FFFED3EF943FEE648094804003023B
:10709500727C90089EE0F975F020A4FFED2FFFECBF
:1070A50035F0FE9008A0E0FD7A002FEA3EC364802B
:1070B500948050028001C3407AED75F004A4FDACC4
:1070C500F0E975F080A42DFFE5F03CFE90089FE007
:1070D500131313541F7C002FFFEC3EFE900897E01E
:1070E500FBA3E0FAA3E0F98F828E83122148FD907D
:1070F500089FE0FB5407FF7E007480A80708800600
:10710500CEA2E713CE13D8F8FFEE5CFEEF5D4E601E
:107115002290089AA3E0FF90089EE0C43354E02F24
:10712500FF9008A0E02FFF90089CA3E02BFD7B01BA
:1071350012A1E79008A0E004F002702F90089FE0EC
:1071450004F002701C90089EE004F0027009E490BF
:10715500089EF0900896E0FF90089EE0C39F4003CC
:1071650002727CE4A3F090089FE0C394207480949D
:10717500804003027273E4A3F09008A0E0FD7C0058
:10718500C3942074809480400302726A90089EE044
:1071950075F020A42DFFEC35F0FE90089BE02FFF45
:1071A50090089AE03ECF24E0CF34FFFED3EF947FE2
:1071B500EE64809480400302727C90089FE0FDFF9E
:1071C50090089DE02FFF90089CE03400CF24E0CF8D
:1071D50034FFFED3EF943FEE648094804003027247
:1071E5007C9008A0E075F004A4FBAAF090089EE04E
:1071F50075F080A42BFFE5F03AFEED131313541F31
:107205002FFFEC3EFE900897E0FBA3E0FAA3E0F920
:107215008F828E83122148FD90089FE0FB5407FF63
:107225007E007480A807088006CEA2E713CE13D887
:10723500F8FFEE5CFEEF5D4E602290089AA3E0FF3A
:1072450090089EE0C43354E02FFF9008A0E02FFF84
:1072550090089CA3E02BFD7B0112A1E79008A0E01C
:1072650004F002717E90089FE004F002716B9008B3
:077275009EE004F0027158D5
:01727C0022EF
:0AA70A009008C0EFF09008C2EBF0D9
:10A71400E49008C7F0A3F09008C3E0131313541F88
:10A72400F0540770028000AF05AE079008C3E0FF45
:10A73400EEC39F504C9008C0E0FF9008C2E0FDEFCC
:10A74400C39D503A9008C4E0FBA3E0FAA3E0F9A348
:10A75400E475F00112225C85F082F583122148FD34
:10A7640075F004EFA42429F582E5F03404F583E5BB
:10A77400822EF582E43583F583EDF00F80BC0E80E4
:01A78400AA2A
:01A7850022B1
:10A06F0012B7DE7F647E0012B9ADE4FD7FAE12B78A
:10A07F00FEE4FD7F4012B7FEE4FD7FB012B7FEE4B1
:10A08F00FD7FC812B7FEE4FD7F8112B7FEE4FD7FAE
:10A09F00FF12B7FEE4FD7FA112B7FEE4FD7FA6120B
:10A0AF00B7FEE4FD7FA812B7FEE4FD7F1F12B7FED7
:10A0BF00E4FD7FD312B7FEE4FDFF12B7FEE4FD7F90
:10A0CF00D512B7FEE4FD7FF012B7FEE4FD7FD91283
:10A0DF00B7FEE4FD7F2212B7FEE4FD7FDA12B7FE72
:10A0EF00E4FD7F0212B7FEE4FD7FDB12B7FEE4FD55
:10A0FF007F4912B7FEE4FD7F8D12B7FEE4FD7F149A
:0DA10F0012B7FEE4FD7FAF12B7FE02B32FC2
:09BAD300007F027E3CDEFEDFFC78
:01BADC002247
:0EBA3500C2C67F147E0012B9ADD2C602BAD3CB
:10AC3500E4900997F030C615900997E0C3946474C1
:10AC45008094805008E004F012BB3380E8900997A7
:10AC5500E0C394647480948040037F0122E49009EA
:10AC650097F020C615900997E0C39464748094808A
:10AC75005008E004F012BB3380E8900997E0C394D4
:0CAC8500647480948040037F01227F00F3
:01AC910022A0
:10B0AB00E4900998F030C615900998E0C394647445
:10B0BB008094805008E004F012BB3380E8E49009E0
:10B0CB0098F020C615900998E0C39464748094801E
:10B0DB005008E004F012BB3380E812BAD330C60339
:05B0EB007F01227F003F
:01B0F000223D
:10B41600E4900985F0900984F0900984E0C39408CB
:10B4260074809480501CA3E0FF25E0F0E0FEC00687
:10B4360012B0ABD0E04F900985F0900984E004F09B
:07B4460080D7900985E0FFAB
:01B44D0022DC
:0B9FBE009008C9EBF0A3EAF0A3E9F063
:109FC90012BA3512AC35EF600302A0699008D1F0DE
:109FD9009008D1E0C3940574809480501A12B41685
:109FE9009008D1E024CCF582E43408F583EFF090B1
:109FF90008D1E004F080D99008CDE0FF9008CCE0CA
:10A009002FFFE433FE9008CEE07C002FFFEC3EFEEC
:10A01900A3E02FFFEC3EFEA3E06F7001EE704490C9
:10A0290008CCE0FF9008C9E0FBA3E0FAA3E0F9EF50
:10A039001221759008CDE0FF9008C9E0FBA3E0FA72
:10A04900A3E0F9900001EF1221879008CEE090007B
:10A05900021221879008CFE0900003122187800324
:05A069007F01227F00D1
:01A06E0022CF
:0EBA430053B3BF53B4BFD2C612BA3502AC35EE
:10B977007B017A097950129FBEEF70F4900950E06D
:01B98700FFC0
:01B98800229C
:109F01007B017A0879EC129FBEEF70F49008EEE0C5
:109F1100547FFCE4121D859008F01224A89008F0EB
:109F2100E0FCA3E0FDA3E0FEA3E0FFE4FBFA79205F
:109F31007841121B5C9008F01224A89008F0E0F818
:109F4100A3E0F9A3E0FAA3E0FBC000C001C002C096
:109F5100039008EFE0FCE4121D85D003D002D0018C
:109F6100D000121A6B9008F01224A89008F0E0FCBF
:109F7100A3E0FDA3E0FEA3E0FFE4FBFA7920784132
:109F8100121C659008F01224A89008EEE030E71E3C
:109F91009008F0E0FCA3E0FDA3E0FEA3E0FFE4FBFA
:109FA100FA798078BF121B5C9008F01224A89008FF
:0C9FB100F0E0FCA3E0FDA3E0FEA3E0FF55
:019FBD002281
:10253700256400000000000000000000000000000B
:10254700000404040404040004000000140A0A0040
:1025570000000000000000000014143F140A3F0AA6
:102567000A000000041E1505060C14150F040000D0
:102577000012150D0A142C2A1200000000040A0A82
:102587001E151509360000000202010000000000B8
:1025970000000000201008080808080810200000A4
:1025A70002040808080808080402000000000415CF
:1025B7000E0E150400000000000404041F040404A8
:1025C70000000000000000000000000002020100FF
:1025D700000000001F0000000000000000000000D5
:1025E70000000000020000001008080804040202AE
:1025F70002010000000E1111111111110E0000004F
:1026070000040604040404040E000000000E111167
:10261700080402011F000000000E11100C10101119
:102627000E00000000080C0A0A091E081800000026
:10263700001F01010F1010110E000000000E09010C
:102647000F1111110E000000001F090804040404F3
:1026570004000000000E11110E1111110E000000F0
:10266700000E1111111E10120E00000000000004D0
:10267700000000000400000000000000040000004B
:1026870004040000201008040204081020000000C1
:102697000000001F00001F000000000002040810D7
:1026A7002010080402000000000E111108040400A5
:1026B70004000000000E111915151D011E00000071
:1026C7000004040C0A0A1E1233000000000F121245
:1026D7000E1212120F000000001E1101010101115C
:1026E7000E000000000F1212121212120F0000004B
:1026F700001F120A0E0A02121F000000001F120A12
:102707000E0A020207000000001C12010139111213
:102717000C000000003312121E12121233000000C8
:10272700001F0404040404041F000000003E0808FE
:1027370008080808090700000037120A060A0A12E3
:102747003700000000070202020202223F000000D9
:10275700001B1B1B1B15151515000000003B12164F
:10276700161A1A1217000000000E1111111111117B
:102777000E000000000F12120E02020207000000F6
:10278700000E1111111117190E180000000F121267
:102797000E0A121237000000001E11010608101160
:1027A7000F000000001F1504040404040E000000BD
:1027B70000331212121212120C0000000033121210
:1027C7000A0A0C0404000000001515150E0A0A0A6F
:1027D7000A000000001B0A0A04040A0A1B00000082
:1027E700001B0A0A040404040E000000001F090865
:1027F700040402121F0000001C040404040404045F
:10280700041C00000202020404080808100000006B
:102817000E08080808080808080E0000040A000047
:1028270000000000000000000000000000000000A1
:1028370000003F000400000000000000000000004E
:10284700000000000C121C123C00000000030202F2
:102857000E1212120E000000000000001C120202ED
:102867001C000000001810101C1212123C0000007F
:10287700000000000C121E021C00000000380404B7
:102887001E0404041E000000000000003C120C029D
:102897001E221C00000302020E1212123700000053
:1028A70000040000060404040E00000000080000F5
:1028B7000C08080808080700000302023A0A0E126B
:1028C7003700000000070404040404041F0000008C
:1028D700000000000F15151515000000000000008E
:1028E7000F12121237000000000000000C12121223
:1028F7000C000000000000000F1212120E02070069
:10290700000000001C1212121C103800000000000A
:102917001B06020207000000000000001E020C1048
:102927001E000000000004040E0404041800000048
:10293700000000001B1212123C0000000000000003
:1029470037120A0C040000000000000015150E0ADB
:102957000A000000000000001B0A040A1B00000018
:102967000000000037120A0C0404030000000000F6
:102977001E0804041E0000001808080804080808B8
:1029870008180008080808080808080808080800C0
:1029970006040404080404040406000225180000C1
:1029A7000000000000000000000000000000000020
:1029B70000000000000000000000080808080808E0
:1029C7000800001818000000486C241200000000DE
:1029D700000000000000000000002424247F1212E1
:1029E700127F12121200000000081C2A2A0A0C1873
:1029F70028282A2A1C080800000022251515152A50
:102A0700585454542200000000000C1212120A7687
:102A1700252911916E00000006060403000000003E
:102A270000000000000000004020101008080808FF
:102A370008081010204000000204080810101010A9
:102A4700101008080402000000000008086B1C1C96
:102A57006B08080000000000000000080808087F55
:102A6700080808080000000000000000000000003F
:102A7700000000060604030000000000000000FE3E
:102A8700000000000000000000000000000000003F
:102A970000000006060000000080404020201010C3
:102AA70008080404020200000000182442424242BF
:102AB70042424224180000000000080E08080808D7
:102AC700080808083E00000000003C42424220205F
:102AD700100804427E00000000003C4242201820FB
:102AE700404042221C0000000000203028242422FD
:102AF700227E20207800000000007E0202021A26B3
:102B0700404042221C0000000000382402021A261E
:102B1700424242241800000000007E2222101008C2
:102B2700080808080800000000003C424242241838
:102B3700244242423C000000000018244242426402
:102B4700584040241C000000000000000018180036
:102B57000000001818000000000000000000080036
:102B670000000000080804000000402010080402CC
:102B7700040810204000000000000000007F000053
:102B8700007F000000000000000002040810204041
:102B9700201008040200000000003C42424640208A
:102BA700101000181800000000001C225A55555537
:102BB700552D42221C000000000008081814142498
:102BC7003C224242E700000000001F2222221E2270
:102BD700424242221F00000000007C4242010101E4
:102BE700010142221C00000000001F224242424213
:102BF700424242221F00000000003F4212121E12F2
:102C0700120242423F00000000003F4212121E1211
:102C1700120202020700000000003C22220101010B
:102C2700712122221C0000000000E7424242427E3E
:102C370042424242E700000000003E080808080838
:102C4700080808083E00000000007C101010101053
:102C57001010101010110F0000007722120A0E0A30
:102C6700121222227700000000000702020202026D
:102C7700020202427F000000000077363636362A0D
:102C87002A2A2A2A6B0000000000E346464A4A52D5
:102C9700525262624700000000001C22414141413C
:102CA700414141221C00000000003F424242423E97
:102CB700020202020700000000001C2241414141BC
:102CC700414D53321C60000000003F4242423E1219
:102CD70012222242C700000000007C424202041870
:102CE700204042423E00000000007F4908080808D3
:102CF700080808081C0000000000E7424242424260
:102D0700424242423C0000000000E74242222424A3
:102D1700141418080800000000006B494949495578
:102D270055362222220000000000E742242418180A
:102D370018242442E7000000000077222214140818
:102D4700080808081C00000000007E212010100859
:102D5700040442423F0000007808080808080808F1
:102D67000808080808780000000202040408080898
:102D770010102020204040001E10101010101010BE
:102D870010101010101E0000384400000000000052
:102D9700000000000000000000000000000000002C
:102DA700000000000000FF0006080000000000000F
:102DB70000000000000000000000000000003C428E
:102DC70078444242FC0000000000030202021A2677
:102DD700424242261A00000000000000000038446A
:102DE700020202443800000000006040404078447E
:102DF70042424264D80000000000000000003C424C
:102E07007E0202423C0000000000F08808087E08AD
:102E1700080808083E0000000000000000007C22AF
:102E2700221C023C42423C000000030202023A46D6
:102E370042424242E700000000000C0C00000E086E
:102E4700080808083E000000000030300000382065
:102E57002020202020221E000000030202027212FE
:102E67000A1612227700000000000E08080808085A
:102E7700080808083E0000000000000000007F92DC
:102E870092929292B70000000000000000003B46BB
:102E970042424242E70000000000000000003C42BE
:102EA700424242423C0000000000000000001B2696
:102EB700424242221E020700000000000000784440
:102EC700424242447840E000000000000000774C96
:102ED700040404041F0000000000000000007C42FE
:102EE700023C40423E0000000000000008083E0887
:102EF70008080808300000000000000000006342D6
:102F070042424262DC000000000000000000E7428D
:102F17002424140808000000000000000000EB490A
:102F270049555522220000000000000000007624C9
:102F3700181818246E000000000000000000E74287
:102F470024241418080807000000000000007E224F
:102F5700100808447E000000C020202020201020F8
:102F67002020202020C0001010101010101010106A
:102F77001010101010101000060808080808100894
:102F8700080808080806000C32C20000000000000C
:0B2F970000000000000000000000002F
:0A79FE004207930000420791FFFFCB
:0FB9EC00C293C2918FE800000000D291D2932243
:10B98900C293C29012BB33AFE8EF7F00FED290D2D0
:01B99900931A
:01B99A00228A
:05BB4700C28302B9EC0D
:05BADD0012BB47E4FF6D
:05BAE200D28302B9EC63
:0ABAE700D28312B989EEFF7E00221F
:05B91500E0FEA3E0FFCD
:10B91A00AD07AC06D283ECFF12B9ECAF0502B9EC65
:10B74B00AA07ED54FC75F008A4FDEA54F845F0FE89
:0FB75B00EDFFEB54F8131313541FFDEF4DFF22B6
:10A60800D283C293C29012BB33AFE8900954E4F0EE
:10A61800A3EFF0E0F8E4F0E8900954F0D290C2908B
:10A6280012BB33AFE8900954E4F0A3EFF0E0F8E48C
:10A63800F0E8900954F0D290C29012BB33AFE89082
:10A648000956E4F0A3EFF0E0F8E4F0E8900956F0DA
:10A65800D290C29012BB33AFE8AB07EBFAD290901E
:10A668000954E0FF7E00EEF0A3EFF0A3E0F8E4F079
:10A67800E8A3F0EAFB7A00D293900956A3E0FD0222
:02A68800B74BCE
:0ABAF10012BB47AE04AF0502BAE233
:10AFCE0090066DEBF0A3EAF0A3E9F07E0012BB470A
:10AFDE0075E8FF75CBFFE4F5CC90067074FFF5F0C5
:10AFEE0012225C45F0601912BAE790066DE0FBA3E1
:10AFFE00E475F00112225CA9F0FAEF12217580D9E6
:0AB00E00E4F5CB75CCFF75E8FF22D6
:0BBA9E0090079CE0FEA3E0FF02BB4706
:0BBAA90090079EE0FEA3E0FF02BB47F9
:08ADF700900668EEF0A3EFF0F6
:10ADFF0012A68AE490066AF0A3F0900795E0FEA3EE
:10AE0F00E0FFC390066BE09F90066AE09E502DE432
:10AE1F00FBFAD3900798E09B900797E09A400D902C
:10AE2F00066812B9150BBB00010A80E690066BE0AD
:0CAE3F0004F070C690066AE004F080BECB
:01AE4B0022E4
:10B0F100900703E02401FF900702E03400FE90076F
:0CB1010005E02401FD900704E03400FC90
:10B10D00AB07AA068D828C83C006C007AE83AF82C3
:10B11D00900698EEF0A3EFF0D007D00612A6B190EE
:0AB12D000793E0FEA3E0FF02B91A49
:08B01800900986EEF0A3EFF0B1
:10B02000D3900796E09F900795E09E400DD3900740
:10B0300098E09D900797E09C5004E4FEFF22900961
:10B0400086E0FEA3E0FF12AECE12BAA975E8FF7546
:10B05000CBFFE4F5CC12A608E4F5CB75CCFF75E880
:01B06000FFF0
:01B0610022CC
:10B615005391FE4392015391FD4392025393F74395
:10B6250094085391F74392085391DF439220E4F530
:05B63500CB75CCFF22E3
:10B85F007F327E0012B9ADC2957F327E0012B9AD34
:09B86F00D2957F327E0002B9ADD2
:1080F80012B61512B85F7F017E0012BB477F32129D
:10810800B9AD7F287E0012BB477FF612BB477F01BF
:1081180012BAE212BAE21F12BAE27FCF12BADD7FB8
:108128008112BAE27F3012BAE27FED12BB477F6458
:1081380012BAE27F0312BAE27F1212BAE27F811208
:10814800BAE27FE812BB477F8512BAE27F1012BA03
:10815800E27F7812BAE27FCB12BB477F3912BAE2CC
:108168007F2C12BAE2E4FF12BAE27F3412BAE27F3D
:108178000212BAE27FF712BB477F2012BAE27FEA07
:1081880012BADD12BAE27FB012BADD7FB412BADDDC
:108198007FC012BB477F2112BAE27FC112BB477F63
:1081A8001112BAE27FC512BB477F3F12BAE27F3C89
:1081B80012BAE27FC712BB477FB512BAE27F361206
:1081C800BB477F4812BAE27F3A12BB477F5512BAC3
:1081D800E27FB112BADD7F1B12BAE27FB612BB474B
:1081E8007F0A12BAE27FA212BAE27FF212BADD7FE8
:1081F8002612BB477F0112BAE27FE012BB477F0F0E
:1082080012BAE27F2612BAE27F2412BAE27F0B1278
:10821800BAE27F0E12BAE27F0912BAE27F5412BAAA
:10822800E27FA812BAE27F4612BAE27F0C12BAE2E3
:108238007F1712BAE27F0912BAE27F0F12BAE27F01
:108248000712BAE2E4FF12BAE27FE112BADD7F193F
:1082580012BAE27F1B12BAE27F0412BAE27F10124E
:10826800BAE27F0712BAE27F2A12BAE27F4712BA4D
:10827800E27F3912BAE27F0312BAE27F0612BAE24B
:1082880012BAE27F3012BAE27F3812BAE27F0F12D6
:10829800BAE27F2B12BADD12BAE20F12BAE27F3FBE
:1082A80012BAE27F2A12BADD12BAE212BAE27FEFFC
:1082B80012BAE27FB712BB477F0712BAE27F1112E8
:1082C800BB477F9612B9AD7F297E0012BB4712B417
:0E82D800EB900799EEF0A3EFF0E4FF0293574E
:10A68A00900796E024FFFB900795E034FFFA9007C5
:10A69A0098E024FFFE900797E034FF900698F0A315
:07A6AA00CEF0E4FDFCFFFE11
:10A6B100900692EEF0A3EFF09007A0E0FEA3E0FF7A
:10A6C10012BB47900692E0FF7E0012BAE2A3E0FFC0
:10A6D10012BAE2EAFF12BAE2AF037E0012BAE290C6
:10A6E10007A2E0FEA3E0FF12BB47ECFF7E0012BA17
:10A6F100E2AF057E0012BAE2900698E0FF12BAE2DC
:09A70100A3E0FF12BAE202BA9EC5
:10AE9F0090081BE075F00CA4FF900813E02FFF90B3
:10AEAF000812E035F0FEEB7C002FFFEC3EFE900821
:0FAEBF001CE0FD900815E09008142DFDE03CFC10
:10AECE00AB07AA068D828C83C006C007AE83AF8205
:0FAEDE00900698EEF0A3EFF0D007D00602A6B1D1
:109357009007A0E4F0A3742AF0A3E4F0A3742BF021
:1093670090079CE4F0A3742CF0A3E4F0A3742EF010
:10937700EF146050147003029406147003029441B2
:1093870024036003029483900795E4F0A374F0F03C
:10939700A37401F0A37440F0A3E0FEA3E0FFBE9323
:1093A70007BF40047D0180027D00BE9307BF4104D3
:1093B7007F0180027F00EF4D60057D0802947A7D72
:1093C7004002947A9007957401F0A37440F0A3E4E7
:1093D700F0A374F0F0A3E0FEA3E0FFBE9307BF4045
:1093E700047D0180027D00BE9307BF41047F018099
:1093F700027F00EF4D60047DF880027DF08074905D
:109407000795E4F0A374F0F0A37401F0A37440F09F
:10941700A3E0FEA3E0FFBE9307BF40047D018002E7
:109427007D00BE9307BF41047F0180027F00EF4D9F
:1094370060047D9880027DC080399007957401F0A3
:10944700A37440F0A3E4F0A374F0F0A3E0FEA3E05C
:10945700FFBE9307BF40047D0180027D00BE9307D6
:10946700BF41047F0180027F00EF4D60047D2880AB
:0D947700027D207C007F367E0012BAF122BB
:10B4EB0078687C067D017BFF7A2F799E7E007F0436
:10B4FB001221097B017A067968900670E4F0A37437
:10B50B0004F07FD312AFCE90066AE0FEA3E0FDED10
:01B51B00FF30
:01B51C00220C
:1096C3009006ACE0FCA3E0FD9006AAE0FAA3E0FB61
:1096D300A3E0FFA3E0900678CFF0A3EFF09006A6F7
:1096E300E0FFA3E090067ACFF0A3EFF09006A8E0A6
:0496F300FEA3E0FFF3
:0E96F700900672EEF0A3EFF0A3ECF0A3EDF0FE
:10970500900672E0FEA3E0FFC3EB9FFFEA9ECF2425
:1097150001CF340090067EF0A3EFF0900674E0FED2
:10972500A3E0FFC3900679E09FFF900678E09ECF07
:109735002401CF3400900680F0A3EFF0900674E08A
:10974500FCA3E0FD900678E0FFA3E0900698CFF03B
:10975500A3EFF0900672E0FEA3E0FF12A6B1E4903D
:10976500067CF0A3F0900680E0FEA3E0FFC3900620
:109775007DE09F90067CE09E502DE4FBFAD3900699
:109785007FE09B90067EE09A400D90067A12B9150F
:109795000BBB00010A80E690067DE004F070C690E0
:1097A500067CE004F080BE900796E024FFFB90075E
:1097B50095E034FFFA900798E024FFFE900797E0C4
:1097C50034FF900698F0A3CEF0E4FDFCFFFE02A660
:0197D500B1E2
:0E7EDA00900672EEF0A3EFF0A3ECF0A3EDF033
:107EE800E490067EF0A3F0A3F0A3F0900793E0FFE0
:107EF800A3E0900690CFF0A3EFF090067AE0FFA3FE
:107F0800E0900793CFF0A3EFF0900672E0FEA3E0B5
:107F1800FFC3EB9FFFEA9E900682F0A3EFF0900666
:107F280074E0FAA3E0FBC3900679E09BFE90067824
:107F3800E09A900684F0A3CEF0900672E0FFA3E0EA
:107F480090068CCFF0A3EFF0A3EAF0A3EBF0900635
:107F580082E0FEA3E0FFD39400EE64809480400AA0
:107F6800900688E4F0A304F08021EF4E7008900694
:107F780088F0A3F0801574FF900688F0A3F0C3E49E
:107F88009FFFE49E900682F0A3EFF0900684E0FE47
:107F9800A3E0FFD39400EE64809480400A90068AA0
:107FA800E4F0A304F08021EF4E700890068AF0A355
:107FB800F0801574FF90068AF0A3F0C3E49FFFE4F5
:107FC8009E900684F0A3EFF0900684E0FEA3E0FF05
:107FD800900682E0FCA3E0FDD39FEE6480F8EC6499
:107FE80080989006864007ECF0A3EDF08005EEF04F
:107FF800A3EFF0E490067CF0A3F0900687E024015C
:10800800FF900686E03400FED390067DE09FEE6484
:1080180080F890067CE064809840030280E890062F
:108028008CE0FEA3E0FFA3E0FCA3E0FD12B10D90FD
:108038000682E0FEA3E0FF90067FE02FF090067E28
:10804800E03EF0900684E0FEA3E0FF900681E02F7A
:10805800F0900680E03EF0900686E0FEA3E0FF90F8
:10806800067EE0FCA3E0FDD39FEE6480F8EC64801C
:10807800984020ED9FFFEC9E90067EF0A3EFF090D5
:108088000688E0FEA3E0FF90068DE02FF090068CB6
:10809800E03EF0900686E0FEA3E0FF900680E0FC5C
:1080A800A3E0FDD39FEE6480F8EC6480984020ED57
:1080B8009FFFEC9E900680F0A3EFF090068AE0FE0A
:1080C800A3E0FF90068FE02FF090068EE03EF09040
:1080D800067DE004F0700690067CE004F002800261
:0F80E800900690E0FFA3E0900793CFF0A3EFF096
:0180F7002266
:0E672C009006E7EEF0A3EFF0A3ECF0A3EDF083
:10673A00E49006F4F0A3F0A3F0A3F0900793E0FF2F
:10674A00A3E0900706CFF0A3EFF09006F0E0FFA3D6
:10675A00E0900793CFF0A3EFF09006E7E0FEA3E006
:10676A00FFC3EB9FFFEA9E9006F8F0A3EFF09006B6
:10677A00E9E0FAA3E0FBC39006EEE09BFE9006ED8B
:10678A00E09A9006FAF0A3CEF09006E7E0FFA3E0C5
:10679A00900702CFF0A3EFF0A3EAF0A3EBF0900684
:1067AA00F8E0FEA3E0FFD39400EE64809480400AF0
:1067BA009006FEE4F0A304F08021EF4E70089006E4
:1067CA00FEF0A3F0801574FF9006FEF0A3F0C3E478
:1067DA009FFFE49E9006F8F0A3EFF09006FAE0FE21
:1067EA00A3E0FFD39400EE64809480400A900700EF
:1067FA00E4F0A304F08021EF4E7008900700F0A3A4
:10680A00F0801574FF900700F0A3F0C3E49FFFE443
:10681A009E9006FAF0A3EFF09006FAE0FEA3E0FFDE
:10682A009006F8E0FCA3E0FDD39FEE6480F8EC64E8
:10683A0080989006FC4007ECF0A3EDF08005EEF09E
:10684A00A3EFF0E49006F2F0A3F09006FDE0240135
:10685A00FF9006FCE03400FED39006F3E09FEE645E
:10686A0080F89006F2E06480984003026A4390063A
:10687A00EFE07011900702E0FEA3E0FFA3E0FCA3A3
:10688A00E0FD12B10D9006EFE06401703890070246
:10689A00E0FEA3E0FFA3E0FCA3E0FD12B10D900728
:1068AA0003E02401FF900702E03400FE900704E0B1
:1068BA00FCA3E0FD12B10D900702E0FEA3E0FF1277
:1068CA00B0FF12B0F19006EFE06402600302699231
:1068DA00900702E0FEA3E0FFA3E0FCA3E0FD12B1F3
:1068EA000D900703E02401FF900702E03400FE90B8
:1068FA000704E0FCA3E0FD12B10D900702E0FEA33D
:10690A00E0FF12B0FF12B0F1900703E024FFFF90FE
:10691A000702E034FF12B0FE900703E02401FF9063
:10692A000702E03400FE900705E024FFFD9007040B
:10693A00E034FFFC12B10D900703E024FFFF90073B
:10694A0002E034FFFE900705E024FFFD900704E013
:10695A0034FFFC12B10D900703E024FFFF900702F9
:10696A00E034FFFE900704E0FCA3E0FD12B10D90B5
:10697A000702E0FEA3E0FF900705E024FFFD900771
:10698A0004E034FFFC12B10D9006F8E0FEA3E0FF2C
:10699A009006F5E02FF09006F4E03EF09006FAE05B
:1069AA00FEA3E0FF9006F7E02FF09006F6E03EF037
:1069BA009006FCE0FEA3E0FF9006F4E0FCA3E0FDF5
:1069CA00D39FEE6480F8EC6480984020ED9FFFEC42
:1069DA009E9006F4F0A3EFF09006FEE0FEA3E0FF1F
:1069EA00900703E02FF0900702E03EF09006FCE0EB
:1069FA00FEA3E0FF9006F6E0FCA3E0FDD39FEE6461
:106A0A0080F8EC6480984020ED9FFFEC9E9006F69B
:106A1A00F0A3EFF0900700E0FEA3E0FF900705E087
:106A2A002FF0900704E03EF09006F3E004F07006C1
:106A3A009006F2E004F0026854900706E0FFA3E033
:086A4A00900793CFF0A3EFF0D9
:016A52002221
:109B990090066CEAF0A3EBF0900668EEF0A3EFF004
:109BA900A3ECF0A3EDF0C007A3E0FAA3E0FB900655
:109BB9006AE0FFA3E0900678CFF0A3EFF09006707B
:109BC900E0FFA3E090067ACFF0A3EFF0D007127E72
:109BD900DA900668E0FAA3E0FBFFAE02C007A3E053
:109BE900FCA3E0FD90066EE0FFA3E0900678CFF0BD
:109BF900A3EFF0900670E0FFA3E090067ACFF0A300
:109C0900EFF0D007127EDA90066EE0FCA3E0FD903B
:109C1900066CE0FAA3E0FBA3E0FFA3E0900678CF8F
:109C2900F0A3EFF0900670E0FFA3E090067ACFF082
:109C3900A3EFF0900668E0FEA3E0FF127EDA90063B
:109C49006CE0FAA3E0FBFFAE02C00790066AE0FCF5
:109C5900A3E0FD90066EE0FFA3E0900678CFF0A3A5
:109C6900EFF0900670E0FFA3E090067ACFF0A3EF43
:069C7900F0D007027EDAC4
:10B63A00C00790066EE0FFA3E0900678CFF0A3EF74
:10B64A00F0900670E0FFA3E090067ACFF0A3EFF047
:05B65A00D0070296F785
:10B4B8009008B0FEE0FCA3E0FD9008AFE02DFD9001
:0DB4C80008AEE03CFC9008B4E0FAA3E0FB05
:10B4D500900988EAF0A3EBF012AECE900988E0FE61
:06B4E500A3E0FF02B91A0A
:1090EC009008B2F0A3EFF0900803E0FFA3E0900823
:0E90FC00B4CFF0A3EFF09007FDE0FEA3E0FF7D
:10910A009008AEECF0A3EDF09008ACEEF0A3EFF00F
:10911A009008B0EAF0A3EBF02FFFEE3AA312B4BB2B
:10912A009008B0E0FEA3E0FFC39008ADE09FFF9077
:10913A0008ACE09EFE9008B212B4BC9008B0E0FE03
:10914A00A3E0FF9008ADE02FFF9008ACE03EFE9050
:10915A0008B2E0FCA3E0FDC39008AFE09DFD9008D3
:10916A00AEE09C12B4CC9008B0E0FEA3E0FFC3903E
:10917A0008ADE09FFF9008ACE09EFE9008B2E0FCCC
:10918A00A3E0FDC39008AFE09DFD9008AEE09C12FD
:10919A00B4CC9008B2E0FEA3E0FF9008ADE02FFF48
:1091AA009008ACE03E12B4B89008B2E0FEA3E0FF2B
:1091BA00C39008ADE09FFF9008ACE09E12B4B8904F
:1091CA0008B2E0FEA3E0FF9008ADE02FFF9008ACE4
:1091DA00E03EFE9008B0E0FCA3E0FDC39008AFE0DB
:1091EA009DFD9008AEE09C12B4CC9008B2E0FEA3BC
:1091FA00E0FFC39008ADE09FFF9008ACE09EFE90B0
:10920A0008B0E0FCA3E0FDC39008AFE09DFD900824
:0F921A00AEE09CFC9008B4E0FAA3E0FB02B4D5F0
:0E84CA009007FDEEF0A3EFF0A3ECF0A3EDF0B1
:1084D800E4900806F0A3F0A3EAF0A3EBF025E0FF90
:1084E800EA33FEC374039F90080DF0E49E90080CD5
:1084F800F0900805E070030285F9900808E0FEA3F3
:10850800E0FF900806E0FCA3E0FDD39FEE6480F84E
:10851800EC64809840030286AB90080AECF0A3ED67
:10852800F0900808E0FEA3E0FFD390080BE09FEE70
:108538006480F890080AE0648098502B9007FFE068
:10854800FCA3E0FD900806E0FAA3E0FB90080AE02F
:10855800FFA3E0CF1290EC90080BE004F070C290FB
:10856800080AE004F080BA90080CE0FCA3E0FDC320
:10857800EC648094805023900806E0FEA3E0780223
:10858800C333CE33CED8F92DFFEC3ECF2406CF34FB
:108598000090080CF0A3EFF08043900808E0FEA3D9
:1085A800E0FFC3900807E09FFF900806E09EFEEFFB
:1085B8007802C333CE33CED8F9FF90080DE02FFFF1
:1085C80090080CE03ECF240ACF3400F0A3EFF090DF
:1085D8000809E024FFF0900808E034FFF09008074D
:1085E800E004F06003028502900806E004F00285CA
:1085F80002900808E0FEA3E0FF900806E0FAA3E076
:10860800FBD39FEE6480F8EA64809840030286AB4F
:108618009007FFE0FCA3E0FDEE1290EC90080CE060
:10862800FCA3E0FDC3EC648094805023900806E02E
:10863800FEA3E07802C333CE33CED8F92DFFEC3E4B
:10864800CF2406CF340090080CF0A3EFF0804390BD
:108658000808E0FEA3E0FFC3900807E09FFF90082A
:1086680006E09EFEEF7802C333CE33CED8F9FF90F2
:10867800080DE02FFF90080CE03ECF240ACF34000D
:10868800F0A3EFF0900809E024FFF0900808E03428
:10869800FFF0900807E004F07006900806E004F088
:0386A8000285F94F
:0186AB0022AC
:10A2730090083EEEF0A3EFF0A3ECF0A3EDF0A3EA19
:10A28300F0A3EBF0C007A3E0FFA3E0900678CFF0C4
:10A29300A3EFF090084AE0FFA3E090067ACFF0A383
:10A2A300EFF0D007127EDA900844E0FCA3E0FDA3B0
:10A2B300E0FAA3E0FBA3E0FFA3E0900678CFF0A3CE
:10A2C300EFF090084AE0FFA3E090067ACFF0A3EF07
:10A2D300F0900842E0FEA3E0FF127EDA900848E027
:10A2E300FCA3E0FD90083EE0FAA3E0FBA3E0FFA39C
:10A2F300E0900678CFF0A3EFF090084AE0FFA3E0E8
:10A3030090067ACFF0A3EFF0900846E0FEA3E0FFBB
:03A31300027EDAED
:10ADA0009009337401F0A37406F0A374A0F07B0142
:04ADB0007A06799C0A
:0BADB400900930EBF0A3EAF0A3E9F0F7
:10ADBF00122272FFAEF0900933E0FBA3E0FAA3E09A
:10ADCF00F9122272FD900930E0FBA3E0FAA3E0F93B
:10ADDF00E5F08DF01222D5900933E0FBA3E0FAA342
:08ADEF00E0F9EE8FF00222D51D
:1041840090069AEEF0A3EFF0A3ECF0A3EDF0A3EA0F
:04419400F0A3EBF0B9
:104198009006BC1224B4000000009006C01224B49B
:1041A800000000009006A0E0FEA3E0FF90069CE05F
:1041B800FCA3E0D39FEC9E401A12ADA09009337483
:1041C80001F0A37406F0A3749EF07B017A06799A35
:1041D80012ADB49006A4E0FEA3E0FF9006A0E0FCB8
:1041E800A3E0D39FEC9E402E9009337401F0A37492
:1041F80006F0A374A0F07B017A0679A412ADB490FE
:1042080009337401F0A37406F0A3749EF07B017A5D
:104218000679A212ADB49006A0E0FEA3E0FF9006D6
:104228009CE0FCA3E0D39FEC9E401A12ADA090093D
:10423800337401F0A37406F0A3749EF07B017A0630
:10424800799A12ADB49006A4E0FEA3E0FF90069C14
:10425800E0FCA3E0FD6F7002EC6E600302432C905B
:10426800069AE0FEA3E0FF9006AAEEF0A3EFF09016
:1042780006A8EEF0A3EFF09006A8E0FEA3E0FF90FA
:10428800069EE0FAA3E0FBC39FEA9E500A9006A8A8
:10429800EAF0A3EBF0801E9006AAE0FEA3E0FFD3AD
:1042A800EB9FEA9E400F90069EE0FFA3E09006AACF
:1042B800CFF0A3EFF09006A8E0FEA3E0FF9006A2DF
:1042C800E0FAA3E0FBC39FEA9E500A9006A8EAF032
:1042D800A3EBF0801E9006AAE0FEA3E0FFD3EB9FBD
:1042E800EA9E400F9006A2E0FFA3E09006AACFF056
:1042F800A3EFF09006AAE0FAA3E0FB90069CE0FF8B
:10430800A3E0900678CFF0A3EFF09006A6E0FFA315
:10431800E090067ACFF0A3EFF09006A8E0FEA3E0C5
:10432800FF0296F790069AE0FAA3E0FB90069EE05B
:10433800FEA3E0C39BFFEE9A9006B0F0A3EFF090C7
:10434800069CE0FEA3E0FF9006A0E0FCA3E0C39F6C
:10435800FFEC9E9006B2F0A3EFF09006A2E0FEA359
:10436800E0C39BFFEE9A9006B4F0A3EFF090069C92
:10437800E0FEA3E0FF9006A4E0FCA3E0C39FFFECEF
:104388009E9006B6F0A3EFF090069EE0FEA3E0FF35
:104398009006A2E0FCA3E0C39FFFEC9E9006B8F055
:1043A800A3EFF09006A0E0FAA3E0FB9006A4E0FCDF
:1043B800A3E0FDC39BFEEC9A9006BAF0A3CEF0EB07
:1043C800B50510EAB5040C9006A0FFA3E09006AE70
:1043D800CF80109006A0E0FEA3E024FFFFEE34FF9C
:1043E8009006AEF0A3EFF090069CE0FFA3E09006E5
:1043F800ACCFF0A3EFF09006AEE0FEA3E0FF90068E
:10440800ACE0FCA3E0D39FEC9E4003024518900665
:10441800B2E0FEA3E0FBAA06EA3395E0F9F89006BD
:10442800BCE0FCA3E0FDA3E0FEA3E0FF12B13790DF
:10443800069AE0FCA3E02FFFEC3E9006A8F0A3EF5D
:10444800F09006B6E0FEA3E0FBAA06EA3395E0F991
:10445800F89006C0E0FCA3E0FDA3E0FEA3E0FF1295
:10446800B13790069AE0FCA3E02FFFEC3E9006AA35
:10447800F0A3EFF09006BCE0F8A3E0F9A3E0FAA3FC
:10448800E0FB9006B0E0FEA3E0FFEE3395E0FDFC14
:10449800EB2FFFEA3EFEE93DFDE83CFC9006BC122E
:1044A80024A89006C0E0F8A3E0F9A3E0FAA3E0FB93
:1044B8009006B4E0FEA3E0FFEE3395E0FDFCEB2FA1
:1044C800FFEA3EFEE93DFDE83CFC9006C01224A848
:1044D8009006AAE0FEA3E0FF9006A8E0FCA3E0D3C4
:1044E8009FEC9E40179009337401F0A37406F0A363
:1044F80074AAF07B017A0679A812ADB41296C3901B
:1045080006ADE004F070069006ACE004F00243FE4D
:104518009006A0E0FEA3E0FF9006ACE0FAA3E0FB63
:10452800C39FFFEA9EFE9006B8E0FCA3E0FD1221BF
:10453800A9E4FCFD9006BC1224A890069CE0FEA30A
:10454800E0FFC3EB9FFFEA9EFE9006B4E0FCA3E009
:10455800FD1221A9E4FCFD9006C01224A89006A42F
:10456800E0FEA3E0FF9006ACE0FCA3E0D39FEC9E46
:10457800400302467D9006BAE0FEA3E0FBAA06EAE5
:104588003395E0F9F8A3E0FCA3E0FDA3E0FEA3E087
:10459800FF12B13790069EE0FCA3E02FFFEC3E909F
:1045A80006A8F0A3EFF09006B6E0FEA3E0FBAA068B
:1045B800EA3395E0F9F89006C0E0FCA3E0FDA3E03B
:1045C800FEA3E0FF12B13790069AE0FCA3E02FFFAC
:1045D800EC3E9006AAF0A3EFF09006BCE0F8A3E04A
:1045E800F9A3E0FAA3E0FB9006B8E0FEA3E0FFEE33
:1045F8003395E0FDFCEB2FFFEA3EFEE93DFDE83C8C
:10460800FC9006BC1224A89006C0E0F8A3E0F9A329
:10461800E0FAA3E0FB9006B4E0FEA3E0FFEE3395DA
:10462800E0FDFCEB2FFFEA3EFEE93DFDE83CFC9097
:1046380006C01224A89006AAE0FEA3E0FF9006A8F0
:10464800E0FCA3E0D39FEC9E40179009337401F07F
:10465800A37406F0A374AAF07B017A0679A812ADB8
:10466800B41296C39006ADE004F070069006ACE074
:0546780004F00245659D
:01467D00221A
:107C9400900677ECF0A3EDF0A3EBF0900675EEF010
:037CA400A3EFF05B
:107CA700900679E024E0F0C3EE64809480400302FC
:107CB7007DB8E4F990067EE0FFE9C39F4003027EAA
:107CC700B0EF640C900679700FE075F00CA4243ABD
:107CD700F582E5F03425800DE075F010A424AEF5AB
:107CE70082E5F03429F583E58229F582E43583F5C9
:107CF70083E493900680F0E4900681F090067EE09E
:107D0700C313FF900681E0FEC39F4003027DB4EEDC
:107D1700FF900676E02FFF900675E03400FEC364FF
:107D2700809480407A90067FE07045A3E030E017AA
:107D3700E9FD900678E02DFD900677E03400FC120F
:107D4700AECE90067A8055900681E0FF900676E0E9
:107D57002FFF900675E03400FEE9FD900678E02DD0
:107D6700FD900677E03400FC12AECE90067C802CA6
:107D7700900680E030E028A3E0FF900676E02FFF32
:107D8700900675E03400FEE9FD900678E02DFD9041
:107D97000677E03400FC12AECE90067A12B9159041
:107DA7000680E0C313F0A3E004F0027D0309027C20
:107DB700BBE4F990067EE0FFE9C39F4003027EB073
:107DC700EF640C900679700FE075F00CA4243AF577
:107DD70082E5F03425800DE075F010A424AEF5821D
:107DE700E5F03429F583E58229F582E43583F583C7
:107DF700E493900680F0E4900681F090067EE0C35D
:107E070013FF900681E0FEC39F4003027EAC9006FD
:107E17007FE07054A3E030E026EEFF900676E02F77
:107E2700FF900675E03400FEE9FD900678E02DFD31
:107E3700900677E03400FC12AECE90067A8055901B
:107E47000681E0FF900676E02FFF900675E034008C
:107E5700FEE9FD900678E02DFD900677E03400FC02
:107E670012AECE90067C802C900680E030E028A3EE
:107E7700E0FF900676E02FFF900675E03400FEE9FC
:107E8700FD900678E02DFD900677E03400FC12AEF9
:107E9700CE90067A12B915900680E0C313F0A3E0DE
:107EA70004F0027E0209027DBA900796E024FFFBE8
:107EB700900795E034FFFA900798E024FFFE9007BB
:107EC70097E034FF900698F0A3CEF0E4FDFCFFFEA8
:037ED70002A6B14F
:10A4E500900668EEF0A3EFF0A3ECF0A3EDF0A3EB7C
:10A4F500F0A3EAF0A3E9F090066CE0FBA3E0FAA371
:10A50500E0F912212FFFD3947E506BEFC3942040C6
:10A515006590066AE0FCA3E0FD12212FFB90066F13
:10A52500E0FFA3E090067ACFF0A3EFF0900671E08C
:10A53500FFA3E090067CCFF0A3EFF0900673E090C8
:10A54500067EF0900674E090067FF0900668E0FEC7
:10A55500A3E0FF127C94900673E0C313FF90066995
:10A56500E02FF0900668E03400F090066DE475F099
:07A575000112224680812241
:10A7860090073EEEF0A3EFF0A3ECF0A3EDF0AF03DD
:02A79600AE0211
:10A7980090066B74FFF0A37425F0A37437F0A3EE52
:10A7A800F0A3EFF07B017A07794A12502E90074008
:10A7B800E0FCA3E0FD7B017A07794A900744E0FFBB
:10A7C800A3E090066FCFF0A3EFF0900746E0FFA359
:10A7D800E0900671CFF0A3EFF0900748E090067381
:10A7E800F0900749E0900674F090073EE0FEA3E081
:04A7F800FF02A4E5D3
:0E58CC0090080EEFF0A3EBF0A3EAF0A3E9F0D2
:1058DA00A3E0FEA3E0FFC3EE648094804003025A73
:1058EA00C5C3E49FFFE49EFE7C007D0C122210904B
:1058FA00081BEFF090080EE0FF90081BE0C39F40E2
:10590A0003025C67E4A3F090081CE0C3940C748063
:10591A0094804003025ABCE4A3F090081DE0FD7C89
:10592A0000C3940C748094804003025AB390081BFD
:10593A00E075F00CA42DFFEC35F0FE900812E0FCA7
:10594A00A3E0FD2FFFEC3ECF24F4CF34FFFED3EFCC
:10595A0094EFEE648094804003025C6A90081CE035
:10596A00FF900815E02FFF900814E03400CF24F4CC
:10597A00CF34FFFED3EF9453EE6480948140030248
:10598A005C6A90081BE0F975F00CA4FFED2FFFECA0
:10599A0035F0FE90081DE0FD7A002FEA3EC36480D0
:1059AA00948050028001C35003025AAA90081AE058
:1059BA006003025A4390081CE075F002A4FBAAF0A7
:1059CA00E975F018A42BFFE5F03AFEED1313135412
:1059DA001F7C002FFFEC3EFE90080FE0FBA3E0FACD
:1059EA00A3E0F98F828E83122148FD90081DE0FB07
:1059FA005407FF7E007480A807088006CEA2E7132A
:105A0A00CE13D8F8FFEE5CFEEF5D4E90081B6009DE
:105A1A0012AEA2900816025AA7E075F00CA4FF90E5
:105A2A000813E02FFF900812E035F0FE90081DE001
:105A3A0012AEB6900818025AA790081CE075F00238
:105A4A00A4FDACF090081BE075F018A42DFFE5F05A
:105A5A003CFE90081DE0131313541F7C002FFFEC2B
:105A6A003EFE90080FE0FBA3E0FAA3E0F98F828ED6
:105A7A0083122148FD90081DE0FB5407FF7E007445
:105A8A0080A807088006CEA2E713CE13D8F8FFEE47
:105A9A005CFEEF5D4E600912AE9F90081612B915B2
:105AAA0090081DE004F002592490081CE004F0025A
:105ABA00591190081BE004F00258FEE490081BF00C
:105ACA0090080EE0FF90081BE0C39F4003025C674A
:105ADA00E4A3F090081CE0C3940C74809480400303
:105AEA00025C5EE4A3F090081DE0FD7C00C3940C08
:105AFA00748094804003025C5590081BE075F00C9A
:105B0A00A42DFFEC35F0FE900813E02FFF90081249
:105B1A00E03ECF24F4CF34FFFED3EF94EFEE64805F
:105B2A0094804003025C6A90081CE0FFFD9008150F
:105B3A00E02DFD900814E03CCD24F4CD34FFFCD3D5
:105B4A00ED9453EC648094814003025C6A90081AD5
:105B5A00E06003025BE5EF75F002A4FDACF0A3E0A0
:105B6A0075F018A42DFFE5F03CFE90081DE0131314
:105B7A0013541F7C002FFFEC3EFE90080FE0FBA39E
:105B8A00E0FAA3E0F98F828E83122148FD90081D66
:105B9A00E0FB5407FF7E007480A807088006CEA2A7
:105BAA00E713CE13D8F8FFEE5CFEEF5D4E90081BAC
:105BBA00600912AEA2900816025C49E075F00CA4C6
:105BCA00FF900813E02FFF900812E035F0FE9008CE
:105BDA001DE012AEB6900818025C4990081CE075E8
:105BEA00F002A4FDACF090081BE075F018A42DFF9C
:105BFA00E5F03CFE90081DE0131313541F7C002FA0
:105C0A00FFEC3EFE90080FE0FBA3E0FAA3E0F98F59
:105C1A00828E83122148FD90081DE0FB5407FF7E07
:105C2A00007480A807088006CEA2E713CE13D8F81E
:105C3A00FFEE5CFEEF5D4E600912AE9F90081612F1
:105C4A00B91590081DE004F0025AF090081CE0040F
:105C5A00F0025ADD90081BE004F0025ACA12A68A22
:015C6A002217
:0E544C0090081EEFF0A3EBF0A3EAF0A3E9F046
:10545A00A3E0FEA3E0FFC3EE6480948040030256FB
:10546A00B3C3E49FFFE49EFE7C007D1012221090DD
:10547A00082BEFF090081EE0FF90082BE0C39F4036
:10548A00030258C8E4A3F090082CE0C39410748077
:10549A00948040030256AAE4A3F090082DE0FD7C14
:1054AA0000C394107480948040030256A190082B84
:1054BA00E075F010A42DFFEC35F0FE900822E0FC18
:1054CA00A3E0FD2FFFEC3ECF24F0CF34FFFED3EF55
:1054DA0094EFEE6480948040030258CB90082CE04D
:1054EA00FF900825E02FFF900824E03400CF24F035
:1054FA00CF34FFFED3EF9453EE64809481400302CD
:10550A0058CB90082BE0F975F010A4FFED2FFFECB3
:10551A0035F0FE90082DE0FD7A002FEA3EC3648044
:10552A00948050028001C3500302569890082AE0E2
:10553A00600302560290082CE075F002A4FBAAF060
:10554A00E975F020A42BFFE5F03AFEED131313548E
:10555A001F7C002FFFEC3EFE90081FE0FBA3E0FA41
:10556A00A3E0F98F828E83122148FD90082DE0FB7B
:10557A005407FF7E007480A807088006CEA2E713AE
:10558A00CE13D8F8FFEE5CFEEF5D4E90082B60302C
:10559A00E075F010A4FF900823E02FFF900822E0A6
:1055AA0035F0FEEB7C002FFFEC3EFE90082CE0FD70
:1055BA00900825E090082412AEC990082602569554
:1055CA00E075F010A4FF900823E02FFF900822E076
:1055DA0035F0FE90082DE07C002FFFEC3EFE90088F
:1055EA002CE0FD900825E02DFD900824E03CFC12FB
:1055FA00AECE90082802569590082CE075F002A4C9
:10560A00FDACF090082BE075F020A42DFFE5F03CEE
:10561A00FE90082DE0131313541F7C002FFFEC3E5D
:10562A00FE90081FE0FBA3E0FAA3E0F98F828E83C5
:10563A00122148FD90082DE0FB5407FF7E0074807C
:10564A00A807088006CEA2E713CE13D8F8FFEE5CAF
:10565A00FEEF5D4E603890082BE075F010A4FF90C5
:10566A000823E02FFF900822E035F0FEEB7C002FA4
:10567A00FFEC3EFE90082CE0FD900825E02DFD9001
:10568A000824E03CFC12AECE90082612B915900808
:10569A002DE004F00254A490082CE004F002549186
:1056AA0090082BE004F002547EE490082BF0900856
:1056BA001EE0FF90082BE0C39F40030258C8E4A3F2
:1056CA00F090082CE0C39410748094804003025830
:1056DA00BFE4A3F090082DE0FD7C00C39410748011
:1056EA00948040030258B690082BE075F010A42D60
:1056FA00FFEC35F0FE900823E02FFF900822E03EF1
:10570A00CF24F0CF34FFFED3EF94EFEE6480948081
:10571A0040030258CB90082CE0FFFD900825E02DAD
:10572A00FD900824E03CCD24F0CD34FFFCD3ED9469
:10573A0053EC6480948140030258CB90082AE060BD
:10574A0003025817EF75F002A4FDACF0A3E075F060
:10575A0020A42DFFE5F03CFE90082DE0131313540E
:10576A001F7C002FFFEC3EFE90081FE0FBA3E0FA2F
:10577A00A3E0F98F828E83122148FD90082DE0FB69
:10578A005407FF7E007480A807088006CEA2E7139C
:10579A00CE13D8F8FFEE5CFEEF5D4E90082B603515
:1057AA00E075F010A4FF900823E02FFF900822E094
:1057BA0035F0FEEB7C002FFFEC3EFE90082CE0FD5E
:1057CA00900825E02DFD900824E03CFC12AECE9016
:1057DA0008260258AAE075F010A4FF900823E02FCB
:1057EA00FF900822E035F0FE90082DE07C002FFFA4
:1057FA00EC3EFE90082CE0FD900825E02DFD900877
:10580A0024E03CFC12AECE9008280258AA90082C3C
:10581A00E075F002A4FDACF090082BE075F020A42E
:10582A002DFFE5F03CFE90082DE0131313541F7C66
:10583A00002FFFEC3EFE90081FE0FBA3E0FAA3E076
:10584A00F98F828E83122148FD90082DE0FB5407C0
:10585A00FF7E007480A807088006CEA2E713CE1345
:10586A00D8F8FFEE5CFEEF5D4E603890082BE075CD
:10587A00F010A4FF900823E02FFF900822E035F0F3
:10588A00FEEB7C002FFFEC3EFE90082CE0FD90081A
:10589A0025E02DFD900824E03CFC12AECE900826AF
:1058AA0012B91590082DE004F00256DE90082CE09B
:1058BA0004F00256CB90082BE004F00256B812A668
:0158CA008A53
:0158CB0022BA
:0E4B440090082EEFF0A3EBF0A3EAF0A3E9F047
:104B5200A3E0FEA3E0FFC3EE648094804003024D15
:104B6200B0C3E49FFFE49EFE7C007D1812221090E9
:104B7200083BEFF090082EE0FF90083BE0C39F4017
:104B820003024FC5E4A3F090083CE0C3941874807C
:104B920094804003024DA7E4A3F090083DE0FD7C21
:104BA20000C39418748094804003024D9E90083B89
:104BB200E075F018A42DFFEC35F0FE900832E0FC11
:104BC200A3E0FD2FFFEC3ECF24E8CF34FFFED3EF6E
:104BD20094EFEE648094804003024FC890083CE05A
:104BE200FF900835E02FFF900834E03400CF24E82E
:104BF200CF34FFFED3EF9453EE64809481400302DE
:104C02004FC890083BE0F975F018A4FFED2FFFECB8
:104C120035F0FE90083DE0FD7A002FEA3EC3648045
:104C2200948050028001C35003024D9590083AE0EF
:104C32006003024CFF90083CE075F003A4FBAAF06D
:104C4200E975F048A42BFFE5F03AFEED1313135477
:104C52001F7C002FFFEC3EFE90082FE0FBA3E0FA42
:104C6200A3E0F98F828E83122148FD90083DE0FB7C
:104C72005407FF7E007480A807088006CEA2E713BF
:104C8200CE13D8F8FFEE5CFEEF5D4E90083B603528
:104C9200E075F018A4FF900833E02FFF900832E08F
:104CA20035F0FEEB7C002FFFEC3EFE90083CE0FD71
:104CB200900835E02DFD900834E03CFC12AECE9019
:104CC2000836024D92E075F018A4FF900833E02FE9
:104CD200FF900832E035F0FE90083DE07C002FFFA7
:104CE200EC3EFE90083CE0FD900835E02DFD90087A
:104CF20034E03CFC12AECE900838024D9290083C53
:104D0200E075F003A4FDACF090083BE075F048A418
:104D12002DFFE5F03CFE90083DE0131313541F7C79
:104D2200002FFFEC3EFE90082FE0FBA3E0FAA3E089
:104D3200F98F828E83122148FD90083DE0FB5407D3
:104D4200FF7E007480A807088006CEA2E713CE1368
:104D5200D8F8FFEE5CFEEF5D4E603890083BE075E0
:104D6200F018A4FF900833E02FFF900832E035F0EE
:104D7200FEEB7C002FFFEC3EFE90083CE0FD90082D
:104D820035E02DFD900834E03CFC12AECE900836A2
:104D920012B91590083DE004F0024B9C90083CE0EB
:104DA20004F0024B8990083BE004F0024B76E49059
:104DB200083BF090082EE0FF90083BE0C39F4003C1
:104DC200024FC5E4A3F090083CE0C39418748094A9
:104DD200804003024FBCE4A3F090083DE0FD7C005C
:104DE200C39418748094804003024FB390083BE050
:104DF20075F018A42DFFEC35F0FE900833E02FFF7C
:104E0200900832E03ECF24E8CF34FFFED3EF94EF98
:104E1200EE648094804003024FC890083CE0FFFD9E
:104E2200900835E02DFD900834E03CCD24E8CD34E7
:104E3200FFFCD3ED9453EC648094814003024FC88D
:104E420090083AE06003024F14EF75F003A4FDAC42
:104E5200F0A3E075F048A42DFFE5F03CFE90083D7C
:104E6200E0131313541F7C002FFFEC3EFE90082F1B
:104E7200E0FBA3E0FAA3E0F98F828E83122148FDC2
:104E820090083DE0FB5407FF7E007480A80708806D
:104E920006CEA2E713CE13D8F8FFEE5CFEEF5D4E0E
:104EA20090083B6035E075F018A4FF900833E02FBE
:104EB200FF900832E035F0FEEB7C002FFFEC3EFE67
:104EC20090083CE0FD900835E02DFD900834E03C70
:104ED200FC12AECE900836024FA7E075F018A4FF80
:104EE200900833E02FFF900832E035F0FE90083D45
:104EF200E07C002FFFEC3EFE90083CE0FD90083580
:104F0200E02DFD900834E03CFC12AECE9008380251
:104F12004FA790083CE075F003A4FDACF090083B6D
:104F2200E075F048A42DFFE5F03CFE90083DE0134B
:104F32001313541F7C002FFFEC3EFE90082FE0FB62
